:100000000C94F5160C941F170C941F170C941F17C3
:100010000C948A830C948A830C948A830C948A832C
:100020000C941F170C941F170C941F170C941F1778
:100030000C941F170C94926D0C941F170C941F179F
:100040000C941F170C949B8B0C94A8850C941F1771
:100050000C945D340C9453340C941F170C941F179C
:100060000C941F170C941F170C941F170C941F1738
:100070000C941F170C941F170C941F170C941F1728
:100080000C94AE2E0C941F170C941F178F349F34B2
:10009000B034BB34C334DA34C734DA34CB34CF347D
:1000A000DA34D5344299459938993C995C995C99F0
:1000B00049994D9953995799B7AF9AAF9DAFBAAF38
:1000C000A0AFA3AFA6AFB2AFA9AFC5AFACAFAFAF54
:1000D000A7CA65C998C9E3CA98C998C998C998C9EF
:1000E00098C998C998C998C998C998C998C998C908
:1000F00098C998C998C998C998C998C998C998C9F8
:1001000098C998C998C998C998C998C9DDCA98C9A1
:1001100098C998C998C998C998C998C998C9B6CAB8
:1001200098C998C998C998C998C998C998C998C9C7
:1001300098C998C9FACA95C9C0D7C5D7CAD7D4D75C
:1001400002D802D8DED7E6D7EED7F8D705A84CCD2F
:10015000B2D44EB93836A9020C50B9918688083C01
:10016000A6AAAA2ABE000000803F4E414E494E4931
:100170005459494E46CDCCCC3D0AD7233C17B7D174
:100180003877CC2B329595E6241FB14F0A0000201A
:10019000410000C84200401C4620BCBE4CCA1B0E99
:1001A0005AAEC59D7400407A10F35A00A0724E18E2
:1001B000090010A5D4E80000E87648170000E40B19
:1001C00054020000CA9A3B000000E1F505000080DF
:1001D000969800000040420F000000A08601000039
:1001E00000102700000000E8030000000064000089
:1001F0000000000A00000000000100000000002CC8
:1002000076D888DC674F0823DFC1DFAE59E1B1B78C
:1002100096E5E3E453C63AE651997696E8E6C28459
:1002200026EB898C9B62ED407C6FFCEFBC9C9F4071
:10023000F2BAA56FA5F490055A2AF75C936B6CF996
:10024000676DC11BFCE0E40D47FEF520E6B500D06C
:10025000ED902E0300943577050080841E08000081
:10026000204E0A000000C80C333333330F986E124F
:10027000831141EF8D2114893BE65516CFFEE6DB55
:1002800018D1844B381BF77C1D901DA4BBE424209F
:100290003284725E228100C9F124ECA1E53D272061
:1002A000573A00434F4D4D554E49434154494F4EE7
:1002B0000044525952554E004552524F5253004934
:1002C0004E464F004543484F006F6B003F5A206F2A
:1002D0007574206F662072616E67652028003F5933
:1002E000206F7574206F662072616E676520282DFF
:1002F0000020746F20003F58206F7574206F6620B7
:1003000072616E676520282D0050726F6265204F04
:100310006666736574205800454550524F4D204F16
:100320004B0A004F666673657473204170706C6988
:100330006564004572723A20546F6F2066617221C5
:1003400000546F6F206661722066726F6D20726557
:10035000666572656E636520706F696E740A004D24
:1003600034323120696E636F72726563742070611C
:1003700072616D657465722075736167650A0064EA
:1003800069730043290A0061626C656420286D6905
:100390006E2074656D702000436F6C642065787406
:1003A0007275646573206172652000496E76616CB8
:1003B00069642065787472756465720A0020643A15
:1003C0000020693A0020703A0050726F6265204F39
:1003D0006666736574205A0020536572766F20003C
:1003E00050726F7465637465642050696E0A0020F2
:1003F000466C6F773A200046523A0020204D6178D3
:100400003A200020204D696E3A2000536F66742018
:10041000656E6473746F70733A20003F4A206F7585
:1004200074206F662072616E67652028302E30312F
:1004300020746F20302E33290A00205400205200EF
:10044000416363656C65726174696F6E3A20500038
:100450004D31343520533C696E6465783E206F75AC
:1004600074206F662072616E67652028302D3129F7
:100470000A002F2F200032303230303830362E61D3
:10048000204F46462E0042656420436F6F6C696EB4
:10049000672E2E2E004265642048656174696E6780
:1004A0002E2E2E004D3131332053006F66660044EE
:1004B000454255473A0045202553002569792025B6
:1004C0006964202569682025696D202569730050BD
:1004D00072696E742074696D653A20004E6F204D0C
:1004E0006F76652E00436C69636B20746F205265D4
:1004F00073756D652E2E2E004D65736820706F69C3
:100500006E74206F7574206F662072616E67650A65
:10051000005A2050726F62652050617374204265EA
:10052000640A005A2050726F626520506173742013
:1005300042656400486F6D65205859206669727382
:10054000740A00486F6D65205859204669727374AB
:1005500000536C6565702E2E2E0000000000000018
:10056000000000000000C402BF02B802B102A302F2
:1005700000004842000048420000A04100006B43D8
:1005800000006B4300007A43FFFFFF4572726F72F9
:100590002077726974696E6720746F2045455052E8
:1005A0004F4D210A004E6F20436865636B73756D74
:1005B0002077697468206C696E65206E756D626560
:1005C000722C204C617374204C696E653A20006374
:1005D0006865636B73756D206D69736D61746368B5
:1005E0002C204C617374204C696E653A20004C6974
:1005F0006E65204E756D626572206973206E6F7432
:10060000204C617374204C696E65204E756D626577
:10061000722B312C204C617374204C696E653A202A
:10062000004D313130002121204B494C4C20636179
:100630007573656420627920746F6F206D756368CF
:1006400020696E6163746976652074696D65202D1B
:100650002063757272656E7420636F6D6D616E6478
:100660003A2000627573793A207061757365642071
:10067000666F7220696E7075740A00627573793ADC
:100680002070617573656420666F72207573657282
:100690000A00627573793A2070726F6365737369CB
:1006A0006E670A000F150E1216170E1303021A14A6
:1006B00001000E0DFF180C040C19000124F4D430B5
:1006C00050C38E20C2A24017828B7011127A910DF6
:1006D000816CD90AA861E108C758660761514306D1
:1006E0001E4B5D05C145A7041A411104093D98033D
:1006F000713931034036DB0265339102D430540244
:10070000802E1D02632CEE01752AC501B028A001C0
:10071000102781018F2564012B244B01E022340135
:10072000AC211F018D200D01801FFC00841EED00F7
:10073000971DDF00B81CD200E61BC600201BBC00C2
:10074000641AB200B219A8000A19A0006A18990028
:10075000D117910040178B00B516840031167E002A
:10076000B31579003A157300C7146F0058146A0066
:10077000EE1366008813630025135E00C7125B004A
:100780006C12570015125400C111510070114F0026
:1007900021114B00D61049008D104700461044002F
:1007A00002104200C00F4000800F3E00420F3C008C
:1007B000060F3B00CB0E3800930E37005C0E350061
:1007C000270E3400F30D3200C10D3100900D3000C2
:1007D000600D2E00320D2D00050D2C00D90C2B00C4
:1007E000AE0C2900850C29005C0C2700350C270075
:1007F0000E0C2600E80B2400C40B2400A00B2300E1
:100800007D0B23005A0B2100390B2100180B20000F
:10081000F80A1F00D90A1E00BB0A1E009D0A1D000F
:10082000800A1D00630A1C00470A1B002C0A1B00DB
:10083000110A1A00F7091A00DD091900C409190084
:10084000AB091900920917007B091800630917000A
:100850004C09160036091600200916000A09150071
:10086000F5081500E0081400CC081400B8081400BE
:10087000A4081400900813007D0812006B081300F0
:10088000580812004608120034081100230811000D
:100890001208110001081100F0071000E007100015
:1008A000D0071000C0071000B0070F00A10710000C
:1008B00091070E0083070F0074070F0065070E00F5
:1008C00057070E0049070E003B070D002E070E00CC
:1008D00020070D0013070D0006070D00F9060C0098
:1008E000ED060D00E0060C00D4060C00C8060C0056
:1008F000BC060C00B0060C00A4060B0099060C0008
:100900008D060B0082060B0077060B006C060B00B1
:1009100061060A0057060B004C060A0042060A0050
:1009200038060A002E060A0024060A001A060A00E3
:100930001006090007060A00FD050900F405090074
:10094000EB050900E2050900D9050900D0050900F9
:10095000C7050900BE050900B5050800AD0508007A
:10096000A50509009C050800940508008C050800F1
:10097000840508007C050800740508006C05070064
:10098000650508005D050700560508004E050700CF
:100990004705070040050800380507003105070036
:1009A0002A050700230507001C0506001605070099
:1009B0000F0507000805060002050700FB040600F6
:1009C000F5040700EE040600E8040600E204070050
:1009D000DB040600D5040600CF040600C9040600A7
:1009E000C3040600BD040600B7040600B1040500F8
:1009F000AC040600A6040600A00405009B04060043
:100A000095040500900406008A040500850405008D
:100A1000800406007A0405007504050070040500D2
:100A20006B04050066040500610405005C04050014
:100A300057040500520405004D0405004804050054
:100A4000430405003E0404003A0405003504050093
:100A5000300404002C0405002704040023040500CE
:100A60001E0404001A040400160405001104040006
:100A70000D0404000904050004040400000404003B
:100A8000FC030400F8030400F4030400F003040072
:100A9000EC030400E8030400E4030400E0030400A2
:100AA000DC030400D8030400D4030400D0030400D2
:100AB000CC030400C8030300C503030024F404D9D5
:100AC000201BC40C5C0E9804C4095F026507710109
:100AD000F405F900FB04B30048048700C103690072
:100AE0005803550003034500BE023A00840231005A
:100AF00053022A002902250004022000E4011C0000
:100B0000C8011900AF0117009801140084011300F7
:100B1000710110006101100051010E0043010D0030
:100B200036010B002B010B0020010B001501090001
:100B30000C01090003010800FB000800F300080095
:100B4000EB000700E4000600DE000600D800060007
:100B5000D2000600CC000500C7000500C200050059
:100B6000BD000400B9000400B5000400B100040099
:100B7000AD000400A9000400A5000300A2000300CA
:100B80009F0004009B0003009800030095000200F2
:100B900093000300900003008D0002008B0003000F
:100BA0008800020086000200840003008100020029
:100BB0007F0002007D0002007B000200790002003D
:100BC000770001007600020074000200720001004C
:100BD000710002006F0002006D0001006C00020055
:100BE0006A00010069000200670001006600010060
:100BF0006500010064000200620001006100010064
:100C0000600001005F0002005D0001005C00010067
:100C10005B0001005A00010059000100580001006A
:100C2000570001005600010055000100540001006A
:100C30005300000053000100520001005100010068
:100C4000500001004F0001004E0000004E00010066
:100C50004D0001004C0001004B0000004B00010062
:100C60004A0001004900010048000000480001005E
:100C7000470001004600000046000100450000005A
:100C80004500010044000100430000004300010052
:100C9000420000004200010041000000410001004C
:100CA000400001003F0000003F0001003E00000046
:100CB0003E0001003D0000003D0001003C0000003E
:100CC0003C0000003C0001003B0000003B00010034
:100CD0003A0000003A00010039000000390001002C
:100CE0003800000038000000380001003700000024
:100CF0003700010036000000360000003600010019
:100D0000350000003500000035000100340000000F
:100D10003400000034000100330000003300000004
:100D200033000100320000003200000032000100F8
:100D300031000000310000003100010030000000EF
:100D400030000000300001002F0000002F000000E4
:100D50002F0000002F0001002E0000002E000000D8
:100D60002E0001002D0000002D0000002D000000CD
:100D70002D0001002C0000002C0000002C000000C1
:100D80002C0001002B0000002B0000002B000000B5
:100D90002B0001002A0000002A0000002A000000A9
:100DA0002A0001002900000029000000290000009D
:100DB0002900000029000100280000002800000090
:100DC0002800000028000000280001002700000083
:100DD0002700000027000000270000002700010076
:100DE000260000002600000026000000260000006B
:100DF000260001002500000025000000250000005D
:100E0000250000002500000025000100240000004E
:100E10002400000024000000240000002400010041
:100E20002300000023000000230000002300000036
:100E30002300000023000000230001002200000026
:100E4000220000002200000022000000220000001A
:100E5000220001002100000021000000210000000C
:100E600021000000210000002100000021000100FD
:100E700020000000200000002000000020000000F2
:100E800020000000200000002000000020000100E1
:100E90001F0000001F0000001F0000001F000000D6
:100EA0001F0000001F0000001F0001001E000000C6
:100EB0001E0000001E0000001E000000393000006F
:100EC0003325000087190000B00F0000DB08000088
:100ED000BD040000740200003F01000053544F5055
:100EE0005045442E20005072696E746572207374F0
:100EF0006F707065642064756520746F2065727210
:100F00006F72732E2046697820746865206572724E
:100F10006F7220616E6420757365204D39393920F8
:100F2000746F20726573746172742E202854656D1D
:100F3000706572617475726520697320726573657E
:100F4000742E205365742069742061667465722064
:100F500072657374617274696E67290A00212120B9
:100F600053544F502063616C6C656420626563610B
:100F7000757365206F6620424C546F7563682065F9
:100F800072726F72202D2072657374617274207793
:100F9000697468204D3939390A004F46460A0046BF
:100FA0006164652048656967687420004265642053
:100FB0004C6576656C696E6720004661696C656496
:100FC00020746F20656E61626C6520426564204C00
:100FD0006576656C696E670A00496E76616C696456
:100FE000206D6573682E0A0050726F62696E67200B
:100FF000506F696E740025532025692F25690050B4
:10100000726F62696E67206D65736820706F696EBC
:10101000742000202844525952554E290047323935
:10102000204175746F20426564204C6576656C695B
:101030006E67003F20284C2C522C462C4229206FF2
:101040007574206F6620626F756E64732E0A00429D
:101050006164205A2076616C75650A004E6F2062CB
:10106000696C696E65617220677269640A00536514
:101070007474696E67732053746F726564002074B2
:101080006F6F206C6F6E6720657874727573696F0F
:101090006E2070726576656E7465640A0020636FF9
:1010A0006C6420657874727573696F6E20707265F8
:1010B00076656E7465640A00DB0FC93F45BCDA3F94
:1010C0008FB30240FCF0274056946140FE4B9B409A
:1010D00084A5D840E0231841346A5641E859974125
:1010E00064DBD5416E271742B4B75542CE1A9742FA
:1010F000C8AED542B5885A43D40684BFA65FA7BF01
:101100007443E0BF10B11AC01C2C58C0E8F697C059
:10111000B849D6C04E4E17C124D355C1802497C1BB
:10112000A0B5D5C1121A17C244AE55C2781797C2DE
:101130006CACD5C267885AC3456E636C6F737572A9
:1011400065004C6F6164206D6D00556E6C6F61645D
:10115000206D6D004D3330332055312045256920F9
:101160005325690000FE0003FF8007C7C00701E0A8
:101170000000E00000F00000700400700E00701F1E
:1011800000703F80F00E00E00F01E007C7C003FFD2
:101190008000FE0000FE0003FF8007C7C00F01E0D3
:1011A0000E00E03F80F01F00700E00700400700021
:1011B00000700000F00000E00701E007C7C003FF77
:1011C0008000FE000E000E000E000E000E000E004D
:1011D0000E000E007FC03F801F000E0004000400C0
:1011E0000E001F003F807FC00E000E000E000E009C
:1011F0000E000E000E000E00FFFFFF7F80FFC0FFFD
:10120000C0FFC07F807F80FFC0FFC0FFC03F001EC7
:10121000000C0000000001000000010000800055EB
:101220005555000000400033333300AAAA2A004974
:1012300092240000002000C7711C0099991900D168
:10124000451700555515003BB113002449120011F4
:10125000111100000010000F0F0F00E3380E0043C3
:10126000790D00CCCC0C00C3300C00E8A20B00645C
:10127000210B00AAAA0A00703D0A009DD80900426D
:101280007B090092240900DCD3080088880800103C
:1012900042080000000800F0C107008787070075BA
:1012A000500700711C07003EEB0600A1BC06006958
:1012B00090060066660600703E060061180600177C
:1012C000F4050074D105005BB00500B29005006222
:1012D0007205005555050078390500B81E05000552
:1012E0000505004EEC040087D40400A1BD04009065
:1012F000A7040049920400C17D0400EE690400C700
:10130000560400444404005C3204000821040041F7
:10131000100400000004003FF00300F8E003002682
:10132000D20300C3C30300CCB503003AA803000AEC
:101330009B0300388E0300C08103009F750300D01B
:10134000690300505E03001D5303003448030091FD
:101350003D03003333030016290300381F030097B1
:10136000150300300C0300030303000BFA020049CD
:10137000F10200BAE802005CE002002DD802002D64
:10138000D0020059C80200B0C0020031B90200DA30
:10139000B10200AAAA0200A0A30200BC9C0200FAAB
:1013A0009502005C8F0200DF880200828202004505
:1013B0007C02002776020027700200436A02007C4C
:1013C000640200D05E02003F590200C8530200FFD1
:1013D000FDFCFAF8F6F4F2F0EEECEAE9E7E5E3E119
:1013E000E0DEDCDAD9D7D5D4D2D0CFCDCBCAC8C7CE
:1013F000C5C3C2C0BFBDBCBAB9B7B6B4B3B2B0AF53
:10140000ADACAAA9A8A6A5A4A2A1A09E9D9C9A99AC
:10141000989795949392908F8E8D8B8A89888786E2
:1014200084838281807F7E7D7B7A797877767574FC
:10143000737271706F6E6D6C6B6A696867666564F4
:10144000636261605F5E5D5C5B5A595858575655E0
:101450005453525150504F4E4D4C4B4A4A494847B5
:101460004646454443424241403F3E3E3D3C3B3B75
:101470003A39383837363535343332323130302F27
:101480002E2E2D2C2B2B2A292928272726252524CB
:10149000232322212120201F1E1E1D1C1C1B1B1A62
:1014A00019191818171616151514131312121111ED
:1014B000100F0F0E0E0D0D0C0C0B0A0A090908086F
:1014C00007070606050504040303020201000043A2
:1014D0006F6E66696775726174696F6E004F6666DC
:1014E000004F6E004D6F74696F6E004175746F2010
:1014F000486F6D65004368616E67652046696C6181
:101500006D656E7400507265686561742043757313
:10151000746F6D004261636B004D36303020423095
:101520000054756E6500496E666F20536372656581
:101530006E00536F667420456E6473746F70730031
:101540004D38340044697361626C65205374657072
:1015500070657273004732380A4D3438205031308C
:10156000004D34382050726F6265205465737400EA
:10157000473238000000FA430000FA430000A04060
:101580000000C8410000A0420000A0420000C84383
:101590009A99C442F4010000F401000064000000C4
:1015A000881300000202040000A0400000A04000D8
:1015B0000000403B2000486F6D696E6720466169FE
:1015C0006C6564006F70656E005452494747455220
:1015D0004544007A5F6D696E00795F6D696E0078D1
:1015E0005F6D696E005265706F7274696E67206519
:1015F0006E6473746F70207374617475730A00572E
:1016000061726E696E673A20486F6D696E6720423D
:10161000756D702044697669736F72203C20310AC1
:1016200000205A3A0020593A002020506C616E6E1A
:10163000657242756666657242797465733A200018
:101640002046726565204D656D6F72793A200043C2
:101650006F6D70696C65643A204175672020362093
:10166000323032300A00204C61737420557064614E
:101670007465643A20323032302D30362D313920C5
:101680007C20417574686F723A20287061646963C8
:101690002C204C756379290A006275676669782D7C
:1016A000322E302E780A004D61726C696E00205324
:1016B0006F6674776172652052657365740A0020E5
:1016C0005761746368646F672052657365740A00BC
:1016D0002042726F776E206F757420526573657447
:1016E0000A002045787465726E616C2052657365DE
:1016F000740A00506F77657255700A0025532025D3
:101700006320256320256320256300656E64737460
:101710006F7073206869743A2000202D20496E761E
:10172000616C6964206578747275646572206E7589
:101730006D62657220210A00544845524D414C208B
:1017400052554E4157415900546865726D616C2085
:1017500052756E61776179004572723A204D415839
:1017600054454D50004D415854454D5020747269B8
:10177000676765726564004572723A204D494E5440
:10178000454D50004D494E54454D50207472696787
:10179000676572656400202F002042403A002040B7
:1017A0003A0070012C0190012701B0012201C00113
:1017B0001D01F00118011002130130020E01600238
:1017C000090190020401C002FF000003FA00400377
:1017D000F5008003F000D003EB002004E600700465
:1017E000E100E004DC004005D700C005D20040065F
:1017F000CD00D006C8008007C3003008BE00F00846
:10180000B900C009B400B00AAF00B00BAA00D00CF8
:10181000A500000EA000500F9B00C01096005012B3
:10182000910000148C00C0158700B0178200B01919
:101830007D00D01B7800001E730040206E009022B7
:101840006900F024640040275F0090295A00E02BD3
:101850005500102E500020304B0010324600E0336F
:10186000410090353C001037370070383200A03905
:101870002D00B03A2800A03B2300603C1E00103D24
:101880001900903D1400103E0F00703E0A00C03E4B
:101890000500003F0000403FFBFF803FF6FFC03FD8
:1018A000F1FF54656D7065726174757265005072F8
:1018B00065686561742041425300507265686561D6
:1018C0007420504C410050726F6265205A204F6660
:1018D00066736574004D61696E005072656865617C
:1018E0007420504C4120456E6400507265686561FB
:1018F0007420504C412042656400507265686561F7
:10190000742041425320456E6400507265686561E1
:1019100074204142532042656400436F6F6C646FD2
:10192000776E0046616E205370656564004E6F7A75
:101930007A6C6500466C6F7700486F74656E642042
:10194000746F6F20636F6C640A004D3630303A203C
:10195000546F6F20436F6C640053656E64204D318B
:10196000303820746F2068656174206E6F7A7A6CED
:10197000650A00496E736572742066696C616D65F5
:101980006E7420616E642073656E64204D31303852
:101990000A0020496E76616C6964206578747275FE
:1019A0006465722000446966663A20202000467211
:1019B0006F6D5374703A00537465707065723A00BD
:1019C000556E4C6576656C3A004C6576656C656461
:1019D0003A005261773A20202020000A4C6F676954
:1019E00063616C3A00436F756E7420453A00436141
:1019F000703A0000002100240027002A0000002285
:101A000000250028002B00000020002300260029CC
:101A1000000202020202020202040404040404049A
:101A20000403030303030303030101010101010193
:101A30000101020408102040800102040810204027
:101A40008001020408102040808040201008040219
:101A500001000000010200090A0000000004030860
:101A6000070000000000000000000000000000006F
:101A7000004D6F76652025736D6D004D6F76652086
:101A8000302E316D6D004D6F766520316D6D004DDE
:101A90006F76652031306D6D004D6F766520417831
:101AA000697300486F74656E6420746F6F20636F94
:101AB0006C64004578747275646572004D6F76656C
:101AC000205A004D6F76652059004D6F766520587D
:101AD000001FE020102010201010201020201020C7
:101AE0001030300840048003001FE03FF03FF03F1B
:101AF000F01FE01FE03FF03FF03FF00FC007800312
:101B0000003FFFF038007030FC3020FC10207810CF
:101B10002030102C00D02E31D02F7BD02F7BD02E18
:101B200031D02C00D020301020781020FC1030FC58
:101B3000303800703FFFF03FFFF0380070318630E2
:101B40002387102787902F87D02F03D02030102095
:101B500078102078102030102F03D02F87D02787BF
:101B6000902387103186303800703FFFF01FFFF858
:101B70001FFFF8041040020820020820041040084B
:101B80002080104100104100082080041040000017
:101B9000001FFFF81FFFF800000000006060C3F6A0
:101BA0000C6060C713186060CE03186060CC01B091
:101BB0006060CC01B06060DC00E06060CC00C060C0
:101BC000608C00C060618E00C07F3B87B0C07F1F0B
:101BD00003F0C00000000000202020202020200072
:101BE00053746570732F6D6D004E65787420436F6C
:101BF000726E657200446F6E65004E6578740048C1
:101C00006F6D696E672058595A005A2056616C757D
:101C10006500496E646578205900496E64657820D6
:101C200058004C6576656C20436F726E6572730068
:101C30004661646520486569676874004564697435
:101C4000204D657368004732380A473239004C65C9
:101C500076656C20426564004C6F61642053657446
:101C600074696E67730053746F7265205365747482
:101C7000696E677300416476616E636564205365C5
:101C80007474696E677300554E4C4F414420464949
:101C90004C414D454E540046494C414D454E542013
:101CA0004348414E474500436D643A2053746F7773
:101CB00000436D643A204465706C6F7900436D6435
:101CC0003A2053656C662D5465737400436D643A15
:101CD0002053572D4D6F646500436D643A20526563
:101CE00073657400526573746F7265204465666134
:101CF000756C747300424C546F756368004D3730D7
:101D00003220542564004D36303020423020542596
:101D100064004D373032203B2564004D3730312090
:101D200054256400436F6E74696E7565005075725A
:101D30006765206D6F726500524553554D45204FC4
:101D40005054494F4E533A005052494E542050413E
:101D5000555345440020204E6F7A7A6C653A200036
:101D60005061726B696E672E2E2E000000576169FC
:101D70007420666F720066696C616D656E742063B5
:101D800068616E676500746F2073746172740057C8
:101D900061697420666F720066696C616D656E744E
:101DA00020756E6C6F616400004E6F7A7A6C6520EE
:101DB00068656174696E6700506C65617365207752
:101DC0006169742E2E2E0000507265737320627547
:101DD00074746F6E00746F2068656174206E6F7A22
:101DE0007A6C650000496E736572742066696C6177
:101DF0006D656E7400616E6420707265737320622D
:101E00007574746F6E00746F20636F6E74696E7595
:101E100065005761697420666F720066696C616D58
:101E2000656E74206C6F616400005072657373207E
:101E3000427574746F6E00746F20726573756D6592
:101E4000207072696E7400005761697420666F7249
:101E5000207072696E7400746F20726573756D65A1
:101E60002E2E2E00005761697420666F720066691D
:101E70006C616D656E7420707572676500004572E7
:101E8000723A207574663820666F6E74206E6F74B7
:101E900020696E697469616C697A65642E00687482
:101EA00074703A2F2F6D61726C696E66772E6F7247
:101EB00067006275676669782D322E302E780000D3
:101EC0000C0F00FE07022603BC017FFE08FE08FE81
:101ED00005080806000040F0C888889878100508B2
:101EE00008060000C0F88888888888F80505050677
:101EF00000012030F830200508080600002070F8A6
:101F000020202020E00509090600FF2070A8A8B8BD
:101F100088887020050606060001E08CEA8C8A0A93
:101F20000509090600FFF8A88888888888A8F805A8
:101F30000A0A0600FE205050505088A8A888700356
:101F4000030306000340A040FFFFFFFFFFFFFFFF6A
:101F5000FFFFFFFFFFFFFFFFFFFFFFFFFFFF00008F
:101F6000000605FF010707060200808080808000D0
:101F700080030303060105A0A0A0050606060000D5
:101F800050F85050F8500509090600FF2070A8A02D
:101F90007028A87020050707060000C8C810204058
:101FA000989805070706000040A0A040A890680187
:101FB00003030602058080800309090601FF204013
:101FC000408080804040200309090601FF80404096
:101FD00020202040408005070706000020A8702030
:101FE00070A8200505050600012020F82020020326
:101FF000030601FFC04080050101060003F802024C
:1020000002060100C0C005070706000008101020E6
:10201000404080050707060000708898A8C88870AF
:1020200003070706010040C040404040E0050707A5
:10203000060000708808102040F805070706000019
:10204000F8081030088870050707060000103050A7
:1020500090F81010050707060000F880F0080888BF
:1020600070050707060000304080F088887005077B
:1020700007060000F80810102020200507070600BA
:1020800000708888708888700507070600007088CF
:102090008878081060020505060100C0C000C0C0B5
:1020A0000206060601FFC0C000C040800305050609
:1020B00001012040804020050303060002F800F8DB
:1020C0000305050601018040204080050707060042
:1020D0000070881020200020050707060000708887
:1020E000B8A8B88070050707060000708888F888CF
:1020F0008888050707060000F04848704848F00542
:102100000707060000708880808088700507070632
:102110000000F04848484848F0050707060000F866
:102120008080F08080F8050707060000F88080F0C6
:10213000808080050707060000708880809888707E
:10214000050707060000888888F88888880307073D
:10215000060100E04040404040E00507070600005F
:10216000381010101090600507070600008890A036
:10217000C0A09088050707060000808080808080CE
:10218000F805070706000088D8A88888888805070A
:10219000070600008888C8A89888880507070600F1
:1021A0000070888888888870050707060000F08816
:1021B00088F080808005070706000070888888A85E
:1021C0009068050707060000F08888F0A090880551
:1021D00007070600007088807008887005070706EA
:1021E0000000F82020202020200507070600008896
:1021F000888888888870050707060000888888888E
:1022000050502005070706000088888888A8A85035
:1022100005070706000088885020508888050707B2
:1022200006000088885020202020050707060000AF
:10223000F80810204080F80309090601FFE08080BB
:102240008080808080E005070706000080404020F5
:102250001010080309090601FFE02020202020209B
:1022600020E0050303060005205088050101060053
:10227000FEF803030306010580402005050506005E
:102280000070087888780507070600008080F088CD
:102290008888F005050506000070808088700507B5
:1022A0000706000008087888888878050505060074
:1022B000007088F08070050707060000304840E095
:1022C0004040400507070600FE708888887808703F
:1022D0000507070600008080F088888888030707C4
:1022E0000601004000C0404040E00409090601FE2C
:1022F00010003010101010906005070706000080D5
:10230000808890E09088030707060100C0404040A5
:102310004040E0050505060000D0A8A8A8A80505CE
:1023200005060000B0C8888888050505060000700D
:10233000888888700507070600FEF0888888F08086
:10234000800507070600FE78888888780808050554
:1023500005060000B0C880808005050506000078ED
:10236000807008F00507070600002020F8202020D4
:102370001805050506000088888898680505050683
:10238000000088888850200505050600008888A878
:10239000A85005050506000088502050880507074D
:1023A0000600FE888888502040800505050600004C
:1023B000F8102040F80309090601FF204040408042
:1023C000404040200109090602FF80808080808013
:1023D0008080800309090601FF8040404020404082
:1023E000408005030306000248A890FF1FFFFFFF7F
:1023F000FFFFFF600000000001FF40000000000040
:10240000FF8000000000007F83CF00000C303F877A
:10241000FF80000C301F867980000C000F8C30C7C5
:10242000838C30E78C30CFC7CC31F38C30DCECECD4
:1024300033B98C30D86C6C33198C30D06C0C3319A8
:102440008C30D86C0C33198C30DC6C0E3B198C3012
:10245000CF7C079F198C30C77C038F194000000088
:10246000000002600000000000061FFFFFFFFFFFEA
:10247000F8504944204175746F74756E65202A00C8
:102480005049442D44202A005049442D49202A0017
:102490005049442D50202A002008204661637400D2
:1024A0002008204D6178002008204D696E0041759C
:1024B000746F74656D70004573746570732F6D6D06
:1024C000005A73746570732F6D6D00597374657065
:1024D000732F6D6D005873746570732F6D6D0020D0
:1024E0006D61783A2000206D696E3A20007D007D94
:1024F0007D2C776F726B3A7B6D696E3A7B783A0010
:102500007D2C6D61783A7B783A002C7A3A002C79F0
:102510003A00617265613A7B66756C6C3A7B6D69F5
:102520006E3A7B783A004348414D4245525F5445EC
:102530004D50455241545552450042414259535421
:10254000455050494E47004D4F54494F4E5F4D4FF7
:1025500044455300544845524D414C5F50524F54EE
:10256000454354494F4E004C4F4E475F46494C45FA
:102570004E414D45004155544F5245504F52545FC6
:1025800053445F53544154555300534443415244C0
:102590000050524F4D50545F535550504F525400BD
:1025A000454D455247454E43595F50415253455260
:1025B00000434153455F4C494748545F42524947A5
:1025C00048544E45535300544F47474C455F4C4980
:1025D0004748545300534F4654574152455F504F5C
:1025E000574552004255494C445F50455243454E71
:1025F00054004C4556454C494E475F4441544100B8
:102600005A5F50524F4245004155544F4C45564534
:102610004C005052494E545F4A4F420050524F476F
:1026200052455353004155544F5245504F52545FF9
:1026300054454D5000564F4C554D4554524943005A
:1026400042494E4152595F46494C455F5452414EB2
:10265000534645520053455249414C5F584F4E5FD7
:10266000584F4646004649524D574152455F4E41EC
:102670004D453A4D61726C696E2062756766697886
:102680002D322E302E7820284175672020362032BA
:102690003032302031363A31353A34342920534FF4
:1026A000555243455F434F44455F55524C3A687419
:1026B0007470733A2F2F6769746875622E636F6D3B
:1026C0002F4D61726C696E4669726D776172652F0C
:1026D0004D61726C696E2050524F544F434F4C5FA6
:1026E00056455253494F4E3A312E30204D414348C2
:1026F000494E455F545950453A32303230303830C7
:10270000362E612045585452554445525F434F552B
:102710004E543A3120555549443A636564653261F7
:1027200032662D343161322D343734382D396231EF
:10273000322D6335356336326633363766660A00C6
:10274000526573656E643A200023646566696E6540
:102750002044454641554C545F004B6420004B6972
:1027600020004B702000504944204175746F7475EF
:102770006E652066696E69736865642120507574A2
:1027800020746865206C617374204B702C204B6939
:1027900020616E64204B6420636F6E7374616E748D
:1027A000732066726F6D2062656C6F7720696E743E
:1027B0006F20436F6E66696775726174696F6E2E04
:1027C000680A00504944204175746F74756E652025
:1027D0006661696C6564212074696D656F75740A42
:1027E000000A20436C617373696320504944200AD6
:1027F00000204B643A2000204B693A2000204B70A7
:102800003A20000A204E6F206F76657273686F6FF2
:10281000740A002054753A2000204B753A2000209D
:10282000643A200020626961733A200050494420D4
:102830004175746F74756E652073746172740A00EB
:10284000504944204175746F74756E6520666169E6
:102850006C6564212054656D706572617475726574
:1028600020746F6F20686967680A005049442041EE
:1028700075746F74756E65206661696C656421207E
:10288000426164206578747275646572206E756D3E
:102890006265720A003F00454550524F4D20566513
:1028A0007273696F6E204572726F720045455052A7
:1028B0004F4D20496E646578204572726F720045F5
:1028C0004550524F4D20435243204572726F720063
:1028D00049676E6F726500496E697469616C697AE7
:1028E0006520454550524F4D003F2856296572627C
:1028F0006F7365206C6576656C20696D706C6175B1
:102900007369626C652028302D34292E0A004465D5
:1029100076696174696F6E0025533A202573005300
:1029200074616E6461726420446576696174696F74
:102930006E3A20002052616E67653A20004D656155
:102940006E3A200046696E6973686564210A00204A
:1029500072616E67653A2000207369676D613A2085
:1029600000206D65616E3A20003A207A3A200020FE
:102970006F662000476F696E6720746F3A205800B9
:1029800043570A00206469723A0020616E676C65E3
:102990003A005374617274207261646975733A000D
:1029A0004D343820506F696E740025533A202564E9
:1029B0002F256400506F736974696F6E696E6720AC
:1029C0007468652070726F62652E2E2E0A003F4E6D
:1029D000756D626572206F66206C65677320696E25
:1029E000206D6F76656D656E74206E6F7420706CEF
:1029F00061757369626C652028302D3135292E0A86
:102A0000003F2028582C5929206F7574206F6620AC
:102A1000626F756E64732E0A003F53616D706C6552
:102A20002073697A65206E6F7420706C61757369AC
:102A3000626C652028342D3530292E0A004D34383B
:102A4000205A2D50726F6265205265706561746105
:102A500062696C69747920546573740A00506C65FE
:102A6000617365205265736574005052494E544538
:102A7000522048414C5445440025533A20255300E8
:102A80004B494C4C45442E20005072696E7465725F
:102A90002068616C7465642E206B696C6C28292039
:102AA00063616C6C6564210A006563686F3A004578
:102AB00072726F723A0042696C696E656172204C85
:102AC0006576656C696E6720477269643A0A002012
:102AD0004D3932205800496E76616C696420506926
:102AE0006E204D6F64650A0020204D363033200083
:102AF00020550046696C616D656E74206C6F616471
:102B00002F756E6C6F6164206C656E677468733AC4
:102B10000020204D3835312058005A2D50726F62F8
:102B200065204F66667365740020204D3330342075
:102B3000500020440020204D3330312050005049B7
:102B4000442073657474696E67733A0020460020F0
:102B5000480020204D3134352053004D617465729A
:102B600069616C2068656174757020706172616D57
:102B700065746572733A0020204732392057204926
:102B80000020204D3432302053004175746F2042B4
:102B90006564204C6576656C696E673A0020204D4F
:102BA000323036205800486F6D65206F6666736559
:102BB000743A00204A0020204D3230352042004136
:102BC0006476616E6365643A20423C6D696E5F7342
:102BD00065676D656E745F74696D655F75733E20C2
:102BE000533C6D696E5F66656564726174653E2015
:102BF000543C6D696E5F74726176656C5F66656585
:102C000064726174653E204A3C6A756E635F6465F8
:102C1000763E0020204D3230342050004163636501
:102C20006C65726174696F6E2028756E6974732F9C
:102C30007332293A20503C7072696E745F6163632D
:102C4000656C3E20523C726574726163745F6163AF
:102C500063656C3E20543C74726176656C5F6163A1
:102C600063656C3E0020204D3230312058004D61AC
:102C700078696D756D20416363656C657261746917
:102C80006F6E2028756E6974732F7332293A002095
:102C9000450020204D3230332058004D6178696D59
:102CA000756D206665656472617465732028756E44
:102CB0006974732F73293A005374657073207065BB
:102CC0007220756E69743A0020204D3134392043EA
:102CD000203B20556E69747320696E2043656C73C8
:102CE0006975730A0020286D6D2900202047323154
:102CF000202020203B20556E69747320696E206D62
:102D00006D0020436F756E7420583A004D31303697
:102D1000205000453100626564002C207379737483
:102D2000656D2073746F70706564212048656174EF
:102D300065725F49443A200048656174696E672096
:102D40004661696C65640048656174696E672066F8
:102D500061696C6564004D3131322053687574646B
:102D60006F776E00205A3A200020593A20004265C1
:102D70006420583A20005072696E74205061757357
:102D800065640050726F62696E67204661696C65A8
:102D9000640A0050726F62696E67204661696C65F3
:102DA0006400486F6D65202573257325732046697F
:102DB00072737400220A00556E6B6E6F776E20631B
:102DC0006F6D6D616E643A202200323032303038DF
:102DD00030362E612052656164792E005072696E22
:102DE00074696E672E2E2E005EEB11241FBECFEF8E
:102DF000D0E4DEBFCDBF12E0A0E0B1E0E8EFF5EF38
:102E000001E00BBF02C007900D92AA31B107D9F7BC
:102E100020E1AAE1B2E001C01D92A936B207E1F7B4
:102E200016E1C5EFD6E104C02197FE010E9401F82A
:102E3000C43FD107C9F70E9428E60C94FAFA0C9413
:102E40000000A2E3B0E0E7E2F7E10C941CF8209167
:102E500056032AA721E020935603809155038D3411
:102E600009F4DDC3843511F40C94CE26873411F0B7
:102E70000C94E92680915303909154038C31910571
:102E800009F436C18CF48430910509F4D2C01CF4E5
:102E9000029738F1C0C38531910511F40C94EB26EB
:102EA0004B9709F405C1B7C38A32910509F48CC266
:102EB00044F48D31910509F42BC14E9709F43CC1BE
:102EC000AAC38B35910509F4FCC18C35910509F431
:102ED000FDC18A35910509F09EC3109252030C94EE
:102EE000EB2680915103813011F00C94EB2611E414
:102EF000C12E13E0D12E8AE3E82E84E0F82E95E46B
:102F0000A92E90E1B92E10E088E5810F0E94C942F8
:102F1000882319F10E94CD402B013C01812F0E9492
:102F20002395882351F0D7012D913D914D915C91CE
:102F3000C301B2010E9454F809C0F501208131811A
:102F400042815381C301B2010E9453F8D6016D93AF
:102F50007D938D939C9313970AC0F7018081918193
:102F6000A281B381F60180839183A283B3831F5F23
:102F7000F4E0CF0ED11C24E0E20EF11C34E0A30EED
:102F8000B11C133009F685E40E94C942882301F17F
:102F90000E94CD406B017C0183E00E942395882331
:102FA00071F02091460430914704409148045091BB
:102FB0004904C701B6010E9454F86B017C01C0921C
:102FC0004D03D0924E03E0924F03F092500310C095
:102FD0008091460490914704A0914804B09149041F
:102FE00080934D0390934E03A0934F03B0935003EF
:102FF00040E050E0BA0186E40E9411B920E030E0E0
:10300000A9010E94F3F9181684F40E94CD4020E033
:1030100030E040E752E40E94CEF860936F01709375
:10302000700180937101909372010E94FA7B0C945D
:10303000EB2680E50E94C942882329F00E9410D81F
:103040006B017C0103C0C12CD12C760183E50E9469
:10305000C942882361F00E94CD4020E030E04AE779
:1030600054E40E949AF10E943BF96B017C010E949A
:10307000CC6F8091EC02811105C060E081E595E0A4
:103080000E94F8C50E949C85C60ED71EE81EF91E38
:103090000E949C85DC01CB018C199D09AE09BF09FA
:1030A000B7FD02C00C94EB2680E00E948430F0CF84
:1030B0000E949FE281110C94EB268CE0E7E7F1E09F
:1030C000DE01119601900D928A95E1F780E50E944C
:1030D000C942882321F00E949A40CB0102C080E0BF
:1030E00090E0BE016F5F7F4F0E9438C50C94EB26C5
:1030F0008091EB028770873011F00C94FE2660E01F
:103100008FE40E94EB4281110C94EB260C94FE2676
:103110000E949FE281110C94EB268091EA028823A1
:1031200011F40C94252960E08FE40E94EB42811198
:103130000C94EB260C9425292091511030915210BB
:10314000409153105091541060913A0470913B0497
:1031500080913C0490913D040E9454F8AB01BC0165
:1031600088E50E9411B969837A838B839C832091BF
:103170005510309156104091571050915810609151
:103180003E0470913F0480914004909141040E945C
:1031900054F8AB01BC0189E50E9411B96D837E83AF
:1031A0008F839887BE016B5F7F4FCE0101960E948F
:1031B000EB3E882311F40C94EB2680E00E94D7D2DA
:1031C0000E94A27E61E085E40E94EB42182F21E07C
:1031D000482FBE016B5F7F4FCE0101960E943DE3F9
:1031E0006B017C019B01AC010E9470FA81115FC0F0
:1031F00089809A80AB80BC8020E030E0A901C501C5
:10320000B4010E9435F187FF05C027E137EB41E5A6
:1032100058EB04C027E137EB41E558E3C501B401A1
:103220000E9454F8AB01BC018EE69DE20E94A9D633
:103230008D809E80AF80B88420E030E0A901C50178
:10324000B4010E9435F187FF05C027E137EB41E566
:1032500058EB04C027E137EB41E558E3C501B40161
:103260000E9454F8AB01BC0189E69DE20E94A9D6F8
:1032700020E030E0A901C701B6010E9435F187FFC7
:1032800005C067E177EB81E598EB04C067E177EB78
:1032900081E598E3A70196010E9454F8AB01BC01B7
:1032A00084E69DE20E94A9D68AE00E94732F0E94C4
:1032B000897E113011F40E941F6F0E94B7800C9418
:1032C000EB268FE0809352030C94EB26E4E02E2E45
:1032D000E2E03E2EFCEDEF2EF2E0FF2EAAE3B4E09A
:1032E000BF8FAE8FA5E4CA2EA0E1DA2E00E010E079
:1032F000F10181911F010E94C942882309F44AC04B
:103300000E94CD402B013C01133049F0D6012D9194
:103310003D914D915C910E9453F82B013C01EE8D43
:10332000FF8D2081318142815381C301B2010E940E
:1033300053F84B015C012DEB37E346E855EB0E9457
:10334000F3F987FD0AC02DEB37E346E855E3C501E5
:10335000B4010E9435F11816ECF4133051F4409288
:10336000460450924704609248047092490401E078
:1033700011C0A5019401D7016D917D918D919C9112
:103380000E9454F8F7016083718382839383812FB5
:103390000E943C7B1F5FF4E0EF0EF11C2E8D3F8DF1
:1033A0002C5F3F4F3F8F2E8F34E0C30ED11C143063
:1033B00009F09ECF002321F086E494E00E948A73F6
:1033C0000E94B7800C94EB2680915103813011F05C
:1033D0000C94EB2689E40E94C942E82E882321F050
:1033E0000E94CA40082F01C000E08AE40E94C9423E
:1033F000F82E882321F00E94CA40182F01C010E047
:10340000EE2011F0053020F4FF2041F0153030F0AF
:1034100088EF94E00E941DD60C94EB2680E1EAE34D
:10342000F4E0A1E4B3E001900D928A95E1F7EE207B
:1034300019F1602F000F770B880B990B0E943BF15D
:103440002091CC023091CD024091CE025091CF021A
:103450000E949AF12091D4023091D5024091D60277
:103460005091D7020E9454F8609341037093420335
:103470008093430390934403FF2019F1612F110FB0
:10348000770B880B990B0E943BF12091D002309171
:10349000D1024091D2025091D3020E949AF1209120
:1034A000D8023091D9024091DA025091DB020E9499
:1034B00054F86093450370934603809347039093B9
:1034C000480360E080E50E94EB428823C1F1EE20D2
:1034D000D1F02091511030915210409153105091E1
:1034E0005410609141037091420380914303909185
:1034F00044030E9453F86093410370934203809306
:10350000430390934403FF20D1F020915510309154
:10351000561040915710509158106091450370918A
:10352000460380914703909148030E9453F86093AB
:10353000450370934603809347039093480340E00C
:1035400050E0BA0186E40E9411B96B017C0120E0D1
:1035500030E0A9010E94F3F918165CF420E030E095
:1035600040E752E4C701B6010E94CEF86B017C012E
:1035700003C0C12CD12C760180906F019090700116
:10358000A0907101B090720120E030E0A901C70164
:10359000B6010E9435F1882341F0C0926F01D092AC
:1035A0007001E0927101F09272010091210110917D
:1035B000220184E690E09093220180932101C09043
:1035C0002C01D0902D01E0902E01F0902F0180E091
:1035D00090E0A0E8BFE380932C0190932D01A0938D
:1035E0002E01B0932F010E94FA7B80926F0190927E
:1035F0007001A0927101B0927201109322010093A8
:103600002101C0922C01D0922D01E0922E01F09266
:103610002F010C94EB260E9491E20C94EB268091F2
:103620005303909154038C38910509F4C6C30CF0F0
:10363000A4C08836910509F47AC20CF059C08B34C5
:10364000910509F468C2FCF48231910509F421C4A2
:103650006CF497FF02C00C94CB26823091050CF4D9
:103660004DC1419709F485C10C94CB268A3291054E
:1036700009F449C28033910509F449C24F9711F00A
:103680000C94CB2693C18235910509F4F4C304F55B
:103690008D34910509F447C20CF441C2813591057E
:1036A00011F00C94CB260E94D28B0E945BC20E9428
:1036B000DD6F0E9450D768EE73E080E090E00E94DA
:1036C000DCD560E086E794E00E94F8C50C94EB2618
:1036D0008435910509F4DDC30CF4D4C38535910517
:1036E00009F404C48C35910509F423C40C94CB2649
:1036F0008037910511F40C94EB26A4F48C369105D7
:1037000011F40C94EB263CF48A36910509F49CC222
:103710000CF486C2C0C28E36910509F4C6C20CF400
:103720002AC2D6C28537910509F490C47CF4823749
:10373000910509F488C40CF416C38337910511F080
:103740000C94CB260E94EDBF0C94EB268737910595
:1037500009F4CAC40CF48EC48837910509F4C7C4AF
:103760008937910511F00C94CB261092E902109242
:10377000E8020E9477810C94EB268F3241E0940797
:1037800011F40C9435250CF04FC08E3C910509F4D2
:103790009DC5FCF4893C910509F40CC574F48B3982
:1037A000910509F442C38E3B910509F42BC381397D
:1037B000910511F00C94CB26A2C48C3C910509F420
:1037C0003EC50CF070C58B3C910509F419C50C94ED
:1037D000CB26823E910509F4CDC674F48C3D91054B
:1037E00009F457C68D3D910509F47AC6833D9105CC
:1037F00011F00C94CB2687C58232A1E09A0709F418
:103800009BC734F48831914009F4FFC60C94CB2651
:103810008D32F1E09F0709F4F1C78E32914011F427
:103820000C94F1240C94CB26843F31E0930711F4DF
:103830000C94212694F5823951E0950711F40C94EB
:10384000452584F48039B1E09B0711F40C943825A8
:1038500014F00C943B258033914011F40C947E2499
:103860000C94CB26843A21E0920711F40C944C2559
:103870003CF48A39914011F40C94EB260C94CB263D
:10388000853A51E0950711F40C944F258C3A9140FC
:1038900011F40C94C5250C94CB26883FB1E09B070E
:1038A00011F40C942A266CF4863FF1E09F0711F482
:1038B0000C94242614F00C9427260E9412850C9454
:1038C000EB268B3532E0930711F40C943A264CF436
:1038D0008835924011F00C94CB260E943C950C94B4
:1038E000EB268335A3E09A0711F40C94B326873EA8
:1038F000934011F40C94BD260C94CB2680E50E94D5
:10390000C942882329F00E9410D86B017C0103C0B2
:10391000C12CD12C760183E50E94C942882361F035
:103920000E94CD4020E030E04AE754E40E949AF142
:103930000E943BF96B017C010E94CC6F8091CA020E
:103940009091CB02009739F020915D10211108C0B1
:103950000E94C7C505C060E085EE94E00E94F8C5EE
:1039600040E0C701B6010E9416340E947CE20C942C
:10397000EB268091C60284FF02C00C942829809116
:10398000C80287FF02C00C9428298091C902837065
:1039900011F00C94282960E08CED94E00E94F8C5A9
:1039A0005E985E9815985E980C94EB260E94D5C19F
:1039B0006B017C0120E831E541E050E00E9471F7A5
:1039C000C9016DE671E00E94DAF74B015C01C701A5
:1039D000B60120E13EE040E050E00E9471F7CA01EC
:1039E000B90128E130E040E050E00E9471F72B017E
:1039F0003C011B01C701B6012CE330E040E050E080
:103A00000E9471F76B017C01CA01B9012CE330E01F
:103A100040E050E00E9471F78E010F5F1F4F81144C
:103A2000910499F0DF92CF927F936F935F924F92C0
:103A3000BF92AF929F928F928BEB94E09F938F9364
:103A40001F930F930E94CFF013C0A114B104B1F0E3
:103A5000DF92CF927F936F935F924F92BF92AF921C
:103A60008FEB94E09F938F931F930F930E94CFF05F
:103A70000FB6F894DEBF0FBECDBF32C04114510463
:103A800079F0DF92CF927F936F935F924F9283ECA6
:103A900094E09F938F931F930F930E94CFF0E8CFF2
:103AA0006115710569F0DF92CF927F936F9387EC78
:103AB00094E09F938F931F930F930E94CFF0D8CFE2
:103AC000DF92CF928BEC94E09F938F931F930F9391
:103AD0000E94CFF00F900F900F900F900F900F90CB
:103AE00080915D10811103C0C8010E94C7C50E946A
:103AF000D7D6B8018FEC94E00E94C7D68AE00E9426
:103B0000732F0C94EB260E9455D70C94EB260E9441
:103B100092CC0C94EB260E9424C20C94EB260E94BB
:103B200046C20C94EB260E945BC20C94EB2680915B
:103B30002A0A83FF02C00C94EB260E94FA9487FFA6
:103B400002C00C94EB2683E50E94C942882379F0D9
:103B50000E94CD400E9436F9CB010E9451880E94FC
:103B6000F5E9811104C00E945BC20E947CE20E94C0
:103B7000E9E50C94EB2680912A0A83FF02C00C949D
:103B8000EB260E94FA94F82E87FF02C00C94EB26D5
:103B900083E50E94C942082F811106C082E50E9478
:103BA000C942182F882381F10E94CD400E9436F926
:103BB000CB010E9451880E94F5E9882311F40C94EE
:103BC0003A290E9424C260919E0E70919F0E072E8A
:103BD000000C880B990B0E943BF14B015C0140905B
:103BE0009A0E50909B0E60909C0E70909D0EA301BB
:103BF00092010E94F3F9181614F40C945A29002328
:103C000011F40C94402911E00E94E9E5112311F40C
:103C10000C94EB26602F8F2D0E94C6880C94EB2607
:103C20000E94FA94182F87FD0AC089EC92E00E9446
:103C30001DD6812F0E9461888AE00E94732F9AA569
:103C4000909356030C940B2D60E080E50E94E142B6
:103C500081110C94EB2681E40E94F940882329F01D
:103C600060916604062F10E002C00FEF10E083E5BC
:103C70000E94C942882349F00E949A408B016F3FFD
:103C8000710519F010F00FEF10E0B80180E00E940C
:103C90008BDF0C94EB2660E080E50E94E14260E05F
:103CA00070E00E948BDF0C94EB268EE40E94C942E8
:103CB000882311F40C94EB260E949A406093C20270
:103CC0007093C3028093C4029093C5020C94EB26B8
:103CD00083E50E94F940882331F060E083E50E948B
:103CE000E14280932A0A0E94D7D68FEA94E00E948C
:103CF0001DD680912A0A882369F176E6E72E75E0C1
:103D0000F72E00E010E020E080912A0A90E0A0E089
:103D1000B0E0002E04C0B695A795979587950A94B4
:103D2000D2F780FF0EC0DD24D394D20E222319F0E7
:103D30008CE20E94732FF701859194910E941DD609
:103D40002D2D0F5F1F4FA2E0EA0EF11C053011056B
:103D5000D9F604C08BEA94E00E941DD68AE00E9446
:103D6000732F0C94EB2683E50E94C942882381F0CF
:103D70000E94AA40282F30E02D33310524F480938F
:103D800020010C94EB268CE3809320010C94EB260D
:103D90000E94D7D6C0902001D12CE12CF12C84EACE
:103DA00094E00E941DD64AE0C701B6010E947A2F16
:103DB0008AE00E94732F0C94EB2680912A0A83FFDD
:103DC00002C00C94EB2683E50E94C942882311F4BB
:103DD0000C94EB260E94CD400E9436F963377105A2
:103DE00014F063E770E07093B4026093B3020E9432
:103DF000A8860E94F5E98111EEC70E945BC20E946D
:103E00007CE2E9C780912A0A83FF01C0E4C783E509
:103E10000E94C942082F81110C945D2982E50E94FD
:103E2000C94281110C945D29D6C783E50E94C9421D
:103E3000882309F4D0C70E94AA40182F90E0CD979C
:103E40000CF01CE31093A6020E949C856B017C0180
:103E5000212F30E0A8EEB3E00E94BFF7C60ED71EB8
:103E6000E81EF91EC092A202D092A302E092A40220
:103E7000F092A502B0C7809152038F7D806180933C
:103E80005203A9C7809152038F7E806280935203B0
:103E9000A2C783E50E94C942882399F00E94CD40C1
:103EA00020E030E04AE754E40E949AF10E943BF996
:103EB00060931B0170931C0180931D0190931E0160
:103EC0008AC78091C60284FF02C00C94D12A8091D7
:103ED000C80287FF02C00C94D12A8091C902837066
:103EE00011F00C94D12A0E94DD6F75C783E50E9402
:103EF000F940882309F46FC70E949C856093A7024C
:103F00007093A8028093A9029093AA020E94CD40C8
:103F100020E030E04AE754E40E949AF10E943BF925
:103F200060939E0270939F028093A0029093A102DF
:103F300052C70E94FA9487FD4EC79091C60294FD25
:103F400004C09091C80297FF0AC044E0C42E42E02A
:103F5000D42E5BE2E52E5AE0F52E10E009C09091D8
:103F6000C902937091F7682F81E00E9420D833C76F
:103F7000D6018D916D010E94C942882309F459C070
:103F8000133009F04FC00E94CD404B015C0120E08E
:103F900030E040EA51E40E9435F187FF3AC0A501C4
:103FA000940160914B0A70914C0A80914D0A909156
:103FB0004E0A0E94CEF82B013C019B01AC0160919E
:103FC0005B0A70915C0A80915D0A90915E0A0E9482
:103FD0009AF160935B0A70935C0A80935D0A9093F8
:103FE0005E0A60915A0470915B0480915C04909128
:103FF0005D040E9439F1A30192010E949AF10E948E
:104000003BF960935A0470935B0480935C04909333
:104010005D0480924B0A90924C0AA0924D0AB09295
:104020004E0A07C00E94CD40F701648B758B868BCA
:10403000978B1F5FF4E0EF0EF11C143009F098CF5E
:104040000E94A86FC8C60E944493C5C68091CA0248
:104050009091CB02009759F0DC012C91222339F08A
:1040600020915D102111B7C60E94C7C5B4C60E9439
:104070007CE2B1C60091CA021091CB0294E0F12C0F
:1040800040E0915021F1F8018081282F2B7F2134CD
:1040900021F421812133D9F407C08035C1F4818115
:1040A00080538A3048F013C0813421F0853421F4E4
:1040B00041E002C0FF24F39498012E5F3F4F890135
:1040C0002F5F3F4FF80180818032C9F3DACF411171
:1040D0000E94D7D6FF2021F082E794E00E941DD6EF
:1040E000C8010E94643077C60E94288174C681E0AE
:1040F0008093E9028093E8020E9477816CC660E0B9
:1041000070E083E50E94D5428C0111270230110531
:104110003CF00E94D4D680E594E00E941DD65BC698
:1041200088E40E94C9428823A9F00E94CA408A3AC2
:1041300091053CF08530F1E09F072CF084E091E0A0
:1041400002C08AEA90E0F801EE0FFF1FE656FD4F2D
:104150009183808386E40E94C942882381F00E9473
:10416000CA4097FD07C08F3F910529F024F08FEFDB
:1041700090E001C080E0F801E856FD4F808382E4C2
:104180000E94C942882309F426C60E94CA4085308D
:10419000910534F0843791052CF083E790E002C05C
:1041A00085E090E0000F111FF801EC56FD4F918360
:1041B000808311C60E94FA9487FD0DC684E0E82E24
:1041C00082E0F82E0BE21AE09BE3C92E9AE0D92E8A
:1041D000D7018D917D010E94F940882359F00E94FA
:1041E000CD400E943BF9F801608371838283938301
:1041F0000E94676F0C5F1F4FC016D10649F7EBC5D1
:104200000E94FA9487FDE7C504E0E02E02E0F02E5C
:104210000BE21AE0D7018D917D010E94F9408823BD
:1042200039F00E94CD40F80164A375A386A397A33B
:104230000C5F1F4FFAE00B331F0761F7CCC580916D
:10424000C70287FF02C00C94F62A8091C8028E70C4
:1042500011F00C94F62A40915F0A5091600A609127
:10426000610A7091620A80E494E00E94A9D64091AC
:10427000630A5091640A6091650A7091660A8DE341
:1042800094E00E94A9D64091670A5091680A609113
:10429000690A70916A0A8AE394E00E94A9D68AE0CA
:1042A0000E94732F98C58091C60281FF02C00C94B2
:1042B0003C2B8091C70281FF02C00C943C2B809163
:1042C000C8028C7011F00C943C2B85C518E8E12EC7
:1042D00012E0F12E10E088E5810F0E94F94088235A
:1042E00059F00E94CD40D7016D937D938D939C939F
:1042F0001397812F0E943C7B1F5FB4E0EB0EF11CF3
:10430000133049F75DC840904510509046106090BA
:1043100047107090481020910301309104014091A2
:10432000050150910601C301B2010E9454F86E8F3D
:104330007F8F88A399A38090491090904A10A090F5
:104340004B10B0904C102091070130910801409122
:10435000090150910A01C501B4010E9454F86AA3F1
:104360007BA38CA39DA3C0904D10D0904E10E090E5
:104370004F10F090501020910B0130910C014091A2
:104380000D0150910E01C701B6010E9454F86EA3B1
:104390007FA388A799A720910F0130911001409128
:1043A000110150911201C301B2010E9454F82B0176
:1043B0003C0120911301309114014091150150915D
:1043C0001601C501B4010E9454F84B015C01209113
:1043D0001701309118014091190150911A01C7013C
:1043E000B6010E9454F86B017C010E94D7D68BE085
:1043F00094E00E941DD683E50E94F940882321F0B5
:104400000E94BB408093020180910201882319F031
:104410008EEA92E002C081E696E20E941DD683E019
:1044200094E00E941DD64E8D5F8D68A179A18BE628
:104430009CE20E94A9D64AA15BA16CA17DA187EC58
:104440009AE10E94A9D64EA15FA168A579A580EC4A
:104450009AE10E94A9D68EED9BE10E941DD68BEFBA
:1044600093E00E941DD6B301A2018BE69CE20E945C
:10447000A9D6B501A40187EC9AE10E94A9D6B7019B
:10448000A60180EC9AE10E94A9D68AE00E94732FCF
:10449000A2C483E50E94C942882331F00E94CA4029
:1044A00090932201809321018091C6029091C702CE
:1044B000A091C802B091C902892B8A2B8B2B09F0DD
:1044C0008AC4609121017091220187EF93E00E94DC
:1044D000BAD685E20E94732F8AE00E94732F7BC4B4
:1044E0000E94FA94F82E87FD76C483E50E94C942A3
:1044F0000F2D0F2C000C110B882309F10E94CA40CC
:10450000F801EE0FFF1FE050FF4F91838083000FF3
:10451000111F000F111F045D1E4FBC01990F880B66
:10452000990B0E943BF12AE037ED43E25CE30E94E5
:104530009AF1F80160837183828393834CC40E9453
:10454000D7D685E40E94732F80E38F0D0E94732FCE
:10455000000F111FF801E050FF4F608171818FEE55
:1045600093E00E94BAD685E20E94732F8AE00E94EF
:10457000732F31C480E50E94F940882309F42BC4CD
:1045800060E070E080E50E94D5428C016FEF7FEF24
:1045900083E50E94D5427C010196039708F01BC475
:1045A00007FD19C4802F0E94232D882339F00E9413
:1045B000D4D680EE93E00E941DD60DC40E94CC6F2D
:1045C000D02E60E0802F0E94509CFFEFEF16FF0678
:1045D00029F021E0E216F10459F007C0802F0E9473
:1045E000FC9B01E010E0892B29F000E010E002C004
:1045F00001E010E08D2D0E94FC9B8017910709F4CB
:10460000EAC380E00E948430F5CF80E50E94F94043
:10461000882309F4E0C30E94CA408C01892B09F069
:104620007FC083E50E94F940882389F00E94CA4038
:104630008F3F3FEF930729F482ED9EE00E94432DC8
:10464000CAC3BC0182ED9EE00E94DD2DC4C30E945E
:10465000D7D660E070E088ED93E00E94BAD68091F2
:10466000D40E28E532E06901C81AD10887FDD39439
:10467000CC0CDD1CCC0CDD1C0D2C000CEE08FF0856
:104680008091D30E28E830E04901881A910887FD0F
:104690009394880C991C880C991C092C000CAA086E
:1046A000BB088091D20E8F3FC1F090E0FC01EE0F6D
:1046B000FF1F8E0F9F1FFC01E355F14F21813281B7
:1046C00043E0220F331F4A95E1F754E036952795D2
:1046D0005A95E1F72E5F3F4F02C020E030E02F5F98
:1046E0003F4FC901330FAA0BBB0B9C01AD01281929
:1046F00039094A095B09A4EBB0E00E94AFF7A701B2
:104700009601281939094A095B090E9493F7B901F2
:1047100085E39DE20E94BAD68AE00E94732F5BC3B4
:104720000E94D4D6B80189ED93E00E94BAD682E007
:1047300095E00E941DD64FC38AE50E94C9428111AF
:1047400006C083E50E94C942882309F43BC00E9449
:10475000CD4020E030E040E050EC0E9435F187FF92
:1047600001C0E9C70E94CD4020E030E040E050E4C5
:104770000E94F3F918160CF4D8C70E94CD406B01C3
:104780007C01809143108695869580FF11C0209111
:10479000470A3091480A4091490A50914A0AC70194
:1047A000B6010E949AF10E9436F9CB010E94BDD554
:1047B00080E50E94F940882309F4C3C70E94BB40EA
:1047C0008111BFC78091C80287FF01C0DFC78091F8
:1047D000C902837009F0DAC70E94D7D640915910F8
:1047E00050915A1060915B1070915C1089EC93E0CD
:1047F0000E94A9D68AE00E94732FEDC260E085E492
:104800000E94E142811173C080E50E94F940882333
:1048100051F00E94CD406093A10E7093A20E809340
:10482000A30E9093A40E89E40E94F940882381F09E
:104830000E94CD402CEA35EC47E25EE30E949AF1FB
:104840006093A50E7093A60E8093A70E9093A80E6A
:1048500084E40E94F940882381F00E94CD402CEA34
:1048600035EC47E25EE30E94CEF86093A90E7093A8
:10487000AA0E8093AB0E9093AC0E0E94D7D64091B7
:10488000A10E5091A20E6091A30E7091A40E85EC22
:1048900093E00E94A9D62CEA35EC47E25EE36091F2
:1048A000A50E7091A60E8091A70E9091A80E0E9461
:1048B000CEF8AB01BC0181EC93E00E94A9D62CEAB2
:1048C00035EC47E25EE36091A90E7091AA0E8091EB
:1048D000AB0E9091AC0E0E949AF1AB01BC018DEB36
:1048E00093E00E94A9D68AE00E94732F74C20E94AE
:1048F000D4D68BEA93E00E941DD66DC280E50E945B
:10490000F940882351F00E94CD406093B602709325
:10491000B7028093B8029093B90289E40E94F940EB
:10492000882381F00E94CD402CEA35EC47E25EE31B
:104930000E949AF16093BA027093BB028093BC020A
:104940009093BD0284E40E94F940882381F00E9484
:10495000CD402CEA35EC47E25EE30E94CEF860934E
:10496000BE027093BF028093C0029093C1020E9466
:10497000D7D64091B6025091B7026091B8027091BB
:10498000B90285EC93E00E94A9D62CEA35EC47E207
:104990005EE36091BA027091BB028091BC0290917B
:1049A000BD020E94CEF8AB01BC0181EC93E00E94F5
:1049B000A9D62CEA35EC47E25EE36091BE02709125
:1049C000BF028091C0029091C1020E949AF1AB0196
:1049D000BC018DEB93E00E94A9D68AE00E94732F60
:1049E000FAC183E50E94F940182F882371F00E94D4
:1049F000CD400E9436F9709331016093300121E07F
:104A0000672B09F020E02093770480E50E94F940AD
:104A1000882359F02091300130913101232B11F07E
:104A20000E94BB4080937704D6C11111D4C10E946B
:104A3000D7D688E993E00E941DD680917704882319
:104A400019F08FE295E102C08FE793E00E941DD636
:104A5000609130017091310187E893E00E94BAD6ED
:104A600083E893E00E941DD6B6C10E9425B9B3C168
:104A70000E94CC6FB0C18091441081110C94E01958
:104A800081E00E945D6E0C94E0190E94E23E0E945B
:104A90001F6F0E94B7809FC10E9442419CC16FEF6F
:104AA0007FEF89E40E94D5428C016FEF7FEF8AE4AB
:104AB0000E94D5427C018AE50E94C942811108C04A
:104AC00081E50E94C942D82E882309F465C601C039
:104AD000D12CC02E81E0800F863008F04FC0BE2C54
:104AE00081E08E0D863008F049C0102F0E94CD4025
:104AF0002B013C01A02E07FDA12C17FF02C0A4E052
:104B0000CA2E8E2DE7FCE12C87FF02C0F4E0BF2EF9
:104B1000E5E03E2ECA1408F45EC1FE2C3A9C40012A
:104B20001124BF1448F10F2D10E0DD2071F0F401C5
:104B3000E00FF11FEE0FFF1FEE0FFF1FEC5DFD4FAB
:104B4000208131814281538103C020E030E0A901FE
:104B5000080D191D000F111F000F111F0C5D1D4FB7
:104B6000C301B2010E9454F8D8016D937D938D93D7
:104B70009C931397F394D5CFA394CCCF0E94D4D613
:104B800088EF94E00E941DD626C10E949FE2811109
:104B900022C10AE515E0EAE3F4E0FF8FEE8F9E0103
:104BA0002F5F3F4F190148E8C42E45E0D42E79010C
:104BB000C8010E94F8D0AE8DBF8D8D909D90AD90B4
:104BC000BD90BF8FAE8FA50194010E9453F82B01B9
:104BD0003C01F701608371838283938320E030E09E
:104BE00040EA51EC0E94F3F987FD0AC020E030E072
:104BF00040EA51E4C301B2010E9435F118162CF4C9
:104C0000F601849118160CF4CEC5D7018D909D90B5
:104C1000AD90BD907D0120E030E040EA51ECC5014F
:104C2000B4010E94F3F987FDF3C520E030E040EACB
:104C300051E4C501B4010E9435F118160CF0BEC54F
:104C4000E7C50E94EB48C7C00E94CA83C4C00E9447
:104C500056D8C1C0209323020E94DD4D109223023A
:104C6000882309F4B8C00E94D7D688E193E00E9457
:104C70001DD6B1C00E94FA94082F87FDACC085E50F
:104C80000E94F9408823B1F1E02E002E000CFF08AD
:104C90000E94CD404B015C0120E030E0A9010E9460
:104CA000F3F987FF04C0B7FAB094B7F8B094C7011E
:104CB00023E0880F991F2A95E1F79C01255E3D4F5F
:104CC0007901D9018D929D92AD92BC92139720E00B
:104CD00030E048E453E4C501B4010E94F3F918162A
:104CE0004CF480E090E0A8E4B3E4F7018083918382
:104CF000A283B3838CE40E94F940882309F46BC03B
:104D0000002E000C110B0E94CD406B017C0120E0B5
:104D100030E0A9010E94F3F987FF04C0F7FAF0948C
:104D2000F7F8F09420E030E048E453E4C701B6011E
:104D30000E94F3F9980193E0220F331F9A95E1F74F
:104D4000F901E55EFD4F18162CF0C482D582E6828B
:104D5000F78241C080E090E0A8E4B3E484839583C7
:104D6000A683B78338C08091C80287FD5FC5809154
:104D7000C902837009F05AC522C681E080935103AD
:104D800010925D1060E083E50E94EB42811123C028
:104D90000E942CBE20C00E9491E21DC000915303CE
:104DA000109154030023B9F00E94D7D684E50E94E5
:104DB000732FB8017727072E000C880B990B0E94E0
:104DC000D42F80E20E94732F8BEA93E00E941DD6BD
:104DD00002C00E9491E2E0911A02F0E0E25CF04F22
:104DE0008081882339F089EC92E00E941DD68AE008
:104DF0000E94732F3AA5309356030DC60E94CC6FC4
:104E00003090EA0280E00E94D7D20E94A27E81E028
:104E10008093E9020E9477818AE50E94F940082F79
:104E20008823A1F081E00E945C7BF82E82E00E9442
:104E30005C7B11E0811101C010E0F110E7C588E54D
:104E40000E94F940F82E8111EEC102C010E0F7CFA8
:104E500011110DC089E50E94F940182F8F1107C06C
:104E60001F2D0113E4C111E0FF24F39401E080E160
:104E7000EAE3F4E0A1E4B3E001900D928A95E1F752
:104E800082E50E94C942882361F00E94CD404B0117
:104E90005C0120E030E0A9010E9435F18823D1F1C6
:104EA00006C0812C912CB8E4AB2EB2E4BB2E8091CD
:104EB000431082FD09C060914204709143048091C7
:104EC00044049091450403C060E070E0CB01A5016B
:104ED00094010E9454F86093490370934A038093AD
:104EE0004B0390934C032091420430914304409132
:104EF0004404509145040E94F3F918165CF4198299
:104F00001A821B821C82BE016F5F7F4F89E493E08F
:104F10000E948A7FFF2009F4C8C0112309F4C2C08F
:104F200010923A0410923B0410923C0410923D04FB
:104F300010923E0410923F041092400410924104DB
:104F40000E946680E8E8F5E024908CE795E00E94F6
:104F5000F8D04B015C0180E895E00E94F8D02B016D
:104F60003C019B01AC01C501B4010E94F3F9181684
:104F70002CF4A5019401C301B20104C0A301920164
:104F8000C501B4010E94CEF86E8F7F8F88A399A3CC
:104F9000E4E7F5E085919591A591B4918AA39BA34F
:104FA000ACA3BDA3E0E7F5E0C590D590E590F49003
:104FB000A7019601BC01CD010E94F3F9181624F057
:104FC000CAA0DBA0ECA0FDA02E8D3F8D48A159A169
:104FD000CA01B9010E949AF120E030E040E85FE3A5
:104FE0000E9454F80E9432FAA70196010E949AF199
:104FF0006A8F7B8F8C8F9D8FE9E8F5E0F49020E03D
:1050000030E040EC5FE3C301B2010E949AF12B0152
:105010003C016F2DFF0C770B880B990B0E943BF125
:105020009B01AC01C301B2010E949AF169837A83AA
:105030008B839C8320E030E040EC5FE3C501B4014A
:105040000E949AF16B017C01622D022C000C770BFF
:10505000880B990B0E943BF19B01AC01C701B60183
:105060000E949AF16E8B7F8B888F998FAE01465E7E
:105070005F4FBE016F5F7F4FCE0146960E94697FF2
:105080000E94808110923A0410923B0410923C04DA
:1050900010923D0410923E0410923F04109240047E
:1050A0001092410480E00E944B82112319F081E0AC
:1050B0000E944B82002309F4A5C080E00E946F4843
:1050C000809143108370833051F060E083E495E079
:1050D0000E94F8C50E94D7D684E395E0B3C00E9431
:1050E0006680409042045090430460904404709065
:1050F000450420915110309152104091531050911D
:10510000541060E070E08AEE92E40E9453F86B0164
:105110007C01609341037093420380934303909317
:1051200044032091551030915610409157105091E2
:10513000581060E070E08AEE92E40E9453F84B0150
:105140005C016093450370934603809347039093FB
:1051500048032091591030915A1040915B105091A2
:105160005C10C301B2010E9453F86093490370932D
:105170004A0380934B0390934C0327E137EB41EDB7
:1051800058EBC501B4010E94F3F987FD52C027E036
:1051900030E04BE653E4C501B4010E9435F1181626
:1051A0000CF447C027E137EB41ED58EBC701B601DE
:1051B0000E94F3F987FD3DC027E030E04BE653E461
:1051C000C701B6010E9435F118169CF11E8A1F8A8C
:1051D000188E198E88E0E1E4F3E0DE01119601906B
:1051E0000D928A95E1F7AE014A5E5F4FBE016B5F9B
:1051F0007F4FCE0101960E94697F82E00E944B8220
:105200000E941F6F0E9466808091E8028093E902ED
:10521000832D0E94D7D20E94897E83E08093230150
:105220000E94B780D8CD112309F414CE1ACEF12EE6
:105230001ECE60E083E295E00E94F8C50E94D7D6BA
:1052400081E195E00E941DD6DBCF0E94FC42C3CDD8
:1052500088E50E94F94081115E9889E50E94F94035
:1052600081115E988AE50E94F940882309F4B3CD44
:105270001598B1CD0E945BC20E947CE20C94E31DA4
:10528000A3019201C501B4010E94F3F9181694F02C
:105290008AE894E09F938F9386EB94E09F938F939B
:1052A0001F920E9431C60F900F900F900F900F9099
:1052B0000C94031E89E994E0EDCF0E94CD400E943A
:1052C00036F9633771050CF069C17093B4026093CD
:1052D000B3020E94A8860E94F5E981110E9424C2AF
:1052E0006091B3027091B402072E000C880B990BE9
:1052F0000E943BF12091AF023091B0024091B10287
:105300005091B2020E94F3F918161CF485E994E05A
:1053100002C086E894E060E00E94F8C581E08093D6
:105320001F011EA21FA218A619A61BA61CA61DA619
:105330001EA610E020E03CE34CE156E42FA738AB7A
:1053400049AB5AABC12CD12C60E8E62E6FEBF62EA0
:1053500033243394412C512C32016091B30270916B
:10536000B402072E000C880B990B0E943BF14B01F5
:105370005C01A70196010E9435F18823F9F0209184
:10538000AF023091B0024091B1025091B202C5011A
:10539000B401011107C00E9435F1182F111F112708
:1053A000111F10C00E9435F187FF0BC080911F01B3
:1053B000882309F410CD0E947CE20DCD46015701EF
:1053C00001C010E00E949C856B017C01DC01CB01D7
:1053D0002BA53CA54DA55EA5821B930BA40BB50B7D
:1053E000B7FD30C0D701C60188519C4FAF4FBF4FAA
:1053F0008BA79CA7ADA7BEA780E00E9461888FE91C
:1054000092E00E941DD64114510461047104B1F070
:10541000D301C201805F984DAF4FBF4FBC01CD019A
:105420006C197D098E099F0928EE33E040E050E0B9
:105430000E9471F7CA01B901B7D502C08FE353D5F5
:105440008AE051D580E060D60E949C856093A702D7
:105450007093A8028093A9029093AA022091AF02B0
:105460003091B0024091B1025091B2022AA33BA305
:105470004CA35DA3C501B4010E9453F86E8F7F8FCA
:1054800088A399A320E030E0A9010E94F3F987FFE7
:1054900009C08E8D9F8DA8A1B9A1B0588E8F9F8F06
:1054A000A8A3B9A34114510461047104B9F420E024
:1054B00030E040E85FE36E8D7F8D88A199A10E9466
:1054C00035F187FF19C0260137013320A9F090E19B
:1054D000490E97E2591E611C711C0EC020E030E09D
:1054E00040E450E46E8D7F8D88A199A10E94F3F96C
:1054F000181614F4260137011123A9F12EA13FA19A
:1055000048A559A5211531054105510541F0D7019F
:10551000C601821B930BA40BB50BB7FD24C02AA1B7
:105520003BA14CA15DA16FA578A989A99AA90E9468
:1055300053F820E030E040E85FE30E9435F187FD5A
:1055400035CFD701C601805A9541AF4FBF4F8EA3CB
:105550009FA3A8A7B9A72AA13BA14CA15DA12FA7F2
:1055600038AB49AB5AAB80911F01882309F41ECF99
:10557000411451046104710421F4312C750164015A
:10558000ECCE30E1C31A37E2D30AE108F108C418BF
:10559000D508E608F708F7FCF0CF08CF63E770E01E
:1055A00094CE0E94CC6F88E50E94F940882331F0A8
:1055B0005E9A809143108E7F8093431089E50E940C
:1055C000F940882331F05E9A809143108D7F80935B
:1055D00043108AE50E94F940882309F4FCCB159A10
:1055E000809143108B7F80934310F5CB83E50E941D
:1055F000C942882391F00E94CD4060935F0A709366
:10560000600A8093610A9093620A6093670A7093BC
:10561000680A8093690A90936A0A80E50E94C942E9
:10562000882351F00E94CD4060935F0A7093600A16
:105630008093610A9093620A82E50E94C94288239E
:1056400051F00E94CD406093630A7093640A809386
:10565000650A9093660A84E50E94C942882309F48A
:10566000BACB0E94CD406093670A7093680A80931A
:10567000690A90936A0AAFCB82E40E94F9408823BA
:1056800051F00E9410D860933B0A70933C0A8093BB
:105690003D0A90933E0A83E50E94F940882351F029
:1056A0000E94CD4060936B0A70936C0A80936D0AE0
:1056B00090936E0A84E50E94F940882351F00E947D
:1056C000CD4060936F0A7093700A8093710A909333
:1056D000720A8AE40E94F940882309F47CCB0E9474
:1056E000CD406B017C012AE037ED43E25CE30E9490
:1056F000F3F987FD13C02AE939E949E95EE3C701F7
:10570000B6010E9435F118164CF0C0924A04D092AE
:105710004B04E0924C04F0924D045DCB0E94D4D631
:105720008BE194E00E941DD656CBC12CD12CE12CEC
:1057300080E4F82E26C8C12CD12CE12CB0ECFB2E35
:1057400020C8A70196016091591070915A1080915C
:105750005B1090915C100E9454F860935910709304
:105760005A1080935B1090935C100E94D7D64091A2
:10577000591050915A1060915B1070915C1089EC37
:1057800093E00E94A9D68AE0AED31CC882E50E94AD
:10579000F940811121C81FCB0E94D4D68FE593E038
:1057A0000E941DD618CBB7FAB094B7F8B094D701C1
:1057B0008D929D92AD92BC92139727CA0C5F1F4F9A
:1057C000BFEFCB1ADB0AE6E6F5E0E017F10709F0D8
:1057D000EFC938E8E32E32E0F32E10E0F1018191B9
:1057E0009191A191B1911F01F70181939193A1939F
:1057F000B1937F01812F0E943C7B1F5F133071F7B3
:105800000E94B78060E083E293E00E94F8C5E3CA9B
:105810000E94D4D681E493E00E941DD661E083E328
:1058200093E00E94F8C50E94E565D5CA2091511009
:105830003091521040915310509154102E8F3F8F41
:1058400048A359A34090551050905610609057109F
:1058500070905810C0905910D0905A10E0905B1082
:10586000F0905C1088E50E94C942882361F10E9493
:10587000CD404B015C0120E030E04BE653EC0E9450
:10588000F3F987FD0AC020E030E04BE653E4C501A0
:10589000B4010E9435F1181694F46BEE70E086EFB7
:1058A00092E00E94BAD66BEE70E081EF92E00E9427
:1058B000BAD68FE694E00E941DD610E005C08E8E09
:1058C0009F8EA8A2B9A211E089E50E94C94288234F
:1058D00051F10E94CD404B015C0120E030E04BE6ED
:1058E00053EC0E94F3F987FD0AC020E030E04BE65C
:1058F00053E4C501B4010E9435F1181694F46BEE1F
:1059000070E08EED92E00E94BAD66BEE70E081EF0F
:1059100092E00E94BAD68FE694E00E941DD610E075
:1059200002C0240135018AE50E94C942882339F169
:105930000E94CD406B017C0120E030E040EA51EC58
:105940000E94F3F987FD0AC020E030E040EA51E40C
:10595000C701B6010E9435F118168CF46CEE7FEF8A
:105960008CEC92E00E94BAD664E170E081EF92E0A4
:105970000E94BAD68FE694E00E941DD62CCA11234D
:1059800009F429CA2E8D3F8D48A159A120935110A9
:10599000309352104093531050935410409255102E
:1059A000509256106092571070925810C092591031
:1059B000D0925A10E0925B10F0925C100CCA4091A9
:1059C000511050915210609153107091541089E011
:1059D00093E00E94A9D640915510509156106091C5
:1059E00057107091581087EC9AE10E94A9D6409107
:1059F000591050915A1060915B1070915C1080ECBE
:105A00009AE10E94A9D68AE06ED2E5C981112BCA1B
:105A1000FF24F3941FCAE296E2E10C9438F85E9AF0
:105A2000809143108E7F809343105E9A8091431043
:105A30008D7F80934310159A809143108B7F8093C4
:105A400043105E9A0895A1E0B0E0E9E2FDE20C9413
:105A500029F8F82E04EA16E041E050E0B801CE0142
:105A600001960E9475F089818F1102C081E007C004
:105A70000F5F1F4F86E00C3B180771F780E02196FF
:105A8000E5E00C9445F8DC01EC91F0E0CF01880FE3
:105A9000991FE80FF91FE355F14F80818F778083BD
:105AA00008958F929F92AF92BF92CF92DF92EF9222
:105AB000FF920F93CF93DF931F92CDB7DEB75C01B8
:105AC0006B017A014901F501808191810E944CF7B7
:105AD0008983002311F0F6018083BE016F5F7F4F41
