:100000000C9423150C944D150C944D150C944D1512
:100010000C9402C60C9402C60C9402C60C9402C640
:100020000C944D150C944D150C944D150C944D15C8
:100030000C944D150C941B8E0C944D150C944D1571
:100040000C944D150C9455990C94275D0C944D15FA
:100050000C94544E0C944A4E0C944D150C944D1522
:100060000C944D150C944D150C944D150C944D1588
:100070000C944D150C944D150C944D150C944D1578
:100080000C944D150C944D150C944D1526272B27CB
:1000900030273A276827682744274C2754275E27AC
:1000A000864E964EA74EB24EBA4ED14EBE4ED14E51
:1000B000C24EC64ED14ECC4EC65CC95CBC5CC05C68
:1000C000E05CE05CCD5CD15CD75CDB5CECC2ABC1DE
:1000D000E2C128C3E2C1E2C1E2C1E2C1E2C1E2C1C0
:1000E000E2C1E2C1E2C1E2C1E2C1E2C1E2C1E2C1F8
:1000F000E2C1E2C1E2C1E2C1E2C1E2C1E2C1E2C1E8
:10010000E2C1E2C1E2C1E2C122C3E2C1E2C1E2C195
:10011000E2C1E2C1E2C1E2C1E2C1FBC2E2C1E2C1AD
:10012000E2C1E2C1E2C1E2C1E2C1E2C1E2C1E2C1B7
:100130003FC3DFC14E414E494E495459494E46CD09
:10014000CCCC3D0AD7233C17B7D13877CC2B32958E
:1001500095E6241FB14F0A000020410000C842006C
:10016000401C4620BCBE4CCA1B0E5AAEC59D740036
:10017000407A10F35A00A0724E18090010A5D4E876
:100180000000E87648170000E40B54020000CA9A09
:100190003B000000E1F5050000809698000000405B
:1001A000420F000000A086010000001027000000A0
:1001B00000E803000000006400000000000A0000E6
:1001C0000000000100000000002C76D888DC674F9A
:1001D0000823DFC1DFAE59E1B1B796E5E3E453C6CA
:1001E0003AE651997696E8E6C28426EB898C9B62C2
:1001F000ED407C6FFCEFBC9C9F40F2BAA56FA5F46C
:1002000090055A2AF75C936B6CF9676DC11BFCE093
:10021000E40D47FEF520E6B500D0ED902E030094E6
:100220003577050080841E080000204E0A0000007B
:10023000C80C333333330F986E12831141EF8D2185
:1002400014893BE65516CFFEE6DB18D1844B381BEC
:10025000F77C1D901DA4BBE424203284725E2281B1
:1002600000C9F124ECA1E53D27434F4D4D554E49C2
:10027000434154494F4E0044525952554E00455245
:10028000524F525300494E464F004543484F00538A
:100290006C6565702E2E2E00486F6D6520585920B4
:1002A00066697273740A00486F6D6520585920465C
:1002B00069727374004D65736820706F696E742085
:1002C0006F7574206F662072616E67650A00436CFB
:1002D00069636B20746F20526573756D652E2E2EC9
:1002E000004E6F204D6F76652E00256979202569B7
:1002F00064202569682025696D2025697300507286
:10030000696E742074696D653A2000496E76616C7F
:1003100069642050696E204D6F64650A006F6666DF
:100320000044454255473A004D3131332053004295
:10033000656420436F6F6C696E672E2E2E004265D8
:10034000642048656174696E672E2E2E00456E64C8
:1003500065722D332050726F204F46462E00434861
:10036000414D4245525F54454D50455241545552BE
:100370004500424142595354455050494E4700416F
:10038000524353004D4F54494F4E5F4D4F444553D8
:1003900000544845524D414C5F50524F54454354D0
:1003A000494F4E004C4F4E475F46494C454E414DDC
:1003B00045004155544F5245504F52545F53445F8E
:1003C00053544154555300534443415244005052F6
:1003D0004F4D50545F535550504F525400454D456A
:1003E0005247454E43595F50415253455200434195
:1003F00053455F4C494748545F4252494748544E21
:1004000045535300544F47474C455F4C4947485468
:100410005300534F4654574152455F504F57455232
:10042000004255494C445F50455243454E54004CA0
:100430004556454C494E475F44415441005A5F5030
:10044000524F4245004155544F4C4556454C005083
:1004500052494E545F4A4F420050524F4752455303
:1004600053004155544F5245504F52545F54454DDF
:100470005000564F4C554D45545249430042494E49
:100480004152595F46494C455F5452414E5346458F
:10049000520053455249414C5F584F4E5F584F46AA
:1004A00046004649524D574152455F4E414D453AEF
:1004B0004D61726C696E206275676669782D322EA7
:1004C000302E7820284A756C20203520323032308A
:1004D0002031343A33353A32362920534F5552437E
:1004E000455F434F44455F55524C3A68747470738E
:1004F0003A2F2F6769746875622E636F6D2F4D6197
:10050000726C696E4669726D776172652F4D6172AA
:100510006C696E2050524F544F434F4C5F564552BA
:1005200053494F4E3A312E30204D414348494E45B4
:100530005F545950453A456E6465722D33205072B0
:100540006F2045585452554445525F434F554E54C1
:100550003A3120555549443A6365646532613266E3
:100560002D343161322D343734382D396231322D0A
:100570006335356336326633363766660A002F2FA9
:1005800020004D31343520533C696E6465783E203F
:100590006F7574206F662072616E67652028302D3C
:1005A00031290A00416363656C65726174696F6E1D
:1005B0003A2050003F4A206F7574206F66207261A8
:1005C0006E67652028302E303120746F20302E3336
:1005D000290A0020204D61783A200020204D696EC4
:1005E0003A2000536F667420656E6473746F707385
:1005F0003A200046523A0020466C6F773A2000506D
:10060000726F7465637465642050696E0A002064BB
:100610003A0020693A0020703A00496E76616C69B0
:10062000642065787472756465720A006469730089
:1006300043290A0061626C656420286D696E20742C
:10064000656D702000436F6C64206578747275640A
:1006500065732061726520004D34323120696E630C
:100660006F727265637420706172616D657465721A
:100670002075736167650A004F6666736574732041
:100680004170706C696564004572723A20546F6FF6
:10069000206661722100546F6F206661722066725D
:1006A0006F6D207265666572656E636520706F6937
:1006B0006E740A00454550524F4D204F4B0A0020A2
:1006C00028302D313029002076616C7565206F75DA
:1006D00074206F662072616E676500416476616E9A
:1006E0006365204B3D008A0285027E027702690223
:1006F00024F4D43050C38E20C2A24017828B7011D4
:10070000127A910D816CD90AA861E108C758660771
:10071000615143061E4B5D05C145A7041A411104F2
:10072000093D9803713931034036DB02653391028C
:10073000D4305402802E1D02632CEE01752AC501AF
:10074000B028A001102781018F2564012B244B01C3
:10075000E0223401AC211F018D200D01801FFC001F
:10076000841EED00971DDF00B81CD200E61BC600FA
:10077000201BBC00641AB200B219A8000A19A0001C
:100780006A189900D117910040178B00B5168400A4
:1007900031167E00B31579003A157300C7146F0047
:1007A00058146A00EE1366008813630025135E0078
:1007B000C7125B006C12570015125400C111510092
:1007C00070114F0021114B00D61049008D104700C9
:1007D0004610440002104200C00F4000800F3E004F
:1007E000420F3C00060F3B00CB0E3800930E370043
:1007F0005C0E3500270E3400F30D3200C10D3100C0
:10080000900D3000600D2E00320D2D00050D2C00D6
:10081000D90C2B00AE0C2900850C29005C0C27009C
:10082000350C27000E0C2600E80B2400C40B240016
:10083000A00B23007D0B23005A0B2100390B210054
:10084000180B2000F80A1F00D90A1E00BB0A1E0060
:100850009D0A1D00800A1D00630A1C00470A1B0038
:100860002C0A1B00110A1A00F7091A00DD091900E9
:10087000C4091900AB091900920917007B09180077
:10088000630917004C0916003609160020091600E6
:100890000A091500F5081500E0081400CC0814003A
:1008A000B8081400A4081400900813007D08120072
:1008B0006B08130058081200460812003408110093
:1008C000230811001208110001081100F0071000A0
:1008D000E0071000D0071000C0071000B0070F009D
:1008E000A107100091070E0083070F0074070F0087
:1008F00065070E0057070E0049070E003B070D0065
:100900002E070E0020070D0013070D0006070D002F
:10091000F9060C00ED060D00E0060C00D4060C00F4
:10092000C8060C00BC060C00B0060C00A4060B00A8
:1009300099060C008D060B0082060B0077060B0053
:100940006C060B0061060A0057060B004C060A00F5
:1009500042060A0038060A002E060A0024060A008B
:100960001A060A001006090007060A00FD0509001C
:10097000F4050900EB050900E2050900D9050900A5
:10098000D0050900C7050900BE050900B505080026
:10099000AD050800A50509009C05080094050800A0
:1009A0008C050800840508007C0508007405080013
:1009B0006C050700650508005D0507005605080081
:1009C0004E050700470507004005080038050700E9
:1009D000310507002A050700230507001C0506004E
:1009E000160507000F0507000805060002050700A9
:1009F000FB040600F5040700EE040600E804060008
:100A0000E2040700DB040600D5040600CF0406005C
:100A1000C9040600C3040600BD040600B7040600AE
:100A2000B1040500AC040600A6040600A0040500FD
:100A30009B04060095040500900406008A04050046
:100A400085040500800406007A040500750405008D
:100A5000700405006B0405006604050061040500D0
:100A60005C04050057040500520405004D04050010
:100A700048040500430405003E0404003A04050050
:100A800035040500300404002C040500270404008C
:100A9000230405001E0404001A04040016040500C3
:100AA000110404000D0404000904050004040400FA
:100AB00000040400FC030400F8030400F403040031
:100AC000F0030400EC030400E8030400E403040062
:100AD000E0030400DC030400D8030400D403040092
:100AE000D0030400CC030400C8030300C5030300C3
:100AF00024F404D9201BC40C5C0E9804C4095F02C2
:100B000065077101F405F900FB04B3004804870090
:100B1000C10369005803550003034500BE023A00B3
:100B20008402310053022A00290225000402200019
:100B3000E4011C00C8011900AF011700980114005E
:100B400084011300710110006101100051010E00B9
:100B500043010D0036010B002B010B0020010B009F
:100B6000150109000C01090003010800FB00080041
:100B7000F3000800EB000700E4000600DE000600BA
:100B8000D8000600D2000600CC000500C700050012
:100B9000C2000500BD000400B9000400B500040057
:100BA000B1000400AD000400A9000400A50003008A
:100BB000A20003009F0004009B00030098000300B4
:100BC0009500020093000300900003008D000200D6
:100BD0008B000300880002008600020084000300EE
:100BE000810002007F0002007D0002007B00020005
:100BF0007900020077000100760002007400020014
:100C000072000100710002006F0002006D0001001F
:100C10006C0002006A000100690002006700010028
:100C2000660001006500010064000200620001002E
:100C300061000100600001005F0002005D00010032
:100C40005C0001005B0001005A0001005900010036
:100C50005800010057000100560001005500010036
:100C60005400010053000000530001005200010035
:100C700051000100500001004F0001004E00000033
:100C80004E0001004D0001004C0001004B0000002F
:100C90004B0001004A00010049000100480000002B
:100CA0004800010047000100460000004600010026
:100CB0004500000045000100440001004300000021
:100CC000430001004200000042000100410000001A
:100CD00041000100400001003F0000003F00010012
:100CE0003E0000003E0001003D0000003D0001000C
:100CF0003C0000003C0000003C0001003B00000004
:100D00003B0001003A0000003A00010039000000F9
:100D100039000100380000003800000038000100F0
:100D200037000000370001003600000036000000E8
:100D300036000100350000003500000035000100DC
:100D400034000000340000003400010033000000D3
:100D500033000000330001003200000032000000C8
:100D600032000100310000003100000031000100BC
:100D70003000000030000000300001002F000000B3
:100D80002F0000002F0000002F0001002E000000A7
:100D90002E0000002E0001002D0000002D0000009C
:100DA0002D0000002D0001002C0000002C00000090
:100DB0002C0000002C0001002B0000002B00000084
:100DC0002B0000002B0001002A0000002A00000078
:100DD0002A0000002A00010029000000290000006C
:100DE000290000002900000029000100280000005F
:100DF0002800000028000000280000002800010052
:100E00002700000027000000270000002700000046
:100E10002700010026000000260000002600000038
:100E2000260000002600010025000000250000002B
:100E3000250000002500000025000000250001001D
:100E40002400000024000000240000002400000012
:100E50002400010023000000230000002300000004
:100E600023000000230000002300000023000100F5
:100E700022000000220000002200000022000000EA
:100E800022000000220001002100000021000000DB
:100E900021000000210000002100000021000000CE
:100EA00021000100200000002000000020000000C0
:100EB00020000000200000002000000020000000B2
:100EC000200001001F0000001F0000001F000000A4
:100ED0001F0000001F0000001F0000001F00010095
:100EE0001E0000001E0000001E0000001E0000008A
:100EF000232C0000B8220000561800003A0F000012
:100F0000B8080000B1040000710200003E010000BA
:100F100020746F6F206C6F6E6720657874727573C4
:100F2000696F6E2070726576656E7465640A002064
:100F3000636F6C6420657874727573696F6E20706E
:100F4000726576656E7465640A00DB0FC93F45BC47
:100F5000DA3F8FB30240FCF0274056946140FE4BCD
:100F60009B4084A5D840E0231841346A5641E85993
:100F7000974164DBD5416E271742B4B75542CE1A6C
:100F80009742C8AED542B5885A43D40684BFA65FFF
:100F9000A7BF7443E0BF10B11AC01C2C58C0E8F6BC
:100FA00097C0B849D6C04E4E17C124D355C180242E
:100FB00097C1A0B5D5C1121A17C244AE55C2781751
:100FC00097C26CACD5C267885AC34572726F7220E3
:100FD00077726974696E6720746F20454550524F6F
:100FE0004D210A002121204B494C4C20636175732F
:100FF000656420627920746F6F206D756368206965
:101000006E6163746976652074696D65202D206357
:10101000757272656E7420636F6D6D616E643A20D7
:101020000053544F505045442E20005072696E7446
:1010300065722073746F70706564206475652074C8
:101040006F206572726F72732E2046697820746803
:1010500065206572726F7220616E64207573652001
:101060004D39393920746F20726573746172742E32
:10107000202854656D70657261747572652069739E
:101080002072657365742E20536574206974206125
:10109000667465722072657374617274696E672913
:1010A0000A004E6F20436865636B73756D20776926
:1010B0007468206C696E65206E756D6265722C2097
:1010C0004C617374204C696E653A200063686563F7
:1010D0006B73756D206D69736D617463682C204C42
:1010E000617374204C696E653A20004C696E65200E
:1010F0004E756D626572206973206E6F74204C614D
:101100007374204C696E65204E756D6265722B316B
:101110002C204C617374204C696E653A20004D316F
:10112000313000627573793A20706175736564209F
:10113000666F7220696E7075740A00627573793A11
:101140002070617573656420666F722075736572B7
:101150000A00627573793A2070726F636573736900
:101160006E670A00506C6561736520526573657423
:10117000005052494E5445522048414C5445440079
:1011800025533A202553004B494C4C45442E200012
:101190005072696E7465722068616C7465642E208B
:1011A0006B696C6C28292063616C6C6564210A0092
:1011B0000F150E1216170E1303021A1401000E0D4E
:1011C000FF180C040C19000143616E63656C204F1D
:1011D000626A65637400416476616E63656420537E
:1011E000657474696E6773005A2056616C7565008A
:1011F000496E646578205900496E6465782058000E
:1012000053746F72652053657474696E6773004C14
:101210006F61642053657474696E6773004C657602
:10122000656C20436F726E65727300466164652061
:101230004865696768740045646974204D65736822
:10124000004C6576656C20426564004E4F00594540
:10125000530043616E63656C204F626A656374205E
:101260003D00526573746F72652044656661756CEC
:10127000747300313235004245443A4550434F5370
:10128000203130304B0052756E61776179205761A3
:101290007463683A204F4E004D61782054656D703C
:1012A00000323735004D696E2054656D7000453150
:1012B0003A204550434F53203130304B0046696C43
:1012C0002E204469612E004520696E206D6DC2B3E9
:1012D00000416476616E6365204B004D33303320EE
:1012E0005531204525692053256900504944204146
:1012F00075746F74756E65202A005049442D442022
:101300002A005049442D49202A005049442D50209C
:101310002A0020082046616374002008204D61786F
:10132000002008204D696E004175746F74656D7002
:1013300000687474703A2F2F6D61726C696E6677F5
:101340002E6F7267006275676669782D322E302EB7
:1013500078002020506C616E6E657242756666651D
:101360007242797465733A20002046726565204D9B
:10137000656D6F72793A2000436F6D70696C6564BA
:101380003A204A756C20203520323032300A002055
:101390004C61737420557064617465643A20323016
:1013A00032302D30372D3034207C20417574686FF9
:1013B000723A202870616469632C20456E646572FE
:1013C0002D332050726F290A006275676669782D87
:1013D000322E302E780A004D61726C696E002053F7
:1013E0006F6674776172652052657365740A0020B8
:1013F0005761746368646F672052657365740A008F
:101400002042726F776E206F757420526573657419
:101410000A002045787465726E616C2052657365B0
:10142000740A00506F77657255700A0025532025A5
:101430006320256320256320256300656E64737433
:101440006F7073206869743A20001FFFFFFFFFFF71
:10145000FF600000000001FF400000000000FF806E
:1014600000000000007F83CF00000C303F87FF802A
:10147000000C301F867980000C000F8C30C7838CE5
:1014800030E78C30CFC7CC31F38C30DCECEC33B9A7
:101490008C30D86C6C33198C30D06C0C33198C3088
:1014A000D86C0C33198C30DC6C0E3B198C30CF7C33
:1014B000079F198C30C77C038F1940000000000083
:1014C00002600000000000061FFFFFFFFFFFF87032
:1014D000012C0190012701B0012201C0011D01F082
:1014E0000118011002130130020E0160020901907F
:1014F000020401C002FF000003FA004003F500806F
:1015000003F000D003EB002004E6007004E100E0EB
:1015100004DC004005D700C005D2004006CD00D055
:1015200006C8008007C3003008BE00F008B900C03C
:1015300009B400B00AAF00B00BAA00D00CA500009F
:101540000EA000500F9B00C010960050129100009A
:10155000148C00C0158700B0178200B0197D00D030
:101560001B7800001E730040206E0090226900F07E
:1015700024640040275F0090295A00E02B5500109A
:101580002E500020304B0010324600E033410090D6
:10159000353C001037370070383200A0392D00B0CC
:1015A0003A2800A03B2300603C1E00103D1900902B
:1015B0003D1400103E0F00703E0A00C03E050000C2
:1015C0003F0000403FFBFF803FF6FFC03FF1FF00C0
:1015D000002100240027002A002020202020202095
:1015E000001FE03FF03FF03FF01FE01FE03FF03F03
:1015F000F03FF00FC0078003001FE02010201020F4
:1016000010102010202010201030300840048003DB
:10161000003FFFF038007030FC3020FC10207810C4
:101620002030102C00D02E31D02F7BD02F7BD02E0D
:1016300031D02C00D020301020781020FC1030FC4D
:10164000303800703FFFF03FFFF0380070318630D7
:101650002387102787902F87D02F03D0203010208A
:1016600078102078102030102F03D02F87D02787B4
:10167000902387103186303800703FFFF01FFFF84D
:101680001FFFF80410400208200208200410400840
:10169000208010410010410008208004104000000C
:1016A000001FFFF81FFFF86563686F3A004572720C
:1016B0006F723A000A4D6561737572656420706FD0
:1016C000696E74733A0A00357835206D6573682E3B
:1016D000205A206F66667365743A20005072696EF6
:1016E00074696E67204F626A656374002553202514
:1016F00069004F46460A004661646520486569678F
:10170000687420004661696C656420746F20656EA2
:1017100061626C6520426564204C6576656C696E1B
:10172000670A004D65736820426564204C657665E4
:101730006C20646174613A0A00496E76616C696478
:10174000206D6573682E0A00206E6F7420656E74BC
:10175000657265642E0A00206F6620004D424C20A1
:1017600047323920706F696E7420004A206F75749B
:10177000206F662072616E67652028302D00492039
:101780006F7574206F662072616E67652028302D3A
:10179000004D6573682070726F62696E6720646FB8
:1017A0006E652E0A005374617274206D6573682033
:1017B00070726F62696E67207769746820224732A1
:1017C00039205331222066697273742E0A00473221
:1017D000380A47323920533200686173206E6F2017
:1017E000646174612E0A004D65736820426564204F
:1017F0004C6576656C696E67200053206F757420A8
:101800006F662072616E67652028302D35292E0A9B
:1018100000204D393220580020496E76616C696491
:10182000206578747275646572200054656D70650A
:1018300072617475726500507265686561742050DC
:1018400045544720426564005072656865617420A4
:10185000504C412042656400507265686561742097
:101860005045544720456E64005072656865617448
:1018700020504C4120456E6400426564205A004D62
:1018800061696E00436F6F6C646F776E00507265B4
:101890006865617420504554470050726568656101
:1018A0007420504C410046616E20537065656400A1
:1018B0004E6F7A7A6C6500466C6F7700436F6E6688
:1018C000696775726174696F6E004F6666004F6E6E
:1018D000004D6F74696F6E00426564204C657665DB
:1018E0006C696E67005053550047656E6572696399
:1018F0000050726F746F636F6C00312E3000426164
:10190000756400313135323030004D656C7A6920B4
:1019100028437265616C69747929004D657368208C
:101920004C6576656C696E670045787472756465A0
:10193000727300456E6465722D332050726F0032F1
:101940003032302D30372D303400546865726D6977
:1019500073746F727300426F61726420496E666FB8
:10196000005072696E74657220496E666F00416244
:101970006F7574205072696E7465720054756E656F
:1019800000496E666F2053637265656E00536F6623
:101990007420456E6473746F7073004D3834004466
:1019A000697361626C652053746570706572730051
:1019B000473238004175746F20486F6D65003F00F5
:1019C000454550524F4D2056657273696F6E2045E4
:1019D00072726F7200454550524F4D20496E6465DA
:1019E00078204572726F7200454550524F4D20432A
:1019F0005243204572726F720049676E6F726500C4
:101A0000496E697469616C697A6520454550524F29
:101A10004D0053657474696E67732053746F7265FB
:101A2000640053657474696E67732053746F7265D4
:101A3000642028004D6F7665205A005072696E74DC
:101A400020506175736564004D6F76652025736D58
:101A50006D004D6F766520302E316D6D004D6F76C7
:101A60006520316D6D004D6F76652031306D6D00F4
:101A70004D6F7665204178697300486F74656E64B8
:101A800020746F6F20636F6C6400457874727564A6
:101A90006572004D6F76652059004D6F7665205850
:101AA00000486F6D65202573257325732046697284
:101AB000737400220A00556E6B6E6F776E20636F31
:101AC0006D6D616E643A202200456E6465722D333F
:101AD0002050726F2052656164792E005072696ED9
:101AE00074696E672E2E2E0020453A00205A3A0067
:101AF00020593A0000002200250028002B00000099
:101B00002000230026002900020202020202020233
:101B1000040404040404040403030303030303038D
:101B200001010101010101010102040810204080AE
:101B300001020408102040800102040810204080A7
:101B40008040201008040201000000010200090A80
:101B5000000000000403080700000000000000006F
:101B60000000000000000000000000010000000173
:101B7000000080005555550000004000333333000D
:101B8000AAAA2A004992240000002000C7711C0064
:101B900099991900D1451700555515003BB113000F
:101BA0002449120011111100000010000F0F0F0046
:101BB000E3380E0043790D00CCCC0C00C3300C0090
:101BC000E8A20B0064210B00AAAA0A00703D0A00DB
:101BD0009DD80900427B090092240900DCD308004B
:101BE000888808001042080000000800F0C10700C3
:101BF0008787070075500700711C07003EEB060041
:101C0000A1BC06006990060066660600703E0600EC
:101C10006118060017F4050074D105005BB00500DB
:101C2000B29005006272050055550500783905002F
:101C3000B81E0500050505004EEC040087D404001D
:101C4000A1BD040090A7040049920400C17D0400D6
:101C5000EE690400C7560400444404005C320400EA
:101C60000821040041100400000004003FF00300BC
:101C7000F8E0030026D20300C3C30300CCB5030081
:101C80003AA803000A9B0300388E0300C0810300BA
:101C90009F750300D0690300505E03001D530300CD
:101CA00034480300913D0300333303001629030039
:101CB000381F030097150300300C030003030300D3
:101CC0000BFA020049F10200BAE802005CE00200EF
:101CD0002DD802002DD0020059C80200B0C0020069
:101CE00031B90200DAB10200AAAA0200A0A30200E0
:101CF000BC9C0200FA9502005C8F0200DF880200A3
:101D000082820200457C02002776020027700200D2
:101D1000436A02007C640200D05E02003F59020068
:101D2000C8530200FFFDFCFAF8F6F4F2F0EEECEA1C
:101D3000E9E7E5E3E1E0DEDCDAD9D7D5D4D2D0CFEC
:101D4000CDCBCAC8C7C5C3C2C0BFBDBCBAB9B7B680
:101D5000B4B3B2B0AFADACAAA9A8A6A5A4A2A1A0E5
:101D60009E9D9C9A99989795949392908F8E8D8B27
:101D70008A8988878684838281807F7E7D7B7A7949
:101D80007877767574737271706F6E6D6C6B6A694B
:101D90006867666564636261605F5E5D5C5B5A593B
:101DA00058585756555453525150504F4E4D4C4B16
:101DB0004A4A4948474646454443424241403F3EDD
:101DC0003E3D3C3B3B3A3938383736353534333293
:101DD000323130302F2E2E2D2C2B2B2A292928273B
:101DE0002726252524232322212120201F1E1E1DD6
:101DF0001C1C1B1B1A191918181716161515141365
:101E00001312121111100F0F0E0E0D0D0C0C0B0AE8
:101E10000A09090808070706060505040403030262
:101E200002010000202D20496E76616C69642065F6
:101E300078747275646572206E756D6265722021AA
:101E40000A00544845524D414C2052554E4157418D
:101E50005900546865726D616C2052756E617761CE
:101E600079004572723A204D415854454D50004D0D
:101E7000415854454D5020747269676765726564B6
:101E8000004572723A204D494E54454D50004D491F
:101E90004E54454D502074726967676572656400E1
:101EA000202F002042403A0020403A006F70656EBB
:101EB00000545249474745524544007A5F6D696E68
:101EC00000795F6D696E00785F6D696E00526570B4
:101ED0006F7274696E6720656E6473746F702073BF
:101EE00074617475730A005761726E696E673A2087
:101EF000486F6D696E672042756D70204469766920
:101F0000736F72203C20310A0000000000000000C6
:101F1000000000000000004842000048420000A00D
:101F2000410202040000A0400000A0400000004068
:101F300000006B4300006B4300007A43FFFFFF4348
:101F400061703A006F6B00526573656E643A2000F1
:101F500020573A00452025530023646566696E6565
:101F60002044454641554C545F004B6420004B696A
:101F700020004B702000504944204175746F7475E7
:101F80006E652066696E697368656421205075749A
:101F900020746865206C617374204B702C204B6931
:101FA00020616E64204B6420636F6E7374616E7485
:101FB000732066726F6D2062656C6F7720696E7436
:101FC0006F20436F6E66696775726174696F6E2EFC
:101FD000680A00504944204175746F74756E65201D
:101FE0006661696C6564212074696D656F75740A3A
:101FF000000A20436C617373696320504944200ACE
:1020000000204B643A2000204B693A2000204B709E
:102010003A20002054753A2000204B753A200020C9
:102020006D61783A2000206D696E3A200020643A94
:10203000200020626961733A2000504944204175B4
:10204000746F74756E652073746172740A00504900
:1020500044204175746F74756E65206661696C65A6
:1020600064212054656D70657261747572652074A9
:102070006F6F20686967680A005049442041757491
:102080006F74756E6500504944204175746F7475A6
:102090006E65206661696C6564212042616420651B
:1020A00078747275646572206E756D6265720A006F
:1020B0004572723A207574663820666F6E74206EB1
:1020C0006F7420696E697469616C697A65642E0049
:1020D000000C0F00FE07022603BC017FFE08FE086D
:1020E000FE05080806000040F0C8888898781005AA
:1020F0000808060000C0F88888888888F805050563
:102100000600012030F83020050808060000207085
:10211000F820202020E00509090600FF2070A8A86B
:10212000B888887020050606060001E08CEA8C8AD3
:102130000A0509090600FFF8A88888888888A8F891
:10214000050A0A0600FE205050505088A8A8887042
:1021500003030306000340A040FFFFFFFFFFFFFF54
:10216000FFFFFFFFFFFFFFFFFFFFFFFFFFFFFF007E
:1021700000000605FF0107070602008080808080BE
:102180000080030303060105A0A0A00506060600C3
:102190000050F85050F8500509090600FF2070A8BB
:1021A000A07028A87020050707060000C8C81020E6
:1021B00040989805070706000040A0A040A8906836
:1021C0000103030602058080800309090601FF2040
:1021D00040408080804040200309090601FF804084
:1021E0004020202040408005070706000020A870FE
:1021F0002070A8200505050600012020F8202002F7
:1022000003030601FFC04080050101060003F80238
:102210000202060100C0C0050707060000081010F2
:1022200020404080050707060000708898A8C888ED
:102230007003070706010040C040404040E005072A
:1022400007060000708808102040F8050707060000
:1022500000F80810300888700507070600001030E5
:102260005090F81010050707060000F880F00808E5
:102270008870050707060000304080F088887005E8
:102280000707060000F808101020202005070706A1
:102290000000708888708888700507070600007045
:1022A000888878081060020505060100C0C000C0DB
:1022B000C00206060601FFC0C000C040800305053D
:1022C0000601012040804020050303060002F800BB
:1022D000F803050506010180402040800507070638
:1022E00000007088102020002005070706000070FD
:1022F00088B8A8B88070050707060000708888F8BD
:10230000888888050707060000F04848704848F0AC
:102310000507070600007088808080887005070721
:10232000060000F04848484848F005070706000046
:10233000F88080F08080F8050707060000F88080AC
:10234000F0808080050707060000708880809888EC
:1023500070050707060000888888F88888880307C2
:1023600007060100E04040404040E0050707060046
:1023700000381010101090600507070600008890C4
:10238000A0C0A0908805070706000080808080809C
:1023900080F805070706000088D8A888888888057F
:1023A00007070600008888C8A898888805070706D8
:1023B000000070888888888870050707060000F08C
:1023C0008888F0808080050707060000708888886C
:1023D000A89068050707060000F08888F0A090889C
:1023E00005070706000070888070088870050707D9
:1023F000060000F820202020202005070706000006
:10240000888888888888700507070600008888887B
:102410008850502005070706000088888888A8A8EB
:102420005005070706000088885020508888050757
:102430000706000088885020202020050707060096
:1024400000F80810204080F80309090601FFE08029
:10245000808080808080E005070706000080404083
:10246000201010080309090601FFE0202020202089
:102470002020E00503030600052050880501010621
:1024800000FEF8030303060105804020050505064C
:10249000000070087888780507070600008080F043
:1024A000888888F005050506000070808088700522
:1024B000070706000008087888888878050505065B
:1024C00000007088F0807005070706000030484063
:1024D000E04040400507070600FE708888887808BD
:1024E000700507070600008080F088888888030749
:1024F000070601004000C0404040E0040909060111
:10250000FE10003010101010906005070706000044
:1025100080808890E09088030707060100C0404053
:10252000404040E0050505060000D0A8A8A8A80581
:102530000505060000B0C888888805050506000066
:1025400070888888700507070600FEF0888888F084
:1025500080800507070600FE7888888878080805C7
:102560000505060000B0C88080800505050600004E
:1025700078807008F00507070600002020F820206A
:102580002018050505060000888888986805050557
:102590000600008888885020050505060000888808
:1025A000A8A850050505060000885020508805079A
:1025B000070600FE88888850204080050505060033
:1025C00000F8102040F80309090601FF20404040B0
:1025D00080404040200109090602FF808080808001
:1025E000808080800309090601FF80404040204030
:1025F00040408005030306000248A890FF4573741D
:102600006570732F6D6D005A73746570732F6D6DE7
:10261000005973746570732F6D6D00587374657015
:10262000732F6D6D0046696C616D656E7400537437
:102630006570732F6D6D004E65787420436F726EF8
:10264000657200446F6E65004E657874004C657667
:10265000656C696E6720446F6E6521004E65787405
:1026600020506F696E74002569202F202575004762
:10267000323920533100436C69636B20746F204200
:102680006567696E00486F6D696E672058595A001A
:10269000456E636C6F737572650020627974657343
:1026A0003B2063726320004E6F20454550524F4DD2
:1026B0002E0A00454550524F4D2064617461736984
:1026C0007A65206572726F722E0A002073746F72C1
:1026D00065642073657474696E67732072657472C3
:1026E0006965766564202800202863616C63756CD9
:1026F0006174656429210A0020213D200045455070
:10270000524F4D20435243206D69736D617463686D
:10271000202D202873746F7265642920002053696E
:102720007A653A2000496E6465783A2000204D6150
:10273000726C696E3D563831290A00454550524F3A
:102740004D2076657273696F6E206D69736D61746B
:1027500063682028454550524F4D3D0020520048A7
:10276000617264636F6465642044656661756C744E
:102770002053657474696E6773204C6F616465647F
:102780000A003B200020204D393030204B004C699E
:102790006E65617220416476616E63653A00202047
:1027A0004D333031205000504944207365747469B2
:1027B0006E67733A0020460020480020204D3134D7
:1027C000352053004D6174657269616C20686561E4
:1027D00074757020706172616D65746572733A0012
:1027E0002020473239205334205A002020473239E4
:1027F00020533320490020204D3432302053004DE7
:1028000065736820426564204C6576656C696E6707
:102810003A0020204D323036205800486F6D652038
:102820006F66667365743A00204A0020204D32308E
:1028300035204200416476616E6365643A20423C13
:102840006D696E5F7365676D656E745F74696D65E4
:102850005F75733E20533C6D696E5F66656564729B
:102860006174653E20543C6D696E5F74726176657B
:102870006C5F66656564726174653E204A3C6A758A
:102880006E635F6465763E0020540020204D323038
:1028900034205000416363656C65726174696F6ECA
:1028A0002028756E6974732F7332293A20503C705A
:1028B00072696E745F616363656C3E20523C726541
:1028C00074726163745F616363656C3E20543C7431
:1028D000726176656C5F616363656C3E0020204DBC
:1028E0003230312058004D6178696D756D2041633B
:1028F00063656C65726174696F6E2028756E6974AA
:10290000732F7332293A0020450020204D32303396
:102910002058004D6178696D756D2066656564723B
:10292000617465732028756E6974732F73293A007A
:1029300053746570732070657220756E69743A0007
:1029400020440020204D3230302053002044697351
:1029500061626C65640A0046696C616D656E742025
:1029600073657474696E67733A0020204D31343991
:102970002043203B20556E69747320696E204365A7
:102980006C736975730A0020286D6D29002020473B
:102990003231202020203B20556E69747320696EEF
:1029A000206D6D00486F6D696E67204661696C65CA
:1029B00064000000FA430000FA430000A040000059
:1029C000C8410000A0420000A0420000C84300002F
:1029D000D342F4010000F4010000640000008813F9
:1029E000000020436F756E7420583A004D31303628
:1029F000205000453100626564002C2073797374A7
:102A0000656D2073746F7070656421204865617412
:102A100065725F49443A200048656174696E6720B9
:102A20004661696C65640048656174696E6720661B
:102A300061696C6564004D3131322053687574648E
:102A40006F776E000FD511241FBECFEFD0E4DEBF2D
:102A5000CDBF11E0A0E0B1E0E8E5F8EC01E00BBF8C
:102A600002C007900D92AA3FB107D9F720E1AAEF63
:102A7000B1E001C01D92AE3AB207E1F715E1C3E241
:102A8000D5E104C02197FE010E94B3E1C232D10713
:102A9000C9F70E944ACE0C942AE40C9400002F92AD
:102AA0003F924F925F926F927F928F929F92AF92DE
:102AB000BF92CF92DF92EF92FF920F931F93CF932B
:102AC000DF93CDB7DEB7EC970FB6F894DEBF0FBE3D
:102AD000CDBF8CAF2091040229AB11E0109304020A
:102AE0008091AA0D8D3409F41EC3843511F40C9421
:102AF0004224873411F00C9467248091A80D9091A2
:102B0000A90D8C31910509F4BCC18CF48430910578
:102B100009F4E3C01CF4029790F101C385319105DB
:102B200011F40C9469244B9709F415C1F8C28A3545
:102B3000910509F4BAC144F48D31910509F4B1C18C
:102B40008A9709F427C2EBC28B35910509F4B1C10C
:102B50008C35910509F0E3C29CE7292E91E0392ECE
:102B600026EFE22E2CE0F22E2CEA3CE03BA32AA337
:102B70003FE9C32E3CE0D32E00E010E0DAC18091A3
:102B8000E809813011F00C9469246CEAC62E6CE0DF
:102B9000D62E73E0E72E7DE0F72EEFE9AE2EECE0C7
:102BA000BE2E10E088E5810F0E949367882339F1DB
:102BB0000E9417672B013C018091F70881111FC00B
:102BC000812F0E94B166882351F0D6012D913D914D
:102BD0004D915C91C301B2010E94D7E109C0F5019A
:102BE0002081318142815381C301B2010E94D6E12B
:102BF000D7016D937D938D939C9313970AC0F60133
:102C000080819181A281B381F70180839183A28326
:102C1000B3831F5FF4E0CF0ED11C24E0E20EF11C61
:102C200034E0A30EB11C133009F0BCCF85E40E9440
:102C30009367882301F10E9417676B017C0183E091
:102C40000E94B166882371F02091B80C3091B90CC4
:102C50004091BA0C5091BB0CC701B6010E94D7E15C
:102C60006B017C01C0920F0DD092100DE092110DFE
:102C7000F092120D10C08091B80C9091B90CA091F7
:102C8000BA0CB091BB0C80930F0D9093100DA093D4
:102C9000110DB093120D86E40E9493678823C9F04A
:102CA0000E94176720E030E0A9010E945AE318163D
:102CB00084F40E94176720E030E040E752E40E946D
:102CC0005AE26093590170935A0180935B0190938B
:102CD0005C010E942E9E0C94692480E50E949367FB
:102CE000882329F00E94CF666B017C0103C0C12CB0
:102CF000D12C760183E50E949367882361F00E94BE
:102D0000176720E030E04AE754E40E9426DB0E9487
:102D1000D3E26B017C010E94E78F8091FD0B811152
:102D200005C060E08FE892E00E9409800E941B5D70
:102D3000C60ED71EE81EF91E0E941B5DDC01CB01EA
:102D40008C199D09AE09BF09B7FD02C00C94692416
:102D50000E94794AF1CF0E94568881110C9469240F
:102D60008CE0E0E7F1E0DE01119601900D928A958A
:102D7000E1F760E070E080E50E94A06740E050E08D
:102D800068EC72E44E8F5F8F68A379A340E050E057
:102D900060EA70E44A8F5B8F6C8F7D8F813019F011
:102DA000823039F029C0BE01665E7F4FCE010996A0
:102DB00058C029853A854B855C856091B40C70912B
:102DC000B50C8091B60C9091B70C0E94D7E16B01C5
:102DD0007C0120E030E04AE753E40E94C0DA87FD3E
:102DE00006C0C12CD12C5AE7E52E53E4F52ECE8A2D
:102DF000DF8AE88EF98E30C020E030E040E050E419
:102E00006091B40C7091B50C8091B60C9091B70C98
:102E10000E94D7E17B018C0120E030E04AE753E4D7
:102E20000E945AE3181624F4E12CF12C0AE713E46B
:102E3000A984BA84CB84DC849701A801B501C601BA
:102E40000E945AE3181614F475018601C701D801CF
:102E50008E8B9F8BA88FB98FBE01665E7F4FCE0190
:102E600046960E94A4A2AE01425E5F4FBE016B5F18
:102E70007F4FCE0101960E9482A20E94C5A20C94AF
:102E800069248091020D8770873011F00C9497248B
:102E900060E08FE40E94C26781110C9469240C9455
:102EA00097240E94826A0C946924109203020C9465
:102EB00069248FE0809303020C9469240E941767B1
:102EC0002B013C01133049F0F60120813181428110
:102ED00053810E94D6E12B013C01AAA1BBA12D91F7
:102EE0003D914D915C91C301B2010E94D6E14B012D
:102EF0005C012DEB37E346E855EB0E945AE387FD72
:102F000020C02DEB37E346E855E3C501B4010E942C
:102F1000C0DA1816B4F01F5FB4E0EB0EF11CEAA1A2
:102F2000FBA13496FBA3EAA3F4E0CF0ED11C14302E
:102F300039F1D1018D911D010E949367882359F3C6
:102F4000BDCF133051F44092B80C5092B90C60923E
:102F5000BA0C7092BB0C01E0DECFA5019401F70121
:102F600060817181828193810E94D7E1D7016D9345
:102F70007D938D939C931397812F0E94FB9DCBCFC4
:102F8000002321F088EB9CE00E94F78F0E94C5A2ED
:102F90000C9469248091E809813011F00C94692423
:102FA00089E40E949367F82E882321F00E9413671A
:102FB000182F01C010E08AE40E949367082F88232D
:102FC00019F00E94136701C080E0FF2011F0153056
:102FD00020F4002341F0853030F085EB92E00E9430
:102FE000A8690C94692490E1ECEAFCE0A3E0BDE060
:102FF00001900D929A95E1F7FF2091F024E01202E2
:10300000F0011124E15CF04F4081518162817381B4
:103010004093030D5093040D6093050D7093060DBE
:10302000002391F034E08302F0011124E55DF04FBC
:1030300080819181A281B3818093070D9093080DC7
:10304000A093090DB0930A0D86E40E94936788232C
:1030500011F40C94402A0E9417676B017C0120E058
:1030600030E0A9010E945AE3181614F00C94402A8B
:1030700020E030E040E752E4C701B6010E945AE286
:103080004B015C01C0905901D0905A01E0905B0166
:10309000F0905C0120E030E0A9010E94C0DA8823B2
:1030A00041F08092590190925A01A0925B01B09236
:1030B0005C01009157011091580184E690E09093D3
:1030C0005801809357018090110190901201A090B7
:1030D0001301B090140180E090E0A0E8BFE380937A
:1030E000110190931201A0931301B09314010E9457
:1030F0002E9EC0925901D0925A01E0925B01F0924B
:103100005C01109358010093570180921101909235
:103110001201A0921301B09214010C9469240E9430
:1031200048880C9469248091A80D9091A90D893745
:10313000910509F4A2C50CF004C18836910509F483
:1031400004C30CF044C08C34910509F4E9C2FCF4CA
:103150008231910509F458C46CF497FF02C00C94B5
:103160003F24823091050CF499C1419709F4F3C1D1
:103170000C943F248A32910509F4B5C28B34910531
:1031800009F4CAC24F9711F00C943F2401C2833551
:10319000910509F432C47CF48135910509F412C417
:1031A0000CF024C48D34910511F00C943F240E943E
:1031B000457D0C9469248535910509F45CC40CF4B3
:1031C00023C48C35910509F479C40C943F248037CD
:1031D000910511F40C946924BCF48C36910511F41A
:1031E0000C9469243CF48A36910509F4E2C20CF48B
:1031F000D0C2FFC28E36910509F404C30CF015C38A
:103200000E9468A70C9469248537910509F4E7C4E6
:103210000CF089C08237910509F4DAC40CF44FC36D
:103220008337910511F00C943F2482EA94E00E94C8
:10323000A86960E082E994E00E942EAB60E08DE72F
:1032400094E00E942EAB61E08BE09AE10E942EABED
:1032500061E082E794E00E942EAB61E082E694E0B8
:103260000E942EAB60E089E594E00E942EAB61E005
:103270008FE494E00E942EAB60E085E494E00E942D
:103280002EAB60E08DE394E00E942EAB61E08FE214
:1032900094E00E942EAB60E081E294E00E942EABAD
:1032A00060E082E194E00E942EAB60E084E094E074
:1032B0000E942EAB60E08EEE93E00E942EAB61E0A8
:1032C0008DED93E00E942EAB60E08EEC93E00E94C7
:1032D0002EAB60E087EC93E00E942EAB60E082EBC7
:1032E00093E00E942EAB60E084EA93E00E942EAB54
:1032F00061E081E993E00E942EAB60E084E893E016
:103300000E942EAB60E08FE793E00E942EAB60E05E
:1033100082E793E00E942EAB60E08EE593E00E948E
:103320002EAB0C9469248737910509F49BC40CF0EB
:103330009CC40091A60D1091A70D94E0F12C40E0E3
:1033400075C48D3241E0940709F4A2C70CF046C061
:103350008C3C910509F495C50CF58E3B910509F45B
:10336000F9C274F48139910509F48EC48B39910541
:1033700009F402C38C38910511F00C943F24C8C2A3
:10338000893C910509F43BC58B3C910509F45AC56C
:10339000883C910511F00C943F24EAC48C3D9105C2
:1033A00009F499C664F48E3C910509F4B1C50CF496
:1033B0009CC5833D910509F4C8C50C943F24823E09
:1033C000910509F405C78C32A1E09A0709F44BC7AF
:1033D0008D3D910511F00C943F24A4C6863EB1E0CA
:1033E0009B0711F40C943D236CF58A39F1E09F079B
:1033F00011F40C9469248CF48F3231E0930711F4AA
:103400000C940B220CF4C3C78039914011F00C943A
:103410003F240E94E78F0C946924853AA1E09A0723
:1034200011F40C940E228C3AB1E09B0711F40C9429
:10343000DF22843A914011F00C943F240E941F6DCA
:103440000C946924873FF1E09F0711F40C94AF239B
:1034500094F4853F31E0930711F40C94A92314F000
:103460000C94AC23843F914011F00C943F240E94B3
:1034700042800C9469248438A3E09A0711F40C94D8
:10348000C823873EB3E09B0711F40C943124883F96
:10349000914011F00C943F240C94B72380E50E94D6
:1034A0009367882329F00E94CF666B017C0103C0DB
:1034B000C12CD12C760183E50E949367882361F0AB
:1034C0000E94176720E030E04AE754E40E9426DBC0
:1034D0000E94D3E26B017C010E94E78F8091A60DD0
:1034E0009091A70D009721F061E00E94CF8405C064
:1034F00060E08EEC92E00E9409801091040283E06B
:103500008093040281E08093C50BC114D104E104CF
:10351000F10431F00E941B5DC60ED71EE81EF91E95
:103520008091C50B882311F40C94B426C114D104E6
:10353000E104F10411F40C94B0260E941B5DDC013F
:10354000CB018C199D09AE09BF09B7FF02C00C94CD
:10355000B0260C94B4268091A20D84FF02C00C9476
:10356000BB268091A40D87FF02C00C94BB268091DE
:10357000A50D837011F00C94BB2660E081EE92E003
:103580000E9409805E985E9815985E980C94692454
:103590000E94F67C7B018C0120E831E541E050E09F
:1035A0000E9416E1C9016DE671E00E946CE14B01D9
:1035B0005C01C801B70120E13EE040E050E00E941C
:1035C00016E1CA01B90128E130E040E050E00E9474
:1035D00016E1762E672EC62ED72E8CE3282E312CA0
:1035E000412C512CC801B701A20191010E9416E1A2
:1035F000F62EE72ECA01B901A20191010E9416E13F
:10360000CB018E010F5F1F4F8114910499F0EF924F
:10361000FF927F936F936F927F92BF92AF929F9230
:103620008F928AEE92E09F938F931F930F930E9445
:1036300058DA13C0A114B104B1F0EF92FF927F9356
:103640006F936F927F92BF92AF928EEE92E09F93B4
:103650008F931F930F930E9458DA0FB6F894DEBF32
:103660000FBECDBF30C0CD2879F0EF92FF927F938F
:103670006F936F927F9282EF92E09F938F931F934D
:103680000F930E9458DAE9CF892B69F0EF92FF92ED
:103690007F936F9386EF92E09F938F931F930F9387
:1036A0000E9458DADACFEF92FF928AEF92E09F936E
:1036B0008F931F930F930E9458DA0F900F900F90E3
:1036C0000F900F900F9060E0C8010E94CF840E947D
:1036D000B76CB8018EEF92E00E94A06C8AE00E9465
:1036E0004D490C9469246FEF7FEF80E50E94B3672A
:1036F0008C0197FF02C00C946924F82E60E089E4E5
:103700000E94C26781110C94CD26802F0E94E7CDC4
:1037100081117BC50C94CD260E94FE470C94692430
:1037200080919E0C813011F00C94692482E080938A
:103730009E0C0E941B5D6093670C7093680C8093D5
:10374000690C90936A0C0C9469248091F80883FFAB
:1037500002C00C9469240E94BB6C87FF02C00C94C9
:10376000692483E50E949367882379F00E94176794
:103770000E94CCE2CB010E9491970E948D99811109
:1037800004C00E94457D0E94E5870E94FF8E0C9434
:1037900069240E94BB6C182F87FF02C00C947B2405
:1037A00084E49FE10E94A869812F0E94A1970C9454
:1037B000782480E50E94AD8881110C94692481E40D
:1037C0000E944A67882321F060917F0270E002C066
:1037D0006FEF70E083E50E94A0678F3F910519F0BD
:1037E00010F08FEF90E0BC0180E00E9463CD0C945C
:1037F000692480E50E94AD8860E070E00E9463CD9E
:103800000C9469248EE40E949367882311F40C942D
:1038100069240E94DF6660932F0E7093300E8093B0
:10382000310E9093320E0C94692483E50E944A670E
:10383000882329F083E50E94AD888093F8080E94D0
:10384000B76C81E293E00E94A8698091F808882310
:1038500069F1B6EEEB2EB6E0FB2E00E010E020E0C2
:103860008091F80890E0A0E0B0E0002E04C0B6958A
:10387000A795979587950A94D2F780FF0EC0DD240F
:10388000D394D20E222319F08CE20E944D49F70105
:10389000859194910E94A8692D2D0F5F1F4F32E0F2
:1038A000E30EF11C05301105D9F604C08DE193E05B
:1038B0000E94A8698AE00E944D490C94692483E51E
:1038C0000E949367882381F00E94EF66282F30E0E2
:1038D0002D33310524F4809300010C9469248CE38A
:1038E000809300010C9469240E94B76CC090000181
:1038F000D12CE12CF12C88E293E00E94A8694AE0E7
:10390000C701B6010E9454498AE00E944D49E1C7AF
:103910008091F80883FDDDC783E50E9493678823C3
:1039200009F4D7C70E9417670E94CCE2633771057C
:1039300014F063E770E07093E70C6093E60C0E946C
:1039400069950E948D998111C4C70E94457D0E948E
:10395000E587BFC78091F80883FDBBC783E50E9458
:1039600093678AAB81110C94762782E50E94936756
:1039700081110C947627ADC783E50E949367882355
:1039800009F4A7C70E94EF66182F90E0CD970CF0BE
:103990001CE31093FE010E941B5D6B017C01212F33
:1039A00030E0A8EEB3E00E9443E1C60ED71EE81E49
:1039B000F91EC092FA01D092FB01E092FC01F09254
:1039C000FD0187C70E94A0990E94457D0E94A69193
:1039D0000E94CA6668EE73E080E090E00E9484690D
:1039E00060E08DE493E00E94098073C78091030238
:1039F0008F7D8061809303026CC7809103028F7E6C
:103A000080628093030265C783E50E9493678823E1
:103A1000E9F00E941B5D6093330E7093340E809327
:103A2000350E9093360E0E94176720E030E04AE78B
:103A300054E40E9426DB0E94D3E26093010170935C
:103A40000201809303019093040143C78091A20D6A
:103A500084FF02C00C94F5288091A40D87FF02C05A
:103A60000C94F5288091A50D837011F00C94F52825
:103A70000E94A6912EC783E50E944A67882309F415
:103A800028C70E941B5D6093330E7093340E8093A1
:103A9000350E9093360E0E94176720E030E04AE71B
:103AA00054E40E9426DB0E94D3E26093FF017093EE
:103AB000000280930102909302020BC70E94BB6C2C
:103AC00087FD07C79091A20D94FD04C09091A40DAD
:103AD00097FF0AC07CE7C72E71E0D72EE9EFEE2EE4
:103AE000E8E0FE2E10E009C09091A50D937091F7CB
:103AF000682F81E00E94E46CECC6D6018D916D01C7
:103B00000E949367882309F459C0133009F04FC00D
:103B10000E9417674B015C0120E030E040EA51E46D
:103B20000E94C0DA87FF3AC0A5019401609119098B
:103B300070911A0980911B0990911C090E945AE208
:103B40002B013C019B01AC016091290970912A096C
:103B500080912B0990912C090E9426DB6093290902
:103B600070932A0980932B0990932C0960916F021E
:103B70007091700280917102909172020E94C5DA78
:103B8000A30192010E9426DB0E94D3E260936F02A0
:103B9000709370028093710290937202809219095F
:103BA00090921A09A0921B09B0921C0907C00E94AA
:103BB0001767F701648B758B868B978B1F5FF4E01B
:103BC000EF0EF11C143009F098CF0E94C38F81C60C
:103BD0000E9480878AEB9EE00E947FCD7AC680910A
:103BE000A60D9091A70D009741F0DC012C912223A6
:103BF00021F060E00E94CF846CC60E94E58769C610
:103C0000F8018081282F2B7F213499F08035E9F449
:103C1000818180538A30C8F498012E5F3F4F89011B
:103C20002F5F3F4FF80180818032C9F3915041F7F7
:103C30000CC02181213349F4813421F0853461F7AE
:103C400041E0EACFFF24F394E7CF41110E94B76C23
:103C5000FF2021F08EE795E00E94A869C8010E942C
:103C6000584A37C60E944FA334C681E08093E509C5
:103C70008093E4090E946AA32CC61092E509109271
:103C8000E4090E946AA325C660E070E083E50E9413
:103C9000B367823038F00E94B36C82E895E00E94EE
:103CA000A86917C68C01112788E40E9493678823AE
:103CB000E1F00E9413678A3A910544F00E9413676D
:103CC0008530914034F40E94136705C08AEA90E081
:103CD00002C084E091E026E0209FF001219FF00DDA
:103CE0001124E85AFF4E9183808382E40E949367F7
:103CF0008823D9F00E941367059744F00E94136748
:103D00008437910534F40E94136705C085E090E084
:103D100002C083E790E026E0209FF001219FF00D94
:103D20001124E85AFF4E9383828386E40E949367AE
:103D3000882309F4CEC50E94136797FD09C00E942D
:103D400013678F3F910509F034F40E94136705C093
:103D500080E090E002C08FEF90E026E0209FF0012D
:103D6000219FF00D1124E85AFF4E95838483B1C53D
:103D70000E94BB6C182F87FDACC50091C80C84E471
:103D80000E949367882311F40C941A290E941767E4
:103D90006B017C0120E030E0A9010E94C0DA882399
:103DA00041F124E01202F0011124E353F34FC082E9
:103DB000D182E282F38220E030E0A9016091CD0C53
:103DC0007091CE0C8091CF0C9091D00C0E94C0DAF3
:103DD00081110CC080E090E0A0EEBFE38093CD0C99
:103DE0009093CE0CA093CF0CB093D00C01E00C9428
:103DF0001A2980E08093C80C0E947E8D6AC50E94BB
:103E0000BB6C87FD66C56CE7E62E61E0F62E09EF18
:103E100018E0D7018D917D010E944A67882359F0EF
:103E20000E9417670E94D3E2F80160837183828346
:103E300093830E944C8F0C5F1F4FF9E009301F07DE
:103E400041F747C50E94BB6C87FD43C55CE7E52E83
:103E500051E0F52E09EF18E0D7018D917D010E9408
:103E60004A67882339F00E941767F80164A375A395
:103E700086A397A30C5F1F4FF9E009301F0761F776
:103E800028C58091A30D87FF02C00C942029809142
:103E9000A40D8E7011F00C94202940912D095091A1
:103EA0002E0960912F097091300984EA95E00E94F3
:103EB000646A4091310950913209609133097091DF
:103EC00034098CE597E20E94646A4091350950916B
:103ED0003609609137097091380988E898E20E94A4
:103EE000646A8AE00E944D49F4C48091A20D81FF6A
:103EF00002C00C9466298091A30D81FF02C00C942E
:103F000066298091A40D8C7011F00C946629E1C48F
:103F100049EEE42E49E0F42E10E088E5810F0E947E
:103F20004A67882359F00E941767D7016D937D93E4
:103F30008D939C931397812F0E94FB9D1F5FB4E08C
:103F4000EB0EF11C133049F721C840909F0C5090A4
:103F5000A00C6090A10C7090A20C20913E013091B9
:103F60003F014091400150914101C301B2010E94C3
:103F7000D7E16AA37BA38CA39DA38090A30C909010
:103F8000A40CA090A50CB090A60C209142013091F9
:103F900043014091440150914501C501B4010E9483
:103FA000D7E16EA37FA388A799A7C090A70CD09054
:103FB000A80CE090A90CF090AA0C20914601309139
:103FC00047014091480150914901C701B6010E9443
:103FD000D7E16AA77BA78CA79DA720914A013091C2
:103FE0004B0140914C0150914D01C301B2010E941F
:103FF000D7E12B013C0120914E0130914F014091BE
:10400000500150915101C501B4010E94D7E14B010B
:104010005C01209152013091530140915401509123
:104020005501C701B6010E94D7E16B017C010E94D6
:10403000B76C83EE95E00E94A86983E50E944A6709
:10404000882321F00E9403678093560180915601D6
:10405000882319F085E992E102C08EE994E00E947C
:10406000A8698BED95E00E94A8694AA15BA16CA1AB
:104070007DA183EE98E20E94646A4EA15FA168A5CB
:1040800079A587E99AE10E94646A4AA55BA56CA5B7
:104090007DA588EE97E20E94646A8FED95E10E940B
:1040A000A86983ED95E00E94A869B301A20183EE9F
:1040B00098E20E94646AB501A40187E99AE10E942E
:1040C000646AB701A60188EE97E20E94646A8AE0FA
:1040D0000E944D49FEC383E50E949367882331F017
:1040E0000E94136790935801809357018091A20D0D
:1040F0009091A30DA091A40DB091A50D892B8A2BB1
:104100008B2B09F0E6C3609157017091580183EF42
:1041100095E00E94756A85E20E944D498AE00E94FE
:104120004D49D7C30E94BB6CF82E87FDD2C383E5EF
:104130000E9493670F2D0F2C000C110B882369F13F
:104140000E941367F801EE0FFF1FE35DFE4F91839E
:104150008083000F111F000F111FF801EF5EFE4F4B
:104160007F01BC01990F880B990B0E94C7DA2AE0E6
:1041700037ED43E25CE30E9426DBF801E753F34F9F
:1041800020813181428153810E9426DBD7016D93CA
:104190007D938D939C9313979CC30E94B76C85E489
:1041A0000E944D4980E38F0D0E944D49F801EE0FAA
:1041B000FF1FE35DFE4F6081718187EF95E00E94F4
:1041C000756A85E20E944D498AE00E944D4981C38B
:1041D00080E50E944A67882309F47BC360E070E0B1
:1041E00080E50E94B367F82E6FEF7FEF83E50E94B2
:1041F000B3678C010196039708F06BC3F7FC69C3A2
:104200008F2D0E94E7CD882339F00E94B36C8FEF89
:1042100095E00E94A8695DC30E94E78F60E08F2D42
:104220000E940ECE0F3FBFEF1B0731F0013011058A
:1042300071F000E010E00DC08F2D0E94068A31E081
:1042400020E0892B09F030E0032F122F02C001E09B
:1042500010E08F2D0E94068A8017910709F439C358
:104260000E94794AF6CF64E071E083E50E94A0677E
:104270008C0168EE73E080E50E94A0678938E3E175
:104280009E0710F088E893E1B8010E94D27F21C315
:1042900085E40E94AD88811173C080E50E944A6761
:1042A000882351F00E9417676093850E7093860EE5
:1042B0008093870E9093880E89E40E944A67882332
:1042C00081F00E9417672CEA35EC47E25EE30E941A
:1042D00026DB6093890E70938A0E80938B0E9093E9
:1042E0008C0E84E40E944A67882381F00E9417673D
:1042F0002CEA35EC47E25EE30E945AE260938D0EB1
:1043000070938E0E80938F0E9093900E0E94B76CD8
:104310004091850E5091860E6091870E7091880EA7
:1043200086E196E00E94646A2CEA35EC47E25EE39F
:104330006091890E70918A0E80918B0E90918C0EF7
:104340000E945AE2AB01BC0182E196E00E94646ADD
:104350002CEA35EC47E25EE360918D0E70918E0E93
:1043600080918F0E9091900E0E9426DBAB01BC01D4
:104370008EE096E00E94646A8AE00E944D49A9C2DC
:104380000E94B36C8AE196E00E94A869A2C283E50C
:104390000E944A67182F882371F00E9417670E94B5
:1043A000CCE2709316016093150121E0672B09F0B0
:1043B00020E02093900280E50E944A67882359F00C
:1043C0002091150130911601232B11F00E940367F3
:1043D000809390027EC211117CC20E94B76C85E46A
:1043E00096E00E94A86980919002882319F08AE8DB
:1043F00099E102C08CE296E00E94A86960911501E3
:104400007091160184E396E00E94756A80E396E05D
:104410000E94A8695EC20E9470A35BC288E50E94E8
:104420004A67D82E89E40E944A67C82E882321F063
:104430000E941367A82E28C0DD2011F10E94176783
:1044400020919F0C3091A00C4091A10C5091A20C96
:104450000E94D6E120E030E040E251E40E94D6E143
:1044600020E030E047ED51E40E94D7E128EC38E647
:1044700048E95CE30E9426DB0E94CCE2653018F03C
:10448000AA24AA9401C0A62E89E50E944A67F82EA4
:104490008AE40E944A67182F882321F00E9413673C
:1044A000B82E28C0FF2011F10E9417672091A30C9D
:1044B0003091A40C4091A50C5091A60C0E94D6E11D
:1044C00020E030E040E251E40E94D6E120E030E01C
:1044D00047ED51E40E94D7E128EC38E648E95CE377
:1044E0000E9426DB0E94CCE2653018F0BB24BA940F
:1044F00001C0B62E8AE50E944A67E82E811105C0E8
:1045000081E50E944A67082F01C000E0C11001C088
:1045100010E0812F90E0D11001C0F12C8F0D911D82
:10452000019721F4E11009C0011107C00E94B36C8A
:1045300088E596E00E94A869CCC1A7FC02C0B7FE3E
:1045400007C00E94B36C85EB92E00E94A869C1C1CC
:104550000E941767EA2CAA0CFF08AB2DBB0CBB0B03
:10456000002399F025E02E9DF0012F9DF00D1124E0
:10457000EA0FFB1FEE0FFF1FEE0FFF1FED5DF24F67
:10458000208131814281538103C020E030E0A901C4
:10459000E5E0EE9D8001EF9D100D11240A0F1B1F19
:1045A000000F111F000F111F0D5D124F0E94D7E168
:1045B000D8016D937D938D939C9313978AC10E942C
:1045C0005688811186C109E01FE1ECEAFCE0FBA3FB
:1045D000EAA39E012F5F3F4F19019CE3C92E9FE183
:1045E000D92E7901F8016591759185919491AAA1CF
:1045F000BBA18D909D90AD90BD90BBA3AAA3A5013A
:1046000094010E94D6E12B013C01F7016083718384
:104610008283938320E030E040EA51EC0E945AE329
:1046200087FD0AC020E030E040EA51E4C301B20156
:104630000E94C0DA18162CF4F601849118160CF4B6
:10464000C8C6D7018D909D90AD90BD907D0120E0B2
:1046500030E040EA51ECC501B4010E945AE387FD05
:10466000F9C620E030E040EA51E4C501B4010E94FF
:10467000C0DA18160CF0B8C6EDC684E50E944A6789
:104680008823A1F01092D1091092D2091092D30977
:104690001092D4091092D5098FEF0E94036861E04F
:1046A00070E084E50E94B3678093D50983E50E949A
:1046B0004A67882321F00E9413670E94036883E4FD
:1046C0000E944A67882331F080911701803210F4EC
:1046D0000E94D76780E50E944A67882331F00E94D4
:1046E0001367803210F40E94D76785E50E944A67FD
:1046F000882309F4EEC00E941367803208F0E9C0F5
:1047000041E050E0082E02C0440F551F0A94E2F722
:1047100040955095052E000C660B770B0091D10942
:104720001091D2092091D3093091D409402351230B
:10473000622373234093D1095093D2096093D30924
:104740007093D409909117018913C3C01092F70890
:10475000C0C00E9438C7BDC00E942AC6BAC061E06E
:1047600083E50E94C26781270E9446C7B2C081E0EC
:10477000809353100E9462BB10925310882309F457
:10478000A8C00E94B76C84EB96E00E94A869A1C003
:10479000A0909102B0909202C0909302D0909402A7
:1047A0008BE40E949367882339F10E9417677B018D
:1047B0008C0120E030E0A9010E945AE387FD0AC085
:1047C00020E030E040E251E4B701C8010E94C0DAC5
:1047D0001816A4F48FE30E944D498BE40E944D49C2
:1047E00087EC96E00E94A8698FEB96E00E94A8698A
:1047F0008EE098E10E94A869750186019701A801E1
:10480000B501C6010E94C0DA882361F00E94E78FDB
:10481000C701D8018093910290939202A0939302D2
:10482000B09394028091A20D9091A30DA091A40D3C
:10483000B091A50D892B8A2B8B2B09F04AC00E94C1
:10484000B76C4091910250919202609193027091E5
:1048500094028BED96E00E94646A8AE00E944D49C2
:1048600038C081E08093E8091092520C60E083E543
:104870000E94C26781112DC00E9458A92AC00E94BF
:10488000488827C00091A80D1091A90D0E941B5DBA
:104890006093330E7093340E8093350E9093360EE2
:1048A0000023B9F00E94B76C84E50E944D49B8011D
:1048B0007727072E000C880B990B0E94C14980E2D4
:1048C0000E944D498AE196E00E94A86902C00E94B8
:1048D0004888FCADF1110FC0E091B70BF0E0EA5D44
:1048E000F04F8081882339F084E49FE10E94A86919
:1048F0008AE00E944D4929A920930402EC960FB644
:10490000F894DEBF0FBECDBFDF91CF911F910F9105
:10491000FF90EF90DF90CF90BF90AF909F908F90DF
:104920007F906F905F904F903F902F9008950E94DE
:10493000E78F3091AB0C3EA780E00E9453680E9445
:104940001B5D6093330E7093340E8093350E9093FD
:10495000360E8091590190915A01A0915B01B0915E
:104960005C018093070290930802A0930902B09320
:104970000A0280915701909158019093060280930A
:10498000050284E690E0909358018093570181E0FE
:104990008093E5090E946AA38AE50E944A67F82E7F
:1049A0008823A1F081E00E941B9E082F82E00E94D4
:1049B0001B9E11E0811101C010E0011119C088E5B2
:1049C0000E944A67082F8111C4C102C010E0F7CFCE
:1049D0001111C4C189E50E944A67182F8013BEC116
:1049E000102FF112BAC111E001E041E04AA707C05F
:1049F000882309F443C511E001E051E05AA780E1A2
:104A0000ECEAFCE0A3E0BDE001900D928A95E1F7AD
:104A100082E50E949367882361F00E9417676B010B
:104A20007C0120E030E0A9010E94C0DA8823D1F1A6
:104A300006C0C12CD12C40EAE42E40E4F42E809133
:104A4000E70982FD09C06091B40C7091B50C8091AA
:104A5000B60C9091B70C03C060E070E0CB01A701E9
:104A600096010E94D7E160930B0D70930C0D80931B
:104A70000D0D90930E0D2091B40C3091B50C40911A
:104A8000B60C5091B70C0E945AE318165CF41982C8
:104A90001A821B821C82BE016F5F7F4F8BE09DE0FC
:104AA0000E94A4A2002309F4D3C0112309F4CDC0AD
:104AB0001092AC0C1092AD0C1092AE0C1092AF0C88
:104AC0001092B00C1092B10C1092B20C1092B30C68
:104AD0000E94C3A2ECE3FFE184918FA7E0E3FFE132
:104AE000C590D590E590F490E4E3FFE18590959032
:104AF000A590B490A7019601C501B4010E94C0DA47
:104B000087FF05C0A7019601C501B40104C0A50136
:104B10009401C701B6010E945AE22B013C01E9E170
:104B2000FFE125913591459154912AA33BA34CA3D4
:104B30005DA3E5E1FFE185919591A591B4918EA3E7
:104B40009FA3A8A7B9A79C01AD016AA17BA18CA1D5
:104B50009DA10E945AE3181634F42EA03FA008A588
:104B600099A59AA305C02AA03BA00CA1ADA1AAA318
:104B7000A3019201C301B2010E9426DB20E030E0D4
:104B800040E85FE30E94D7E10E9498E39101402F43
:104B90005AA10E9426DB6A8F7B8F8C8F9D8FEDE35D
:104BA000FFE1049120E030E040EC5FE3C501B40197
:104BB0000E9426DB4B015C01602F000F770B880BF6
:104BC000990B0E94C7DA9B01AC01C501B4010E9498
:104BD00026DB69837A838B839C8320E030E040EC82
:104BE0005FE3C701B6010E9426DB6B017C01BFA514
:104BF0006B2FBB0F770B880B990B0E94C7DA9B01B9
:104C0000AC01C701B6010E9426DB6E8B7F8B888FBB
:104C1000998FAE01465E5F4FBE016F5F7F4FCE0141
:104C200046960E9482A20E94F4C51092AC0C10928B
:104C3000AD0C1092AE0C1092AF0C1092B00C109202
:104C4000B10C1092B20C1092B30C80E00E943ED4D2
:104C5000112319F081E00E943ED4EAA5EE2309F465
:104C600051C08091E7098370833061F060E087EA8A
:104C700092E00E9409800E94B76C88E992E00E944D
:104C8000A86940C00E94C3A24091B40C5091B50CD9
:104C90006091B60C7091B70C80E090E0AAEEB2E49F
:104CA0008093030D9093040DA093050DB093060D12
:104CB0008093070D9093080DA093090DB0930A0DF2
:104CC00040930B0D50930C0D60930D0D70930E0DD2
:104CD0001E8A1F8A188E198E88E0E3E0FDE0DE014F
:104CE000119601900D928A95E1F7AE014A5E5F4FF1
:104CF000BE016B5F7F4FCE0101960E9482A282E0CF
:104D00000E943ED40E94C3A28091E4098093E509E9
:104D10008EA50E9453688091070290910802A0918D
:104D20000902B0910A028093590190935A01A0930D
:104D30005B01B0935C018091050290910602909313
:104D400058018093570183E080932C010E94C5A2F3
:104D5000C0CD112309F43ECE44CE012FFAA64FCE8A
:104D60000E94794A0C94901A1092C50B1093040279
:104D70000E94E587AECD88E50E944A6781115E9862
:104D800089E50E944A6781115E988AE50E944A6718
:104D9000882309F49ECD15989CCD8DE40E949367DD
:104DA0008823A9F00E94EF66813039F020F082302C
:104DB00049F462E003C060E001C061E0802F0E941E
:104DC0000ECE05C08BE093E00E94A86982CD83E5FA
:104DD0000E949367882309F47CCD0E94EF66D82E49
:104DE000B4E0FB1203C080937F0273CD61E0802F9B
:104DF0000E940ECE6D2D802F0E9454D3ED2CF12CED
:104E000061E0802F0E940ECEE114F10429F460E0ED
:104E1000802F0E9454D35DCDEFEFEE16F10429F4FC
:104E200061E0802F0E9454D354CDF801FF27E85B46
:104E3000F44EE4918E2F90E0FC013197EA30F105B9
:104E400008F046C0EA5BFF4F0C94B3E184B580687C
:104E500084BDD7BC3ECD84B5806284BDD8BC39CD7D
:104E600080918000806880938000F0928900E092B9
:104E700088002FCD80918000806280938000F09226
:104E80008B00E0928A0025CD8091B00080688093ED
:104E9000B000D092B3001DCD8091B00080628093AD
:104EA000B000D092B40015CD8091900080688093BE
:104EB0009000F0929900E09298000BCD80919000C4
:104EC000806280939000F0929B00E0929A0001CD66
:104ED000F0E8EF16F1042CF460E0802F0E9454D328
:104EE000F8CC61E0802F0E9454D3F3CC0E94176766
:104EF0000E94CCE2633771050CF074C17093E70C2B
:104F00006093E60C0E9469950E948D9981110E9420
:104F1000FE476091E60C7091E70C072E000C880BA1
:104F2000990B0E94C7DA2091E20C3091E30C40917A
:104F3000E40C5091E50C0E945AE318161CF48EE321
:104F400093E002C08FE293E060E00E94098081E07C
:104F5000809361011EA21FA218A619A61BAA1CAA53
:104F60001DAA1EAA1AA218AE4CE349AF5CE15AAFC3
:104F700086E48BAFC12CD12CF0E8EF2EAFEBFA2EEC
:104F800091E09FAB812C912C54016091E60C7091C3
:104F9000E70C072E000C880B990B0E94C7DA162F1E
:104FA000072F782E692E9601A7010E94C0DA882368
:104FB00011F12091E20C3091E30C4091E40C5091FE
:104FC000E50CAAA9612F702F872D962DA11107C07E
:104FD0000E94C0DA881F8827881F8AA312C00E94F7
:104FE000C0DA87FF0DC080916101882309F471CC7C
:104FF0000E94E5876ECC1C2D0D2D7E2C6F2C01C0E0
:105000001AA20E941B5D6B017C01DC01CB012BA964
:105010003CA94DA95EA9821B930BA40BB50BB7FD50
:1050200033C0D701C60188519C4FAF4FBF4F8BABE8
:105030009CABADABBEAB80E00E94A19780E59FE149
:105040000E94A86981149104A104B104B9F0D501AA
:10505000C401805F984DAF4FBF4FBC01CD016C19AB
:105060007D098E099F0928EE33E040E050E00E9460
:1050700016E1CA01B9010E94C14903C08FE30E9431
:105080004D498AE00E944D490E94794A0E941B5D69
:105090006093330E7093340E8093350E9093360EDA
:1050A0009091E20C9AA7A091E30CAEA7B091E40C0A
:1050B000BFA7E091E50CE8AB292F3A2F4B2F5E2FCD
:1050C000612F702F872D962D0E94D6E11B012C0198
:1050D00020E030E0A9010E945AE387FF04C057FA9C
:1050E000509457F8509481149104A104B104B1F480
:1050F00020E030E040E85FE3C201B1010E94C0DA85
:1051000087FF18C0FFA946015701FF2399F020E14E
:10511000820E27E2921EA11CB11C0CC020E030E0E0
:1051200040E450E4C201B1010E945AE3181614F49D
:10513000460157013AA13323C1F18EA19FA1A8A531
:10514000B9A5892B8A2B8B2B61F0D701C6012EA123
:105150003FA148A559A5821B930BA40BB50BB7FD26
:1051600024C02AA53EA54FA558A968AD79AD8AAD42
:105170009BAD0E94D6E120E030E040E85FE30E9472
:10518000C0DA87FD30CFD701C601805A9541AF4FB5
:10519000BF4F8EA39FA3A8A7B9A79AA598AFAEA506
:1051A000A9AFBFA5BAAFE8A9EBAF80916101882391
:1051B00009F419CF81149104A104B10431F41FAA98
:1051C000C12ED02EE72CF62CE0CEF0E1CF1AF7E27C
:1051D000DF0AE108F108C818D908EA08FB08F7FC5B
:1051E000EECF01CF63E770E089CE0E94E78F88E5BC
:1051F0000E944A67882331F05E9A8091E7098E7F8A
:105200008093E70989E50E944A67882331F05E9A16
:105210008091E7098D7F8093E7098AE50E944A67BC
:10522000882309F456CB159A8091E7098B7F8093E8
:10523000E7094FCB602F83E50E94C2670C94FA1EEA
:1052400083E50E949367882391F00E94176760931B
:105250002D0970932E0980932F0990933009609344
:10526000350970933609809337099093380980E5A2
:105270000E949367882351F00E94176760932D095D
:1052800070932E0980932F099093300982E50E9434
:105290009367882351F00E941767609331097093D8
:1052A0003209809333099093340984E50E9493670F
:1052B000882309F40ECB0E94176760933509709319
:1052C0003609809337099093380903CB82E40E9412
:1052D0004A67882351F00E94CF6660930909709352
:1052E0000A0980930B0990930C0983E50E944A6791
:1052F000882351F00E9417676093390970933A0927
:1053000080933B0990933C0984E50E944A67882377
:1053100051F00E94176760933D0970933E09809396
:105320003F09909340098AE40E944A67882309F460
:10533000D0CA0E9417676B017C012AE037ED43E277
:105340005CE30E945AE387FD3DC02AE939E949E957
:105350005EE3C701B6010E94C0DA18169CF1C09244
:105360005F02D0926002E0926102F092620260916C
:10537000F9087091FA088091FB089091FC080E944E
:10538000C5DA4B015C0123EF34E045E35FE3C7017D
:10539000B6010E9426DB2AE136EF45E95EE30E9472
:1053A0005AE29B01AC01C501B4010E9426DB0E94B8
:1053B00098E36093770270937802809379029093D8
:1053C0007A0287CA0E94B36C84EB95E00E94A869B8
:1053D00080CAB7FAB094B7F8B094D7018D929D9275
:1053E000AD92BC9213972DC90C5F1F4FBFEFCB1A24
:1053F000DB0AE5E1FFE1E017F10709F0F3C889EE08
:10540000E82E89E0F82E10E0F10181919191A191AF
:10541000B1911F01F70181939193A193B1937F0102
:10542000812F0E94FB9D1F5F133071F70E94C5A260
:1054300060E088E796E00E94098063E972E084E614
:1054400090E00E94D27F6AEB72E084E690E00E94D6
:10545000D27F3FCA0E94B36C86E996E00E94A86999
:1054600061E088E896E00E9409800E94DCB468E26E
:1054700070E088EC90E00E94D27F2BCA01E0AACABB
:10548000C0905901D0905A01E0905B01F0905C010E
:105490000C9459182F923F924F925F926F927F9285
:1054A0008F929F92AF92BF92CF92DF92EF92FF9234
:1054B0000F931F93CF93DF93CDB7DEB764970FB6EB
:1054C000F894DEBF0FBECDBF8FEF9FEF90938900A2
:1054D000809388000AE00983212C312C78948091F4
:1054E0005B0290915C02A0915D02B0915E02892BFB
:1054F0008A2B8B2B71F080910D0190910E01A09160
:105500000F01B0911001892B8A2B8B2B09F075C2EA
:10551000D2C1809166108823D1F0109266108091DC
:10552000641090916510892B31F3109265101092E0
:105530006410109213029091940E8091950E98171A
:10554000D1F28091950E8F5F8F708093950E809130
:10555000641090916510892B71F24091570250911F
:1055600058026091590270915A02809153029091B1
:105570005402A0915502B09156020091490210E0E8
:1055800020E030E0841B950BA60BB70B081719071A
:105590002A073B0710F4D901C801E82F840F951F93
:1055A000A61FB71F8093570290935802A0935902E9
:1055B000B0935A021C8A1B8AF1E000911E021091DE
:1055C0001F02209120023091210280912E029091A1
:1055D0002F02A0913002B0913102080F191F2A1F2B
:1055E0003B1F00932E0210932F0220933002309322
:1055F000310237FD31C080910B02082E000C990B4F
:10560000AA0BBB0B409173105091741060917510F0
:1056100070917610840F951FA61FB71F809373108B
:1056200090937410A0937510B093761080911A0225
:1056300090911B02A0911C02B0911D02B901A8011A
:10564000481B590B6A0B7B0B40932E0250932F0281
:1056500060933002709331024091220250912302F4
:105660006091240270912502809132029091330260
:10567000A0913402B0913502480F591F6A1F7B1F59
:105680004093320250933302609334027093350298
:1056900077FD31C080910C02082E000C990BAA0BEB
:1056A000BB0BC0907710D0907810E0907910F090FC
:1056B0007A108C0D9D1DAE1DBF1D809377109093A9
:1056C0007810A0937910B0937A1080911A0290917B
:1056D0001B02A0911C02B0911D024A015B01881AB5
:1056E000990AAA0ABB0A8092320290923302A092CF
:1056F0003402B0923502C0902602D0902702E0908A
:105700002802F09029028091360290913702A091F0
:105710003802B09139028C0D9D1DAE1DBF1D8093C6
:10572000360290933702A0933802B0933902B7FD46
:1057300031C0C0900D020C2C000CDD08EE08FF08F3
:1057400080907B1090907C10A0907D10B0907E1087
:10575000C80CD91CEA1CFB1CC0927B10D0927C1098
:10576000E0927D10F0927E10C0901A02D0901B0241
:10577000E0901C02F0901D024C015D018C189D0808
:10578000AE08BF088092360290923702A09238028B
:10579000B092390280903A0290903B02A0903C0275
:1057A000B0903D02C0902A02D0902B02E0902C02D3
:1057B000F0902D02C80CD91CEA1CFB1CC0923A02C6
:1057C000D0923B02E0923C02F0923D02F7FC3AC0DC
:1057D00080900E02082C000C9908AA08BB08409083
:1057E0007F10509080106090811070908210840C17
:1057F000951CA61CB71C80927F1090928010A092DE
:105800008110B092821080901A0290901B02A0909A
:105810001C02B0901D02C818D908EA08FB08C09203
:105820003A02D0923B02E0923C02F0923D02E090BC
:10583000E609F0904702E3FE02C0FA9401C0F39437
:10584000F0924702F1110CC0E0908400F0908500C6
:10585000AB88BC88EA18FB08F2E0EF16F104A0F36D
:1058600037FF5F9A77FF469AB7FF2B9A80908400A4
:10587000909085009C8A8B8AE0908400F09085004F
:10588000AB88BC88EA18FB08F2E0EF16F104A0F33D
:1058900037FF5F9877FF4698B7FF2B98EE2331F0DC
:1058A00080908400909085009C8A8B8AE150F0E083
:1058B00009F083CE20CE80914802882309F454C099
:1058C0008090570290905802A0905902B0905A02CE
:1058D000C0904302D0904402E0904502F09046020E
:1058E00040914702C814D904EA04FB0480F4809173
:1058F0001402909115022091180230911902281774
:10590000390728F4415040934702019714C08C1482
:105910009D04AE04BF04E0F480911402909115023E
:1059200020911602309117028217930788F44F5F77
:105930004093470201969093150280931402409180
:10594000090150910A0160910B0170910C010FC087
:10595000AA24AA94BA2C6501A0920901B0920A0166
:10596000C0920B01D0920C014FEF5FEFBA01809112
:10597000470287FD05C0289A80E090E021E01FC023
:105980002898FACF222301F1299A809184009091DE
:1059900085002091470227FF21C02F5F20934702F7
:1059A0002091840030918500281B390B223031056D
:1059B000B8F3299820914702211112C020E03091BC
:1059C00047023111DFCF11C0209184003091850052
:1059D000281B390B22303105B8F3D6CF2150DECF4A
:1059E0008091840090918500E9CF40930D01509300
:1059F0000E0160930F017093100180915B029091F2
:105A00005C02A0915D02B0915E02892B8A2B8B2BE8
:105A100011F00C949933A0916410B0916510109717
:105A200011F40C94B8358090570290905802A090D1
:105A30005902B0905A024091530250915402609121
:105A400055027091560284169506A606B706D8F040
:105A50001092651010926410109213029091940E9F
:105A60008091950E981711F40C94B8358091950E8D
:105A70008F5F8F708093950E00EDC02E07E0D02EC3
:105A8000E12CF12C2CC440914F02509150026091B6
:105A9000510270915202481559056A057B0508F4B8
:105AA000A7C140914B0250914C0260914D02709100
:105AB0004E02D5960D911D912D913C91D89740178E
:105AC00051076207730708F074C14115510561055C
:105AD000710549F480900F0290901002A09011027D
