:100000000C947A160C94A4160C94A4160C94A416B2
:100010000C946DCF0C946DCF0C946DCF0C946DCF70
:100020000C94A4160C94A4160C94A4160C94A41668
:100030000C94A4160C94B6AB0C94A4160C94A416B1
:100040000C94A4160C94A7950C94137B0C94A416F2
:100050000C94083F0C94FE3E0C94A4160C94A41629
:100060000C94A4160C94A4160C94A4160C94A41628
:100070000C94A4160C94A4160C94A4160C94A41618
:100080000C949E390C94A4160C94A4163A3F4A3F43
:100090005B3F663F6E3F853F723F853F763F7A3FCD
:1000A000853F803F66A66BA670A67AA6A8A6A8A6DE
:1000B00084A68CA694A69EA670B173B166B16AB1EF
:1000C0008AB18AB177B17BB181B185B1C2D480D315
:1000D000B3D3FED4B3D3B3D3B3D3B3D3B3D3B3D3A4
:1000E000B3D3B3D3B3D3B3D3B3D3B3D3B3D3B3D3E0
:1000F000B3D3B3D3B3D3B3D3B3D3B3D3B3D3B3D3D0
:10010000B3D3B3D3B3D3B3D3F8D4B3D3B3D3B3D379
:10011000B3D3B3D3B3D3B3D3B3D3D1D4B3D3B3D390
:10012000B3D3B3D3B3D3B3D3B3D3B3D3B3D3B3D39F
:1001300015D5B0D305A84CCDB2D44EB93836A902E6
:100140000C50B9918688083CA6AAAA2ABE000000D5
:10015000803F4E414E494E495459494E46CDCCCC34
:100160003D0AD7233C17B7D13877CC2B329595E68B
:10017000241FB14F0A000020410000C84200401C6B
:100180004620BCBE4CCA1B0E5AAEC59D7400407AB8
:1001900010F35A00A0724E18090010A5D4E8000010
:1001A000E87648170000E40B54020000CA9A3B00AE
:1001B0000000E1F505000080969800000040420F25
:1001C000000000A08601000000102700000000E8E9
:1001D00003000000006400000000000A00000000AE
:1001E000000100000000002C76D888DC674F08234F
:1001F000DFC1DFAE59E1B1B796E5E3E453C63AE6B5
:1002000051997696E8E6C28426EB898C9B62ED4094
:100210007C6FFCEFBC9C9F40F2BAA56FA5F49005E3
:100220005A2AF75C936B6CF9676DC11BFCE0E40D17
:1002300047FEF520E6B500D0ED902E03009435770B
:10024000050080841E080000204E0A000000C80C33
:10025000333333330F986E12831141EF8D2114899C
:100260003BE65516CFFEE6DB18D1844B381BF77CF6
:100270001D901DA4BBE424203284725E228100C93B
:10028000F124ECA1E53D2720573A00434F4D4D5551
:100290004E49434154494F4E0044525952554E0025
:1002A0004552524F525300494E464F004543484F26
:1002B000006F6B002028302D313029002076616CD2
:1002C0007565206F7574206F662072616E676500BA
:1002D000416476616E6365204B3D003F5A206F7527
:1002E00074206F662072616E67652028003F592078
:1002F0006F7574206F662072616E676520282D000F
:1003000020746F20003F58206F7574206F66207234
:10031000616E676520282D0050726F6265204F6600
:1003200066736574205800454550524F4D204F4B21
:100330000A004F666673657473204170706C69655E
:1003400064004572723A20546F6F2066617221001A
:10035000546F6F206661722066726F6D20726566E1
:100360006572656E636520706F696E740A004D3446
:10037000323120696E636F727265637420706172CE
:10038000616D657465722075736167650A006469E3
:10039000730043290A0061626C656420286D696EF0
:1003A0002074656D702000436F6C642065787472F2
:1003B00075646573206172652000496E76616C69B1
:1003C000642065787472756465720A0020643A006E
:1003D00020693A0020703A0050726F6265204F66C3
:1003E00066736574205A0020536572766F20005042
:1003F000726F7465637465642050696E0A002046EC
:100400006C6F773A200046523A0020204D61783ACE
:10041000200020204D696E3A2000536F66742065DD
:100420006E6473746F70733A20003F4A206F757466
:10043000206F662072616E67652028302E30312073
:10044000746F20302E33290A0020540020520041BE
:100450006363656C65726174696F6E3A2050004D1C
:1004600031343520533C696E6465783E206F757475
:10047000206F662072616E67652028302D31290A51
:10048000002F2F20004348414D4245525F54454DB7
:1004900050455241545552450042414259535445EA
:1004A0005050494E47004D4F54494F4E5F4D4F44B9
:1004B000455300544845524D414C5F50524F5445AE
:1004C0004354494F4E004C4F4E475F46494C454EB2
:1004D000414D45004155544F5245504F52545F5382
:1004E000445F5354415455530053444341524400D4
:1004F00050524F4D50545F535550504F5254004539
:100500004D455247454E43595F5041525345520065
:10051000434153455F4C494748545F42524947481D
:10052000544E45535300544F47474C455F4C494741
:1005300048545300534F4654574152455F504F570C
:100540004552004255494C445F50455243454E5434
:10055000004C4556454C494E475F44415441005A72
:100560005F50524F4245004155544F4C4556454C03
:10057000005052494E545F4A4F420050524F47522A
:10058000455353004155544F5245504F52545F54B8
:10059000454D5000564F4C554D455452494300422D
:1005A000494E4152595F46494C455F5452414E5362
:1005B0004645520053455249414C5F584F4E5F5893
:1005C0004F4646004649524D574152455F4E414DB8
:1005D000453A4D61726C696E206275676669782D67
:1005E000322E302E7820284A756C20323520323059
:1005F00032302032313A32303A32362920534F5598
:100600005243455F434F44455F55524C3A687474BA
:1006100070733A2F2F6769746875622E636F6D2F40
:100620004D61726C696E4669726D776172652F4DAE
:1006300061726C696E2050524F544F434F4C5F565D
:10064000455253494F4E3A312E30204D414348498F
:100650004E455F545950453A4C756379204558547E
:1006600052554445525F434F554E543A31205555EB
:1006700049443A63656465326132662D34316132D2
:100680002D343734382D396231322D6335356336A8
:10069000326633363766660A004C756379204F46FA
:1006A000462E0042656420436F6F6C696E672E2E84
:1006B0002E004265642048656174696E672E2E2E97
:1006C000004D3131332053006F666600444542557A
:1006D000473A002569792025696420256968202525
:1006E000696D20256973005072696E742074696D9C
:1006F000653A20004E6F204D6F76652E00436C6981
:10070000636B20746F20526573756D652E2E2E00FD
:100710004D65736820706F696E74206F7574206FFB
:10072000662072616E67650A005A2050726F6265BA
:100730002050617374204265640A005A2050726F21
:10074000626520506173742042656400486F6D6576
:100750002058592066697273740A00486F6D6520CD
:10076000585920466972737400536C6565702E2E5B
:100770002E00000000000000000000000000AC029D
:10078000A702A00299028B020000484200004842E2
:100790000000A04100006B4300006B4300007A435F
:1007A000FFFFFF24F4D43050C38E20C2A240178232
:1007B0008B7011127A910D816CD90AA861E108C77A
:1007C000586607615143061E4B5D05C145A7041AD3
:1007D000411104093D9803713931034036DB02654C
:1007E000339102D4305402802E1D02632CEE017529
:1007F0002AC501B028A001102781018F2564012B93
:10080000244B01E0223401AC211F018D200D018019
:100810001FFC00841EED00971DDF00B81CD200E60F
:100820001BC600201BBC00641AB200B219A8000A43
:1008300019A0006A189900D117910040178B00B5D4
:1008400016840031167E00B31579003A157300C77F
:10085000146F0058146A00EE1366008813630025B5
:10086000135E00C7125B006C12570015125400C1D2
:1008700011510070114F0021114B00D61049008D0D
:100880001047004610440002104200C00F40008094
:100890000F3E00420F3C00060F3B00CB0E3800938A
:1008A0000E37005C0E3500270E3400F30D3200C108
:1008B0000D3100900D3000600D2E00320D2D000521
:1008C0000D2C00D90C2B00AE0C2900850C29005CE6
:1008D0000C2700350C27000E0C2600E80B2400C462
:1008E0000B2400A00B23007D0B23005A0B210039A1
:1008F0000B2100180B2000F80A1F00D90A1E00BBAC
:100900000A1E009D0A1D00800A1D00630A1C004784
:100910000A1B002C0A1B00110A1A00F7091A00DD35
:10092000091900C4091900AB091900920917007BC5
:10093000091800630917004C091600360916002033
:100940000916000A091500F5081500E0081400CC86
:10095000081400B8081400A4081400900813007DBF
:100960000812006B081300580812004608120034E1
:10097000081100230811001208110001081100F0ED
:10098000071000E0071000D0071000C0071000B0EB
:10099000070F00A107100091070E0083070F0074D6
:1009A000070F0065070E0057070E0049070E003BB2
:1009B000070D002E070E0020070D0013070D00067F
:1009C000070D00F9060C00ED060D00E0060C00D442
:1009D000060C00C8060C00BC060C00B0060C00A4F7
:1009E000060B0099060C008D060B0082060B0077A3
:1009F000060B006C060B0061060A0057060B004C44
:100A0000060A0042060A0038060A002E060A0024DA
:100A1000060A001A060A001006090007060A00FD69
:100A2000050900F4050900EB050900E2050900D9F4
:100A3000050900D0050900C7050900BE050900B574
:100A4000050800AD050800A50509009C05080094EF
:100A50000508008C050800840508007C0508007462
:100A60000508006C050700650508005D05070056D0
:100A70000508004E05070047050700400508003837
:100A8000050700310507002A050700230507001C9C
:100A9000050600160507000F0507000805060002F9
:100AA000050700FB040600F5040700EE040600E855
:100AB000040600E2040700DB040600D5040600CFAC
:100AC000040600C9040600C3040600BD040600B7FE
:100AD000040600B1040500AC040600A6040600A04C
:100AE0000405009B04060095040500900406008A96
:100AF00004050085040500800406007A04050075DD
:100B0000040500700405006B04050066040500611F
:100B10000405005C04050057040500520405004D5F
:100B200004050048040500430405003E0404003A9F
:100B300004050035040500300404002C04050027DA
:100B4000040400230405001E0404001A0404001613
:100B5000040500110404000D040400090405000448
:100B600004040000040400FC030400F8030400F47F
:100B7000030400F0030400EC030400E8030400E4B1
:100B8000030400E0030400DC030400D8030400D4E1
:100B9000030400D0030400CC030400C8030300C511
:100BA00003030024F404D9201BC40C5C0E9804C475
:100BB000095F0265077101F405F900FB04B3004801
:100BC000048700C10369005803550003034500BEB4
:100BD000023A008402310053022A0029022500044F
:100BE000022000E4011C00C8011900AF01170098A1
:100BF0000114008401130071011000610110005103
:100C0000010E0043010D0036010B002B010B0020EB
:100C1000010B00150109000C01090003010800FB8C
:100C2000000800F3000800EB000700E4000600DE07
:100C3000000600D8000600D2000600CC000500C760
:100C4000000500C2000500BD000400B9000400B5A5
:100C5000000400B1000400AD000400A9000400A5D8
:100C6000000300A20003009F0004009B0003009803
:100C70000003009500020093000300900003008D24
:100C80000002008B0003008800020086000200843E
:100C9000000300810002007F0002007D0002007B53
:100CA0000002007900020077000100760002007463
:100CB00000020072000100710002006F0002006D6E
:100CC0000001006C0002006A000100690002006778
:100CD000000100660001006500010064000200627E
:100CE00000010061000100600001005F0002005D82
:100CF0000001005C0001005B0001005A0001005986
:100D00000001005800010057000100560001005585
:100D10000001005400010053000000530001005284
:100D200000010051000100500001004F0001004E81
:100D30000000004E0001004D0001004C0001004B7E
:100D40000000004B0001004A00010049000100487A
:100D50000000004800010047000100460000004676
:100D6000000100450000004500010044000100436F
:100D70000000004300010042000000420001004169
:100D800000000041000100400001003F0000003F62
:100D90000001003E0000003E0001003D0000003D5B
:100DA0000001003C0000003C0000003C0001003B52
:100DB0000000003B0001003A0000003A0001003949
:100DC0000000003900010038000000380000003841
:100DD0000001003700000037000100360000003637
:100DE000000000360001003500000035000000352D
:100DF0000001003400000034000000340001003322
:100E00000000003300000033000100320000003217
:100E1000000000320001003100000031000000310C
:100E20000001003000000030000000300001002F01
:100E30000000002F0000002F0000002F0001002EF6
:100E40000000002E0000002E0001002D0000002DEB
:100E50000000002D0000002D0001002C0000002CDF
:100E60000000002C0000002C0001002B0000002BD3
:100E70000000002B0000002B0001002A0000002AC7
:100E80000000002A0000002A0001002900000029BB
:100E900000000029000000290000002900010028AE
:100EA00000000028000000280000002800000028A2
:100EB0000001002700000027000000270000002795
:100EC0000000002700010026000000260000002688
:100ED000000000260000002600010025000000257B
:100EE000000000250000002500000025000000256E
:100EF0000001002400000024000000240000002461
:100F00000000002400010023000000230000002353
:100F10000000002300000023000000230000002345
:100F20000001002200000022000000220000002238
:100F3000000000220000002200010021000000212A
:100F4000000000210000002100000021000000211D
:100F5000000000210001002000000020000000200F
:100F60000000002000000020000000200000002001
:100F7000000000200001001F0000001F0000001FF3
:100F80000000001F0000001F0000001F0000001FE5
:100F90000001001E0000001E0000001E0000001ED8
:100FA000000000232C0000B8220000561800003A70
:100FB0000F0000B8080000B1040000710200003EFC
:100FC0000100004572726F722077726974696E67F2
:100FD00020746F20454550524F4D210A0021212099
:100FE0004B494C4C206361757365642062792074B1
:100FF0006F6F206D75636820696E616374697665D3
:101000002074696D65202D2063757272656E742081
:10101000636F6D6D616E643A20004E6F20436865AA
:10102000636B73756D2077697468206C696E6520D9
:101030006E756D6265722C204C617374204C696E04
:10104000653A2000636865636B73756D206D697325
:101050006D617463682C204C617374204C696E65FB
:101060003A20004C696E65204E756D62657220698C
:1010700073206E6F74204C617374204C696E652010
:101080004E756D6265722B312C204C617374204C4F
:10109000696E653A20004D31313000627573793ADE
:1010A0002070617573656420666F7220696E70755B
:1010B000740A00627573793A2070617573656420F3
:1010C000666F7220757365720A00627573793A20D3
:1010D00070726F63657373696E670A000F150E1285
:1010E00016170E1303021A1401000E0DFF180C043C
:1010F0000C19000120746F6F206C6F6E672065788B
:1011000074727573696F6E2070726576656E746542
:10111000640A0020636F6C6420657874727573696B
:101120006F6E2070726576656E7465640A00DB0F01
:10113000C93F45BCDA3F8FB30240FCF027405694CC
:101140006140FE4B9B4084A5D840E0231841346A9F
:101150005641E859974164DBD5416E271742B4B731
:101160005542CE1A9742C8AED542B5885A43D406E6
:1011700084BFA65FA7BF7443E0BF10B11AC01C2C88
:1011800058C0E8F697C0B849D6C04E4E17C124D310
:1011900055C1802497C1A0B5D5C1121A17C244AE5B
:1011A00055C2781797C26CACD5C267885AC36874A9
:1011B00074703A2F2F6D61726C696E66772E6F7244
:1011C00067006275676669782D322E302E7800438D
:1011D0006F6E66696775726174696F6E004F6666DF
:1011E000004F6E004D6F74696F6E004175746F2013
:1011F000486F6D65005053550047656E65726963B1
:101200000050726F746F636F6C00312E300042615A
:10121000756400313135323030004D656C7A6920AB
:1012200028437265616C6974792900457874727518
:1012300064657273004C75637900323032302D3042
:10124000362D313900546865726D6973746F72732D
:1012500000426F61726420496E666F005072696E61
:1012600074657220496E666F0041626F757420501C
:1012700072696E7465720054756E6500496E666FB2
:101280002053637265656E00536F667420456E640B
:1012900073746F7073004D38340044697361626C0D
:1012A00065205374657070657273004732380A4D5B
:1012B000343820503130004D34382050726F626520
:1012C00020546573740047323800206D61783A20ED
:1012D00000206D696E3A2000446966663A2020203D
:1012E0000046726F6D5374703A0053746570706588
:1012F000723A00556E4C6576656C3A004C657665C1
:101300006C65643A005261773A20202020000A4C34
:101310006F676963616C3A00436F756E7420453A7C
:10132000004361703A00526573656E643A2000456F
:101330002025530023646566696E65204445464157
:10134000554C545F004B6420004B6920004B7020CB
:1013500000504944204175746F74756E652066694C
:101360006E69736865642120507574207468652007
:101370006C617374204B702C204B6920616E64206B
:101380004B6420636F6E7374616E74732066726F4A
:101390006D2062656C6F7720696E746F20436F6E8D
:1013A00066696775726174696F6E2E680A005049CC
:1013B00044204175746F74756E65206661696C6553
:1013C00064212074696D656F75740A000A20436C8E
:1013D000617373696320504944200A00204B643ACA
:1013E0002000204B693A2000204B703A2000205406
:1013F000753A2000204B753A200020643A200020E6
:10140000626961733A2000504944204175746F74D9
:10141000756E652073746172740A005049442041EE
:1014200075746F74756E65206661696C65642120E2
:1014300054656D706572617475726520746F6F208C
:10144000686967680A00504944204175746F747573
:101450006E65206661696C65642120426164206567
:1014600078747275646572206E756D6265720A00BB
:1014700053544F505045442E20005072696E74658D
:10148000722073746F707065642064756520746F6A
:10149000206572726F72732E2046697820746865B9
:1014A000206572726F7220616E6420757365204DC5
:1014B00039393920746F20726573746172742E200B
:1014C0002854656D7065726174757265206973204A
:1014D00072657365742E205365742069742061668B
:1014E0007465722072657374617274696E67290A1B
:1014F0000021212053544F502063616C6C6564209F
:1015000062656361757365206F6620424C546F7528
:101510006368206572726F72202D2072657374612A
:1015200072742077697468204D3939390A004F4642
:10153000460A004661646520486569676874200052
:10154000426564204C6576656C696E672000466173
:10155000696C656420746F20656E61626C65204201
:101560006564204C6576656C696E670A00496E7625
:10157000616C6964206D6573682E0A0050726F6239
:10158000696E6720506F696E740025532025692F9E
:1015900025690050726F62696E67206D65736820FF
:1015A000706F696E742000202844525952554E299C
:1015B00000473239204175746F20426564204C65C4
:1015C00076656C696E67003F20284C2C522C462CA7
:1015D0004229206F7574206F6620626F756E647388
:1015E0002E0A00426164205A2076616C75650A00FB
:1015F0004E6F2062696C696E656172206772696402
:101600000A001FE03FF03FF03FF01FE01FE03FF017
:101610003FF03FF00FC0078003001FE020102010B4
:10162000201010201020201020103030084004809E
:1016300003003FFFF038007030FC3020FC102078B1
:10164000102030102C00D02E31D02F7BD02F7BD00B
:101650002E31D02C00D020301020781020FC1030FB
:10166000FC303800703FFFF03FFFF03800703186EB
:10167000302387102787902F87D02F03D02030105A
:101680002078102078102030102F03D02F87D027FB
:1016900087902387103186303800703FFFF01FFF9E
:1016A000F81FFFF804104002082002082004104030
:1016B00008208010410010410008208004104000E4
:1016C00000001FFFF81FFFF820202020202020000E
:1016D00000FE0003FF8007C7C00701E00000E00034
:1016E00000F00000700400700E00701F00703F805A
:1016F000F00E00E00F01E007C7C003FF8000FE000E
:1017000000FE0003FF8007C7C00F01E00E00E03FAE
:1017100080F01F00700E0070040070000070000068
:10172000F00000E00701E007C7C003FF8000FE00F3
:101730000E000E000E000E000E000E000E000E0039
:101740007FC03F801F000E00040004000E001F0039
:101750003F807FC00E000E000E000E000E000E0037
:101760000E000E00FFFFFF7F80FFC0FFC0FFC07FA5
:10177000807F80FFC0FFC0FFC03F001E000C004DF7
:1017800033303320553120452569205325690050D9
:101790004944204175746F74756E65202A00504964
:1017A000442D44202A005049442D49202A00504904
:1017B000442D50202A002008204661637400200830
:1017C000204D6178002008204D696E004175746FCE
:1017D00074656D7000205A3A0020593A002020505C
:1017E0006C616E6E6572427566666572427974658B
:1017F000733A20002046726565204D656D6F7279E1
:101800003A2000436F6D70696C65643A204A756CCC
:1018100020323520323032300A00204C617374207F
:10182000557064617465643A20323032302D303640
:101830002D3139207C20417574686F723A202870F0
:10184000616469632C204C756379290A00627567AD
:101850006669782D322E302E780A004D61726C69DF
:101860006E0020536F6674776172652052657365F0
:10187000740A00205761746368646F67205265734F
:1018800065740A002042726F776E206F7574205263
:10189000657365740A002045787465726E616C200A
:1018A00052657365740A00506F77657255700A004F
:1018B00025532025632025632025632025630065AB
:1018C0006E6473746F7073206869743A2000546595
:1018D0006D70657261747572650050726F6265201B
:1018E0005A204F6666736574004D61696E005072D0
:1018F000656865617420504C4120456E64005072EB
:10190000656865617420504C4120426564005072E6
:1019100065686561742041425320426564005072DD
:1019200065686561742041425320456E6400436FD1
:101930006F6C646F776E00507265686561742041EA
:101940004253005072656865617420504C410046F6
:10195000616E205370656564004E6F7A7A6C650025
:10196000466C6F7700416476616E636564205365F1
:101970007474696E67730053746F72652053657475
:1019800074696E6773004C6F616420536574746989
:101990006E6773004C6576656C20436F726E65727E
:1019A0007300466164652048656967687400456432
:1019B0006974204D657368004732380A4732390030
:1019C0004C6576656C2042656400436D643A205333
:1019D000572D4D6F646500436D643A2053746F77E3
:1019E00000436D643A204465706C6F7900436D6408
:1019F0003A2053656C662D5465737400436D643AE8
:101A000020526573657400526573746F726520446B
:101A1000656661756C747300424C546F7563680041
:101A2000313235004245443A4550434F532031301E
:101A3000304B0052756E617761792057617463682D
:101A40003A204F4E004D61782054656D700032375A
:101A500035004D696E2054656D700045313A204562
:101A600050434F53203130304B005761726E696ED6
:101A7000673A20486F6D696E672042756D7020442B
:101A8000697669736F72203C20310A0002020400FB
:101A900000A0400000A04000000040000000010045
:101AA0000000010000800055555500000040003343
:101AB000333300AAAA2A004992240000002000C75C
:101AC000711C0099991900D1451700555515003B17
:101AD000B113002449120011111100000010000F71
:101AE0000F0F00E3380E0043790D00CCCC0C00C37F
:101AF000300C00E8A20B0064210B00AAAA0A0070B7
:101B00003D0A009DD80900427B090092240900DCAF
:101B1000D30800888808001042080000000800F080
:101B2000C107008787070075500700711C07003E3A
:101B3000EB0600A1BC060069900600666606007010
:101B40003E06006118060017F4050074D105005B1D
:101B5000B00500B290050062720500555505007889
:101B6000390500B81E0500050505004EEC04008788
:101B7000D40400A1BD040090A7040049920400C150
:101B80007D0400EE690400C7560400444404005C70
:101B90003204000821040041100400000004003F4A
:101BA000F00300F8E0030026D20300C3C30300CC17
:101BB000B503003AA803000A9B0300388E0300C057
:101BC0008103009F750300D0690300505E03001D70
:101BD00053030034480300913D03003333030016E0
:101BE000290300381F030097150300300C0300037E
:101BF0000303000BFA020049F10200BAE802005C9C
:101C0000E002002DD802002DD0020059C80200B019
:101C1000C0020031B90200DAB10200AAAA0200A093
:101C2000A30200BC9C0200FA9502005C8F0200DF58
:101C300088020082820200457C020027760200278B
:101C4000700200436A02007C640200D05E02003F22
:101C5000590200C8530200202D20496E76616C693C
:101C600064206578747275646572206E756D626546
:101C70007220210A00544845524D414C2052554E85
:101C80004157415900546865726D616C2052756E00
:101C900061776179004572723A204D415854454D43
:101CA00050004D415854454D502074726967676526
:101CB000726564004572723A204D494E54454D504C
:101CC000004D494E54454D502074726967676572E6
:101CD000656400202F002042403A0020403A007006
:101CE000012C0190012701B0012201C0011D01F06A
:101CF0000118011002130130020E01600209019067
:101D0000020401C002FF000003FA004003F5008056
:101D100003F000D003EB002004E6007004E100E0D3
:101D200004DC004005D700C005D2004006CD00D03D
:101D300006C8008007C3003008BE00F008B900C024
:101D400009B400B00AAF00B00BAA00D00CA5000087
:101D50000EA000500F9B00C0109600501291000082
:101D6000148C00C0158700B0178200B0197D00D018
:101D70001B7800001E730040206E0090226900F066
:101D800024640040275F0090295A00E02B55001082
:101D90002E500020304B0010324600E033410090BE
:101DA000353C001037370070383200A0392D00B0B4
:101DB0003A2800A03B2300603C1E00103D19009013
:101DC0003D1400103E0F00703E0A00C03E050000AA
:101DD0003F0000403FFBFF803FF6FFC03FF1FF4563
:101DE00072723A207574663820666F6E74206E6F5A
:101DF0007420696E697469616C697A65642E002566
:101E000068753A253032687500256875642025307C
:101E10003268753A253032687500000C0F00FE07F5
:101E2000022603BC017FFE08FE08FE050808060026
:101E30000040F0C88888987810050808060000C09F
:101E4000F88888888888F80505050600012030F89C
:101E500030200508080600002070F820202020E02F
:101E60000509090600FF2070A8A8B8888870200519
:101E70000606060001E08CEA8C8A0A0509090600BC
:101E8000FFF8A88888888888A8F8050A0A0600FE4E
:101E9000205050505088A8A8887003030306000300
:101EA00040A040FFFFFFFFFFFFFFFFFFFFFFFFFF1F
:101EB000FFFFFFFFFFFFFFFFFF0000000605FF0120
:101EC00007070602008080808080008003030306ED
:101ED0000105A0A0A005060606000050F85050F825
:101EE000500509090600FF2070A8A07028A87020DE
:101EF000050707060000C8C8102040989805070786
:101F000006000040A0A040A8906801030306020557
:101F10008080800309090601FF20404080808040C6
:101F200040200309090601FF804040202020404056
:101F30008005070706000020A8702070A82005056E
:101F4000050600012020F820200203030601FFC03F
:101F50004080050101060003F8020202060100C0EC
:101F6000C005070706000008101020404080050744
:101F700007060000708898A8C88870030707060144
:101F80000040C040404040E0050707060000708860
:101F900008102040F8050707060000F80810300870
:101FA000887005070706000010305090F8101005E3
:101FB0000707060000F880F0080888700507070684
:101FC0000000304080F0888870050707060000F8A0
:101FD0000810102020200507070600007088887070
:101FE00088887005070706000070888878081060E8
:101FF000020505060100C0C000C0C00206060601B9
:10200000FFC0C000C04080030505060101204080DC
:102010004020050303060002F800F8030505060149
:1020200001804020408005070706000070881020CE
:102030002000200507070600007088B8A8B8807047
:10204000050707060000708888F888888805070754
:10205000060000F04848704848F0050707060000F1
:1020600070888080808870050707060000F0484867
:10207000484848F0050707060000F88080F0808097
:10208000F8050707060000F88080F08080800507CB
:102090000706000070888080988870050707060092
:1020A00000888888F8888888030707060100E040D0
:1020B00040404040E00507070600003810101010AF
:1020C00090600507070600008890A0C0A0908805D2
:1020D0000707060000808080808080F805070706DB
:1020E000000088D8A8888888880507070600008827
:1020F00088C8A8988888050707060000708888881F
:10210000888870050707060000F08888F0808080C6
:1021100005070706000070888888A89068050707EB
:10212000060000F08888F0A09088050707060000E8
:1021300070888070088870050707060000F8202066
:1021400020202020050707060000888888888888C6
:10215000700507070600008888888850502005070A
:102160000706000088888888A8A850050707060089
:102170000088885020508888050707060000888856
:102180005020202020050707060000F808102040F6
:1021900080F80309090601FFE0808080808080804C
:1021A000E0050707060000804040201010080309E2
:1021B000090601FFE020202020202020E005030365
:1021C0000600052050880501010600FEF803030300
:1021D0000601058040200505050600007008788886
:1021E000780507070600008080F0888888F00505DC
:1021F000050600007080808870050707060000084B
:102200000878888888780505050600007088F080C1
:1022100070050707060000304840E04040400507D1
:10222000070600FE70888888780870050707060092
:10223000008080F088888888030707060100400036
:10224000C0404040E00409090601FE1000301010B3
:102250001010906005070706000080808890E090CD
:1022600088030707060100C04040404040E00505E4
:1022700005060000D0A8A8A8A8050505060000B01E
:10228000C88888880505050600007088888870055C
:1022900007070600FEF0888888F08080050707069B
:1022A00000FE78888888780808050505060000B0D3
:1022B000C880808005050506000078807008F0055C
:1022C00007070600002020F8202020180505050635
:1022D00000008888889868050505060000888888B9
:1022E00050200505050600008888A8A850050505AA
:1022F00006000088502050880507070600FE8888E1
:102300008850204080050505060000F8102040F8A0
:102310000309090601FF2040404080404040200161
:1023200009090602FF808080808080808080030908
:10233000090601FF804040402040404080050303E3
:1023400006000248A890FF1FFFFFFFFFFFFF60008D
:1023500000000001FF400000000000FF80000000BE
:1023600000007F83CF00000C303F87FF80000C30DF
:102370001F867980000C000F8C30C7838C30E78C6F
:1023800030CFC7CC31F38C30DCECEC33B98C30D8A7
:102390006C6C33198C30D06C0C33198C30D86C0CBD
:1023A00033198C30DC6C0E3B198C30CF7C079F19B5
:1023B0008C30C77C038F19400000000000026000D1
:1023C00000000000061FFFFFFFFFFFF83F0045452C
:1023D00050524F4D2056657273696F6E2045727270
:1023E0006F7200454550524F4D20496E646578200C
:1023F0004572726F7200454550524F4D2043524313
:10240000204572726F720049676E6F726500496E87
:10241000697469616C697A6520454550524F4D0079
:1024200053657474696E67732053746F72656400CA
:1024300053657474696E67732053746F726564209A
:1024400028003F2856296572626F7365206C657697
:10245000656C20696D706C61757369626C652028AC
:10246000302D34292E0A00446576696174696F6ED7
:102470000025533A202573005374616E64617264C1
:1024800020446576696174696F6E3A20002052615C
:102490006E67653A20004D65616E3A200046696EB0
:1024A0006973686564210A002072616E67653A206D
:1024B00000207369676D613A2000206D65616E3A96
:1024C00020003A207A3A2000206F662000476F698A
:1024D0006E6720746F3A20580043570A00206469E1
:1024E000723A0020616E676C653A005374617274D1
:1024F000207261646975733A004D343820506F69F9
:102500006E740025533A2025642F256400506F73A4
:102510006974696F6E696E67207468652070726F88
:1025200062652E2E2E0A003F4E756D626572206F19
:1025300066206C65677320696E206D6F76656D65CA
:102540006E74206E6F7420706C61757369626C6557
:102550002028302D3135292E0A003F2028582C59AB
:1025600029206F7574206F6620626F756E64732EFC
:102570000A003F53616D706C652073697A65206E47
:102580006F7420706C61757369626C652028342DDE
:102590003530292E0A004D3438205A2D50726F6282
:1025A00065205265706561746162696C6974792037
:1025B000546573740A00204D3932205800496E76F4
:1025C000616C69642050696E204D6F64650A00205B
:1025D000496E76616C6964206578747275646572A1
:1025E0002000FFFDFCFAF8F6F4F2F0EEECEAE9E781
:1025F000E5E3E1E0DEDCDAD9D7D5D4D2D0CFCDCB5C
:10260000CAC8C7C5C3C2C0BFBDBCBAB9B7B6B4B3E8
:10261000B2B0AFADACAAA9A8A6A5A4A2A1A09E9D48
:102620009C9A99989795949392908F8E8D8B8A8986
:1026300088878684838281807F7E7D7B7A797877A4
:10264000767574737271706F6E6D6C6B6A696867A2
:10265000666564636261605F5E5D5C5B5A59585891
:102660005756555453525150504F4E4D4C4B4A4A69
:102670004948474646454443424241403F3E3E3D2D
:102680003C3B3B3A393838373635353433323231E2
:1026900030302F2E2E2D2C2B2B2A29292827272688
:1026A000252524232322212120201F1E1E1D1C1C22
:1026B0001B1B1A19191818171616151514131312AF
:1026C000121111100F0F0E0E0D0D0C0C0B0A0A0932
:1026D00009080807070606050504040303020201AA
:1026E000000000002100240027002A000000220032
:1026F000250028002B0000002000230026002900D0
:102700000202020202020202040404040404040499
:102710000303030303030303010101010101010199
:1027200001020408102040800102040810204080AB
:10273000010204081020408080402010080402019B
:10274000000000010200090A00000000040308075D
:102750000000000000000000000000000000000079
:102760004D6F76652025736D6D004D6F7665203059
:102770002E316D6D004D6F766520316D6D004D6FA2
:1027800076652031306D6D004D6F7665204178693A
:102790007300486F74656E6420746F6F20636F6C94
:1027A00064004578747275646572004D6F766520BB
:1027B0005A004D6F76652059004D6F7665205800A0
:1027C0004573746570732F6D6D005A737465707303
:1027D0002F6D6D005973746570732F6D6D00587394
:1027E000746570732F6D6D00416476616E63652052
:1027F0004B0053746570732F6D6D004E65787420B7
:10280000436F726E657200446F6E65004E6578743A
:1028100000486F6D696E672058595A005A205661FA
:102820006C756500496E646578205900496E646571
:10283000782058002062797465733B2063726320AE
:10284000004E6F20454550524F4D2E0A00454550D1
:10285000524F4D206461746173697A6520657272AC
:102860006F722E0A002073746F7265642073657432
:1028700074696E6773207265747269657665642029
:102880002800202863616C63756C6174656429217C
:102890000A0020213D2000454550524F4D20435213
:1028A00043206D69736D61746368202D20287374F3
:1028B0006F7265642920002053697A653A200049C7
:1028C0006E6465783A2000204D61726C696E3D56E9
:1028D0003830290A00454550524F4D2076657273B5
:1028E000696F6E206D69736D61746368202845455A
:1028F00050524F4D3D00456E636C6F7375726500AD
:10290000506C65617365205265736574005052495F
:102910004E5445522048414C5445440025533A20DA
:102920002553004B494C4C45442E20005072696E93
:102930007465722068616C7465642E206B696C6CC0
:1029400028292063616C6C6564210A006563686FE7
:102950003A004572726F723A0042696C696E656145
:1029600072204C6576656C696E6720477269643ABF
:102970000A0048617264636F64656420446566613F
:10298000756C742053657474696E6773204C6F6145
:102990006465640A003B200020204D393030204B14
:1029A000004C696E65617220416476616E63653AC0
:1029B0000020204D3835312058005A2D50726F625A
:1029C00065204F66667365740020440020204D33F7
:1029D00030312050005049442073657474696E672B
:1029E000733A0020460020480020204D3134352025
:1029F00053004D6174657269616C2068656174751E
:102A00007020706172616D65746572733A00202088
:102A1000473239205720490020204D34323020538E
:102A2000004175746F20426564204C6576656C6961
:102A30006E673A0020204D323036205800486F6DC6
:102A400065206F66667365743A00204A0020204D49
:102A5000323035204200416476616E6365643A200D
:102A6000423C6D696E5F7365676D656E745F746916
:102A70006D655F75733E20533C6D696E5F6665657D
:102A800064726174653E20543C6D696E5F7472615E
:102A900076656C5F66656564726174653E204A3C6C
:102AA0006A756E635F6465763E0020204D32303477
:102AB000205000416363656C65726174696F6E20BC
:102AC00028756E6974732F7332293A20503C7072E6
:102AD000696E745F616363656C3E20523C7265741D
:102AE000726163745F616363656C3E20543C747211
:102AF0006176656C5F616363656C3E0020204D32DA
:102B000030312058004D6178696D756D20416363E7
:102B1000656C65726174696F6E2028756E69747377
:102B20002F7332293A0020450020204D32303320C7
:102B300058004D6178696D756D20666565647261D8
:102B40007465732028756E6974732F73293A005366
:102B5000746570732070657220756E69743A002018
:102B6000204D3134392043203B20556E6974732049
:102B7000696E2043656C736975730A0020286D6D5A
:102B800029002020473231202020203B20556E692B
:102B9000747320696E206D6D00486F6D696E6720DB
:102BA0004661696C6564006F70656E0054524947F8
:102BB0004745524544007A5F6D696E00795F6D69E3
:102BC0006E00785F6D696E005265706F7274696E29
:102BD0006720656E6473746F7020737461747573AD
:102BE0000A000000FA430000FA430000A040000081
:102BF000C8410000A0420000A0420000C8430000FD
:102C0000D342F4010000F4010000640000008813C6
:102C10000000205A3A200020593A200042656420E2
:102C2000583A20005072696E742050617573656463
:102C30000050726F62696E67204661696C65640A54
:102C40000050726F62696E67204661696C6564004E
:102C5000486F6D652025732573257320466972734F
:102C60007400220A00556E6B6E6F776E20636F6D75
:102C70006D616E643A2022004C7563792052656163
:102C800064792E005072696E74696E672E2E2E0064
:102C900020436F756E7420583A004D313036205005
:102CA00000453100626564002C2073797374656D92
:102CB0002073746F7070656421204865617465725B
:102CC0005F49443A200048656174696E6720466137
:102CD000696C65640048656174696E672066616946
:102CE0006C6564004D3131322053687574646F77C0
:102CF0006E0001E711241FBECFEFD0E4DEBFCDBFD1
:102D000012E0A0E0B1E0EEE7FDEE01E00BBF02C093
:102D100007900D92A631B107D9F720E1A6E1B2E004
:102D200001C01D92A33EB207E1F716E1CAE7D6E162
:102D300004C02197FE010E94C4F3C937D107C9F727
:102D40000E943BE20C94BDF60C940000A2E3B0E0BC
:102D5000ECEAF6E10C94DFF320910F032AA711E0CF
:102D600010930F0380910E038D3409F4D7C384357B
:102D700011F40C949B26873411F00C94B6268091A4
:102D80000C0390910D038C31910509F435C18CF43D
:102D90008430910509F4D2C01CF4029738F1BAC30B
:102DA0008531910511F40C94B8264B9709F404C1B0
:102DB000B1C38A32910509F486C244F48D3191057C
:102DC00009F42AC14E9709F43BC1A4C38B35910580
:102DD00009F4F6C18C35910509F4F7C18A359105DE
:102DE00009F098C310920B030C94B82680910A0343
:102DF000813011F00C94B8261AEFC12E12E0D12EBA
:102E000080EBE82E8EE0F82E93E9A92E9EE0B92EF5
:102E100010E088E5810F0E944665882319F10E9421
:102E20004A632B013C01812F0E94DBA5882351F0CE
:102E3000D7012D913D914D915C91C301B2010E944A
:102E400017F409C0F5012081318142815381C3010A
:102E5000B2010E9416F4D6016D937D938D939C93DD
:102E600013970AC0F70180819181A281B381F60195
:102E700080839183A283B3831F5FF4E0CF0ED11CC4
:102E800024E0E20EF11C34E0A30EB11C133009F66D
:102E900085E40E944665882301F10E944A636B0124
:102EA0007C0183E00E94DBA5882371F02091BC0E99
:102EB0003091BD0E4091BE0E5091BF0EC701B601BC
:102EC0000E9417F46B017C01C0920603D0920703A5
:102ED000E0920803F092090310C08091BC0E90911B
:102EE000BD0EA091BE0EB091BF0E809306039093CD
:102EF0000703A0930803B093090340E050E0BA0130
:102F000086E40E94205820E030E0A9010E94B6F536
:102F1000181684F40E944A6320E030E040E752E44F
:102F20000E9491F46093650170936601809367013C
:102F3000909368010E94548B0C94B82680E50E94FF
:102F40004665882329F00E94F1A66B017C0103C02D
:102F5000C12CD12C760183E50E944665882361F05F
:102F60000E944A6320E030E04AE754E40E945DEDAD
:102F70000E94FEF46B017C010E9436AF8091A50295
:102F8000811105C060E089E697E00E94B2A00E942E
:102F9000077BC60ED71EE81EF91E0E94077BDC01C8
:102FA000CB018C199D09AE09BF09B7FD02C00C9475
:102FB000B8260E94743BF1CF0E9463D681110C9415
:102FC000B8268CE0EDE7F1E0DE01119601900D925C
:102FD0008A95E1F780E50E944665882321F00E94EA
:102FE0001763CB0102C080E090E0BE016F5F7F4FAE
:102FF0000E94F49F0C94B8268091A40287708730B9
:1030000011F00C94CB2660E08FE40E94686581117A
:103010000C94B8260C94CB260E9463D681110C9494
:10302000B8268091A302882311F40C94EF2860E065
:103030008FE40E94686581110C94B8260C94EF28E7
:1030400020919F0E3091A00E4091A10E5091A20EA2
:103050006091B00E7091B10E8091B20E9091B30E4E
:103060000E9417F4AB01BC0188E50E9420586983D7
:103070007A838B839C832091A30E3091A40E409180
:10308000A50E5091A60E6091B40E7091B50E809170
:10309000B60E9091B70E0E9417F4AB01BC0189E502
:1030A0000E9420586D837E838F839887BE016B5F5B
:1030B0007F4FCE0101960E946861882311F40C9421
:1030C000B82680E00E9420CA0E94BC8E61E085E4A0
:1030D0000E94686521E0482FBE016B5F7F4FCE01E3
:1030E00001960E9401D76B017C019B01AC010E94FB
:1030F00033F681115FC089809A80AB80BC8020E06C
:1031000030E0A901C501B4010E94F8EC87FF05C0B9
:1031100027E137EB41E558EB04C027E137EB41E508
:1031200058E3C501B4010E9417F4AB01BC018CE166
:103130009CE20E94CCCD8D809E80AF80B88420E040
:1031400030E0A901C501B4010E94F8EC87FF05C079
:1031500027E137EB41E558EB04C027E137EB41E5C8
:1031600058E3C501B4010E9417F4AB01BC0187E12B
:103170009CE20E94CCCD20E030E0A901C701B6015D
:103180000E94F8EC87FF05C067E177EB81E598EBDB
:1031900004C067E177EB81E598E3A70196010E94FF
:1031A00017F4AB01BC0182E19CE20E94CCCD8AE025
:1031B0000E94633A0E94A38E0E94EA910C94B82662
:1031C0008FE080930B030C94B826E8EE2E2EE1E0FE
:1031D0003E2EF5E9EF2EF2E0FF2EA0EBBEE0BF8F12
:1031E000AE8FA3E9CA2EAEE0DA2E00E010E0F101C6
:1031F00081911F010E944665882309F44AC00E94FC
:103200004A632B013C01133049F0D6012D913D91C9
:103210004D915C910E9416F42B013C01EE8DFF8DC7
:103220002081318142815381C301B2010E9416F491
:103230004B015C012DEB37E346E855EB0E94B6F5F8
:1032400087FD0AC02DEB37E346E855E3C501B4011D
:103250000E94F8EC1816ECF4133051F44092BC0EB6
:103260005092BD0E6092BE0E7092BF0E01E011C072
:10327000A5019401D7016D917D918D919C910E9442
:1032800017F4F7016083718382839383812F0E94F7
:10329000218B1F5FF4E0EF0EF11C2E8D3F8D2C5F14
:1032A0003F4F3F8F2E8F34E0C30ED11C143009F0F6
:1032B0009ECF002321F08CEB9EE00E9446AF0E943F
:1032C000EA910C94B82680910A03813011F00C9495
:1032D000B82689E40E944665E82E882321F00E94E2
:1032E0004763082F01C000E08AE40E944665F82E7B
:1032F000882321F00E944763182F01C010E0EE20C0
:1033000011F0033020F4FF2041F0133030F080E161
:1033100097E00E9433CD0C94B82680E1E0EBFEE00C
:10332000AAEFB2E001900D928A95E1F7EE2019F133
:10333000602F000F770B880B990B0E94FEEC2091F9
:1033400085023091860240918702509188020E9446
:103350005DED20918D0230918E0240918F0250914F
:1033600090020E9417F46093FA027093FB0280931C
:10337000FC029093FD02FF2019F1612F110F770BD2
:10338000880B990B0E94FEEC2091890230918A02F1
:1033900040918B0250918C020E945DED2091910230
:1033A0003091920240919302509194020E9417F43E
:1033B0006093FE027093FF028093000390930103D9
:1033C00060E080E50E9468658823C1F1EE20D1F0BD
:1033D00020919F0E3091A00E4091A10E5091A20E0F
:1033E0006091FA027091FB028091FC029091FD02C3
:1033F0000E9416F46093FA027093FB028093FC0221
:103400009093FD02FF20D1F02091A30E3091A40EE5
:103410004091A50E5091A60E6091FE027091FF02A0
:1034200080910003909101030E9416F46093FE02C4
:103430007093FF02809300039093010340E050E0FB
:10344000BA0186E40E9420586B017C0120E030E044
:10345000A9010E94B6F518165CF420E030E040E7C0
:1034600052E4C701B6010E9491F46B017C0103C0D4
:10347000C12CD12C76018090650190906601A090BE
:103480006701B090680120E030E0A901C701B601F2
:103490000E94F8EC882341F0C0926501D092660149
:1034A000E0926701F09268010091210110912201E0
:1034B00084E690E09093220180932101C090300136
:1034C000D0903101E0903201F090330180E090E043
:1034D000A0E8BFE38093300190933101A0933201C3
:1034E000B09333010E94548B8092650190926601E3
:1034F000A0926701B092680110932201009321010C
:10350000C0923001D0923101E0923201F092330149
:103510000C94B8260E9455D60C94B82680910C03C2
:1035200090910D038937910509F4FFC50CF09BC0FC
:103530008C35910509F4A6C40CF04AC08934910574
:1035400009F487C2FCF48231910509F44BC46CF490
:1035500097FF02C00C949826823091050CF447C165
:10356000419709F4A4C10C9498268A32910509F474
:1035700068C28033910509F468C24F9711F00C942A
:103580009826B2C18135910509F406C48CF48C34B7
:10359000910509F490C28D34910509F4A1C28B34D0
:1035A000910511F00C9498260E94D4370C94B826FB
:1035B0008335910509F40FC40CF406C484359105D4
:1035C00009F410C48535910509F439C40C94982682
:1035D0008F36910509F408C3CCF48B36910509F4B4
:1035E000E6C264F48936910509F4A6C20CF0B8C2AB
:1035F0008836910509F478C20C9498268D36910589
:1036000009F496C20CF0DDC20C94B82683379105FC
:1036100009F4C2C45CF48137910509F430C314F491
:103620000C94B8260E947A5F0C94B82686379105D0
:1036300009F43EC534F48537910509F425C50C9489
:1036400098268737910509F46DC58837910511F0E3
:103650000C94982681E08093A2028093A1020E949C
:1036600057CF0C94B8268E3241E0940711F40C9495
:10367000A6240CF055C08D3C910509F431C6FCF42C
:103680008E3B910509F44CC374F48139910509F41A
:1036900053C58B39910509F458C38C38910511F045
:1036A0000C94982616C38B3C910509F4C6C50CF002
:1036B000E3C5893C910509F49AC50C9498268D3D83
:1036C000910509F427C79CF4833D910509F435C69B
:1036D0008C3D910509F4F7C68E3C910511F00C94D0
:1036E000982610E4E12E12E0F12E10E014C6883185
:1036F000A1E09A0709F4A2C734F4823E910509F4C7
:1037000053C70C9498268232E1E09E0711F40C9482
:10371000B5238D32914011F40C9426240C949826F4
:103720008C3A21E0920711F40C94772564F58239E4
:1037300041E0940711F40C94F72494F48039A1E04B
:103740009A0711F40C94EA2414F00C94ED248F32AF
:10375000914011F00C9498260E9434580C94B8268D
:10376000843AF1E09F0711F40C94FC24853A21E09F
:10377000920711F40C94FF248A39914011F00C94B3
:1037800098260C94B826873F41E0940711F40C94D6
:10379000D92594F4853FA1E09A0711F40C94D32520
:1037A00014F00C94D625843F914011F00C94982687
:1037B0000E94EBA00C94B8268335F3E09F0711F428
:1037C0000C94F2253CF4883F914011F40C94E125CF
:1037D0000C949826843843E0940711F40C94232623
:1037E000873E934011F40C948A260C94982680E529
:1037F0000E944665882329F00E94F1A66B017C0196
:1038000003C0C12CD12C760183E50E944665882334
:1038100061F00E944A6320E030E04AE754E40E94ED
:103820005DED0E94FEF46B017C010E9436AF809139
:10383000830290918402009739F02091AB0E211100
:1038400008C00E9483A005C060E08DEF96E00E9452
:10385000B2A010910F0383E080930F0381E0809367
:103860008202C114D104E104F10431F00E94077B0B
:10387000C60ED71EE81EF91E80918202882311F41D
:103880000C94F628C114D104E104F10411F40C9451
:10389000F2280E94077BDC01CB018C199D09AE093F
:1038A000BF09B7FF02C00C94F2280C94F62880914F
:1038B0007E0284FF02C00C94FD288091800287FF65
:1038C00002C00C94FD2880918102837011F00C9449
:1038D000FD2860E084EF96E00E94B2A05E985E98BA
:1038E00015985E980C94B8260E94119E6B017C017D
:1038F00020E831E541E050E00E9434F3C9016DE673
:1039000071E00E949DF34B015C01C701B60120E10B
:103910003EE040E050E00E9434F3CA01B90128E1E2
:1039200030E040E050E00E9434F32B013C011B01E9
:10393000C701B6012CE330E040E050E00E9434F3D0
:103940006B017C01CA01B9012CE330E040E050E09A
:103950000E9434F38E010F5F1F4F8114910499F080
:10396000DF92CF927F936F935F924F92BF92AF920D
:103970009F928F9283ED96E09F938F931F930F9367
:103980000E9492EC13C0A114B104B1F0DF92CF9267
:103990007F936F935F924F92BF92AF9287ED96E0C5
:1039A0009F938F931F930F930E9492EC0FB6F894FE
:1039B000DEBF0FBECDBF32C04114510479F0DF929B
:1039C000CF927F936F935F924F928BED96E09F9390
:1039D0008F931F930F930E9492ECE8CF61157105AE
:1039E00069F0DF92CF927F936F938FED96E09F9374
:1039F0008F931F930F930E9492ECD8CFDF92CF92B8
:103A000083EE96E09F938F931F930F930E9492EC07
:103A10000F900F900F900F900F900F908091AB0E22
:103A2000811103C0C8010E9483A00E94FACDB80191
:103A300087EE96E00E94EACD8AE00E94633A0C94F9
:103A4000B8260E94F9A50C94B8260E9401A70C94F0
:103A5000B82680E50E9476638823A1F00E944A631D
:103A600020E030E048EC52E40E945DED0E94FEF45C
:103A7000603137E2730710F060E177E2709379020A
:103A80006093780282E50E947663882311F40C9497
:103A9000B8260E94F1A69B01AC01ACE3B0E00E9405
:103AA00072F360937A0270937B0280937C0290930E
:103AB0007D020C94B8268091AF0E813011F00C94E9
:103AC000B82682E08093AF0E0E94077B6093740259
:103AD0007093750280937602909377020C94B826C7
:103AE0000E94609E0C94B82680917D0A83FF02C0DC
:103AF0000C94B8260E94B2A587FF02C00C94B82689
:103B000083E50E944665882379F00E944A630E94FB
:103B1000F9F4CB010E94C2930E940696811104C061
:103B20000E94609E0E9444D60E9454AE0C94B82617
:103B30000E94DB5B0C94B8260E94B2A5182F87FD6B
:103B40000AC081EB92E00E9433CD812F0E94D29374
:103B50008AE00E94633A4AA540930F030C94C42C58
:103B600060E080E50E945E6581110C94B82681E4D6
:103B70000E947663882329F060910504062F10E0E7
:103B800002C00FEF10E083E50E944665882349F0EC
:103B90000E9417638B016F3F710519F010F00FEF52
:103BA00010E0B80180E00E943CDD0C94B82660E093
:103BB00080E50E945E6560E070E00E943CDD0C9450
:103BC000B8268EE40E944665882311F40C94B8262A
:103BD0000E94176360937002709371028093720267
:103BE000909373020C94B82683E50E947663882331
:103BF00031F060E083E50E945E6580937D0A0E945B
:103C0000FACD8CEC96E00E9433CD80917D0A88231A
:103C100069F17EE7E72E77E0F72E00E010E020E084
:103C200080917D0A90E0A0E0B0E0002E04C0B6953F
:103C3000A795979587950A94D2F780FF0EC0DD244B
:103C4000D394D20E222319F08CE20E94633AF7013A
:103C5000859194910E9433CD2D2D0F5F1F4F52E01F
:103C6000E50EF11C05301105D9F604C088EC96E08C
:103C70000E9433CD8AE00E94633A0C94B82683E513
:103C80000E944665882381F00E942763282F30E038
:103C90002D33310524F4809320010C94B8268CE355
:103CA000809320010C94B8260E94FACDC090200188
:103CB000D12CE12CF12C81EC96E00E9433CD4AE02E
:103CC000C701B6010E946A3A8AE00E94633A0C94E6
:103CD000B82680917D0A83FF02C00C94B82683E544
:103CE0000E944665882311F40C94B8260E944A630A
:103CF0000E94F9F46337710514F063E770E0709384
:103D00006E0260936D020E9449920E940696811194
:103D10000C94B8260E94609E0E9444D60C94B8264B
:103D200080917D0A83FF02C00C94B82683E50E942F
:103D30004665082F81110C940F2982E50E94466583
:103D400081110C940F290C94B82683E50E944665D6
:103D5000882311F40C94B8260E942763182F90E052
:103D6000CD970CF01CE3109360020E94077B6B015F
:103D70007C01212F30E0A8EEB3E00E9482F3C60E52
:103D8000D71EE81EF91EC0925C02D0925D02E0923E
:103D90005E02F0925F02ECC70E9419960E94609E3C
:103DA0000E94B3B00E94F4A510925B0210925A02D6
:103DB00068EE73E080E090E00E94F1CC60E089E979
:103DC00096E00E94B2A0D4C780910B038F7D8061E2
:103DD00080930B03CDC780910B038F7E806280930D
:103DE0000B03C6C783E50E944665882399F00E94AD
:103DF0004A6320E030E04AE754E40E945DED0E940F
:103E0000FEF460931B0170931C0180931D0190933D
:103E10001E01AEC780917E0284FF02C00C94862AE8
:103E20008091800287FF02C00C94862A80918102D3
:103E3000837011F00C94862A0E94B3B099C783E571
:103E40000E947663882309F493C70E94077B6093DE
:103E500061027093620280936302909364020E94F5
:103E60004A6320E030E04AE754E40E945DED0E949E
:103E7000FEF4609356027093570280935802909319
:103E8000590276C70E94B2A587FD72C790917E0243
:103E900094FD04C09091800297FF0AC048EEC42EA2
:103EA00041E0D42E5EE7E52E5AE0F52E10E009C081
:103EB00090918102937091F7682F81E00E94B6A6DD
:103EC00057C7D6018D916D010E944665882309F47C
:103ED00059C0133009F04FC00E944A634B015C0186
:103EE00020E030E040EA51E40E94F8EC87FF3AC05D
:103EF000A501940160919E0A70919F0A8091A00A89
:103F00009091A10A0E9491F42B013C019B01AC010C
:103F10006091AE0A7091AF0A8091B00A9091B10A97
:103F20000E945DED6093AE0A7093AF0A8093B00A71
:103F30009093B10A6091F5037091F6038091F703B5
:103F40009091F8030E94FCECA30192010E945DEDA8
:103F50000E94FEF46093F5037093F6038093F703D9
:103F60009093F80380929E0A90929F0AA092A00AD2
:103F7000B092A10A07C00E944A63F701648B758B57
:103F8000868B978B1F5FF4E0EF0EF11C143009F065
:103F900098CF0E9412AFECC684EC95E00E9433CD1E
:103FA00060E084EB95E00E945F5F60E08FE995E060
:103FB0000E945F5F61E089E194E20E945F5F60E0E0
:103FC00084E995E00E945F5F61E084E895E00E94EB
:103FD0005F5F60E08BE795E00E945F5F61E081E7F3
:103FE00095E00E945F5F61E087E695E00E945F5F79
:103FF00061E08FE595E00E945F5F61E081E595E01B
:104000000E945F5F61E083E495E00E945F5F60E093
:1040100084E395E00E945F5F60E086E295E00E94A5
:104020005F5F60E080E195E00E945F5F61E08FEF9D
:1040300094E00E945F5F60E080EF94E00E945F5F29
:1040400060E089EE94E00E945F5F60E084ED94E0C0
:104050000E945F5F60E086EC94E00E945F5F61E039
:1040600083EB94E00E945F5F60E086EA94E00E9448
:104070005F5F61E089E994E00E945F5F60E085E84E
:1040800094E00E945F5F74C68091830290918402E5
:10409000009759F0DC012C91222339F02091AB0ECE
:1040A000211166C60E9483A063C60E9444D660C6E2
:1040B000009183021091840294E0F12C40E0915031
:1040C00021F1F8018081282F2B7F213421F42181D7
:1040D0002133D9F407C08035C1F4818180538A30FF
:1040E00048F013C0813421F0853421F441E002C04E
:1040F000FF24F39498012E5F3F4F89012F5F3F4FBC
:10410000F80180818032C9F3DACF41110E94FACDE3
:10411000FF2021F081E894E00E9433CDC8010E9485
:10412000543B26C60E940CCF23C61092A2021092C6
:10413000A1020E9457CF1CC660E070E083E50E9498
:1041400052658C011127023011053CF00E94F7CD19
:104150008FE594E00E9433CD0BC688E40E9446654B
:104160008823A9F00E9447638A3A91053CF0853084
:10417000F1E09F072CF084E091E002C08AEA90E031
:10418000F801EE0FFF1FEE5AFD4F9183808386E406
:104190000E944665882381F00E94476397FD07C00F
:1041A0008F3F910529F024F08FEF90E001C080E06F
:1041B000F801E05BFD4F808382E40E94466588231E
:1041C00009F4D6C50E9447638530910534F08437E1
:1041D00091052CF083E790E002C085E090E0000FAD
:1041E000111FF801E45BFD4F91838083C1C50E94DC
:1041F000B2A587FDBDC588EEE82E81E0F82E0EE75A
:104200001AE09EE8C92E9AE0D92ED7018D917D0142
:104210000E947663882359F00E944A630E94FEF44C
:10422000F80160837183828393830E94A1AE0C5F47
:104230001F4FC016D10649F79BC50E94B2A587FD46
:1042400097C508EEE02E01E0F02E0EE71AE0D70148
:104250008D917D010E947663882339F00E944A6324
:10426000F80164A375A386A397A30C5F1F4FFAE020
:104270000E381F0761F77CC580917F0287FF02C05F
:104280000C94AB2A809180028E7011F00C94AB2AB2
:104290004091B20A5091B30A6091B40A7091B50A84
:1042A0008FE494E00E94CCCD4091B60A5091B70AB9
:1042B0006091B80A7091B90A8CE494E00E94CCCD68
:1042C0004091BA0A5091BB0A6091BC0A7091BD0A34
:1042D00089E494E00E94CCCD8AE00E94633A48C50C
:1042E00080917E0281FF02C00C94F12A80917F02AE
:1042F00081FF02C00C94F12A809180028C7011F031
:104300000C94F12A35C51F5FB4E0EB0EF11C13309D
:1043100011F40C945F1988E5810F0E94766388235D
:1043200091F30E944A63D7016D937D938D939C9383
:104330001397812F0E94218BE6CF4090930E5090CF
:10434000940E6090950E7090960E2091030130911E
:1043500004014091050150910601C301B2010E9480
:1043600017F46E8F7F8F88A399A38090970E9090FB
:10437000980EA090990EB0909A0E2091070130915E
:1043800008014091090150910A01C501B4010E9440
:1043900017F46AA37BA38CA39DA3C0909B0ED0901F
:1043A0009C0EE0909D0EF0909E0E20910B0130919E
:1043B0000C0140910D0150910E01C701B6010E9400
:1043C00017F46EA37FA388A799A720910F013091BE
:1043D00010014091110150911201C301B2010E94DC
:1043E00017F42B013C0120911301309114014091ED
:1043F000150150911601C501B4010E9417F44B013B
:104400005C012091170130911801409119015091E0
:104410001A01C701B6010E9417F46B017C010E94CA
:10442000FACD8AE194E00E9433CD83E50E94766361
:10443000882321F00E943863809302018091020159
:10444000882319F082E49AE102C080EC95E00E9492
:1044500033CD82E194E00E9433CD4E8D5F8D68A113
:1044600079A182E09BE20E94CCCD4AA15BA16CA124
:104470007DA186EB97E20E94CCCD4EA15FA168A5FD
:1044800079A58FEA97E20E94CCCD8EEC96E10E944E
:1044900033CD8AE094E00E9433CDB301A20182E0E3
:1044A0009BE20E94CCCDB501A40186EB97E20E946D
:1044B000CCCDB701A6018FEA97E20E94CCCD8AE06D
:1044C0000E94633A55C483E50E944665882331F013
:1044D0000E944763909322018093210180917E0284
:1044E00090917F02A0918002B0918102892B8A2B4A
:1044F0008B2B09F03DC4609121017091220186E06F
:1045000094E00E94DDCD85E20E94633A8AE00E9439
:10451000633A2EC40E94B2A5F82E87FD29C483E514
:104520000E9446650F2D0F2C000C110B882309F1FA
:104530000E944763F801EE0FFF1FE050FF4F918389
:104540008083000F111F000F111F005D1E4FBC0163
:10455000990F880B990B0E94FEEC2AE037ED43E29D
:104560005CE30E945DEDF801608371838283938335
:10457000FFC30E94FACD85E40E94633A80E38F0D69
:104580000E94633A000F111FF801E050FF4F608155
:1045900071818EEF93E00E94DDCD85E20E94633A47
:1045A0008AE00E94633AE4C380E50E947663882330
:1045B00009F4DEC360E070E080E50E9452658C0182
:1045C0006FEF7FEF83E50E9452657C0101960397B0
:1045D00008F0CEC307FDCCC3802F0E941338882378
:1045E00039F00E94F7CD8FEE93E00E9433CDC0C327
:1045F0000E9436AFD02E60E0802F0E944CB4FFEFB7
:10460000EF16FF0629F021E0E216F10459F007C089
:10461000802F0E94F8B301E010E0892B29F000E020
:1046200010E002C001E010E08D2D0E94F8B3801769
:10463000910709F49DC30E94743BF6CF80E50E9468
:104640007663882309F494C30E9447638C01892B05
:1046500009F07FC083E50E947663882389F00E9479
:1046600047638F3F3FEF930729F48AE49FE00E945E
:1046700033387EC3BC018AE49FE00E94CD3878C302
:104680000E94FACD60E070E087EE93E00E94DDCDFD
:1046900080914C0F28E532E06901C81AD10887FDE6
:1046A000D394CC0CDD1CCC0CDD1C0D2C000CEE08C6
:1046B000FF0880914B0F28E830E04901881A9108E3
:1046C00087FD9394880C991C880C991C092C000C6C
:1046D000AA08BB0880914A0F8F3FC1F090E0FC010F
:1046E000EE0FFF1F8E0F9F1FFC01EB5DF04F21812E
:1046F000328143E0220F331F4A95E1F754E03695AB
:1047000027955A95E1F72E5F3F4F02C020E030E039
:104710002F5F3F4FC901330FAA0BBB0B9C01AD01AB
:10472000281939094A095B09A4EBB0E00E9472F329
:10473000A7019601281939094A095B090E9456F315
:10474000B90183EC9CE20E94DDCD8AE00E94633ACD
:104750000FC30E94F7CDB80188EE93E00E94DDCD33
:104760008AE197E00E9433CD03C38AE50E94466543
:10477000811106C083E50E944665882309F44BC079
:104780000E944A6320E030E040E050EC0E94F8ECE8
:1047900087FDB0C70E944A6320E030E040E050E46B
:1047A0000E94B6F518160CF49FC70E944A636B016D
:1047B0007C018091910E8695869580FF22C0209184
:1047C0009A0A30919B0A40919C0A50919D0AC70118
:1047D000B6010E945DED0E94F9F420913E023091F5
:1047E0003F02260F371F30933F0220933E02209155
:1047F0003C0230913D02620F731F70933D02609343
:104800003C0280E50E947663882309F479C70E9400
:104810003863811175C78091800287FD97C78091A9
:104820008102837009F092C70E94FACD4091A70ED1
:104830005091A80E6091A90E7091AA0E88ED93E098
:104840000E94CCCD8AE00E94633A92C260E085E487
:104850000E945E65811173C080E50E9476638823A3
:1048600051F00E944A636093190F70931A0F80935E
:104870001B0F90931C0F89E40E947663882381F0BC
:104880000E944A632CEA35EC47E25EE30E945DED4C
:1048900060931D0F70931E0F80931F0F9093200F36
:1048A00084E40E947663882381F00E944A632CEAA4
:1048B00035EC47E25EE30E9491F46093210F709320
:1048C000220F8093230F9093240F0E94FACD4091E2
:1048D000190F50911A0F60911B0F70911C0F84EDEE
:1048E00093E00E94CCCD2CEA35EC47E25EE3609188
:1048F0001D0F70911E0F80911F0F9091200F0E942D
:1049000091F4AB01BC0180ED93E00E94CCCD2CEA88
:1049100035EC47E25EE36091210F7091220F8091A8
:10492000230F9091240F0E945DEDAB01BC018CEC34
:1049300093E00E94CCCD8AE00E94633A19C20E94A3
:10494000F7CD8AEB93E00E9433CD12C283E50E943B
:104950007663182F882371F00E944A630E94F9F44D
:10496000709335016093340121E0672B09F020E05A
:104970002093160480E50E947663882359F02091E5
:10498000340130913501232B11F00E94386380935C
:104990001604EEC11111ECC10E94FACD87EA93E032
:1049A0000E9433CD80911604882319F085E892E1A6
:1049B00002C08EE893E00E9433CD60913401709183
:1049C000350186E993E00E94DDCD82E993E00E9403
:1049D00033CDCEC10E9436AFCBC18091920E8111F2
:1049E0000C945F1981E00E9473AC0C945F190E94D3
:1049F0005F610E94EA91BCC10E94BF63B9C16FEFC1
:104A00007FEF89E40E9452658C016FEF7FEF8AE4AB
:104A10000E9452657C018AE50E944665811108C0AA
:104A200081E50E944665B82E882309F495C601C029
:104A3000B12CA02E81E0800F843008F051C09E2C54
:104A400081E08E0D843008F04BC0102F0E944A6325
:104A50002B013C01802E07FD812C17FF02C0A2E034
:104A6000AA2E8E2DE7FCE12C87FF02C0F2E09F2EDC
:104A7000A81408F47DC1FE2C882D90E06C01CC0CAC
:104A8000DD1CC80ED91E9F1448F10F2D10E0BB206D
:104A900071F0F601E00FF11FEE0FFF1FEE0FFF1F89
:104AA000E85EFD4F208131814281538103C020E0C7
:104AB00030E0A9010C0D1D1D000F111F000F111F6B
:104AC000085E1D4FC301B2010E9417F4D8016D9317
:104AD0007D938D939C931397F394D5CF8394C8CFF4
:104AE0000E94F7CD80E197E00E9433CD41C10E9442
:104AF00063D681113DC102E717E0E0EBFEE0FF8FD6
:104B0000EE8F9E012F5F3F4F190190EAC92E97E06B
:104B1000D92E7901C8010E9477ABAE8DBF8D8D90E3
:104B20009D90AD90BD90BF8FAE8FA50194010E9466
:104B300016F42B013C01F701608371838283938318
:104B400020E030E040EA51EC0E94B6F587FD0AC053
:104B500020E030E040EA51E4C301B2010E94F8ECE9
:104B600018162CF4F601849118160CF4FCC5D70124
:104B70008D909D90AD90BD907D0120E030E040EAA9
:104B800051ECC501B4010E94B6F587FDF7C520E0E0
:104B900030E040EA51E4C501B4010E94F8EC181677
:104BA0000CF0FAC5EBC50E94ABD0E2C00E9494CFD6
:104BB000DFC061E083E50E94686581270E94B9D06B
:104BC000D7C081E0809317020E9447BB1092170262
:104BD000882309F4CDC00E94FACD87E293E00E94B9
:104BE00033CDC6C08091800287FD00C680918102CE
:104BF000837009F0FBC540919F0E5091A00E60910B
:104C0000A10E7091A20E88E193E00E94CCCD40915C
:104C1000A30E5091A40E6091A50E7091A60E86EB86
:104C200097E20E94CCCD4091A70E5091A80E6091C2
:104C3000A90E7091AA0E8FEA97E20E94CCCD8AE06D
:104C40000E94633A95C08090170490901804A09039
:104C50001904B0901A048BE40E944665882339F148
:104C60000E944A636B017C0120E030E0A9010E94B0
:104C7000B6F587FD0AC020E030E040E251E4C7010C
:104C8000B6010E94F8EC1816A4F48FE30E94633A70
:104C90008BE40E94633A8CEB92E00E9433CD84EB6C
:104CA00092E00E9433CD83E995E20E9433CD7501F5
:104CB0006401A7019601C501B4010E94F8EC8823A4
:104CC00051F00E9436AFC0921704D0921804E092BF
:104CD0001904F0921A0480917E0290917F02A091B3
:104CE0008002B0918102892B8A2B8B2B09F040C066
:104CF0000E94FACD40911704509118046091190454
:104D000070911A0480ED92E00E94CCCD8AE00E945E
:104D1000633A2EC081E080930A031092AB0E60E0EC
:104D200083E50E946865811123C00E949E5D20C0BA
:104D30000E9455D61DC000910C0310910D03002355
:104D4000B9F00E94FACD84E50E94633AB801772752
:104D5000072E000C880B990B0E94C43A80E20E9437
:104D6000633A8AEB93E00E9433CD02C00E9455D68D
:104D7000E0911602F0E0EA53F04F8081882339F089
:104D800081EB92E00E9433CD8AE00E94633A3AA51B
:104D900030930F03F9C50E9436AF3090A30280E034
:104DA0000E9420CA0E94BC8E81E08093A2020E94D1
:104DB00057CF8AE50E947663082F8823A1F081E00F
:104DC0000E94418BF82E82E00E94418B11E08111FC
:104DD00001C010E0F110D3C588E50E947663F82E7B
:104DE000811103C0EBC110E0F7CF111107C089E5B5
:104DF0000E947663182F8F1107C01F2D0113E1C188
:104E000011E0FF24F39401E080E1E0EBFEE0AAEF83
:104E1000B2E001900D928A95E1F782E50E94466525
:104E2000882361F00E944A634B015C0120E030E07E
:104E3000A9010E94F8EC8823D1F106C0812C912CA5
:104E4000B0EAAB2EB0E4BB2E8091910E82FD09C07A
:104E50006091B80E7091B90E8091BA0E9091BB0E10
:104E600003C060E070E0CB01A50194010E9417F43B
:104E700060930203709303038093040390930503EC
:104E80002091B80E3091B90E4091BA0E5091BB0EE0
:104E90000E94B6F518165CF419821A821B821C82D5
:104EA000BE016F5F7F4F82E093E00E94A48FFF20DE
:104EB00009F4C8C0112309F4C2C01092B00E1092B8
:104EC000B10E1092B20E1092B30E1092B40E109258
:104ED000B50E1092B60E1092B70E0E945790E0EAEF
:104EE000F7E0249084E997E00E9477AB4B015C01E6
:104EF00088E997E00E9477AB2B013C019B01AC0154
:104F0000C501B4010E94B6F518162CF4A501940150
:104F1000C301B20104C0A3019201C501B4010E9402
:104F200091F46E8F7F8F88A399A3ECE8F7E08591C9
:104F30009591A591B4918AA39BA3ACA3BDA3E8E8E6
:104F4000F7E0C590D590E590F490A7019601BC01DB
:104F5000CD010E94B6F5181624F0CAA0DBA0ECA083
:104F6000FDA02E8D3F8D48A159A1CA01B9010E9413
:104F70005DED20E030E040E85FE30E9417F40E941E
:104F8000F5F5A70196010E945DED6A8F7B8F8C8FEE
:104F90009D8FE1EAF7E0F49020E030E040EC5FE341
:104FA000C301B2010E945DED2B013C016F2DFF0C8E
:104FB000770B880B990B0E94FEEC9B01AC01C3019F
:104FC000B2010E945DED69837A838B839C8320E02C
:104FD00030E040EC5FE3C501B4010E945DED6B0180
:104FE0007C01622D022C000C770B880B990B0E9420
:104FF000FEEC9B01AC01C701B6010E945DED6E8B1A
:105000007F8B888F998FAE01465E5F4FBE016F5FC9
:105010007F4FCE0146960E94838F0E9460CF1092F0
:10502000B00E1092B10E1092B20E1092B30E1092FA
:10503000B40E1092B50E1092B60E1092B70E80E01C
:105040000E945990112319F081E00E945990002389
:1050500009F4A3C080E00E94C86A8091910E837019
:10506000833051F060E08BE597E00E94B2A00E948F
:10507000FACD8CE497E0B0C00E9457904090B80EF3
:105080005090B90E6090BA0E7090BB0E20919F0E9A
:105090003091A00E4091A10E5091A20E60E070E000
:1050A0008AEE92E40E9416F46B017C016093FA028E
:1050B0007093FB028093FC029093FD022091A30E5B
:1050C0003091A40E4091A50E5091A60E60E070E0C4
:1050D0008AEE92E40E9416F44B015C016093FE029A
:1050E0007093FF0280930003909301032091A70E19
:1050F0003091A80E4091A90E5091AA0EC301B201A1
:105100000E9416F4609302037093030380930403D8
:105110009093050327E137EB41ED58EBC501B4014E
:105120000E94B6F587FD4FC027E030E04BE653E420
:10513000C501B4010E94F8EC18160CF444C027E134
:1051400037EB41ED58EBC701B6010E94B6F587FD7C
:105150003AC027E030E04BE653E4C701B6010E94B5
:10516000F8EC181684F11E8A1F8A188E198E88E0B2
:10517000EAEFF2E0DE01119601900D928A95E1F7D7
:10518000AE014A5E5F4FBE016B5F7F4FCE0101965D
:105190000E94838F82E00E9459900E9457908091D4
:1051A000A1028093A202832D0E9420CA0E94A38E96
:1051B00083E0809323010E94EA91DACD111124CE7D
:1051C00016CEF12E21CE60E08BE397E00E94B2A0D4
:1051D0000E94FACD89E297E00E9433CDDECF0E9493
:1051E0007965C6CD0E94743B0C943C1C10928202DF
:1051F00010930F030E9444D6BBCD88E50E947663CE
:1052000081115E9889E50E94766381115E988AE536
:105210000E947663882309F4ABCD1598A9CD0E942E
:105220004A630E94F9F4633771050CF06CC1709306
:105230006E0260936D020E9449920E94069681114F
:105240000E94D43760916D0270916E02072E000C9F
:10525000880B990B0E94FEEC2091690230916A0242
:1052600040916B0250916C020E94B6F518161CF426
:1052700082EB96E002C083EA96E060E00E94B2A072
:1052800081E080931F011EA21FA218A619A61BA6CB
:105290001CA61DA61EA610E080E09CE3ACE1B6E4CF
:1052A0008FA798ABA9ABBAABC12CD12C60E8E62E86
:1052B0006FEBF62E33243394412C512C3201609144
:1052C0006D0270916E02072E000C880B990B0E94E4
:1052D000FEEC4B015C01A70196010E94F8EC8823CB
:1052E000F9F02091690230916A0240916B0250916D
:1052F0006C02C501B401011107C00E94F8EC182F1F
:10530000111F1127111F10C00E94F8EC87FF0BC05E
:1053100080911F01882309F42BCD0E9444D628CD0B
:105320004601570101C010E00E94077B6B017C0120
:10533000DC01CB012BA53CA54DA55EA5821B930BE3
:10534000A40BB50BB7FD33C0D701C60188519C4FE4
:10535000AF4FBF4F8BA79CA7ADA7BEA780E00E9411
:10536000D29387E892E00E9433CD41145104610446
:105370007104B9F0D301C201805F984DAF4FBF4FA8
:10538000BC01CD016C197D098E099F0928EE33E01F
:1053900040E050E00E9434F3CA01B9010E94C43ACF
:1053A00003C08FE30E94633A8AE00E94633A0E943E
:1053B000743B0E94077B609361027093620280934A
:1053C0006302909364022091690230916A024091D5
:1053D0006B0250916C022AA33BA34CA35DA3C501B1
:1053E000B4010E9416F46E8F7F8F88A399A320E0EA
:1053F00030E0A9010E94B6F587FF09C08E8D9F8D10
:10540000A8A1B9A1B0588E8F9F8FA8A3B9A34114AA
:10541000510461047104B9F420E030E040E85FE336
:105420006E8D7F8D88A199A10E94F8EC87FF19C02D
:10543000260137013320A9F090E1490E97E2591E69
:10544000611C711C0EC020E030E040E450E46E8D21
:105450007F8D88A199A10E94B6F5181614F4260133
:1054600037011123A9F12EA13FA148A559A5211566
:1054700031054105510541F0D701C601821B930B4F
:10548000A40BB50BB7FD24C02AA13BA14CA15DA183
:105490006FA578A989A99AA90E9416F420E030E0A6
:1054A00040E85FE30E94F8EC87FD32CFD701C601E8
:1054B000805A9541AF4FBF4F8EA39FA3A8A7B9A70E
:1054C0002AA13BA14CA15DA12FA738AB49AB5AAB98
:1054D00080911F01882309F41BCF411451046104FA
:1054E000710421F4312C75016401E9CE30E1C31A55
:1054F00037E2D30AE108F108C418D508E608F7082E
:10550000F7FCF0CF05CF63E770E091CE0E9436AF95
:1055100088E50E947663882331F05E9A8091910E2F
:105520008E7F8093910E89E50E947663882331F007
:105530005E9A8091910E8D7F8093910E8AE50E94F4
:105540007663882309F414CC159A8091910E8B7F91
:105550008093910E0DCC83E50E944665882391F0DF
:105560000E944A636093B20A7093B30A8093B40AAC
:105570009093B50A6093BA0A7093BB0A8093BC0AF1
:105580009093BD0A80E50E944665882351F00E94F1
:105590004A636093B20A7093B30A8093B40A9093FB
:1055A000B50A82E50E944665882351F00E944A634D
:1055B0006093B60A7093B70A8093B80A9093B90AB9
:1055C00084E50E944665882309F4D2CB0E944A6391
:1055D0006093BA0A7093BB0A8093BC0A9093BD0A89
:1055E000C7CB82E40E947663882351F00E94F1A623
:1055F00060938E0A70938F0A8093900A9093910A19
:1056000083E50E947663882351F00E944A63609389
:10561000BE0A7093BF0A8093C00A9093C10A84E5C2
:105620000E947663882351F00E944A636093C20A05
:105630007093C30A8093C40A9093C50A8AE40E94B7
:105640007663882309F494CB0E944A636B017C0142
:105650002AE037ED43E25CE30E94B6F587FD3DC0EA
:105660002AE939E949E95EE3C701B6010E94F8EC8D
:1056700018169CF1C092E503D092E603E092E7038E
:10568000F092E80360917E0A70917F0A8091800A0F
:105690009091810A0E94FCEC4B015C0123EF34E005
:1056A00045E35FE3C701B6010E945DED2AE136EFF5
:1056B00045E95EE30E9491F49B01AC01C501B40190
:1056C0000E945DED0E94F5F56093FD037093FE036B
:1056D0008093FF03909300044BCB0E94F7CD8AE2A6
:1056E00094E00E9433CD44CBC12CD12CE12C80E43A
:1056F000F82E5FC8C12CD12CE12CB0ECFB2E59C880
:10570000A70196016091A70E7091A80E8091A90E35
:105710009091AA0E0E9417F46093A70E7093A80EA2
:105720008093A90E9093AA0E0E94FACD4091A70EE5
:105730005091A80E6091A90E7091AA0E88ED93E089
:105740000E94CCCD8AE00E94633A65C882E50E943F
:105750007663811169C80CCB0E94F7CD8EE693E089
:105760000E9433CD05CBB7FAB094B7F8B094D70107
:105770008D929D92AD92BC921397F9C90E94F7CD7C
:1057800080E593E00E9433CD61E082E493E00E94E3
:10579000B2A00E9401C2ECCA0C5F1F4FBFEFCB1A30
:1057A000DB0AEEE7F7E0E017F10709F0B3C980E4A0
:1057B000E82E82E0F82E10E0F10181919191A19103
:1057C000B1911F01F70181939193A193B1937F014F
:1057D000812F0E94218B1F5F133071F70E94EA9185
:1057E00060E082E393E00E94B2A0C2CA20919F0EC3
:1057F0003091A00E4091A10E5091A20E2E8F3F8F9E
:1058000048A359A34090A30E5090A40E6090A50EFB
:105810007090A60EC090A70ED090A80EE090A90E92
:10582000F090AA0E88E50E944665882361F10E94E7
:105830004A634B015C0120E030E04BE653EC0E94F0
:10584000B6F587FD0AC020E030E04BE653E4C50121
:10585000B4010E94F8EC181694F46BEE70E085E049
:1058600093E00E94DDCD6BEE70E080E093E00E945B
:10587000DDCD82ED98E20E9433CD10E005C08E8E22
:105880009F8EA8A2B9A211E089E50E9446658823EF
:1058900051F10E944A634B015C0120E030E04BE68D
:1058A00053EC0E94B6F587FD0AC020E030E04BE6DD
:1058B00053E4C501B4010E94F8EC181694F46BEEA1
:1058C00070E08DEE92E00E94DDCD6BEE70E080E046
:1058D00093E00E94DDCD82ED98E20E9433CD10E08E
:1058E00002C0240135018AE50E944665882339F10A
:1058F0000E944A636B017C0120E030E040EA51ECF9
:105900000E94B6F587FD0AC020E030E040EA51E48D
:10591000C701B6010E94F8EC18168CF46CEE7FEF0C
:105920008BED92E00E94DDCD64E170E080E093E0D9
:105930000E94DDCD82ED98E20E9433CD19CA112379
:1059400009F416CA2E8D3F8D48A159A120939F0EB0
:105950003093A00E4093A10E5093A20E4092A30E3E
:105960005092A40E6092A50E7092A60EC092A70E41
:10597000D092A80EE092A90EF092AA0EF9C9811158
:105980003FCAFF24F39433CAE296E2E10C94FBF39E
:10599000A3E1B0E0EEECFCE20C94DFF38FEF9FEFBD
:1059A00090938900809388000AE00B8B212C312C86
:1059B00078948091600390916103A0916203B0910B
:1059C0006303892B8A2B8B2B71F080912C01909192
:1059D0002D01A0912E01B0912F01892B8A2B8B2BA9
:1059E00009F051C2BCC18091C20E8823D1F010923F
:1059F000C20E8091C00E9091C10E892B31F310928E
:105A0000C10E1092C00E109218039091500F809109
:105A1000510F9817D1F28091510F8F5F8F70809343
:105A2000510F8091C00E9091C10E892B71F240915F
:105A30005C0350915D0360915E0370915F03809100
:105A4000580390915903A0915A03B0915B030091C0
:105A50004E0310E020E030E0841B950BA60BB70B43
:105A6000081719072A073B0710F4D901C801E82FC6
:105A7000840F951FA61FB71F80935C0390935D034F
:105A8000A0935E03B0935F03F1E0C0902303D09036
:105A90002403E0902503F090260380913303909136
:105AA0003403A0913503B0913603C80ED91EEA1E07
:105AB000FB1EC0923303D0923403E0923503F09280
:105AC0003603F7FC31C080911003082E000C990BAF
:105AD000AA0BBB0B4091CF0E5091D00E6091D10E0E
