:100000000C94ED150C9417160C9417160C941716E7
:100010000C9417160C9417160C9417160C941716AC
:100020000C9417160C9417160C9417160C9417169C
:100030000C9417160C948E470C9417160C941716E4
:100040000C9417160C94B4A50C94E3B10C941716E9
:100050000C941F400C9415400C9417160C94171612
:100060000C9417160C9417160C9417160C9417165C
:100070000C9417160C9417160C9417160C9417164C
:100080000C94553A0C9417160C9417164D58525858
:10009000575861588F588F586B5873587B588558EC
:1000A00074B777B76AB76EB78EB78EB77BB77FB7BF
:1000B00085B789B7A0D85FD796D7DCD896D796D71B
:1000C00096D796D796D796D796D796D796D796D7C8
:1000D00096D796D796D796D796D796D796D796D7B8
:1000E00096D796D796D796D796D796D796D796D7A8
:1000F000D6D896D796D796D796D796D796D796D757
:1001000096D7AFD896D796D796D796D796D796D76D
:1001100096D796D796D796D7F3D893D705A84CCD30
:10012000B2D44EB93836A9020C50B9918688083C31
:10013000A6AAAA2ABE000000803F4E414E494E4961
:100140005459494E46CDCCCC3D0AD7233C17B7D1A4
:100150003877CC2B329595E6241FB14F0A0000204A
:10016000410000C84200401C4620BCBE4CCA1B0EC9
:100170005AAEC59D7400407A10F35A00A0724E1812
:10018000090010A5D4E80000E87648170000E40B49
:1001900054020000CA9A3B000000E1F5050000800F
:1001A000969800000040420F000000A08601000069
:1001B00000102700000000E80300000000640000B9
:1001C0000000000A00000000000100000000002CF8
:1001D00076D888DC674F0823DFC1DFAE59E1B1B7BD
:1001E00096E5E3E453C63AE651997696E8E6C2848A
:1001F00026EB898C9B62ED407C6FFCEFBC9C9F40A2
:10020000F2BAA56FA5F490055A2AF75C936B6CF9C6
:10021000676DC11BFCE0E40D47FEF520E6B500D09C
:10022000ED902E0300943577050080841E080000B1
:10023000204E0A000000C80C333333330F986E127F
:10024000831141EF8D2114893BE65516CFFEE6DB85
:1002500018D1844B381BF77C1D901DA4BBE42420CF
:100260003284725E228100C9F124ECA1E53D272091
:10027000573A00434F4D4D554E49434154494F4E17
:100280000044525952554E004552524F5253004964
:100290004E464F004543484F006F6B002028302DDD
:1002A000313029002076616C7565206F7574206F80
:1002B000662072616E676500416476616E636520D9
:1002C0004B3D003F5A206F7574206F662072616E3F
:1002D00067652028003F59206F7574206F66207273
:1002E000616E676520282D0020746F20003F582024
:1002F0006F7574206F662072616E676520282D000F
:1003000050726F6265204F666673657420580045B1
:100310004550524F4D204F4B0A004F66667365742F
:1003200073204170706C696564004572723A2054A4
:100330006F6F206661722100546F6F2066617220BA
:1003400066726F6D207265666572656E636520709A
:100350006F696E740A004D34323120696E636F72BA
:100360007265637420706172616D65746572207569
:10037000736167650A006469730043290A0061625A
:100380006C656420286D696E2074656D7020004373
:100390006F6C642065787472756465732061726532
:1003A0002000496E76616C696420657874727564AA
:1003B00065720A0020643A0020693A0020703A0011
:1003C00050726F6265204F6666736574205A0050E4
:1003D000726F6265204F66667365745A3A2000201A
:1003E0006F7574206F662072616E67650A00205316
:1003F0006572766F200050726F7465637465642057
:1004000050696E0A0020466C6F773A200046523AD7
:100410000020204D61783A200020204D696E3A205E
:1004200000536F667420656E6473746F70733A2046
:10043000003F4A206F7574206F662072616E676599
:100440002028302E303120746F20302E33290A00BE
:10045000205400205200416363656C6572617469C9
:100460006F6E3A2050004D31343520533C696E6434
:1004700065783E206F7574206F662072616E6765C7
:100480002028302D31290A002F2F20004348414DCC
:100490004245525F54454D504552415455524500D6
:1004A0004D4F54494F4E5F4D4F44455300544845BE
:1004B000524D414C5F50524F54454354494F4E00AA
:1004C0004155544F5245504F52545F53445F53541B
:1004D000415455530050524F4D50545F5355505056
:1004E0004F525400454D455247454E43595F504188
:1004F0005253455200434153455F4C494748545F6E
:100500004252494748544E45535300544F47474C75
:10051000455F4C494748545300534F465457415246
:10052000455F504F574552004255494C445F504536
:100530005243454E54004C4556454C494E475F4446
:10054000415441005A5F50524F4245004155544F6B
:100550004C4556454C005052494E545F4A4F42005C
:1005600050524F4752455353004155544F524550F6
:100570004F52545F54454D5000564F4C554D4554C5
:1005800052494300454550524F4D0042494E415259
:10059000595F46494C455F5452414E5346455200BF
:1005A00053455249414C5F584F4E5F584F464600A5
:1005B0004649524D574152455F4E414D453A4D6176
:1005C000726C696E20322E302E352E33202847690A
:1005D000744875622920534F555243455F434F4439
:1005E000455F55524C3A68747470733A2F2F67699F
:1005F000746875622E636F6D2F4D61726C696E4603
:1006000069726D776172652F4D61726C696E2050F1
:10061000524F544F434F4C5F56455253494F4E3AF9
:10062000312E30204D414348494E455F5459504585
:100630003A4C7563792045585452554445525F43AE
:100640004F554E543A3120555549443A63656465D7
:10065000326132662D343161322D343734382D39E0
:100660006231322D6335356336326633363766662E
:100670000A004C756379204F46462E00426564207F
:10068000436F6F6C696E672E2E2E004265642048A2
:10069000656174696E672E2E2E004D313133205303
:1006A000004D3131322053687574646F776E006F7E
:1006B00066660044454255473A0025697920256918
:1006C00064202569682025696D20256973005072B2
:1006D000696E742074696D653A20004E6F204D6F0D
:1006E00076652E00436C69636B20746F20526573CE
:1006F000756D652E2E2E004D65736820706F696EC6
:10070000742063616E6E6F74206265207265736F12
:100710006C7665640A005A2050726F6265205061E1
:100720007374204265640A005A2050726F6265201B
:10073000506173742042656400486F6D652058599C
:100740002066697273740A00486F6D6520585920DD
:10075000466972737400536C6565702E2E2E00000E
:10076000000000000000000000000000006B4300DB
:10077000006B4300007A4394028F02880281027367
:10078000020000A0410000A04100008040FFFFFFE8
:1007900024F4D43050C38E20C2A24017828B701133
:1007A000127A910D816CD90AA861E108C7586607D1
:1007B000615143061E4B5D05C145A7041A41110452
:1007C000093D9803713931034036DB0265339102EC
:1007D000D4305402802E1D02632CEE01752AC5010F
:1007E000B028A001102781018F2564012B244B0123
:1007F000E0223401AC211F018D200D01801FFC007F
:10080000841EED00971DDF00B81CD200E61BC60059
:10081000201BBC00641AB200B219A8000A19A0007B
:100820006A189900D117910040178B00B516840003
:1008300031167E00B31579003A157300C7146F00A6
:1008400058146A00EE1366008813630025135E00D7
:10085000C7125B006C12570015125400C1115100F1
:1008600070114F0021114B00D61049008D10470028
:100870004610440002104200C00F4000800F3E00AE
:10088000420F3C00060F3B00CB0E3800930E3700A2
:100890005C0E3500270E3400F30D3200C10D31001F
:1008A000900D3000600D2E00320D2D00050D2C0036
:1008B000D90C2B00AE0C2900850C29005C0C2700FC
:1008C000350C27000E0C2600E80B2400C40B240076
:1008D000A00B23007D0B23005A0B2100390B2100B4
:1008E000180B2000F80A1F00D90A1E00BB0A1E00C0
:1008F0009D0A1D00800A1D00630A1C00470A1B0098
:100900002C0A1B00110A1A00F7091A00DD09190048
:10091000C4091900AB091900920917007B091800D6
:10092000630917004C091600360916002009160045
:100930000A091500F5081500E0081400CC08140099
:10094000B8081400A4081400900813007D081200D1
:100950006B081300580812004608120034081100F2
:10096000230811001208110001081100F0071000FF
:10097000E0071000D0071000C0071000B0070F00FC
:10098000A107100091070E0083070F0074070F00E6
:1009900065070E0057070E0049070E003B070D00C4
:1009A0002E070E0020070D0013070D0006070D008F
:1009B000F9060C00ED060D00E0060C00D4060C0054
:1009C000C8060C00BC060C00B0060C00A4060B0008
:1009D00099060C008D060B0082060B0077060B00B3
:1009E0006C060B0061060A0057060B004C060A0055
:1009F00042060A0038060A002E060A0024060A00EB
:100A00001A060A001006090007060A00FD0509007B
:100A1000F4050900EB050900E2050900D905090004
:100A2000D0050900C7050900BE050900B505080085
:100A3000AD050800A50509009C05080094050800FF
:100A40008C050800840508007C0508007405080072
:100A50006C050700650508005D05070056050800E0
:100A60004E05070047050700400508003805070048
:100A7000310507002A050700230507001C050600AD
:100A8000160507000F050700080506000205070008
:100A9000FB040600F5040700EE040600E804060067
:100AA000E2040700DB040600D5040600CF040600BC
:100AB000C9040600C3040600BD040600B70406000E
:100AC000B1040500AC040600A6040600A00405005D
:100AD0009B04060095040500900406008A040500A6
:100AE00085040500800406007A04050075040500ED
:100AF000700405006B040500660405006104050030
:100B00005C04050057040500520405004D0405006F
:100B100048040500430405003E0404003A040500AF
:100B200035040500300404002C04050027040400EB
:100B3000230405001E0404001A0404001604050022
:100B4000110404000D040400090405000404040059
:100B500000040400FC030400F8030400F403040090
:100B6000F0030400EC030400E8030400E4030400C1
:100B7000E0030400DC030400D8030400D4030400F1
:100B8000D0030400CC030400C8030300C503030022
:100B900024F404D9201BC40C5C0E9804C4095F0221
:100BA00065077101F405F900FB04B30048048700F0
:100BB000C10369005803550003034500BE023A0013
:100BC0008402310053022A00290225000402200079
:100BD000E4011C00C8011900AF01170098011400BE
:100BE00084011300710110006101100051010E0019
:100BF00043010D0036010B002B010B0020010B00FF
:100C0000150109000C01090003010800FB000800A0
:100C1000F3000800EB000700E4000600DE00060019
:100C2000D8000600D2000600CC000500C700050071
:100C3000C2000500BD000400B9000400B5000400B6
:100C4000B1000400AD000400A9000400A5000300E9
:100C5000A20003009F0004009B0003009800030013
:100C60009500020093000300900003008D00020035
:100C70008B0003008800020086000200840003004D
:100C8000810002007F0002007D0002007B00020064
:100C90007900020077000100760002007400020073
:100CA00072000100710002006F0002006D0001007F
:100CB0006C0002006A000100690002006700010088
:100CC000660001006500010064000200620001008E
:100CD00061000100600001005F0002005D00010092
:100CE0005C0001005B0001005A0001005900010096
:100CF0005800010057000100560001005500010096
:100D00005400010053000000530001005200010094
:100D100051000100500001004F0001004E00000092
:100D20004E0001004D0001004C0001004B0000008E
:100D30004B0001004A00010049000100480000008A
:100D40004800010047000100460000004600010085
:100D50004500000045000100440001004300000080
:100D60004300010042000000420001004100000079
:100D700041000100400001003F0000003F00010071
:100D80003E0000003E0001003D0000003D0001006B
:100D90003C0000003C0000003C0001003B00000063
:100DA0003B0001003A0000003A0001003900000059
:100DB0003900010038000000380000003800010050
:100DC0003700000037000100360000003600000048
:100DD000360001003500000035000000350001003C
:100DE0003400000034000000340001003300000033
:100DF0003300000033000100320000003200000028
:100E0000320001003100000031000000310001001B
:100E10003000000030000000300001002F00000012
:100E20002F0000002F0000002F0001002E00000006
:100E30002E0000002E0001002D0000002D000000FB
:100E40002D0000002D0001002C0000002C000000EF
:100E50002C0000002C0001002B0000002B000000E3
:100E60002B0000002B0001002A0000002A000000D7
:100E70002A0000002A0001002900000029000000CB
:100E800029000000290000002900010028000000BE
:100E900028000000280000002800000028000100B1
:100EA00027000000270000002700000027000000A6
:100EB0002700010026000000260000002600000098
:100EC000260000002600010025000000250000008B
:100ED000250000002500000025000000250001007D
:100EE0002400000024000000240000002400000072
:100EF0002400010023000000230000002300000064
:100F00002300000023000000230000002300010054
:100F10002200000022000000220000002200000049
:100F2000220000002200010021000000210000003A
:100F3000210000002100000021000000210000002D
:100F4000210001002000000020000000200000001F
:100F50002000000020000000200000002000000011
:100F6000200001001F0000001F0000001F00000003
:100F70001F0000001F0000001F0000001F000100F4
:100F80001E0000001E0000001E0000001E000000E9
:100F9000232C0000B8220000561800003A0F000071
:100FA000B8080000B1040000710200003E0100001A
:100FB0004572726F722077726974696E6720746F00
:100FC00020454550524F4D210A00627573793A20F1
:100FD00070617573656420666F7220696E707574D8
:100FE0000A00627573793A207061757365642066D2
:100FF0006F7220757365720A00627573793A20709A
:10100000726F63657373696E670A002121204B4913
:101010004C4C2063617573656420627920746F6F36
:10102000206D75636820696E6163746976652074EC
:10103000696D65202D2063757272656E7420636F13
:101040006D6D616E643A20004E6F20436865636B7E
:1010500073756D2077697468206C696E65206E7594
:101060006D6265722C204C617374204C696E653A18
:101070002000636865636B73756D206D69736D61C6
:101080007463682C204C617374204C696E653A203F
:10109000004C696E65204E756D6265722069732023
:1010A0006E6F74204C617374204C696E65204E75B0
:1010B0006D6265722B312C204C617374204C696E0B
:1010C000653A20004D313130000F150E1216170E03
:1010D0001303021A1401000E0C190DFF180C040062
:1010E000014E65787420436F726E6572003F004454
:1010F0006F6E65004E65787400486F6D696E67208D
:1011000058595A005A2056616C756500496E6465DD
:1011100078205900496E6465782058004C657665E2
:101120006C20436F726E657273004661646520487F
:1011300065696768740045646974204D657368006B
:101140004732380A473239004C6576656C20426573
:1011500064000000000100000001000080005555FF
:1011600055000000400033333300AAAA2A004992F8
:10117000240000002000C7711C0099991900D14576
:101180001700555515003BB11300244912001111E9
:101190001100000010000F0F0F00E3380E0043791C
:1011A0000D00CCCC0C00C3300C00E8A20B00642175
:1011B0000B00AAAA0A00703D0A009DD80900427BD4
:1011C000090092240900DCD3080088880800104236
:1011D000080000000800F0C107008787070075506D
:1011E0000700711C07003EEB0600A1BC06006990D9
:1011F000060066660600703E06006118060017F4D9
:10120000050074D105005BB00500B2900500627264
:1012100005005555050078390500B81E050005057F
:1012200005004EEC040087D40400A1BD040090A783
:10123000040049920400C17D0400EE690400C75611
:101240000400444404005C320400082104004110FE
:101250000400000004003FF00300F8E0030026D281
:101260000300C3C30300CCB503003AA803000A9BE4
:101270000300388E0300C08103009F750300D0690E
:101280000300505E03001D53030034480300913DEA
:1012900003003333030016290300381F030097159A
:1012A0000300300C0300030303000BFA020049F1B2
:1012B0000200BAE802005CE002002DD802002DD046
:1012C000020059C80200B0C0020031B90200DAB110
:1012D0000200AAAA0200A0A30200BC9C0200FA9588
:1012E00002005C8F0200DF88020082820200457CDF
:1012F00002002776020027700200436A02007C6425
:101300000200D05E02003F590200C8530200FFFDF8
:10131000FCFAF8F6F4F2F0EEECEAE9E7E5E3E1E0F6
:10132000DEDCDAD9D7D5D4D2D0CFCDCBCAC8C7C5A9
:10133000C3C2C0BFBDBCBAB9B7B6B4B3B2B0AFAD2B
:10134000ACAAA9A8A6A5A4A2A1A09E9D9C9A999882
:101350009795949392908F8E8D8B8A8988878684B7
:10136000838281807F7E7D7B7A79787776757473CE
:101370007271706F6E6D6C6B6A69686766656463C5
:101380006261605F5E5D5C5B5A59585857565554B0
:1013900053525150504F4E4D4C4B4A4A4948474684
:1013A00046454443424241403F3E3E3D3C3B3B3A42
:1013B00039383837363535343332323130302F2EF4
:1013C0002E2D2C2B2B2A2929282727262525242397
:1013D0002322212120201F1E1E1D1C1C1B1B1A192D
:1013E00019181817161615151413131212111110B7
:1013F0000F0F0E0E0D0D0C0C0B0A0A090908080739
:101400000706060505040403030202010000206D1F
:1014100061783A2000206D696E3A2000204D393203
:10142000205800496E76616C69642050696E204DC9
:101430006F64650A0020496E76616C696420657886
:1014400074727564657220004361703A005265736E
:10145000656E643A20004520255300236465666963
:101460006E652044454641554C545F004B64200056
:101470004B6920004B702000504944204175746F27
:1014800074756E652066696E6973686564212050A5
:10149000757420746865206C617374204B702C2007
:1014A0004B6920616E64204B6420636F6E737461BE
:1014B0006E74732066726F6D2062656C6F77206941
:1014C0006E746F20436F6E66696775726174696FC1
:1014D0006E2E680A00504944204175746F74756E11
:1014E00065206661696C6564212074696D656F753E
:1014F000740A000A20436C61737369632050494485
:10150000200A00204B643A2000204B693A2000203A
:101510004B703A20002054753A2000204B753A2039
:101520000020643A200020626961733A200050492B
:1015300044204175746F74756E65207374617274A4
:101540000A00504944204175746F74756E652066B9
:1015500061696C6564212054656D70657261747594
:10156000726520746F6F20686967680A005049448B
:10157000204175746F74756E65206661696C656471
:101580002120426164206578747275646572206EF2
:10159000756D6265720A0053544F505045442E20B9
:1015A000005072696E7465722073746F7070656438
:1015B0002064756520746F206572726F72732E20BF
:1015C00046697820746865206572726F7220616E5A
:1015D0006420757365204D39393920746F20726528
:1015E00073746172742E202854656D706572617415
:1015F0007572652069732072657365742E2053655A
:1016000074206974206166746572207265737461F8
:101610007274696E67290A0021212053544F5020AB
:1016200063616C6C65642062656361757365206FCE
:101630006620424C546F756368206572726F722029
:101640002D20726573746172742077697468204DFF
:101650003939390A004F46460A0046616465204818
:1016600065696768742000426564204C6576656C26
:10167000696E6720004661696C656420746F20653F
:101680006E61626C6520426564204C6576656C69AC
:101690006E670A00496E76616C6964206D657368D7
:1016A0002E0A0050726F62696E6720506F696E7407
:1016B0000025532025692F25690050726F62696EDD
:1016C00067206D65736820706F696E742000202834
:1016D00044525952554E2900473239204175746F92
:1016E00020426564204C6576656C696E67003F201A
:1016F000284C2C522C462C4229206F7574206F6682
:1017000020626F756E64732E0A00426164205A2055
:1017100076616C75650A004E6F2062696C696E6552
:10172000617220677269640A002062797465733B94
:1017300020637263200053657474696E677320536D
:10174000746F726564202800454550524F4D2064E7
:1017500061746173697A65206572726F722E0A0016
:101760002073746F7265642073657474696E677337
:10177000207265747269657665642028004572720E
:101780003A20454550524F4D204352430020286394
:10179000616C63756C6174656429210A0020213DC8
:1017A0002000454550524F4D20435243206D6973F0
:1017B0006D61746368202D202873746F72656429CD
:1017C00020004572723A20454550524F4D20496ED7
:1017D000646578002053697A653A2000496E646533
:1017E000783A20004572723A20454550524F4D20BC
:1017F00056657273696F6E00204D61726C696E3D43
:10180000563736290A00454550524F4D20766572AD
:1018100073696F6E206D69736D617463682028450C
:101820004550524F4D3D0020746F6F206C6F6E67B6
:1018300020657874727573696F6E20707265766555
:101840006E7465640A0020636F6C6420657874723E
:101850007573696F6E2070726576656E7465640A63
:1018600000656E7175657565696E672022004D3380
:1018700030332055312045256920532569005049D2
:1018800044204175746F74756E65202A0050494478
:101890002D44202A005049442D49202A0050494413
:1018A0002D50202A00200820466163740020082063
:1018B0004D6178002008204D696E004175746F7489
:1018C000656D70004573746570732F6D6D005A738C
:1018D000746570732F6D6D005973746570732F6D1F
:1018E0006D005873746570732F6D6D00416476617F
:1018F0006E6365204B0053746570732F6D6D0054DB
:10190000656D70657261747572650050726F6265A5
:10191000205A204F6666736574004D61696E0050F1
:1019200072656865617420504C41204265640050C6
:1019300072656865617420504C4120456E640050AA
:101940007265686561742041425320456E640050A1
:1019500072656865617420414253204265640043AA
:101960006F6F6C646F776E0050726568656174208C
:10197000414253005072656865617420504C4100CB
:1019800046616E205370656564004E6F7A7A6C65AF
:1019900000466C6F7700436F6E666967757261749D
:1019A000696F6E004F6666004F6E004D6F74696F11
:1019B0006E004175746F20486F6D650042696C69F7
:1019C0006E656172204C6576656C696E670045785E
:1019D00074727564657273004C75637900323032CD
:1019E000302D30332D333100546865726D69737456
:1019F0006F727300426F61726420496E666F0050AF
:101A000072696E74657220496E666F0041626F750F
:101A100074205072696E7465720054756E65004969
:101A20006E666F2053637265656E00536F66742037
:101A3000456E6473746F7073004D3834004469737D
:101A400061626C6520537465707065727300473213
:101A5000380A4D343820503130004D34382050721F
:101A60006F6265205465737400473238001FE03F91
:101A7000F03FF03FF01FE01FE03FF03FF03FF00F7E
:101A8000C0078003001FE02010201020101020103D
:101A9000202010201030300840048003003FFFF069
:101AA00038007030FC3020FC102078102030102CD2
:101AB00000D02E31D02F7BD02F7BD02E31D02C00D8
:101AC000D020301020781020FC1030FC303800700E
:101AD0003FFFF03FFFF0380070318630238710273A
:101AE00087902F87D02F03D02030102078102078B7
:101AF000102030102F03D02F87D0278790238710F6
:101B00003186303800703FFFF01FFFF81FFFF804E8
:101B100010400208200208200410400820801041D4
:101B2000001041000820800410400000001FFFF852
:101B30001FFFF8202020202020200000FE0003FFAF
:101B40008007C7C00701E00000E00000F00000705F
:101B50000400700E00701F00703F80F00E00E00F58
:101B600001E007C7C003FF8000FE0000FE0003FF86
:101B70008007C7C00F01E00E00E03F80F01F00703B
:101B80000E00700400700000700000F00000E0071C
:101B900001E007C7C003FF8000FE000E000E000E2C
:101BA000000E000E000E000E000E007FC03F801FD2
:101BB000000E00040004000E001F003F807FC00ED6
:101BC000000E000E000E000E000E000E000E00FFB4
:101BD000FFFF7F80FFC0FFC0FFC07F807F80FFC00E
:101BE000FFC0FFC03F001E000C00202D20496E7674
:101BF000616C6964206578747275646572206E75B5
:101C00006D62657220210A00544845524D414C20B6
:101C100052554E4157415900546865726D616C20B0
:101C200052756E61776179004572723A204D415864
:101C300054454D50004D415854454D5020747269E3
:101C4000676765726564004572723A204D494E546B
:101C5000454D50004D494E54454D502074726967B2
:101C6000676572656400202F002042403A002040E2
:101C70003A0070012C0190012701B0012201C0013E
:101C80001D01F00118011002130130020E01600263
:101C9000090190020401C002FF000003FA004003A2
:101CA000F5008003F000D003EB002004E600700490
:101CB000E100E004DC004005D700C005D20040068A
:101CC000CD00D006C8008007C3003008BE00F00871
:101CD000B900C009B400B00AAF00B00BAA00D00C24
:101CE000A500000EA000500F9B00C01096005012DF
:101CF000910000148C00C0158700B0178200B01945
:101D00007D00D01B7800001E730040206E009022E2
:101D10006900F024640040275F0090295A00E02BFE
:101D20005500102E500020304B0010324600E0339A
:101D3000410090353C001037370070383200A03930
:101D40002D00B03A2800A03B2300603C1E00103D4F
:101D50001900903D1400103E0F00703E0A00C03E76
:101D60000500003F0000403FFBFF803FF6FFC03F03
:101D7000F1FF6F70656E0054524947474552454424
:101D8000007A5F6D696E00795F6D696E00785F6DD6
:101D9000696E005265706F7274696E6720656E645B
:101DA00073746F70207374617475730A0057617275
:101DB0006E696E673A20486F6D696E672042756D77
:101DC000702044697669736F72203C20310A0002EA
:101DD00002040000A0400000A04000000040687421
:101DE00074703A2F2F6D61726C696E66772E6F7208
:101DF0006700322E302E352E33002020506C616E5D
:101E00006E657242756666657242797465733A20D2
:101E1000002046726565204D656D6F72793A20002D
:101E2000436F6D70696C65643A204A756C20313679
:101E300020323032300A00204C61737420557064B7
:101E4000617465643A20323032302D30332D3331B5
:101E5000207C20417574686F723A20287061646933
:101E6000632C204C756379290A00322E302E352ED2
:101E7000330A004D61726C696E0020536F6674778F
:101E80006172652052657365740A0020576174633E
:101E900068646F672052657365740A002042726F30
:101EA000776E206F75742052657365740A00204543
:101EB000787465726E616C2052657365740A0050A7
:101EC0006F77657255700A002553202563202563BE
:101ED00020256320256300656E6473746F70732022
:101EE0006869743A20001FFFFFFFFFFFFF600000DA
:101EF000000001FF400000000000FF800000000023
:101F0000007F83CF00000C303F87FF80000C301F24
:101F1000867980000C000F8C30C7838C30E78C30C2
:101F2000CFC7CC31F38C30DCECEC33B98C30D86CCF
:101F30006C33198C30D06C0C33198C30D86C0C335A
:101F4000198C30DC6C0E3B198C30CF7C079F198CC0
:101F500030C77C038F1940000000000002600000C1
:101F6000000000061FFFFFFFFFFFF84572723A20D6
:101F70007574663820666F6E74206E6F7420696E9B
:101F8000697469616C697A65642E002568753A2503
:101F90003032687500256875642025303268753ADE
:101FA000253032687500000C0D00FE07022603BCC8
:101FB000017FFE08FE08FE05080806000040F0C884
:101FC0008888987810050808060000C0F888888876
:101FD0008888F80505050600012030F8302005083E
:101FE000080600002070F820202020E005090906DE
:101FF00000FF2070A8A8B888887020050606060093
:1020000001E08CEA8C8A0A0509090600FFF8A88815
:1020100088888888A8F8050A0A0600FE20505050D3
:102020005088A8A8887003030306000340A040FF5F
:10203000FFFFFFFFFFFFFFFFFFFFFFFFFFFFFFFFB0
:10204000FFFFFFFFFF0000000605FF010707060274
:102050000080808080800080030303060105A0A02B
:10206000A005060606000050F85050F85005090972
:102070000600FF2070A8A07028A87020050707069A
:102080000000C8C8102040989805070706000040C7
:10209000A0A040A890680103030602058080800389
:1020A00009090601FF20404080808040402003094C
:1020B000090601FF8040402020204040800507079E
:1020C00006000020A8702070A82005050506000164
:1020D0002020F820200203030601FFC040800501F4
:1020E00001060003F8020202060100C0C00507074E
:1020F0000600000810102040408005070706000079
:10210000708898A8C8887003070706010040C0407F
:10211000404040E005070706000070880810204096
:10212000F8050707060000F8081030088870050752
:102130000706000010305090F81010050707060041
:1021400000F880F008088870050707060000304096
:1021500080F0888870050707060000F80810102036
:1021600020200507070600007088887088887005A1
:1021700007070600007088887808106002050506C9
:102180000100C0C000C0C00206060601FFC0C000BA
:10219000C040800305050601012040804020050362
:1021A00003060002F800F80305050601018040203F
:1021B00040800507070600007088102020002005D9
:1021C00007070600007088B8A8B8807005070706E2
:1021D0000000708888F8888888050707060000F0E6
:1021E0004848704848F0050707060000708880805E
:1021F000808870050707060000F04848484848F006
:10220000050707060000F88080F08080F8050707C2
:10221000060000F88080F080808005070706000037
:102220007088808098887005070706000088888875
:10223000F8888888030707060100E04040404040D6
:10224000E005070706000038101010109060050721
:10225000070600008890A0C0A09088050707060028
:1022600000808080808080F805070706000088D8FD
:10227000A8888888880507070600008888C8A89865
:102280008888050707060000708888888888700598
:102290000707060000F08888F080808005070706A1
:1022A000000070888888A89068050707060000F07D
:1022B0008888F0A090880507070600007088807065
:1022C000088870050707060000F82020202020203D
:1022D0000507070600008888888888887005070732
:1022E00006000088888888505020050707060000EF
:1022F00088888888A8A850050707060000888850A5
:102300002050888805070706000088885020202074
:1023100020050707060000F80810204080F8030990
:10232000090601FFE080808080808080E00507074B
:10233000060000804040201010080309090601FF34
:10234000E020202020202020E005030306000520B7
:1023500050880501010600FEF8030303060105800D
:1023600040200505050600007008788878050707F5
:102370000600008080F0888888F0050505060000CA
:102380007080808870050707060000080878888834
:1023900088780505050600007088F080700507073D
:1023A000060000304840E04040400507070600FEB8
:1023B000708888887808700507070600008080F01C
:1023C000888888880307070601004000C040404015
:1023D000E00409090601FE10003010101010906092
:1023E00005070706000080808890E09088030707B3
:1023F000060100C04040404040E0050505060000E1
:10240000D0A8A8A8A8050505060000B0C888888837
:102410000505050600007088888870050707060016
:10242000FEF0888888F080800507070600FE78881F
:102430008888780808050505060000B0C8808080F7
:1024400005050506000078807008F00507070600FE
:10245000002020F8202020180505050600008888A7
:1024600088986805050506000088888850200505BD
:10247000050600008888A8A8500505050600008804
:10248000502050880507070600FE888888502040A5
:1024900080050505060000F8102040F8030909062C
:1024A00001FF2040404080404040200109090602D1
:1024B000FF8080808080808080800309090601FF82
:1024C0008040404020404040800503030600024811
:1024D000A890FF00002100240027002A000000220D
:1024E00000250028002B00000020002300260029E2
:1024F00000020202020202020204040404040404B0
:1025000004030303030303030301010101010101A8
:10251000010102040810204080010204081020403C
:10252000800102040810204080804020100804022E
:1025300001000000010200090A0000000004030875
:102540000700000000000000000000000000000084
:10255000004D6F76652025736D6D004D6F7665209B
:10256000302E316D6D004D6F766520316D6D004DF3
:102570006F76652031306D6D004D6F766520417846
:10258000697300486F74656E6420746F6F20636FA9
:102590006C64004578747275646572004D6F766581
:1025A000205A004D6F76652059004D6F7665205892
:1025B000004C6F61642053657474696E67730053D7
:1025C000746F72652053657474696E67730041643B
:1025D00076616E6365642053657474696E67730019
:1025E000436D643A2053746F7700436D643A20441E
:1025F00065706C6F7900436D643A2053572D4D6FB1
:10260000646500436D643A2053656C662D546573B0
:102610007400436D643A20526573657400526573AB
:10262000746F72652044656661756C747300424C0A
:10263000546F75636800313235004245443A455065
:10264000434F53203130304B0052756E61776179C2
:102650002057617463683A204F4E004D61782054D2
:10266000656D7000323735004D696E2054656D70B0
:102670000045313A204550434F53203130304B0014
:102680005053550047656E657269630050726F74F0
:102690006F636F6C00312E30004261756400313120
:1026A00035323030004D656C7A692028437265619F
:1026B0006C6974792900506C65617365205265738B
:1026C0006574005052494E5445522048414C54457F
:1026D000440025533A202553004B494C4C45442E89
:1026E00020005072696E7465722068616C74656454
:1026F0002E206B696C6C28292063616C6C656421E9
:102700000A006563686F3A004572726F723A004260
:10271000696C696E656172204C6576656C696E677F
:1027200020477269643A0A003F2856296572626F31
:102730007365206C6576656C20696D706C6175736E
:1027400069626C652028302D34292E0A0044657694
:10275000696174696F6E0025533A202573005374C4
:10276000616E6461726420446576696174696F6E3C
:102770003A20002052616E67653A20004D65616E17
:102780003A200046696E6973686564210A00207208
:10279000616E67653A2000207369676D613A2000B9
:1027A000206D65616E3A20003A207A3A2000206F51
:1027B000662000476F696E6720746F3A20580043A7
:1027C000570A00206469723A0020616E676C653AAE
:1027D000005374617274207261646975733A004DBC
:1027E000343820506F696E740025533A2025642FC9
:1027F000256400506F736974696F6E696E67207429
:1028000068652070726F62652E2E2E0A003F4E752D
:102810006D626572206F66206C65677320696E203B
:102820006D6F76656D656E74206E6F7420706C616F
:10283000757369626C652028302D3135292E0A00A8
:102840003F2028582C5929206F7574206F6620620C
:102850006F756E64732E0A003F53616D706C652056
:1028600073697A65206E6F7420706C61757369622C
:102870006C652028342D3530292E0A004D3438203F
:102880005A2D50726F626520526570656174616285
:10289000696C69747920546573740A0020453A00A4
:1028A000205A3A0020593A00205A3A200020593A3A
:1028B000200042656420583A20005072696E7420EE
:1028C0005061757365640050726F62696E6720466F
:1028D00061696C65640A0050726F62696E672046B8
:1028E00061696C656400486F6D65202573257325EB
:1028F0007320466972737400220A00556E6B6E6F06
:10290000776E20636F6D6D616E643A2022004C75A6
:1029100063792052656164792E005072696E746922
:102920006E672E2E2E0048617264636F64656420AA
:1029300044656661756C742053657474696E677361
:10294000204C6F616465640A003B200020204D39F3
:102950003030204B004C696E6561722041647661B5
:102960006E63653A0020204D3835312058005A2DCD
:1029700050726F6265204F66667365740020440074
:1029800020204D333031205000504944207365746D
:1029900074696E67733A0020460020480020204D7D
:1029A0003134352053004D6174657269616C206863
:1029B000656174757020706172616D6574657273A4
:1029C0003A002020473239205720490020204D343A
:1029D00032302053004175746F20426564204C658D
:1029E00076656C696E673A0020204D32303620588B
:1029F00000486F6D65206F66667365743A00204A03
:102A00000020204D323035204200416476616E63F3
:102A100065643A20423C6D696E5F7365676D656EF3
:102A2000745F74696D655F75733E20533C6D696EAC
:102A30005F66656564726174653E20543C6D696EC5
:102A40005F74726176656C5F6665656472617465FA
:102A50003E204A3C6A756E635F6465763E002020C6
:102A60004D323034205000416363656C657261748F
:102A7000696F6E2028756E6974732F7332293A203E
:102A8000503C7072696E745F616363656C3E205286
:102A90003C726574726163745F616363656C3E2050
:102AA000543C74726176656C5F616363656C3E0073
:102AB00020204D3230312058004D6178696D756DA0
:102AC00020416363656C65726174696F6E2028755F
:102AD0006E6974732F7332293A0020450020204D0F
:102AE0003230332058004D6178696D756D20666510
:102AF000656472617465732028756E6974732F73D1
:102B0000293A0053746570732070657220756E6980
:102B1000743A0020204D3134392043203B20556E3B
:102B200069747320696E2043656C736975730A005C
:102B300020286D6D29002020473231202020203BA5
:102B400020556E69747320696E206D6D00486F6D3D
:102B5000696E67204661696C6564000000FA430095
:102B600000FA430000A0400000C8410000A042005D
:102B700000A0420000C8430000D342F4010000F46A
:102B8000010000640000008813000020436F756E90
:102B90007420583A00453100626564002C20737936
:102BA0007374656D2073746F70706564212048655F
:102BB000617465725F49443A200048656174696ECA
:102BC00067204661696C65640048656174696E6779
:102BD000206661696C6564007CEA11241FBECFEF3A
:102BE000D0E4DEBFCDBF12E0A0E0B1E0EAEBF4EF4D
:102BF00001E00BBF02C007900D92AE35B107D9F7C7
:102C000020E1AEE5B2E001C01D92AD3EB207E1F7B2
:102C100015E1CDEED5E104C02197FE010E946EF7CB
:102C2000CC3ED107C9F70E94DEE50C945BFA0C9408
:102C300000002F923F924F925F926F927F928F92FD
:102C40009F92AF92BF92CF92DF92EF92FF920F933B
:102C50001F93CF93DF93CDB7DEB7EF970FB6F894FE
:102C6000DEBF0FBECDBF209156032DAB11E01093F8
:102C70005603809155038D3409F446C4843511F40C
:102C80000C948026873411F00C949B26809153037A
:102C9000909154038C31910509F4A4C18CF48430D3
:102CA000910509F4D2C01CF4029738F129C485318A
:102CB000910511F40C949D264B9709F404C120C48E
:102CC0008A32910509F4F5C244F48D31910509F475
:102CD00099C14E9709F4AAC113C48B35910509F423
:102CE00065C28C35910509F466C28A35910509F0F3
:102CF00007C4109252030C949D2680915103813099
:102D000011F00C949D26E1E4CE2EE3E0DE2EFAEAEB
:102D1000EF2EFEE0FF2EAAEBAA2EAEE0BA2E10E0B8
:102D200088E5810F0E94515D882319F10E94045BA0
:102D30002B013C01812F0E94BC57882351F0D70101
:102D40002D913D914D915C91C301B2010E9478F7A4
:102D500009C0F5012081318142815381C301B20153
:102D60000E9477F7D6016D937D938D939C93139773
:102D70000AC0F70180819181A281B381F60180832D
:102D80009183A283B3831F5FF4E0CF0ED11C24E0B4
:102D9000E20EF11C34E0A30EB11C133009F685E4F9
:102DA0000E94515D882301F10E94045B6B017C014C
:102DB00083E00E94BC57882371F02091B60E3091B9
:102DC000B70E4091B80E5091B90EC701B6010E94DE
:102DD00078F76B017C01C0924D03D0924E03E092D4
:102DE0004F03F092500310C08091B60E9091B70E31
:102DF000A091B80EB091B90E80934D0390934E03FD
:102E0000A0934F03B093500340E050E0BA0186E432
:102E10000E94884F20E030E0A9010E943FF9181677
:102E200084F40E94045B20E030E040E752E40E941A
:102E300000F8609375017093760180937701909309
:102E400078010E94C6A90C949D2680E50E94515DE0
:102E5000882329F00E94DE586B017C0103C0C12C3D
:102E6000D12C760183E50E94515D882361F00E9498
:102E7000045B20E030E04AE754E40E94E7F00E945F
:102E800079F86B017C010E945F4A8091EC0281110C
:102E900005C060E086E597E00E945FCC0E94D7B154
:102EA000C60ED71EE81EF91E0E94D7B1DC01CB0169
:102EB0008C199D09AE09BF09B7FD02C00C949D266F
:102EC0000E94463CF1CF0E945CDA81110C949D2651
:102ED0008CE0EDE7F1E0DE01119601900D928A950C
:102EE000E1F780E50E94515D882319F00E94CC5AD9
:102EF00001C060E080E090E0A8ECB2E48AA39BA36C
:102F0000ACA3BDA380E090E0A0EAB0E48E8F9F8FD9
:102F1000A8A3B9A3613019F0623039F029C0BE010D
:102F2000625E7F4FCE01099644C029853A854B8564
:102F30005C856091B20E7091B30E8091B40E909149
:102F4000B50E0E9478F76B017C0120E030E04AE783
:102F500053E40E9481F087FD06C0C12CD12C7AE792
:102F6000E72E73E4F72ECE8ADF8AE88EF98E1CC036
:102F7000E090B20EF090B30E0091B40E1091B50E29
:102F8000A984BA84CB84DC849501A601B701C80169
:102F90000E9481F087FF02C075018601C701D80138
:102FA0008E8B9F8BA88FB98FBE01625E7F4FCE0143
:102FB00046960E947BAE88E0FE013196DE01569671
:102FC00001900D928A95E1F7AE014E5D5F4FBE0113
:102FD000665E7F4FCE0146960E9459AE0E9468B051
:102FE0000C949D2680919B108770873011F00C9473
:102FF000B02660E08FE40E94795D81110C949D26DB
:103000000C94B0260E945CDA81110C949D2680916C
:10301000EB02882311F40C94CA2860E08FE40E942C
:10302000795D81110C949D260C94CA2820918E10F4
:1030300030918F1040919010509191106091AA0E94
:103040007091AB0E8091AC0E9091AD0E0E9478F70E
:10305000AB01BC0188E50E94884F69837A838B832A
:103060009C83209192103091931040919410509134
:1030700095106091AE0E7091AF0E8091B00E909150
:10308000B10E0E9478F7AB01BC0189E50E94884F20
:103090006D837E838F839887BE016B5F7F4FCE01E8
:1030A00001960E942559882311F40C949D2680E0F6
:1030B0000E946CC40E945EAD61E085E40E94795D6F
:1030C00021E0482FBE016B5F7F4FCE0101960E9429
:1030D000C0DA6B017C019B01AC010E94C5F9811132
:1030E0005FC089809A80AB80BC8020E030E0A9017D
:1030F000C501B4010E9481F087FF05C027E137EBCD
:1031000041E558EB04C027E137EB41E558E3C50141
:10311000B4010E9478F7AB01BC0182EB98E20E94F7
:1031200095C88D809E80AF80B88420E030E0A901F2
:10313000C501B4010E9481F087FF05C027E137EB8C
:1031400041E558EB04C027E137EB41E558E3C50101
:10315000B4010E9478F7AB01BC018DEA98E20E94AD
:1031600095C820E030E0A901C701B6010E9481F0B6
:1031700087FF05C067E177EB81E598EB04C067E165
:1031800077EB81E598E3A70196010E9478F7AB0100
:10319000BC0188EA98E20E9495C88AE00E941A3B26
:1031A0000E9445AD0E9468B00C949D268FE08093EC
:1031B00052030C949D2639E8232E31E0332E4DED39
:1031C000E42E42E0F42EAAEABEE0BFA3AEA35AEB7F
:1031D000C52E5EE0D52E00E010E0F10181911F01C7
:1031E0000E94515D882309F44AC00E94045B2B01B0
:1031F0003C01133049F0D6012D913D914D915C91E8
:103200000E9477F72B013C01EEA1FFA120813181C3
:1032100042815381C301B2010E9477F74B015C01E7
:103220002DEB37E346E855EB0E943FF987FD0AC0D6
:103230002DEB37E346E855E3C501B4010E9481F068
:103240001816ECF4133051F44092B60E5092B70EAB
:103250006092B80E7092B90E01E011C0A501940100
:10326000D7016D917D918D919C910E9478F7F70126
:103270006083718382839383812F0E94A6A91F5F3D
:10328000F4E0EF0EF11C2EA13FA12C5F3F4F3FA3B6
:103290002EA334E0C30ED11C143009F09ECF0023BE
:1032A00021F086EB9EE00E946F4A0E9468B00C9469
:1032B0009D2680915103813011F00C949D2689E464
:1032C0000E94515DE82E882321F00E94005B082FA8
:1032D00001C000E08AE40E94515DF82E882321F0AD
:1032E0000E94005B182F01C010E0EE2011F00330A7
:1032F00020F4FF2041F0133030F087EF96E00E9479
:10330000EEC70C949D2680E1EAEAFEE0A1E4B3E07A
:1033100001900D928A95E1F7EE2019F1602F000FD0
:10332000770B880B990B0E9488F02091CD02309189
:10333000CE024091CF025091D0020E94E7F020913E
:10334000D5023091D6024091D7025091D8020E9406
:1033500078F7609341037093420380934303909303
:103360004403FF2019F1612F110F770B880B990B84
:103370000E9488F02091D1023091D2024091D30274
:103380005091D4020E94E7F02091D9023091DA02E4
:103390004091DB025091DC020E9478F76093450374
:1033A00070934603809347039093480360E080E561
:1033B0000E94795D8823C1F1EE20D1F020918E101A
:1033C00030918F1040919010509191106091410375
:1033D0007091420380914303909144030E9477F7D8
:1033E000609341037093420380934303909344039B
:1033F000FF20D1F0209192103091931040919410C1
:103400005091951060914503709146038091470358
:10341000909148030E9477F76093450370934603A9
:10342000809347039093480340E050E0BA0186E45C
:103430000E94884F6B017C0120E030E0A9010E94CE
:103440003FF918165CF420E030E040E752E4C70191
:10345000B6010E9400F86B017C0103C0C12CD12C85
:1034600076018090750190907601A0907701B090E0
:10347000780120E030E0A901C701B6010E9481F087
:10348000882341F0C0927501D0927601E0927701D5
:10349000F0927801009121011091220184E690E0E0
:1034A0009093220180932101C0904001D09041016E
:1034B000E0904201F090430180E090E0A0E8BFE39B
:1034C0008093400190934101A0934201B093430146
:1034D0000E94C6A98092750190927601A092770110
:1034E000B09278011093220100932101C092400113
:1034F000D0924101E0924201F09243010C949D264A
:103500000E944EDA0C949D268091530390915403AF
:103510008937910509F4FCC50CF09CC08C359105E8
:1035200009F4ABC40CF04AC08934910509F48BC28C
:10353000FCF48231910509F451C46CF497FF02C088
:103540000C947D26823091050CF44AC1419709F410
:10355000A7C10C947D268A32910509F46CC2803390
:10356000910509F46CC24F9711F00C947D26B5C1FA
:103570008135910509F40CC48CF48C34910509F45F
:1035800094C28D34910509F4A5C28B34910511F0D4
:103590000C947D260E942D380C949D268335910530
:1035A00009F415C40CF40CC48435910509F416C44F
:1035B0008535910509F43EC40C947D268F3691051E
:1035C00009F40AC3C4F48B36910509F4E7C264F424
:1035D0008936910509F4AAC20CF0BCC2883691055F
:1035E00009F47CC20C947D268D36910509F49AC2AB
:1035F0000CF43DC3DEC28337910509F4CFC46CF4EB
:103600008137910509F439C30CF0C1C441E060E091
:1036100070E081EA96E00E94CEC88637910509F4F1
:103620003AC534F48537910509F421C50C947D26FB
:103630008737910509F469C58837910511F00C9415
:103640007D2681E08093EA028093E9020E9449B1DD
:103650000C949D268E3241E0940711F40C949A2428
:103660000CF055C08D3C910509F42DC6FCF48E3B41
:10367000910509F451C374F48139910509F44FC5DA
:103680008B39910509F45DC38C38910511F00C94C8
:103690007D261DC38B3C910509F4C2C50CF0DFC526
:1036A000893C910509F496C50C947D268D3D9105C4
:1036B00009F423C79CF4833D910509F431C68C3D80
:1036C000910509F4F3C68E3C910511F00C947D260A
:1036D00048E8E42E42E0F42E10E010C68831A1E064
:1036E0009A0709F49FC734F4823E910509F44FC745
:1036F0000C947D268232E1E09E0711F40C94A923FC
:103700008D32914011F40C941A240C947D268C3A3D
:1037100021E0920711F40C94582574F5823941E0A8
:10372000940711F40C94EB2494F48039A1E09A07E7
:1037300011F40C94DE2414F00C94E1248F329140A7
:1037400011F00C947D260E949F4F0C949D26843A84
:10375000F1E09F0711F40C94F024853A21E09207E0
:1037600011F40C94F3248A39914011F00C947D26C5
:103770000E946D380C949D26873F41E0940711F418
:103780000C94BC2594F4853FA1E09A0711F40C94A5
:10379000B62514F00C94B925843F914011F00C9497
:1037A0007D260E946A690C949D268335F3E09F076D
:1037B00011F40C94D5253CF4883F914011F40C94FD
:1037C000C4250C947D26843843E0940711F40C94AE
:1037D0000626873E934011F40C946F260C947D26A8
:1037E00080E50E94515D882329F00E94DE586B011C
:1037F0007C0103C0C12CD12C760183E50E94515D70
:10380000882361F00E94045B20E030E04AE754E442
:103810000E94E7F00E9479F86B017C010E945F4AE8
:103820008091CB029091CC02009739F020919A10B0
:10383000211108C00E943ECC05C060E084EE96E0F5
:103840000E945FCC1091560383E08093560381E081
:103850008093CA02C114D104E104F10431F00E9442
:10386000D7B1C60ED71EE81EF91E8091CA02882362
:1038700011F40C94D128C114D104E104F10411F421
:103880000C94CD280E94D7B1DC01CB018C199D0985
:10389000AE09BF09B7FF02C00C94CD280C94D12803
:1038A0008091C60284FF02C00C94D8288091C8027F
:1038B00087FF02C00C94D8288091C902837011F050
:1038C0000C94D82860E08BED96E00E945FCC5E9867
:1038D0005E9815985E980C949D260E945BCA7B01A9
:1038E0008C0120E831E541E050E00E94D7F6C901A3
:1038F0006DE671E00E9446F74B015C01C801B7011B
:1039000020E13EE040E050E00E94D7F6CA01B90154
:1039100028E130E040E050E00E94D7F6762E672E96
:10392000C62ED72E2CE3222E312C412C512CC8012F
:10393000B701A20191010E94D7F6F62EE72ECA0127
:10394000B901A20191010E94D7F6CB018E010F5F50
:103950001F4F8114910499F0EF92FF927F936F9320
:103960006F927F92BF92AF929F928F928AEB96E076
:103970009F938F931F930F930E9419F013C0A1146C
:10398000B104B1F0EF92FF927F936F936F927F92A9
:10399000BF92AF928EEB96E09F938F931F930F93FE
:1039A0000E9419F00FB6F894DEBF0FBECDBF30C035
:1039B000CD2879F0EF92FF927F936F936F927F9271
:1039C00082EC96E09F938F931F930F930E9419F0C0
:1039D000E9CF892B69F0EF92FF927F936F9386EC8A
:1039E00096E09F938F931F930F930E9419F0DACF65
:1039F000EF92FF928AEC96E09F938F931F930F9321
:103A00000E9419F00F900F900F900F900F900F9051
:103A100080919A10811103C0C8010E943ECC0E947F
:103A2000CAC8B8018EEC96E00E94B3C88AE00E9432
:103A30001A3B0C949D260E94D8570C949D260E94F8
:103A400082CF0C949D2680E50E943B5B8823A1F0E9
:103A50000E94045B20E030E048EC52E40E94E7F072
:103A60000E9479F8603137E2730710F060E177E285
:103A70007093C1026093C00282E50E943B5B882381
:103A800011F40C949D260E94DE589B01AC01ACE31E
:103A9000B0E00E9418F76093C2027093C302809353
:103AA000C4029093C5020C949D2680919F10813092
:103AB00011F00C949D2682E080939F100E94D7B154
:103AC0006093BC027093BD028093BE029093BF02CC
:103AD0000C949D260E94AACA0C949D268091850B69
:103AE00083FF02C00C949D260E94955587FF02C05B
:103AF0000C949D2683E50E94515D882379F00E94F5
:103B0000045B0E9472F8CB010E94ABA30E9425A621
:103B1000811104C00E94AACA0E943DDA0E9486490F
:103B20000C949D260E94BE550C949D260E9495558E
:103B3000182F87FD0AC089E992E00E94EEC7812F05
:103B40000E94BBA38AE00E941A3B4DA940935603F2
:103B50000C94A52C60E080E50E946D5D81110C94B1
:103B60009D2681E40E943B5B882321F060910D0536
:103B7000062F02C00FEF10E083E50E94515D8823FD
:103B800049F00E94CC5A8B016F3F710519F010F07B
:103B90000FEF10E000930D050C949D2660E080E58A
:103BA0000E946D5D81110C949D2610920D050C9460
:103BB0009D268EE40E94515D882311F40C949D266D
:103BC0000E94CC5A6093B8027093B9028093BA02F3
:103BD0009093BB020C949D2683E50E943B5B882357
:103BE00031F060E083E50E946D5D8093850B0E945B
:103BF000CAC883EB96E00E94EEC78091850B8823AC
:103C000069F197E7E92E97E0F92E00E010E020E057
:103C10008091850B90E0A0E0B0E0002E04C0B69546
:103C2000A795979587950A94D2F780FF0EC0DD245B
:103C3000D394D20E222319F08CE20E941A3BF70192
:103C4000859194910E94EEC72D2D0F5F1F4F52E07A
:103C5000E50EF11C05301105D9F604C08FEA96E097
:103C60000E94EEC78AE00E941A3B0C949D26109297
:103C7000CA02109220010C949D2683E50E94515D9A
:103C8000882381F00E94DC5A282F30E02D33310543
:103C900024F480931F010C949D268CE380931F01D4
:103CA0000C949D260E94CAC8C0901F01D12CE12C03
:103CB000F12C8AE996E00E94EEC74AE0C701B601FE
:103CC0000E94213B8AE00E941A3B0C949D26809121
:103CD000850B83FF02C00C949D2683E50E94515DF5
:103CE000882379F00E94045B0E9472F863377105A3
:103CF00014F063E770E07093B6026093B5020E941F
:103D00000CA20E9425A681110C949D260E94AACA8D
:103D10000E943DDA0C949D268091850B83FF02C0A2
:103D20000C949D2683E50E94515D8EAB81110C940D
:103D3000EA2882E50E94515D81110C94EA280C94D6
:103D40009D2683E50E94515D882311F40C949D26E5
:103D50000E94DC5A182F90E0CD970CF01CE31093D2
:103D6000A8020E94D7B16B017C01212F30E0A8EEA0
:103D7000B3E00E942BF7C60ED71EE81EF91EC092B4
:103D8000A402D092A502E092A602F092A702D5C7A3
:103D90000E9438A60E94AACA0E941E4C0E94D557B3
:103DA0001092A3021092A20268EE73E080E090E00D
:103DB0000E94ACC760E082E796E00E945FCCBDC77E
:103DC000809152038F7D806180935203B6C78091AA
:103DD00052038F7E806280935203AFC783E50E94B7
:103DE000515D882399F00E94045B20E030E04AE7AF
:103DF00054E40E94E7F00E9479F860931B017093ED
:103E00001C0180931D0190931E0197C78091C602EB
:103E100084FF02C00C94692A8091C80287FF02C007
:103E20000C94692A8091C902837011F00C94692A5C
:103E30000C948E2A83E50E943B5B882309F47DC79E
:103E40000E94D7B16093A9027093AA028093AB023B
:103E50009093AC020E94045B20E030E04AE754E417
:103E60000E94E7F00E9479F860939E0270939F028F
:103E70008093A0029093A10260C70E94955587FD90
:103E80005CC79091C60294FD04C09091C80297FF50
:103E90000AC0B9E8CB2EB1E0DB2E16E8E12E1BE01C
:103EA000F12E10E009C09091C902937091F7682F2C
:103EB00081E00E94A35841C7D6018D916D010E94F7
:103EC000515D882309F459C0133009F04FC00E9496
:103ED000045B4B015C0120E030E040EA51E40E94C9
:103EE00081F087FF3AC0A50194016091A60B709103
:103EF000A70B8091A80B9091A90B0E9400F82B01B1
:103F00003C019B01AC016091B60B7091B70B8091A5
:103F1000B80B9091B90B0E94E7F06093B60B7093C9
:103F2000B70B8093B80B9093B90B6091FD0470911F
:103F3000FE048091FF04909100050E9486F0A30189
:103F400092010E94E7F00E9479F86093FD0470935B
:103F5000FE048093FF04909300058092A60B90923C
:103F6000A70BA092A80BB092A90B07C00E94045BFC
:103F7000F701648B758B868B978B1F5FF4E0EF0ED8
:103F8000F11C143009F098CF0E943B4AD6C60E941B
:103F900090D688E39FE00E944FE5CFC680EB95E086
:103FA0000E94EEC760E080EA95E00E947B5560E0E9
:103FB0008BE895E00E947B5561E084E895E00E94E3
:103FC0007B5560E089E795E00E947B5561E089E6DA
:103FD00095E00E947B5560E080E695E00E947B556D
:103FE00061E086E595E00E947B5561E08CE495E018
:103FF0000E947B5561E084E495E00E947B5561E07E
:1040000086E395E00E947B5561E088E295E00E949E
:104010007B5560E089E195E00E947B5560E08BE094
:1040200095E00E947B5560E085EF94E00E947B550F
:1040300060E084EE94E00E947B5560E085ED94E0C2
:104040000E947B5560E080EC94E00E947B5561E02B
:104050008DEA94E00E947B5560E080EA94E00E9443
:104060007B5560E08CE894E00E947B5566C68091A9
:10407000CB029091CC02009759F0DC012C912223C5
:1040800039F020919A10211158C60E943ECC55C695
:104090000E943DDA52C60091CB021091CC0294E00E
:1040A000F12C40E0915021F1F8018081282F2B7FE5
:1040B000213421F421812133D9F407C08035C1F4A2
:1040C000818180538A3048F013C0813421F08534D7
:1040D00021F441E002C0FF24F39498012E5F3F4F8A
:1040E00089012F5F3F4FF80180818032C9F3DACF19
:1040F00041110E94CAC8FF2021F088E894E00E9484
:10410000EEC7C8010E94253C18C60E94FAB015C629
:104110001092EA021092E9020E9449B10EC660E0D4
:1041200070E083E50E945E5D8C011127023011056D
:104130003CF00E94C6C886E694E00E94EEC7FDC52A
:1041400088E40E94515D8823A9F00E94005B8A3AAE
:1041500091053CF08530F1E09F072CF084E091E080
:1041600002C08AEA90E0F801EE0FFF1FE656FD4F0D
:104170009183808386E40E94515D882381F00E94B0
:10418000005B97FD07C08F3F910529F024F08FEF6A
:1041900090E001C080E0F801E856FD4F808382E4A2
:1041A0000E94515D882309F4C8C50E94005B8530D8
:1041B000910534F0843791052CF083E790E002C03C
:1041C00085E090E0000F111FF801EC56FD4F918340
:1041D0008083B3C50E94955587FDAFC569E8E62E7B
:1041E00061E0F62E06E81BE076E9C72E7BE0D72ECD
:1041F000D7018D917D010E943B5B882359F00E947D
:10420000045B0E9479F8F801608371838283938351
:104210000E94C4490C5F1F4FC016D10649F78DC5D7
:104220000E94955587FD89C559E8E52E51E0F52E88
:1042300006E81BE0D7018D917D010E943B5B88233E
:1042400039F00E94045BF80164A375A386A397A3C9
:104250000C5F1F4FFBE006391F0761F76EC58091A9
:10426000C70287FF02C00C94912A8091C8028E7009
:1042700011F00C94912A4091BA0B5091BB0B6091B4
:10428000BC0B7091BD0B86E594E00E9495C84091EF
:10429000BE0B5091BF0B6091C00B7091C10B83E5B9
:1042A00094E00E9495C84091C20B5091C30B60915D
:1042B000C40B7091C50B80E594E00E9495C88AE01C
:1042C0000E941A3B3AC58091C60281FF02C00C943D
:1042D000D72A8091C70281FF02C00C94D72A80910F
:1042E000C8028C7011F00C94D72A27C51F5FB4E068
:1042F000EB0EF11C133011F40C94551988E5810F65
:104300000E943B5B882391F30E94045BD7016D936D
:104310007D938D939C931397812F0E94A6A9E6CF3E
:104320004090BA0E5090BB0E6090BC0E7090BD0EC7
:104330002091030130910401409105015091060143
:10434000C301B2010E9478F76EA37FA388A799A743
:104350008090BE0E9090BF0EA090C00EB090C10E87
:1043600020910701309108014091090150910A0103
:10437000C501B4010E9478F76AA77BA78CA79DA707
:10438000C090C20ED090C30EE090C40EF090C50E47
:1043900020910B0130910C0140910D0150910E01C3
:1043A000C701B6010E9478F76EA77FA788AB99ABCB
:1043B00020910F0130911001409111015091120193
:1043C000C301B2010E9478F72B013C012091130137
:1043D000309114014091150150911601C501B401AD
:1043E0000E9478F74B015C01209117013091180170
:1043F0004091190150911A01C701B6010E9478F746
:104400006B017C010E94CAC881E294E00E94EEC761
:1044100083E50E943B5B882321F00E94F05A809341
:10442000020180910201882319F088E596E202C01A
:104430008CEA95E00E94EEC789E194E00E94EEC705
:104440004EA15FA168A579A586EB9AE20E9495C866
:104450004AA55BA56CA57DA587EA95E20E9495C853
:104460004EA55FA568A979A980EA95E20E9495C842
:1044700089E39BE10E94EEC781E194E00E94EEC7D0
:10448000B301A20186EB9AE20E9495C8B501A4018E
:1044900087EA95E20E9495C8B701A60180EA95E2F5
:1044A0000E9495C88AE00E941A3B47C483E50E9497
:1044B000515D882331F00E94005B9093220180932C
:1044C00021018091C6029091C702A091C802B091CB
:1044D000C902892B8A2B8B2B09F02FC460912101F3
:1044E000709122018DE094E00E94A6C885E20E94AE
:1044F0001A3B8AE00E941A3B20C40E949555F82E70
:1045000087FD1BC483E50E94515D0F2D0F2C000C0D
:10451000110B882309F10E94005BF801EE0FFF1FC9
:10452000E050FF4F91838083000F111F000F111F78
:10453000005C1E4FBC01990F880B990B0E9488F0FC
:104540002AE037ED43E25CE30E94E7F0F801608384
:10455000718382839383F1C30E94CAC885E40E9459
:104560001A3B80E38F0D0E941A3B000F111FF801C8
:10457000E050FF4F6081718185E094E00E94A6C801
:1045800085E20E941A3B8AE00E941A3BD6C380E56E
:104590000E943B5B882309F4D0C360E070E080E5B3
:1045A0000E945E5DF82E6FEF7FEF83E50E945E5DF7
:1045B0008C010196039708F0C0C3F7FCBEC38F2D92
:1045C0000E949238882339F00E94C6C886EF93E093
:1045D0000E94EEC7B2C30E945F4A60E08F2D0E9426
:1045E000A0BA0F3FFFEF1F0731F00130110571F046
:1045F00000E010E00DC08F2D0E9448BA31E020E0AD
:10460000892B09F030E0032F122F02C001E010E0E7
:104610008F2D0E9448BA8017910709F48EC30E941B
:10462000463CF6CF80E50E943B5B882309F485C3B6
:104630000E94005B8C01892B09F07FC083E50E94FA
:104640003B5B882389F00E94005B8F3F2FEF92072E
:1046500029F48CE09FE00E94B7386FC3BC018CE066
:104660009FE00E94663969C30E94CAC860E070E09A
:104670008EEE93E00E94A6C880910E0F28E532E0EE
:104680006901C81AD10887FDD394CC0CDD1CCC0C71
:10469000DD1C0D2C000CEE08FF0880910D0F28E8A2
:1046A00030E04901881A910887FD9394880C991C81
:1046B000880C991C092C000CAA08BB0880910C0FCF
:1046C0008F3FC1F090E0FC01EE0FFF1F8E0F9F1F88
:1046D000FC01E951F14F2181328173E0220F331F38
:1046E0007A95E1F7E4E036952795EA95E1F72E5FB4
:1046F0003F4F02C020E030E02F5F3F4FC901330F32
:10470000AA0BBB0B9C01AD01281939094A095B09A9
:10471000A4EBB0E00E9418F7A70196012819390907
:104720004A095B090E94F9F6B90187EB9BE20E94F6
:10473000A6C88AE00E941A3B00C30E94C6C8B801FE
:104740008FEE93E00E94A6C88FED93E00E94EEC723
:10475000F4C28AE50E94515D811106C083E50E9482
:10476000515D882309F44BC00E94045B20E030E0D7
:1047700040E050EC0E9481F087FDA2C70E94045BDC
:1047800020E030E040E050E40E943FF918160CF4BD
:1047900091C70E94045B6B017C0180918C1086950F
:1047A000869580FF22C02091A20B3091A30B4091EF
:1047B000A40B5091A50BC701B6010E94E7F00E941F
:1047C00072F82091860230918702260F371F3093AE
:1047D0008702209386022091840230918502620F25
:1047E000731F709385026093840280E50E943B5B97
:1047F000882309F46BC70E94F05A811167C7809122
:10480000C80287FD89C78091C902837009F084C7F7
:104810000E94CAC8409196105091971060919810CC
:104820007091991080EC93E00E9495C88AE00E94F4
:104830001A3B83C260E085E40E946D5D811173C004
:1048400080E50E943B5B882351F00E94045B6093EB
:10485000DB0E7093DC0E8093DD0E9093DE0E89E408
:104860000E943B5B882381F00E94045B2CEA35ECBC
:1048700047E25EE30E94E7F06093DF0E7093E00E84
:104880008093E10E9093E20E84E40E943B5B8823C8
:1048900081F00E94045B2CEA35EC47E25EE30E9463
:1048A00000F86093E30E7093E40E8093E50E90930E
:1048B000E60E0E94CAC84091DB0E5091DC0E60915A
:1048C000DD0E7091DE0E8CEB93E00E9495C82CEA11
:1048D00035EC47E25EE36091DF0E7091E00E80916F
:1048E000E10E9091E20E0E9400F8AB01BC0188EB52
:1048F00093E00E9495C82CEA35EC47E25EE36091B4
:10490000E30E7091E40E8091E50E9091E60E0E9408
:10491000E7F0AB01BC0184EB93E00E9495C88AE00C
:104920000E941A3B0AC20E94C6C882EA93E00E9413
:10493000EEC703C283E50E943B5B182F882371F00A
:104940000E94045B0E9472F87093450160934401D9
:1049500021E0672B09F020E020931E0580E50E94EE
:104960003B5B882359F02091440130914501232B72
:1049700011F00E94F05A80931E05DFC11111DDC1B4
:104980000E94CAC88FE893E00E94EEC780911E057E
:10499000882319F088E29AE102C086E793E00E943A
:1049A000EEC760914401709145018EE793E00E944B
:1049B000A6C88AE793E00E94EEC7BFC10E945F4A83
:1049C000BCC180918D1081110C94551981E00E9419
:1049D00045480C9455190E941C590E9468B0ADC1FD
:1049E0000E94845BAAC16FEF7FEF89E40E945E5D45
:1049F000182F6FEF7FEF8AE40E945E5D082F8AE533
:104A00000E943B5BF82E811105C081E50E943B5B53
:104A1000D82E01C0D12C17FD06C007FD04C0F1102F
:104A200009C0D11007C00E94C6C886E593E00E9465
:104A3000EEC783C1133010F4033038F00E94C6C8AB
:104A400087EF96E00E94EEC778C1E12E110FFF08B4
:104A5000002E000C110B0E94045BD701AA0FBB1F94
:104A6000DD2081F0FD01EE0DFF1DE00FF11FEE0FC7
:104A7000FF1FEE0FFF1FE05AFD4F20813181428161
:104A8000538103C020E030E0A901EA0EFB1E0E0DA9
:104A90001F1D000F111F000F111F005A1D4F0E94F4
:104AA00078F7D8016D937D938D939C93139745C1AF
:104AB0000E945CDA811141C10FE517E0EAEAFEE0ED
:104AC000FFA3EEA39E012F5F3F4F19019DE8C92E62
:104AD00097E0D92E7901F8016591759185919491AE
:104AE000AEA1BFA18D909D90AD90BD90BFA3AEA390
:104AF000A50194010E9477F72B013C01F701608327
:104B000071838283938320E030E040EA51EC0E947D
:104B10003FF987FD0AC020E030E040EA51E4C301DC
:104B2000B2010E9481F018162CF4F6018491181637
:104B30000CF4F8C5D7018D909D90AD90BD907D018E
:104B400020E030E040EA51ECC501B4010E943FF999
:104B500087FDF3C520E030E040EA51E4C501B4012F
:104B60000E9481F018160CF0F6C5E7C50E94F1DE30
:104B7000E4C00E94CADDE1C061E083E50E94795D86
:104B800081270E94FFDED9C081E080935F020E94EE
:104B9000756310925F02882309F4CFC00E94CAC8CF
:104BA0008FE093E00E94EEC7C8C08091C80287FDE5
:104BB000FCC58091C902837009F0F7C540918E1041
:104BC00050918F10609190107091911080E093E05F
:104BD0000E9495C84091921050919310609194104A
:104BE0007091951087EA95E20E9495C840919610C1
:104BF00050919710609198107091991080EA95E209
:104C00000E9495C88AE00E941A3B97C0A0901F0599
:104C1000B0902005C0902105D09022058BE40E9421
:104C2000515D882339F10E94045B7B018C0120E0F7
:104C300030E0A9010E943FF987FD0AC020E030E082
:104C400040E251E4B701C8010E9481F01816A4F4B3
:104C50008FE30E941A3B8BE40E941A3B84EA92E0A5
:104C60000E94EEC78CE992E00E94EEC789E798E2C5
:104C70000E94EEC7750186019701A801B501C60122
:104C80000E9481F0882361F00E945F4AC701D80129
:104C900080931F0590932005A0932105B0932205D2
:104CA0008091C6029091C702A091C802B091C9023A
:104CB000892B8A2B8B2B09F040C00E94CAC84091D7
:104CC0001F0550912005609121057091220588EB08
:104CD00092E00E9495C88AE00E941A3B2EC081E0B3
:104CE0008093510310929A1060E083E50E94795DF1
:104CF000811123C00E949C5320C00E944EDA1DC027
:104D000000915303109154030023B9F00E94CAC8C4
:104D100084E50E941A3BB8017727072E000C880B08
:104D2000990B0E948E3B80E20E941A3B82EA93E03C
:104D30000E94EEC702C00E944EDAE0915E02F0E0EF
:104D4000E857F04F8081882339F089E992E00E948A
:104D5000EEC78AE00E941A3BFDA9F0935603F5C501
:104D60000E945F4A2091EB022BAB80E00E946CC452
:104D70000E945EAD81E08093EA020E9449B188E51D
:104D80000E943B5B182F89E50E943B5B082F8AE558
:104D90000E943B5B1013F0C1181711F0012FECC1FA
:104DA00001E011E041E04EA780E1EAEAFEE0A1E483
:104DB000B3E001900D928A95E1F782E50E94515D82
:104DC000882369F00E94045B6B017C0120E030E0E5
:104DD000A9010E9481F0882309F43FC006C0C12CBC
:104DE000D12C60EAE62E60E4F62E111103C00023F8
:104DF00009F40AC180918C1082FD09C02091B20E85
:104E00003091B30E4091B40E5091B50E03C020E026
:104E100030E0A901C701B6010E9478F76093490309
:104E200070934A0380934B0390934C032091B20EEE
:104E30003091B30E4091B40E5091B50E0E943FF9DF
:104E400018165CF419821A821B821C82BE016F5FE5
:104E50007F4F89E493E00E947BAE112309F4CFC019
:104E6000002309F4C9C01092AA0E1092AB0E109242
:104E7000AC0E1092AD0E1092AE0E1092AF0E1092BC
:104E8000B00E1092B10E0E942AAFEDE8F7E05491F7
:104E90005CABEBE6F7E0C590D590E590F490EFE6DB
:104EA000F7E085909590A590B490A5019401C70175
:104EB000B6010E943FF918162CF4A7019601C5010E
:104EC000B40104C0A5019401C701B6010E9400F815
:104ED0002B013C01E5E8F7E085919591A591B4910E
:104EE0008EA39FA3A8A7B9A7E1E8F7E02591359184
:104EF000459154912AA73BA74CA75DA7BC01CD01C2
:104F00000E943FF9181634F42AA43BA43CA53AABFE
:104F10001DA505C02EA03FA048A54AAB19A5A30119
:104F20009201C301B2010E94E7F020E030E040E8C6
:104F30005FE30E9478F70E9485F991014AA9512FF9
:104F40000E94E7F06E8F7F8F88A399A3EEE8F7E0C9
:104F5000149120E030E040EC5FE3C501B4010E9411
:104F6000E7F04B015C01612F110F770B880B990B58
:104F70000E9488F09B01AC01C501B4010E94E7F0DA
:104F800069837A838B839C8320E030E040EC5FE38D
:104F9000C701B6010E94E7F06B017C015CA9652F97
:104FA000550F770B880B990B0E9488F09B01AC0181
:104FB000C701B6010E94E7F06E8B7F8B888F998FB7
:104FC000AE01425E5F4FBE016F5F7F4FCE014696DE
:104FD0000E9459AE0E94BCDD1092AA0E1092AB0E38
:104FE0001092AC0E1092AD0E1092AE0E1092AF0E4B
:104FF0001092B00E1092B10E80E00E942CAF0023F0
:1050000019F081E00E942CAF8EA5882309F4A3C07B
:1050100080E00E94F96280918C108370833051F09F
:1050200060E088E497E00E945FCC0E94CAC889E3F0
:1050300097E0ADC00E942AAF4090B20E5090B30EE0
:105040006090B40E7090B50E20918E1030918F103C
:10505000409190105091911060E070E08AEE92E4DF
:105060000E9477F76B017C016093410370934203C8
:1050700080934303909344032091921030919310B6
:10508000409194105091951060E070E08AEE92E4A7
:105090000E9477F74B015C016093450370934603D0
:1050A0008093470390934803209196103091971076
:1050B0004091981050919910C301B2010E9477F766
:1050C0006093490370934A0380934B0390934C037E
:1050D00027E137EB41ED58EBC501B4010E943FF9E0
:1050E00087FD4CC027E030E04BE653E4C501B40136
:1050F0000E9481F018160CF441C027E137EB41ED16
:1051000058EBC701B6010E943FF987FD37C027E081
:1051100030E04BE653E4C701B6010E9481F0181657
:105120006CF11E8A1F8A188E198E88E0E1E4F3E084
:10513000DE01119601900D928A95E1F7AE014A5E6B
:105140005F4FBE016B5F7F4FCE0101960E9459AE4B
:1051500082E00E942CAF0E942AAF8091E9028093E6
:10516000EA028BA90E946CC40E9445AD83E0809343
:1051700023010E9468B0E1CD8EA716CE60E088E2E0
:1051800097E00E945FCC0E94CAC886E197E00E9427
:10519000EEC7E1CF0E948E5DD0CD0E94463C0C94BC
:1051A000351C1092CA02109356030E943DDAC5CDF9
:1051B00088E50E943B5B81115E9889E50E943B5B1C
:1051C00081115E988AE50E943B5B882309F4B5CD86
:1051D0001598B3CD0E94045B0E9472F86337710585
:1051E0000CF074C17093B6026093B5020E940CA2D9
:1051F0000E9425A681110E942D386091B502709100
:10520000B602072E000C880B990B0E9488F02091A3
:10521000B1023091B2024091B3025091B4020E94A7
:105220003FF918161CF48BE896E002C08CE796E074
:1052300060E00E945FCC81E0809320011AA61BA64B
:105240001CA61DA61FAA18AE19AE1AAE1EA21CAE31
:105250008CE38DAF9CE19EAFA6E4AFAFC12CD12C07
:1052600000E8E02E8FEBF82EB1E0BBAF812C912C43
:1052700054016091B5027091B602072E000C880BA4
:10528000990B0E9488F0162F072F782E692E960111
:10529000A7010E9481F0882311F12091B102309181
:1052A000B2024091B3025091B402EEA9612F702F67
:1052B000872D962DE11107C00E9481F0881F882755
:1052C000881F8EA312C00E9481F087FF0DC08091BD
:1052D0002001882309F431CD0E943DDA2ECD1C2D0A
:1052E0000D2D7E2C6F2C01C01EA20E94D7B16B0128
:1052F0007C01DC01CB012FA938AD49AD5AAD821B31
:10530000930BA40BB50BB7FD33C0D701C601885171
:105310009C4FAF4FBF4F8FAB98AFA9AFBAAF80E0F4
:105320000E94BBA38FE692E00E94EEC78114910415
:10533000A104B104B9F0D501C401805F984DAF4F0D
:10534000BF4FBC01CD016C197D098E099F0928EE64
:1053500033E040E050E00E94D7F6CA01B9010E9454
:105360008E3B03C08FE30E941A3B8AE00E941A3BE7
:105370000E94463C0E94D7B16093A9027093AA0292
:105380008093AB029093AC029091B1029EA7A09142
:10539000B202AAABB091B302BBABE091B402ECABEA
:1053A000292F3A2F4B2F5E2F612F702F872D962D8F
:1053B0000E9477F71B012C0120E030E0A9010E9438
:1053C0003FF987FF04C057FA509457F8509481145E
:1053D0009104A104B104B1F420E030E040E85FE3BF
:1053E000C201B1010E9481F087FF18C0FBAD4601E8
:1053F0005701FF2399F020E1820E27E2921EA11CA3
:10540000B11C0CC020E030E040E450E4C201B10126
:105410000E943FF9181614F4460157013EA13323A8
:10542000C1F18AA59BA5ACA5BDA5892B8A2B8B2B89
:1054300061F0D701C6012AA53BA54CA55DA5821B3D
:10544000930BA40BB50BB7FD24C02EA53AA94BA90D
:105450005CA96CAD7DAD8EAD9FAD0E9477F720E06D
:1054600030E040EC5FE30E9481F087FD30CFD70150
:10547000C601805A9541AF4FBF4F8AA79BA7ACA7E3
:10548000BDA79EA59CAFAAA9ADAFBBA9BEAFECA915
:10549000EFAF80912001882309F419CF8114910482
:1054A000A104B10431F41BAEC12ED02EE72CF62C92
:1054B000E0CEF0E1CF1AF7E2DF0AE108F108C81800
:1054C000D908EA08FB08F7FCEECF01CF63E770E0EC
:1054D00089CE0E945F4A88E50E943B5B882331F0B9
:1054E0005E9A80918C108E7F80938C1089E50E944B
:1054F0003B5B882331F05E9A80918C108D7F809386
:105500008C108AE50E943B5B882309F416CC159A1F
:1055100080918C108B7F80938C100FCC0E941E4C3E
:105520000CCC83E50E94515D882391F00E94045BBE
:105530006093BA0B7093BB0B8093BC0B9093BD0B25
:105540006093C20B7093C30B8093C40B9093C50BF5
:1055500080E50E94515D882351F00E94045B6093B6
:10556000BA0B7093BB0B8093BC0B9093BD0B82E581
:105570000E94515D882351F00E94045B6093BE0B32
:105580007093BF0B8093C00B9093C10B84E50E9476
:10559000515D882309F4D1CB0E94045B6093C20B58
:1055A0007093C30B8093C40B9093C50BC6CB82E45E
:1055B0000E943B5B882351F00E94DE586093960B5B
:1055C0007093970B8093980B9093990B83E50E94AF
:1055D0003B5B882351F00E94045B6093C60B709381
:1055E000C70B8093C80B9093C90B84E50E943B5B6B
:1055F000882351F00E94045B6093CA0B7093CB0B1D
:105600008093CC0B9093CD0B8AE40E943B5B882364
:1056100009F493CB0E94045B6B017C012AE037ED17
:1056200043E25CE30E943FF987FD3DC02AE939E986
:1056300049E95EE3C701B6010E9481F018169CF1AA
:10564000C092ED04D092EE04E092EF04F092F004E8
:105650006091920B7091930B8091940B9091950BAC
:105660000E9486F04B015C0123EF34E045E35FE3E9
:10567000C701B6010E94E7F09B01AC01C501B4016E
:105680000E94E7F029E732E84AE550E40E94E7F09B
:105690000E9485F9609305057093060580930705C0
:1056A000909308054ACB0E94C6C881E394E00E940B
:1056B000EEC743CBC12CD12CE12C50E4F52E6DC8A4
:1056C000C12CD12CE12C40ECF42E67C8A701960127
:1056D0006091961070919710809198109091991008
:1056E0000E9478F7609396107093971080939810AB
:1056F000909399100E94CAC84091961050919710AB
:1057000060919810709199108FEC93E00E9495C869
:105710008AE00E941A3B73C882E50E943B5B8111BC
:1057200077C80BCBB7FAB094B7F8B094D7018D9285
:105730009D92AD92BC921397FDC90E94C6C888E3A2
:1057400093E00E94EEC761E08AE293E00E945FCCA2
:105750000E94B499F2CA0C5F1F4FBFEFCB1ADB0A4D
:10576000EBE6F7E0E017F10709F0B5C988E8E82EA5
:1057700082E0F82E10E0F10181919191A191B19117
:105780001F01F70181939193A193B1937F01812F21
:105790000E94A6A91F5F133071F70E9468B060E0F5
:1057A0008AE193E00E945FCCC8CAF0918E10FEA3FC
:1057B00080908F1070909010609091105090921087
:1057C000409093103090941020909510C0909610B7
:1057D000D0909710E0909810F090991088E50E9472
:1057E000515D882361F10E94045B5B018C0120E024
:1057F00030E04BE653EC0E943FF987FD0AC020E001
:1058000030E04BE653E4B501C8010E9481F0181660
:1058100094F46BEE70E08DEE92E00E94A6C86BEE01
:1058200070E088EE92E00E94A6C885E894E00E94AD
:10583000EEC710E005C0AEA28B2C702E612E11E0D9
:1058400089E50E94515D882381F10E94045B962EB8
:10585000A72EB82E092F20E030E04BE653EC0E9433
:105860003FF987FD0CC020E030E04BE653E4692DA2
:105870007A2D8B2D902F0E9481F0181694F46BEEE8
:1058800070E085ED92E00E94A6C86BEE70E088EEB5
:1058900092E00E94A6C885E894E00E94EEC710E05E
:1058A00004C0592C4A2C3B2C202E8AE50E94515DC5
:1058B000882339F10E94045B6B017C0120E030E019
:1058C00040EA51EC0E943FF987FD0AC020E030E039
:1058D00040EA51E4C701B6010E9481F018168CF429
:1058E0006CEE7FEF83EC92E00E94A6C864E170E06A
:1058F00088EE92E00E94A6C885E894E00E94EEC778
:105900001CCA112309F419CA8EA1982DA72DB62DF2
:1059100080938E1090938F10A0939010B09391105D
:10592000852D942DA32DB22D8093921090939310DA
:10593000A0939410B0939510C0929610D0929710A7
:10594000E0929810F0929910F8C9EF960FB6F8947B
:10595000DEBF0FBECDBFDF91CF911F910F91FF90A2
:10596000EF90DF90CF90BF90AF909F908F907F90FF
:105970006F905F904F903F902F9008952F923F929D
:105980004F925F926F927F928F929F92AF92BF924F
:10599000CF92DF92EF92FF920F931F93CF93DF93FB
:1059A000CDB7DEB764970FB6F894DEBF0FBECDBF9C
:1059B0008FEF9FEF90938900809388000AE009831E
:1059C000212C312C78948091A7039091A803A09169
:1059D000A903B091AA03892B8A2B8B2B71F080919C
:1059E0002C0190912D01A0912E01B0912F01892BB6
:1059F0008A2B8B2B09F075C2D2C18091A610882307
:105A0000D1F01092A6108091A4109091A510892B2E
:105A100031F310925F031092A5101092A410909190
:105A2000120F8091130F9817D1F28091130F8F5F8F
:105A30008F708093130F8091A4109091A510892BE3
:105A400071F24091A3035091A4036091A50370915A
:105A5000A60380919F039091A003A091A103B09110
:105A6000A2030091950310E020E030E0841B950B29
:105A7000A60BB70B081719072A073B0710F4D90123
:105A8000C801E82F840F951FA61FB71F8093A3039B
:105A90009093A403A093A503B093A6031C8A1B8A2A
:105AA000F1E000916A0310916B0320916C03309137
:105AB0006D0380917A0390917B03A0917C03B09158
:105AC0007D03080F191F2A1F3B1F00937A031093B1
:105AD0007B0320937C0330937D0337FD31C080919D
