:100000000C9408150C9432150C9432150C9432157E
:100010000C946ECC0C946ECC0C946ECC0C946ECC78
:100020000C9432150C942C570C9432150C943215F8
:100030000C9432150C94F5860C9432150C943215F0
:100040000C9432150C94809F0C94E2560C9432154B
:100050000C94483C0C943E3C0C9432150C94321594
:100060000C9432150C9432150C9432150C943215F4
:100070000C9432150C9432150C9432150C943215E4
:100080000C9432150C9432150C9432152427292720
:100090002E2738276627662742274A2752275C27BC
:1000A0007A3C8A3C9B3CA63CAE3CC53CB23CC53C41
:1000B000B63CBA3CC53CC03C455648563B563F56FC
:1000C0005F565F564C56505656565A5661C520C418
:1000D00057C49DC557C457C457C457C457C457C401
:1000E00057C457C457C457C457C457C457C457C438
:1000F00057C457C457C457C457C457C457C457C428
:1001000057C457C457C457C497C557C457C457C4D6
:1001100057C457C457C457C457C470C557C457C4ED
:1001200057C457C457C457C457C457C457C457C4F7
:10013000B4C554C44E414E494E495459494E46CD1A
:10014000CCCC3D0AD7233C17B7D13877CC2B32958E
:1001500095E6241FB14F0A000020410000C842006C
:10016000401C4620BCBE4CCA1B0E5AAEC59D740036
:10017000407A10F35A00A0724E18090010A5D4E876
:100180000000E87648170000E40B54020000CA9A09
:100190003B000000E1F5050000809698000000405B
:1001A000420F000000A086010000001027000000A0
:1001B00000E803000000006400000000000A0000E6
:1001C0000000000100000000002C76D888DC674F9A
:1001D0000823DFC1DFAE59E1B1B796E5E3E453C6CA
:1001E0003AE651997696E8E6C28426EB898C9B62C2
:1001F000ED407C6FFCEFBC9C9F40F2BAA56FA5F46C
:1002000090055A2AF75C936B6CF9676DC11BFCE093
:10021000E40D47FEF520E6B500D0ED902E030094E6
:100220003577050080841E080000204E0A0000007B
:10023000C80C333333330F986E12831141EF8D2185
:1002400014893BE65516CFFEE6DB18D1844B381BEC
:10025000F77C1D901DA4BBE424203284725E2281B1
:1002600000C9F124ECA1E53D27434F4D4D554E49C2
:10027000434154494F4E0044525952554E00455245
:10028000524F525300494E464F004543484F00538A
:100290006C6565702E2E2E00486F6D6520585920B4
:1002A00066697273740A00486F6D6520585920465C
:1002B00069727374004D65736820706F696E742085
:1002C0006F7574206F662072616E67650A00436CFB
:1002D00069636B20746F20526573756D652E2E2EC9
:1002E000004E6F204D6F76652E00256979202569B7
:1002F00064202569682025696D2025697300507286
:10030000696E742074696D653A2000496E76616C7F
:1003100069642050696E204D6F64650A006F6666DF
:100320000044454255473A004D3131332053004295
:10033000656420436F6F6C696E672E2E2E004265D8
:10034000642048656174696E672E2E2E00456E64C8
:1003500065722D332050726F204F46462E00434861
:10036000414D4245525F54454D50455241545552BE
:100370004500424142595354455050494E47004D63
:100380004F54494F4E5F4D4F4445530054484552DA
:100390004D414C5F50524F54454354494F4E004CD1
:1003A0004F4E475F46494C454E414D4500415554DF
:1003B0004F5245504F52545F53445F53544154552C
:1003C00053005344434152440050524F4D50545FE8
:1003D000535550504F525400454D455247454E439A
:1003E000595F50415253455200434153455F4C4978
:1003F0004748545F4252494748544E45535300546E
:100400004F47474C455F4C494748545300534F466C
:1004100054574152455F504F574552004255494C41
:10042000445F50455243454E54004C4556454C4957
:100430004E475F44415441005A5F50524F4245007D
:100440004155544F4C4556454C005052494E545F0F
:100450004A4F420050524F47524553530041555462
:100460004F5245504F52545F54454D5000564F4CDB
:10047000554D45545249430042494E4152595F46F9
:10048000494C455F5452414E5346455200534552E4
:1004900049414C5F584F4E5F584F464600464952BF
:1004A0004D574152455F4E414D453A4D61726C6921
:1004B0006E206275676669782D322E302E7820287E
:1004C0004A756C20203620323032302030343A33B6
:1004D000373A32382920534F555243455F434F44F2
:1004E000455F55524C3A68747470733A2F2F6769A0
:1004F000746875622E636F6D2F4D61726C696E4604
:1005000069726D776172652F4D61726C696E2050F2
:10051000524F544F434F4C5F56455253494F4E3AFA
:10052000312E30204D414348494E455F5459504586
:100530003A456E6465722D332050726F20455854D1
:1005400052554445525F434F554E543A312055550C
:1005500049443A63656465326132662D34316132F3
:100560002D343734382D396231322D6335356336C9
:10057000326633363766660A002F2F20004D31343D
:100580003520533C696E6465783E206F7574206F2A
:10059000662072616E67652028302D31290A00417E
:1005A0006363656C65726174696F6E3A2050003FD9
:1005B0004A206F7574206F662072616E676520280F
:1005C000302E303120746F20302E33290A00202045
:1005D0004D61783A200020204D696E3A2000536F1B
:1005E000667420656E6473746F70733A20004652AF
:1005F0003A0020466C6F773A200050726F74656342
:100600007465642050696E0A004D424C2041646A52
:10061000757374205A00496E76616C696420657840
:100620007472756465720A0020643A0020693A00A9
:1006300020703A006469730043290A0061626C65A6
:100640006420286D696E2074656D702000436F6CA6
:10065000642065787472756465732061726520002A
:100660004D34323120696E636F727265637420702D
:100670006172616D657465722075736167650A00EA
:100680004F666673657473204170706C69656400B1
:100690004572723A20546F6F206661722100546F68
:1006A0006F206661722066726F6D2072656665727A
:1006B000656E636520706F696E740A00454550521F
:1006C0004F4D204F4B0A002028302D31302900207B
:1006D00076616C7565206F7574206F662072616E2F
:1006E000676500416476616E6365204B3D008A0258
:1006F00085027E027702690224F4D43050C38E2032
:10070000C2A24017828B7011127A910D816CD90AA6
:10071000A861E108C7586607615143061E4B5D0595
:10072000C145A7041A411104093D980371393103E9
:100730004036DB0265339102D4305402802E1D0214
:10074000632CEE01752AC501B028A0011027810194
:100750008F2564012B244B01E0223401AC211F01C1
:100760008D200D01801FFC00841EED00971DDF0011
:10077000B81CD200E61BC600201BBC00641AB200E5
:10078000B219A8000A19A0006A189900D11791009F
:1007900040178B00B516840031167E00B315790022
:1007A0003A157300C7146F0058146A00EE13660000
:1007B0008813630025135E00C7125B006C1257009C
:1007C00015125400C111510070114F0021114B003E
:1007D000D61049008D104700461044000210420018
:1007E000C00F4000800F3E00420F3C00060F3B0050
:1007F000CB0E3800930E37005C0E3500270E340008
:10080000F30D3200C10D3100900D3000600D2E004F
:10081000320D2D00050D2C00D90C2B00AE0C29003B
:10082000850C29005C0C2700350C27000E0C2600D7
:10083000E80B2400C40B2400A00B23007D0B230035
:100840005A0B2100390B2100180B2000F80A1F0059
:10085000D90A1E00BB0A1E009D0A1D00800A1D0049
:10086000630A1C00470A1B002C0A1B00110A1A000D
:10087000F7091A00DD091900C4091900AB091900AC
:10088000920917007B091800630917004C0916002C
:1008900036091600200916000A091500F50815008A
:1008A000E0081400CC081400B8081400A4081400D0
:1008B000900813007D0812006B08130058081200FE
:1008C0004608120034081100230811001208110014
:1008D00001081100F0071000E0071000D007100019
:1008E000C0071000B0070F00A107100091070E000D
:1008F00083070F0074070F0065070E0057070E00EF
:1009000049070E003B070D002E070E0020070D00C3
:1009100013070D0006070D00F9060C00ED060D008B
:10092000E0060C00D4060C00C8060C00BC060C0047
:10093000B0060C00A4060B0099060C008D060B00F7
:1009400082060B0077060B006C060B0061060A009E
:1009500057060B004C060A0042060A0038060A0039
:100960002E060A0024060A001A060A0010060900CC
:1009700007060A00FD050900F4050900EB0509005A
:10098000E2050900D9050900D0050900C7050900DD
:10099000BE050900B5050800AD050800A50509005C
:1009A0009C050800940508008C05080084050800D3
:1009B0007C050800740508006C0507006505080043
:1009C0005D050700560508004E05070047050700AE
:1009D0004005080038050700310507002A05070013
:1009E000230507001C050600160507000F05070074
:1009F0000805060002050700FB040600F5040700D1
:100A0000EE040600E8040600E2040700DB0406002A
:100A1000D5040600CF040600C9040600C30406007E
:100A2000BD040600B7040600B1040500AC040600CE
:100A3000A6040600A00405009B040600950405001A
:100A4000900406008A040500850405008004060061
:100A50007A04050075040500700405006B040500A8
:100A600066040500610405005C04050057040500E8
:100A7000520405004D040500480405004304050028
:100A80003E0404003A040500350405003004040067
:100A90002C04050027040400230405001E040400A0
:100AA0001A04040016040500110404000D040400D7
:100AB000090405000404040000040400FC0304000D
:100AC000F8030400F4030400F0030400EC03040042
:100AD000E8030400E4030400E0030400DC03040072
:100AE000D8030400D4030400D0030400CC030400A2
:100AF000C8030300C503030024F404D9201BC40C5D
:100B00005C0E9804C4095F0265077101F405F900E1
:100B1000FB04B30048048700C10369005803550073
:100B200003034500BE023A008402310053022A004A
:100B30002902250004022000E4011C00C80119005C
:100B4000AF01170098011400840113007101100017
:100B50006101100051010E0043010D0036010B0030
:100B60002B010B0020010B00150109000C010900ED
:100B700003010800FB000800F3000800EB00070079
:100B8000E4000600DE000600D8000600D2000600E1
:100B9000CC000500C7000500C2000500BD00040030
:100BA000B9000400B5000400B1000400AD00040069
:100BB000A9000400A5000300A20003009F00040098
:100BC0009B000300980003009500020093000300BF
:100BD000900003008D0002008B00030088000200DB
:100BE0008600020084000300810002007F000200F2
:100BF0007D0002007B000200790002007700010006
:100C00007600020074000200720001007100020010
:100C10006F0002006D0001006C0002006A0001001C
:100C20006900020067000100660001006500010024
:100C30006400020062000100610001006000010028
:100C40005F0002005D0001005C0001005B0001002C
:100C50005A0001005900010058000100570001002E
:100C6000560001005500010054000100530000002F
:100C7000530001005200010051000100500001002A
:100C80004F0001004E0000004E0001004D00010029
:100C90004C0001004B0000004B0001004A00010025
:100CA0004900010048000000480001004700010021
:100CB000460000004600010045000000450001001C
:100CC0004400010043000000430001004200000016
:100CD000420001004100000041000100400001000D
:100CE0003F0000003F0001003E0000003E00010008
:100CF0003D0000003D0001003C0000003C00000001
:100D00003C0001003B0000003B0001003A000000F5
:100D10003A000100390000003900010038000000ED
:100D200038000000380001003700000037000100E3
:100D300036000000360000003600010035000000DB
:100D400035000000350001003400000034000000D0
:100D500034000100330000003300000033000100C4
:100D600032000000320000003200010031000000BB
:100D700031000000310001003000000030000000B0
:100D8000300001002F0000002F0000002F000000A5
:100D90002F0001002E0000002E0000002E00010098
:100DA0002D0000002D0000002D0000002D0001008E
:100DB0002C0000002C0000002C0000002C00010082
:100DC0002B0000002B0000002B0000002B00010076
:100DD0002A0000002A0000002A0000002A0001006A
:100DE000290000002900000029000000290000005F
:100DF0002900010028000000280000002800000051
:100E00002800000028000100270000002700000043
:100E10002700000027000000270001002600000036
:100E20002600000026000000260000002600010029
:100E3000250000002500000025000000250000001E
:100E4000250000002500010024000000240000000F
:100E50002400000024000000240001002300000002
:100E600023000000230000002300000023000000F6
:100E700023000000230001002200000022000000E7
:100E800022000000220000002200000022000100D9
:100E900021000000210000002100000021000000CE
:100EA00021000000210000002100010020000000BE
:100EB00020000000200000002000000020000000B2
:100EC0002000000020000000200001001F000000A2
:100ED0001F0000001F0000001F0000001F00000096
:100EE0001F0000001F0001001E0000001E00000087
:100EF0001E0000001E000000232C0000B82200008D
:100F0000561800003A0F0000B8080000B1040000B5
:100F1000710200003E0100004572726F722077720C
:100F20006974696E6720746F20454550524F4D219A
:100F30000A002121204B494C4C2063617573656484
:100F400020627920746F6F206D75636820696E610F
:100F500063746976652074696D65202D20637572F0
:100F600072656E7420636F6D6D616E643A2000531C
:100F7000544F505045442E20005072696E74657273
:100F80002073746F707065642064756520746F20C1
:100F90006572726F72732E204669782074686520BE
:100FA0006572726F7220616E6420757365204D39B1
:100FB000393920746F20726573746172742E202821
:100FC00054656D7065726174757265206973207205
:100FD000657365742E20536574206974206166748E
:100FE00065722072657374617274696E67290A0094
:100FF0004E6F20436865636B73756D207769746805
:10100000206C696E65206E756D6265722C204C6176
:101010007374204C696E653A2000636865636B7376
:10102000756D206D69736D617463682C204C6173FC
:1010300074204C696E653A20004C696E65204E75CF
:101040006D626572206973206E6F74204C617374D9
:10105000204C696E65204E756D6265722B312C20B7
:101060004C617374204C696E653A20004D3131300B
:1010700000627573793A2070617573656420666FDC
:101080007220696E7075740A00627573793A207007
:10109000617573656420666F7220757365720A00EE
:1010A000627573793A2070726F63657373696E67E6
:1010B0000A00506C65617365205265736574005059
:1010C00052494E5445522048414C54454400255302
:1010D0003A202553004B494C4C45442E2000507279
:1010E000696E7465722068616C7465642E206B692A
:1010F0006C6C28292063616C6C6564210A000F15F3
:101100000E1216170E1303021A1401000E0DFF180B
:101110000C040C19000120746F6F206C6F6E672037
:10112000657874727573696F6E2070726576656E1E
:101130007465640A0020636F6C642065787472754E
:1011400073696F6E2070726576656E7465640A00EF
:1011500043616E63656C204F626A6563740041642D
:1011600076616E6365642053657474696E6773009D
:10117000687474703A2F2F6D61726C696E66772E89
:101180006F7267006275676669782D322E302E782F
:101190000053746F72652053657474696E677300D1
:1011A0004C6F61642053657474696E6773004C659D
:1011B00076656C20436F726E65727300466164657C
:1011C000204865696768740045646974204D6573DB
:1011D00068004C6576656C20426564004E4F00598E
:1011E00045530043616E63656C204F626A656374AA
:1011F000203D00526573746F7265204465666175A9
:101200006C747300313235004245443A4550434FC7
:1012100053203130304B0052756E61776179205721
:10122000617463683A204F4E004D61782054656DBB
:101230007000323735004D696E2054656D70004581
:10124000313A204550434F53203130304B005053FA
:10125000550047656E657269630050726F746F6305
:101260006F6C00312E3000426175640031313532CF
:101270003030004D656C7A692028437265616C6975
:101280007479290045787472756465727300456ECF
:101290006465722D332050726F00323032302D3041
:1012A000362D313900546865726D6973746F7273CD
:1012B00000426F61726420496E666F005072696E01
:1012C00074657220496E666F00022020506C616E5A
:1012D0006E657242756666657242797465733A200E
:1012E000002046726565204D656D6F72793A200069
:1012F000436F6D70696C65643A204A756C202036C6
:1013000020323032300A00204C61737420557064F2
:10131000617465643A20323032302D30362D3139E7
:10132000207C20417574686F723A2028706164696E
:10133000632C20456E6465722D332050726F290A2C
:10134000006275676669782D322E302E780A004D5E
:1013500061726C696E0020536F66747761726520EC
:1013600052657365740A00205761746368646F671F
:101370002052657365740A002042726F776E206F89
:1013800075742052657365740A002045787465721F
:101390006E616C2052657365740A00506F776572D8
:1013A00055700A00255320256320256320256320DE
:1013B000256300656E6473746F7073206869743A96
:1013C000200000002100240027002A006563686FC8
:1013D0003A004572726F723A000A4D656173757218
:1013E000656420706F696E74733A0A003578352031
:1013F0006D6573682E205A206F66667365743A2097
:10140000005072696E74696E67204F626A6563741A
:10141000002553202569004F46460A004661646551
:101420002048656967687420004661696C656420BE
:10143000746F20656E61626C6520426564204C6546
:1014400076656C696E670A004D6573682042656455
:10145000204C6576656C20646174613A0A00496EBF
:1014600076616C6964206D6573682E0A00206E6F6A
:101470007420656E74657265642E0A00206F6620A4
:10148000004D424C2047323920706F696E74200045
:101490004A206F7574206F662072616E6765202820
:1014A000302D0049206F7574206F662072616E6761
:1014B000652028302D004D6573682070726F626959
:1014C0006E6720646F6E652E0A005374617274201B
:1014D0006D6573682070726F62696E6720776974DA
:1014E0006820224732392053312220666972737492
:1014F0002E0A004732380A473239205332006861D9
:1015000073206E6F20646174612E0A004D657368EC
:1015100020426564204C6576656C696E67200053D7
:10152000206F7574206F662072616E6765202830A9
:101530002D35292E0A00204D393220580020496EC1
:1015400076616C69642065787472756465722000D8
:1015500046696C2E204469612E004520696E206D1D
:101560006DC2B300416476616E6365204B004D33FC
:1015700030332055312045256920532569005049D5
:1015800044204175746F74756E65202A005049447B
:101590002D44202A005049442D49202A0050494416
:1015A0002D50202A00200820466163740020082066
:1015B0004D6178002008204D696E004175746F748C
:1015C000656D70004D6F7665205A005072696E74BB
:1015D00020506175736564004D6F76652025736DCD
:1015E0006D004D6F766520302E316D6D004D6F763C
:1015F0006520316D6D004D6F76652031306D6D0069
:101600004D6F7665204178697300486F74656E642C
:1016100020746F6F20636F6C64004578747275641A
:101620006572004D6F76652059004D6F76652058C4
:1016300000486F6D652025732573257320466972F8
:10164000737400220A00556E6B6E6F776E20636FA5
:101650006D6D616E643A202200456E6465722D33B3
:101660002050726F2052656164792E005072696E4D
:1016700074696E672E2E2E0020453A00205A3A00DB
:1016800020593A0000002200250028002B0000000D
:1016900020002300260029000202020202020202A8
:1016A0000404040404040404030303030303030302
:1016B0000101010101010101010204081020408023
:1016C000010204081020408001020408102040801C
:1016D0008040201008040201000000010200090AF5
:1016E00000000000040308070000000000000000E4
:1016F000000000000000000053657474696E677399
:101700002053746F7265640053657474696E6773F7
:101710002053746F726564202800436F6E6669679A
:1017200075726174696F6E004F6666004F6E004D92
:101730006F74696F6E00426564204C6576656C69F4
:101740006E670041626F7574205072696E746572C5
:101750000054756E6500496E666F2053637265654F
:101760006E00536F667420456E6473746F707300FF
:101770004D38340044697361626C65205374657040
:101780007065727300473238004175746F20486F7E
:101790006D65005072656865617420504C4120454C
:1017A0006E64005072656865617420504C4120423F
:1017B00065640054656D7065726174757265004290
:1017C0006564205A004D61696E00507265686561FC
:1017D00074205045544720456E640050726568651A
:1017E000617420504554472042656400436F6F6C1C
:1017F000646F776E0050726568656174205045545F
:1018000047005072656865617420504C4100466124
:101810006E205370656564004E6F7A7A6C65004285
:1018200061627973746570205A00466C6F770000AE
:101830000000010000000100008000555555000027
:1018400000400033333300AAAA2A00499224000042
:10185000002000C7711C0099991900D14517005547
:101860005515003BB113002449120011111100005D
:101870000010000F0F0F00E3380E0043790D00CC6D
:10188000CC0C00C3300C00E8A20B0064210B00AAB2
:10189000AA0A00703D0A009DD80900427B09009207
:1018A000240900DCD30800888808001042080000E2
:1018B000000800F0C1070087870700755007007116
:1018C0001C07003EEB0600A1BC06006990060066FE
:1018D000660600703E06006118060017F4050074E5
:1018E000D105005BB00500B290050062720500559D
:1018F00055050078390500B81E0500050505004EA0
:10190000EC040087D40400A1BD040090A7040049A2
:10191000920400C17D0400EE690400C7560400442F
:101920004404005C3204000821040041100400005B
:101930000004003FF00300F8E0030026D20300C3D8
:10194000C30300CCB503003AA803000A9B03003888
:101950008E0300C08103009F750300D0690300500F
:101960005E03001D53030034480300913D03003320
:1019700033030016290300381F03009715030030B6
:101980000C0300030303000BFA020049F10200BA42
:10199000E802005CE002002DD802002DD0020059C0
:1019A000C80200B0C0020031B90200DAB10200AAD8
:1019B000AA0200A0A30200BC9C0200FA9502005CEF
:1019C0008F0200DF88020082820200457C0200272D
:1019D00076020027700200436A02007C640200D095
:1019E0005E02003F590200C8530200FFFDFCFAF8F6
:1019F000F6F4F2F0EEECEAE9E7E5E3E1E0DEDCDA6A
:101A0000D9D7D5D4D2D0CFCDCBCAC8C7C5C3C2C011
:101A1000BFBDBCBAB9B7B6B4B3B2B0AFADACAAA98A
:101A2000A8A6A5A4A2A1A09E9D9C9A9998979594DA
:101A30009392908F8E8D8B8A89888786848382810A
:101A4000807F7E7D7B7A797877767574737271701A
:101A50006F6E6D6C6B6A696867666564636261600E
:101A60005F5E5D5C5B5A59585857565554535251F6
:101A700050504F4E4D4C4B4A4A49484746464544C4
:101A800043424241403F3E3E3D3C3B3B3A39383881
:101A900037363535343332323130302F2E2E2D2C2F
:101AA0002B2B2A29292827272625252423232221D1
:101AB0002120201F1E1E1D1C1C1B1B1A1919181863
:101AC000171616151514131312121111100F0F0EED
:101AD0000E0D0D0C0C0B0A0A09090808070706066B
:101AE00005050404030302020100001FE03FF03F6C
:101AF000F03FF01FE01FE03FF03FF03FF00FC00766
:101B00008003001FE0201020102010102010202043
:101B100010201030300840048003003FFFF03800F0
:101B20007030FC3020FC102078102030102C00D0B9
:101B30002E31D02F7BD02F7BD02E31D02C00D02037
:101B4000301020781020FC1030FC303800703FFF3F
:101B5000F03FFFF0380070318630238710278790E0
:101B60002F87D02F03D0203010207810207810201D
:101B700030102F03D02F87D02787902387103186EE
:101B8000303800703FFFF01FFFF81FFFF8041040CF
:101B90000208200208200410400820801041001094
:101BA00041000820800410400000001FFFF81FFFC4
:101BB000F8F80180000C480080001243C38CD0026A
:101BC00071249267CC41249E40024924904012FB2C
:101BD000B3CEE00C00000000000000000000000395
:101BE00080000000024000000002566000000398E0
:101BF000900000021090000002109000000210609F
:101C00000020202020202020004573746570732F51
:101C10006D6D005A73746570732F6D6D0059737418
:101C20006570732F6D6D005873746570732F6D6DD3
:101C30000046696C616D656E740053746570732F36
:101C40006D6D004E65787420436F726E657200444E
:101C50006F6E65004E657874004C6576656C696ED4
:101C60006720446F6E6521004E65787420506F695F
:101C70006E74002569202F202575004732392053C6
:101C80003100436C69636B20746F20426567696E35
:101C900000486F6D696E672058595A005A20566186
:101CA0006C756500496E646578205900496E6465FD
:101CB00078205800202D20496E76616C696420657B
:101CC00078747275646572206E756D62657220211C
:101CD0000A00544845524D414C2052554E415741FF
:101CE0005900546865726D616C2052756E61776140
:101CF00079004572723A204D415854454D50004D7F
:101D0000415854454D502074726967676572656427
:101D1000004572723A204D494E54454D50004D4990
:101D20004E54454D50207472696767657265640052
:101D3000202F002042403A0020403A0070012C0140
:101D400090012701B0012201C0011D01F00118011D
:101D50001002130130020E01600209019002040119
:101D6000C002FF000003FA004003F5008003F0000A
:101D7000D003EB002004E6007004E100E004DC0086
:101D80004005D700C005D2004006CD00D006C800EF
:101D90008007C3003008BE00F008B900C009B400D5
:101DA000B00AAF00B00BAA00D00CA500000EA00036
:101DB000500F9B00C01096005012910000148C0030
:101DC000C0158700B0178200B0197D00D01B7800C5
:101DD000001E730040206E0090226900F024640011
:101DE00040275F0090295A00E02B5500102E50002C
:101DF00020304B0010324600E033410090353C006B
:101E00001037370070383200A0392D00B03A280062
:101E1000A03B2300603C1E00103D1900903D1400C3
:101E2000103E0F00703E0A00C03E0500003F00005B
:101E3000403FFBFF803FF6FFC03FF1FF4572723A23
:101E4000207574663820666F6E74206E6F7420691A
:101E50006E697469616C697A65642E00000C0F000C
:101E6000FE07022603BC017FFE08FE08FE050808E7
:101E700006000040F0C88888987810050808060019
:101E800000C0F88888888888F805050506000120C4
:101E900030F830200508080600002070F8202020C7
:101EA00020E00509090600FF2070A8A8B8888870FE
:101EB00020050606060001E08CEA8C8A0A0509095D
:101EC0000600FFF8A88888888888A8F8050A0A0606
:101ED00000FE205050505088A8A8887003030306C5
:101EE000000340A040FFFFFFFFFFFFFFFFFFFFFFDA
:101EF000FFFFFFFFFFFFFFFFFFFFFF0000000605E2
:101F0000FF010707060200808080808000800303B5
:101F100003060105A0A0A005060606000050F85023
:101F200050F8500509090600FF2070A8A07028A8E5
:101F30007020050707060000C8C8102040989805C3
:101F4000070706000040A0A040A890680103030610
:101F500002058080800309090601FF20404080803F
:101F6000804040200309090601FF804040202020D6
:101F700040408005070706000020A8702070A820B8
:101F80000505050600012020F820200203030601B4
:101F9000FFC04080050101060003F80202020601AD
:101FA00000C0C00507070600000810102040408050
:101FB000050707060000708898A8C88870030707FF
:101FC00006010040C040404040E005070706000011
:101FD000708808102040F8050707060000F8081070
:101FE0003008887005070706000010305090F81080
:101FF00010050707060000F880F00808887005073C
:1020000007060000304080F088887005070706004A
:1020100000F808101020202005070706000070882F
:10202000887088887005070706000070888878081F
:102030001060020505060100C0C000C0C00206060F
:102040000601FFC0C000C040800305050601012055
:1020500040804020050303060002F800F803050550
:1020600006010180402040800507070600007088B7
:1020700010202000200507070600007088B8A8B8C7
:102080008070050707060000708888F88888880532
:102090000707060000F04848704848F005070706A3
:1020A000000070888080808870050707060000F0B7
:1020B0004848484848F0050707060000F88080F0C7
:1020C0008080F8050707060000F88080F080808097
:1020D000050707060000708880809888700507074C
:1020E000060000888888F8888888030707060100AA
:1020F000E04040404040E00507070600003810106F
:10210000101090600507070600008890A0C0A090FE
:1021100088050707060000808080808080F805071A
:102120000706000088D8A888888888050707060061
:10213000008888C8A8988888050707060000708866
:102140008888888870050707060000F08888F08076
:10215000808005070706000070888888A8906805B9
:102160000707060000F08888F0A09088050707069A
:10217000000070888070088870050707060000F866
:102180002020202020200507070600008888888856
:1021900088887005070706000088888888505020C6
:1021A00005070706000088888888A8A85005070743
:1021B0000600008888502050888805070706000020
:1021C00088885020202020050707060000F8081006
:1021D000204080F80309090601FFE08080808080AC
:1021E0008080E005070706000080404020101008AE
:1021F0000309090601FFE020202020202020E0051F
:1022000003030600052050880501010600FEF803BF
:10221000030306010580402005050506000070083F
:102220007888780507070600008080F0888888F0A5
:102230000505050600007080808870050707060008
:1022400000080878888888780505050600007088E9
:10225000F08070050707060000304840E04040402D
:102260000507070600FE708888887808700507074C
:102270000600008080F08888888803070706010030
:102280004000C0404040E00409090601FE10003053
:1022900010101010906005070706000080808890DD
:1022A000E09088030707060100C04040404040E03E
:1022B000050505060000D0A8A8A8A8050505060084
:1022C00000B0C888888805050506000070888888E1
:1022D000700507070600FEF0888888F080800507F3
:1022E000070600FE78888888780808050505060036
:1022F00000B0C88080800505050600007880700861
:10230000F00507070600002020F82020201805050A
:10231000050600008888889868050505060000887D
:10232000888850200505050600008888A8A8500563
:10233000050506000088502050880507070600FEA6
:1023400088888850204080050505060000F8102088
:1023500040F80309090601FF20404040804040400A
:10236000200109090602FF808080808080808080B3
:102370000309090601FF804040402040404080059D
:10238000030306000248A890FF1FFFFFFFFFFFFFA7
:10239000600000000001FF400000000000FF80001E
:1023A000000000007F83CF00000C303F87FF8000DB
:1023B0000C301F867980000C000F8C30C7838C3066
:1023C000E78C30CFC7CC31F38C30DCECEC33B98CFC
:1023D00030D86C6C33198C30D06C0C33198C30D8ED
:1023E0006C0C33198C30DC6C0E3B198C30CF7C07B5
:1023F0009F198C30C77C038F194000000000000239
:10240000600000000000061FFFFFFFFFFFF86F7075
:10241000656E00545249474745524544007A5F6D06
:10242000696E00795F6D696E00785F6D696E00524C
:1024300065706F7274696E6720656E6473746F7017
:10244000207374617475730A005761726E696E67E8
:102450003A20486F6D696E672042756D702044693F
:102460007669736F72203C20310A00000000000082
:102470000000000000000000004842000048420048
:1024800000A0410202040000A0400000A0400000A3
:10249000004000006B4300006B4300007A43FFFFE5
:1024A000FF4361703A006F6B00526573656E643A6A
:1024B000200020573A0045202553002364656669B3
:1024C0006E652044454641554C545F004B642000E6
:1024D0004B6920004B702000504944204175746FB7
:1024E00074756E652066696E697368656421205035
:1024F000757420746865206C617374204B702C2097
:102500004B6920616E64204B6420636F6E7374614D
:102510006E74732066726F6D2062656C6F772069D0
:102520006E746F20436F6E66696775726174696F50
:102530006E2E680A00504944204175746F74756EA0
:1025400065206661696C6564212074696D656F75CD
:10255000740A000A20436C61737369632050494414
:10256000200A00204B643A2000204B693A200020CA
:102570004B703A20002054753A2000204B753A20C9
:1025800000206D61783A2000206D696E3A200020AD
:10259000643A200020626961733A20005049442067
:1025A0004175746F74756E652073746172740A007E
:1025B000504944204175746F74756E652066616979
:1025C0006C6564212054656D706572617475726507
:1025D00020746F6F20686967680A00504944204181
:1025E00075746F74756E65206661696C6564212011
:1025F000426164206578747275646572206E756DD1
:102600006265720A00456E636C6F737572650020B7
:1026100062797465733B2063726320004E6F2045BE
:102620004550524F4D2E0A00454550524F4D2064A3
:1026300061746173697A65206572726F722E0A0027
:102640002073746F7265642073657474696E677348
:10265000207265747269657665642028002028639D
:10266000616C63756C6174656429210A0020213DE9
:102670002000454550524F4D20435243206D697311
:102680006D61746368202D202873746F72656429EE
:1026900020002053697A653A2000496E6465783AD3
:1026A0002000204D61726C696E3D563830290A0059
:1026B000454550524F4D2076657273696F6E206D9F
:1026C00069736D617463682028454550524F4D3DD4
:1026D000003F00454550524F4D2056657273696F5B
:1026E0006E204572726F7200454550524F4D204921
:1026F0006E646578204572726F7200454550524F86
:102700004D20435243204572726F720049676E6FCD
:10271000726500496E697469616C697A6520454526
:1027200050524F4D0020520048617264636F6465DF
:10273000642044656661756C742053657474696EB9
:102740006773204C6F616465640A003B20002020A1
:102750004D393030204B004C696E65617220416408
:1027600076616E63653A0020204D33303120500091
:102770005049442073657474696E67733A0020464B
:102780000020480020204D3134352053004D617425
:10279000657269616C206865617475702070617222
:1027A000616D65746572733A002020473239205399
:1027B00034205A002020473239205333204900204A
:1027C000204D3432302053004D65736820426564DB
:1027D000204C6576656C696E673A0020204D32307A
:1027E00036205800486F6D65206F66667365743AD1
:1027F00000204A0020204D323035204200416476CE
:10280000616E6365643A20423C6D696E5F73656713
:102810006D656E745F74696D655F75733E20533CC2
:102820006D696E5F66656564726174653E20543CD7
:102830006D696E5F74726176656C5F666565647202
:102840006174653E204A3C6A756E635F6465763EDE
:102850000020540020204D3230342050004163636A
:10286000656C65726174696F6E2028756E6974732A
:102870002F7332293A20503C7072696E745F616325
:1028800063656C3E20523C726574726163745F6173
:102890006363656C3E20543C74726176656C5F6165
:1028A0006363656C3E0020204D3230312058004D6E
:1028B0006178696D756D20416363656C65726174E3
:1028C000696F6E2028756E6974732F7332293A0010
:1028D00020450020204D3230332058004D6178696A
:1028E0006D756D2066656564726174657320287509
:1028F0006E6974732F73293A005374657073207076
:10290000657220756E69743A0020440020204D32B3
:1029100030302053002044697361626C65640A00A2
:1029200046696C616D656E742073657474696E6759
:10293000733A0020204D3134392043203B20556E1E
:1029400069747320696E2043656C736975730A003E
:1029500020286D6D29002020473231202020203B87
:1029600020556E69747320696E206D6D00486F6D1F
:10297000696E67204661696C6564000000FA430077
:1029800000FA430000A0400000C8410000A042003F
:1029900000A0420000C8430000D342F4010000F44C
:1029A000010000640000008813000020436F756E72
:1029B0007420583A004D31303620500045310062C5
:1029C0006564002C2073797374656D2073746F7067
:1029D00070656421204865617465725F49443A20DE
:1029E0000048656174696E67204661696C656400C2
:1029F00048656174696E67206661696C6564004D45
:102A00003131322053687574646F776E0000B5DA27
:102A100011241FBECFEFD0E4DEBFCDBF11E0A0E098
:102A2000B1E0E0E8F3ED01E00BBF02C007900D92CA
:102A3000A83EB107D9F720E1A8EEB1E001C01D9290
:102A4000AC3BB207E1F715E1C8E0D5E104C021973E
:102A5000FE010E9459E7C730D107C9F70E947DD413
:102A60000C94BEE90C9400002F923F924F925F921B
:102A70006F927F928F929F92AF92BF92CF92DF928E
:102A8000EF92FF920F931F93CF93DF93CDB7DEB7F3
:102A9000EC970FB6F894DEBF0FBECDBF8CAF209180
:102AA000F20129AB81E08093F20180914E0D8D34CB
:102AB00009F41EC3843511F40C945624873411F0A4
:102AC0000C94712480914C0D90914D0D8C31910599
:102AD00009F4BCC18CF48430910509F4E3C01CF402
:102AE000029790F101C38531910511F40C94732480
:102AF0004B9709F415C1F8C28A35910509F4BAC19A
:102B000044F48D31910509F4B1C18A9709F427C2C3
:102B1000EBC28B35910509F4B1C18C35910509F0F3
:102B2000E3C239E7232E31E0332E4AE9E42E4CE0AC
:102B3000F42E24EF3BE03BA32AA357EEC52E5BE027
:102B4000D52E00E010E0DAC18091D209813011F079
:102B50000C947324E4EFCE2EEBE0DE2EF7EAEF2E9A
:102B6000FCE0FF2EA7EEAA2EABE0BA2E10E088E51F
:102B7000810F0E94D358882339F10E9457582B01A6
:102B80003C018091650981111FC0812F0E94F1577E
:102B9000882351F0D6012D913D914D915C91C30157
:102BA000B2010E946BE709C0F501208131814281A9
:102BB0005381C301B2010E946AE7D7016D937D93EF
:102BC0008D939C9313970AC0F60180819181A28115
:102BD000B381F70180839183A283B3831F5FF4E005
:102BE000CF0ED11C24E0E20EF11C34E0A30EB11C88
:102BF000133009F0BCCF85E40E94D358882301F13B
:102C00000E9457586B017C0183E00E94F157882392
:102C100071F02091000C3091010C4091020C509108
:102C2000030CC701B6010E946BE76B017C01C092E7
:102C3000B30CD092B40CE092B50CF092B60C10C06C
:102C40008091000C9091010CA091020CB091030CAA
:102C50008093B30C9093B40CA093B50CB093B60CC6
:102C600086E40E94D3588823C9F00E94575820E078
:102C700030E0A9010E94EEE8181684F40E9457582B
:102C800020E030E040E752E40E94EEE76093540118
:102C90007093550180935601909357010E94FEA8AE
:102CA0000C94732480E50E94D358882329F00E9455
:102CB0000F586B017C0103C0C12CD12C760183E538
:102CC0000E94D358882361F00E94575820E030E0DA
:102CD0004AE754E40E94CCE00E9467E86B017C0163
:102CE0000E94C1888091FD0F811105C060E08FE8CE
:102CF00092E00E9413C90E94D656C60ED71EE81E47
:102D0000F91E0E94D656DC01CB018C199D09AE0933
:102D1000BF09B7FD02C00C9473240E947238F1CF32
:102D20000E94286A81110C9473248CE0EDE6F1E096
:102D3000DE01119601900D928A95E1F760E070E056
:102D400080E50E94E05840E050E068EC72E44E8F6D
:102D50005F8F68A379A340E050E060EA70E44A8F97
:102D60005B8F6C8F7D8F813019F0823039F029C0F4
:102D7000BE01665E7F4FCE01099658C029853A850F
:102D80004B855C856091FC0B7091FD0B8091FE0B77
:102D90009091FF0B0E946BE76B017C0120E030E01B
:102DA0004AE753E40E9466E087FD06C0C12CD12C9F
:102DB0007AE7E72E73E4F72ECE8ADF8AE88EF98E63
:102DC00030C020E030E040E050E46091FC0B7091B6
:102DD000FD0B8091FE0B9091FF0B0E946BE77B0136
:102DE0008C0120E030E04AE753E40E94EEE8181638
:102DF00024F4E12CF12C0AE713E4A984BA84CB84EF
:102E0000DC849701A801B501C6010E94EEE81816FE
:102E100014F475018601C701D8018E8B9F8BA88F92
:102E2000B98FBE01665E7F4FCE0146960E9474AD9B
:102E3000AE01425E5F4FBE016B5F7F4FCE010196D8
:102E40000E9452AD0E9495AD0C9473248091A60C03
:102E50008770873011F00C94A12460E08FE40E9409
:102E6000025981110C9473240C94A1240E94C25B1A
:102E70000C9473241092F1010C9473248FE08093CE
:102E8000F1010C9473240E9457582B013C0113301C
:102E900049F0F60120813181428153810E946AE725
:102EA0002B013C01AAA1BBA12D913D914D915C91BB
:102EB000C301B2010E946AE74B015C012DEB37E3CD
:102EC00046E855EB0E94EEE887FD20C02DEB37E386
:102ED00046E855E3C501B4010E9466E01816B4F057
:102EE0001F5FB4E0EB0EF11CEAA1FBA13496FBA33B
:102EF000EAA3F4E0CF0ED11C143039F1D1018D9149
:102F00001D010E94D358882359F3BDCF133051F4CB
:102F10004092000C5092010C6092020C7092030CD3
:102F200001E0DECFA5019401F7016081718182810A
:102F300093810E946BE7D7016D937D938D939C9352
:102F40001397812F0E94CBA8CBCF002321F080E0E4
:102F50009CE00E94D1880E9495AD0C9473248091CE
:102F6000D209813011F00C94732489E40E94D35863
:102F7000F82E882321F00E945358182F01C010E02A
:102F80008AE40E94D358082F882319F00E945358CE
:102F900001C080E0FF2011F0153020F4002341F043
:102FA000853030F085EB92E00E94E85A0C9473244F
:102FB00090E1E4EFFBE0A7EABCE001900D929A9566
:102FC000E1F7FF2091F024E01202F0011124E55214
:102FD000F14F40815181628173814093A70C5093DE
:102FE000A80C6093A90C7093AA0C002391F034E014
:102FF0008302F0011124E953F14F80819181A28174
:10300000B3818093AB0C9093AC0CA093AD0CB093B8
:10301000AE0C86E40E94D358882311F40C94782ACD
:103020000E9457586B017C0120E030E0A9010E940A
:10303000EEE8181614F00C94782A20E030E040E70F
:1030400052E4C701B6010E94EEE74B015C01C0905B
:103050005401D0905501E0905601F090570120E0C6
:1030600030E0A9010E9466E0882341F0809254017B
:1030700090925501A0925601B092570100915201D1
:103080001091530184E690E0909353018093520194
:103090008090110190901201A0901301B090140142
:1030A00080E090E0A0E8BFE38093110190931201CB
:1030B000A0931301B09314010E94FEA8C092540182
:1030C000D0925501E0925601F092570110935301AE
:1030D000009352018092110190921201A09213016B
:1030E000B09214010C9473240E941A6A0C947324F5
:1030F00080914C0D90914D0D8937910509F4A0C533
:103100000CF0FFC08836910509F404C30CF044C0EC
:103110008C34910509F4E9C2FCF48231910509F47B
:103120005DC46CF497FF02C00C9453248230910567
:103130000CF493C1419709F4F0C10C9453248A32E2
:10314000910509F4B5C28B34910509F4CAC24F97B1
:1031500011F00C945324FEC18335910509F437C452
:103160007CF48135910509F417C40CF029C48D3421
:10317000910511F00C9453240E9442740C94732412
:103180008535910509F457C40CF428C48C35910594
:1031900009F474C40C9453248037910511F40C94F1
:1031A0007324BCF48C36910511F40C9473243CF414
:1031B0008A36910509F4E2C20CF4D0C2FFC28E3601
:1031C000910509F404C30CF015C30E9443B20C949A
:1031D00073248537910509F4E2C40CF084C082376A
:1031E000910509F4D5C40CF44FC38337910511F050
:1031F0000C9453248DE994E00E94E85A60E08DE835
:1032000094E00E9409B660E088E794E00E9409B665
:1032100061E08EE197E20E9409B661E08DE694E0FC
:103220000E9409B661E08DE594E00E9409B660E075
:1032300084E594E00E9409B661E08AE494E00E948B
:1032400009B660E080E494E00E9409B660E088E39B
:1032500094E00E9409B661E08AE294E00E9409B617
:1032600060E08CE194E00E9409B660E08DE094E0BB
:103270000E9409B660E08FEF93E00E9409B660E01B
:1032800089EE93E00E9409B661E088ED93E00E9428
:1032900009B660E089EC93E00E9409B660E082EC38
:1032A00093E00E9409B660E08DEA93E00E9409B6BF
:1032B00060E08FE993E00E9409B661E08CE893E05A
:1032C0000E9409B660E08FE793E00E9409B661E0D2
:1032D00082E793E00E9409B660E08EE593E00E94E9
:1032E00009B60C9473248737910509F49EC40CF039
:1032F0009FC400914A0D10914B0D94E0F12C40E0D9
:1033000078C48C3241E0940709F4BAC70CF046C087
:103310008C3C910509F47FC50CF58E3B910509F4B1
:1033200003C374F48139910509F491C48B39910573
:1033300009F40CC38C38910511F00C945324CEC2BF
:10334000893C910509F425C58B3C910509F444C5D8
:10335000883C910511F00C945324D4C48C3D910504
:1033600009F45DC664F48E3C910509F475C50CF44E
:1033700060C5833D910509F48CC50C945324823EAD
:10338000910509F4C9C68232A1E09A0709F40FC772
:103390008D3D910511F00C94532468C68C3AB1E030
:1033A0009B0711F40C94EF225CF58039F1E09F0744
:1033B00011F40C9418228CF48E3231E0930711F43E
:1033C0000C94D4210CF471C78F32914011F00C94FD
:1033D00053240E9440AE0C947324843AA1E09A07CF
:1033E00011F40C941B22853AB1E09B0711F40C9464
:1033F0001E228A39914011F00C9453240C947324AA
:10340000863FF1E09F0711F40C94BF2384F4843FBE
:1034100031E0930711F40C94B92314F00C94BC23FD
:10342000863E914011F40C944D230C945324883F14
:10343000A1E09A0711F40C94CB2314F40C94C2234A
:103440008438E3E09E0711F40C94DC23873E93401C
:1034500011F40C9445240C94532480E50E94D35815
:10346000882329F00E940F586B017C0103C0C12CF6
:10347000D12C760183E50E94D358882361F00E9405
:10348000575820E030E04AE754E40E94CCE00E9424
:1034900067E86B017C010E94C18880914A0D909180
:1034A0004B0D009739F02091E20B211108C00E94CA
:1034B000E8C805C060E08EEC92E00E9413C910914C
:1034C000F20183E08093F20181E08093F30FC11455
:1034D000D104E104F10431F00E94D656C60ED71E85
:1034E000E81EF91E8091F30F882311F40C94B22684
:1034F000C114D104E104F10411F40C94AE260E942D
:10350000D656DC01CB018C199D09AE09BF09B7FF66
:1035100002C00C94AE260C94B2268091460D84FF16
:1035200002C00C94B9268091480D87FF02C00C940C
:10353000B9268091490D837011F00C94B92660E092
:1035400081EE92E00E9413C95E985E9815985E988D
:103550000C9473240E94F3737B018C0120E831E505
:1035600041E050E00E94BCE6C9016DE671E00E94B6
:1035700012E74B015C01C801B70120E13EE040E0E9
:1035800050E00E94BCE6CA01B90128E130E040E009
:1035900050E00E94BCE6762E672EC62ED72E2CE376
:1035A000222E312C412C512CC801B701A2019101CE
:1035B0000E94BCE6F62EE72ECA01B901A2019101D4
:1035C0000E94BCE6CB018E010F5F1F4F8114910456
:1035D00099F0EF92FF927F936F936F927F92BF92D9
:1035E000AF929F928F928AEE92E09F938F931F9358
:1035F0000F930E94FEDF13C0A114B104B1F0EF924B
:10360000FF927F936F936F927F92BF92AF928EEEF5
:1036100092E09F938F931F930F930E94FEDF0FB64C
:10362000F894DEBF0FBECDBF30C0CD2879F0EF9249
:10363000FF927F936F936F927F9282EF92E09F93BE
:103640008F931F930F930E94FEDFE9CF892B69F0C0
:10365000EF92FF927F936F9386EF92E09F938F9309
:103660001F930F930E94FEDFDACFEF92FF928AEF53
:1036700092E09F938F931F930F930E94FEDF0F9012
:103680000F900F900F900F900F908091E20B81118F
:1036900003C0C8010E94E8C80E94F75DB8018EEF20
:1036A00092E00E94E05D8AE00E9446370C94732409
:1036B0006FEF7FEF80E50E94F3588C0197FF02C007
:1036C0000C947324F82E60E089E40E940259811161
:1036D0000C94CB26802F0E9456D481113AC50C94AD
:1036E000CB260E94F7350C9473248091E60B813031
:1036F00011F00C94732482E08093E60B0E94D6565E
:103700006093200C7093210C8093220C9093230CD7
:103710000C9473248091660983FF02C00C94732477
:103720000E94FB5D87FF02C00C94732483E50E9416
:10373000D358882379F00E9457580E9460E8CB0143
:103740000E947E9D0E94B89F811104C00E94427415
:103750000E94B7690E94D9870C9473240E94FB5D74
:10376000182F87FF02C00C94852486EA94E20E94F9
:10377000E85A812F0E948E9D0C94822480E50E943D
:10378000876A81110C94732481E40E948A588823EB
:1037900021F06091ED0270E002C06FEF70E083E510
:1037A0000E94E0588F3F910519F010F08FEF90E0E4
:1037B000BC0180E00E94D2D30C94732480E50E9467
:1037C000876A60E070E00E94D2D30C9473248EE488
:1037D0000E94D358882311F40C9473240E941F581C
:1037E0006093D30D7093D40D8093D50D9093D60D27
:1037F0000C94732483E50E948A58882329F083E57A
:103800000E94876A809366090E94F75D81E293E0D7
:103810000E94E85A80916609882369F19EEEE92E9C
:1038200096E0F92E00E010E020E08091660990E03B
:10383000A0E0B0E0002E04C0B695A79597958795B7
:103840000A94D2F780FF0EC0DD24D394D20E222337
:1038500019F08CE20E944637F701859194910E94FD
:10386000E85A2D2D0F5F1F4F32E0E30EF11C05309B
:103870001105D9F604C08DE193E00E94E85A8AE070
:103880000E9446370C94732483E50E94D358882302
:1038900081F00E942F58282F30E02D33310524F479
:1038A000809300010C9473248CE3809300010C94AA
:1038B00073240E94F75DC0900001D12CE12CF12C03
:1038C00088E293E00E94E85A4AE0C701B6010E94EC
:1038D0004D378AE00E9446370C9473248091660924
:1038E00083FF02C00C94732483E50E94D35888237D
:1038F00011F40C9473240E9457580E9460E86337B7
:10390000710514F063E770E07093880C6093870C86
:103910000E94879B0E94B89F81110C9473240E947F
:1039200042740E94B769DFC78091660983FDDBC7D7
:1039300083E50E94D3588AAB81110C94742782E5E9
:103940000E94D35881110C947427CDC783E50E943F
:10395000D358882309F4C7C70E942F58182F90E026
:10396000CD970CF01CE31093EC010E94D6566B012E
:103970007C01212F30E0A8EEB3E00E94E9E6C60EFC
:10398000D71EE81EF91EC092E801D092E901E0922C
:10399000EA01F092EB01A7C70E94CB9F0E944274FC
:1039A0000E94808A0E940A5868EE73E080E090E0EE
:1039B0000E94C45A60E08DE493E00E9413C993C74B
:1039C0008091F1018F7D80618093F1018CC780919E
:1039D000F1018F7E80628093F10185C783E50E94AB
:1039E000D358882399F00E94575820E030E04AE7E6
:1039F00054E40E94CCE00E9467E860930101709358
:103A0000020180930301909304016DC78091460DDC
:103A100084FF02C00C94F3288091480D87FF02C0F8
:103A20000C94F3288091490D837011F00C94F328C5
:103A30000E94808A58C783E50E948A58882309F427
:103A400052C70E94D6566093D70D7093D80D8093BD
:103A5000D90D9093DA0D0E94575820E030E04AE7E4
:103A600054E40E94CCE00E9467E86093ED017093FB
:103A7000EE018093EF019093F00135C70E94FB5D4A
:103A800087FD31C79091460D94FD04C09091480D7B
:103A900097FF0AC0B9E7CB2EB1E0DB2E17E6E12E87
:103AA00019E0F12E10E009C09091490D937091F743
:103AB000682F81E00E94245E16C7D6018D916D01AA
:103AC0000E94D358882309F459C0133009F04FC01D
:103AD0000E9457584B015C0120E030E040EA51E47D
:103AE0000E9466E087FF3AC0A501940160918709B2
:103AF000709188098091890990918A090E94EEE766
:103B00002B013C019B01AC016091970970919809D0
:103B10008091990990919A090E94CCE0609397094D
:103B2000709398098093990990939A096091DD02A6
:103B30007091DE028091DF029091E0020E946BE0C2
:103B4000A30192010E94CCE00E9467E86093DD022D
:103B50007093DE028093DF029093E00280928709E7
:103B600090928809A0928909B0928A0907C00E94A0
:103B70005758F701648B758B868B978B1F5FF4E02A
:103B8000EF0EF11C143009F098CF0E949D88ABC64F
:103B90000E94526986E59EE00E94EED3A4C6809101
:103BA0004A0D90914B0D009759F0DC012C91222386
:103BB00039F02091E20B211196C60E94E8C893C605
:103BC0000E94B76990C6F8018081282F2B7F21348D
:103BD00099F08035E9F4818180538A30C8F49801E6
:103BE0002E5F3F4F89012F5F3F4FF8018081803268
:103BF000C9F3915041F70CC02181213349F481343C
:103C000021F0853461F741E0EACFFF24F394E7CF58
:103C100041110E94F75DFF2021F089E795E00E94A5
:103C2000E85AC8010E9451385EC60E941FAE5BC6AA
:103C300081E08093CF098093CE090E943AAE53C6AB
:103C40001092CF091092CE090E943AAE4CC660E0A5
:103C500070E083E50E94F3588C01112702301105B2
:103C60003CF00E94F35D8DE795E00E94E85A3BC668
:103C700088E40E94D3588823A9F00E9453588A3AB6
:103C800091053CF08530F1E09F072CF084E091E055
:103C900002C08AEA90E0F801EE0FFF1FE259FF4EE2
:103CA0009183808386E40E94D358882381F00E9408
:103CB000535897FD07C08F3F910529F024F08FEFEF
:103CC00090E001C080E0F801E859FF4E808382E473
:103CD0000E94D358882309F406C60E9453588530A1
:103CE000910534F0843791052CF083E790E002C011
:103CF00085E090E0F801EE0FFF1FE659FF4E91833B
:103D00008083F1C50E94FB5D182F87FDECC50091F3
:103D1000460C84E40E94D358882311F40C9418298B
:103D20000E9457586B017C0120E030E0A9010E94FD
:103D300066E0882341F124E01202F0011124E55BE2
:103D4000F34FC082D182E282F38220E030E0A90109
:103D500060914B0C70914C0C80914D0C90914E0CDD
:103D60000E9466E081110CC080E090E0A0EEBFE30D
:103D700080934B0C90934C0CA0934D0CB0934E0C35
:103D800001E00C94182980E08093460C0E9458862C
:103D9000AAC50E94FB5D87FDA6C569E7E62E61E026
:103DA000F62E07E619E0D7018D917D010E948A5811
:103DB000882359F00E9457580E9467E8F8016083F1
:103DC0007183828393830E9426880C5F1F4FF9E0E2
:103DD00007371F0741F787C50E94FB5D87FD83C535
:103DE00059E7E52E51E0F52E07E619E0D7018D9150
:103DF0007D010E948A58882339F00E945758F801A3
:103E000064A375A386A397A30C5F1F4FF9E0073740
:103E10001F0761F768C58091470D87FF02C00C94AA
:103E20001E298091480D8E7011F00C941E290C945F
:103E300064298091460D81FF02C00C948C298091E9
:103E4000470D81FF02C00C948C298091480D8C7025
:103E500011F00C948C2947C543EDE42E49E0F42E73
:103E600010E088E5810F0E948A58882359F00E944B
:103E70005758D7016D937D938D939C931397812F02
:103E80000E94CBA81F5FB4E0EB0EF11C133049F782
:103E900062C84090E70B5090E80B6090E90B70907F
:103EA000EA0B2091390130913A0140913B01509148
:103EB0003C01C301B2010E946BE76AA37BA38CA300
:103EC0009DA38090EB0B9090EC0BA090ED0BB0902D
:103ED000EE0B20913D0130913E0140913F01509108
:103EE0004001C501B4010E946BE76EA37FA388A7C0
:103EF00099A7C090EF0BD090F00BE090F10BF090F1
:103F0000F20B2091410130914201409143015091C7
:103F10004401C701B6010E946BE76AA77BA78CA783
:103F20009DA7209145013091460140914701509154
:103F30004801C301B2010E946BE72B013C012091B3
:103F4000490130914A0140914B0150914C01C5010A
:103F5000B4010E946BE74B015C0120914D0130914F
:103F60004E0140914F0150915001C701B6010E948E
:103F70006BE76B017C010E94F75D8EED95E00E947E
:103F8000E85A83E50E948A58882321F00E9443580A
:103F90008093510180915101882319F086E292E1CA
:103FA00002C089E994E00E94E85A86ED95E00E94FB
:103FB000E85A4AA15BA16CA17DA18CEA98E20E941B
:103FC000A45B4EA15FA168A579A587E296E10E9456
:103FD000A45B4AA55BA56CA57DA581EB97E20E9439
:103FE000A45B87E09CE10E94E85A8EEC95E00E9479
:103FF000E85AB301A2018CEA98E20E94A45BB501E1
:10400000A40187E296E10E94A45BB701A60181EBBF
:1040100097E20E94A45B8AE00E94463764C483E56D
:104020000E94D358882331F00E9453589093530133
:10403000809352018091460D9091470DA091480DBB
:10404000B091490D892B8A2B8B2B09F04CC46091C0
:104050005201709153018EEE95E00E94B55B85E2AE
:104060000E9446378AE00E9446373DC40E94FB5DAD
:10407000F82E87FD38C483E50E94D3580F2D0F2CEE
:10408000000C110B882369F10E945358F801EE0FC0
:10409000FF1FE85DFE4F91838083000F111F000F0B
:1040A000111FF801EF5EFE4F7F01BC01990F880BD5
:1040B000990B0E946DE02AE037ED43E25CE30E9439
:1040C000CCE0F801E95BF34F2081318142815381DB
:1040D0000E94CCE0D7016D937D938D939C931397B1
:1040E00002C40E94F75D85E40E94463780E38F0D8D
:1040F0000E944637F801EE0FFF1FE85DFE4F60811A
:10410000718182EF95E00E94B55B85E20E9446379F
:104110008AE00E944637E7C380E50E948A588823D8
:1041200009F4E1C360E070E080E50E94F358F82EE6
:104130006FEF7FEF83E50E94F3588C0101960397A0
:1041400008F0D1C3F7FCCFC38F2D0E9456D488232B
:1041500039F00E94F35D8AEF95E00E94E85AC3C3EC
:104160000E94C18860E08F2D0E9460560F3FBFEF14
:104170001B0731F00130110571F000E010E00DC0B7
:104180008F2D0E94DE6B31E020E0892B09F030E0BA
:10419000032F122F02C001E010E08F2D0E94DE6B72
:1041A0008017910709F49FC30E947238F6CF8AE501
:1041B0000E94D358811106C083E50E94D3588823FA
:1041C00009F440C00E94575820E030E040E050EC35
:1041D0000E9466E087FF02C00C94152A0E9457587F
:1041E00020E030E040E050E40E94EEE8181614F4BD
:1041F0000C940F2A0E9457582091D1092695269594
:1042000020FF20C0209183093091840940918509C5
:10421000509186090E94CCE00E9460E82091430CF6
:104220003091440C260F371F3093440C2093430CDD
:1042300020917C0C30917D0C620F731F70937D0C6C
:1042400060937C0C8091480D87FF02C00C941B2A60
:104250008091490D837011F00C941B2A0E94F75D28
:104260004091C30C5091C40C6091C50C7091C60C68
:1042700089E096E00E94A45B8AE00E94463733C33F
:1042800064E071E083E50E94E0588C0168EE73E021
:1042900080E50E94E0588938E3E19E0710F088E845
:1042A00093E1B8010E94BBC81EC385E40E94876ADF
:1042B000811173C080E50E948A58882351F00E94C2
:1042C00057586093210E7093220E8093230E909383
:1042D000240E89E40E948A58882381F00E9457584E
:1042E0002CEA35EC47E25EE30E94CCE06093250EB9
:1042F0007093260E8093270E9093280E84E40E94DC
:104300008A58882381F00E9457582CEA35EC47E2FE
:104310005EE30E94EEE76093290E70932A0E80936D
:104320002B0E90932C0E0E94F75D4091210E509120
:10433000220E6091230E7091240E80E396E00E947D
:10434000A45B2CEA35EC47E25EE36091250E7091A8
:10435000260E8091270E9091280E0E94EEE7AB0169
:10436000BC018CE296E00E94A45B2CEA35EC47E2AB
:104370005EE36091290E70912A0E80912B0E909130
:104380002C0E0E94CCE0AB01BC0188E296E00E94BA
:10439000A45B8AE00E944637A6C20E94F35D86E1D4
:1043A00096E00E94E85A9FC283E50E948A58182F1F
:1043B000882371F00E9457580E9460E8709316019C
:1043C0006093150121E0672B09F020E02093FE02A5
:1043D00080E50E948A58882359F020911501309178
:1043E0001601232B11F00E9443588093FE027BC2DA
:1043F000111179C20E94F75D8DE496E00E94E85A9F
:104400008091FE02882319F08FE597E102C084E3D2
:1044100096E00E94E85A60911501709116018CE3B4
:1044200096E00E94B55B88E396E00E94E85A5BC282
:104430000E94C18858C20E945F5E55C288E50E94F2
:104440008A58D82E89E40E948A58C82E882321F0E1
:104450000E945358A82E28C0DD2011F10E94575801
:104460002091E70B3091E80B4091E90B5091EA0B5A
:104470000E946AE720E030E040E251E40E946AE7EF
:1044800020E030E047ED51E40E946BE728EC38E68D
:1044900048E95CE30E94CCE00E9460E8653018F0D7
:1044A000AA24AA9401C0A62E89E50E948A58F82E53
:1044B0008AE40E948A58182F882321F00E945358BA
:1044C000B82E28C0FF2011F10E9457582091EB0B05
:1044D0003091EC0B4091ED0B5091EE0B0E946AE78E
:1044E00020E030E040E251E40E946AE720E030E062
:1044F00047ED51E40E946BE728EC38E648E95CE3BD
:104500000E94CCE00E9460E8653018F0BB24BA94A9
:1045100001C0B62E8AE50E948A58E82E811105C096
:1045200081E50E948A58082F01C000E0C11001C037
:1045300010E0812F90E0D11001C0F12C8F0D911D62
:10454000019721F4E11009C0011107C00E94F35D39
:1045500080E696E00E94E85AC6C1A7FC02C0B7FEFA
:1045600007C00E94F35D85EB92E00E94E85ABBC150
:104570000E945758EA2CAA0CFF08AB2DBB0CBB0BB2
:10458000002399F025E02E9DF0012F9DF00D1124C0
:10459000EA0FFB1FEE0FFF1FEE0FFF1FE953F34F54
:1045A000208131814281538103C020E030E0A901A4
:1045B000E5E0EE9D8001EF9D100D11240A0F1B1FF9
:1045C000000F111F000F111F0953134F0E946BE7BB
:1045D000D8016D937D938D939C93139784C10E9412
:1045E000286A811180C10BE614E2E4EFFBE0FBA333
:1045F000EAA39E012F5F3F4F19019EE9C92E94E265
:10460000D92E7901F8016591759185919491AAA1AE
:10461000BBA18D909D90AD90BD90BBA3AAA3A50119
:1046200094010E946AE72B013C01F70160837183CA
:104630008283938320E030E040EA51EC0E94EEE870
:1046400087FD0AC020E030E040EA51E4C301B20136
:104650000E9466E018162CF4F601849118160CF4EA
:10466000F1C6D7018D909D90AD90BD907D0120E069
:1046700030E040EA51ECC501B4010E94EEE887FD4C
:10468000ECC620E030E040EA51E4C501B4010E94EC
:1046900066E018160CF0F5C6E0C684E50E948A585C
:1046A0008823A1F01092BF091092C0091092C1098D
:1046B0001092C2091092C3098FEF0E94435961E022
:1046C00070E084E50E94F3588093C30983E50E945B
:1046D0008A58882321F00E9453580E94435983E44A
:1046E0000E948A58882331F080911701803210F49B
:1046F0000E94175980E50E948A58882331F00E9451
:104700005358803210F40E94175985E50E948A5848
:10471000882309F4E8C00E945358803208F0E3C0AF
:1047200041E050E0082E02C0440F551F0A94E2F702
:1047300040955095052E000C660B770B0091BF0934
:104740001091C0092091C1093091C2094023512321
:10475000622373234093BF095093C0096093C1093A
:104760007093C209909117018913BDC01092650919
:10477000BAC00E94826EB7C00E949ECDB4C00E9493
:1047800096CCB1C061E083E50E94025991E089278F
:104790000E94ACCDA8C081E0809363100E94B9BD97
:1047A00010926310882309F49EC00E94F75D8CEB81
:1047B00096E00E94E85A97C0A090FF02B0900003D4
:1047C000C0900103D09002038BE40E94D358882349
:1047D00039F10E9457587B018C0120E030E0A9019B
:1047E0000E94EEE887FD0AC020E030E040E251E49C
:1047F000B701C8010E9466E01816A4F48FE30E9476
:1048000046378BE40E9446378FEC96E00E94E85AC8
:1048100087EC96E00E94E85A83E395E10E94E85A0B
:10482000750186019701A801B501C6010E9466E0E5
:10483000882361F00E94C188C701D8018093FF02DC
:1048400090930003A0930103B09302038091460D5F
:104850009091470DA091480DB091490D892B8A2B5D
:104860008B2B09F040C00E94F75D4091FF025091F0
:104870000003609101037091020383EE96E00E94B1
:10488000A45B8AE00E9446372EC081E08093D20963
:104890001092E20B60E083E50E940259811123C06F
:1048A0000E9433B420C00E941A6A1DC000914C0DB2
:1048B00010914D0D0023B9F00E94F75D84E50E9430
:1048C0004637B8017727072E000C880B990B0E94FA
:1048D000BA3780E20E94463786E196E00E94E85AA5
:1048E00002C00E941A6AFCADF1110FC0E091A10B49
:1048F000F0E0EE53F14F8081882339F086EA94E2AC
:104900000E94E85A8AE00E94463729A92093F201C2
:10491000EC960FB6F894DEBF0FBECDBFDF91CF91FE
:104920001F910F91FF90EF90DF90CF90BF90AF90CD
:104930009F908F907F906F905F904F903F902F90BF
:1049400008950E94C1883091F30B3EA780E00E9439
:1049500093598091540190915501A0915601B091C5
:1049600057018093F5019093F601A093F701B0935E
:10497000F80180915201909153019093F40180933A
:10498000F30184E690E0909353018093520181E01B
:104990008093CF090E943AAE8AE50E948A58F82E89
:1049A0008823A1F081E00E94EBA8082F82E00E94FA
:1049B000EBA811E0811101C010E0011118C088E5D9
:1049C0000E948A58082F811103C0C2C110E0F7CF9E
:1049D000111106C089E50E948A58182F0813BCC11E
:1049E0001F11B9C111E001E041E04AA707C08823C7
:1049F00009F47CC511E001E051E05AA780E1E4EF41
:104A0000FBE0A7EABCE001900D928A95E1F782E510
:104A10000E94D358882361F00E9457586B017C0193
:104A200020E030E0A9010E9466E08823D1F106C0B1
:104A3000C12CD12C60EAE62E60E4F62E8091D109DB
:104A400082FD09C02091FC0B3091FD0B4091FE0BC3
:104A50005091FF0B03C020E030E0A901C701B6016F
:104A60000E946BE76093AF0C7093B00C8093B10C15
:104A70009093B20C2091FC0B3091FD0B4091FE0BFA
:104A80005091FF0B0E94EEE818165CF419821A820E
:104A90001B821C82BE016F5F7F4F8FEA9CE00E94E9
:104AA00074AD002309F4D3C0112309F4CDC01092D2
:104AB000F40B1092F50B1092F60B1092F70B10926C
:104AC000F80B1092F90B1092FA0B1092FB0B0E944C
:104AD00093ADEEE9F4E284918FA7E2E9F4E2C590A8
:104AE000D590E590F490E6E9F4E285909590A59054
:104AF000B490A7019601C501B4010E9466E087FF4A
:104B000005C0A7019601C501B40104C0A501940127
:104B1000C701B6010E94EEE72B013C01EBE7F4E28E
:104B200025913591459154912AA33BA34CA35DA3B4
:104B3000E7E7F4E285919591A591B4918EA39FA3A7
:104B4000A8A7B9A79C01AD016AA17BA18CA19DA1D9
:104B50000E94EEE8181634F42EA03FA008A599A5EF
:104B60009AA305C02AA03BA00CA1ADA1AAA3A301B2
:104B70009201C301B2010E94CCE020E030E040E8A5
:104B80005FE30E946BE70E942CE99101402F5AA13C
:104B90000E94CCE06A8F7B8F8C8F9D8FEFE9F4E2CF
:104BA000049120E030E040EC5FE3C501B4010E94D5
:104BB000CCE04B015C01602F000F770B880B990B49
:104BC0000E946DE09B01AC01C501B4010E94CCE0E4
:104BD00069837A838B839C8320E030E040EC5FE341
:104BE000C701B6010E94CCE06B017C01BFA56B2F11
:104BF000BB0F770B880B990B0E946DE09B01AC01FA
:104C0000C701B6010E94CCE06E8B7F8B888F998F95
:104C1000AE01465E5F4FBE016F5F7F4FCE0146968D
:104C20000E9452AD0E9460CC1092F40B1092F50BD2
:104C30001092F60B1092F70B1092F80B1092F90BE2
:104C40001092FA0B1092FB0B80E00E94E4D9112322
:104C500019F081E00E94E4D9EAA5EE2309F451C0DD
:104C60008091D1098370833061F060E087EA92E03F
:104C70000E9413C90E94F75D88E992E00E94E85AF9
:104C800040C00E9493AD4091FC0B5091FD0B609190
:104C9000FE0B7091FF0B80E090E0AAEEB2E48093EF
:104CA000A70C9093A80CA093A90CB093AA0C809386
:104CB000AB0C9093AC0CA093AD0CB093AE0C4093A6
:104CC000AF0C5093B00C6093B10C7093B20C1E8A71
:104CD0001F8A188E198E88E0E7EAFCE0DE01119643
:104CE00001900D928A95E1F7AE014A5E5F4FBE01D9
:104CF0006B5F7F4FCE0101960E9452AD82E00E9411
:104D0000E4D90E9493AD8091CE098093CF098EA5FE
:104D10000E9493598091F5019091F601A091F701BD
:104D2000B091F8018093540190935501A0935601DE
:104D3000B09357018091F3019091F4019093530146
:104D40008093520183E0809327010E9495ADCBCDE3
:104D5000111102C03FCE012FFAA650CE0E94723828
:104D60000C94721A1092F30F1093F2010E94B7691B
:104D7000BACD88E50E948A5881115E9889E50E9423
:104D80008A5881115E988AE50E948A58882309F41E
:104D9000AACD1598A8CD8DE40E94D3588823A9F0F8
:104DA0000E942F58813039F020F0823049F462E0BF
:104DB00003C060E001C061E0802F0E94605605C022
:104DC0008BE093E00E94E85A8ECD83E50E94D35891
:104DD000882309F488CD0E942F58D82EB4E0FB1206
:104DE00003C08093ED027FCD61E0802F0E9460566A
:104DF0006D2D802F0E94076CED2CF12C61E0802F2F
:104E00000E946056E114F10429F460E0802F0E94B2
:104E1000076C69CDEFEFEE16F10429F461E0802F05
:104E20000E94076C60CDF801FF27E852F94EE4912B
:104E30008E2F90E0FC013197EA30F10508F046C072
:104E4000EA5BFF4F0C9459E784B5806884BDD7BCFA
:104E50004ACD84B5806284BDD8BC45CD80918000A8
:104E6000806880938000F0928900E09288003BCDBA
:104E700080918000806280938000F0928B00E092AD
:104E80008A0031CD8091B00080688093B000D092CC
:104E9000B30029CD8091B00080628093B000D092A1
:104EA000B40021CD80919000806880939000F092B2
:104EB0009900E092980017CD8091900080628093D5
:104EC0009000F0929B00E0929A000DCDF0E8EF1672
:104ED000F1042CF460E0802F0E94076C04CD61E0A7
:104EE000802F0E94076CFFCC0E9457580E9460E8F8
:104EF000633771050CF074C17093880C6093870C54
:104F00000E94879B0E94B89F81110E94F735609193
:104F1000870C7091880C072E000C880B990B0E944F
:104F20006DE02091830C3091840C4091850C509160
:104F3000860C0E94EEE818161CF48EE393E002C083
:104F40008FE293E060E00E9413C981E080935C01EE
:104F50001EA21FA218A619A61BAA1CAA1DAA1EAA39
:104F60001AA218AE4CE349AF5CE15AAF86E48BAFAE
:104F7000C12CD12C00E8E02E8FEBF82E91E09FABF6
:104F8000812C912C54016091870C7091880C072E14
:104F9000000C880B990B0E946DE0162F072F782EBE
:104FA000692E9601A7010E9466E0882311F12091E5
:104FB000830C3091840C4091850C5091860CAAA9E9
:104FC000612F702F872D962DA11107C00E9466E0DA
:104FD000881F8827881F8AA312C00E9466E087FF67
:104FE0000DC080915C01882309F47DCC0E94B769D3
:104FF0007ACC1C2D0D2D7E2C6F2C01C01AA20E9484
:10500000D6566B017C01DC01CB012BA93CA94DA933
:105010005EA9821B930BA40BB50BB7FD33C0D70160
:10502000C60188519C4FAF4FBF4F8BAB9CABADAB14
:10503000BEAB80E00E948E9D82EB94E20E94E85A13
:1050400081149104A104B104B9F0D501C401805FB9
:10505000984DAF4FBF4FBC01CD016C197D098E0932
:105060009F0928EE33E040E050E00E94BCE6CA0110
:10507000B9010E94BA3703C08FE30E9446378AE025
:105080000E9446370E9472380E94D6566093D70D10
:105090007093D80D8093D90D9093DA0D9091830C75
:1050A0009AA7A091840CAEA7B091850CBFA7E09100
:1050B000860CE8AB292F3A2F4B2F5E2F612F702FD4
:1050C000872D962D0E946AE71B012C0120E030E01D
:1050D000A9010E94EEE887FF04C057FA509457F8E0
:1050E000509481149104A104B104B1F420E030E0A3
:1050F00040E85FE3C201B1010E9466E087FF18C08B
:10510000FFA946015701FF2399F020E1820E27E213
:10511000921EA11CB11C0CC020E030E040E450E421
:10512000C201B1010E94EEE8181614F446015701BD
:105130003AA13323C1F18EA19FA1A8A5B9A5892BBE
:105140008A2B8B2B61F0D701C6012EA13FA148A568
:1051500059A5821B930BA40BB50BB7FD24C02AA540
:105160003EA54FA558A968AD79AD8AAD9BAD0E940B
:105170006AE720E030E040E85FE30E9466E087FDF8
:1051800030CFD701C601805A9541AF4FBF4F8EA394
:105190009FA3A8A7B9A79AA598AFAEA5A9AFBFA589
:1051A000BAAFE8A9EBAF80915C01882309F419CF6D
:1051B00081149104A104B10431F41FAAC12ED02E90
:1051C000E72CF62CE0CEF0E1CF1AF7E2DF0AE10897
:1051D000F108C818D908EA08FB08F7FCEECF01CFA0
:1051E00063E770E089CE0E94C18888E50E948A58F2
:1051F000882331F05E9A8091D1098E7F8093D10906
:1052000089E50E948A58882331F05E9A8091D109FD
:105210008D7F8093D1098AE50E948A58882309F4FA
:1052200062CB159A8091D1098B7F8093D1095BCB9A
:10523000602F83E50E9402590C94C41E83E50E94EE
:10524000D358882391F00E94575860939B0970931C
:105250009C0980939D0990939E096093A309709384
:10526000A4098093A5099093A60980E50E94D358CC
:10527000882351F00E94575860939B0970939C09B2
:1052800080939D0990939E0982E50E94D3588823BC
:1052900051F00E94575860939F097093A009809322
:1052A000A1099093A20984E50E94D358882309F4A8
:1052B0001ACB0E9457586093A3097093A409809356
:1052C000A5099093A6090FCB40919B0950919C0989
:1052D00060919D0970919E098FE995E00E94A45B01
:1052E00040919F095091A0096091A1097091A20974
:1052F00085E297E20E94A45B4091A3095091A40922
:105300006091A5097091A60981E598E20E94A45BCD
:105310008AE00E944637E7CA82E40E948A588823BE
:1053200051F00E940F586093770970937809809329
:10533000790990937A0983E50E948A58882351F06D
:105340000E9457586093A7097093A8098093A909F0
:105350009093AA0984E50E948A58882351F00E94FC
:1053600057586093AB097093AC098093AD09909343
:10537000AE098AE40E948A58882309F4B4CA0E94BC
:1053800057586B017C012AE037ED43E25CE30E9451
:10539000EEE887FD3DC02AE939E949E95EE3C70146
:1053A000B6010E9466E018169CF1C092CD02D09220
:1053B000CE02E092CF02F092D00260916709709124
:1053C00068098091690990916A090E946BE04B011C
:1053D0005C0123EF34E045E35FE3C701B6010E94BF
:1053E000CCE02AE136EF45E95EE30E94EEE79B015F
:1053F000AC01C501B4010E94CCE00E942CE960938D
:10540000E5027093E6028093E7029093E8026BCA8C
:105410000E94F35D8FEA95E00E94E85A64CA60E05A
:1054200070E080E090E40C94FC2060E070E080E0AC
:1054300090EC0C94FC2082E50E948A5881110C9417
:105440002E2151CAB7FAB094B7F8B094D7018D9213
:105450009D92AD92BC92139704C90E94F35D8EE9B0
:1054600096E00E94E85A61E080E996E00E9413C944
:105470000E9409B768E270E088EC90E00E94BBC827
:1054800032CA0C5F1F4FBFEFCB1ADB0AE4E20737CB
:105490001E0709F0B7C883EDE82E89E0F82E10E06A
:1054A000F10181919191A191B1911F01F701819336
:1054B0009193A193B1937F01812F0E94CBA81F5F8D
:1054C000133071F70E9495AD60E080E896E00E948D
:1054D00013C963E972E084E690E00E94BBC86AEBFE
:1054E00072E084E690E00E94BBC8FDC901E072CA88
:1054F000C0905401D0905501E0905601F0905701B2
:105500000C943E182F923F924F925F926F927F922F
:105510008F929F92AF92BF92CF92DF92EF92FF92C3
:105520000F931F93CF93DF93CDB7DEB764970FB67A
:10553000F894DEBF0FBECDBF8FEF9FEF9093890031
:10554000809388000AE00983212C312C7894809183
:10555000490290914A02A0914B02B0914C02892BD2
:105560008A2B8B2B71F080910D0190910E01A091EF
:105570000F01B0911001892B8A2B8B2B09F075C27A
:10558000D2C1809174108823D1F010927410809150
:10559000721090917310892B31F310927310109246
:1055A0007210109201029091300E8091310E981776
:1055B000D1F28091310E8F5F8F708093310E809188
:1055C000721090917310892B71F2409145025091A5
:1055D0004602609147027091480280914102909189
:1055E0004202A0914302B09144020091370210E0C0
:1055F00020E030E0841B950BA60BB70B08171907AA
:105600002A073B0710F4D901C801E82F840F951F22
:10561000A61FB71F8093450290934602A0934702AE
:10562000B09348021C8A1B8AF1E000910C02109191
:105630000D0220910E0230910F0280911C02909178
:105640001D02A0911E02B0911F02080F191F2A1FF0
:105650003B1F00931C0210931D0220931E023093E7
:105660001F0237FD31C08091F901082E000C990B03
:10567000AA0BBB0B40918110509182106091831056
:1056800070918410840F951FA61FB71F80938110FF
:1056900090938210A0938310B0938410809108029D
:1056A00090910902A0910A02B0910B02B901A801E0
:1056B000481B590B6A0B7B0B40931C0250931D0235
:1056C00060931E0270931F024091100250911102CC
:1056D0006091120270911302809120029091210238
:1056E000A0912202B0912302480F591F6A1F7B1F0D
:1056F0004093200250932102609322027093230270
:1057000077FD31C08091FA01082E000C990BAA0B8D
:10571000BB0BC0908510D0908610E0908710F09061
:1057200088108C0D9D1DAE1DBF1D8093851090931C
:105730008610A0938710B0938810809108029091F2
:105740000902A0910A02B0910B024A015B01881A7A
:10575000990AAA0ABB0A8092200290922102A09282
:105760002202B0922302C0901402D0901502E09061
:105770001602F09017028091240290912502A091C8
:105780002602B09127028C0D9D1DAE1DBF1D80937A
:10579000240290932502A0932602B0932702B7FD1E
:1057A00031C0C090FB010C2C000CDD08EE08FF0896
:1057B0008090891090908A10A0908B10B0908C10DF
:1057C000C80CD91CEA1CFB1CC0928910D0928A100C
:1057D000E0928B10F0928C10C0900802D0900902D9
:1057E000E0900A02F0900B024C015D018C189D08BC
:1057F000AE08BF088092240290922502A092260251
:10580000B09227028090280290902902A0902A024C
:10581000B0902B02C0901802D0901902E0901A02AA
:10582000F0901B02C80CD91CEA1CFB1CC092280279
:10583000D0922902E0922A02F0922B02F7FC3AC0A1
:105840008090FC01082C000C9908AA08BB08409025
:105850008D1050908E1060908F1070909010840C6E
:10586000951CA61CB71C80928D1090928E10A09251
:105870008F10B09290108090080290900902A09032
:105880000A02B0900B02C818D908EA08FB08C092B7
:105890002802D0922902E0922A02F0922B02E09094
:1058A000D009F0903502E3FE02C0FA9401C0F394EF
:1058B000F0923502F1110CC0E0908400F090850068
:1058C000AB88BC88EA18FB08F2E0EF16F104A0F3FD
:1058D00037FF5F9A77FF469AB7FF2B9A8090840034
:1058E000909085009C8A8B8AE0908400F0908500DF
:1058F000AB88BC88EA18FB08F2E0EF16F104A0F3CD
:1059000037FF5F9877FF4698B7FF2B98EE2331F06B
:1059100080908400909085009C8A8B8AE150F0E012
:1059200009F083CE20CE80913602882309F454C03A
:105930008090450290904602A0904702B0904802A5
:10594000C0903102D0903202E0903302F0903402E5
:1059500040913502C814D904EA04FB0480F4809114
:10596000020290910302209106023091070228174B
:10597000390728F4415040933502019714C08C1424
:105980009D04AE04BF04E0F48091020290910302F2
:1059900020910402309105028217930788F44F5F2B
:1059A0004093350201969093030280930202409146
:1059B000090150910A0160910B0170910C010FC017
:1059C000AA24AA94BA2C6501A0920901B0920A01F6
:1059D000C0920B01D0920C014FEF5FEFBA018091A2
:1059E000350287FD05C0289880E090E021E01FC0C7
:1059F000289AFACF222301F1299A8091840090916C
:105A000085002091350227FF21C02F5F20933502AA
:105A10002091840030918500281B390B22303105FC
:105A2000B8F3299820913502211112C020E030915D
:105A300035023111DFCF11C02091840030918500F3
:105A4000281B390B22303105B8F3D6CF2150DECFD9
:105A50008091840090918500E9CF40930D0150938F
:105A60000E0160930F017093100180914902909193
:105A70004A02A0914B02B0914C02892B8A2B8B2BAE
:105A800011F00C94D133A0917210B0917310109753
:105A900011F40C94F0358090450290904602A0904D
:105AA0004702B090480240914102509142026091F9
:105AB00043027091440284169506A606B706D8F0F4
:105AC0001092731010927210109201029091300E89
:105AD0008091310E981711F40C94F0358091310EAD
