:100000000C94C8150C94F2150C94F2150C94F2157E
:100010000C9495D70C9495D70C9495D70C9495D7B0
:100020000C94F2150C94F2150C94F2150C94F21534
:100030000C94F2150C9451520C94F2150C94F21588
:100040000C94F2150C9482A50C943D500C94F2156E
:100050000C949B3E0C94913E0C94F2150C94F2156A
:100060000C94F2150C94F2150C94F2150C94F215F4
:100070000C94F2150C94F2150C94F2150C94F215E4
:100080000C94D1380C94F2150C94F2156D9C729C62
:10009000779C819CAF9CAF9C8B9C939C9B9CA59CCC
:1000A0003BC23EC231C235C255C255C242C246C22F
:1000B0004CC250C2C8D687D5BED504D7BED5BED592
:1000C000BED5BED5BED5BED5BED5BED5BED5BED598
:1000D000BED5BED5BED5BED5BED5BED5BED5BED588
:1000E000BED5BED5BED5BED5BED5BED5BED5BED578
:1000F000FED6BED5BED5BED5BED5BED5BED5BED527
:10010000BED5D7D6BED5BED5BED5BED5BED5BED53D
:10011000BED5BED5BED5BED51BD7BBD54E414E49EB
:100120004E495459494E46CDCCCC3D0AD7233C17B5
:10013000B7D13877CC2B329595E6241FB14F0A0002
:100140000020410000C84200401C4620BCBE4CCAF2
:100150001B0E5AAEC59D7400407A10F35A00A0726F
:100160004E18090010A5D4E80000E87648170000F2
:10017000E40B54020000CA9A3B000000E1F50500C0
:100180000080969800000040420F000000A0860109
:10019000000000102700000000E8030000000064D9
:1001A00000000000000A0000000000010000000044
:1001B000002C76D888DC674F0823DFC1DFAE59E119
:1001C000B1B796E5E3E453C63AE651997696E8E688
:1001D000C28426EB898C9B62ED407C6FFCEFBC9C5B
:1001E0009F40F2BAA56FA5F490055A2AF75C936B6D
:1001F0006CF9676DC11BFCE0E40D47FEF520E6B528
:1002000000D0ED902E0300943577050080841E0801
:100210000000204E0A000000C80C333333330F981F
:100220006E12831141EF8D2114893BE65516CFFEE6
:10023000E6DB18D1844B381BF77C1D901DA4BBE472
:1002400024203284725E228100C9F124ECA1E53DB4
:1002500027434F4D4D554E49434154494F4E00445D
:10026000525952554E004552524F525300494E4634
:100270004F004543484F006F6B002028302D313030
:1002800029002076616C7565206F7574206F66207B
:1002900072616E676500416476616E6365204B3DF7
:1002A000003F5A206F7574206F662072616E67651B
:1002B0002028003F59206F7574206F662072616E90
:1002C000676520282D0020746F20003F58206F752F
:1002D00074206F662072616E676520282D00507251
:1002E0006F6265204F6666736574205800454550FF
:1002F000524F4D204F4B0A004F6666736574732052
:100300004170706C696564004572723A20546F6F79
:10031000206661722100546F6F20666172206672E0
:100320006F6D207265666572656E636520706F69BA
:100330006E740A004D34323120696E636F727265DB
:10034000637420706172616D65746572207573618C
:1003500067650A006469730043290A0061626C657D
:100360006420286D696E2074656D702000436F6C89
:10037000642065787472756465732061726520000D
:10038000496E76616C696420657874727564657213
:100390000A0020643A0020693A0020703A00507246
:1003A0006F6265204F6666736574205A0050726FE5
:1003B0006265204F66667365745A3A2000206F7537
:1003C00074206F662072616E67650A002053657243
:1003D000766F200050726F74656374656420506995
:1003E0006E0A0020466C6F773A200046523A002091
:1003F000204D61783A200020204D696E3A2000534C
:100400006F667420656E6473746F70733A20003F7A
:100410004A206F7574206F662072616E67652028B0
:10042000302E303120746F20302E33290A002054B2
:1004300000205200416363656C65726174696F6E80
:100440003A2050004D31343520533C696E64657854
:100450003E206F7574206F662072616E676520287C
:10046000302D31290A002F2F20004348414D4245AD
:10047000525F54454D5045524154555245004D4FE1
:1004800054494F4E5F4D4F44455300544845524DDB
:10049000414C5F50524F54454354494F4E004155D3
:1004A000544F5245504F52545F53445F535441543C
:1004B00055530050524F4D50545F535550504F526A
:1004C0005400454D455247454E43595F50415253A4
:1004D000455200434153455F4C494748545F42529F
:1004E000494748544E45535300544F47474C455F86
:1004F0004C494748545300534F4654574152455F67
:10050000504F574552004255494C445F5045524365
:10051000454E54004C4556454C494E475F44415466
:1005200041005A5F50524F4245004155544F4C458F
:1005300056454C005052494E545F4A4F420050526B
:100540004F4752455353004155544F5245504F5217
:10055000545F54454D5000564F4C554D45545249EB
:100560004300454550524F4D0042494E4152595F5C
:1005700046494C455F5452414E53464552005345FF
:100580005249414C5F584F4E5F584F4646004649CE
:10059000524D574152455F4E414D453A4D61726C47
:1005A000696E20322E302E352E332028476974484C
:1005B00075622920534F555243455F434F44455F71
:1005C00055524C3A68747470733A2F2F6769746887
:1005D00075622E636F6D2F4D61726C696E46697224
:1005E0006D776172652F4D61726C696E2050524F4C
:1005F000544F434F4C5F56455253494F4E3A312E5C
:1006000030204D414348494E455F545950453A4585
:100610006E6465722D332050726F204558545255C8
:100620004445525F434F554E543A31205555494445
:100630003A63656465326132662D343161322D343E
:100640003734382D396231322D63353563363266B1
:1006500033363766660A00456E6465722D33205066
:10066000726F204F46462E004D3131332053004DDE
:100670003131322053687574646F776E006F66662F
:100680000044454255473A00256979202569642090
:100690002569682025696D20256973005072696E8F
:1006A000742074696D653A20004E6F204D6F766539
:1006B0002E00436C69636B20746F20526573756DF7
:1006C000652E2E2E004D65736820706F696E742044
:1006D00063616E6E6F74206265207265736F6C76F5
:1006E00065640A005A2050726F626520506173740D
:1006F000204265640A005A2050726F626520506182
:1007000073742042656400486F6D652058592066F7
:10071000697273740A00486F6D65205859204669E4
:1007200072737400536C6565702E2E2E00000000ED
:1007300000000000000000000000006B4300006BA0
:100740004300007A4372026D0266025F02510200AA
:10075000004842000048420000A041FFFFFF24F48F
:10076000D43050C38E20C2A24017828B7011127AEF
:10077000910D816CD90AA861E108C75866076151DB
:1007800043061E4B5D05C145A7041A411104093DEE
:100790009803713931034036DB0265339102D4305E
:1007A0005402802E1D02632CEE01752AC501B0286B
:1007B000A001102781018F2564012B244B01E02229
:1007C0003401AC211F018D200D01801FFC00841E0F
:1007D000ED00971DDF00B81CD200E61BC600201BF1
:1007E000BC00641AB200B219A8000A19A0006A1865
:1007F0009900D117910040178B00B516840031166F
:100800007E00B31579003A157300C7146F005814B1
:100810006A00EE1366008813630025135E00C7129A
:100820005B006C12570015125400C1115100701179
:100830004F0021114B00D61049008D104700461083
:10084000440002104200C00F4000800F3E00420FE3
:100850003C00060F3B00CB0E3800930E37005C0EB9
:100860003500270E3400F30D3200C10D3100900D1C
:100870003000600D2E00320D2D00050D2C00D90C1E
:100880002B00AE0C2900850C29005C0C2700350CD0
:1008900027000E0C2600E80B2400C40B2400A00B3C
:1008A00023007D0B23005A0B2100390B2100180B6C
:1008B0002000F80A1F00D90A1E00BB0A1E009D0A6C
:1008C0001D00800A1D00630A1C00470A1B002C0A39
:1008D0001B00110A1A00F7091A00DD091900C409E2
:1008E0001900AB091900920917007B091800630968
:1008F00017004C09160036091600200916000A09CF
:100900001500F5081500E0081400CC081400B8081C
:100910001400A4081400900813007D0812006B084E
:10092000130058081200460812003408110023086A
:1009300011001208110001081100F0071000E00773
:100940001000D0071000C0071000B0070F00A1076B
:10095000100091070E0083070F0074070F00650752
:100960000E0057070E0049070E003B070D002E072B
:100970000E0020070D0013070D0006070D00F906F5
:100980000C00ED060D00E0060C00D4060C00C806B5
:100990000C00BC060C00B0060C00A4060B00990667
:1009A0000C008D060B0082060B0077060B006C0610
:1009B0000B0061060A0057060B004C060A004206AF
:1009C0000A0038060A002E060A0024060A001A0643
:1009D0000A001006090007060A00FD050900F405D3
:1009E0000900EB050900E2050900D9050900D00559
:1009F0000900C7050900BE050900B5050800AD05D9
:100A00000800A50509009C050800940508008C0550
:100A10000800840508007C050800740508006C05C2
:100A20000700650508005D050700560508004E052E
:100A30000700470507004005080038050700310595
:100A400007002A050700230507001C0506001605F8
:100A500007000F0507000805060002050700FB0454
:100A60000600F5040700EE040600E8040600E204B0
:100A70000700DB040600D5040600CF040600C90405
:100A80000600C3040600BD040600B7040600B10456
:100A90000500AC040600A6040600A00405009B04A3
:100AA000060095040500900406008A0405008504EC
:100AB0000500800406007A04050075040500700432
:100AC00005006B04050066040500610405005C0474
:100AD000050057040500520405004D0405004804B4
:100AE0000500430405003E0404003A0405003504F3
:100AF0000500300404002C0405002704040023042E
:100B000005001E0404001A04040016040500110464
:100B100004000D040400090405000404040000049A
:100B20000400FC030400F8030400F4030400F003D1
:100B30000400EC030400E8030400E4030400E00301
:100B40000400DC030400D8030400D4030400D00331
:100B50000400CC030400C8030300C503030024F40D
:100B600004D9201BC40C5C0E9804C4095F026507FD
:100B70007101F405F900FB04B30048048700C103C8
:100B800069005803550003034500BE023A00840281
:100B9000310053022A002902250004022000E4014A
:100BA0001C00C8011900AF0117009801140084014E
:100BB0001300710110006101100051010E0043018A
:100BC0000D0036010B002B010B0020010B0015015D
:100BD00009000C01090003010800FB000800F300F4
:100BE0000800EB000700E4000600DE000600D80065
:100BF0000600D2000600CC000500C7000500C200B8
:100C00000500BD000400B9000400B5000400B100F7
:100C10000400AD000400A9000400A5000300A20028
:100C200003009F0004009B00030098000300950050
:100C3000020093000300900003008D0002008B006F
:100C40000300880002008600020084000300810087
:100C500002007F0002007D0002007B00020079009C
:100C600002007700010076000200740002007200AA
:100C70000100710002006F0002006D0001006C00B5
:100C800002006A00010069000200670001006600BE
:100C900001006500010064000200620001006100C3
:100CA0000100600001005F0002005D0001005C00C7
:100CB00001005B0001005A000100590001005800CA
:100CC00001005700010056000100550001005400CA
:100CD00001005300000053000100520001005100C8
:100CE0000100500001004F0001004E0000004E00C6
:100CF00001004D0001004C0001004B0000004B00C2
:100D000001004A00010049000100480000004800BD
:100D100001004700010046000000460001004500B8
:100D200000004500010044000100430000004300B2
:100D300001004200000042000100410000004100AB
:100D40000100400001003F0000003F0001003E00A4
:100D500000003E0001003D0000003D0001003C009D
:100D600000003C0000003C0001003B0000003B0094
:100D700001003A0000003A0001003900000039008B
:100D80000100380000003800000038000100370082
:100D90000000370001003600000036000000360079
:100DA000010035000000350000003500010034006E
:100DB0000000340000003400010033000000330064
:100DC0000000330001003200000032000000320059
:100DD000010031000000310000003100010030004E
:100DE000000030000000300001002F0000002F0044
:100DF00000002F0000002F0001002E0000002E0038
:100E000000002E0001002D0000002D0000002D002C
:100E100000002D0001002C0000002C0000002C0020
:100E200000002C0001002B0000002B0000002B0014
:100E300000002B0001002A0000002A0000002A0008
:100E400000002A00010029000000290000002900FC
:100E500000002900000029000100280000002800EF
:100E600000002800000028000000280001002700E2
:100E700000002700000027000000270000002700D6
:100E800001002600000026000000260000002600C9
:100E900000002600010025000000250000002500BC
:100EA00000002500000025000000250001002400AE
:100EB00000002400000024000000240000002400A2
:100EC0000100230000002300000023000000230095
:100ED0000000230000002300000023000100220086
:100EE000000022000000220000002200000022007A
:100EF000000022000100210000002100000021006C
:100F0000000021000000210000002100000021005D
:100F10000100200000002000000020000000200050
:100F20000000200000002000000020000000200041
:100F300001001F0000001F0000001F0000001F0034
:100F400000001F0000001F0000001F0001001E0025
:100F500000001E0000001E0000001E000000232CE8
:100F60000000B8220000561800003A0F0000B80830
:100F70000000B1040000710200003E010000457253
:100F8000726F722077726974696E6720746F204582
:100F90004550524F4D210A00627573793A207061B5
:100FA0007573656420666F7220696E7075740A00CF
:100FB000627573793A2070617573656420666F722B
:100FC00020757365720A00627573793A2070726FCA
:100FD00063657373696E670A002121204B494C4C8D
:100FE0002063617573656420627920746F6F206D72
:100FF00075636820696E6163746976652074696DD4
:1010000065202D2063757272656E7420636F6D6D3F
:10101000616E643A20004E6F20436865636B7375A0
:101020006D2077697468206C696E65206E756D62DD
:1010300065722C204C617374204C696E653A2000F7
:10104000636865636B73756D206D69736D6174633F
:10105000682C204C617374204C696E653A20004CFA
:10106000696E65204E756D626572206973206E6FC2
:1010700074204C617374204C696E65204E756D62EE
:1010800065722B312C204C617374204C696E653A6B
:1010900020004D313130000F150E1216170E1303BC
:1010A000021A1401000E0C190DFF180C0400012087
:1010B000746F6F206C6F6E672065787472757369DA
:1010C0006F6E2070726576656E7465640A002063C9
:1010D0006F6C6420657874727573696F6E207072BE
:1010E0006576656E7465640A00687474703A2F2FB3
:1010F0006D61726C696E66772E6F726700322E308A
:101100002E352E33002020506C616E6E6572427554
:101110006666657242797465733A2000204672658E
:1011200065204D656D6F72793A2000436F6D70696F
:101130006C65643A204A756C20203420323032309D
:101140000A00204C61737420557064617465643AC0
:1011500020323032302D30332D3331207C20417518
:1011600074686F723A202870616469632C20456E40
:101170006465722D332050726F290A00322E302E92
:10118000352E330A004D61726C696E0020536F6614
:1011900074776172652052657365740A0020576127
:1011A000746368646F672052657365740A00204237
:1011B000726F776E206F75742052657365740A00C4
:1011C0002045787465726E616C2052657365740A8F
:1011D00000506F77657255700A00255320256320F3
:1011E000256320256320256300656E6473746F702A
:1011F00073206869743A20001FFFFFFFFFFFFF6044
:101200000000000001FF400000000000FF8000001F
:101210000000007F83CF00000C303F87FF80000C70
:10122000301F867980000C000F8C30C7838C30E72C
:101230008C30CFC7CC31F38C30DCECEC33B98C3054
:10124000D86C6C33198C30D06C0C33198C30D86C52
:101250000C33198C30DC6C0E3B198C30CF7C079F23
:10126000198C30C77C038F19400000000000026019
:101270000000000000061FFFFFFFFFFFF800000056
:10128000010000000100008000555555000000409D
:101290000033333300AAAA2A004992240000002018
:1012A00000C7711C0099991900D1451700555515B3
:1012B000003BB1130024491200111111000000106D
:1012C000000F0F0F00E3380E0043790D00CCCC0C5B
:1012D00000C3300C00E8A20B0064210B00AAAA0A8C
:1012E00000703D0A009DD80900427B090092240944
:1012F00000DCD308008888080010420800000008BD
:1013000000F0C107008787070075500700711C07B0
:10131000003EEB0600A1BC0600699006006666066A
:1013200000703E06006118060017F4050074D10530
:10133000005BB00500B290050062720500555505CE
:101340000078390500B81E0500050505004EEC04BF
:101350000087D40400A1BD040090A70400499204B2
:1013600000C17D0400EE690400C756040044440433
:10137000005C320400082104004110040000000455
:10138000003FF00300F8E0030026D20300C3C303CC
:1013900000CCB503003AA803000A9B0300388E0373
:1013A00000C08103009F750300D0690300505E03F5
:1013B000001D53030034480300913D030033330301
:1013C0000016290300381F030097150300300C0393
:1013D00000030303000BFA020049F10200BAE8021D
:1013E000005CE002002DD802002DD0020059C80296
:1013F00000B0C0020031B90200DAB10200AAAA02AC
:1014000000A0A30200BC9C0200FA9502005C8F02BF
:1014100000DF88020082820200457C0200277602FB
:101420000027700200436A02007C640200D05E0262
:10143000003F590200C8530200FFFDFCFAF8F6F421
:10144000F2F0EEECEAE9E7E5E3E1E0DEDCDAD9D759
:10145000D5D4D2D0CFCDCBCAC8C7C5C3C2C0BFBDFB
:10146000BCBAB9B7B6B4B3B2B0AFADACAAA9A8A66E
:10147000A5A4A2A1A09E9D9C9A99989795949392B9
:10148000908F8E8D8B8A8988878684838281807FE6
:101490007E7D7B7A797877767574737271706F6EF2
:1014A0006D6C6B6A696867666564636261605F5EE4
:1014B0005D5C5B5A595858575655545352515050C9
:1014C0004F4E4D4C4B4A4A49484746464544434295
:1014D0004241403F3E3E3D3C3B3B3A39383837364F
:1014E0003535343332323130302F2E2E2D2C2B2BFC
:1014F0002A2929282727262525242323222121209C
:10150000201F1E1E1D1C1C1B1B1A1919181817162C
:1015100016151514131312121111100F0F0E0E0DB4
:101520000D0C0C0B0A0A0909080807070606050531
:10153000040403030202010000436F6E66696775CD
:10154000726174696F6E004F6666004F6E004D6F7A
:1015500074696F6E004175746F20486F6D6500503F
:1015600053550047656E657269630050726F746F02
:10157000636F6C00312E300042617564003131358B
:10158000323030004D656C7A692028437265616C99
:10159000697479290042696C696E656172204C65D5
:1015A00076656C696E6700457874727564657273F0
:1015B00000456E6465722D332050726F00323032F8
:1015C000302D30332D333100546865726D6973747A
:1015D0006F727300426F61726420496E666F0050D3
:1015E00072696E74657220496E666F0041626F7534
:1015F00074205072696E7465720054756E6500498E
:101600006E666F2053637265656E00536F6674205B
:10161000456E6473746F7073004D383400446973A1
:1016200061626C6520537465707065727300473237
:1016300038002062797465733B2063726320005325
:10164000657474696E67732053746F7265642028C3
:1016500000454550524F4D206461746173697A654D
:10166000206572726F722E0A002073746F72656447
:101670002073657474696E6773207265747269652E
:101680007665642028004572723A20454550524FD5
:101690004D2043524300202863616C63756C617474
:1016A000656429210A0020213D2000454550524F04
:1016B0004D20435243206D69736D61746368202D22
:1016C000202873746F7265642920004572723A2075
:1016D000454550524F4D20496E646578002053694E
:1016E0007A653A2000496E6465783A200045727246
:1016F0003A20454550524F4D2056657273696F6EC2
:1017000000204D61726C696E3D563736290A0045DE
:101710004550524F4D2076657273696F6E206D692A
:10172000736D617463682028454550524F4D3D00EC
:1017300020496E76616C69642065787472756465A1
:101740007220004361703A00526573656E643A20FE
:101750000020573A00452025530042656420436F1E
:101760006F6C696E672E2E2E00426564204865619D
:1017700074696E672E2E2E0023646566696E65207F
:1017800044454641554C545F004B6420004B692052
:10179000004B702000504944204175746F74756E81
:1017A000652066696E6973686564212050757420D0
:1017B000746865206C617374204B702C204B692019
:1017C000616E64204B6420636F6E7374616E74731A
:1017D0002066726F6D2062656C6F7720696E746F22
:1017E00020436F6E66696775726174696F6E2E68EB
:1017F0000A00504944204175746F74756E65206607
:1018000061696C6564212074696D656F75740A0087
:101810000A20436C617373696320504944200A00B5
:10182000204B643A2000204B693A2000204B703A4C
:1018300020002054753A2000204B753A2000206D7E
:1018400061783A2000206D696E3A200020643A20C9
:101850000020626961733A20005049442041757448
:101860006F74756E652073746172740A0050494418
:10187000204175746F74756E65206661696C65646E
:10188000212054656D706572617475726520746F86
:101890006F20686967680A00504944204175746F79
:1018A00074756E65206661696C65642120426164AF
:1018B000206578747275646572206E756D626572EC
:1018C0000A0054656D7065726174757265005072BE
:1018D0006F6265205A204F6666736574004D6169BA
:1018E0006E005072656865617420504C4120456EF1
:1018F00064005072656865617420504C41204265F7
:1019000064005072656865617420504554472042F8
:1019100065640050726568656174205045544720C5
:10192000456E6400436F6F6C646F776E0050726534
:101930006865617420504554470050726568656160
:101940007420504C410046616E2053706565640000
:101950004E6F7A7A6C6500466C6F770043616E63F8
:10196000656C204F626A656374004C6F616420533C
:10197000657474696E67730053746F726520536584
:101980007474696E677300416476616E6365642088
:1019900053657474696E6773004E4F005945530068
:1019A00043616E63656C204F626A656374203D001D
:1019B000436F6E66696775726174696F6E20424C21
:1019C000546F756368204D6F6465202D2035560A6D
:1019D00000454550524F4D204C61737420424C5489
:1019E0006F756368204D6F6465202D200044414E63
:1019F0004745523A204261642073657474696E678A
:101A0000732063616E2063617573652064616D612D
:101A10006765212050726F6365656420616E797718
:101A200061793F0043616E63656C005365742042C9
:101A30004C546F75636820746F204F440053657475
:101A400020424C546F75636820746F2035560043F4
:101A50006D643A204D6F64652D53746F7265004359
:101A60006D643A204F442D4D6F646500436D643AB8
:101A70002035562D4D6F646500436D643A205357F1
:101A80002D4D6F646500436D643A2053746F770089
:101A9000436D643A204465706C6F7900436D643A1D
:101AA0002053656C662D54657374005265706F72B7
:101AB0007420447261696E00436D643A205265730C
:101AC000657400526573746F726520446566617554
:101AD0006C747300424C546F75636800313235008A
:101AE0004245443A4550434F53203130304B005229
:101AF000756E617761792057617463683A204F4E43
:101B0000004D61782054656D7000323735004D69A5
:101B10006E2054656D700045313A204550434F5357
:101B2000203130304B00416476616E6365204B009C
:101B300053746570732F6D6D004E65787420436F1C
:101B4000726E657200446F6E65004E657874004871
:101B50006F6D696E672058595A005A2056616C752E
:101B60006500496E646578205900496E6465782087
:101B700058004C6576656C20436F726E6572730019
:101B800046616465204865696768740045646974E6
:101B9000204D657368004732380A473239004C657A
:101BA00076656C2042656400656E71756575656962
:101BB0006E672022004D3330332055312045256992
:101BC0002053256900504944204175746F74756E27
:101BD00065202A005049442D44202A005049442DB4
:101BE00049202A005049442D50202A002008204630
:101BF000616374002008204D6178002008204D6941
:101C00006E004175746F74656D7000457374657016
:101C1000732F6D6D005A73746570732F6D6D00595D
:101C200073746570732F6D6D005873746570732FC6
:101C30006D6D0000FE0003FF8007C7C00701E000D4
:101C400000E00000F00000700400700E00701F0043
:101C5000703F80F00E00E00F01E007C7C003FF8077
:101C600000FE0000FE0003FF8007C7C00F01E00E6A
:101C700000E03F80F01F00700E0070040070000054
:101C8000700000F00000E00701E007C7C003FF801C
:101C900000FE000E000E000E000E000E000E000EE4
:101CA000000E007FC03F801F000E00040004000EE5
:101CB000001F003F807FC00E000E000E000E000EC1
:101CC000000E000E000E00FFFFFF7F80FFC0FFC070
:101CD000FFC07F807F80FFC0FFC0FFC03F001E00AD
:101CE0000C004F46460A00466164652048656967F6
:101CF00068742000426564204C6576656C696E6787
:101D000020004661696C656420746F20656E6162B5
:101D10006C6520426564204C6576656C696E670A67
:101D200000496E76616C6964206D6573682E0A00E7
:101D300050726F62696E6720506F696E7400255330
:101D40002025692F25690050726F62696E67206DCA
:101D500065736820706F696E7420002028445259A2
:101D600052554E2900473239204175746F20426523
:101D700064204C6576656C696E67003F20284C2CAA
:101D8000522C462C4229206F7574206F6620626F9A
:101D9000756E64732E0A003F2856296572626F7350
:101DA00065206C6576656C20696D706C6175736912
:101DB000626C652028302D34292E0A00426164208F
:101DC0005A2076616C75650A004E6F2062696C69F5
:101DD0006E65617220677269640A00204D39322095
:101DE0005800496E76616C69642050696E204D6FB1
:101DF00064650A00202D20496E76616C6964206557
:101E000078747275646572206E756D6265722021DA
:101E10000A00544845524D414C2052554E415741BD
:101E20005900546865726D616C2052756E617761FE
:101E300079004572723A204D415854454D50004D3D
:101E4000415854454D5020747269676765726564E6
:101E5000004572723A204D494E54454D50004D494F
:101E60004E54454D50207472696767657265640011
:101E7000202F002042403A0020403A0070012C01FF
:101E800090012701B0012201C0011D01F0011801DC
:101E90001002130130020E016002090190020401D8
:101EA000C002FF000003FA004003F5008003F000C9
:101EB000D003EB002004E6007004E100E004DC0045
:101EC0004005D700C005D2004006CD00D006C800AE
:101ED0008007C3003008BE00F008B900C009B40094
:101EE000B00AAF00B00BAA00D00CA500000EA000F5
:101EF000500F9B00C01096005012910000148C00EF
:101F0000C0158700B0178200B0197D00D01B780083
:101F1000001E730040206E0090226900F0246400CF
:101F200040275F0090295A00E02B5500102E5000EA
:101F300020304B0010324600E033410090353C0029
:101F40001037370070383200A0392D00B03A280021
:101F5000A03B2300603C1E00103D1900903D140082
:101F6000103E0F00703E0A00C03E0500003F00001A
:101F7000403FFBFF803FF6FFC03FF1FF1FE03FF017
:101F80003FF03FF01FE01FE03FF03FF03FF00FC099
:101F9000078003001FE020102010201010201020C8
:101FA0002010201030300840048003003FFFF0383C
:101FB000007030FC3020FC102078102030102C00F5
:101FC000D02E31D02F7BD02F7BD02E31D02C00D0F3
:101FD00020301020781020FC1030FC303800703F8A
:101FE000FFF03FFFF03800703186302387102787DD
:101FF000902F87D02F03D020301020781020781019
:102000002030102F03D02F87D027879023871031BF
:1020100086303800703FFFF01FFFF81FFFF80410F4
:1020200040020820020820041040082080104100CF
:102030001041000820800410400000001FFFF81F1E
:10204000FFF8F80180000C480080001243C38CD0D8
:102050000271249267CC41249E4002492490401290
:10206000FBB3CEE00C2020202020202000506C6507
:10207000617365205265736574005052494E544532
:10208000522048414C5445440025533A20255300E2
:102090004B494C4C45442E20005072696E74657259
:1020A0002068616C7465642E206B696C6C28292033
:1020B00063616C6C6564210A006563686F3A004572
:1020C00072726F723A0042696C696E656172204C7F
:1020D0006576656C696E6720477269643A0A0053D9
:1020E000544F505045442E20005072696E746572F2
:1020F0002073746F707065642064756520746F2040
:102100006572726F72732E2046697820746865203C
:102110006572726F7220616E6420757365204D392F
:10212000393920746F20726573746172742E20289F
:1021300054656D7065726174757265206973207283
:10214000657365742E20536574206974206166740C
:1021500065722072657374617274696E67290A0012
:1021600021212053544F502063616C6C65642062C0
:10217000656361757365206F6620424C546F7563AB
:1021800068206572726F72202D207265737461729F
:10219000742077697468204D3939390A00507269A2
:1021A0006E74696E67204F626A6563740025532000
:1021B0002569006F70656E00545249474745524586
:1021C00044007A5F6D696E00795F6D696E00785FBB
:1021D0006D696E005265706F7274696E6720656E0E
:1021E0006473746F70207374617475730A0057613F
:1021F000726E696E673A20486F6D696E672042752E
:102200006D702044697669736F72203C20310A003A
:102210000202040000A0400000A0400000004000B6
:10222000002100240027002A0000002200250028A9
:10223000002B0000002000230026002900020202DB
:10224000020202020204040404040404040303035B
:102250000303030303010101010101010101020460
:102260000810204080010204081020408001020470
:102270000810204080804020100804020100000067
:10228000010200090A000000000403080700000022
:10229000000000000000000000000000004D6F760C
:1022A000652025736D6D004D6F766520302E316D84
:1022B0006D004D6F766520316D6D004D6F76652038
:1022C00031306D6D004D6F7665204178697300483F
:1022D0006F74656E6420746F6F20636F6C6400456B
:1022E00078747275646572004D6F7665205A004D82
:1022F0006F76652059004D6F7665205800457272E3
:102300003A207574663820666F6E74206E6F742084
:10231000696E697469616C697A65642E00000C0DE0
:1023200000FE07022603BC017FFE08FE08FE05082A
:102330000806000040F0C88888987810050808064C
:102340000000C0F88888888888F80505050600011F
:102350002030F830200508080600002070F8202002
:102360002020E00509090600FF2070A8A8B8888889
:102370007020050606060001E08CEA8C8A0A050931
:10238000090600FFF8A88888888888A8F8050A0A3E
:102390000600FE205050505088A8A8887003030300
:1023A00006000340A040FFFFFFFFFFFFFFFFFFFF0E
:1023B000FFFFFFFFFFFFFFFFFFFFFFFF0000000623
:1023C00005FF0107070602008080808080008003EF
:1023D0000303060105A0A0A005060606000050F8AC
:1023E0005050F8500509090600FF2070A8A0702879
:1023F000A87020050707060000C8C810204098985C
:1024000005070706000040A0A040A890680103034C
:102410000602058080800309090601FF20404080F4
:1024200080804040200309090601FF8040402020B1
:102430002040408005070706000020A8702070A8F3
:10244000200505050600012020F8202002030306D0
:1024500001FFC04080050101060003F802020206E8
:102460000100C0C00507070600000810102040400A
:1024700080050707060000708898A8C888700307C1
:102480000706010040C040404040E0050707060045
:1024900000708808102040F8050707060000F808BB
:1024A000103008887005070706000010305090F8BB
:1024B0001010050707060000F880F008088870056E
:1024C0000707060000304080F0888870050707067F
:1024D0000000F808101020202005070706000070F3
:1024E00088887088887005070706000070888878DB
:1024F000081060020505060100C0C000C0C0020649
:10250000060601FFC0C000C04080030505060101AA
:102510002040804020050303060002F800F8030570
:102520000506010180402040800507070600007075
:102530008810202000200507070600007088B8A832
:10254000B88070050707060000708888F8888888BA
:10255000050707060000F04848704848F0050707DF
:1025600006000070888080808870050707060000DC
:10257000F04848484848F0050707060000F8808002
:10258000F08080F8050707060000F88080F0808062
:10259000800507070600007088808098887005070E
:1025A00007060000888888F88888880307070601DE
:1025B00000E04040404040E00507070600003810BA
:1025C00010101090600507070600008890A0C0A0BA
:1025D0009088050707060000808080808080F805CD
:1025E000070706000088D8A8888888880507070696
:1025F00000008888C8A8988888050707060000702A
:10260000888888888870050707060000F08888F0A9
:1026100080808005070706000070888888A8906879
:10262000050707060000F08888F0A09088050707D6
:102630000600007088807008887005070706000093
:10264000F820202020202005070706000088888821
:102650008888887005070706000088888888505099
:102660002005070706000088888888A8A850050765
:102670000706000088885020508888050707060054
:102680000088885020202020050707060000F80851
:1026900010204080F80309090601FFE08080808057
:1026A000808080E005070706000080404020101071
:1026B000080309090601FFE020202020202020E057
:1026C0000503030600052050880501010600FEF8F9
:1026D0000303030601058040200505050600007080
:1026E000087888780507070600008080F0888888C9
:1026F000F005050506000070808088700507070654
:1027000000000808788888887805050506000070AC
:1027100088F08070050707060000304840E0404020
:10272000400507070600FE7088888878087005074E
:10273000070600008080F088888888030707060164
:10274000004000C0404040E00409090601FE1000BE
:102750003010101010906005070706000080808878
:1027600090E09088030707060100C04040404040C9
:10277000E0050505060000D0A8A8A8A805050506DF
:102780000000B0C8888888050505060000708888A4
:1027900088700507070600FEF0888888F0808005AD
:1027A00007070600FE78888888780808050505066A
:1027B0000000B0C8808080050505060000788070A4
:1027C00008F00507070600002020F8202020180543
:1027D000050506000088888898680505050600003C
:1027E00088888850200505050600008888A8A8501C
:1027F00005050506000088502050880507070600DB
:10280000FE88888850204080050505060000F810E5
:102810002040F80309090601FF2040404080404065
:1028200040200109090602FF80808080808080802E
:10283000800309090601FF8040404020404040805D
:1028400005030306000248A890FF20453A00205ADD
:102850003A0020593A0048617264636F64656420ED
:1028600044656661756C742053657474696E677332
:10287000204C6F616465640A003B200020204D39C4
:102880003030204B004C696E656172204164766186
:102890006E63653A0020204D3835312058005A2D9E
:1028A00050726F6265204F66667365740020440045
:1028B00020204D333031205000504944207365743E
:1028C00074696E67733A0020460020480020204D4E
:1028D0003134352053004D6174657269616C206834
:1028E000656174757020706172616D657465727375
:1028F0003A002020473239205720490020204D340B
:1029000032302053004175746F20426564204C655D
:1029100076656C696E673A0020204D32303620585B
:1029200000486F6D65206F66667365743A00204AD3
:102930000020204D323035204200416476616E63C4
:1029400065643A20423C6D696E5F7365676D656EC4
:10295000745F74696D655F75733E20533C6D696E7D
:102960005F66656564726174653E20543C6D696E96
:102970005F74726176656C5F6665656472617465CB
:102980003E204A3C6A756E635F6465763E00202097
:102990004D323034205000416363656C6572617460
:1029A000696F6E2028756E6974732F7332293A200F
:1029B000503C7072696E745F616363656C3E205257
:1029C0003C726574726163745F616363656C3E2021
:1029D000543C74726176656C5F616363656C3E0044
:1029E00020204D3230312058004D6178696D756D71
:1029F00020416363656C65726174696F6E20287530
:102A00006E6974732F7332293A0020450020204DDF
:102A10003230332058004D6178696D756D206665E0
:102A2000656472617465732028756E6974732F73A1
:102A3000293A0053746570732070657220756E6951
:102A4000743A0020204D3134392043203B20556E0C
:102A500069747320696E2043656C736975730A002D
:102A600020286D6D29002020473231202020203B76
:102A700020556E69747320696E206D6D00486F6D0E
:102A8000696E67204661696C6564000000FA430066
:102A900000FA430000A0400000C8410000A042002E
:102AA00000A0420000C8430000BA42F4010000F454
:102AB000010000640000008813000020436F756E61
:102AC0007420583A00453100626564002C20737907
:102AD0007374656D2073746F707065642120486530
:102AE000617465725F49443A200048656174696E9B
:102AF00067204661696C65640048656174696E674A
:102B0000206661696C656400205A3A200020593AB9
:102B1000200042656420583A20005072696E74208B
:102B20005061757365640050726F62696E6720460C
:102B300061696C65640A0050726F62696E67204655
:102B400061696C656400486F6D6520257325732588
:102B50007320466972737400220A00556E6B6E6FA3
:102B6000776E20636F6D6D616E643A202200456E52
:102B70006465722D332050726F2052656164792E26
:102B8000005072696E74696E672E2E2E000083E805
:102B900011241FBECFEFD0E4DEBFCDBF12E0A0E016
:102BA000B1E0E2E9FEEE01E00BBF02C007900D923A
:102BB000A835B107D9F721E1A8E5B2E001C01D921F
:102BC000AA30B207E1F715E1C8ECD5E104C02197BE
:102BD000FE010E94E1F4C73CD107C9F70E949BE3C4
:102BE0000C9447F70C9400002F923F924F925F9203
:102BF0006F927F928F929F92AF92BF92CF92DF920D
:102C0000EF92FF920F931F93CF93DF93CDB7DEB771
:102C1000E5970FB6F894DEBF0FBECDBF20919003AD
:102C20002AAB11E01093900380918F038D3409F447
:102C30004BC4843511F40C947326873411F00C9432
:102C40008E2680918D0390918E038C31910509F42D
:102C5000A9C18CF48430910509F4D7C01CF4029703
:102C600038F12EC48531910511F40C9490264B97C0
:102C700009F409C125C48A32910509F4FAC244F461
:102C80008D31910509F49EC14E9709F4AFC118C466
:102C90008B35910509F46AC28C35910509F46BC234
:102CA0008A35910509F00CC410928C030C9490267F
:102CB00080918B03813011F00C94902618ECC12E7A
:102CC0001EE0D12E0BE7E02E03E0F02E88EDA82EBB
:102CD0008EE0B82E10E088E5810F0E9489B088232D
:102CE00039F10E9409B02B013C018091000B811148
:102CF0001FC0812F0E942775882351F0D6012D9186
:102D00003D914D915C91C301B2010E94EBF409C069
:102D1000F5012081318142815381C301B2010E94BA
:102D2000EAF4D7016D937D938D939C9313970AC01A
:102D3000F60180819181A281B381F7018083918323
:102D4000A283B3831F5FF4E0CF0ED11C24E0E20E18
:102D5000F11C84E0A80EB11C133009F0BCCF85E44F
:102D60000E9489B0882301F10E9409B06B017C01A7
:102D700083E00E942775882371F02091D40E309152
:102D8000D50E4091D60E5091D70EC701B6010E94C4
:102D9000EBF46B017C01C0928703D0928803E09230
:102DA0008903F0928A0310C08091D40E9091D50EC1
:102DB000A091D60EB091D70E80938703909388038D
:102DC000A0938903B0938A0340E050E0BA0186E4FF
:102DD0000E94186B20E030E0A9010E946EF61816E0
:102DE00084F40E9409B020E030E040E752E40E9401
:102DF0006EF56093740170937501809376019093E2
:102E000077010E9499BA0C94902680E50E9489B0BF
:102E1000882329F00E9416986B017C0103C0C12C05
:102E2000D12C760183E50E9489B0882361F00E944D
:102E300009B020E030E04AE754E40E944CEE0E94E2
:102E4000E7F56B017C010E942255809126038111D8
:102E500005C060E084E297E00E941ACF0E943150E2
:102E6000C60ED71EE81EF91E0E943150DC01CB01B0
:102E70008C199D09AE09BF09B7FD02C00C949026BC
:102E80000E94C23AF1CF0E945FE081110C9490261B
:102E90008CE0E8E7F1E0DE01119601900D928A9551
:102EA000E1F780E50E9489B0882319F00E94F9AF0C
:102EB00001C060E080E090E0A8ECB2E48AA39BA3AC
:102EC000ACA3BDA380E090E0A0EAB0E48E8F9F8F1A
:102ED000A8A3B9A3613019F0623039F029C0BE014E
:102EE000625E7F4FCE01099644C029853A854B85A5
:102EF0005C856091D00E7091D10E8091D20E909130
:102F0000D30E0E94EBF46B017C0120E030E04AE735
:102F100053E40E94E6ED87FD06C0C12CD12CBAE730
:102F2000EB2EB3E4FB2ECE8ADF8AE88EF98E1CC02E
:102F3000E090D00EF090D10E0091D20E1091D30EF1
:102F4000A984BA84CB84DC849501A601B701C801A9
:102F50000E94E6ED87FF02C075018601C701D80116
:102F60008E8B9F8BA88FB98FBE01625E7F4FCE0183
:102F700046960E944EBF88E0FE013196DE015696CD
:102F800001900D928A95E1F7AE014E5D5F4FBE0153
:102F9000665E7F4FCE0146960E942CBF0E943CC1C8
:102FA0000C9490268091FF108770873011F00C945C
:102FB000BB2660E08FE40E94D09B81110C94902688
:102FC0000C94BB260E945FE081110C9490268091A6
:102FD0002503882311F40C94D92860E08FE40E9423
:102FE000D09B81110C9490260C94D9282091F31039
:102FF0003091F4104091F5105091F6106091C80E88
:103000007091C90E8091CA0E9091CB0E0E94EBF484
:10301000AB01BC0188E50E94186B69837A838B83BE
:103020009C832091F7103091F8104091F910509145
:10303000FA106091CC0E7091CD0E8091CE0E9091D1
:10304000CF0E0E94EBF4AB01BC0189E50E94186B26
:103050006D837E838F839887BE016B5F7F4FCE0128
:1030600001960E942F98882311F40C94902680E0FA
:103070000E942CB30E9431BE61E085E40E94D09B87
:1030800021E0482FBE016B5F7F4FCE0101960E9469
:10309000BBE06B017C019B01AC010E94ECF681114D
:1030A0005FC089809A80AB80BC8020E030E0A901BD
:1030B000C501B4010E94E6ED87FF05C027E137EBAB
:1030C00041E558EB04C027E137EB41E558E3C50182
:1030D000B4010E94EBF4AB01BC0182E19BE20E94CF
:1030E000F6B78D809E80AF80B88420E030E0A901E3
:1030F000C501B4010E94E6ED87FF05C027E137EB6B
:1031000041E558EB04C027E137EB41E558E3C50141
:10311000B4010E94EBF4AB01BC018DE09BE20E9484
:10312000F6B720E030E0A901C701B6010E94E6ED44
:1031300087FF05C067E177EB81E598EB04C067E1A5
:1031400077EB81E598E3A70196010E94EBF4AB01D0
:10315000BC0188E09BE20E94F6B78AE00E949639A3
:103160000E9418BE0E943CC10C9490268FE0809370
:103170008C030C94902674E8272E71E0372EE7E13B
:10318000EE2EE3E0FE2E88EC9EE09FA38EA3F8EDEA
:10319000CF2EFEE0DF2E00E010E0D1018D911D0169
:1031A0000E9489B0882309F44BC00E9409B02B010A
:1031B0003C01133049F0F601208131814281538175
:1031C0000E94EAF42B013C01AEA1BFA12D913D91DB
:1031D0004D915C91C301B2010E94EAF44B015C0184
:1031E0002DEB37E346E855EB0E946EF687FD0AC0EB
:1031F0002DEB37E346E855E3C501B4010E94E6ED47
:103200001816F4F4133051F44092D40E5092D50EA7
:103210006092D60E7092D70E01E012C0A501940103
:10322000F70160817181828193810E94EBF4D70163
:103230006D937D938D939C931397812F0E9479BA00
:103240001F5FB4E0EB0EF11CEEA1FFA13496FFA3CB
:10325000EEA3F4E0CF0ED11C143009F09ECF002372
:1032600021F084ED9EE00E9432550E943CC10C94F6
:10327000902680918B03813011F00C94902689E484
:103280000E9489B0E82E882321F00E94E59B082F38
:1032900001C000E08AE40E9489B0F82E882321F062
:1032A0000E94E59B182F01C010E0EE2011F00530C0
:1032B00020F4FF2041F0153030F085EC96E00E94BC
:1032C0004FB70C94902680E1E8ECFEE0ABE7B3E06A
:1032D00001900D928A95E1F7EE2019F1602F000F11
:1032E000770B880B990B0E94EDED2091070330912D
:1032F00008034091090350910A030E944CEE20916B
:103300000F033091100340911103509112030E945A
:10331000EBF460937B0370937C0380937D03909325
:103320007E03FF2019F1612F110F770B880B990B8A
:103330000E94EDED20910B0330910C0340910D03A1
:1033400050910E030E944CEE209113033091140310
:1033500040911503509116030E94EBF460937F0394
:1033600070938003809381039093820360E080E5F3
:103370000E94D09B8823C1F1EE20D1F02091F31060
:103380003091F4104091F5105091F61060917B034C
:1033900070917C0380917D0390917E030E94EAF4FA
:1033A00060937B0370937C0380937D0390937E03F3
:1033B000FF20D1F02091F7103091F8104091F910D2
:1033C0005091FA1060917F03709180038091810386
:1033D000909182030E94EAF460937F0370938003CC
:1033E000809381039093820340E050E0BA0186E429
:1033F0000E94186B6B017C0120E030E0A9010E9463
:103400006EF618165CF420E030E040E752E4C701A5
:10341000B6010E946EF56B017C0103C0C12CD12C5A
:1034200076018090740190907501A0907601B09023
:10343000770120E030E0A901C701B6010E94E6ED66
:10344000882341F0C0927401D0927501E092760118
:10345000F0927701009122011091230184E690E01F
:103460009093230180932201C0903101D0903201CA
:10347000E0903301F090340180E090E0A0E8BFE3F9
:103480008093310190933201A0933301B0933401C2
:103490000E9499BA8092740190927501A09276016F
:1034A000B09277011093230100932201C092310161
:1034B000D0923201E0923301F09234010C949026C4
:1034C0000E9451E00C94902680918D0390918E0380
:1034D0008C38910509F4FAC30CF0F7C088369105D1
:1034E00009F4F8C20CF044C08C34910509F4DDC233
:1034F000FCF48231910509F45FC46CF497FF02C0BB
:103500000C947026823091050CF4A2C1419709F405
:10351000FCC10C9470268A32910509F4BEC28B342A
:10352000910509F4BEC24F9711F00C9470260AC29F
:103530008335910509F439C47CF48135910509F48A
:1035400015C40CF02BC48D34910511F00C94702629
:103550000E9486CD0C9490268535910509F459C4B6
:103560000CF42AC48C35910509F476C40C947026A9
:103570008037910509F475C3B4F48C36910509F4CC
:103580006AC33CF48A36910509F4D8C20CF4C6C269
:10359000F9C28E36910509F400C30CF011C30E94E4
:1035A00029730C9490268537910509F4E6C40CF034
:1035B00075C08237910509F4D9C40CF45DC3833713
:1035C000910511F00C9470268EE895E00E944FB79B
:1035D00060E08EE795E00E94E67260E089E695E0A3
:1035E0000E94E67261E082E695E00E94E67260E089
:1035F00087E595E00E94E67261E087E495E00E942D
:10360000E67260E08EE395E00E94E67261E084E39A
:1036100095E00E94E67261E08AE295E00E94E6721F
:1036200061E082E295E00E94E67261E084E195E06B
:103630000E94E67260E086E095E00E94E67260E03B
:1036400087EF94E00E94E67260E089EE94E00E94C9
:10365000E67260E083ED94E00E94E67260E082EC46
:1036600094E00E94E67260E083EB94E00E94E672D0
:1036700060E08EE994E00E94E67261E08BE894E0FD
:103680000E94E67260E08EE794E00E94E67260E0DD
:103690008AE694E00E94E6720C94902687379105A2
:1036A00009F4B6C40CF47AC48837910509F4B3C49C
:1036B0008937910511F00C94702610922403109212
:1036C00023030E941DC20C9490268F3221E09207A2
:1036D00011F40C9465240CF050C08E3C910509F453
:1036E00089C5FCF4893C910509F4F8C474F48B395C
:1036F000910509F414C38E3B910509F40CC381397B
:10370000910511F00C9470268EC48C3C910509F43F
:103710002AC50CF05CC58B3C910509F405C50C94D9
:103720007026823E910509F4B9C674F48C3D91056A
:1037300009F443C68D3D910509F466C6833D9105A4
:1037400011F00C94702673C58232B1E09B0709F426
:1037500087C734F48831914009F4EBC60C94702685
:103760008D3221E0920711F40C94A1238E32914006
:1037700011F40C9421240C947026863EB1E09B0732
:1037800011F40C943D2584F58A39F1E09F0709F482
:103790006FC2ACF48139A1E09A0711F40C9468244B
:1037A0008239B1E09B0711F40C9472248039914066
:1037B00011F00C9470260E9422550C949026853AA4
:1037C000F1E09F0711F40C9477248C3A21E09207E2
:1037D00011F40C94E024843A914011F00C9470267A
:1037E0000E940E9A0C949026873FB1E09B0711F43B
:1037F0000C94AF2594F4853FF1E09F0711F40C94ED
:10380000A92514F00C94AC25843F914011F00C9440
:1038100070260E941D670C9490268335B3E09B07A9
:1038200011F40C94C8253CF4883F914011F40C9499
:10383000B7250C947026843823E0920711F40C9479
:10384000F925873E934011F40C9462260C9470265F
:1038500080E50E9489B0882329F00E9416986B01A8
:103860007C0103C0C12CD12C760183E50E9489B074
:10387000882361F00E9409B020E030E04AE754E478
:103880000E944CEE0E94E7F56B017C010E942255DC
:103890008091050390910603009721F061E00E945A
:1038A0006ECF05C060E082EB96E00E941ACF1091C7
:1038B000900383E08093900381E080930403C1141C
:1038C000D104E104F10431F00E943150C60ED71E3C
:1038D000E81EF91E80910403882311F40C94E0285B
:1038E000C114D104E104F10411F40C94DC280E9409
:1038F0003150DC01CB018C199D09AE09BF09B7FF1E
:1039000002C00C94DC280C94E0288091000384FF12
:1039100002C00C94E7288091020387FF02C00C9438
:10392000E72880910303837011F00C94E72860E08E
:1039300089EA96E00E941ACF5E985E9815985E9884
:103940000C9490260E9437CD7B018C0120E831E554
:1039500041E050E00E943CF4C9016DE671E00E9434
:10396000B9F44B015C01C801B70120E13EE040E041
:1039700050E00E943CF4CA01B90128E130E040E087
:1039800050E00E943CF4762E672EC62ED72E6CE3B4
:10399000262E312C412C512CC801B701A2019101D6
:1039A0000E943CF4F62EE72ECA01B901A201910152
:1039B0000E943CF4CB018E010F5F1F4F81149104D4
:1039C00099F0EF92FF927F936F936F927F92BF92E5
:1039D000AF929F928F9288E896E09F938F931F9368
:1039E0000F930E947EED13C0A114B104B1F0EF92C9
:1039F000FF927F936F936F927F92BF92AF928CE80A
:103A000096E09F938F931F930F930E947EED0FB6C6
:103A1000F894DEBF0FBECDBF30C0CD2879F0EF9255
:103A2000FF927F936F936F927F9280E996E09F93CE
:103A30008F931F930F930E947EEDE9CF892B69F03E
:103A4000EF92FF927F936F9384E996E09F938F9319
:103A50001F930F930E947EEDDACFEF92FF9288E9D9
:103A600096E09F938F931F930F930E947EED0F908C
:103A70000F900F900F900F900F9060E0C8010E9480
:103A80006ECF0E9401B9B8018CE996E00E9414B88B
:103A90008AE00E9496390C9490260E94F89B0C9420
:103AA00090260E94A1360C949026809103118130BB
:103AB00011F00C94902682E0809303110E94315003
:103AC0006093FC027093FD028093FE029093FF02CC
:103AD0000C9490268091010B83FF02C00C949026D9
:103AE0000E94007387FF02C00C94902683E50E9419
:103AF00089B0882379F00E9409B00E94E0F5CB01DB
:103B00000E947BA30E94F3A5811104C00E9486CD70
:103B10000E94EEDF0E9449540C9490260E9400738C
:103B2000182F87FF02C00C949F2687E792E00E941F
:103B30004FB7812F0E948BA30C949C2660E080E5F8
:103B40000E94F29981110C94902681E40E9440B069
:103B5000882321F060918804062F02C00FEF10E047
:103B600083E50E9489B0882349F00E94F9AF8B0158
:103B70006F3F710519F010F00FEF10E0009388040B
:103B80000C94902660E080E50E94F29981110C94DB
:103B90009026109288040C9490268EE40E9489B09E
:103BA000882311F40C9490260E94F9AF6093F802D8
:103BB0007093F9028093FA029093FB020C94902682
:103BC00083E50E9440B0882331F060E083E50E94E5
:103BD000F2998093010B0E9401B981E896E00E945E
:103BE0004FB78091010B882369F155E4E52E57E02A
:103BF000F52E00E010E020E08091010B90E0A0E0C5
:103C0000B0E0002E04C0B695A795979587950A94C5
:103C1000D2F780FF0EC0DD24D394D20E222319F0F8
:103C20008CE20E949639F701859194910E944FB7DA
:103C30002D2D0F5F1F4F82E0E80EF11C053011059E
:103C4000D9F604C08DE796E00E944FB78AE00E9443
:103C500096390C94902610920403109221010C9432
:103C6000902641E060E070E08FE696E00E9405B9A2
:103C70000E94E9360C94902683E50E9489B088233F
:103C800081F00E94DE99282F30E02D33310524F495
:103C9000809320010C9490268CE3809320010C9457
:103CA00090260E9401B9C0902001D12CE12CF12C6A
:103CB00088E696E00E944FB74AE0C701B6010E942D
:103CC0009D398AE00E9496390C9490268091010BD0
:103CD00083FF02C00C94902683E50E9489B088235C
:103CE00079F00E9409B00E94E0F56337710514F085
:103CF00063E770E07093F6026093F5020E94DCA126
:103D00000E94F3A581110C9490260E9486CD0E94FA
:103D1000EEDF0C9490260E942C6F0C94902683E585
:103D20000E9489B0882311F40C9490260E94DE9999
:103D3000182F90E0CD970CF01CE31093EC020E943A
:103D400031506B017C01212F30E0A8EEB3E00E94DE
:103D500090F4C60ED71EE81EF91EC092E802D0925B
:103D6000E902E092EA02F092EB02DAC70E9406A6AC
:103D70000E9486CD0E94E1560E9440751092E70293
:103D80001092E60268EE73E080E090E00E9473B665
:103D900060E087E596E00E941ACFC2C780918C034D
:103DA0008F7D806180938C03BBC780918C038F7E55
:103DB000806280938C03B4C783E50E9489B0882316
:103DC00099F00E9409B020E030E04AE754E40E94F4
:103DD0004CEE0E94E7F560931C0170931D018093E7
:103DE0001E0190931F019CC78091000384FF02C0B5
:103DF0000C94F9288091020387FF02C00C94F928E3
:103E000080910303837011F00C94F9280E94E1560D
:103E100087C783E50E9440B0882309F481C70E94C8
:103E200031506093E2027093E3028093E402909336
:103E3000E5020E9409B020E030E04AE754E40E9425
:103E40004CEE0E94E7F56093DE027093DF028093F0
:103E5000E0029093E10264C70E94007387FD60C78F
:103E60009091000394FD04C09091020397FF0AC053
:103E700034E8C32E31E0D32E42E0E42E4BE0F42EA2
:103E800010E009C090910303937091F7682F81E0CF
:103E90000E94DB9745C7D6018D916D010E9489B0C4
:103EA000882309F459C0133009F04FC00E9409B0AB
:103EB0004B015C0120E030E040EA51E40E94E6ED75
:103EC00087FF3AC0A50194016091220B7091230BEA
:103ED0008091240B9091250B0E946EF52B013C01E3
:103EE0009B01AC016091320B7091330B8091340BCC
:103EF0009091350B0E944CEE6093320B7093330B14
:103F00008093340B9093350B609178047091790411
:103F100080917A0490917B040E94EBEDA3019201C1
:103F20000E944CEE0E94E7F5609378047093790448
:103F300080937A0490937B048092220B9092230BBF
:103F4000A092240BB092250B07C00E9409B0F70184
:103F5000648B758B868B978B1F5FF4E0EF0EF11CE3
:103F6000143009F098CF0E94FE54DAC60E94BBD4E8
:103F700086E59FE00E9440DFD3C6809105039091C3
:103F80000603009741F0DC012C91222321F060E030
:103F90000E946ECFC5C60E94EEDFC2C60091050327
:103FA0001091060394E0F12C40E0915021F1F801CA
:103FB0008081282F2B7F213421F421812133D9F4D2
:103FC00007C08035C1F4818180538A3048F013C026
:103FD000813421F0853421F441E002C0FF24F394C0
:103FE00098012E5F3F4F89012F5F3F4FF80180817D
:103FF0008032C9F3DACF41110E9401B9FF2021F0CC
:1040000086E694E00E944FB7C8010E94A13A88C694
:104010000E94CEC185C681E0809324038093230350
:104020000E941DC27DC660E070E083E50E94E99BAE
:104030008C011127023011053CF00E9427B884E45E
:1040400094E00E944FB76CC688E40E9489B0882330
:10405000A9F00E94E59B8A3A91053CF08530F1E099
:104060009F072CF084E091E002C08AEA90E0F8011A
:10407000EE0FFF1FE652FD4F9183808386E40E947E
:1040800089B0882381F00E94E59B97FD07C08F3F90
:10409000910529F024F08FEF90E001C080E0F80155
:1040A000E852FD4F808382E40E9489B0882309F49E
:1040B00037C60E94E59B8530910534F08437910521
:1040C0002CF083E790E002C085E090E0000F111F24
:1040D000F801EC52FD4F9183808322C60E94007349
:1040E00087FD1EC6F4E8EF2EF1E0FF2E02E01BE094
:1040F000A2E1CA2EABE0DA2ED7018D917D010E949C
:1041000040B0882359F00E9409B00E94E7F5F801F9
:1041100060837183828393830E9487540C5F1F4F57
:10412000C016D10649F7FCC50E94007387FDF8C58B
:10413000E4E8EE2EE1E0FE2E02E01BE0D7018D91D7
:104140007D010E9440B0882339F00E9409B0F80137
:1041500064A375A386A397A30C5F1F4FFBE00231F6
:104160001F0761F7DDC58091010387FF02C00C9432
:104170001E29809102038E7011F00C941E2940912B
:10418000360B5091370B6091380B7091390B84E3EB
:1041900094E00E94F6B740913A0B50913B0B60912E
:1041A0003C0B70913D0B81E394E00E94F6B7409187
:1041B0003E0B50913F0B6091400B7091410B8EE292
:1041C00094E00E94F6B78AE00E949639A9C58091D2
:1041D000000381FF02C00C9464298091010381FFD8
:1041E00002C00C946429809102038C7011F00C942D
:1041F000642996C578ECE72E72E0F72E10E088E58A
:10420000810F0E9440B0882359F00E9409B0D70165
:104210006D937D938D939C931397812F0E9479BA10
:104220001F5FB4E0EB0EF11C133049F71EC840903D
:10423000D80E5090D90E6090DA0E7090DB0E20915F
:104240000401309105014091060150910701C3011D
:10425000B2010E94EBF46EA37FA388A799A7809078
:10426000DC0E9090DD0EA090DE0EB090DF0E20915F
:1042700008013091090140910A0150910B01C501DB
:10428000B4010E94EBF46AA77BA78CA79DA7C090FE
:10429000E00ED090E10EE090E20EF090E30E20915F
:1042A0000C0130910D0140910E0150910F01C70199
:1042B000B6010E94EBF46EA77FA788AB99AB209163
:1042C0001001309111014091120150911301C3016D
:1042D000B2010E94EBF42B013C01209114013091BA
:1042E00015014091160150911701C501B4010E94BA
:1042F000EBF44B015C0120911801309119014091C0
:104300001A0150911B01C701B6010E94EBF46B0129
:104310007C010E9401B98FEF93E00E944FB783E5C3
:104320000E9440B0882321F00E94FE9980930301EF
:1043300080910301882319F08EEF9AE102C08AE888
:1043400095E00E944FB787EF93E00E944FB74EA1D0
:104350005FA168A579A586EE99E20E94F6B74AA505
:104360005BA56CA57DA583EF92E20E94F6B74EA5F2
:104370005FA568A979A98CEE92E20E94F6B78BE658
:1043800090E20E944FB78FEE93E00E944FB7B301C7
:10439000A20186EE99E20E94F6B7B501A40183EF6F
:1043A00092E20E94F6B7B701A6018CEE92E20E945B
:1043B000F6B78AE00E949639B3C483E50E9489B0BB
:1043C000882331F00E94E59B909323018093220182
:1043D0008091000390910103A0910203B091030327
:1043E000892B8A2B8B2B09F09BC460912201709141
:1043F00023018BEE93E00E9407B885E20E94963974
:104400008AE00E9496398CC40E940073F82E87FDC2
:1044100087C483E50E9489B00F2D0F2C000C110B6F
:10442000882309F10E94E59BF801EE0FFF1FEF5F63
:10443000FE4F91838083000F111F000F111F0F5C2F
:104440001E4FBC01990F880B990B0E94EDED2AE0DD
:1044500037ED43E25CE30E944CEEF8016083718328
:10446000828393835DC40E9401B985E40E949639DA
:1044700080E38F0D0E949639000F111FF801EF5F46
:10448000FE4F6081718183EE93E00E9407B885E260
:104490000E9496398AE00E94963942C480E50E94C3
:1044A00040B0882309F43CC460E070E080E50E94DD
:1044B000E99BF82E6FEF7FEF83E50E94E99B8C016B
:1044C0000196039708F02CC4F7FC2AC48F2D0E9494
:1044D0000E37882339F00E9427B884ED93E00E94BC
:1044E0004FB71EC40E94225560E08F2D0E9461C507
:1044F0000F3FFFEF1F0731F00130110571F000E0B1
:1045000010E00DC08F2D0E9409C531E020E0892BFD
:1045100009F030E0032F122F02C001E010E08F2DD0
:104520000E9409C58017910709F4FAC30E94C23A94
:10453000F6CF80E50E9440B0882309F4F1C30E94C1
:10454000E59B8C01892B09F07FC083E50E9440B078
:10455000882389F00E94E59B8F3F2FEF920729F473
:104560008AE29FE00E943337DBC3BC018AE29FE00E
:104570000E94E237D5C30E9401B960E070E08CEC84
:1045800093E00E9407B880912C0F28E532E0690182
:10459000C81AD10887FDD394CC0CDD1CCC0CDD1CD3
:1045A0000D2C000CEE08FF0880912B0F28E830E05E
:1045B0004901881A910887FD9394880C991C880CEE
:1045C000991C092C000CAA08BB0880912A0F8F3F68
:1045D000C1F090E0FC01EE0FFF1F8E0F9F1FFC014A
:1045E000EB5FF04F2181328183E0220F331F8A95E8
:1045F000E1F794E0369527959A95E1F72E5F3F4FC6
:1046000002C020E030E02F5F3F4FC901330FAA0BFB
:10461000BB0B9C01AD01281939094A095B09A4EBC0
:10462000B0E00E947DF4A7019601281939094A09D2
:104630005B090E945EF4B90187EE9AE20E9407B816
:104640008AE00E9496396CC30E9427B8B8018DECAD
:1046500093E00E9407B88DEB93E00E944FB760C3D0
:104660008AE50E9489B0811106C083E50E9489B065
:10467000882309F44BC00E9409B020E030E040E0FC
:1046800050EC0E94E6ED87FDA8C60E9409B020E02C
:1046900030E040E050E40E946EF618160CF497C625
:1046A0000E9409B06B017C018091F110869586957E
:1046B00080FF22C020911E0B30911F0B4091200BD8
:1046C0005091210BC701B6010E944CEE0E94E0F50B
:1046D0002091C6023091C702260F371F3093C702C0
:1046E0002093C6022091C4023091C502620F731F4D
:1046F0007093C5026093C40280E50E9440B0882395
:1047000009F471C60E94FE9981116DC68091020361
:1047100087FD8FC680910303837009F08AC60E94CB
:1047200001B94091FB105091FC106091FD10709107
:10473000FE108EE993E00E94F6B78AE00E94963957
:10474000EFC260E085E40E94F299811173C080E5B8
:104750000E9440B0882351F00E9409B06093F90E86
:104760007093FA0E8093FB0E9093FC0E89E40E94E6
:1047700040B0882381F00E9409B02CEA35EC47E272
:104780005EE30E944CEE6093FD0E7093FE0E8093EC
:10479000FF0E9093000F84E40E9440B0882381F0C4
:1047A0000E9409B02CEA35EC47E25EE30E946EF508
:1047B0006093010F7093020F8093030F9093040F87
:1047C0000E9401B94091F90E5091FA0E6091FB0ED2
:1047D0007091FC0E8AE993E00E94F6B72CEA35EC62
:1047E00047E25EE36091FD0E7091FE0E8091FF0E38
:1047F0009091000F0E946EF5AB01BC0186E993E039
:104800000E94F6B72CEA35EC47E25EE36091010FB7
:104810007091020F8091030F9091040F0E944CEE53
:10482000AB01BC0182E993E00E94F6B78AE00E94E6
:10483000963976C20E9427B880E893E00E944FB76D
:104840006FC283E50E9440B0182F882371F00E9448
:1048500009B00E94E0F5709336016093350121E0C4
:10486000672B09F020E02093990480E50E9440B076
:10487000882359F02091350130913601232B11F016
:104880000E94FE99809399044BC2111149C20E9463
:1048900001B98DE693E00E944FB780919904882377
:1048A00019F088E096E102C084E593E00E944FB7DA
:1048B00060913501709136018CE593E00E9407B854
:1048C00088E593E00E944FB72BC20E942F6B28C24D
:1048D0008091F21081110C94351981E00E940853E7
:1048E0000C9435190E9426980E943CC119C26FEFA2
:1048F0007FEF89E40E94E99B182F6FEF7FEF8AE436
:104900000E94E99B082F8AE50E9440B0F82E811191
:1049100005C081E50E9440B0D82E01C0D12C17FD02
:1049200006C007FD04C0F11009C0D11007C00E94E5
:1049300027B884E393E00E944FB7F2C1153010F41A
:10494000053038F00E9427B885EC96E00E944FB7FA
:10495000E7C1E12E110FFF08002E000C110B0E9481
:1049600009B0DD2099F025E02E9DF0012F9DF00D7E
:104970001124E00FF11FEE0FFF1FEE0FFF1FE05A93
:10498000FD4F208131814281538103C020E030E01E
:10499000A901A5E0AE9DF001AF9DF00D11240E0F11
:1049A0001F1F000F111F000F111F005A1D4F0E94E3
:1049B000EBF4D8016D937D938D939C931397B0C1C5
:1049C0000E945FE08111ACC10DE217E0E8ECFEE06F
:1049D000FFA3EEA3CE0101961C019BE5C92E97E033
:1049E000D92E7101F8016591759185919491AEA1CF
:1049F000BFA18D909D90AD90BD90BFA3AEA3A5012A
:104A000094010E94EAF42B013C01F7016083718359
:104A10008283938320E030E040EA51EC0E946EF6FE
:104A200087FD0AC020E030E040EA51E4C301B20152
:104A30000E94E6ED18162CF4F601849118160CF479
:104A4000FEC4D7018D909D90AD90BD907D0120E07A
:104A500030E040EA51ECC501B4010E946EF687FDDA
:104A6000F9C420E030E040EA51E4C501B4010E94FD
:104A7000E6ED18160CF0FCC4EDC484E50E9440B0CD
:104A80008823A1F010925B0210925C0210925D02EA
:104A900010925E0210925F028FEF0E94C2B061E03E
:104AA00070E084E50E94E99B80935F0283E50E94A9
:104AB00040B0882321F00E94E59B0E94C2B083E4AD
:104AC0000E9440B0882331F080910001803210F4C0
:104AD0000E9496B080E50E9440B0882331F00E9489
:104AE000E59B803210F40E9496B085E50E9440B0AC
:104AF000882309F415C10E94E59B803208F010C19B
:104B000041E050E0082E02C0440F551F0A94E2F71E
:104B100040955095052E000C660B770B00915B02BB
:104B200010915C0220915D0230915E02402351237E
:104B30006223732340935B0250935C0260935D0297
:104B400070935E02909100018913EAC01092000BED
:104B5000E7C00E94DFD8E4C00E94BDD7E1C061E099
:104B600083E50E94D09B81270E94EDD8D9C081E0C7
:104B700080935A020E94286110925A02882309F4F5
:104B8000CFC00E9401B98DEE92E00E944FB7C8C01D
:104B90008091020387FD96C480910303837009F01E
:104BA00091C44091F3105091F4106091F510709100
:104BB000F6108EED92E00E94F6B74091F7105091FA
:104BC000F8106091F9107091FA1083EF92E20E9450
:104BD000F6B74091FB105091FC106091FD10709160
:104BE000FE108CEE92E20E94F6B78AE00E9496399F
:104BF00097C0A0909A04B0909B04C0909C04D09061
:104C00009D048BE40E9489B0882339F10E9409B089
:104C10007B018C0120E030E0A9010E946EF687FD47
:104C20000AC020E030E040E251E4B701C8010E9430
:104C3000E6ED1816A4F48FE30E9496398BE40E94E7
:104C4000963982E892E00E944FB78AE792E00E948C
:104C50004FB789EB9DE10E944FB77501860197011F
:104C6000A801B501C6010E94E6ED882361F00E940B
:104C70002255C701D80180939A0490939B04A09376
:104C80009C04B0939D048091000390910103A09136
:104C90000203B0910303892B8A2B8B2B09F040C0B0
:104CA0000E9401B940919A0450919B0460919C0428
:104CB00070919D0486E992E00E94F6B78AE00E9416
:104CC00096392EC081E080938B031092590260E0E8
:104CD00083E50E94D09B811123C00E94017120C0F6
:104CE0000E9451E01DC000918D0310918E0300239E
:104CF000B9F00E9401B984E50E949639B80177277E
:104D0000072E000C880B990B0E940A3A80E20E9441
:104D1000963980E893E00E944FB702C00E9451E0AC
:104D2000E0915802F0E0EA55F04F8081882339F095
:104D300087E792E00E944FB78AE00E949639FAA96D
:104D4000F0939003E5960FB6F894DEBF0FBECDBF8B
:104D5000DF91CF911F910F91FF90EF90DF90CF9057
:104D6000BF90AF909F908F907F906F905F904F908B
:104D70003F902F9008950E942255209125032CAB3F
:104D800080E00E942CB30E9431BE81E08093240316
:104D90000E941DC288E50E9440B0182F89E50E943C
:104DA00040B0082F8AE50E9440B01013F4C11817D4
:104DB00011F0012FF0C101E011E091E09EA780E128
:104DC000E8ECFEE0ABE7B3E001900D928A95E1F7E5
:104DD00082E50E9489B0882369F00E9409B06B01C6
:104DE0007C0120E030E0A9010E94E6ED882309F46F
:104DF0003FC006C0C12CD12CA0EAEA2EA0E4FA2EB6
:104E0000111103C0002309F40EC18091F11082FD3D
:104E100009C06091D00E7091D10E8091D20E909108
:104E2000D30E03C060E070E0CB01A70196010E94A1
:104E3000EBF46093830370938403809385039093D2
:104E400086032091D00E3091D10E4091D20E509118
:104E5000D30E0E946EF618165CF419821A821B8219
:104E60001C82BE016F5F7F4F83E893E00E944EBFBC
:104E7000112309F4D3C0002309F4CDC01092C80E49
:104E80001092C90E1092CA0E1092CB0E1092CC0E38
:104E90001092CD0E1092CE0E1092CF0E0E94FDBF3A
:104EA000EBE5F7E0A491ADABE9E3F7E0C590D59071
:104EB000E590F490EDE3F7E085909590A590B4909F
:104EC000A5019401C701B6010E946EF618162CF4D4
:104ED000A7019601C501B40104C0A5019401C70151
:104EE000B6010E946EF52B013C01E3E5F7E08591E8
:104EF0009591A591B4918EA39FA3A8A7B9A7EFE41C
:104F0000F7E085919591A591B4918AA79BA7ACA74D
:104F1000BDA79C01AD016EA17FA188A599A50E94A6
:104F20006EF6181634F42AA43BA49CA59BAB1DA5D1
:104F300005C02EA03FA0A8A5ABAB19A5A301920167
:104F4000C301B2010E944CEE20E030E040E85FE394
:104F50000E94EBF40E94ACF691014BA9512F0E94E4
:104F60004CEE6E8F7F8F88A399A3ECE5F7E0149148
:104F700020E030E040EC5FE3C501B4010E944CEE5C
:104F80004B015C01612F110F770B880B990B0E946D
:104F9000EDED9B01AC01C501B4010E944CEE6983AB
:104FA0007A838B839C8320E030E040EC5FE3C70191
:104FB000B6010E944CEE6B017C01BDA96B2FBB0FAB
:104FC000770B880B990B0E94EDED9B01AC01C7019B
:104FD000B6010E944CEE6E8B7F8B888F998FAE014D
:104FE000425E5F4FBE016F5F7F4FCE0146960E94CB
:104FF0002CBF0E9487D71092C80E1092C90E109233
:10500000CA0E1092CB0E1092CC0E1092CD0E1092B2
:10501000CE0E1092CF0E80E00E94FFBF002319F049
:1050200081E00E94FFBFEEA5EE2309F4A3C080E05B
:105030000E941AB78091F1108370833051F060E0C4
:1050400086E197E00E941ACF0E9401B987E097E0BD
:10505000ADC00E94FDBF4090D00E5090D10E609028
:10506000D20E7090D30E2091F3103091F410409135
:10507000F5105091F61060E070E08AEE92E40E9424
:10508000EAF46B017C0160937B0370937C03809353
:105090007D0390937E032091F7103091F81040919A
:1050A000F9105091FA1060E070E08AEE92E40E94EC
:1050B000EAF44B015C0160937F037093800380935B
:1050C0008103909382032091FB103091FC1040915A
:1050D000FD105091FE10C301B2010E94EAF46093EA
:1050E000830370938403809385039093860327E161
:1050F00037EB41ED58EBC501B4010E946EF687FD18
:105100004CC027E030E04BE653E4C501B4010E94F7
:10511000E6ED18160CF441C027E137EB41ED58EBF2
:10512000C701B6010E946EF687FD37C027E030E068
:105130004BE653E4C701B6010E94E6ED18166CF188
:105140001E8A1F8A188E198E88E0EBE7F3E0DE01D5
:10515000119601900D928A95E1F7AE014A5E5F4F7C
:10516000BE016B5F7F4FCE0101960E942CBF82E093
:105170000E94FFBF0E94FDBF809123038093240300
:105180008CA90E942CB30E9418BE83E08093240156
:105190000E943CC1C5CD8EA712CE60E086EF96E09E
:1051A0000E941ACF0E9401B984EE96E00E944FB788
:1051B000E1CF0E94C39CB4CD0E94C23A0C946A1CF9
:1051C00010920403109390030E94EEDFA9CD88E5AE
:1051D0000E9440B081115E9889E50E9440B0811123
:1051E0005E988AE50E9440B0882309F499CD15980D
:1051F00097CD0E94225588E50E9440B0882331F067
:105200005E9A8091F1108E7F8093F11089E50E9463
:1052100040B0882331F05E9A8091F1108D7F8093A9
:10522000F1108AE50E9440B0882309F479CD159ADF
:105230008091F1108B7F8093F11072CD83E50E94F5
:1052400089B0882391F00E9409B06093360B709367
:10525000370B8093380B9093390B60933E0B709310
:105260003F0B8093400B9093410B80E50E9489B0E7
:10527000882351F00E9409B06093360B7093370B6E
:105280008093380B9093390B82E50E9489B0882374
:1052900051F00E9409B060933A0B70933B0B8093DE
:1052A0003C0B90933D0B84E50E9489B0882309F460
:1052B00037CD0E9409B060933E0B70933F0B8093F3
:1052C000400B9093410B2CCD82E40E9440B0882388
:1052D00051F00E9416986093120B7093130B8093F9
:1052E000140B9093150B83E50E9440B0882351F076
:1052F0000E9409B06093420B7093430B8093440B60
:105300009093450B84E50E9440B0882351F00E94A1
:1053100009B06093460B7093470B8093480B9093B2
:10532000490B8AE40E9440B0882309F4F9CC0E941A
:1053300009B06B017C012AE037ED43E25CE30E9497
:105340006EF687FD3DC02AE939E949E95EE3C70108
:10535000B6010E94E6ED18169CF1C0926804D09246
:105360006904E0926A04F0926B0460910E0B7091F4
:105370000F0B8091100B9091110B0E94EBED4B01E4
:105380005C0123EF34E045E35FE3C701B6010E940F
:105390004CEE9B01AC01C501B4010E944CEE29E723
:1053A00032E84AE550E40E944CEE0E94ACF660936D
:1053B0008004709381048093820490938304B0CC22
:1053C0000E9427B88FE094E00E944FB7A9CCC12C6F
:1053D000D12CE12C10E4F12E67C9C12CD12CE12C89
:1053E000B0ECFB2E61C9A70196016091FB10709192
:1053F000FC108091FD109091FE100E94EBF46093E0
:10540000FB107093FC108093FD109093FE100E948F
:1054100001B94091FB105091FC106091FD1070910A
:10542000FE108DEA93E00E94F6B78AE00E9496395A
:105430006DC982E50E9440B0811171C971CCB7FA83
:10544000B094B7F8B094D7018D929D92AD92BC9272
:105450001397F7CA0E9427B886E193E00E944FB7DE
:1054600061E088E093E00E941ACF0E94DF8F58CC61
:105470000C5F1F4FBFEFCB1ADB0AE9E3F7E0E01741
:10548000F10709F0AFCA88ECE82E82E0F82E10E0B0
:10549000F10181919191A191B1911F01F701819346
:1054A0009193A193B1937F01812F0E9479BA1F5FDD
:1054B000133071F70E943CC160E088EF92E00E94D7
:1054C0001ACF2ECCF091F310FEA38090F4107090C0
:1054D000F5106090F6105090F7104090F810309052
:1054E000F9102090FA10C090FB10D090FC10E090C2
:1054F000FD10F090FE1088E50E9489B0882361F1CC
:105500000E9409B05B018C0120E030E04BE653ECD7
:105510000E946EF687FD0AC020E030E04BE653E4BF
:10552000B501C8010E94E6ED181694F46BEE70E028
:105530008BEC92E00E9407B86BEE70E086EC92E094
:105540000E9407B883E694E00E944FB710E005C0C0
:10555000AEA28B2C702E612E11E089E50E9489B0DD
:10556000882381F10E9409B0962EA72EB82E092F0C
:1055700020E030E04BE653EC0E946EF687FD0CC055
:1055800020E030E04BE653E4692D7A2D8B2D902FEF
:105590000E94E6ED181694F46BEE70E083EB92E057
:1055A0000E9407B86BEE70E086EC92E00E9407B8AC
:1055B00083E694E00E944FB710E004C0592C4A2CB7
:1055C0003B2C202E8AE50E9489B0882339F10E9465
:1055D00009B06B017C0120E030E040EA51EC0E9410
:1055E0006EF687FD0AC020E030E040EA51E4C701D2
:1055F000B6010E94E6ED18168CF46CEE7FEF81EA9E
:1056000092E00E9407B864E170E086EC92E00E94AC
:1056100007B883E694E00E944FB782CB112309F4C8
:105620007FCB8EA1982DA72DB62D8093F31090934C
:10563000F410A093F510B093F610852D942DA32DA2
:10564000B22D8093F7109093F810A093F910B093B7
:10565000FA10C092FB10D092FC10E092FD10F09274
:10566000FE105ECB2F923F924F925F926F927F928D
:105670008F929F92AF92BF92CF92DF92EF92FF9262
:105680000F931F93CF93DF93CDB7DEB764970FB619
:10569000F894DEBF0FBECDBF8FEF9FEF90938900D0
:1056A000809388000AE00983212C312C7894809122
:1056B000E1039091E203A091E303B091E403892B0D
:1056C0008A2B8B2B71F080912D0190912E01A0914E
:1056D0002F01B0913001892B8A2B8B2B09F075C2D9
:1056E000D2C18091B0108823D1F01092B010809177
:1056F000AE109091AF10892B31F310929903109254
:10570000AF101092AE109091300F8091310F98171A
:10571000D1F28091310F8F5F8F708093310F809124
:10572000AE109091AF10892B71F24091DD03509132
:10573000DE036091DF037091E0038091D9039091C3
:10574000DA03A091DB03B091DC030091CF0310E0FA
:1057500020E030E0841B950BA60BB70B0817190748
:105760002A073B0710F4D901C801E82F840F951FC1
:10577000A61FB71F8093DD039093DE03A093DF0382
:10578000B093E0031C8A1B8AF1E00091A4031091FE
:10579000A5032091A6033091A7038091B4039091B3
:1057A000B503A091B603B091B703080F191F2A1FC4
:1057B0003B1F0093B4031093B5032093B6033093BB
:1057C000B70337FD31C080919103082E000C990B6F
:1057D000AA0BBB0B4091BD105091BE106091BF1041
:1057E0007091C010840F951FA61FB71F8093BD1026
:1057F0009093BE10A093BF10B093C0108091A003EF
:105800009091A103A091A203B091A303B901A801B3
:10581000481B590B6A0B7B0B4093B4035093B503A1
:105820006093B6037093B7034091A8035091A90306
:105830006091AA037091AB038091B8039091B90372
:10584000A091BA03B091BB03480F591F6A1F7B1F79
:105850004093B8035093B9036093BA037093BB03AA
:1058600077FD31C080919203082E000C990BAA0B92
:10587000BB0BC090C110D090C210E090C310F0904C
:10588000C4108C0D9D1DAE1DBF1D8093C110909343
:10589000C210A093C310B093C4108091A003909144
:1058A000A103A091A203B091A3034A015B01881A4E
:1058B000990AAA0ABB0A8092B8039092B903A092EF
:1058C000BA03B092BB03C090AC03D090AD03E0909C
:1058D000AE03F090AF038091BC039091BD03A09103
:1058E000BE03B091BF038C0D9D1DAE1DBF1D8093E7
:1058F000BC039093BD03A093BE03B093BF03B7FD59
:1059000031C0C09093030C2C000CDD08EE08FF089A
:105910008090C5109090C610A090C710B090C8108D
:10592000C80CD91CEA1CFB1CC092C510D092C61032
:10593000E092C710F092C810C090A003D090A103CD
:10594000E090A203F090A3034C015D018C189D0828
:10595000AE08BF088092BC039092BD03A092BE0324
:10596000B092BF038090C0039090C103A090C20387
:10597000B090C303C090B003D090B103E090B203E5
:10598000F090B303C80CD91CEA1CFB1CC092C003E6
:10599000D092C103E092C203F092C303F7FC3AC075
:1059A00080909403082C000C9908AA08BB0840902A
:1059B000C9105090CA106090CB107090CC10840C1D
:1059C000951CA61CB71C8092C9109092CA10A09278
:1059D000CB10B092CC108090A0039090A103A09027
:1059E000A203B090A303C818D908EA08FB08C09224
:1059F000C003D092C103E092C203F092C303E090CF
:105A00005E0BF090CE03E3FE02C0FA9401C0F39463
:105A1000F092CE03F1110CC0E0908400F09085006C
:105A2000AB88BC88EA18FB08F2E0EF16F104A0F39B
:105A300037FF5F9A77FF469AB7FF2B9A80908400D2
:105A4000909085009C8A8B8AE0908400F09085007D
:105A5000AB88BC88EA18FB08F2E0EF16F104A0F36B
:105A600037FF5F9877FF4698B7FF2B98EE2331F00A
:105A700080908400909085009C8A8B8AE150F0E0B1
:105A800009F083CE20CE8091CD03882309F454C041
:105A90008090DD039090DE03A090DF03B090E003E0
:105AA000C090C903D090CA03E090CB03F090CC0320
:105AB0004091CE03C814D904EA04FB0480F4809119
:105AC0009A0390919B0320919E0330919F03281786
:105AD000390728F441504093CE03019714C08C1429
