:100000000C945E150C9488150C9488150C94881526
:100010000C9486DD0C9486DD0C9486DD0C9486DDD4
:100020000C9488150C9488150C9488150C948815DC
:100030000C9488150C9403410C9488150C94881525
:100040000C9488150C94D7AE0C94EF3E0C94881544
:100050000C943A3E0C94303E0C9488150C94881500
:100060000C9488150C9488150C9488150C9488159C
:100070000C9488150C9488150C9488150C9488158C
:100080000C9470380C9488150C948815DB94E094CB
:10009000E594EF941D951D95F99401950995139597
:1000A0007BBA7EBA71BA75BA95BA95BA82BA86BA6F
:1000B0008CBA90BA2BD4EAD221D367D421D321D3DE
:1000C00021D321D321D321D321D321D321D321D390
:1000D00021D321D321D321D321D321D321D321D380
:1000E00021D321D321D321D321D321D321D321D370
:1000F00061D421D321D321D321D321D321D321D31F
:1001000021D33AD421D321D321D321D321D321D335
:1001100021D321D321D321D37ED41ED34E414E49A6
:100120004E495459494E46CDCCCC3D0AD7233C17B5
:10013000B7D13877CC2B329595E6241FB14F0A0002
:100140000020410000C84200401C4620BCBE4CCAF2
:100150001B0E5AAEC59D7400407A10F35A00A0726F
:100160004E18090010A5D4E80000E87648170000F2
:10017000E40B54020000CA9A3B000000E1F50500C0
:100180000080969800000040420F000000A0860109
:10019000000000102700000000E8030000000064D9
:1001A00000000000000A0000000000010000000044
:1001B000002C76D888DC674F0823DFC1DFAE59E119
:1001C000B1B796E5E3E453C63AE651997696E8E688
:1001D000C28426EB898C9B62ED407C6FFCEFBC9C5B
:1001E0009F40F2BAA56FA5F490055A2AF75C936B6D
:1001F0006CF9676DC11BFCE0E40D47FEF520E6B528
:1002000000D0ED902E0300943577050080841E0801
:100210000000204E0A000000C80C333333330F981F
:100220006E12831141EF8D2114893BE65516CFFEE6
:10023000E6DB18D1844B381BF77C1D901DA4BBE472
:1002400024203284725E228100C9F124ECA1E53DB4
:1002500027434F4D4D554E49434154494F4E00445D
:10026000525952554E004552524F525300494E4634
:100270004F004543484F006F6B002028302D313030
:1002800029002076616C7565206F7574206F66207B
:1002900072616E676500416476616E6365204B3DF7
:1002A000003F5A206F7574206F662072616E67651B
:1002B0002028003F59206F7574206F662072616E90
:1002C000676520282D0020746F20003F58206F752F
:1002D00074206F662072616E676520282D00507251
:1002E0006F6265204F6666736574205800454550FF
:1002F000524F4D204F4B0A004F6666736574732052
:100300004170706C696564004572723A20546F6F79
:10031000206661722100546F6F20666172206672E0
:100320006F6D207265666572656E636520706F69BA
:100330006E740A004D34323120696E636F727265DB
:10034000637420706172616D65746572207573618C
:1003500067650A006469730043290A0061626C657D
:100360006420286D696E2074656D702000436F6C89
:10037000642065787472756465732061726520000D
:10038000496E76616C696420657874727564657213
:100390000A0020643A0020693A0020703A00507246
:1003A0006F6265204F6666736574205A0050726FE5
:1003B0006265204F66667365745A3A2000206F7537
:1003C00074206F662072616E67650A002053657243
:1003D000766F200050726F74656374656420506995
:1003E0006E0A0020466C6F773A200046523A002091
:1003F000204D61783A200020204D696E3A2000534C
:100400006F667420656E6473746F70733A20003F7A
:100410004A206F7574206F662072616E67652028B0
:10042000302E303120746F20302E33290A002054B2
:1004300000205200416363656C65726174696F6E80
:100440003A2050004D31343520533C696E64657854
:100450003E206F7574206F662072616E676520287C
:10046000302D31290A002F2F20004348414D4245AD
:10047000525F54454D5045524154555245004D4FE1
:1004800054494F4E5F4D4F44455300544845524DDB
:10049000414C5F50524F54454354494F4E004155D3
:1004A000544F5245504F52545F53445F535441543C
:1004B00055530050524F4D50545F535550504F526A
:1004C0005400454D455247454E43595F50415253A4
:1004D000455200434153455F4C494748545F42529F
:1004E000494748544E45535300544F47474C455F86
:1004F0004C494748545300534F4654574152455F67
:10050000504F574552004255494C445F5045524365
:10051000454E54004C4556454C494E475F44415466
:1005200041005A5F50524F4245004155544F4C458F
:1005300056454C005052494E545F4A4F420050526B
:100540004F4752455353004155544F5245504F5217
:10055000545F54454D5000564F4C554D45545249EB
:100560004300454550524F4D0042494E4152595F5C
:1005700046494C455F5452414E53464552005345FF
:100580005249414C5F584F4E5F584F4646004649CE
:10059000524D574152455F4E414D453A4D61726C47
:1005A000696E20322E302E352E332028476974484C
:1005B00075622920534F555243455F434F44455F71
:1005C00055524C3A68747470733A2F2F6769746887
:1005D00075622E636F6D2F4D61726C696E46697224
:1005E0006D776172652F4D61726C696E2050524F4C
:1005F000544F434F4C5F56455253494F4E3A312E5C
:1006000030204D414348494E455F545950453A4585
:100610006E6465722D332050726F204558545255C8
:100620004445525F434F554E543A31205555494445
:100630003A63656465326132662D343161322D343E
:100640003734382D396231322D63353563363266B1
:1006500033363766660A00456E6465722D33205066
:10066000726F204F46462E004D3131332053004DDE
:100670003131322053687574646F776E006F66662F
:100680000044454255473A00256979202569642090
:100690002569682025696D20256973005072696E8F
:1006A000742074696D653A20004E6F204D6F766539
:1006B0002E00436C69636B20746F20526573756DF7
:1006C000652E2E2E004D65736820706F696E742044
:1006D00063616E6E6F74206265207265736F6C76F5
:1006E00065640A005A2050726F626520506173740D
:1006F000204265640A005A2050726F626520506182
:1007000073742042656400486F6D652058592066F7
:10071000697273740A00486F6D65205859204669E4
:1007200072737400536C6565702E2E2E00000000ED
:1007300000000000000000000000006B4300006BA0
:100740004300007A4372026D0266025F02510200AA
:10075000004842000048420000A041FFFFFF24F48F
:10076000D43050C38E20C2A24017828B7011127AEF
:10077000910D816CD90AA861E108C75866076151DB
:1007800043061E4B5D05C145A7041A411104093DEE
:100790009803713931034036DB0265339102D4305E
:1007A0005402802E1D02632CEE01752AC501B0286B
:1007B000A001102781018F2564012B244B01E02229
:1007C0003401AC211F018D200D01801FFC00841E0F
:1007D000ED00971DDF00B81CD200E61BC600201BF1
:1007E000BC00641AB200B219A8000A19A0006A1865
:1007F0009900D117910040178B00B516840031166F
:100800007E00B31579003A157300C7146F005814B1
:100810006A00EE1366008813630025135E00C7129A
:100820005B006C12570015125400C1115100701179
:100830004F0021114B00D61049008D104700461083
:10084000440002104200C00F4000800F3E00420FE3
:100850003C00060F3B00CB0E3800930E37005C0EB9
:100860003500270E3400F30D3200C10D3100900D1C
:100870003000600D2E00320D2D00050D2C00D90C1E
:100880002B00AE0C2900850C29005C0C2700350CD0
:1008900027000E0C2600E80B2400C40B2400A00B3C
:1008A00023007D0B23005A0B2100390B2100180B6C
:1008B0002000F80A1F00D90A1E00BB0A1E009D0A6C
:1008C0001D00800A1D00630A1C00470A1B002C0A39
:1008D0001B00110A1A00F7091A00DD091900C409E2
:1008E0001900AB091900920917007B091800630968
:1008F00017004C09160036091600200916000A09CF
:100900001500F5081500E0081400CC081400B8081C
:100910001400A4081400900813007D0812006B084E
:10092000130058081200460812003408110023086A
:1009300011001208110001081100F0071000E00773
:100940001000D0071000C0071000B0070F00A1076B
:10095000100091070E0083070F0074070F00650752
:100960000E0057070E0049070E003B070D002E072B
:100970000E0020070D0013070D0006070D00F906F5
:100980000C00ED060D00E0060C00D4060C00C806B5
:100990000C00BC060C00B0060C00A4060B00990667
:1009A0000C008D060B0082060B0077060B006C0610
:1009B0000B0061060A0057060B004C060A004206AF
:1009C0000A0038060A002E060A0024060A001A0643
:1009D0000A001006090007060A00FD050900F405D3
:1009E0000900EB050900E2050900D9050900D00559
:1009F0000900C7050900BE050900B5050800AD05D9
:100A00000800A50509009C050800940508008C0550
:100A10000800840508007C050800740508006C05C2
:100A20000700650508005D050700560508004E052E
:100A30000700470507004005080038050700310595
:100A400007002A050700230507001C0506001605F8
:100A500007000F0507000805060002050700FB0454
:100A60000600F5040700EE040600E8040600E204B0
:100A70000700DB040600D5040600CF040600C90405
:100A80000600C3040600BD040600B7040600B10456
:100A90000500AC040600A6040600A00405009B04A3
:100AA000060095040500900406008A0405008504EC
:100AB0000500800406007A04050075040500700432
:100AC00005006B04050066040500610405005C0474
:100AD000050057040500520405004D0405004804B4
:100AE0000500430405003E0404003A0405003504F3
:100AF0000500300404002C0405002704040023042E
:100B000005001E0404001A04040016040500110464
:100B100004000D040400090405000404040000049A
:100B20000400FC030400F8030400F4030400F003D1
:100B30000400EC030400E8030400E4030400E00301
:100B40000400DC030400D8030400D4030400D00331
:100B50000400CC030400C8030300C503030024F40D
:100B600004D9201BC40C5C0E9804C4095F026507FD
:100B70007101F405F900FB04B30048048700C103C8
:100B800069005803550003034500BE023A00840281
:100B9000310053022A002902250004022000E4014A
:100BA0001C00C8011900AF0117009801140084014E
:100BB0001300710110006101100051010E0043018A
:100BC0000D0036010B002B010B0020010B0015015D
:100BD00009000C01090003010800FB000800F300F4
:100BE0000800EB000700E4000600DE000600D80065
:100BF0000600D2000600CC000500C7000500C200B8
:100C00000500BD000400B9000400B5000400B100F7
:100C10000400AD000400A9000400A5000300A20028
:100C200003009F0004009B00030098000300950050
:100C3000020093000300900003008D0002008B006F
:100C40000300880002008600020084000300810087
:100C500002007F0002007D0002007B00020079009C
:100C600002007700010076000200740002007200AA
:100C70000100710002006F0002006D0001006C00B5
:100C800002006A00010069000200670001006600BE
:100C900001006500010064000200620001006100C3
:100CA0000100600001005F0002005D0001005C00C7
:100CB00001005B0001005A000100590001005800CA
:100CC00001005700010056000100550001005400CA
:100CD00001005300000053000100520001005100C8
:100CE0000100500001004F0001004E0000004E00C6
:100CF00001004D0001004C0001004B0000004B00C2
:100D000001004A00010049000100480000004800BD
:100D100001004700010046000000460001004500B8
:100D200000004500010044000100430000004300B2
:100D300001004200000042000100410000004100AB
:100D40000100400001003F0000003F0001003E00A4
:100D500000003E0001003D0000003D0001003C009D
:100D600000003C0000003C0001003B0000003B0094
:100D700001003A0000003A0001003900000039008B
:100D80000100380000003800000038000100370082
:100D90000000370001003600000036000000360079
:100DA000010035000000350000003500010034006E
:100DB0000000340000003400010033000000330064
:100DC0000000330001003200000032000000320059
:100DD000010031000000310000003100010030004E
:100DE000000030000000300001002F0000002F0044
:100DF00000002F0000002F0001002E0000002E0038
:100E000000002E0001002D0000002D0000002D002C
:100E100000002D0001002C0000002C0000002C0020
:100E200000002C0001002B0000002B0000002B0014
:100E300000002B0001002A0000002A0000002A0008
:100E400000002A00010029000000290000002900FC
:100E500000002900000029000100280000002800EF
:100E600000002800000028000000280001002700E2
:100E700000002700000027000000270000002700D6
:100E800001002600000026000000260000002600C9
:100E900000002600010025000000250000002500BC
:100EA00000002500000025000000250001002400AE
:100EB00000002400000024000000240000002400A2
:100EC0000100230000002300000023000000230095
:100ED0000000230000002300000023000100220086
:100EE000000022000000220000002200000022007A
:100EF000000022000100210000002100000021006C
:100F0000000021000000210000002100000021005D
:100F10000100200000002000000020000000200050
:100F20000000200000002000000020000000200041
:100F300001001F0000001F0000001F0000001F0034
:100F400000001F0000001F0000001F0001001E0025
:100F500000001E0000001E0000001E000000232CE8
:100F60000000B8220000561800003A0F0000B80830
:100F70000000B1040000710200003E010000457253
:100F8000726F722077726974696E6720746F204582
:100F90004550524F4D210A00627573793A207061B5
:100FA0007573656420666F7220696E7075740A00CF
:100FB000627573793A2070617573656420666F722B
:100FC00020757365720A00627573793A2070726FCA
:100FD00063657373696E670A002121204B494C4C8D
:100FE0002063617573656420627920746F6F206D72
:100FF00075636820696E6163746976652074696DD4
:1010000065202D2063757272656E7420636F6D6D3F
:10101000616E643A20004E6F20436865636B7375A0
:101020006D2077697468206C696E65206E756D62DD
:1010300065722C204C617374204C696E653A2000F7
:10104000636865636B73756D206D69736D6174633F
:10105000682C204C617374204C696E653A20004CFA
:10106000696E65204E756D626572206973206E6FC2
:1010700074204C617374204C696E65204E756D62EE
:1010800065722B312C204C617374204C696E653A6B
:1010900020004D313130000F150E1216170E1303BC
:1010A000021A1401000E0C190DFF180C040001683F
:1010B0007474703A2F2F6D61726C696E66772E6F43
:1010C000726700322E302E352E33002020506C6196
:1010D0006E6E657242756666657242797465733AC2
:1010E00020002046726565204D656D6F72793A204B
:1010F00000436F6D70696C65643A204A756C2020FE
:101100003420323032300A00204C61737420557024
:1011100064617465643A20323032302D30332D33BF
:1011200031207C20417574686F723A2028706164A8
:1011300069632C20456E6465722D332050726F29CF
:101140000A00322E302E352E330A004D61726C6942
:101150006E0020536F667477617265205265736507
:10116000740A00205761746368646F672052657366
:1011700065740A002042726F776E206F757420527A
:10118000657365740A002045787465726E616C2021
:1011900052657365740A00506F77657255700A0066
:1011A00025532025632025632025632025630065C2
:1011B0006E6473746F7073206869743A20001FFF47
:1011C000FFFFFFFFFF600000000001FF4000000084
:1011D0000000FF8000000000007F83CF00000C3083
:1011E0003F87FF80000C301F867980000C000F8C39
:1011F00030C7838C30E78C30CFC7CC31F38C30DCF8
:10120000ECEC33B98C30D86C6C33198C30D06C0C5E
:1012100033198C30D86C0C33198C30DC6C0E3B19C4
:101220008C30CF7C079F198C30C77C038F1940000E
:101230000000000002600000000000061FFFFFFF2A
:10124000FFFFF800000001000000010000800055D1
:101250005555000000400033333300AAAA2A004944
:1012600092240000002000C7711C0099991900D138
:10127000451700555515003BB113002449120011C4
:10128000111100000010000F0F0F00E3380E004393
:10129000790D00CCCC0C00C3300C00E8A20B00642C
:1012A000210B00AAAA0A00703D0A009DD80900423D
:1012B0007B090092240900DCD3080088880800100C
:1012C00042080000000800F0C1070087870700758A
:1012D000500700711C07003EEB0600A1BC06006928
:1012E00090060066660600703E060061180600174C
:1012F000F4050074D105005BB00500B290050062F2
:101300007205005555050078390500B81E05000521
:101310000505004EEC040087D40400A1BD04009034
:10132000A7040049920400C17D0400EE690400C7CF
:10133000560400444404005C3204000821040041C7
:10134000100400000004003FF00300F8E003002652
:10135000D20300C3C30300CCB503003AA803000ABC
:101360009B0300388E0300C08103009F750300D0EB
:10137000690300505E03001D5303003448030091CD
:101380003D03003333030016290300381F03009781
:10139000150300300C0300030303000BFA0200499D
:1013A000F10200BAE802005CE002002DD802002D34
:1013B000D0020059C80200B0C0020031B90200DA00
:1013C000B10200AAAA0200A0A30200BC9C0200FA7B
:1013D0009502005C8F0200DF8802008282020045D5
:1013E0007C02002776020027700200436A02007C1C
:1013F000640200D05E02003F590200C8530200FFA1
:10140000FDFCFAF8F6F4F2F0EEECEAE9E7E5E3E1E8
:10141000E0DEDCDAD9D7D5D4D2D0CFCDCBCAC8C79D
:10142000C5C3C2C0BFBDBCBAB9B7B6B4B3B2B0AF22
:10143000ADACAAA9A8A6A5A4A2A1A09E9D9C9A997C
:10144000989795949392908F8E8D8B8A89888786B2
:1014500084838281807F7E7D7B7A797877767574CC
:10146000737271706F6E6D6C6B6A696867666564C4
:10147000636261605F5E5D5C5B5A595858575655B0
:101480005453525150504F4E4D4C4B4A4A49484785
:101490004646454443424241403F3E3E3D3C3B3B45
:1014A0003A39383837363535343332323130302FF7
:1014B0002E2E2D2C2B2B2A2929282727262525249B
:1014C000232322212120201F1E1E1D1C1C1B1B1A32
:1014D00019191818171616151514131312121111BD
:1014E000100F0F0E0E0D0D0C0C0B0A0A090908083F
:1014F0000707060605050404030302020100002095
:10150000746F6F206C6F6E67206578747275736985
:101510006F6E2070726576656E7465640A00206374
:101520006F6C6420657874727573696F6E20707269
:101530006576656E7465640A00436F6E66696775EB
:10154000726174696F6E004F6666004F6E004D6F7A
:1015500074696F6E004175746F20486F6D6500503F
:1015600053550047656E657269630050726F746F02
:10157000636F6C00312E300042617564003131358B
:10158000323030004D656C7A692028437265616C99
:10159000697479290042696C696E656172204C65D5
:1015A00076656C696E6700457874727564657273F0
:1015B00000456E6465722D332050726F00323032F8
:1015C000302D30332D333100546865726D6973747A
:1015D0006F727300426F61726420496E666F0050D3
:1015E00072696E74657220496E666F0041626F7534
:1015F00074205072696E7465720054756E6500498E
:101600006E666F2053637265656E00536F6674205B
:10161000456E6473746F7073004D383400446973A1
:1016200061626C6520537465707065727300473237
:1016300038002062797465733B2063726320005325
:10164000657474696E67732053746F7265642028C3
:1016500000454550524F4D206461746173697A654D
:10166000206572726F722E0A002073746F72656447
:101670002073657474696E6773207265747269652E
:101680007665642028004572723A20454550524FD5
:101690004D2043524300202863616C63756C617474
:1016A000656429210A0020213D2000454550524F04
:1016B0004D20435243206D69736D61746368202D22
:1016C000202873746F7265642920004572723A2075
:1016D000454550524F4D20496E646578002053694E
:1016E0007A653A2000496E6465783A200045727246
:1016F0003A20454550524F4D2056657273696F6EC2
:1017000000204D61726C696E3D563736290A0045DE
:101710004550524F4D2076657273696F6E206D692A
:10172000736D617463682028454550524F4D3D00EC
:1017300020496E76616C69642065787472756465A1
:101740007220004361703A00526573656E643A20FE
:101750000020573A00452025530042656420436F1E
:101760006F6C696E672E2E2E00426564204865619D
:1017700074696E672E2E2E0023646566696E65207F
:1017800044454641554C545F004B6420004B692052
:10179000004B702000504944204175746F74756E81
:1017A000652066696E6973686564212050757420D0
:1017B000746865206C617374204B702C204B692019
:1017C000616E64204B6420636F6E7374616E74731A
:1017D0002066726F6D2062656C6F7720696E746F22
:1017E00020436F6E66696775726174696F6E2E68EB
:1017F0000A00504944204175746F74756E65206607
:1018000061696C6564212074696D656F75740A0087
:101810000A20436C617373696320504944200A00B5
:10182000204B643A2000204B693A2000204B703A4C
:1018300020002054753A2000204B753A2000206D7E
:1018400061783A2000206D696E3A200020643A20C9
:101850000020626961733A20005049442041757448
:101860006F74756E652073746172740A0050494418
:10187000204175746F74756E65206661696C65646E
:10188000212054656D706572617475726520746F86
:101890006F20686967680A00504944204175746F79
:1018A00074756E65206661696C65642120426164AF
:1018B000206578747275646572206E756D626572EC
:1018C0000A0054656D7065726174757265005072BE
:1018D0006F6265205A204F6666736574004D6169BA
:1018E0006E005072656865617420504C41204265FD
:1018F00064005072656865617420504C4120456EEB
:1019000064005072656865617420504554472042F8
:1019100065640050726568656174205045544720C5
:10192000456E6400436F6F6C646F776E0050726534
:101930006865617420504554470050726568656160
:101940007420504C410046616E2053706565640000
:101950004E6F7A7A6C6500466C6F770041647661F1
:101960006E6365204B0053746570732F6D6D004E70
:1019700065787420436F726E657200446F6E650007
:101980004E65787400486F6D696E672058595A002B
:101990005A2056616C756500496E6465782059005F
:1019A000496E6465782058004C6576656C20436FFD
:1019B000726E657273004661646520486569676888
:1019C000740045646974204D657368004732380AB5
:1019D000473239004C6576656C2042656400656E5F
:1019E0007175657565696E672022004D333033204F
:1019F000553120452569205325690050494420412F
:101A000075746F74756E65202A005049442D44200A
:101A10002A005049442D49202A005049442D502085
:101A20002A0020082046616374002008204D617858
:101A3000002008204D696E004175746F74656D70EB
:101A4000004573746570732F6D6D005A7374657003
:101A5000732F6D6D005973746570732F6D6D005821
:101A600073746570732F6D6D0000FE0003FF8007B7
:101A7000C7C00701E00000E00000F00000700400B3
:101A8000700E00701F00703F80F00E00E00F01E04C
:101A900007C7C003FF8000FE0000FE0003FF8007B1
:101AA000C7C00F01E00E00E03F80F01F00700E0085
:101AB000700400700000700000F00000E00701E01A
:101AC00007C7C003FF8000FE000E000E000E000ED0
:101AD000000E000E000E000E007FC03F801F000EA3
:101AE00000040004000E001F003F807FC00E000EA7
:101AF000000E000E000E000E000E000E00FFFFFF95
:101B00007F80FFC0FFC0FFC07F807F80FFC0FFC01D
:101B1000FFC03F001E000C004F46460A00466164AD
:101B200065204865696768742000426564204C65DB
:101B300076656C696E6720004661696C6564207427
:101B40006F20656E61626C6520426564204C65762D
:101B5000656C696E670A00496E76616C6964206D18
:101B60006573682E0A0050726F62696E6720506F4D
:101B7000696E740025532025692F25690050726F06
:101B800062696E67206D65736820706F696E74207E
:101B900000202844525952554E29004732392041DD
:101BA00075746F20426564204C6576656C696E675C
:101BB000003F20284C2C522C462C4229206F757453
:101BC000206F6620626F756E64732E0A003F285680
:101BD000296572626F7365206C6576656C20696D2E
:101BE000706C61757369626C652028302D34292E04
:101BF0000A00426164205A2076616C75650A004EC5
:101C00006F2062696C696E65617220677269640A2F
:101C100000204D3932205800496E76616C6964208D
:101C200050696E204D6F64650A001FE03FF03FF081
:101C30003FF01FE01FE03FF03FF03FF00FC0078094
:101C400003001FE020102010201010201020201072
:101C5000201030300840048003003FFFF03800704F
:101C600030FC3020FC102078102030102C00D02EBA
:101C700031D02F7BD02F7BD02E31D02C00D02030F4
:101C80001020781020FC1030FC303800703FFFF03E
:101C90003FFFF03800703186302387102787902F60
:101CA00087D02F03D02030102078102078102030DB
:101CB000102F03D02F87D0278790238710318630AD
:101CC0003800703FFFF01FFFF81FFFF804104002BC
:101CD0000820020820041040082080104100104114
:101CE000000820800410400000001FFFF81FFFF8CC
:101CF000F80180000C480080001243C38CD00271B0
:101D0000249267CC41249E40024924904012FBB3A8
:101D1000CEE00C2020202020202000506C65617334
:101D200065205265736574005052494E54455220E7
:101D300048414C5445440025533A202553004B4913
:101D40004C4C45442E20005072696E7465722068B8
:101D5000616C7465642E206B696C6C28292063614A
:101D60006C6C6564210A006563686F3A00457272A5
:101D70006F723A0042696C696E656172204C6576DB
:101D8000656C696E6720477269643A0A0053544F64
:101D9000505045442E20005072696E746572207355
:101DA000746F707065642064756520746F2065724F
:101DB000726F72732E204669782074686520657290
:101DC000726F7220616E6420757365204D393939E8
:101DD00020746F20726573746172742E20285465AC
:101DE0006D706572617475726520697320726573B8
:101DF00065742E2053657420697420616674657261
:101E00002072657374617274696E67290A002121FA
:101E10002053544F502063616C6C6564206265638D
:101E200061757365206F6620424C546F756368203E
:101E30006572726F72202D207265737461727420E6
:101E400077697468204D3939390A005072696E74A7
:101E5000696E67204F626A656374002553202569A7
:101E600000202D20496E76616C696420657874725B
:101E700075646572206E756D62657220210A00546A
:101E80004845524D414C2052554E415741590054FE
:101E90006865726D616C2052756E6177617900457D
:101EA00072723A204D415854454D50004D4158549E
:101EB000454D5020747269676765726564004572AC
:101EC000723A204D494E54454D50004D494E5445AF
:101ED0004D502074726967676572656400202F0039
:101EE0002042403A0020403A0070012C0190012726
:101EF00001B0012201C0011D01F0011801100213FF
:101F00000130020E016002090190020401C002FFCB
:101F1000000003FA004003F5008003F000D003EB5B
:101F2000002004E6007004E100E004DC004005D776
:101F300000C005D2004006CD00D006C8008007C30F
:101F4000003008BE00F008B900C009B400B00AAF04
:101F500000B00BAA00D00CA500000EA000500F9BF3
:101F600000C01096005012910000148C00C015871C
:101F700000B0178200B0197D00D01B7800001E73DE
:101F80000040206E0090226900F024640040275F2A
:101F90000090295A00E02B5500102E500020304BA5
:101FA0000010324600E033410090353C00103737D6
:101FB0000070383200A0392D00B03A2800A03B2331
:101FC00000603C1E00103D1900903D1400103E0FB3
:101FD00000703E0A00C03E0500003F0000403FFB8D
:101FE000FF803FF6FFC03FF1FF6F70656E005452F7
:101FF00049474745524544007A5F6D696E00795FF5
:102000006D696E00785F6D696E005265706F7274F5
:10201000696E6720656E6473746F70207374617489
:1020200075730A005761726E696E673A20486F6D6A
:10203000696E672042756D702044697669736F72AE
:10204000203C20310A000202040000A0400000A051
:10205000400000004000002100240027002A00006A
:10206000002200250028002B00000020002300266D
:102070000029000202020202020202040404040413
:102080000404040303030303030303010101010127
:10209000010101010204081020408001020408101F
:1020A0002040800102040810204080804020100859
:1020B000040201000000010200090A0000000004FF
:1020C00003080700000000000000000000000000FE
:1020D0000000004D6F76652025736D6D004D6F76A5
:1020E0006520302E316D6D004D6F766520316D6D40
:1020F000004D6F76652031306D6D004D6F76652037
:102100004178697300486F74656E6420746F6F2046
:10211000636F6C64004578747275646572004D6F0E
:102120007665205A004D6F76652059004D6F7665B3
:102130002058004572723A207574663820666F6EBA
:1021400074206E6F7420696E697469616C697A6558
:10215000642E00000C0D00FE07022603BC017FFE6A
:1021600008FE08FE05080806000040F0C8888898A8
:102170007810050808060000C0F88888888888F864
:102180000505050600012030F83020050808060086
:10219000002070F820202020E00509090600FF201B
:1021A00070A8A8B888887020050606060001E08C93
:1021B000EA8C8A0A0509090600FFF8A88888888839
:1021C00088A8F8050A0A0600FE205050505088A83A
:1021D000A8887003030306000340A040FFFFFFFF31
:1021E000FFFFFFFFFFFFFFFFFFFFFFFFFFFFFFFFFF
:1021F000FFFF0000000605FF0107070602008080C0
:102200008080800080030303060105A0A0A00506CE
:102210000606000050F85050F8500509090600FF66
:102220002070A8A07028A87020050707060000C825
:10223000C8102040989805070706000040A0A0405D
:10224000A89068010303060205808080030909063F
:1022500001FF2040408080804040200309090601A2
:10226000FF804040202020404080050707060000F6
:1022700020A8702070A8200505050600012020F880
:1022800020200203030601FFC04080050101060073
:1022900003F8020202060100C0C00507070600009D
:1022A000081010204040800507070600007088983D
:1022B000A8C8887003070706010040C0404040409E
:1022C000E0050707060000708808102040F80507A1
:1022D00007060000F8081030088870050707060098
:1022E0000010305090F81010050707060000F88025
:1022F000F008088870050707060000304080F08865
:102300008870050707060000F80810102020200537
:102310000707060000708888708888700507070620
:10232000000070888878081060020505060100C06A
:10233000C000C0C00206060601FFC0C000C0408049
:102340000305050601012040804020050303060027
:1023500002F800F8030505060101804020408005D1
:1023600007070600007088102020002005070706D8
:1023700000007088B8A8B8807005070706000070D4
:102380008888F8888888050707060000F0484870A4
:102390004848F00507070600007088808080887034
:1023A000050707060000F04848484848F0050707B9
:1023B000060000F88080F08080F80507070600001E
:1023C000F88080F080808005070706000070888014
:1023D00080988870050707060000888888F8888834
:1023E00088030707060100E04040404040E0050741
:1023F000070600003810101010906005070706004F
:10240000008890A0C0A09088050707060000808083
:1024100080808080F805070706000088D8A8888893
:1024200088880507070600008888C8A89888880556
:1024300007070600007088888888887005070706E7
:102440000000F08888F08080800507070600007093
:10245000888888A89068050707060000F08888F03B
:10246000A0908805070706000070888070088870B3
:10247000050707060000F820202020202005070778
:10248000060000888888888888700507070600008D
:1024900088888888505020050707060000888888AB
:1024A00088A8A85005070706000088885020508893
:1024B000880507070600008888502020202005078F
:1024C00007060000F80810204080F80309090601FB
:1024D000FFE080808080808080E0050707060000A4
:1024E000804040201010080309090601FFE0202069
:1024F0002020202020E00503030600052050880549
:1025000001010600FEF803030306010580402005D3
:1025100005050600007008788878050707060000A2
:102520008080F0888888F0050505060000708080AE
:1025300088700507070600000808788888887805ED
:1025400005050600007088F080700507070600008A
:10255000304840E04040400507070600FE7088888C
:10256000887808700507070600008080F088888852
:10257000880307070601004000C0404040E004090E
:10258000090601FE100030101010109060050707BA
:1025900006000080808890E090880307070601000D
:1025A000C04040404040E0050505060000D0A8A816
:1025B000A8A8050505060000B0C888888805050597
:1025C00006000070888888700507070600FEF088FE
:1025D0008888F080800507070600FE78888888785C
:1025E0000808050505060000B0C8808080050505BF
:1025F00006000078807008F005070706000020201C
:10260000F8202020180505050600008888889868AD
:102610000505050600008888885020050505060088
:10262000008888A8A850050505060000885020509D
:10263000880507070600FE88888850204080050529
:1026400005060000F8102040F80309090601FF20E4
:1026500040404080404040200109090602FF808040
:10266000808080808080800309090601FF804040CF
:1026700040204040408005030306000248A890FF28
:102680003F0043616E63656C204F626A656374004E
:102690004C6F61642053657474696E677300537482
:1026A0006F72652053657474696E67730041647658
:1026B000616E6365642053657474696E6773004E60
:1026C0004F005945530043616E63656C204F626A49
:1026D000656374203D00436D643A2053746F770046
:1026E000436D643A204465706C6F7900436D643AC1
:1026F0002053572D4D6F646500436D643A20536538
:102700006C662D5465737400436D643A2052657392
:10271000657400526573746F7265204465666175F7
:102720006C747300424C546F75636800313235002D
:102730004245443A4550434F53203130304B0052CC
:10274000756E617761792057617463683A204F4EE6
:10275000004D61782054656D7000323735004D6949
:102760006E2054656D700045313A204550434F53FB
:10277000203130304B0020453A00205A3A00205991
:102780003A00205A3A200020593A2000426564203D
:10279000583A20005072696E7420506175736564F8
:1027A0000050726F62696E67204661696C65640AE9
:1027B0000050726F62696E67204661696C656400E3
:1027C000486F6D65202573257325732046697273E4
:1027D0007400220A00556E6B6E6F776E20636F6D0A
:1027E0006D616E643A202200456E6465722D33205F
:1027F00050726F2052656164792E005072696E7458
:10280000696E672E2E2E0020436F756E7420583A25
:1028100000453100626564002C2073797374656D26
:102820002073746F707065642120486561746572EF
:102830005F49443A200048656174696E67204661CB
:10284000696C65640048656174696E6720666169DA
:102850006C65640048617264636F646564204465FC
:102860006661756C742053657474696E6773204C6F
:102870006F616465640A003B200020204D393030D0
:10288000204B004C696E65617220416476616E6315
:10289000653A0020204D3835312058005A2D5072AD
:1028A0006F6265204F6666736574002044002020C7
:1028B0004D333031205000504944207365747469A1
:1028C0006E67733A0020460020480020204D3134C6
:1028D000352053004D6174657269616C20686561D3
:1028E00074757020706172616D65746572733A0001
:1028F0002020473239205720490020204D343230E3
:102900002053004175746F20426564204C657665E4
:102910006C696E673A0020204D32303620580048EE
:102920006F6D65206F66667365743A00204A0020FB
:10293000204D323035204200416476616E6365641B
:102940003A20423C6D696E5F7365676D656E745FBA
:1029500074696D655F75733E20533C6D696E5F668B
:10296000656564726174653E20543C6D696E5F7488
:10297000726176656C5F66656564726174653E2040
:102980004A3C6A756E635F6465763E0020204D3276
:102990003034205000416363656C65726174696F07
:1029A0006E2028756E6974732F7332293A20503C5B
:1029B0007072696E745F616363656C3E20523C7235
:1029C0006574726163745F616363656C3E20543C3F
:1029D00074726176656C5F616363656C3E00202094
:1029E0004D3230312058004D6178696D756D204150
:1029F0006363656C65726174696F6E2028756E69BA
:102A000074732F7332293A0020450020204D323054
:102A1000332058004D6178696D756D206665656479
:102A200072617465732028756E6974732F73293A07
:102A30000053746570732070657220756E69743A06
:102A40000020204D3134392043203B20556E6974DD
:102A50007320696E2043656C736975730A002028C2
:102A60006D6D29002020473231202020203B205549
:102A70006E69747320696E206D6D00486F6D696EAC
:102A800067204661696C6564000000FA430000FA43
:102A9000430000A041000070420000A0420000A0DE
:102AA000420000C8430000BA42F4010000F40100F3
:102AB000006400000088130000005DE611241FBEC2
:102AC000CFEFD0E4DEBFCDBF12E0A0E0B1E0E6E49E
:102AD000FAEE01E00BBF02C007900D92A835B107D6
:102AE000D9F721E1A8E5B2E001C01D92AB30B207F1
:102AF000E1F715E1CEE5D5E104C02197FE010E9482
:102B0000BBF2CD35D107C9F70E9475E10C9421F5D0
:102B10000C9400002F923F924F925F926F927F929F
:102B20008F929F92AF92BF92CF92DF92EF92FF92DD
:102B30000F931F93CF93DF93CDB7DEB7E5970FB613
:102B4000F894DEBF0FBECDBF20918F032AAB11E0FA
:102B500010938F0380918E038D3409F44BC4843518
:102B600011F40C941226873411F00C942D268091C8
:102B70008C0390918D038C31910509F4A9C18CF4DB
:102B80008430910509F4D7C01CF4029738F12EC4A3
:102B90008531910511F40C942F264B9709F409C146
:102BA00025C48A32910509F4FAC244F48D319105A5
:102BB00009F49EC14E9709F4AFC118C48B35910535
:102BC00009F46AC28C35910509F46BC28A35910506
:102BD00009F00CC410928B030C942F2680918A0369
:102BE000813011F00C942F2618ECC12E1EE0D12E4E
:102BF0000AE7E02E03E0F02E88EDA82E8EE0B82E36
:102C000010E088E5810F0E94FEA1882339F10E941F
:102C10007EA12B013C018091980C81111FC0812F56
:102C20000E94B474882351F0D6012D913D914D91AD
:102C30005C91C301B2010E94C5F209C0F501208177
:102C4000318142815381C301B2010E94C4F2D70194
:102C50006D937D938D939C9313970AC0F6018081A9
:102C60009181A281B381F70180839183A283B38391
:102C70001F5FF4E0CF0ED11C24E0E20EF11C84E0D3
:102C8000A80EB11C133009F0BCCF85E40E94FEA150
:102C9000882301F10E947EA16B017C0183E00E94E8
:102CA000B474882371F02091D40E3091D50E4091E8
:102CB000D60E5091D70EC701B6010E94C5F26B0126
:102CC0007C01C0928603D0928703E0928803F09241
:102CD000890310C08091D40E9091D50EA091D60E8C
:102CE000B091D70E8093860390938703A0938803B7
:102CF000B093890340E050E0BA0186E40E94A56ADF
:102D000020E030E0A9010E9448F4181684F40E94E3
:102D10007EA120E030E040E752E40E9448F3609357
:102D200074017093750180937601909377010E94EE
:102D3000D9B20C942F2680E50E94FEA1882329F0A9
:102D40000E9484906B017C0103C0C12CD12C7601C0
:102D500083E50E94FEA1882361F00E947EA120E00D
:102D600030E04AE754E40E9426EC0E94C1F36B0174
:102D70007C010E94D44380912503811105C060E04D
:102D800084E297E00E94A2CC0E94E33EC60ED71ECA
:102D9000E81EF91E0E94E33EDC01CB018C199D095F
:102DA000AE09BF09B7FD02C00C942F260E94613AFC
:102DB000F1CF0E94E7D581110C942F268CE0E8E733
:102DC000F1E0DE01119601900D928A95E1F780E520
:102DD0000E94FEA1882319F00E946EA101C060E04C
:102DE00080E090E0A8ECB2E48AA39BA3ACA3BDA3CF
:102DF00080E090E0A0EAB0E48E8F9F8FA8A3B9A3F3
:102E0000613019F0623039F029C0BE01625E7F4F37
:102E1000CE01099644C029853A854B855C85609131
:102E2000D00E7091D10E8091D20E9091D30E0E944F
:102E3000C5F26B017C0120E030E04AE753E40E94D8
:102E4000C0EB87FD06C0C12CD12CBAE7EB2EB3E452
:102E5000FB2ECE8ADF8AE88EF98E1CC0E090D00E61
:102E6000F090D10E0091D20E1091D30EA984BA84A5
:102E7000CB84DC849501A601B701C8010E94C0EB98
:102E800087FF02C075018601C701D8018E8B9F8B19
:102E9000A88FB98FBE01625E7F4FCE0146960E9419
:102EA0008EB788E0FE013196DE01569601900D92B4
:102EB0008A95E1F7AE014E5D5F4FBE01665E7F4FC2
:102EC000CE0146960E946CB70E947CB90C942F26C6
:102ED0008091B9108770873011F00C945A2660E009
:102EE0008FE40E943E9481110C942F260C945A2654
:102EF0000E94E7D581110C942F268091240388230A
:102F000011F40C94782860E08FE40E943E948111C3
:102F10000C942F260C9478282091AC103091AD1091
:102F20004091AE105091AF106091C80E7091C90ED3
:102F30008091CA0E9091CB0E0E94C5F2AB01BC01EC
:102F400088E50E94A56A69837A838B839C8320919C
:102F5000B0103091B1104091B2105091B310609107
:102F6000CC0E7091CD0E8091CE0E9091CF0E0E941E
:102F7000C5F2AB01BC0189E50E94A56A6D837E8321
:102F80008F839887BE016B5F7F4FCE0101960E94B1
:102F90009D90882311F40C942F2680E00E94A1A418
:102FA0000E9471B661E085E40E943E9421E0482FC2
:102FB000BE016B5F7F4FCE0101960E944BD66B0125
:102FC0007C019B01AC010E94C6F481115FC0898025
:102FD0009A80AB80BC8020E030E0A901C501B4013B
:102FE0000E94C0EB87FF05C027E137EB41E558EBB6
:102FF00004C027E137EB41E558E3C501B4010E9465
:10300000C5F2AB01BC018CE897E20E944DA98D800E
:103010009E80AF80B88420E030E0A901C501B401F2
:103020000E94C0EB87FF05C027E137EB41E558EB75
:1030300004C027E137EB41E558E3C501B4010E9424
:10304000C5F2AB01BC0187E897E20E944DA920E0E0
:1030500030E0A901C701B6010E94C0EB87FF05C09F
:1030600067E177EB81E598EB04C067E177EB81E5F9
:1030700098E3A70196010E94C5F2AB01BC0182E86A
:1030800097E20E944DA98AE00E9435390E9458B605
:103090000E947CB90C942F268FE080938B030C94B4
:1030A0002F2674E8272E71E0372EE6E1EE2EE3E0BE
:1030B000FE2E88EC9EE09FA38EA3F8EDCF2EFEE0BF
:1030C000DF2E00E010E0D1018D911D010E94FEA1D4
:1030D000882309F44BC00E947EA12B013C011330D0
:1030E00049F0F60120813181428153810E94C4F26E
:1030F0002B013C01AEA1BFA12D913D914D915C9161
:10310000C301B2010E94C4F24B015C012DEB37E315
:1031100046E855EB0E9448F487FD0AC02DEB37E3E3
:1031200046E855E3C501B4010E94C0EB1816F4F45B
:10313000133051F44092D40E5092D50E6092D60EB8
:103140007092D70E01E012C0A5019401F7016081D1
:103150007181828193810E94C5F2D7016D937D9325
:103160008D939C931397812F0E94B9B21F5FB4E097
:10317000EB0EF11CEEA1FFA13496FFA3EEA3F4E049
:10318000CF0ED11C143009F09ECF002321F084ED26
:103190009EE00E94E4430E947CB90C942F2680910B
:1031A0008A03813011F00C942F2689E40E94FEA13D
:1031B000E82E882321F00E945394082F01C000E0DC
:1031C0008AE40E94FEA1F82E882321F00E945394E5
:1031D000182F01C010E0EE2011F0053020F4FF2080
:1031E00041F0153030F085EC96E00E94A6A80C94D2
:1031F0002F2680E1E8ECFEE0AAE7B3E001900D9213
:103200008A95E1F7EE2019F1602F000F770B880BFC
:10321000990B0E94C7EB2091060330910703409160
:103220000803509109030E9426EC20910E0330916F
:103230000F0340911003509111030E94C5F2609357
:103240007A0370937B0380937C0390937D03FF202C
:1032500019F1612F110F770B880B990B0E94C7EBA7
:1032600020910A0330910B0340910C0350910D0300
:103270000E9426EC20911203309113034091140315
:10328000509115030E94C5F260937E0370937F03F3
:10329000809380039093810360E080E50E943E94D8
:1032A0008823C1F1EE20D1F02091AC103091AD1007
:1032B0004091AE105091AF1060917A0370917B03F2
:1032C00080917C0390917D030E94C4F260937A0305
:1032D00070937B0380937C0390937D03FF20D1F058
:1032E0002091B0103091B1104091B2105091B310B4
:1032F00060917E0370917F038091800390918103A0
:103300000E94C4F260937E0370937F0380938003D6
:103310009093810340E050E0BA0186E40E94A56AE0
:103320006B017C0120E030E0A9010E9448F41816EE
:103330005CF420E030E040E752E4C701B6010E94AF
:1033400048F36B017C0103C0C12CD12C7601809025
:10335000740190907501A0907601B090770120E003
:1033600030E0A901C701B6010E94C0EB882341F0FB
:10337000C0927401D0927501E0927601F0927701CB
:10338000009122011091230184E690E090932301A3
:1033900080932201C0904701D0904801E0904901FC
:1033A000F0904A0180E090E0A0E8BFE380934701FD
:1033B00090934801A0934901B0934A010E94D9B269
:1033C0008092740190927501A0927601B09277017B
:1033D0001093230100932201C0924701D09248012B
:1033E000E0924901F0924A010C942F260E94D9D50F
:1033F0000C942F2680918C0390918D038C3891052D
:1034000009F400C40CF0F7C08836910509F4FEC237
:103410000CF044C08C34910509F4E3C2FCF4823111
:10342000910509F465C46CF497FF02C00C940F2653
:10343000823091050CF4A2C1419709F4FFC10C94AC
:103440000F268A32910509F4C4C28B34910509F420
:10345000C4C24F9711F00C940F260DC2833591050D
:1034600009F43FC47CF48135910509F41BC40CF0C8
:1034700031C48D34910511F00C940F260E94EDCAD1
:103480000C942F268535910509F45FC40CF430C4E3
:103490008C35910509F47CC40C940F268037910576
:1034A00009F47BC3B4F48C36910509F470C33CF481
:1034B0008A36910509F4DEC20CF4CCC2FFC28E3606
:1034C000910509F406C30CF017C30E94B6720C9460
:1034D0002F268537910509F4ECC40CF075C08237AE
:1034E000910509F4DFC40CF463C38337910511F02F
:1034F0000C940F268EE895E00E94A6A860E08EE767
:1035000095E00E94737260E089E695E00E94737214
:1035100061E082E695E00E94737260E087E595E0E5
:103520000E94737261E087E495E00E94737260E02C
:103530008EE395E00E94737261E084E395E00E945F
:10354000737261E08AE295E00E94737261E082E248
:1035500095E00E94737261E084E195E00E947372CD
:1035600060E086E095E00E94737260E087EF94E08F
:103570000E94737260E089EE94E00E94737260E0D2
:1035800083ED94E00E94737260E082EC94E00E940C
:10359000737260E083EB94E00E94737260E08EE9E6
:1035A00094E00E94737261E08BE894E00E94737271
:1035B00060E08EE794E00E94737260E08AE694E037
:1035C0000E9473720C942F268737910509F4BFC4AB
:1035D0000CF483C48837910509F4BCC4893791057C
:1035E00011F00C940F2610922303109222030E94D4
:1035F0005DBA0C942F268F3221E0920711F40C94BF
:1036000004240CF050C08E3C910509F492C5FCF4E2
:10361000893C910509F401C574F48B39910509F4CD
:103620001AC38E3B910509F412C38139910511F03B
:103630000C940F2697C48C3C910509F433C50CF00B
:1036400065C58B3C910509F40EC50C940F26823E8E
:10365000910509F4C2C674F48C3D910509F44CC679
:103660008D3D910509F46FC6833D910511F00C94D1
:103670000F267CC58232B1E09B0709F490C734F471
:103680008831914009F4F4C60C940F268D3221E064
:10369000920711F40C9440238E32914011F40C9453
:1036A000C0230C940F26863EB1E09B0711F40C94C6
:1036B000DC2484F58A39F1E09F0709F475C2ACF483
:1036C0008139A1E09A0711F40C9407248239B1E002
:1036D0009B0711F40C9411248039914011F00C9443
:1036E0000F260E94D4430C942F26853AF1E09F07C1
:1036F00011F40C9416248C3A21E0920711F40C94E6
:103700007F24843A914011F00C940F260E947C9201
:103710000C942F26873FB1E09B0711F40C944E25A3
:1037200094F4853FF1E09F0711F40C94482514F0C0
:103730000C944B25843F914011F00C940F260E946D
:10374000AA660C942F268335B3E09B0711F40C94E2
:1037500067253CF4883F914011F40C9456250C9455
:103760000F26843823E0920711F40C949825873EA5
:10377000934011F40C9401260C940F2680E50E94CE
:10378000FEA1882329F00E9484906B017C0103C074
:10379000C12CD12C760183E50E94FEA1882361F023
:1037A0000E947EA120E030E04AE754E40E9426EC2B
:1037B0000E94C1F36B017C010E94D44380910403F9
:1037C00090910503009739F02091B810211108C09D
:1037D0000E9481CC05C060E082EB96E00E94A2CC02
:1037E00010918F0383E080938F0381E08093030324
:1037F000C114D104E104F10431F00E94E33EC60E8D
:10380000D71EE81EF91E80910303882311F40C943F
:103810007F28C114D104E104F10411F40C947B2835
:103820000E94E33EDC01CB018C199D09AE09BF0962
:10383000B7FF02C00C947B280C947F288091FF0274
:1038400084FF02C00C9486288091010387FF02C088
:103850000C94862880910203837011F00C948628C2
:1038600060E089EA96E00E94A2CC5E985E98159886
:103870005E980C942F260E949ECA7B018C0120E842
:1038800031E541E050E00E9416F2C9016DE671E0B9
:103890000E9493F24B015C01C801B70120E13EE0B8
:1038A00040E050E00E9416F2CA01B90128E130E080
:1038B00040E050E00E9416F2762E672EC62ED72EDC
:1038C0006CE3262E312C412C512CC801B701A201EA
:1038D00091010E9416F2F62EE72ECA01B901A2014B
:1038E00091010E9416F2CB018E010F5F1F4F8114D0
:1038F000910499F0EF92FF927F936F936F927F9272
:10390000BF92AF929F928F9288E896E09F938F9399
:103910001F930F930E9458EB13C0A114B104B1F090
:10392000EF92FF927F936F936F927F92BF92AF92CD
:103930008CE896E09F938F931F930F930E9458EB10
:103940000FB6F894DEBF0FBECDBF30C0CD2879F0E2
:10395000EF92FF927F936F936F927F9280E996E050
:103960009F938F931F930F930E9458EBE9CF892B5E
:1039700069F0EF92FF927F936F9384E996E09F93B3
:103980008F931F930F930E9458EBDACFEF92FF9221
:1039900088E996E09F938F931F930F930E9458EBB3
:1039A0000F900F900F900F900F900F908091B81084
:1039B000811103C0C8010E9481CC0E9458AAB8019D
:1039C0008CE996E00E946BA98AE00E9435390C943C
:1039D0002F260E9466940C942F260E9440360C9449
:1039E0002F268091BD10813011F00C942F2682E09B
:1039F0008093BD100E94E33E6093FB027093FC0233
:103A00008093FD029093FE020C942F268091990CD6
:103A100083FF02C00C942F260E948D7287FF02C084
:103A20000C942F2683E50E94FEA1882379F00E9442
:103A30007EA10E94BAF3CB010E94D0AC0E9438AFA5
:103A4000811104C00E94EDCA0E9476D50E94FB42FB
:103A50000C942F260E948D72182F87FF02C00C94A1
:103A60003E2687E792E00E94A6A8812F0E94E0AC44
:103A70000C943B2660E080E50E94609281110C94DA
:103A80002F2681E40E94B5A1882321F060912006B1
:103A9000062F02C00FEF10E083E50E94FEA18823ED
:103AA00049F00E946EA18B016F3F710519F010F073
:103AB0000FEF10E0009320060C942F2660E080E5C5
:103AC0000E94609281110C942F26109220060C9473
:103AD0002F268EE40E94FEA1882311F40C942F2639
:103AE0000E946EA16093F7027093F8028093F9022E
:103AF0009093FA020C942F2683E50E94B5A18823A7
:103B000031F060E083E50E9460928093990C0E94FE
:103B100058AA81E896E00E94A6A88091990C882373
:103B200069F155E4E52E57E0F52E00E010E020E0C5
:103B30008091990C90E0A0E0B0E0002E04C0B69512
:103B4000A795979587950A94D2F780FF0EC0DD243C
:103B5000D394D20E222319F08CE20E943539F7015A
:103B6000859194910E94A6A82D2D0F5F1F4F82E092
:103B7000E80EF11C05301105D9F604C08DE796E07A
:103B80000E94A6A88AE00E9435390C942F26109234
:103B90000303109221010C942F2641E060E070E0B5
:103BA0008FE696E00E945CAA0E9488360C942F262D
:103BB00083E50E94FEA1882381F00E944C92282F69
:103BC00030E02D33310524F4809320010C942F260E
:103BD0008CE3809320010C942F260E9458AAC09059
:103BE0002001D12CE12CF12C88E696E00E94A6A8B9
:103BF0004AE0C701B6010E943C398AE00E9435398B
:103C00000C942F268091990C83FF02C00C942F26D0
:103C100083E50E94FEA1882379F00E947EA10E9484
:103C2000BAF36337710514F063E770E07093F5023F
:103C30006093F4020E9431AB0E9438AF81110C9462
:103C40002F260E94EDCA0E9476D50C942F260E9442
:103C5000B96E0C942F2683E50E94FEA1882311F4EF
:103C60000C942F260E944C92182F90E0CD970CF0C8
:103C70001CE31093EB020E94E33E6B017C01212FB9
:103C800030E0A8EEB3E00E946AF2C60ED71EE81E2E
:103C9000F91EC092E702D092E802E092E902F092A7
:103CA000EA02DDC70E944BAF0E94EDCA0E94934515
:103CB0000E94CD741092E6021092E50268EE73E065
:103CC00080E090E00E94E8A760E087E596E00E942F
:103CD000A2CCC5C780918B038F7D806180938B03BD
:103CE000BEC780918B038F7E806280938B03B7C7A2
:103CF00083E50E94FEA1882399F00E947EA120E026
:103D000030E04AE754E40E9426EC0E94C1F360933D
:103D10001C0170931D0180931E0190931F019FC78A
:103D20008091FF0284FF02C00C94982880910103C7
:103D300087FF02C00C94982880910203837011F0D1
:103D40000C9498280E9493458AC783E50E94B5A1E8
:103D5000882309F484C70E94E33E6093E1027093D4
:103D6000E2028093E3029093E4020E947EA120E0AD
:103D700030E04AE754E40E9426EC0E94C1F36093CD
:103D8000DD027093DE028093DF029093E00267C74A
:103D90000E948D7287FD63C79091FF0294FD04C05D
:103DA0009091010397FF0AC034E8C32E31E0D32E6F
:103DB0004AE9E42E4CE0F42E10E009C09091020391
:103DC000937091F7682F81E00E94499048C7D6010F
:103DD0008D916D010E94FEA1882309F459C0133012
:103DE00009F04FC00E947EA14B015C0120E030E051
:103DF00040EA51E40E94C0EB87FF3AC0A50194015C
:103E00006091BA0C7091BB0C8091BC0C9091BD0C70
:103E10000E9448F32B013C019B01AC016091CA0C4C
:103E20007091CB0C8091CC0C9091CD0C0E9426EC23
:103E30006093CA0C7093CB0C8093CC0C9093CD0CF8
:103E400060911006709111068091120690911306F0
:103E50000E94C5EBA30192010E9426EC0E94C1F3CF
:103E600060931006709311068093120690931306C8
:103E70008092BA0C9092BB0CA092BC0CB092BD0C7C
:103E800007C00E947EA1F701648B758B868B978B90
:103E90001F5FF4E0EF0EF11C143009F098CF0E9480
:103EA000B043DDC60E941ED286E59FE00E94F4DC8E
:103EB000D6C68091040390910503009759F0DC0168
:103EC0002C91222339F02091B8102111C8C60E94EC
:103ED00081CCC5C60E9476D5C2C60091040310915C
:103EE000050394E0F12C40E0915021F1F80180812C
:103EF000282F2B7F213421F421812133D9F407C0CD
:103F00008035C1F4818180538A3048F013C08134F8
:103F100021F0853421F441E002C0FF24F39498019C
:103F20002E5F3F4F89012F5F3F4FF8018081803224
:103F3000C9F3DACF41110E9458AAFF2021F086E68A
:103F400094E00E94A6A8C8010E94403A88C60E9438
:103F50000EBA85C681E080932303809322030E94DA
:103F60005DBA7DC660E070E083E50E9457948C01E5
:103F70001127023011053CF00E947EA984E494E0F0
:103F80000E94A6A86CC688E40E94FEA18823A9F01E
:103F90000E9453948A3A91053CF08530F1E09F07E6
:103FA0002CF084E091E002C08AEA90E0F801EE0F84
:103FB000FF1FE752FD4F9183808386E40E94FEA19C
:103FC000882381F00E94539497FD07C08F3F91058D
:103FD00029F024F08FEF90E001C080E0F801E95271
:103FE000FD4F808382E40E94FEA1882309F437C636
:103FF0000E9453948530910534F0843791052CF05C
:1040000083E790E002C085E090E0000F111FF80107
:10401000ED52FD4F9183808322C60E948D7287FDF1
:104020001EC6F4E8EF2EF1E0FF2E0AE91CE0AAEA32
:10403000CA2EACE0DA2ED7018D917D010E94B5A188
:10404000882359F00E947EA10E94C1F3F801608389
:104050007183828393830E9439430C5F1F4FC01684
:10406000D10649F7FCC50E948D7287FDF8C5E4E8CA
:10407000EE2EE1E0FE2E0AE91CE0D7018D917D01D4
:104080000E94B5A1882339F00E947EA1F80164A3A3
:1040900075A386A397A30C5F1F4FFCE00A3A1F0786
:1040A00061F7DDC58091000387FF02C00C94BD2835
:1040B000809101038E7011F00C94BD284091CE0CBC
:1040C0005091CF0C6091D00C7091D10C84E394E0AE
:1040D0000E944DA94091D20C5091D30C6091D40C08
:1040E0007091D50C81E394E00E944DA94091D60CCB
:1040F0005091D70C6091D80C7091D90C8EE294E05D
:104100000E944DA98AE00E943539A9C58091FF021D
:1041100081FF02C00C9403298091000381FF02C03B
:104120000C940329809101038C7011F00C940329E5
:1041300096C577ECE72E72E0F72E10E088E5810F48
:104140000E94B5A1882359F00E947EA1D7016D93EA
:104150007D938D939C931397812F0E94B9B21F5F1B
:10416000B4E0EB0EF11C133049F715C84090D80E9F
:104170005090D90E6090DA0E7090DB0E2091040101
:10418000309105014091060150910701C301B20130
:104190000E94C5F26EA37FA388A799A78090DC0E2A
:1041A0009090DD0EA090DE0EB090DF0E2091080101
:1041B0003091090140910A0150910B01C501B401F0
:1041C0000E94C5F26AA77BA78CA79DA7C090E00EAE
:1041D000D090E10EE090E20EF090E30E20910C0101
:1041E00030910D0140910E0150910F01C701B601B0
:1041F0000E94C5F26EA77FA788AB99AB20911001F2
:10420000309111014091120150911301C301B2018B
:104210000E94C5F22B013C0120911401309115013F
:104220004091160150911701C501B4010E94C5F2D9
:104230004B015C01209118013091190140911A0144
:1042400050911B01C701B6010E94C5F26B017C01B0
:104250000E9458AA8FEF93E00E94A6A883E50E94CF
:10426000B5A1882321F00E946C9280930301809174
:104270000301882319F08EE497E202C08AE895E0F2
:104280000E94A6A887EF93E00E94A6A84EA15FA176
:1042900068A579A584EE99E20E944DA94AA55BA57F
:1042A0006CA57DA589E291E20E944DA94EA55FA56E
:1042B00068A979A982E291E20E944DA989E19DE174
:1042C0000E94A6A88FEE93E00E94A6A8B301A201C7
:1042D00084EE99E20E944DA9B501A40189E291E220
:1042E0000E944DA9B701A60182E291E20E944DA968
:1042F0008AE00E943539B3C483E50E94FEA1882379
:1043000031F00E9453949093230180932201809175
:10431000FF0290910003A0910103B0910203892B49
:104320008A2B8B2B09F09BC4609122017091230191
:104330008BEE93E00E945EA985E20E9435398AE007
:104340000E9435398CC40E948D72F82E87FD87C477
:1043500083E50E94FEA10F2D0F2C000C110B88236A
:1043600009F10E945394F801EE0FFF1FEF5FFE4F1B
:1043700091838083000F111F000F111F095B1E4FD7
:10438000BC01990F880B990B0E94C7EB2AE037ED0F
:1043900043E25CE30E9426ECF80160837183828330
:1043A00093835DC40E9458AA85E40E94353980E356
:1043B0008F0D0E943539000F111FF801EF5FFE4F7E
:1043C0006081718183EE93E00E945EA985E20E9484
:1043D00035398AE00E94353942C480E50E94B5A192
:1043E000882309F43CC460E070E080E50E945794A3
:1043F000F82E6FEF7FEF83E50E9457948C010196B2
:10440000039708F02CC4F7FC2AC48F2D0E94AD3608
:10441000882339F00E947EA984ED93E00E94A6A82B
:104420001EC40E94D44360E08F2D0E94A1BD0F3FA7
:10443000FFEF1F0731F00130110571F000E010E0CF
:104440000DC08F2D0E9449BD31E020E0892B09F07D
:1044500030E0032F122F02C001E010E08F2D0E94E8
:1044600049BD8017910709F4FAC30E94613AF6CF5B
:1044700080E50E94B5A1882309F4F1C30E945394FA
:104480008C01892B09F07FC083E50E94B5A18823A8
:1044900089F00E9453948F3F2FEF920729F48AE20C
:1044A0009FE00E94D236DBC3BC018AE29FE00E94FB
:1044B0008137D5C30E9458AA60E070E08CEC93E08D
:1044C0000E945EA980912C0F28E532E06901C81A8C
:1044D000D10887FDD394CC0CDD1CCC0CDD1C0D2C3D
:1044E000000CEE08FF0880912B0F28E830E049010E
:1044F000881A910887FD9394880C991C880C991C44
:10450000092C000CAA08BB0880912A0F8F3FC1F02C
:1045100090E0FC01EE0FFF1F8E0F9F1FFC01EB5F71
:10452000F04F2181328183E0220F331F8A95E1F71A
:1045300094E0369527959A95E1F72E5F3F4F02C09C
:1045400020E030E02F5F3F4FC901330FAA0BBB0BB8
:104550009C01AD01281939094A095B09A4EBB0E0B7
:104560000E9457F2A7019601281939094A095B09E7
:104570000E9438F2B90183E398E20E945EA98AE0C2
:104580000E9435396CC30E947EA9B8018DEC93E07E
:104590000E945EA98DEB93E00E94A6A860C38AE505
:1045A0000E94FEA1811106C083E50E94FEA188231E
:1045B00009F44BC00E947EA120E030E040E050ECC6
:1045C0000E94C0EB87FDA8C60E947EA120E030E0DB
:1045D00040E050E40E9448F418160CF497C60E947C
:1045E0007EA16B017C018091AA108695869580FF43
:1045F00022C02091B60C3091B70C4091B80C50916C
:10460000B90CC701B6010E9426EC0E94BAF32091B2
:10461000C5023091C602260F371F3093C602209381
:10462000C5022091C3023091C402620F731F7093C0
:10463000C4026093C30280E50E94B5A1882309F4F7
:1046400071C60E946C9281116DC68091010387FD35
:104650008FC680910203837009F08AC60E9458AA0F
:104660004091B4105091B5106091B6107091B71090
:104670008EE993E00E944DA98AE00E943539EFC28D
:1046800060E085E40E946092811173C080E50E9421
:10469000B5A1882351F00E947EA16093F90E70931A
:1046A000FA0E8093FB0E9093FC0E89E40E94B5A154
:1046B000882381F00E947EA12CEA35EC47E25EE37C
:1046C0000E9426EC6093FD0E7093FE0E8093FF0E09
:1046D0009093000F84E40E94B5A1882381F00E948A
:1046E0007EA12CEA35EC47E25EE30E9448F360933A
:1046F000010F7093020F8093030F9093040F0E9499
:1047000058AA4091F90E5091FA0E6091FB0E7091EB
:10471000FC0E8AE993E00E944DA92CEA35EC47E2B1
:104720005EE36091FD0E7091FE0E8091FF0E909100
:10473000000F0E9448F3AB01BC0186E993E00E94A0
:104740004DA92CEA35EC47E25EE36091010F7091D0
:10475000020F8091030F9091040F0E9426ECAB0191
:10476000BC0182E993E00E944DA98AE00E9435399C
:1047700076C20E947EA980E893E00E94A6A86FC23C
:1047800083E50E94B5A1182F882371F00E947EA1B5
:104790000E94BAF370934C0160934B0121E0672BA8
:1047A00009F020E02093310680E50E94B5A188231E
:1047B00059F020914B0130914C01232B11F00E94B4
:1047C0006C92809331064BC2111149C20E9458AAC3
:1047D0008DE693E00E94A6A880913106882319F007
:1047E00088E096E102C084E593E00E94A6A860916B
:1047F0004B0170914C018CE593E00E945EA988E525
:1048000093E00E94A6A82BC20E94BC6A28C2809195
:10481000AB1081110C94CB1881E00E94BA410C942A
:10482000CB180E9494900E947CB919C26FEF7FEF61
:1048300089E40E945794182F6FEF7FEF8AE40E945B
:104840005794082F8AE50E94B5A1F82E811105C062
:1048500081E50E94B5A1D82E01C0D12C17FD06C05C
:1048600007FD04C0F11009C0D11007C00E947EA945
:1048700084E393E00E94A6A8F2C1153010F405303D
:1048800038F00E947EA985EC96E00E94A6A8E7C1B8
:10489000E12E110FFF08002E000C110B0E947EA1CB
:1048A000DD2099F025E02E9DF0012F9DF00D1124C3
:1048B000E00FF11FEE0FFF1FEE0FFF1FE15AFD4F3C
:1048C000208131814281538103C020E030E0A90181
:1048D000A5E0AE9DF001AF9DF00D11240E0F1F1F3E
:1048E000000F111F000F111F015A1D4F0E94C5F22A
:1048F000D8016D937D938D939C931397B0C10E94C3
:10490000E7D58111ACC10DE217E0E8ECFEE0FFA3B2
:10491000EEA3CE0101961C019BE5C92E97E0D92E8E
:104920007101F8016591759185919491AEA1BFA136
:104930008D909D90AD90BD90BFA3AEA3A5019401B5
:104940000E94C4F22B013C01F701608371838283D2
:10495000938320E030E040EA51EC0E9448F487FD68
:104960000AC020E030E040EA51E4C301B2010E94F5
:10497000C0EB18162CF4F601849118160CF4FEC442
:10498000D7018D909D90AD90BD907D0120E030E0ED
:1049900040EA51ECC501B4010E9448F487FDF9C416
:1049A00020E030E040EA51E4C501B4010E94C0EBD0
:1049B00018160CF0FCC4EDC484E50E94B5A1882350
:1049C000A1F010925A0210925B0210925C021092B7
:1049D0005D0210925E028FEF0E9437A261E070E0EC
:1049E00084E50E94579480935E0283E50E94B5A1FE
:1049F000882321F00E9453940E9437A283E40E94EE
:104A0000B5A1882331F080910001803210F40E941A
:104A10000BA280E50E94B5A1882331F00E94539437
:104A2000803210F40E940BA285E50E94B5A1882374
:104A300009F415C10E945394803208F010C141E07E
:104A400050E0082E02C0440F551F0A94E2F740952B
:104A50005095052E000C660B770B00915A021091B1
:104A60005B0220915C0230915D024023512362235E
:104A7000732340935A0250935B0260935C027093DD
:104A80005D02909100018913EAC01092980CE7C072
:104A90000E94D0DEE4C00E94AEDDE1C061E083E5AB
:104AA0000E943E9481270E94DEDED9C081E080937F
:104AB00059020E94B56010925902882309F4CFC0B0
:104AC0000E9458AA8DEE92E00E94A6A8C8C08091CC
:104AD000010387FD96C480910203837009F091C49D
:104AE0004091AC105091AD106091AE107091AF102C
:104AF0008EED92E00E944DA94091B0105091B110FE
:104B00006091B2107091B31089E291E20E944DA9B8
:104B10004091B4105091B5106091B6107091B710DB
:104B200082E291E20E944DA98AE00E94353997C045
:104B3000A0903206B0903306C0903406D09035066F
:104B40008BE40E94FEA1882339F10E947EA17B01A3
:104B50008C0120E030E0A9010E9448F487FD0AC0E2
:104B600020E030E040E251E4B701C8010E94C0EB10
:104B70001816A4F48FE30E9435398BE40E9435396E
:104B800082E892E00E94A6A88AE792E00E94A6A886
:104B90008FEE9BE10E94A6A8750186019701A801EE
:104BA000B501C6010E94C0EB882361F00E94D44386
:104BB000C701D8018093320690933306A093340640
:104BC000B09335068091FF0290910003A0910103FC
:104BD000B0910203892B8A2B8B2B09F040C00E94D5
:104BE00058AA409132065091330660913406709174
:104BF000350686E992E00E944DA98AE00E94353987
:104C00002EC081E080938A031092B81060E083E5A3
:104C10000E943E94811123C00E948E7020C00E9489
:104C2000D9D51DC000918C0310918D030023B9F0DC
:104C30000E9458AA84E50E943539B8017727072ECB
:104C4000000C880B990B0E94A93980E20E9435392B
:104C500080E893E00E94A6A802C00E94D9D5E09106
:104C60005802F0E0EA55F04F8081882339F087E759
:104C700092E00E94A6A88AE00E943539FAA9F09332
:104C80008F03E5960FB6F894DEBF0FBECDBFDF9160
:104C9000CF911F910F91FF90EF90DF90CF90BF9039
:104CA000AF909F908F907F906F905F904F903F90CC
:104CB0002F9008950E94D443209124032CAB80E0D0
:104CC0000E94A1A40E9471B681E0809323030E94F8
:104CD0005DBA88E50E94B5A1182F89E50E94B5A1AB
:104CE000082F8AE50E94B5A11013F4C1181711F01E
:104CF000012FF0C101E011E091E09EA780E1E8EC16
:104D0000FEE0AAE7B3E001900D928A95E1F782E513
:104D10000E94FEA1882369F00E947EA16B017C01A4
:104D200020E030E0A9010E94C0EB882309F43FC0D5
:104D300006C0C12CD12CA0EAEA2EA0E4FA2E111153
:104D400003C0002309F40EC18091AA1082FD09C09E
:104D50006091D00E7091D10E8091D20E9091D30EB1
:104D600003C060E070E0CB01A70196010E94C5F28C
:104D700060938203709383038093840390938503ED
:104D80002091D00E3091D10E4091D20E5091D30E81
:104D90000E9448F418165CF419821A821B821C8245
:104DA000BE016F5F7F4F82E893E00E948EB71123B0
:104DB00009F4D3C0002309F4CDC01092C80E10929C
:104DC000C90E1092CA0E1092CB0E1092CC0E1092F9
:104DD000CD0E1092CE0E1092CF0E0E943DB8EBE594
:104DE000F7E0A491ADABE9E3F7E0C590D590E5908D
:104DF000F490EDE3F7E085909590A590B490A5012F
:104E00009401C701B6010E9448F418162CF4A701BA
:104E10009601C501B40104C0A5019401C701B60102
:104E20000E9448F32B013C01E3E5F7E08591959161
:104E3000A591B4918EA39FA3A8A7B9A7EFE4F7E02B
:104E400085919591A591B4918AA79BA7ACA7BDA781
:104E50009C01AD016EA17FA188A599A50E9448F48F
:104E6000181634F42AA43BA49CA59BAB1DA505C031
:104E70002EA03FA0A8A5ABAB19A5A3019201C30129
:104E8000B2010E9426EC20E030E040E85FE30E949F
:104E9000C5F20E9486F491014BA9512F0E9426EC85
:104EA0006E8F7F8F88A399A3ECE5F7E0149120E043
:104EB00030E040EC5FE3C501B4010E9426EC4B01F9
:104EC0005C01612F110F770B880B990B0E94C7EBC8
:104ED0009B01AC01C501B4010E9426EC69837A8371
:104EE0008B839C8320E030E040EC5FE3C701B60198
:104EF0000E9426EC6B017C01BDA96B2FBB0F770BC9
:104F0000880B990B0E94C7EB9B01AC01C701B6014E
:104F10000E9426EC6E8B7F8B888F998FAE01425E4C
:104F20005F4FBE016F5F7F4FCE0146960E946CB708
:104F30000E9478DD1092C80E1092C90E1092CA0E0F
:104F40001092CB0E1092CC0E1092CD0E1092CE0E6F
:104F50001092CF0E80E00E943FB8002319F081E04C
:104F60000E943FB8EEA5EE2309F4A3C080E00E94A2
:104F70002AA88091AA108370833051F060E086E106
:104F800097E00E94A2CC0E9458AA87E097E0ADC0AB
:104F90000E943DB84090D00E5090D10E6090D20E3D
:104FA0007090D30E2091AC103091AD104091AE10A6
:104FB0005091AF1060E070E08AEE92E40E94C4F27B
:104FC0006B017C0160937A0370937B0380937C0375
:104FD00090937D032091B0103091B1104091B210A8
:104FE0005091B31060E070E08AEE92E40E94C4F247
:104FF0004B015C0160937E0370937F038093800379
:10500000909381032091B4103091B5104091B61067
:105010005091B710C301B2010E94C4F260938203A1
:1050200070938303809384039093850327E137EB88
:1050300041ED58EBC501B4010E9448F487FD4CC016
:1050400027E030E04BE653E4C501B4010E94C0EB19
:1050500018160CF441C027E137EB41ED58EBC701BE
:10506000B6010E9448F487FD37C027E030E04BE6E8
:1050700053E4C701B6010E94C0EB18166CF11E8AFA
:105080001F8A188E198E88E0EAE7F3E0DE01119698
:1050900001900D928A95E1F7AE014A5E5F4FBE0125
:1050A0006B5F7F4FCE0101960E946CB782E00E9439
:1050B0003FB80E943DB880912203809323038CA9BE
:1050C0000E94A1A40E9458B683E0809324010E940C
:1050D0007CB9C5CD8EA712CE60E086EF96E00E9427
:1050E000A2CC0E9458AA84EE96E00E94A6A8E1CF26
:1050F0000E943195B4CD0E94613A0C94031C109229
:10510000030310938F030E9476D5A9CD88E50E94F2
:10511000B5A181115E9889E50E94B5A181115E98C3
:105120008AE50E94B5A1882309F499CD159897CDF9
:105130000E94D44388E50E94B5A1882331F05E9A8D
:105140008091AA108E7F8093AA1089E50E94B5A154
:10515000882331F05E9A8091AA108D7F8093AA10E7
:105160008AE50E94B5A1882309F479CD159A80912A
:10517000AA108B7F8093AA1072CD83E50E94FEA1B6
:10518000882391F00E947EA16093CE0C7093CF0C87
:105190008093D00C9093D10C6093D60C7093D70C65
:1051A0008093D80C9093D90C80E50E94FEA18823AF
:1051B00051F00E947EA16093CE0C7093CF0C80932F
:1051C000D00C9093D10C82E50E94FEA1882351F06F
:1051D0000E947EA16093D20C7093D30C8093D40C68
:1051E0009093D50C84E50E94FEA1882309F437CD65
:1051F0000E947EA16093D60C7093D70C8093D80C3C
:105200009093D90C2CCD82E40E94B5A1882351F053
:105210000E9484906093AA0C7093AB0C8093AC0CAA
:105220009093AD0C83E50E94B5A1882351F00E94B4
:105230007EA16093DA0C7093DB0C8093DC0C90936E
:10524000DD0C84E50E94B5A1882351F00E947EA167
:105250006093DE0C7093DF0C8093E00C9093E10C74
:105260008AE40E94B5A1882309F4F9CC0E947EA1AA
:105270006B017C012AE037ED43E25CE30E9448F4D5
:1052800087FD3DC02AE939E949E95EE3C701B60176
:105290000E94C0EB18169CF1C0920006D092010645
:1052A000E0920206F09203066091A60C7091A70CA2
:1052B0008091A80C9091A90C0E94C5EB4B015C0158
:1052C00023EF34E045E35FE3C701B6010E9426EC1B
:1052D0009B01AC01C501B4010E9426EC29E732E82C
:1052E0004AE550E40E9426EC0E9486F4609318067A
:1052F0007093190680931A0690931B06B0CC0E94F7
:105300007EA98FE094E00E94A6A8A9CCC12CD12C44
:10531000E12C10E4F12E67C9C12CD12CE12CB0ECAA
:10532000FB2E61C9A70196016091B4107091B51070
:105330008091B6109091B7100E94C5F26093B4109E
:105340007093B5108093B6109093B7100E9458AA2E
:105350004091B4105091B5106091B6107091B71093
:105360008DEA93E00E944DA98AE00E9435396DC90B
:1053700082E50E94B5A1811171C971CCB7FAB094D0
:10538000B7F8B094D7018D929D92AD92BC921397CD
:10539000F7CA0E947EA986E193E00E94A6A861E078
:1053A00088E093E00E94A2CC0E944D8858CC0C5F0C
:1053B0001F4FBFEFCB1ADB0AE9E3F7E0E017F10775
:1053C00009F0AFCA87ECE82E82E0F82E10E0F10178
:1053D00081919191A191B1911F01F70181939193D5
:1053E000A193B1937F01812F0E94B9B21F5F133047
:1053F00071F70E947CB960E088EF92E00E94A2CC35
:105400002ECCF091AC10FEA38090AD107090AE1039
:105410006090AF105090B0104090B1103090B2102A
:105420002090B310C090B410D090B510E090B6109A
:10543000F090B71088E50E94FEA1882361F10E94D8
:105440007EA15B018C0120E030E04BE653EC0E9432
:1054500048F487FD0AC020E030E04BE653E4B50194
:10546000C8010E94C0EB181694F46BEE70E08BEC50
:1054700092E00E945EA96BEE70E086EC92E00E94E2
:105480005EA983E694E00E94A6A810E005C0AEA243
:105490008B2C702E612E11E089E50E94FEA18823DD
:1054A00081F10E947EA1962EA72EB82E092F20E012
:1054B00030E04BE653EC0E9448F487FD0CC020E03E
:1054C00030E04BE653E4692D7A2D8B2D902F0E940E
:1054D000C0EB181694F46BEE70E083EB92E00E9440
:1054E0005EA96BEE70E086EC92E00E945EA983E616
:1054F00094E00E94A6A810E004C0592C4A2C3B2C32
:10550000202E8AE50E94FEA1882339F10E947EA107
:105510006B017C0120E030E040EA51EC0E9448F44D
:1055200087FD0AC020E030E040EA51E4C701B6013F
:105530000E94C0EB18168CF46CEE7FEF81EA92E0CB
:105540000E945EA964E170E086EC92E00E945EA990
:1055500083E694E00E94A6A882CB112309F47FCBB6
:105560008EA1982DA72DB62D8093AC109093AD10E1
:10557000A093AE10B093AF10852D942DA32DB22D16
:105580008093B0109093B110A093B210B093B31069
:10559000C092B410D092B510E092B610F092B7104D
:1055A0005ECB2F923F924F925F926F927F928F923B
:1055B0009F92AF92BF92CF92DF92EF92FF920F93A2
:1055C0001F93CF93DF93CDB7DEB764970FB6F894F0
:1055D000DEBF0FBECDBF8FEF9FEF9093890080930A
:1055E00088000AE00983212C312C78948091E00313
:1055F0009091E103A091E203B091E303892B8A2B00
:105600008B2B71F080912D0190912E01A0912F0193
:10561000B0913001892B8A2B8B2B09F075C2D2C136
:105620008091C0108823D1F01092C0108091BE10DC
:105630009091BF10892B31F3109298031092BF10F4
:105640001092BE109091300F8091310F9817D1F2C7
:105650008091310F8F5F8F708093310F8091BE10DA
:105660009091BF10892B71F24091DC035091DD03C2
:105670006091DE037091DF038091D8039091D9038C
:10568000A091DA03B091DB030091CE0310E020E09B
:1056900030E0841B950BA60BB70B081719072A07D8
:1056A0003B0710F4D901C801E82F840F951FA61FEE
:1056B000B71F8093DC039093DD03A093DE03B093C8
:1056C000DF031C8A1B8AF1E00091A3031091A4035D
:1056D0002091A5033091A6038091B3039091B40368
:1056E000A091B503B091B603080F191F2A1F3B1FE5
:1056F0000093B3031093B4032093B5033093B60320
:1057000037FD31C080919003082E000C990BAA0B35
:10571000BB0B4091CD105091CE106091CF10709185
:10572000D010840F951FA61FB71F8093CD109093A4
:10573000CE10A093CF10B093D01080919F03909182
:10574000A003A091A103B091A203B901A801481B35
:10575000590B6A0B7B0B4093B3035093B4036093D4
:10576000B5037093B6034091A7035091A8036091CD
:10577000A9037091AA038091B7039091B803A091F7
:10578000B903B091BA03480F591F6A1F7B1F40939A
:10579000B7035093B8036093B9037093BA0377FDCE
:1057A00031C080919103082E000C990BAA0BBB0B02
:1057B000C090D110D090D210E090D310F090D410BF
:1057C0008C0D9D1DAE1DBF1D8093D1109093D210E6
:1057D000A093D310B093D41080919F039091A00315
:1057E000A091A103B091A2034A015B01881A990A12
:1057F000AA0ABB0A8092B7039092B803A092B90399
:10580000B092BA03C090AB03D090AC03E090AD036C
:10581000F090AE038091BB039091BC03A091BD03B7
:10582000B091BE038C0D9D1DAE1DBF1D8093BB03AB
:105830009093BC03A093BD03B093BE03B7FD31C0EA
:10584000C09092030C2C000CDD08EE08FF0880903D
:10585000D5109090D610A090D710B090D810C80C4A
:10586000D91CEA1CFB1CC092D510D092D610E09235
:10587000D710F092D810C0909F03D090A003E09072
:10588000A103F090A2034C015D018C189D08AE08A5
:10589000BF088092BB039092BC03A092BD03B0925C
:1058A000BE038090BF039090C003A090C103B0904E
:1058B000C203C090AF03D090B003E090B103F0906A
:1058C000B203C80CD91CEA1CFB1CC092BF03D092C7
:1058D000C003E092C103F092C203F7FC3AC080908B
:1058E0009303082C000C9908AA08BB084090D91013
:1058F0005090DA106090DB107090DC10840C951CD6
:10590000A61CB71C8092D9109092DA10A092DB10DE
:10591000B092DC1080909F039090A003A090A10310
:10592000B090A203C818D908EA08FB08C092BF03C8
:10593000D092C003E092C103F092C203E0906B04E6
:10594000F090CD03E3FE02C0FA9401C0F394F0920C
:10595000CD03F1110CC0E0908400F0908500AB887D
:10596000BC88EA18FB08F2E0EF16F104A0F337FF59
:105970005F9A77FF469AB7FF2B9A809084009090A9
:1059800085009C8A8B8AE0908400F0908500AB882B
:10599000BC88EA18FB08F2E0EF16F104A0F337FF29
:1059A0005F9877FF4698B7FF2B98EE2331F08090F1
:1059B0008400909085009C8A8B8AE150F0E009F089
:1059C00083CE20CE8091CC03882309F454C08090EC
:1059D000DC039090DD03A090DE03B090DF03C09065
:1059E000C803D090C903E090CA03F090CB03409164
:1059F000CD03C814D904EA04FB0480F48091990310
:105A000090919A0320919D0330919E0328173907A6
:105A100028F441504093CD03019714C08C149D0489
:105A2000AE04BF04E0F48091990390919A03209111
:105A30009B0330919C038217930788F44F5F409338
:105A4000CD03019690939A03809399034091290185
:105A500050912A0160912B0170912C010FC0AA2452
:105A6000AA94BA2C6501A0922901B0922A01C09291
:105A70002B01D0922C014FEF5FEFBA018091CD0343
:105A800087FD05C0289880E090E021E01FC0289A9B
:105A9000FACF222301F1299A809184009091850008
:105AA0002091CD0327FF21C02F5F2093CD032091AC
:105AB000840030918500281B390B22303105B8F362
:105AC00029982091CD03211112C020E03091CD03FF
:105AD0003111DFCF11C02091840030918500281B47
