:100000000C94DD150C9407160C9407160C94071627
:100010000C94195F0C94195F0C94195F0C94195F80
:100020000C9407160C9407160C9407160C940716DC
:100030000C9407160C942A9E0C9407160C94071621
:100040000C9407160C94A3860C9487620C940716E4
:100050000C945CC90C9452C90C9407160C940716A6
:100060000C9407160C9407160C9407160C9407169C
:100070000C9407160C9407160C9407160C9407168C
:100080000C9461C70C9407160C940716C8B3CDB333
:10009000D2B3DCB30AB40AB4E6B3EEB3F6B300B439
:1000A00053C056C049C04DC06DC06DC05AC05EC07F
:1000B00064C068C08EC99EC9AFC9BAC9C2C9D9C90E
:1000C000C6C9D9C9CAC9CEC9D9C9D4C9BDD07CCFBE
:1000D000B3CFF9D0B3CFB3CFB3CFB3CFB3CFB3CFC9
:1000E000B3CFB3CFB3CFB3CFB3CFB3CFB3CFB3CF00
:1000F000B3CFB3CFB3CFB3CFB3CFB3CFB3CFB3CFF0
:10010000B3CFB3CFB3CFB3CFF3D0B3CFB3CFB3CF9E
:10011000B3CFB3CFB3CFB3CFB3CFCCD0B3CFB3CFB5
:10012000B3CFB3CFB3CFB3CFB3CFB3CFB3CFB3CFBF
:1001300010D1B0CF05A84CCDB2D44EB93836A902F3
:100140000C50B9918688083CA6AAAA2ABE000000D5
:10015000803F4E414E494E495459494E46CDCCCC34
:100160003D0AD7233C17B7D13877CC2B329595E68B
:10017000241FB14F0A000020410000C84200401C6B
:100180004620BCBE4CCA1B0E5AAEC59D7400407AB8
:1001900010F35A00A0724E18090010A5D4E8000010
:1001A000E87648170000E40B54020000CA9A3B00AE
:1001B0000000E1F505000080969800000040420F25
:1001C000000000A08601000000102700000000E8E9
:1001D00003000000006400000000000A00000000AE
:1001E000000100000000002C76D888DC674F08234F
:1001F000DFC1DFAE59E1B1B796E5E3E453C63AE6B5
:1002000051997696E8E6C28426EB898C9B62ED4094
:100210007C6FFCEFBC9C9F40F2BAA56FA5F49005E3
:100220005A2AF75C936B6CF9676DC11BFCE0E40D17
:1002300047FEF520E6B500D0ED902E03009435770B
:10024000050080841E080000204E0A000000C80C33
:10025000333333330F986E12831141EF8D2114899C
:100260003BE65516CFFEE6DB18D1844B381BF77CF6
:100270001D901DA4BBE424203284725E228100C93B
:10028000F124ECA1E53D2700000000000000000083
:10029000000000FFFFFFC102BC02B502AE02A002D7
:1002A000434F4D4D554E49434154494F4E004452E2
:1002B0005952554E004552524F525300494E464FE7
:1002C000004543484F006F6B003F5A206F75742004
:1002D0006F662072616E67652028003F59206F7538
:1002E00074206F662072616E676520282D0020746F
:1002F0006F20003F58206F7574206F662072616E0A
:10030000676520282D0050726F6265204F66667306
:100310006574205800454550524F4D204F4B0A0000
:100320004F666673657473204170706C6965640014
:100330004572723A20546F6F206661722100546FCB
:100340006F206661722066726F6D207265666572DD
:10035000656E636520706F696E740A004D343231CA
:1003600020696E636F727265637420706172616D73
:10037000657465722075736167650A00646973004E
:1003800043290A0061626C656420286D696E2074DF
:10039000656D702000436F6C6420657874727564BD
:1003A0006573206172652000496E76616C69642016
:1003B00065787472756465720A0020643A00206979
:1003C0003A0020703A0050726F6265204F66667383
:1003D0006574205A0050726F6265204F66667365BF
:1003E000745A3A2000206F7574206F662072616E17
:1003F00067650A0020536572766F200050726F7433
:1004000065637465642050696E0A0020466C6F77DE
:100410003A200046523A0020204D61783A200020D0
:10042000204D696E3A2000536F667420656E6473C8
:10043000746F70733A20003F4A206F7574206F66A6
:100440002072616E67652028302E303120746F2055
:10045000302E33290A002054002052004163636586
:100460006C65726174696F6E3A2050004D3134359D
:1004700020533C696E6465783E206F7574206F660A
:100480002072616E67652028302D31290A002F2FD8
:1004900020004348414D4245525F54454D5045521E
:1004A0004154555245004D4F54494F4E5F4D4F44B6
:1004B000455300544845524D414C5F50524F5445AE
:1004C0004354494F4E004155544F5245504F52549A
:1004D0005F53445F5354415455530050524F4D5055
:1004E000545F535550504F525400454D4552474567
:1004F0004E43595F50415253455200434153455F6B
:100500004C494748545F4252494748544E4553531B
:1005100000544F47474C455F4C494748545300539C
:100520004F4654574152455F504F57455200425530
:10053000494C445F50455243454E54004C45564546
:100540004C494E475F44415441005A5F50524F421C
:1005500045004155544F4C4556454C005052494E6C
:10056000545F4A4F420050524F4752455353004147
:1005700055544F5245504F52545F54454D500056BC
:100580004F4C554D455452494300454550524F4DEF
:100590000042494E4152595F46494C455F545241D1
:1005A0004E534645520053455249414C5F584F4EB9
:1005B0005F584F4646004649524D574152455F4E9F
:1005C000414D453A4D61726C696E20322E302E35A8
:1005D0002E3320284769744875622920534F55529D
:1005E00043455F434F44455F55524C3A68747470BD
:1005F000733A2F2F6769746875622E636F6D2F4D84
:1006000061726C696E4669726D776172652F4D61BA
:10061000726C696E2050524F544F434F4C5F564599
:100620005253494F4E3A312E30204D414348494EA6
:10063000455F545950453A4C75637920455854529A
:10064000554445525F434F554E543A312055554914
:10065000443A63656465326132662D343161322D0E
:10066000343734382D396231322D633535633632C3
:100670006633363766660A004C756379204F464606
:100680002E0042656420436F6F6C696E672E2E2EBC
:10069000004265642048656174696E672E2E2E00E5
:1006A0004D3131332053006F666600444542554753
:1006B0003A0020573A004520255300256979202526
:1006C0006964202569682025696D202569730050BB
:1006D00072696E742074696D653A20004E6F204D0A
:1006E0006F76652E00436C69636B20746F205265D2
:1006F00073756D652E2E2E004D65736820706F69C1
:100700006E742063616E6E6F742062652072657313
:100710006F6C7665640A005A2050726F62652050D3
:10072000617374204265640A005A2050726F6265DA
:1007300020506173742042656400486F6D652058D5
:10074000592066697273740A00486F6D65205859A4
:1007500020466972737400536C6565702E2E2E00EE
:10076000627573793A2070617573656420666F7283
:1007700020696E7075740A00627573793A20706131
:100780007573656420666F7220757365720A006206
:100790007573793A2070726F63657373696E670A57
:1007A000002121204B494C4C206361757365642006
:1007B000627920746F6F206D75636820696E616364
:1007C000746976652074696D65202D206375727279
:1007D000656E7420636F6D6D616E643A20004E6FBC
:1007E00020436865636B73756D2077697468206C4E
:1007F000696E65206E756D6265722C204C61737434
:10080000204C696E653A2000636865636B73756D93
:10081000206D69736D617463682C204C6173742062
:100820004C696E653A20004C696E65204E756D62AC
:100830006572206973206E6F74204C617374204C54
:10084000696E65204E756D6265722B312C204C618E
:100850007374204C696E653A20004D313130005080
:100860006C65617365205265736574005052494E22
:100870005445522048414C5445440025533A2025C4
:1008800053004B494C4C45442E20005072696E7405
:1008900065722068616C7465642E206B696C6C28CD
:1008A000292063616C6C6564210A006563686F3A96
:1008B000004572726F723A0042696C696E656172CE
:1008C000204C6576656C696E6720477269643A0AE8
:1008D000004E65787420436F726E6572003F00446D
:1008E0006F6E65004E65787400486F6D696E6720A5
:1008F00058595A005A2056616C756500496E6465F6
:1009000078205900496E6465782058004C657665FA
:100910006C20436F726E6572730046616465204897
:1009200065696768740045646974204D6573680083
:100930004732380A473239004C6576656C2042658B
:10094000640053544F505045442E20005072696E3D
:100950007465722073746F707065642064756520AF
:10096000746F206572726F72732E204669782074DE
:100970006865206572726F7220616E6420757365A0
:10098000204D39393920746F207265737461727427
:100990002E202854656D70657261747572652069CA
:1009A000732072657365742E2053657420697420FA
:1009B00061667465722072657374617274696E67C2
:1009C000290A0021212053544F502063616C6C652B
:1009D000642062656361757365206F6620424C54C4
:1009E0006F756368206572726F72202D2072657357
:1009F000746172742077697468204D3939390A003E
:100A00004F46460A00466164652048656967687418
:100A10002000426564204C6576656C696E67200035
:100A20004661696C656420746F20656E61626C65F7
:100A300020426564204C6576656C696E670A0049E2
:100A40006E76616C6964206D6573682E0A00507261
:100A50006F62696E6720506F696E740025532025A0
:100A6000692F25690050726F62696E67206D65732A
:100A70006820706F696E74200020284452595255C6
:100A80004E2900473239204175746F204265642039
:100A90004C6576656C696E67003F20284C2C522CA3
:100AA000462C4229206F7574206F6620626F756E28
:100AB00064732E0A00426164205A2076616C756569
:100AC0000A004E6F2062696C696E65617220677200
:100AD00069640A0020746F6F206C6F6E6720657800
:100AE00074727573696F6E2070726576656E746569
:100AF000640A0020636F6C64206578747275736992
:100B00006F6E2070726576656E7465640A002020D1
:100B10004D3835312058005A2D50726F6265204F84
:100B200066667365740020440020204D3330312008
:100B300050005049442073657474696E67733A00BD
:100B400020460020480020204D3134352053004DF0
:100B50006174657269616C2068656174757020707C
:100B60006172616D65746572733A00202047323995
:100B7000205720490020204D343230205300417549
:100B8000746F20426564204C6576656C696E673AC7
:100B90000020204D323036205800486F6D65206FA0
:100BA00066667365743A00204A0020204D32303565
:100BB000204200416476616E6365643A20423C6D78
:100BC000696E5F7365676D656E745F74696D655F8F
:100BD00075733E20533C6D696E5F66656564726136
:100BE00074653E20543C6D696E5F74726176656C0D
:100BF0005F66656564726174653E204A3C6A756E25
:100C0000635F6465763E0020204D32303420500012
:100C1000416363656C65726174696F6E2028756EDF
:100C20006974732F7332293A20503C7072696E7464
:100C30005F616363656C3E20523C726574726163F0
:100C4000745F616363656C3E20543C7472617665C9
:100C50006C5F616363656C3E0020204D3230312053
:100C600058004D6178696D756D20416363656C65F1
:100C7000726174696F6E2028756E6974732F733298
:100C8000293A0020450020204D3230332058004DB5
:100C90006178696D756D20666565647261746573F0
:100CA0002028756E6974732F73293A005374657028
:100CB000732070657220756E69743A0020204D3182
:100CC00034392043203B20556E69747320696E20AF
:100CD00043656C736975730A0020286D6D290020C7
:100CE00020473231202020203B20556E697473202C
:100CF000696E206D6D006F70656E005452494747F4
:100D000045524544007A5F6D696E00795F6D696E8A
:100D100000785F6D696E005265706F7274696E67FE
:100D200020656E6473746F70207374617475730AD8
:100D300000486F6D696E67204661696C65640020CC
:100D40005A3A0020593A00687474703A2F2F6D6136
:100D5000726C696E66772E6F726700322E302E3598
:100D60002E33002020506C616E6E6572427566668F
:100D7000657242797465733A200020467265652079
:100D80004D656D6F72793A2000436F6D70696C65C7
:100D9000643A204A756C20323620323032300A00F4
:100DA000204C61737420557064617465643A20321C
:100DB0003032302D30332D3331207C204175746832
:100DC0006F723A202870616469632C204C756379D6
:100DD000290A00322E302E352E330A004D61726CF6
:100DE000696E0020536F6674776172652052657377
:100DF00065740A00205761746368646F67205265E8
:100E00007365740A002042726F776E206F757420CC
:100E100052657365740A002045787465726E616C62
:100E20002052657365740A00506F77657255700AB9
:100E3000002553202563202563202563202563009A
:100E4000656E6473746F7073206869743A2000FF74
:100E5000FFFFFFEFFFFFFFFFFFFFFFFFFFFFEFEFD2
:100E6000FFFFFFFFFFFFFFFFFFE7DFFFFFFFFFFFCA
:100E7000FFFFFFFFE7DFFFFFFFFFFFFFFFFFFFE3D6
:100E8000DFFFFFFFFFFFFFFFFFFFF3CFFFFFFFFFCE
:100E9000FFFFFFFFE1E1CFFFFFFFFFFFFFFE780055
:100EA0000003DDFFFFFFFFFEFF807E0001EEFFFF7E
:100EB000FFFFFE7DCFFC0000F77FFFFFFFFF8E06E8
:100EC0000000007BBFFFFFFFFFC0000000007DDFD0
:100ED000FFFFFFFFFC01FE00003EE7FFFFFFFFFFFB
:100EE000FFFC00031F73FFFFFFFFFFFFF800018FF0
:100EF00081FFFFFFFFFFFFE0000083F9FFFFFFFF1F
:100F0000FFFF00FC0000F0FFFFFFFFFFE00FFFC04E
:100F10000000FFFFFFFFFE03FFFFC00000FFFFFF19
:100F2000FFFFFFFFF9000000FFFFFFFFFFFFFFFCD7
:100F30000007C0FFFFFFFFFFFFFFFF0007E0FFFF0D
:100F4000FFFFFFFFFFFFE007F1FFFFFFFFFFFFFFD6
:100F5000FFFC07F9FFFFFFFFFFFFFFFFFF03F9FFA4
:100F6000FFFFFFFFFFFFFFFF83F9FFFFFFFFFFFF13
:100F7000FFFFFFC3FFFFFFFFFFFFFFFFFFFFE1FFDB
:100F8000FFFFFFFFFFFFFFFFFFF0BFFFFFFFFFFFC0
:100F9000FFFFFFFBF83FFFFFFFFFFFFFFFFFF9F839
:100FA0003FFFFFFFFFFFFFFFFF7EF0FFFFFFFFFFA1
:100FB000FFFFFFFF8E03FFFFFFFFFFFFFFFFFFE0CD
:100FC0001FFFFFFFFFFFFFFFFFFFFFFFFFFFFFFF11
:100FD000FFFFFFFFFFFFFFFFFFFFFFFFFFFFFFFF21
:100FE000FFFF7FFFFFFFFF00007FFFFFF87FFFFF96
:100FF000FFFF80007FFFFFE07FFFFFFFFFC3FCFFDD
:10100000FFFFF8FFFFFFFFFFC3FCFFFFFFF8FFFF3D
:10101000FFFFFF87FDFFFFFFF1FFFFFFFFFF87FFE0
:10102000FFFFFFF1FFFFFFFFFF0FE7F30FFC23FCC4
:101030003FFFFFFF0FEF8007F003F01E007FFE1F52
:10104000CF8187C787C70C007FFE001FC7C78FC728
:101050009F0F0CFFFE001F878F1F8F1F0F1FFFFCAE
:101060003F9F8F8F1F8E001E3FFFFC7F3F0F1E3F55
:101070001E3FFE3FFFF87FFF1F1C3F1C7FFC7FFFD2
:10108000F8FFFF1E1C7E1C7FFC7FFFF0FFCE3E3C66
:101090007E3C7FB8FFFFF0FF9E3C387C387E78FFB7
:1010A000FFE1FF3C7C787C783CF1FFFFE1F8387889
:1010B00078101801F1FFFF000060203C007C0780E1
:1010C0007FFFFFFFFFFFFE1FFE1FFFFFFF1FFFFF52
:1010D000FFFFFFFF600000000001FF400000000074
:1010E00000FF8000000000007F83CF00000C303F35
:1010F00087FF80000C301F867980000C000F8C3039
:10110000C7838C30E78C30CFC7CC31F38C30DCEC2C
:10111000EC33B98C30D86C6C33198C30D06C0C3308
:10112000198C30D86C0C33198C30DC6C0E3B198C5C
:1011300030CF7C079F198C30C77C038F194000008B
:1011400000000002600000000000061FFFFFFFFF1C
:10115000FFF820436F756E7420583A0045310062E5
:101160006564002C2073797374656D2073746F70DF
:1011700070656421204865617465725F49443A2056
:101180000048656174696E67204661696C6564003A
:1011900048656174696E67206661696C6564004DBD
:1011A0003131322053687574646F776E0024F4D443
:1011B0003050C38E20C2A24017828B7011127A91D8
:1011C0000D816CD90AA861E108C7586607615143CF
:1011D000061E4B5D05C145A7041A411104093D983F
:1011E00003713931034036DB0265339102D4305448
:1011F00002802E1D02632CEE01752AC501B028A0C5
:1012000001102781018F2564012B244B01E022343A
:1012100001AC211F018D200D01801FFC00841EEDFB
:1012200000971DDF00B81CD200E61BC600201BBCC7
:1012300000641AB200B219A8000A19A0006A18992D
:1012400000D117910040178B00B516840031167E2F
:1012500000B31579003A157300C7146F0058146A6B
:1012600000EE1366008813630025135E00C7125B4F
:10127000006C12570015125400C111510070114F2B
:101280000021114B00D61049008D10470046104434
:101290000002104200C00F4000800F3E00420F3C91
:1012A00000060F3B00CB0E3800930E37005C0E3566
:1012B00000270E3400F30D3200C10D3100900D30C7
:1012C00000600D2E00320D2D00050D2C00D90C2BC9
:1012D00000AE0C2900850C29005C0C2700350C277A
:1012E000000E0C2600E80B2400C40B2400A00B23E6
:1012F000007D0B23005A0B2100390B2100180B2015
:1013000000F80A1F00D90A1E00BB0A1E009D0A1D14
:1013100000800A1D00630A1C00470A1B002C0A1BE0
:1013200000110A1A00F7091A00DD091900C4091989
:1013300000AB091900920917007B0918006309170F
:10134000004C09160036091600200916000A091576
:1013500000F5081500E0081400CC081400B80814C3
:1013600000A4081400900813007D0812006B0813F5
:101370000058081200460812003408110023081112
:10138000001208110001081100F0071000E007101A
:1013900000D0071000C0071000B0070F00A1071011
:1013A0000091070E0083070F0074070F0065070EFA
:1013B0000057070E0049070E003B070D002E070ED1
:1013C0000020070D0013070D0006070D00F9060C9D
:1013D00000ED060D00E0060C00D4060C00C8060C5B
:1013E00000BC060C00B0060C00A4060B0099060C0D
:1013F000008D060B0082060B0077060B006C060BB7
:101400000061060A0057060B004C060A0042060A55
:101410000038060A002E060A0024060A001A060AE8
:10142000001006090007060A00FD050900F4050979
:1014300000EB050900E2050900D9050900D00509FE
:1014400000C7050900BE050900B5050800AD05087F
:1014500000A50509009C050800940508008C0508F6
:1014600000840508007C050800740508006C050769
:1014700000650508005D050700560508004E0507D4
:10148000004705070040050800380507003105073B
:10149000002A050700230507001C0506001605079E
:1014A000000F0507000805060002050700FB0406FB
:1014B00000F5040700EE040600E8040600E2040755
:1014C00000DB040600D5040600CF040600C90406AC
:1014D00000C3040600BD040600B7040600B10405FD
:1014E00000AC040600A6040600A00405009B040648
:1014F0000095040500900406008A04050085040593
:1015000000800406007A04050075040500700405D7
:10151000006B04050066040500610405005C040519
:101520000057040500520405004D04050048040559
:1015300000430405003E0404003A04050035040598
:1015400000300404002C04050027040400230405D3
:10155000001E0404001A040400160405001104040B
:10156000000D040400090405000404040000040440
:1015700000FC030400F8030400F4030400F0030477
:1015800000EC030400E8030400E4030400E00304A7
:1015900000DC030400D8030400D4030400D00304D7
:1015A00000CC030400C8030300C503030024F404B3
:1015B000D9201BC40C5C0E9804C4095F0265077136
:1015C00001F405F900FB04B30048048700C1036976
:1015D000005803550003034500BE023A008402315F
:1015E0000053022A002902250004022000E4011C05
:1015F00000C8011900AF01170098011400840113FD
:1016000000710110006101100051010E0043010D35
:101610000036010B002B010B0020010B0015010906
:10162000000C01090003010800FB000800F300089A
:1016300000EB000700E4000600DE000600D800060C
:1016400000D2000600CC000500C7000500C200055E
:1016500000BD000400B9000400B5000400B100049E
:1016600000AD000400A9000400A5000300A20003CF
:10167000009F0004009B00030098000300950002F7
:101680000093000300900003008D0002008B000314
:10169000008800020086000200840003008100022E
:1016A000007F0002007D0002007B00020079000242
:1016B0000077000100760002007400020072000151
:1016C00000710002006F0002006D0001006C00025A
:1016D000006A000100690002006700010066000165
:1016E0000065000100640002006200010061000169
:1016F00000600001005F0002005D0001005C00016D
:10170000005B0001005A000100590001005800016F
:10171000005700010056000100550001005400016F
:10172000005300000053000100520001005100016D
:1017300000500001004F0001004E0000004E00016B
:10174000004D0001004C0001004B0000004B000167
:10175000004A000100490001004800000048000163
:10176000004700010046000000460001004500005F
:101770000045000100440001004300000043000157
:101780000042000000420001004100000041000151
:1017900000400001003F0000003F0001003E00004B
:1017A000003E0001003D0000003D0001003C000043
:1017B000003C0000003C0001003B0000003B000139
:1017C000003A0000003A0001003900000039000131
:1017D0000038000000380000003800010037000029
:1017E000003700010036000000360000003600011E
:1017F0000035000000350000003500010034000015
:101800000034000000340001003300000033000009
:1018100000330001003200000032000000320001FD
:1018200000310000003100000031000100300000F4
:101830000030000000300001002F0000002F0000E9
:10184000002F0000002F0001002E0000002E0000DD
:10185000002E0001002D0000002D0000002D0000D2
:10186000002D0001002C0000002C0000002C0000C6
:10187000002C0001002B0000002B0000002B0000BA
:10188000002B0001002A0000002A0000002A0000AE
:10189000002A0001002900000029000000290000A2
:1018A0000029000000290001002800000028000095
:1018B0000028000000280000002800010027000088
:1018C000002700000027000000270000002700017B
:1018D0000026000000260000002600000026000070
:1018E0000026000100250000002500000025000062
:1018F0000025000000250000002500010024000054
:101900000024000000240000002400000024000146
:10191000002300000023000000230000002300003B
:10192000002300000023000000230001002200002B
:10193000002200000022000000220000002200001F
:101940000022000100210000002100000021000011
:101950000021000000210000002100000021000102
:1019600000200000002000000020000000200000F7
:1019700000200000002000000020000000200001E6
:10198000001F0000001F0000001F0000001F0000DB
:10199000001F0000001F0000001F0001001E0000CB
:1019A000001E0000001E0000001E000000043700A2
:1019B000001E290000511B000058100000100900F3
:1019C00000CC040000780200004101000054656D65
:1019D00070657261747572650050726F6265205A2D
:1019E000204F6666736574004D61696E00507265C4
:1019F0006865617420504C412042656400507265F6
:101A00006865617420504C4120456E6400507265D9
:101A1000686561742041425320456E6400507265D0
:101A200068656174204142532042656400436F6FD2
:101A30006C646F776E005072656865617420414216
:101A400053005072656865617420504C41004661D6
:101A50006E205370656564004E6F7A7A6C6500463F
:101A60006C6F7700436F6E66696775726174696F3A
:101A70006E004F6666004F6E004D6F74696F6E00AA
:101A80004175746F20486F6D650042696C696E65C1
:101A90006172204C6576656C696E6700457874727A
:101AA0007564657273004C75637900323032302D85
:101AB00030332D333100546865726D6973746F7201
:101AC0007300426F61726420496E666F00507269E4
:101AD0006E74657220496E666F0041626F75742086
:101AE0005072696E7465720054756E6500496E6659
:101AF0006F2053637265656E00536F667420456E88
:101B00006473746F7073004D38340044697361629C
:101B10006C65205374657070657273004732380AC3
:101B20004D343820503130004D34382050726F62BF
:101B30006520546573740047323800206D61783A2F
:101B40002000206D696E3A200020496E76616C6934
:101B500064206578747275646572200044696666F5
:101B60003A200046726F6D5374703A00537465707A
:101B70007065723A00556E4C6576656C3A004C653E
:101B800076656C65643A005261773A202020200027
:101B90000A4C6F676963616C3A00436F756E74201D
:101BA000453A004361703A00526573656E643A20AD
:101BB0000023646566696E652044454641554C5472
:101BC0005F004B6420004B6920004B70200050499F
:101BD00044204175746F74756E652066696E697313
:101BE000686564212050757420746865206C617389
:101BF00074204B702C204B6920616E64204B642054
:101C0000636F6E7374616E74732066726F6D2062A1
:101C1000656C6F7720696E746F20436F6E666967BD
:101C200075726174696F6E2E680A005049442041D4
:101C300075746F74756E65206661696C65642120CA
:101C400074696D656F75740A000A20436C61737363
:101C5000696320504944200A00204B643A20002048
:101C60004B693A2000204B703A20002054753A20EE
:101C700000204B753A200020643A20002062696100
:101C8000733A2000504944204175746F74756E6535
:101C90002073746172740A00504944204175746F56
:101CA00074756E65206661696C6564212054656D8C
:101CB000706572617475726520746F6F20686967F2
:101CC000680A00504944204175746F74756E652030
:101CD0006661696C65642120426164206578747274
:101CE00075646572206E756D6265720A00202D2024
:101CF000496E76616C69642065787472756465728A
:101D0000206E756D62657220210A00544845524D5F
:101D1000414C2052554E4157415900546865726DEF
:101D2000616C2052756E61776179004572723A205C
:101D30004D415854454D50004D415854454D50204B
:101D4000747269676765726564004572723A204D06
:101D5000494E54454D50004D494E54454D50207408
:101D6000726967676572656400202F002042403AFF
:101D70000020403A0070012C0190012701B001229F
:101D800001C0011D01F00118011002130130020E03
:101D9000016002090190020401C002FF000003FA81
:101DA000004003F5008003F000D003EB002004E6C0
:101DB000007004E100E004DC004005D700C005D25B
:101DC000004006CD00D006C8008007C3003008BE22
:101DD00000F008B900C009B400B00AAF00B00BAA07
:101DE00000D00CA500000EA000500F9B00C0109664
:101DF000005012910000148C00C0158700B01782AB
:101E000000B0197D00D01B7800001E730040206ECA
:101E10000090226900F024640040275F0090295A56
:101E200000E02B5500102E500020304B00103246A1
:101E300000E033410090353C0010373700703832F5
:101E400000A0392D00B03A2800A03B2300603C1EC2
:101E500000103D1900903D1400103E0F00703E0A26
:101E600000C03E0500003F0000403FFBFF803FF602
:101E7000FFC03FF1FF656E7175657565696E67201E
:101E800022004D333033205531204525692053251C
:101E90006900504944204175746F74756E65202A3D
:101EA000005049442D44202A005049442D49202AFD
:101EB000005049442D50202A0020082046616374B8
:101EC000002008204D6178002008204D696E0041F7
:101ED00075746F74656D70004573746570732F6DE4
:101EE0006D005A73746570732F6D6D00597374654E
:101EF00070732F6D6D005873746570732F6D6D0066
:101F000053746570732F6D6D001FE020102010203A
:101F100010102010202010201030300840048003C2
:101F2000001FE03FF03FF03FF01FE01FE03FF03FB9
:101F3000F03FF00FC0078003003FFFF03800703023
:101F4000FC3020FC102078102030102C00D02E31D6
:101F5000D02F7BD02F7BD02E31D02C00D020301032
:101F600020781020FC1030FC303800703FFFF03F2C
:101F7000FFF03800703186302387102787902F8735
:101F8000D02F03D02030102078102078102030106F
:101F90002F03D02F87D027879023871031863038A2
:101FA00000703FFFF01FFFF81FFFF8041040020809
:101FB0002002082004104008208010410010410039
:101FC0000820800410400000001FFFF81FFFF8F8F1
:101FD0000180000C480080001243C38CD0027124A1
:101FE0009267CC41249E40024924904012FBB3CE1C
:101FF000E00C202020202020200000FE0003FF8095
:1020000007C7C00701E00000E00000F00000700416
:1020100000700E00701F00703F80F00E00E00F0196
:10202000E007C7C003FF8000FE0000FE0003FF8042
:1020300007C7C00F01E00E00E03F80F01F00700EE8
:1020400000700400700000700000F00000E0070164
:10205000E007C7C003FF8000FE000E000E000E0068
:102060000E000E000E000E000E007FC03F801F000D
:102070000E00040004000E001F003F807FC00E0011
:102080000E000E000E000E000E000E000E00FFFFF0
:10209000FF7F80FFC0FFC0FFC07F807F80FFC0FF49
:1020A000C0FFC03F001E000C0000006B4300006B2F
:1020B0004300007A4300004842000048420000A06C
:1020C000410202040000A0400000A04000000040C7
:1020D0005761726E696E673A20486F6D696E67204E
:1020E00042756D702044697669736F72203C2031AF
:1020F0000A0053657474696E67732053746F726558
:10210000642028004572723A207574663820666F24
:102110006E74206E6F7420696E697469616C697A7F
:1021200065642E002568753A25303268750025688B
:1021300075642025303268753A25303268750000A4
:102140000C0D00FE07022603BC017FFE08FE08FE00
:1021500005080806000040F0C8888898781005082F
:1021600008060000C0F88888888888F805050506F4
:1021700000012030F830200508080600002070F823
:1021800020202020E00509090600FF2070A8A8B83B
:1021900088887020050606060001E08CEA8C8A0A11
:1021A0000509090600FFF8A88888888888A8F80526
:1021B0000A0A0600FE205050505088A8A8887003D4
:1021C000030306000340A040FFFFFFFFFFFFFFFFE8
:1021D000FFFFFFFFFFFFFFFFFFFFFFFFFFFF00000D
:1021E000000605FF0107070602008080808080004E
:1021F00080030303060105A0A0A005060606000053
:1022000050F85050F8500509090600FF2070A8A0AA
:102210007028A87020050707060000C8C8102040D5
:10222000989805070706000040A0A040A890680104
:1022300003030602058080800309090601FF204090
:10224000408080804040200309090601FF80404013
:1022500020202040408005070706000020A87020AD
:1022600070A8200505050600012020F820200203A3
:10227000030601FFC04080050101060003F80202C9
:1022800002060100C0C00507070600000810102064
:10229000404080050707060000708898A8C888702D
:1022A00003070706010040C040404040E005070723
:1022B000060000708808102040F805070706000097
:1022C000F808103008887005070706000010305025
:1022D00090F81010050707060000F880F00808883D
:1022E00070050707060000304080F08888700507F9
:1022F00007060000F8081010202020050707060038
:10230000007088887088887005070706000070884C
:102310008878081060020505060100C0C000C0C032
:102320000206060601FFC0C000C040800305050686
:1023300001012040804020050303060002F800F858
:1023400003050506010180402040800507070600BF
:102350000070881020200020050707060000708804
:10236000B8A8B88070050707060000708888F8884C
:102370008888050707060000F04848704848F005BF
:1023800007070600007088808080887005070706B0
:102390000000F04848484848F0050707060000F8E4
:1023A0008080F08080F8050707060000F88080F044
:1023B00080808005070706000070888080988870FC
:1023C000050707060000888888F8888888030707BB
:1023D000060100E04040404040E0050707060000DD
:1023E000381010101090600507070600008890A0B4
:1023F000C0A090880507070600008080808080804C
:10240000F805070706000088D8A888888888050787
:10241000070600008888C8A898888805070706006E
:102420000070888888888870050707060000F08893
:1024300088F080808005070706000070888888A8DB
:102440009068050707060000F08888F0A0908805CE
:102450000707060000708880700888700507070667
:102460000000F82020202020200507070600008813
:10247000888888888870050707060000888888880B
:1024800050502005070706000088888888A8A850B3
:102490000507070600008888502050888805070730
:1024A000060000888850202020200507070600002D
:1024B000F80810204080F80309090601FFE0808039
:1024C0008080808080E00507070600008040402073
:1024D0001010080309090601FFE020202020202019
:1024E00020E00503030600052050880501010600D1
:1024F000FEF80303030601058040200505050600DC
:102500000070087888780507070600008080F0884A
:102510008888F00505050600007080808870050732
:1025200007060000080878888888780505050600F1
:10253000007088F08070050707060000304840E012
:102540004040400507070600FE70888888780870BC
:102550000507070600008080F08888888803070741
:102560000601004000C0404040E00409090601FEA9
:102570001000301010101090600507070600008052
:10258000808890E09088030707060100C040404023
:102590004040E0050505060000D0A8A8A8A805054C
:1025A00005060000B0C8888888050505060000708B
:1025B000888888700507070600FEF0888888F08004
:1025C000800507070600FE788888887808080505D2
:1025D00005060000B0C8808080050505060000786B
:1025E000807008F00507070600002020F820202052
:1025F0001805050506000088888898680505050601
:10260000000088888850200505050600008888A8F5
:10261000A8500505050600008850205088050707CA
:102620000600FE88888850204080050505060000C9
:10263000F8102040F80309090601FF2040404080BF
:10264000404040200109090602FF80808080808090
:102650008080800309090601FF80404040204040FF
:10266000408005030306000248A890FF3F28562932
:102670006572626F7365206C6576656C20696D703C
:102680006C61757369626C652028302D34292E0ABF
:1026900000446576696174696F6E0025533A2025A0
:1026A00073005374616E646172642044657669617D
:1026B00074696F6E3A20002052616E67653A20009F
:1026C0004D65616E3A200046696E697368656421E4
:1026D0000A002072616E67653A2000207369676D99
:1026E000613A2000206D65616E3A20003A207A3A06
:1026F0002000206F662000476F696E6720746F3A74
:1027000020580043570A00206469723A0020616E25
:10271000676C653A00537461727420726164697504
:10272000733A004D343820506F696E740025533A67
:102730002025642F256400506F736974696F6E697A
:102740006E67207468652070726F62652E2E2E0A87
:10275000003F4E756D626572206F66206C65677311
:1027600020696E206D6F76656D656E74206E6F7476
:1027700020706C61757369626C652028302D31356D
:10278000292E0A003F2028582C5929206F757420C3
:102790006F6620626F756E64732E0A003F53616D21
:1027A000706C652073697A65206E6F7420706C613F
:1027B000757369626C652028342D3530292E0A0026
:1027C0004D3438205A2D50726F6265205265706505
:1027D00061746162696C69747920546573740A006C
:1027E000204D3932205800496E76616C6964205062
:1027F000696E204D6F64650A002062797465733BD1
:102800002063726320004E6F20454550524F4D2E7D
:102810000A00454550524F4D206461746173697AD6
:1028200065206572726F722E0A002073746F726574
:10283000642073657474696E67732072657472695D
:1028400065766564202800202863616C63756C617F
:1028500074656429210A0020213D2000454550521D
:102860004F4D20435243206D69736D61746368203E
:102870002D202873746F7265642920002053697AB3
:10288000653A2000496E6465783A2000204D6172F7
:102890006C696E3D563736290A00454550524F4DFA
:1028A0002076657273696F6E206D69736D617463F4
:1028B000682028454550524F4D3D00454550524FE8
:1028C0004D20496E697469616C697A65640A0048D3
:1028D000617264636F6465642044656661756C74DD
:1028E0002053657474696E6773204C6F616465640E
:1028F0000A003B20000000FA430000FA430000A059
:10290000400000C8410000A0420000A0420000C8F2
:10291000430000D342F4010000F401000064000011
:10292000008813000000002100240027002A000076
:10293000002200250028002B000000200023002694
:10294000002900020202020202020204040404043A
:10295000040404030303030303030301010101014E
:102960000101010102040810204080010204081046
:102970002040800102040810204080804020100880
:10298000040201000000010200090A000000000426
:102990000308070000000000000000000000000025
:1029A0000000004D6F76652025736D6D004D6F76CC
:1029B0006520302E316D6D004D6F766520316D6D67
:1029C000004D6F76652031306D6D004D6F7665205E
:1029D0004178697300486F74656E6420746F6F206E
:1029E000636F6C64004578747275646572004D6F36
:1029F0007665205A004D6F76652059004D6F7665DB
:102A00002058004572726F722077726974696E6720
:102A100020746F20454550524F4D210A000F150E6E
:102A20001216170E1303021A1401000E0C190DFFD3
:102A3000180C0400014C6F61642053657474696E56
:102A400067730053746F72652053657474696E67A1
:102A50007300416476616E636564205365747469C4
:102A60006E677300436D643A2053746F7700436D53
:102A7000643A204465706C6F7900436D643A20536A
:102A8000656C662D5465737400436D643A2052651D
:102A900073657400436D643A2053572D4D6F646520
:102AA00000526573746F72652044656661756C745D
:102AB0007300424C546F75636800313235004245F3
:102AC000443A4550434F53203130304B0052756EDD
:102AD000617761792057617463683A204F4E004DE9
:102AE00061782054656D7000323735004D696E2075
:102AF00054656D700045313A204550434F532031A5
:102B000030304B005053550047656E657269630065
:102B100050726F746F636F6C00312E3000426175BC
:102B20006400313135323030004D656C7A692028CF
:102B3000437265616C6974792900205A3A2000203B
:102B4000593A200042656420583A20005072696E5C
:102B500074205061757365640050726F62696E67AE
:102B6000204661696C65640A0050726F62696E6725
:102B7000204661696C656400486F6D65202573258A
:102B800073257320466972737400220A00556E6BB8
:102B90006E6F776E20636F6D6D616E643A202200F8
:102BA0004C7563792052656164792E005072696EAC
:102BB00074696E672E2E2E00B4DF11241FBECFEF76
:102BC000D0E4DEBFCDBF12E0A0E0B1E0ECEDFEED61
:102BD00001E00BBF02C007900D92A634B107D9F7F0
:102BE0002FE0A6E4B2E001C01D92A438B207E1F7DD
:102BF00015E1CDEDD5E104C02197FE010E9488ECDE
:102C0000CC3DD107C9F70E9462DA0C946CEF0C94AA
:102C100000002F923F924F925F926F927F928F921D
:102C20009F92AF92BF92CF92DF92EF92FF920F935B
:102C30001F93CF93DF93CDB7DEB7C654D1090FB63C
:102C4000F894DEBF0FBECDBF2091DC0326962FAFD8
:102C5000269721E02093DC038091DB038D3409F477
:102C600043C4843511F40C945928873411F00C9422
:102C700074288091D9039091DA038C31910509F47D
:102C8000A1C18CF48430910509F4D2C01CF40297E0
:102C900038F126C48531910511F40C9476284B97B0
:102CA00009F404C11DC48A32910509F4F2C244F446
:102CB0008D31910509F496C14E9709F4A7C110C44E
:102CC0008B35910509F462C28C35910509F463C214
:102CD0008A35910509F004C41092D8030C94762823
:102CE0008091D703813011F00C94762827ECC22E06
:102CF00023E0D22E38E8E32E34E0F32E4DE4A42E68
:102D00004FE0B42E10E088E5810F0E941442882322
:102D100019F10E94D23F2B013C01812F0E940C82AD
:102D2000882351F0D7012D913D914D915C91C301C4
:102D3000B2010E9492EC09C0F501208131814281EB
:102D40005381C301B2010E9491ECD6016D937D9332
:102D50008D939C9313970AC0F70180819181A28182
:102D6000B381F60180839183A283B3831F5FF4E074
:102D7000CF0ED11C24E0E20EF11C34E0A30EB11CF6
:102D8000133009F685E40E941442882301F10E9461
:102D9000D23F6B017C0183E00E940C82882371F09A
:102DA0002091940430919504409196045091970499
:102DB000C701B6010E9492EC6B017C01C092D30363
:102DC000D092D403E092D503F092D60310C0809144
:102DD000940490919504A0919604B09197048093E7
:102DE000D3039093D403A093D503B093D60340E0CC
:102DF00050E0BA0186E40E94FE7920E030E0A901AB
:102E00000E9459EE181684F40E94D23F20E030E070
:102E100040E752E40E941AED60936B0170936C01DD
:102E200080936D0190936E010E94EA580C9476286D
:102E300080E50E941442882329F00E9459B46B0156
:102E40007C0103C0C12CD12C760183E50E94144281
:102E5000882361F00E94D23F20E030E04AE754E44A
:102E60000E9401E60E9493ED6B017C010E94E79FA6
:102E700080917203811105C060E087E597E00E94B0
:102E800007AE0E947B62C60ED71EE81EF91E0E9486
:102E90007B62DC01CB018C199D09AE09BF09B7FD2E
:102EA00002C00C9476280E94E133F1CF0E945DD4D9
:102EB00081110C9476288CE0E5E7F1E0DE011196B3
:102EC00001900D928A95E1F780E50E9414428823D3
:102ED00019F00E949A3F01C060E080E090E0A8EC09
:102EE000B2E48AA39BA3ACA3BDA380E090E0A0EAD8
:102EF000B0E48E8F9F8FA8A3B9A3613019F0623020
:102F000039F029C0BE01625E7F4FCE01099644C0F0
:102F100029853A854B855C85609190047091910478
:102F200080919204909193040E9492EC6B017C0139
:102F300020E030E04AE753E40E949BE587FD06C0AD
:102F4000C12CD12C9AE7E92E93E4F92ECE8ADF8AA0
:102F5000E88EF98E1CC0E0909004F09091040091EE
:102F6000920410919304A984BA84CB84DC849501E3
:102F7000A601B701C8010E949BE587FF02C0750149
:102F80008601C701D8018E8B9F8BA88FB98FBE0198
:102F9000625E7F4FCE0146960E949E5D88E0FE01F4
:102FA0003196DE01569601900D928A95E1F7BE01A9
:102FB0006E5D7F4FCE0146960E947D5D0E94A55FAB
:102FC0000C9476288091660F8770873011F00C94EE
:102FD000A42860E08FE40E943C4281110C94762882
:102FE0000C94A4280E945DD481110C9476288091C1
:102FF0007103882311F40C94EE2960E08FE40E94A1
:103000003C4281110C9476280C94EE292091590FA2
:1030100030915A0F40915B0F50915C0F6091880482
:103020007091890480918A0490918B040E9492ECA3
:10303000AB01BC0188E50E94FE7969837A838B83AA
:103040009C8320915D0F30915E0F40915F0F5091F6
:10305000600F60918C0470918D0480918E0490912A
:103060008F040E9492ECAB01BC0189E50E94FE79BD
:103070006D837E838F839887BE016B5F7F4FCE0108
:1030800001960E94EB3D882311F40C94762880E091
:103090000E94652F0E94825C61E085E40E943C42B0
:1030A00021E0482FBE016B5F7F4FCE0101960E9449
:1030B00015D56B017C019B01AC010E94DFEE8111F3
:1030C0005FC089809A80AB80BC8020E030E0A9019D
:1030D000C501B4010E949BE587FF05C027E137EBDE
:1030E00041E558EB04C027E137EB41E558E3C50162
:1030F000B4010E9492ECAB01BC0184E49BE20E940B
:1031000030338D809E80AF80B88420E030E0A9010C
:10311000C501B4010E949BE587FF05C027E137EB9D
:1031200041E558EB04C027E137EB41E558E3C50121
:10313000B4010E9492ECAB01BC018FE39BE20E94C0
:10314000303320E030E0A901C701B6010E949BE5C1
:1031500087FF05C067E177EB81E598EB04C067E185
:1031600077EB81E598E3A70196010E9492ECAB0111
:10317000BC018AE39BE20E9430338AE00E9426C8A9
:103180000E94695C0E94A55F0C9476288FE0809372
:10319000D8030C947628A4E22A2EA2E03A2EB3E6B5
:1031A000EB2EB3E0FB2EA8E8B4E0BFA3AEA31DE472
:1031B000C12E1FE0D12E00E010E0F10181911F012E
:1031C0000E941442882309F44AC00E94D23F2B0176
:1031D0003C01133049F0D6012D913D914D915C9108
:1031E0000E9491EC2B013C01EEA1FFA120813181D5
:1031F00042815381C301B2010E9491EC4B015C01F9
:103200002DEB37E346E855EB0E9459EE87FD0AC0E7
:103210002DEB37E346E855E3C501B4010E949BE579
:103220001816ECF4133051F4409294045092950423
:10323000609296047092970401E011C0A501940178
:10324000D7016D917D918D919C910E9492ECF70137
:103250006083718382839383812F0E9485A41F5F83
:10326000F4E0EF0EF11C2EA13FA12C5F3F4F3FA3D6
:103270002EA334E0C30ED11C143009F09ECF0023DE
:1032800021F084E994E00E94FCA20E94A55F0C94C6
:1032900076288091D703813011F00C94762889E448
:1032A0000E941442E82E882321F00E94CE3F082F6E
:1032B00001C000E08AE40E941442F82E882321F025
:1032C0000E94CE3F182F01C010E0EE2011F0073011
:1032D00020F4FF2041F0173030F088EF96E00E9494
:1032E00089320C94762880E1E8E8F4E0A7ECB3E0BA
:1032F00001900D928A95E1F7EE2019F1602F000FF1
:10330000770B880B990B0E94A2E520915303309113
:10331000540340915503509156030E9401E62091B9
:103320005B0330915C0340915D0350915E030E940A
:1033300092EC6093C7037093C8038093C903909382
:10334000CA03FF2019F1612F110F770B880B990B1E
:103350000E94A2E5209157033091580340915903F0
:1033600050915A030E9401E620915F03309160035F
:1033700040916103509162030E9492EC6093CB03F1
:103380007093CC038093CD039093CE0360E080E5EF
:103390000E943C428823C1F1EE20D1F02091590FC8
:1033A00030915A0F40915B0F50915C0F6091C703B1
:1033B0007091C8038091C9039091CA030E9491EC57
:1033C0006093C7037093C8038093C9039093CA03A3
:1033D000FF20D1F020915D0F30915E0F40915F0F83
:1033E0005091600F6091CB037091CC038091CD031D
:1033F0009091CE030E9491EC6093CB037093CC0329
:103400008093CD039093CE0340E050E0BA0186E470
:103410000E94FE796B017C0120E030E0A9010E944E
:1034200059EE18165CF420E030E040E752E4C701A2
:10343000B6010E941AED6B017C0103C0C12CD12C96
:10344000760180906B0190906C01A0906D01B0901E
:103450006E0120E030E0A901C701B6010E949BE5A2
:10346000882341F0C0926B01D0926C01E0926D0113
:10347000F0926E01009121011091220184E690E00A
:103480009093220180932101C0903201D0903301AA
:10349000E0903401F090350180E090E0A0E8BFE3D7
:1034A0008093320190933301A0933401B09335019E
:1034B0000E94EA5880926B0190926C01A0926D017B
:1034C000B0926E011093220100932101C09232014B
:1034D000D0923301E0923401F09235010C947628B9
:1034E0000E944FD40C9476288091D9039091DA03EE
:1034F0008837910511F40C94ED220CF0FBC0853552
:10350000910509F46CC70CF048C08934910509F4A1
:10351000ECC2FCF48231910509F434C76CF497FFD6
:1035200002C00C945628823091050CF4ABC141972F
:1035300009F408C20C9456288A32910509F4CDC2C8
:103540008033910509F4CDC24F9711F00C945628A1
:1035500016C28135910509F4FAC68CF48C349105B4
:1035600009F4F5C28D34910509F406C38B34910535
:1035700011F00C9456280E948B370C9476288335D2
:10358000910509F4F8C60CF0FDC68091D8038F7D33
:1035900080618093D8030C9476288E36910509F4C7
:1035A00008C5CCF48A36910509F4D4C464F488368D
:1035B000910509F4E5C20CF0BDC48C35910509F400
:1035C00031C70C9456288C36910511F40C9476284A
:1035D0000CF4E4C4F9C28237910509F4ADC744F490
:1035E0008037910511F40C9476280CF4F5C43FC58E
:1035F0008537910509F4A3C70CF06FC08337910597
:1036000011F00C94562886EB95E00E94893260E018
:1036100086EA95E00E94F17F60E081E995E00E94F2
:10362000F17F61E08AE895E00E94F17F60E08FE73A
:1036300095E00E94F17F61E08FE695E00E94F17FC6
:1036400060E086E695E00E94F17F61E08CE595E020
:103650000E94F17F61E082E595E00E94F17F61E0E8
:103660008AE495E00E94F17F61E08CE395E00E949E
:10367000F17F61E08EE295E00E94F17F60E08FE1F2
:1036800095E00E94F17F60E081E195E00E94F17F8A
:1036900060E08BEF94E00E94F17F61E08AEE94E0BD
:1036A0000E94F17F60E08BED94E00E94F17F60E08A
:1036B00086EC94E00E94F17F61E083EB94E00E944D
:1036C000F17F60E086EA94E00E94F17F60E082E9A9
:1036D00094E00E94F17F0C9476288637910509F4D6
:1036E00042C78737910511F00C9456280E94C05E9E
:1036F0000C9476288D3241E0940711F40C945926ED
:103700000CF05CC08C3C910511F40C94942344F5AE
:103710008B39910509F4F5C5ACF48C38910509F4A1
:10372000D0C48139910509F45FC78937910511F03B
:103730000C9456281092700310926F030E940F5F32
:103740000C947628893C910509F4A9C78B3C910516
:1037500009F4CBC78E3B910511F00C945628D6C4C2
:103760008C3D910511F40C94952474F48E3C9105D4
:1037700011F40C94B1230CF4E1C7833D910511F4CD
:103780000C94CF230C945628823E910511F40C948E
:1037900006253CF48D3D910511F40C94BC240C9449
:1037A00056288831A1E09A0711F40C9451258232F1
:1037B000914011F40C94E8250C945628853AE1E0E8
:1037C0009E0711F40C942D2784F5813921E092078E
:1037D00011F40C94202794F48F3241E0940711F4F3
:1037E0000C941D2714F40C94D9268039914011F0C3
:1037F0000C9456280E94E79F0C9476288A39B1E0F1
:103800009B0711F40C947628843AE1E09E0711F4AA
:103810000C942A278239914011F00C9456280E946A
:10382000E23D0E94A55F0C947628863F21E0920736
:1038300011F40C94FA2784F4843F41E0940711F4C6
:103840000C94F42714F00C94F7278C3A914011F45F
:103850000C9496270C945628883FB1E09B0711F4EE
:103860000C94062814F40C94FD278335F3E09F078D
:1038700011F40C941728873E934011F40C944828B7
:103880000C94562880E50E941442882329F00E9457
:1038900059B46B017C0103C0C12CD12C760183E5A6
:1038A0000E941442882361F00E94D23F20E030E061
:1038B0004AE754E40E9401E60E9493ED6B017C010B
:1038C0000E94E79F8091510390915203009739F035
:1038D0002091650F211108C00E94E6AD05C060E08F
:1038E00085EE96E00E9407AE1091DC0383E08093A2
:1038F000DC0381E080935003C114D104E104F1049E
:1039000031F00E947B62C60ED71EE81EF91E809120
:103910005003882311F40C94F529C114D104E10457
:10392000F10411F40C94F1290E947B62DC01CB01BB
:103930008C199D09AE09BF09B7FF02C00C94F1298B
:103940000C94F52980914C0384FF02C00C94FC294F
:1039500080914E0387FF02C00C94FC2980914F0395
:10396000837011F00C94FC2960E08CED96E00E94CD
:1039700007AE5E985E9815985E980C9476280E9423
:10398000C4AA7B018C0120E831E541E050E00E94AF
:10399000F1EBC9016DE671E00E9460EC4B015C0146
:1039A000C801B70120E13EE040E050E00E94F1EBA9
:1039B000CA01B90128E130E040E050E00E94F1EB9B
:1039C000762E672EC62ED72EFCE32F2E312C412CBF
:1039D000512CC801B701A20191010E94F1EBF62E12
:1039E000E72ECA01B901A20191010E94F1EBCB01BE
:1039F0008E010F5F1F4F8114910499F0EF92FF9297
:103A00007F936F936F927F92BF92AF929F928F92AC
:103A10008BEB96E09F938F931F930F930E9433E558
:103A200013C0A114B104B1F0EF92FF927F936F9392
:103A30006F927F92BF92AF928FEB96E09F938F939E
:103A40001F930F930E9433E50FB6F894DEBF0FBEAD
:103A5000CDBF30C0CD2879F0EF92FF927F936F9366
:103A60006F927F9283EC96E09F938F931F930F93B7
:103A70000E9433E5E9CF892B69F0EF92FF927F93A3
:103A80006F9387EC96E09F938F931F930F930E9401
:103A900033E5DACFEF92FF928BEC96E09F938F9312
:103AA0001F930F930E9433E50F900F900F900F908C
:103AB0000F900F908091650F811103C0C8010E9483
:103AC000E6AD0E946533B8018FEC96E00E944E335C
:103AD0008AE00E9426C80C9476280E9453B30C9466
:103AE00076280E9469B40C94762880E50E940940EB
:103AF0008823A1F00E94D23F20E030E048EC52E45D
:103B00000E9401E60E9493ED6031F7E27F0710F01A
:103B100060E177E2709347036093460382E50E9479
:103B20000940882311F40C9476280E9459B49B0113
:103B3000AC01ACE3B0E00E9432EC609348037093B8
:103B4000490380934A0390934B030C947628809109
:103B50006A0F813011F00C94762882E080936A0F0E
:103B60000E947B62609342037093430380934403FB
:103B7000909345030C9476280E9413AB0C947628FE
:103B80008091780983FF02C00C9476280E94E3811B
:103B900087FF02C00C94762883E50E941442882394
:103BA00079F00E94D23F0E948CEDCB010E94AC8440
:103BB0000E94DB86811104C00E9413AB0E943ED498
:103BC0000E948DDE0C9476288091780983FF02C0D4
:103BD0000C9476280E94E38189AF87FF02C00C9481
:103BE000762883E50E9414428AA7811106C082E5E7
:103BF0000E941442182F882389F10E94D23F0E940C
:103C00008CEDCB010E94AC840E94DB86882311F4EA
:103C10000C940E2A0E948B376091A60D7091A70D0F
:103C2000072E000C880B990B0E94A2E56B017C010A
:103C30008090A20D9090A30DA090A40DB090A50D22
:103C4000A50194010E9459EE181614F40C942E2A22
:103C50002AA5222311F40C94142A11E00E948DDE6F
:103C6000112311F40C94762881E0809320011AAA84
:103C70001BAA1CAA1DAA21961CAE1DAE1EAE1FAE0D
:103C800021971EA623961FAE23973CE324963FAFB1
:103C900024974CE125964FAF259756E427965FAFC2
:103CA0002797D12CE12CE0E8FE2E0FEB22968FAF68
:103CB0002297412C512C32016091A60D7091A70DD5
:103CC000072E000C880B990B0E94A2E51B018EA306
:103CD000192F2D2D3E2D4F2D502F0E949BE588230F
:103CE000E1F02091A20D3091A30D4091A40D5091CF
:103CF000A50D9AA5B1018EA1911108C0912F0E9426
:103D00009BE5881F8827881F8EA70BC0912F0E94D4
:103D10009BE587FDEEC21EA604C02D2C3E2CFEA204
:103D2000102F0E947B626B017C01DC01CB0121968C
:103D30002CAD3DAD4EAD5FAD2197821B930BA40B17
:103D4000B50BB7FD35C0D701C60188519C4FAF4FA9
:103D5000BF4F21968CAF9DAFAEAFBFAF219789AD5E
:103D60000E94BC8482EB96E00E9489324114510487
:103D700061047104B9F0D301C201805F984DAF4F67
:103D8000BF4FBC01CD016C197D098E099F0928EE3A
:103D900033E040E050E00E94F1EBCA01B9010E941B
:103DA0009AC803C08FE30E9426C88AE00E9426C8F2
:103DB0000E94E1330E947B6260933E0370933F0355
:103DC000809340039093410320E030E0A90160918B
:103DD000A20D7091A30D8091A40D9091A50D0E944C
:103DE00092EC6EAB7FAB88AF092F9B01482F592F08
:103DF000B1018EA1912F0E9491EC4B015C0120E05A
:103E000030E0A9010E9459EE87FF04C0B7FAB094D0
:103E1000B7F8B0944114510461047104C1F420E076
:103E200030E040E85FE3C501B4010E949BE587FFF5
:103E30001AC022969FAD229726013701992399F047
:103E4000A0E14A0EA7E25A1E611C711C0CC020E0C2
:103E500030E040E450E4C501B4010E9459EE181668
:103E600014F426013701BEA5BB2309F444C02AA9D6
:103E70003BA94CA95DA9211531054105510541F02A
:103E8000D701C601821B930BA40BB50BB7FD33C042
:103E90002EA93FA948AD502F23966FAD23972496A6
:103EA0007FAD249725968FAD259727969FAD2797B1
:103EB0000E9491EC20E030E040EC5FE30E949BE543
:103EC00087FD17C2D701C601805A9541AF4FBF4F3A
:103ED0008AAB9BABACABBDAB9EA923969FAF2397A0
:103EE000AFA92496AFAF2497B8AD2596BFAF25975D
:103EF00027960FAF279780912001882309F4F9C1F5
:103F0000411451046104710441F422961FAE2297BA
:103F1000D22CE32CFEA0012FCFCEE0E1CE1AE7E2B7
:103F2000DE0AE108F108C418D508E608F708F7FC2E
:103F3000ECCFDFC10E94E381182F87FF02C00C94F1
:103F4000852886EC92E00E948932812F0E94BC84F1
:103F50000C94822860E080E50E94304281110C942C
:103F6000762881E40E940940882321F06091B404FE
:103F7000062F02C00FEF10E083E50E941442882351
:103F800049F00E949A3F8B016F3F710519F010F0C4
:103F90000FEF10E00093B4040C94762860E080E505
:103FA0000E94304281110C9476281092B4040C9433
:103FB00076288EE40E941442882311F40C9476280B
:103FC0000E949A3F60933A0370933B0380933C03B3
:103FD00090933D030C94762883E50E940940882342
:103FE00031F060E083E50E943042809378090E94BE
:103FF00065338BEA96E00E948932809178098823A4
:1040000069F176E9E72E72E0F72E00E010E020E09B
:104010008091780990E0A0E0B0E0002E04C0B69551
:10402000A795979587950A94D2F780FF0EC0DD2457
:10403000D394D20E222319F08CE20E9426C8F701F5
:10404000859194910E9489322D2D0F5F1F4F32E090
:10405000E30EF11C05301105D9F604C087EA96E09D
:104060000E9489328AE00E9426C80C94762883E553
:104070000E941442882381F00E94AA3F282F30E03A
:104080002D33310524F480931F010C9476288CE3A2
:1040900080931F010C9476280E946533C0901F0105
:1040A000D12CE12CF12C80EA96E00E9489324AE082
:1040B000C701B6010E942DC88AE00E9426C80C9450
:1040C00076288091780983FF02C00C94762883E5D6
:1040D0000E941442882379F00E94D23F0E948CED06
:1040E0006337710514F063E770E0709338036093F1
:1040F00037030E9484820E94DB8681110C9476280B
:104100000E9413AB0E943ED40C94762880917809CB
:1041100083FF02C00C94762883E50E94144288AF86
:10412000811107C082E50E941442882311F40C9487
:1041300076280E94D23F0E948CED6337710514F0FF
:104140000C94002B70933803609337030E94848291
:104150000E94DB8681110E948B376091370370913A
:104160003803072E000C880B990B0E94A2E52091C2
:1041700033033091340340913503509136030E944C
:1041800059EE181614F00C94312A81E996E060E09B
:104190000E9407AE81E0809320011AA61BA61CA6F0
:1041A0001DA619AE1AAE1BAE1CAE1EA222961FAEE5
:1041B00022974CE323964FAF23975CE124965FAFA1
:1041C000249786E425968FAF2597C12CD12C50E8F3
:1041D000E52E6FEBF62E91E09DAF812C912C5401D2
:1041E0006091370370913803072E000C880B990BF0
:1041F0000E94A2E5162F072F782E692E9601A7019F
:104200000E949BE5882311F40C943E2A20913303ED
:10421000309134034091350350913603A8AD612F9E
:10422000702F872D962DA1110C94352A0E949BE5A5
:10423000881F8827881F8EA30E947B626B017C01E8
:10424000DC01CB0129AD3AAD4BAD5CAD821B930BCC
:10425000A40BB50BB7FD02C00C94442A0E94E133B5
:104260000E947B6260933E0370933F038093400300
:1042700090934103909133039EA7A0913403AAAB7E
:10428000B0913503BEABE0913603EFAB292F3A2F47
:104290004B2F5E2F612F702F872D962D0E9491EC52
:1042A0001B012C0120E030E0A9010E9459EE87FF9C
:1042B00004C057FA509457F8509481149104A10403
:1042C000B10411F00C94882A20E030E040E85FE36C
:1042D000C201B1010E949BE587FF02C00C94792ABC
:1042E0003EA131110C94982A8091200181110C94E7
:1042F000E62A80912001882309F4F8C60E943ED462
:10430000F5C683E50E941442882309F4EFC60E9493
:10431000AA3F182F90E0CD970CF01CE310932E03CA
:104320000E947B626B017C01212F30E0A8EEB3E09C
:104330000E9445ECC60ED71EE81EF91EC0922A0345
:10434000D0922B03E0922C03F0922D03CFC60E9453
:10435000EE860E9413AB0E94F79F0E94258268EEB2
:1043600073E080E090E00E94653260E088E796E0CC
:104370000E9407AEBBC68091D8038F7E8062809377
:10438000D803B4C683E50E941442882399F00E94A2
:10439000D23F20E030E04AE754E40E9401E60E9468
:1043A00093ED60931B0170931C0180931D0190930A
:1043B0001E019CC680914C0384FF02C00C94042B08
:1043C00080914E0387FF02C00C94042B80914F0311
:1043D000837011F00C94042B0E94F79F87C683E52D
:1043E0000E940940882309F481C60E947B62609381
:1043F0003E0370933F0380934003909341030E94D8
:10440000D23F20E030E04AE754E40E9401E60E94F7
:1044100093ED609326037093270380932803909372
:10442000290364C60E94E38187FD60C690914C0316
:1044300094FD04C090914E0397FF0AC034E2C32E4E
:1044400032E0D32E49E7E42E49E0F42E10E009C013
:1044500090914F03937091F7682F81E00E941EB4F2
:1044600045C6D6018D916D010E941442882309F43E
:1044700059C0133009F04FC00E94D23F4B015C017C
:1044800020E030E040EA51E40E949BE587FF3AC01B
:10449000A50194016091990970919A0980919B09F5
:1044A00090919C090E941AED2B013C019B01AC01EB
:1044B0006091A9097091AA098091AB099091AC090A
:1044C0000E9401E66093A9097093AA098093AB0941
:1044D0009093AC096091A8047091A9048091AA04FA
:1044E0009091AB040E94A0E5A30192010E9401E615
:1044F0000E9493ED6093A8047093A9048093AA048A
:104500009093AB048092990990929A09A0929B098A
:10451000B0929C0907C00E94D23FF701648B758B53
:10452000868B978B1F5FF4E0EF0EF11C143009F0BF
:1045300098CF0E94C39FDAC50E940B80D7C5809197
:10454000510390915203009759F0DC012C912223E2
:1045500039F02091650F2111C9C50E94E6ADC6C58D
:104560000E943ED4C3C5009151031091520394E0C0
:10457000F12C40E0915021F1F8018081282F2B7F10
:10458000213421F421812133D9F407C08035C1F4CD
:10459000818180538A3048F013C0813421F0853402
:1045A00021F441E002C0FF24F39498012E5F3F4FB5
:1045B00089012F5F3F4FF80180818032C9F3DACF44
:1045C00041110E946533FF2021F08EE894E00E94A3
:1045D0008932C8010E9431C989C520937003209394
:1045E0006F030E940F5F82C560E070E083E50E9468
:1045F00021428C011127023011053CF00E946133E9
:104600008CE694E00E94893271C588E40E941442CD
:104610008823A9F00E94CE3F8A3A91053CF085306C
:10462000F1E09F072CF084E091E002C08AEA90E07C
:10463000F801EE0FFF1FEE5DFC4F9183808386E44F
:104640000E941442882381F00E94CE3F97FD07C04C
:104650008F3F910529F024F08FEF90E001C080E0BA
:10466000F801E05EFC4F808382E40E9414428823BC
:1046700009F43CC50E94CE3F8530910534F0843763
:1046800091052CF083E790E002C085E090E0000FF8
:10469000111FF801E45EFC4F9183808327C50E94BF
:1046A000E38187FD23C5F4E2EF2EF2E0FF2E09E758
:1046B00019E0A9E8CA2EA9E0DA2ED7018D917D0173
:1046C0000E940940882359F00E94D23F0E9493ED36
:1046D000F80160837183828393830E947C9F0C5FC7
:1046E0001F4FC016D10649F701C50E94E38187FD1F
:1046F000FDC4E4E2EE2EE2E0FE2E09E719E0D70168
:104700008D917D010E940940882339F00E94D23F9B
:10471000F80164A375A386A397A30C5F1F4FF9E06C
:1047200009381F0761F7E2C480914D0387FD91C7E7
:1047300080914E038E7009F08CC7D1C780914C03D5
:1047400081FF02C00C94972B80914D0381FF02C022
:104750000C94972B80914E038C7011F00C94972B36
:10476000C5C470E1E72E73E0F72E10E088E5810FF5
:104770000E940940882359F00E94D23FD7016D93CF
:104780007D938D939C931397812F0E9485A41F5F27
:10479000B4E0EB0EF11C133049F70C94451940902E
:1047A0004D0F50904E0F60904F0F7090500F209112
:1047B0000301309104014091050150910601C301AC
:1047C000B2010E9492EC6EA37FA388A799A7809064
:1047D000510F9090520FA090530FB090540F209112
:1047E0000701309108014091090150910A01C5016A
:1047F000B4010E9492EC6AA77BA78CA79DA7C090EA
:10480000550FD090560FE090570FF090580F209111
:104810000B0130910C0140910D0150910E01C70127
:10482000B6010E9492EC6EA77FA788AB99AB20914E
:104830000F01309110014091110150911201C301FB
:10484000B2010E9492EC2B013C01209113013091A6
:1048500014014091150150911601C501B4010E9447
:1048600092EC4B015C0120911701309118014091AD
:10487000190150911A01C701B6010E9492EC6B0117
:104880007C010E94653387E294E00E94893283E5CF
:104890000E940940882321F00E94BE3F80930201BC
:1048A00080910201882319F08CED9AE202C082EB1C
:1048B00095E00E9489328FE194E00E9489324EA1F6
:1048C0005FA168A579A58FE59CE00E9430334AA5D9
:1048D0005BA56CA57DA589EF99E20E9430334EA5BA
:1048E0005FA568A979A982EF99E20E94303388EF29
:1048F0009FE10E94893287E194E00E948932B301EE
:10490000A2018FE59CE00E943033B501A40189EF3C
:1049100099E20E943033B701A60182EF99E20E942A
:1049200030338AE00E9426C8E1C383E50E94144226
:10493000882331F00E94CE3F909322018093210181
:1049400080914C0390914D03A0914E03B0914F0381
:10495000892B8A2B8B2B09F0C9C36091210170919F
:10496000220183E194E00E94413385E20E9426C83F
:104970008AE00E9426C8BAC30E94E381F82E87FD10
:10498000B5C383E50E9414420F2D0F2C000C110BB0
:10499000882309F10E94CE3FF801EE0FFF1FE0507F
:1049A000FF4F91838083000F111F000F111F0E5CBA
:1049B0001E4FBC01990F880B990B0E94A2E52AE0BB
:1049C00037ED43E25CE30E9401E6F8016083718306
:1049D000828393838BC30E94653385E40E9426C83B
:1049E00080E38F0D0E9426C8000F111FF801E050D0
:1049F000FF4F608171818BE094E00E94413385E23A
:104A00000E9426C88AE00E9426C870C380E50E94E2
:104A10000940882309F46AC360E070E080E50E94E1
:104A20002142F82E6FEF7FEF83E50E9421428C0137
:104A30000196039708F05AC3F7FC58C38F2D0E94C4
:104A40009EC5882339F00E9461338CEF93E00E9469
:104A500089324CC30E94E79F60E08F2D0E94C7C23D
:104A60000F3FFFEF1F0731F00130110571F000E03B
:104A700010E00DC08F2D0E946FC231E020E0892B25
:104A800009F030E0032F122F02C001E010E08F2D5B
:104A90000E946FC28017910709F428C30E94E13376
:104AA000F6CF80E50E940940882309F41FC30E94C5
:104AB000CE3F8C01892B09F07FC083E50E9409401D
:104AC000882389F00E94CE3F8F3F2FEF920729F471
:104AD0008AED9DE00E94C3C509C3BC018AED9DE03B
:104AE0000E9472C603C30E94653360E070E084EFE9
:104AF00093E00E9441338091DC0D28E532E06901AA
:104B0000C81AD10887FDD394CC0CDD1CCC0CDD1C5D
:104B10000D2C000CEE08FF088091DB0D28E830E03A
:104B20004901881A910887FD9394880C991C880C78
:104B3000991C092C000CAA08BB088091DA0D8F3F44
:104B4000C1F090E0FC01EE0FFF1F8E0F9F1FFC01D4
:104B5000EB54F24F2181328183E0220F331F8A957B
:104B6000E1F794E0369527959A95E1F72E5F3F4F50
:104B700002C020E030E02F5F3F4FC901330FAA0B86
:104B8000BB0B9C01AD01281939094A095B09A4EB4B
:104B9000B0E00E9432ECA7019601281939094A09B0
:104BA0005B090E9413ECB9018EE791E10E94413349
:104BB0008AE00E9426C89AC20E946133B80185EF3C
:104BC00093E00E94413385EE93E00E9489328EC2C9
:104BD0008AE50E941442811106C083E50E941442B6
:104BE000882309F44BC00E94D23F20E030E040E02F
:104BF00050EC0E949BE587FDF9C50E94D23F20E062
:104C000030E040E050E40E9459EE18160CF4E8C57C
:104C10000E94D23F6B017C0180914B0F8695869557
:104C200080FF22C020919509309196094091970903
:104C300050919809C701B6010E9401E60E948CEDCF
:104C400020910E0330910F03260F371F30930F036F
:104C500020930E0320910C0330910D03620F731FFC
:104C600070930D0360930C0380E50E940940882334
:104C700009F4C2C50E94BE3F8111BEC580914E039A
:104C800087FDE0C580914F03837009F0DBC50E946A
:104C900065334091610F5091620F6091630F709185
:104CA000640F86EC93E00E9430338AE00E9426C8AD
:104CB0001DC260E085E40E943042811173C080E52E
:104CC0000E940940882351F00E94D23F6093A90DB1
:104CD0007093AA0D8093AB0D9093AC0D89E40E9464
:104CE0000940882381F00E94D23F2CEA35EC47E24C
:104CF0005EE30E9401E66093AD0D7093AE0D80936C
:104D0000AF0D9093B00D84E40E940940882381F098
:104D10000E94D23F2CEA35EC47E25EE30E941AED96
:104D20006093B10D7093B20D8093B30D9093B40D59
:104D30000E9465334091A90D5091AA0D6091AB0D71
:104D40007091AC0D82EC93E00E9430332CEA35EC8C
:104D500047E25EE36091AD0D7091AE0D8091AF0DB5
:104D60009091B00D0E941AEDAB01BC018EEB93E067
:104D70000E9430332CEA35EC47E25EE36091B10DDE
:104D80007091B20D8091B30D9091B40D0E9401E627
:104D9000AB01BC018AEB93E00E9430338AE00E94B1
:104DA00026C8A4C10E94613388EA93E00E94893238
:104DB0009DC183E50E940940182F882371F00E944D
:104DC000D23F0E948CED709337016093360121E051
:104DD000672B09F020E02093C50480E50E9409407C
:104DE000882359F02091360130913701232B11F09F
:104DF0000E94BE3F8093C50479C1111177C10E9402
:104E0000653385E993E00E9489328091C504882347
:104E100019F086EF9AE102C08CE793E00E94893294
:104E2000609136017091370184E893E00E9441332C
:104E300080E893E00E94893259C10E94157A56C1D8
:104E400080914C0F81110C94451981E00E949D9E28
:104E50000C9445190E94524049C16FEF7FEF89E4DD
:104E60000E942142182F6FEF7FEF8AE40E942142B7
:104E7000082F8AE50E940940F82E811105C081E5BE
:104E80000E940940D82E01C0D12C17FD06C007FD95
:104E900004C0F11009C0D11007C00E9461338CE535
:104EA00093E00E94893222C1173010F4073038F0A5
:104EB0000E94613388EF96E00E94893217C1E12E8B
:104EC000110FFF08002E000C110B0E94D23FDD20B5
:104ED00099F027E02E9DF0012F9DF00D1124E00F99
:104EE000F11FEE0FFF1FEE0FFF1FE85BFD4F20814C
:104EF00031814281538103C020E030E0A901A7E065
:104F0000AE9DF001AF9DF00D11240E0F1F1F000F7D
:104F1000111F000F111F085B1D4F0E9492ECD8015A
:104F20006D937D938D939C931397E0C00E945DD405
:104F30008111DCC007E812E0E8E8F4E0FFA3EEA38B
:104F40009E012F5F3F4F190193E9C92E92E0D92EA0
:104F50007901F8016591759185919491AEA1BFA1F8
:104F60008D909D90AD90BD90BFA3AEA3A50194017F
:104F70000E9491EC2B013C01F701608371838283D5
:104F8000938320E030E040EA51EC0E9459EE87FD27
:104F90000AC020E030E040EA51E4C301B2010E94BF
:104FA0009BE518162CF4F601849118160CF450C4E5
:104FB000D7018D909D90AD90BD907D0120E030E0B7
:104FC00040EA51ECC501B4010E9459EE87FD4BC483
:104FD00020E030E040EA51E4C501B4010E949BE5C5
:104FE00018160CF04EC43FC40E94E2A57FC00E9478
:104FF00029C07CC00E9437B979C061E083E50E9476
:105000003C4291E089270E94AB5F70C081E08093B1
:1050100047020E9452BA10924702882309F466C0E0
:105020000E94653385E193E00E9489325FC08091E0
:105030004E0387FD50C480914F03837009F04BC429
:105040004091590F50915A0F60915B0F70915C0F16
:1050500086E093E00E94303340915D0F50915E0FE7
:1050600060915F0F7091600F89EF99E20E94303379
:105070004091610F5091620F6091630F7091640FC6
:1050800082EF99E20E9430338AE00E9426C82EC047
:1050900081E08093D7031092650F60E083E50E9462
:1050A0003C42811123C00E94127E20C00E944FD436
:1050B0001DC00091D9031091DA030023B9F00E94BA
:1050C000653384E50E9426C8B8017727072E000CB7
:1050D000880B990B0E949AC880E20E9426C888EA31
:1050E00093E00E94893202C00E944FD4E0914602B0
:1050F000F0E0EA5BF14F8081882339F086EC92E0A2
:105100000E9489328AE00E9426C82696FFAD269723
:10511000F093DC03CA5BDF4F0FB6F894DEBF0FBE1F
:10512000CDBFDF91CF911F910F91FF90EF90DF9056
:10513000CF90BF90AF909F908F907F906F905F9037
:105140004F903F902F9008950E94E79F30907103F9
:1051500080E00E94652F0E94825C81E08093700352
:105160000E940F5F88E50E940940182F89E50E9480
:105170000940F82E8AE50E9409401F1117C118172F
:1051800011F0F12E13C1FF24F39411E001E080E14E
:10519000E8E8F4E0A7ECB3E001900D928A95E1F71E
:1051A00082E50E941442882369F00E94D23F4B019D
:1051B0005C0120E030E0A9010E949BE5882309F40E
:1051C0003EC006C0812C912C80EAA82E80E4B82E27
:1051D000111102C0FF20E9F180914B0F82FD09C03F
:1051E0006091900470919104809192049091930445
:1051F00003C060E070E0CB01A50194010E9492EC35
:105200006093CF037093D0038093D1039093D20324
:105210002091900430919104409192045091930414
:105220000E9459EE18165CF419821A821B821C82A5
:10523000BE016F5F7F4F8FEC93E00E949E5D112354
:1052400019F080E00E94A5A4FF2019F081E00E94DF
:10525000A5A4002309F499C080E00E94174380911F
:105260004B0F8370833051F060E089E497E00E9437
:1052700007AE0E9465338AE397E085C00E94535EC3
:105280008091900490919104A0919204B091930424
:105290008EA39FA3A8A7B9A72091590F30915A0FA9
:1052A00040915B0F50915C0F60E070E08AEE92E4F9
:1052B0000E9491EC4B015C016093C7037093C8039B
:1052C0008093C9039093CA0320915D0F30915E0FC4
:1052D00040915F0F5091600F60E070E08AEE92E4C1
:1052E0000E9491EC2B013C016093CB037093CC03A3
:1052F0008093CD039093CE032091610F3091620F84
:105300004091630F5091640F6EA17FA188A599A56C
:105310000E9491EC6093CF037093D0038093D103EC
:105320009093D20327E137EB41ED58EBC301B20173
:105330000E9459EE87FD1EC027E030E04BE653E4A3
:10534000C301B2010E949BE51816A4F027E137EBD8
:1053500041ED58EBC501B4010E9459EE87FD0AC02A
:1053600027E030E04BE653E4C501B4010E949BE521
:105370001816F4F460E089E297E00E9407AE0E94FC
:10538000653387E197E00E9489320E94535E8091E5
:105390006F0380937003832D0E94652F0E94695CC8
:1053A00083E0809323010E94A55FA0CE082FEFCE5B
:1053B00019821A821B821C829E012F5F3F4F690156
:1053C000EEA0FFA008A519A5A3019201C501B40193
:1053D0000E94BC5C82E00E94A5A4D7CF0E94DA4361
:1053E00085CE0E94E1330C94871C109250031093D9
:1053F000DC030E943ED47ACE88E50E9409408111E8
:105400005E9889E50E94094081115E988AE50E94B4
:105410000940882309F46ACE159868CE0E9413AB20
:105420000E943ED40C940C1EA5019401C701B60144
:105430000E9459EE181694F086E896E09F938F9399
:1054400086EB96E09F938F931F920E9440AE0F9041
:105450000F900F900F900F900C942D1E85E996E001
:10546000EDCF82E896E00C94C7200E949BE587FF71
:1054700002C00C9479211EA20C941C211C2D0D2D10
:105480007E2C6F2C0C941C21D701C60188519C4F97
:10549000AF4FBF4F89AF9AAFABAFBCAF80E00E94B8
:1054A000BC8482EB96E00E94893281149104A104AD
:1054B000B104B9F0D501C401805F984DAF4FBF4F23
:1054C000BC01CD016C197D098E099F0928EE33E0DE
:1054D00040E050E00E94F1EBCA01B9010E949AC875
:1054E00003C08FE30E9426C88AE00E9426C80C945D
:1054F0002E21FDAD46015701FF2311F40C947021BC
:1055000020E1820E27E2921EA11CB11C0C94702196
:1055100020E030E040E450E4C201B1010E9459EEC5
:10552000181614F00C947021460157010C94702148
:105530008AA59BA5ACA5BDA5892B8A2B8B2B71F0C9
:10554000D701C6012AA53BA54CA55DA5821B930BDF
:10555000A40BB50BB7FF02C00C9474212EA53AA979
:105560004EA95FA922966FAD229723967FAD239710
:1055700024968FAD249725969FAD25970E9491EC98
:1055800020E030E040EC5FE30E949BE587FF02C033
:105590000C947921D701C601805A9541AF4FBF4F76
:1055A0008AA79BA7ACA7BDA79EA522969FAF2297CF
:1055B000AAA92396AFAF2397BEA92496BFAF24977D
:1055C000EFA92596EFAF25970C94742181149104CF
:1055D000A104B10439F41DAEC12ED02EE72CF62C57
:1055E0000C94F020F0E1CF1AF7E2DF0AE108F108AD
:1055F000C818D908EA08FB08F7FCEDCF0C9479210C
:1056000063E770E00C94A2200E94E79F88E50E9467
:105610000940882331F05E9A80914B0F8E7F8093F2
:105620004B0F89E50E940940882331F05E9A8091F2
:105630004B0F8D7F80934B0F8AE50E940940882392
:1056400009F454CD159A80914B0F8B7F80934B0FAB
:105650004DCD83E50E941442882391F00E94D23FF1
:105660006093AD097093AE098093AF099093B00930
:105670006093B5097093B6098093B7099093B80900
:1056800080E50E941442882351F00E94D23F60932B
:10569000AD097093AE098093AF099093B00982E58C
:1056A0000E941442882351F00E94D23F6093B109B6
:1056B0007093B2098093B3099093B40984E50E9472
:1056C0001442882309F412CD0E94D23F6093B50999
:1056D0007093B6098093B7099093B80907CD4091AC
:1056E000AD095091AE096091AF097091B0098CE598
:1056F00094E00E9430334091B1095091B209609119
:10570000B3097091B40989E594E00E943033409167
:10571000B5095091B6096091B7097091B80986E54D
:1057200094E00E9430338AE00E9426C8DFCC82E4F5
:105730000E940940882351F00E9459B4609389095E
:1057400070938A0980938B0990938C0983E50E945A
:105750000940882351F00E94D23F6093B9097093A9
:10576000BA098093BB099093BC0984E50E94094063
:10577000882351F00E94D23F6093BD097093BE0907
:105780008093BF099093C0098AE40E94094088234E
:1057900009F4ACCC0E94D23F6B017C012AE037EDCA
:1057A00043E25CE30E9459EE87FD13C02AE939E920
:1057B00049E95EE3C701B6010E949BE518164CF06B
:1057C000C0929804D0929904E0929A04F0929B04BB
:1057D0008DCC0E94613387E394E00E94893286CCAD
:1057E000C12CD12CE12C10E4F12E16CAC12CD12CE5
:1057F000E12CB0ECFB2E10CAA70196016091610F5D
:105800007091620F8091630F9091640F0E9492ECEF
:105810006093610F7093620F8093630F9093640F96
:105820000E9465334091610F5091620F6091630F48
:105830007091640F85ED93E00E9430338AE00E94FE
:1058400026C81CCA82E50E940940811120CA4ECC9C
:10585000B7FAB094B7F8B094D7018D929D92AD92FB
:10586000BC921397A5CB0E9461338EE393E00E9414
:10587000893261E080E393E00E9407AE0E94929734
:1058800035CC0C5F1F4FBFEFCB1ADB0AE3E9F2E028
:10589000E017F10709F05DCB80E1E82E83E0F82EF8
:1058A00010E0F10181919191A191B1911F01F70156
:1058B00081939193A193B1937F01812F0E9485A43D
:1058C0001F5F133071F70E94A55F60E080E293E0F4
:1058D0000E9407AE0BCCF091590FFEA380905A0F97
:1058E00070905B0F60905C0F50905D0F40905E0F6A
:1058F00030905F0F2090600FC090610FD090620FCA
:10590000E090630FF090640F88E50E9414428823B2
:1059100061F10E94D23F5B018C0120E030E04BE658
:1059200053EC0E9459EE87FD0AC020E030E04BE6C0
:1059300053E4B501C8010E949BE5181694F46BEE80
:1059400070E083EF92E00E9441336BEE70E08EEEE8
:1059500092E00E9441338BE894E00E94893210E08B
:1059600005C0AEA28B2C702E612E11E089E50E943D
:105970001442882381F10E94D23F962EA72EB82E82
:10598000092F20E030E04BE653EC0E9459EE87FDF2
:105990000CC020E030E04BE653E4692D7A2D8B2DCE
:1059A000902F0E949BE5181694F46BEE70E08BED3F
:1059B00092E00E9441336BEE70E08EEE92E00E9426
:1059C00041338BE894E00E94893210E004C0592CE6
:1059D0004A2C3B2C202E8AE50E941442882339F160
:1059E0000E94D23F6B017C0120E030E040EA51ECA4
:1059F0000E9459EE87FD0AC020E030E040EA51E401
:105A0000C701B6010E949BE518168CF46CEE7FEF7F
:105A100089EC92E00E94413364E170E08EEE92E006
:105A20000E9441338BE894E00E9489325FCB1123BE
:105A300009F45CCB8EA1982DA72DB62D8093590F1C
:105A400090935A0FA0935B0FB0935C0F852D942D0C
:105A5000A32DB22D80935D0F90935E0FA0935F0FE7
:105A6000B093600FC092610FD092620FE092630F0B
:105A7000F092640F3BCBCF93C1E020E030E0A9016E
:105A80006091530370915403809155039091560394
:105A90000E949BE5811101C0C0E08C2FCF91089539
:105AA0004F925F926F927F928F929F92AF92BF922E
:105AB000CF92DF92EF92FF920F931F93CF93DF93DA
:105AC000EC0120915B0330915C0340915D035091A8
:105AD0005E03688179818A819B810E9491EC6B01D0
