:100000000C945B170C9485170C9485170C9485172A
:100010000C94963C0C94963C0C94963C0C94963C18
:100020000C9485170C9485170C9485170C948517E0
:100030000C9485170C946E6C0C9485170C94851792
:100040000C9485170C946E840C94EE6A0C948517AE
:100050000C94E8C30C94DEC30C9485170C9485179C
:100060000C9485170C9485170C9485170C948517A0
:100070000C9485170C9485170C9485170C94851790
:100080000C94EDC10C9485170C948517DFBAE2BA75
:10009000D5BAD9BAF9BAF9BAE6BAEABAF0BAF4BA3C
:1000A0001AC42AC43BC446C44EC465C452C465C401
:1000B00056C45AC465C460C4FBCFBACEF1CE37D0A3
:1000C000F1CEF1CEF1CEF1CEF1CEF1CEF1CEF1CE38
:1000D000F1CEF1CEF1CEF1CEF1CEF1CEF1CEF1CE28
:1000E000F1CEF1CEF1CEF1CEF1CEF1CEF1CEF1CE18
:1000F000F1CEF1CE31D0F1CEF1CEF1CEF1CEF1CEC6
:10010000F1CEF1CEF1CE0AD0F1CEF1CEF1CEF1CEDC
:10011000F1CEF1CEF1CEF1CEF1CEF1CE4ED0EECE8B
:1001200033D338D33DD347D375D375D351D359D3B4
:1001300061D36BD305A84CCDB2D44EB93836A902E1
:100140000C50B9918688083CA6AAAA2ABE000000D5
:10015000803F4E414E494E495459494E46CDCCCC34
:100160003D0AD7233C17B7D13877CC2B329595E68B
:10017000241FB14F0A000020410000C84200401C6B
:100180004620BCBE4CCA1B0E5AAEC59D7400407AB8
:1001900010F35A00A0724E18090010A5D4E8000010
:1001A000E87648170000E40B54020000CA9A3B00AE
:1001B0000000E1F505000080969800000040420F25
:1001C000000000A08601000000102700000000E8E9
:1001D00003000000006400000000000A00000000AE
:1001E000000100000000002C76D888DC674F08234F
:1001F000DFC1DFAE59E1B1B796E5E3E453C63AE6B5
:1002000051997696E8E6C28426EB898C9B62ED4094
:100210007C6FFCEFBC9C9F40F2BAA56FA5F49005E3
:100220005A2AF75C936B6CF9676DC11BFCE0E40D17
:1002300047FEF520E6B500D0ED902E03009435770B
:10024000050080841E080000204E0A000000C80C33
:10025000333333330F986E12831141EF8D2114899C
:100260003BE65516CFFEE6DB18D1844B381BF77CF6
:100270001D901DA4BBE424203284725E228100C93B
:10028000F124ECA1E53D2700000000000000000083
:10029000000000FFFFFFC502C002B902B202A402C3
:1002A00020573A00434F4D4D554E49434154494F15
:1002B0004E0044525952554E004552524F5253002F
:1002C000494E464F004543484F006F6B003F5A2050
:1002D0006F7574206F662072616E67652028003F1D
:1002E00059206F7574206F662072616E67652028D3
:1002F0002D0020746F20003F58206F7574206F66AA
:100300002072616E676520282D0050726F62652033
:100310004F6666736574205800454550524F4D2016
:100320004F4B0A004F666673657473204170706CA2
:10033000696564004572723A20546F6F206661727D
:100340002100546F6F206661722066726F6D20729B
:1003500065666572656E636520706F696E740A000C
:100360004D34323120696E636F7272656374207030
:100370006172616D657465722075736167650A00ED
:100380006469730043290A0061626C656420286D0A
:10039000696E2074656D702000436F6C6420657811
:1003A000747275646573206172652000496E7661B0
:1003B0006C69642065787472756465720A002064E3
:1003C0003A0020693A0020703A0050726F6265204E
:1003D0004F6666736574205A0050726F6265204FD5
:1003E00066667365745A3A2000206F7574206F66D4
:1003F0002072616E67650A0020536572766F200077
:1004000050726F7465637465642050696E0A0020D1
:10041000466C6F773A200046523A0020204D6178B2
:100420003A200020204D696E3A2000536F667420F8
:10043000656E6473746F70733A20005741524E4971
:100440004E4721204C6F77205A204A65726B206DF1
:100450006179206C65616420746F20756E77616EC0
:10046000746564207061757365732E0A00205400F2
:10047000205200416363656C65726174696F6E3A06
:100480002050004D31343520533C696E6465783E10
:10049000206F7574206F662072616E67652028304A
:1004A0002D31290A002F2F20004348414D4245524B
:1004B0005F54454D5045524154555245004D4F549F
:1004C000494F4E5F4D4F44455300544845524D41AE
:1004D0004C5F50524F54454354494F4E0041555480
:1004E0004F5245504F52545F53445F5354415455FB
:1004F000530050524F4D50545F535550504F52542B
:1005000000454D455247454E43595F504152534572
:100510005200434153455F4C494748545F4252495A
:100520004748544E45535300544F47474C455F4C42
:10053000494748545300534F4654574152455F5022
:100540004F574552004255494C445F504552434530
:100550004E54004C4556454C494E475F444154412A
:10056000005A5F50524F4245004155544F4C45563A
:10057000454C005052494E545F4A4F420050524F32
:100580004752455353004155544F5245504F5254D2
:100590005F54454D5000564F4C554D4554524943BC
:1005A00000454550524F4D0042494E4152595F4619
:1005B000494C455F5452414E5346455200534552B3
:1005C00049414C5F584F4E5F584F4646004649528E
:1005D0004D574152455F4E414D453A4D61726C69F0
:1005E0006E20322E302E352E332028476974487500
:1005F000622920534F555243455F434F44455F5551
:10060000524C3A68747470733A2F2F676974687526
:10061000622E636F6D2F4D61726C696E4669726DEB
:10062000776172652F4D61726C696E2050524F5424
:100630004F434F4C5F56455253494F4E3A312E303F
:10064000204D414348494E455F545950453A4C75F9
:1006500063792045585452554445525F434F554E97
:10066000543A3120555549443A63656465326132E4
:10067000662D343161322D343734382D39623132C0
:100680002D6335356336326633363766660A004C7D
:10069000756379204F46462E0042656420436F6F94
:1006A0006C696E672E2E2E00426564204865617469
:1006B000696E672E2E2E004D3131332053006F6648
:1006C000660044454255473A00256979202569640A
:1006D000202569682025696D20256973005072699D
:1006E0006E742074696D653A20004E6F204D6F76F0
:1006F000652E00436C69636B20746F2052657375BF
:100700006D652E2E2E004D65736820706F696E74B6
:100710002063616E6E6F74206265207265736F6C0A
:100720007665640A005A2050726F626520506173CA
:1007300074204265640A005A2050726F626520502E
:100740006173742042656400486F6D6520585920BC
:1007500066697273740A00486F6D652058592046A7
:100760006972737400536C6565702E2E2E0024F42C
:10077000D43050C38E20C2A24017828B7011127ADF
:10078000910D816CD90AA861E108C75866076151CB
:1007900043061E4B5D05C145A7041A411104093DDE
:1007A0009803713931034036DB0265339102D4304E
:1007B0005402802E1D02632CEE01752AC501B0285B
:1007C000A001102781018F2564012B244B01E02219
:1007D0003401AC211F018D200D01801FFC00841EFF
:1007E000ED00971DDF00B81CD200E61BC600201BE1
:1007F000BC00641AB200B219A8000A19A0006A1855
:100800009900D117910040178B00B516840031165E
:100810007E00B31579003A157300C7146F005814A1
:100820006A00EE1366008813630025135E00C7128A
:100830005B006C12570015125400C1115100701169
:100840004F0021114B00D61049008D104700461073
:10085000440002104200C00F4000800F3E00420FD3
:100860003C00060F3B00CB0E3800930E37005C0EA9
:100870003500270E3400F30D3200C10D3100900D0C
:100880003000600D2E00320D2D00050D2C00D90C0E
:100890002B00AE0C2900850C29005C0C2700350CC0
:1008A00027000E0C2600E80B2400C40B2400A00B2C
:1008B00023007D0B23005A0B2100390B2100180B5C
:1008C0002000F80A1F00D90A1E00BB0A1E009D0A5C
:1008D0001D00800A1D00630A1C00470A1B002C0A29
:1008E0001B00110A1A00F7091A00DD091900C409D2
:1008F0001900AB091900920917007B091800630958
:1009000017004C09160036091600200916000A09BE
:100910001500F5081500E0081400CC081400B8080C
:100920001400A4081400900813007D0812006B083E
:10093000130058081200460812003408110023085A
:1009400011001208110001081100F0071000E00763
:100950001000D0071000C0071000B0070F00A1075B
:10096000100091070E0083070F0074070F00650742
:100970000E0057070E0049070E003B070D002E071B
:100980000E0020070D0013070D0006070D00F906E5
:100990000C00ED060D00E0060C00D4060C00C806A5
:1009A0000C00BC060C00B0060C00A4060B00990657
:1009B0000C008D060B0082060B0077060B006C0600
:1009C0000B0061060A0057060B004C060A0042069F
:1009D0000A0038060A002E060A0024060A001A0633
:1009E0000A001006090007060A00FD050900F405C3
:1009F0000900EB050900E2050900D9050900D00549
:100A00000900C7050900BE050900B5050800AD05C8
:100A10000800A50509009C050800940508008C0540
:100A20000800840508007C050800740508006C05B2
:100A30000700650508005D050700560508004E051E
:100A40000700470507004005080038050700310585
:100A500007002A050700230507001C0506001605E8
:100A600007000F0507000805060002050700FB0444
:100A70000600F5040700EE040600E8040600E204A0
:100A80000700DB040600D5040600CF040600C904F5
:100A90000600C3040600BD040600B7040600B10446
:100AA0000500AC040600A6040600A00405009B0493
:100AB000060095040500900406008A0405008504DC
:100AC0000500800406007A04050075040500700422
:100AD00005006B04050066040500610405005C0464
:100AE000050057040500520405004D0405004804A4
:100AF0000500430405003E0404003A0405003504E3
:100B00000500300404002C0405002704040023041D
:100B100005001E0404001A04040016040500110454
:100B200004000D040400090405000404040000048A
:100B30000400FC030400F8030400F4030400F003C1
:100B40000400EC030400E8030400E4030400E003F1
:100B50000400DC030400D8030400D4030400D00321
:100B60000400CC030400C8030300C503030024F4FD
:100B700004D9201BC40C5C0E9804C4095F026507ED
:100B80007101F405F900FB04B30048048700C103B8
:100B900069005803550003034500BE023A00840271
:100BA000310053022A002902250004022000E4013A
:100BB0001C00C8011900AF0117009801140084013E
:100BC0001300710110006101100051010E0043017A
:100BD0000D0036010B002B010B0020010B0015014D
:100BE00009000C01090003010800FB000800F300E4
:100BF0000800EB000700E4000600DE000600D80055
:100C00000600D2000600CC000500C7000500C200A7
:100C10000500BD000400B9000400B5000400B100E7
:100C20000400AD000400A9000400A5000300A20018
:100C300003009F0004009B00030098000300950040
:100C4000020093000300900003008D0002008B005F
:100C50000300880002008600020084000300810077
:100C600002007F0002007D0002007B00020079008C
:100C7000020077000100760002007400020072009A
:100C80000100710002006F0002006D0001006C00A5
:100C900002006A00010069000200670001006600AE
:100CA00001006500010064000200620001006100B3
:100CB0000100600001005F0002005D0001005C00B7
:100CC00001005B0001005A000100590001005800BA
:100CD00001005700010056000100550001005400BA
:100CE00001005300000053000100520001005100B8
:100CF0000100500001004F0001004E0000004E00B6
:100D000001004D0001004C0001004B0000004B00B1
:100D100001004A00010049000100480000004800AD
:100D200001004700010046000000460001004500A8
:100D300000004500010044000100430000004300A2
:100D4000010042000000420001004100000041009B
:100D50000100400001003F0000003F0001003E0094
:100D600000003E0001003D0000003D0001003C008D
:100D700000003C0000003C0001003B0000003B0084
:100D800001003A0000003A0001003900000039007B
:100D90000100380000003800000038000100370072
:100DA0000000370001003600000036000000360069
:100DB000010035000000350000003500010034005E
:100DC0000000340000003400010033000000330054
:100DD0000000330001003200000032000000320049
:100DE000010031000000310000003100010030003E
:100DF000000030000000300001002F0000002F0034
:100E000000002F0000002F0001002E0000002E0027
:100E100000002E0001002D0000002D0000002D001C
:100E200000002D0001002C0000002C0000002C0010
:100E300000002C0001002B0000002B0000002B0004
:100E400000002B0001002A0000002A0000002A00F8
:100E500000002A00010029000000290000002900EC
:100E600000002900000029000100280000002800DF
:100E700000002800000028000000280001002700D2
:100E800000002700000027000000270000002700C6
:100E900001002600000026000000260000002600B9
:100EA00000002600010025000000250000002500AC
:100EB000000025000000250000002500010024009E
:100EC0000000240000002400000024000000240092
:100ED0000100230000002300000023000000230085
:100EE0000000230000002300000023000100220076
:100EF000000022000000220000002200000022006A
:100F0000000022000100210000002100000021005B
:100F1000000021000000210000002100000021004D
:100F20000100200000002000000020000000200040
:100F30000000200000002000000020000000200031
:100F400001001F0000001F0000001F0000001F0024
:100F500000001F0000001F0000001F0001001E0015
:100F600000001E0000001E0000001E0000003930BE
:100F700000003325000087190000B00F0000DB08D7
:100F80000000BD040000740200003F0100004E6537
:100F9000787420436F726E6572003F00446F6E6517
:100FA000004E65787400486F6D696E672058595A15
:100FB000005A2056616C756500496E646578205949
:100FC00000496E6465782058004C6576656C204356
:100FD0006F726E657273004661646520486569676B
:100FE00068740045646974204D6573680047323841
:100FF0000A473239004C6576656C204265640020F2
:1010000062797465733B2063726320004E6F2045E4
:101010004550524F4D2E0A00454550524F4D2064C9
:1010200061746173697A65206572726F722E0A004D
:101030002073746F7265642073657474696E67736E
:1010400020726574726965766564202800202863C3
:10105000616C63756C6174656429210A0020213D0F
:101060002000454550524F4D20435243206D697337
:101070006D61746368202D202873746F7265642914
:1010800020002053697A653A2000496E6465783AF9
:101090002000204D61726C696E3D563736290A007A
:1010A000454550524F4D2076657273696F6E206DC5
:1010B00069736D617463682028454550524F4D3DFA
:1010C00000454550524F4D20496E697469616C6905
:1010D0007A65640A0048617264636F6465642044E1
:1010E000656661756C742053657474696E677320EE
:1010F0004C6F616465640A003B200020204D383548
:10110000312058005A2D50726F6265204F66667309
:1011100065740020440020204D33303120500050B1
:1011200049442073657474696E67733A0020460001
:1011300020480020204D3134352053004D61746526
:101140007269616C2068656174757020706172618C
:101150006D65746572733A00204A00202047323969
:10116000205720490020204D343230205300417553
:10117000746F20426564204C6576656C696E673AD1
:101180000020204D323036205800486F6D65206FAA
:1011900066667365743A0020204D32303520420077
:1011A000416476616E6365643A20423C6D696E5FAE
:1011B0007365676D656E745F74696D655F75733EA9
:1011C00020533C6D696E5F66656564726174653E4F
:1011D00020543C6D696E5F74726176656C5F666504
:1011E0006564726174653E20583C6D61785F785F1C
:1011F0006A65726B3E20593C6D61785F795F6A6504
:10120000726B3E205A3C6D61785F7A5F6A65726BE3
:101210003E20453C6D61785F655F6A65726B3E009C
:1012200020204D323034205000416363656C65727C
:101230006174696F6E2028756E6974732F7332291B
:101240003A20503C7072696E745F616363656C3EF6
:1012500020523C726574726163745F616363656C94
:101260003E20543C74726176656C5F616363656CAB
:101270003E0020204D3230312058004D6178696D9C
:10128000756D20416363656C65726174696F6E2072
:1012900028756E6974732F7332293A002045002037
:1012A000204D3230332058004D6178696D756D20C6
:1012B0006665656472617465732028756E69747300
:1012C0002F73293A0053746570732070657220750E
:1012D0006E69743A0020204D3134392043203B2080
:1012E000556E69747320696E2043656C73697573FC
:1012F0000A0020286D6D290020204732312020204F
:10130000203B20556E69747320696E206D6D00005E
:1013100000FA430000FA430000A0400000C841006A
:1013200000A0420000A0420000C8430000D342F4E5
:10133000010000F401000064000000881300005365
:10134000544F505045442E20005072696E7465729F
:101350002073746F707065642064756520746F20ED
:101360006572726F72732E204669782074686520EA
:101370006572726F7220616E6420757365204D39DD
:10138000393920746F20726573746172742E20284D
:1013900054656D7065726174757265206973207231
:1013A000657365742E2053657420697420616674BA
:1013B00065722072657374617274696E67290A00C0
:1013C00021212053544F502063616C6C656420626E
:1013D000656361757365206F6620424C546F756359
:1013E00068206572726F72202D207265737461724D
:1013F000742077697468204D3939390A004F4646A0
:101400000A00466164652048656967687420004287
:101410006564204C6576656C696E6720004661697D
:101420006C656420746F20656E61626C6520426536
:1014300064204C6576656C696E670A00496E76615A
:101440006C6964206D6573682E0A0050726F626962
:101450006E6720506F696E740025532025692F2513
:10146000690050726F62696E67206D6573682070E5
:101470006F696E742000202844525952554E29003D
:10148000473239204175746F20426564204C65767F
:10149000656C696E67003F20284C2C522C462C420C
:1014A00029206F7574206F6620626F756E64732ECD
:1014B0000A00426164205A2076616C75650A004E0C
:1014C0006F2062696C696E65617220677269640A77
:1014D0000020746F6F206C6F6E6720657874727572
:1014E00073696F6E2070726576656E7465640A004C
:1014F00020636F6C6420657874727573696F6E20F9
:1015000070726576656E7465640A00627573793A07
:101510002070617573656420666F7220696E7075E6
:10152000740A00627573793A20706175736564207E
:10153000666F7220757365720A00627573793A205E
:1015400070726F63657373696E670A002121204BA7
:10155000494C4C2063617573656420627920746F17
:101560006F206D75636820696E61637469766520AC
:1015700074696D65202D2063757272656E742063C9
:101580006F6D6D616E643A20004E6F204368656335
:101590006B73756D2077697468206C696E65206E59
:1015A000756D6265722C204C617374204C696E6598
:1015B0003A2000636865636B73756D206D69736DA8
:1015C000617463682C204C617374204C696E653AB9
:1015D00020004C696E65204E756D626572206973DE
:1015E000206E6F74204C617374204C696E65204EC0
:1015F000756D6265722B312C204C617374204C69BF
:101600006E653A20004D31313000506C6561736574
:10161000205265736574005052494E54455220481B
:10162000414C5445440025533A202553004B494C26
:101630004C45442E20005072696E746572206861BA
:101640006C7465642E206B696C6C28292063616C56
:101650006C6564210A006563686F3A004572726FB9
:10166000723A0042696C696E656172204C657665FC
:101670006C696E6720477269643A0A00205A3A0022
:1016800020593A00687474703A2F2F6D61726C693A
:101690006E66772E6F726700322E302E352E330035
:1016A0002020506C616E6E6572427566666572428E
:1016B000797465733A20002046726565204D656D2A
:1016C0006F72793A2000436F6D70696C65643A20DF
:1016D0004A756C20323720323032300A00204C619B
:1016E000737420557064617465643A20323032300E
:1016F0002D30332D3331207C20417574686F723A60
:10170000202870616469632C204C756379290A0074
:10171000322E302E352E330A004D61726C696E0008
:1017200020536F6674776172652052657365740A21
:1017300000205761746368646F6720526573657435
:101740000A002042726F776E206F757420526573A5
:1017500065740A002045787465726E616C2052656C
:101760007365740A00506F77657255700A002553CF
:1017700020256320256320256320256300656E6492
:1017800073746F7073206869743A2000FFFFFFFF65
:10179000EFFFFFFFFFFFFFFFFFFFFFEFEFFFFFFF89
:1017A000FFFFFFFFFFFFE7DFFFFFFFFFFFFFFFFF81
:1017B000FFE7DFFFFFFFFFFFFFFFFFFFE3DFFFFFAD
:1017C000FFFFFFFFFFFFFFF3CFFFFFFFFFFFFFFF65
:1017D000FFE1E1CFFFFFFFFFFFFFFE78000003DD29
:1017E000FFFFFFFFFEFF807E0001EEFFFFFFFFFE19
:1017F0007DCFFC0000F77FFFFFFFFF8E060000009B
:101800007BBFFFFFFFFFC0000000007DDFFFFFFF89
:10181000FFFC01FE00003EE7FFFFFFFFFFFFFC00B3
:10182000031F73FFFFFFFFFFFFF800018F81FFFF22
:10183000FFFFFFFFE0000083F9FFFFFFFFFFFF0056
:10184000FC0000F0FFFFFFFFFFE00FFFC00000FF04
:10185000FFFFFFFE03FFFFC00000FFFFFFFFFFFFD2
:10186000FFF9000000FFFFFFFFFFFFFFFC0007C0C4
:10187000FFFFFFFFFFFFFFFF0007E0FFFFFFFFFF8E
:10188000FFFFFFE007F1FFFFFFFFFFFFFFFFFC0788
:10189000F9FFFFFFFFFFFFFFFFFF03F9FFFFFFFF60
:1018A000FFFFFFFFFF83F9FFFFFFFFFFFFFFFFFFCA
:1018B000C3FFFFFFFFFFFFFFFFFFFFE1FFFFFFFF92
:1018C000FFFFFFFFFFFFF0BFFFFFFFFFFFFFFFFF77
:1018D000FBF83FFFFFFFFFFFFFFFFFF9F83FFFFFB0
:1018E000FFFFFFFFFFFF7EF0FFFFFFFFFFFFFFFF98
:1018F000FF8E03FFFFFFFFFFFFFFFFFFE01FFFFF64
:10190000FFFFFFFFFFFFFFFFFFFFFFFFFFFFFFFFE7
:10191000FFFFFFFFFFFFFFFFFFFFFFFFFFFFFF7F57
:10192000FFFFFFFF00007FFFFFF87FFFFFFFFF804B
:10193000007FFFFFE07FFFFFFFFFC3FCFFFFFFF81B
:10194000FFFFFFFFFFC3FCFFFFFFF8FFFFFFFFFFED
:1019500087FDFFFFFFF1FFFFFFFFFF87FFFFFFFF97
:10196000F1FFFFFFFFFF0FE7F30FFC23FC3FFFFF3B
:10197000FF0FEF8007F003F01E007FFE1FCF81876F
:10198000C787C70C007FFE001FC7C78FC79F0F0CFC
:10199000FFFE001F878F1F8F1F0F1FFFFC3F9F8FB2
:1019A0008F1F8E001E3FFFFC7F3F0F1E3F1E3FFE1E
:1019B0003FFFF87FFF1F1C3F1C7FFC7FFFF8FFFFEE
:1019C0001E1C7E1C7FFC7FFFF0FFCE3E3C7E3C7FDA
:1019D000B8FFFFF0FF9E3C387C387E78FFFFE1FFC8
:1019E0003C7C787C783CF1FFFFE1F838787810187F
:1019F00001F1FFFF000060203C007C07807FFFFFBB
:101A0000FFFFFFFE1FFE1FFFFFFF1FFFFFFFFFFF88
:101A1000FF600000000001FF400000000000FF80A8
:101A200000000000007F83CF00000C303F87FF8064
:101A3000000C301F867980000C000F8C30C7838C1F
:101A400030E78C30CFC7CC31F38C30DCECEC33B9E1
:101A50008C30D86C6C33198C30D06C0C33198C30C2
:101A6000D86C0C33198C30DC6C0E3B198C30CF7C6D
:101A7000079F198C30C77C038F19400000000000BD
:101A800002600000000000061FFFFFFFFFFFF800DC
:101A900000000100000001000080005555550000C5
:101AA00000400033333300AAAA2A004992240000E0
:101AB000002000C7711C0099991900D145170055E5
:101AC0005515003BB11300244912001111110000FB
:101AD0000010000F0F0F00E3380E0043790D00CC0B
:101AE000CC0C00C3300C00E8A20B0064210B00AA50
:101AF000AA0A00703D0A009DD80900427B090092A5
:101B0000240900DCD308008888080010420800007F
:101B1000000800F0C10700878707007550070071B3
:101B20001C07003EEB0600A1BC060069900600669B
:101B3000660600703E06006118060017F405007482
:101B4000D105005BB00500B290050062720500553A
:101B500055050078390500B81E0500050505004E3D
:101B6000EC040087D40400A1BD040090A704004940
:101B7000920400C17D0400EE690400C756040044CD
:101B80004404005C320400082104004110040000F9
:101B90000004003FF00300F8E0030026D20300C376
:101BA000C30300CCB503003AA803000A9B03003826
:101BB0008E0300C08103009F750300D069030050AD
:101BC0005E03001D53030034480300913D030033BE
:101BD00033030016290300381F0300971503003054
:101BE0000C0300030303000BFA020049F10200BAE0
:101BF000E802005CE002002DD802002DD00200595E
:101C0000C80200B0C0020031B90200DAB10200AA75
:101C1000AA0200A0A30200BC9C0200FA9502005C8C
:101C20008F0200DF88020082820200457C020027CA
:101C300076020027700200436A02007C640200D032
:101C40005E02003F590200C8530200FFFDFCFAF893
:101C5000F6F4F2F0EEECEAE9E7E5E3E1E0DEDCDA07
:101C6000D9D7D5D4D2D0CFCDCBCAC8C7C5C3C2C0AF
:101C7000BFBDBCBAB9B7B6B4B3B2B0AFADACAAA928
:101C8000A8A6A5A4A2A1A09E9D9C9A999897959478
:101C90009392908F8E8D8B8A8988878684838281A8
:101CA000807F7E7D7B7A79787776757473727170B8
:101CB0006F6E6D6C6B6A69686766656463626160AC
:101CC0005F5E5D5C5B5A5958585756555453525194
:101CD00050504F4E4D4C4B4A4A4948474646454462
:101CE00043424241403F3E3E3D3C3B3B3A3938381F
:101CF00037363535343332323130302F2E2E2D2CCD
:101D00002B2B2A292928272726252524232322216E
:101D10002120201F1E1E1D1C1C1B1B1A1919181800
:101D2000171616151514131312121111100F0F0E8A
:101D30000E0D0D0C0C0B0A0A090908080707060608
:101D4000050504040303020201000054656D70657B
:101D50007261747572650050726F6265205A204F0F
:101D60006666736574004D61696E005072656865E2
:101D7000617420504C4120456E6400507265686566
:101D8000617420504C412042656400507265686562
:101D90006174204142532042656400507265686559
:101DA00061742041425320456E6400436F6F6C6440
:101DB0006F776E0050726568656174204142530010
:101DC0005072656865617420504C410046616E2018
:101DD0005370656564004E6F7A7A6C6500466C6F6F
:101DE0007700436F6E66696775726174696F6E0024
:101DF0004F6666004F6E004D6F74696F6E004175DF
:101E0000746F20486F6D650042696C696E65617220
:101E1000204C6576656C696E6700457874727564F0
:101E2000657273004C75637900323032302D303377
:101E30002D333100546865726D6973746F7273006D
:101E4000426F61726420496E666F005072696E74F1
:101E5000657220496E666F0041626F757420507222
:101E6000696E7465720054756E6500496E666F2008
:101E700053637265656E00536F667420456E6473BC
:101E8000746F7073004D38340044697361626C651F
:101E9000205374657070657273004732380A4D3490
:101EA0003820503130004D34382050726F62652038
:101EB000546573740047323800202D20496E7661D6
:101EC0006C6964206578747275646572206E756DD6
:101ED00062657220210A00544845524D414C2052FF
:101EE000554E4157415900546865726D616C2052DE
:101EF000756E61776179004572723A204D41585490
:101F0000454D50004D415854454D502074726967FD
:101F10006765726564004572723A204D494E5445BA
:101F20004D50004D494E54454D50207472696767BD
:101F30006572656400202F002042403A0020403A3C
:101F40000070012C0190012701B0012201C0011D88
:101F500001F00118011002130130020E01600209A4
:101F60000190020401C002FF000003FA004003F5E3
:101F7000008003F000D003EB002004E6007004E1D1
:101F800000E004DC004005D700C005D2004006CDCB
:101F900000D006C8008007C3003008BE00F008B9B2
:101FA00000C009B400B00AAF00B00BAA00D00CA565
:101FB00000000EA000500F9B00C010960050129120
:101FC0000000148C00C0158700B0178200B0197D86
:101FD00000D01B7800001E730040206E0090226924
:101FE00000F024640040275F0090295A00E02B5540
:101FF00000102E500020304B0010324600E03341DC
:102000000090353C001037370070383200A0392D71
:1020100000B03A2800A03B2300603C1E00103D1990
:1020200000903D1400103E0F00703E0A00C03E05B7
:1020300000003F0000403FFBFF803FF6FFC03FF144
:10204000FF656E7175657565696E672022004D3399
:1020500030332055312045256920532569005049EA
:1020600044204175746F74756E65202A0050494490
:102070002D44202A005049442D49202A005049442B
:102080002D50202A0020082046616374002008207B
:102090004D6178002008204D696E004175746F74A1
:1020A000656D70004573746570732F6D6D005A73A4
:1020B000746570732F6D6D005973746570732F6D37
:1020C0006D005873746570732F6D6D005374657077
:1020D000732F6D6D001FE0201020102010102010B5
:1020E000202010201030300840048003001FE03F03
:1020F000F03FF03FF01FE01FE03FF03FF03FF00FF8
:10210000C0078003003FFFF038007030FC3020FC37
:10211000102078102030102C00D02E31D02F7BD002
:102120002F7BD02E31D02C00D020301020781020E2
:10213000FC1030FC303800703FFFF03FFFF03800FB
:10214000703186302387102787902F87D02F03D0B8
:102150002030102078102078102030102F03D02F3E
:1021600087D02787902387103186303800703FFF53
:10217000F01FFFF81FFFF80410400208200208209B
:102180000410400820801041001041000820800405
:1021900010400000001FFFF81FFFF8F80180000C3E
:1021A000480080001243C38CD00271249267CC4156
:1021B000249E40024924904012FBB3CEE00C202024
:1021C00020202020200000FE0003FF8007C7C0075A
:1021D00001E00000E00000F00000700400700E005C
:1021E000701F00703F80F00E00E00F01E007C7C0D5
:1021F00003FF8000FE0000FE0003FF8007C7C00F42
:1022000001E00E00E03F80F01F00700E007004003F
:10221000700000700000F00000E00701E007C7C098
:1022200003FF8000FE000E000E000E000E000E00E8
:102230000E000E000E007FC03F801F000E00040045
:1022400004000E001F003F807FC00E000E000E0035
:102250000E000E000E000E000E00FFFFFF7F80FF3D
:10226000C0FFC0FFC07F807F80FFC0FFC0FFC03FB6
:10227000001E000C0000006B4300006B4300007A5E
:10228000430000484200004842000080400202042F
:102290000000A0400000A040000000406F70656E8C
:1022A00000545249474745524544007A5F6D696E74
:1022B00000795F6D696E00785F6D696E00526570C0
:1022C0006F7274696E6720656E6473746F702073CB
:1022D00074617475730A00486F6D696E672046619A
:1022E000696C6564005761726E696E673A20486F69
:1022F0006D696E672042756D702044697669736FF1
:1023000072203C20310A0053657474696E67732033
:1023100053746F726564202800206D61783A200044
:10232000206D696E3A20004361703A005265736512
:102330006E643A2000452025530023646566696E6B
:10234000652044454641554C545F004B6420004B8A
:102350006920004B702000504944204175746F740F
:10236000756E652066696E697368656421205075B5
:102370007420746865206C617374204B702C204B42
:102380006920616E64204B6420636F6E7374616EAC
:1023900074732066726F6D2062656C6F7720696E52
:1023A000746F20436F6E66696775726174696F6ED2
:1023B0002E680A00504944204175746F74756E652B
:1023C000206661696C6564212074696D656F757440
:1023D0000A000A20436C61737369632050494420EA
:1023E0000A00204B643A2000204B693A2000204B21
:1023F000703A20002054753A2000204B753A200096
:1024000020643A200020626961733A2000504944F8
:10241000204175746F74756E652073746172740AEF
:1024200000504944204175746F74756E6520666173
:10243000696C6564212054656D7065726174757294
:102440006520746F6F20686967680A0050494420EE
:102450004175746F74756E65206661696C65642181
:1024600020426164206578747275646572206E75AF
:102470006D6265720A004572723A20757466382082
:10248000666F6E74206E6F7420696E697469616C1A
:10249000697A65642E002568753A253032687500C2
:1024A000256875642025303268753A2530326875A4
:1024B00000000C0D00FE07022603BC017FFE08FE93
:1024C00008FE05080806000040F0C88888987810C3
:1024D000050808060000C0F88888888888F805057F
:1024E000050600012030F83020050808060000200D
:1024F00070F820202020E00509090600FF2070A8C0
:10250000A8B888887020050606060001E08CEA8CD1
:102510008A0A0509090600FFF8A88888888888A81B
:10252000F8050A0A0600FE205050505088A8A888D6
:102530007003030306000340A040FFFFFFFFFFFFFF
:10254000FFFFFFFFFFFFFFFFFFFFFFFFFFFFFFFF9B
:102550000000000605FF010707060200808080805A
:10256000800080030303060105A0A0A0050606065F
:10257000000050F85050F8500509090600FF20707F
:10258000A8A07028A87020050707060000C8C8107A
:102590002040989805070706000040A0A040A8909A
:1025A000680103030602058080800309090601FF14
:1025B0002040408080804040200309090601FF80C0
:1025C000404020202040408005070706000020A84A
:1025D000702070A8200505050600012020F82020A5
:1025E0000203030601FFC04080050101060003F855
:1025F000020202060100C0C005070706000008101D
:102600001020404080050707060000708898A8C881
:10261000887003070706010040C040404040E005C5
:102620000707060000708808102040F80507070615
:102630000000F80810300888700507070600001031
:10264000305090F81010050707060000F880F008D9
:10265000088870050707060000304080F088887001
:10266000050707060000F8081010202020050707BE
:1026700006000070888870888870050707060000CB
:1026800070888878081060020505060100C0C00047
:10269000C0C00206060601FFC0C000C0408003059E
:1026A000050601012040804020050303060002F8D2
:1026B00000F803050506010180402040800507075A
:1026C0000600007088102020002005070706000083
:1026D0007088B8A8B8807005070706000070888861
:1026E000F8888888050707060000F04848704848C1
:1026F000F005070706000070888080808870050755
:1027000007060000F04848484848F005070706005B
:1027100000F88080F08080F8050707060000F88048
:1027200080F0808080050707060000708880809810
:102730008870050707060000888888F8888888035D
:102740000707060100E04040404040E0050707065B
:102750000000381010101090600507070600008870
:1027600090A0C0A0908805070706000080808080A8
:102770008080F805070706000088D8A88888888820
:102780000507070600008888C8A8988888050707F5
:102790000600007088888888887005070706000092
:1027A000F08888F080808005070706000070888820
:1027B00088A89068050707060000F08888F0A090B8
:1027C0008805070706000070888070088870050774
:1027D00007060000F820202020202005070706001B
:1027E0000088888888888870050707060000888820
:1027F000888850502005070706000088888888A828
:10280000A8500507070600008888502050888805D2
:1028100007070600008888502020202005070706AB
:102820000000F80810204080F80309090601FFE0C5
:1028300080808080808080E005070706000080405F
:1028400040201010080309090601FFE02020202085
:10285000202020E005030306000520508805010123
:102860000600FEF803030306010580402005050568
:102870000600007008788878050707060000808049
:10288000F0888888F0050505060000708080887053
:102890000507070600000808788888887805050578
:1028A0000600007088F080700507070600003048B9
:1028B00040E04040400507070600FE7088888878A1
:1028C00008700507070600008080F0888888880364
:1028D00007070601004000C0404040E00409090627
:1028E00001FE100030101010109060050707060060
:1028F0000080808890E09088030707060100C040B0
:1029000040404040E0050505060000D0A8A8A8A862
:10291000050505060000B0C888888805050506007D
:102920000070888888700507070600FEF088888890
:10293000F080800507070600FE78888888780808F8
:10294000050505060000B0C8808080050505060065
:102950000078807008F00507070600002020F820A6
:102960002020180505050600008888889868050558
:1029700005060000888888502005050506000088A7
:1029800088A8A85005050506000088502050880535
:1029900007070600FE888888502040800505050648
:1029A0000000F8102040F80309090601FF2040400C
:1029B0004080404040200109090602FF808080805D
:1029C00080808080800309090601FF80404040200C
:1029D0004040408005030306000248A890FF000025
:1029E0002100240027002A000000220025002800E2
:1029F0002B00000020002300260029000202020212
:102A00000202020204040404040404040303030392
:102A10000303030301010101010101010102040893
:102A200010204080010204081020408001020408A8
:102A300010204080804020100804020100000001A6
:102A40000200090A0000000004030807000000005B
:102A50000000000000000000000000004D6F7665DF
:102A60002025736D6D004D6F766520302E316D6DB4
:102A7000004D6F766520316D6D004D6F76652031AC
:102A8000306D6D004D6F7665204178697300486F39
:102A900074656E6420746F6F20636F6C640045789A
:102AA000747275646572004D6F7665205A004D6FC3
:102AB00076652059004D6F76652058004572726F1B
:102AC000722077726974696E6720746F2045455073
:102AD000524F4D210A000F150E1216170E13030246
:102AE0001A1401000E0C190DFF180C0400014C6F94
:102AF00061642053657474696E67730053746F72F8
:102B0000652053657474696E677300416476616E05
:102B10006365642053657474696E677300436D6404
:102B20003A2053746F7700436D643A204465706CAB
:102B30006F7900436D643A2053572D4D6F646500E3
:102B4000436D643A2053656C662D5465737400437D
:102B50006D643A20526573657400526573746F72C8
:102B6000652044656661756C747300424C546F75E2
:102B7000636800313235004245443A4550434F5373
:102B8000203130304B0052756E617761792057618A
:102B90007463683A204F4E004D61782054656D7023
:102BA00000323735004D696E2054656D7000453137
:102BB0003A204550434F53203130304B005053554D
:102BC0000047656E657269630050726F746F636F62
:102BD0006C00312E30004261756400313135323085
:102BE00030004D656C7A692028437265616C6974A8
:102BF0007929003F2856296572626F7365206C65DC
:102C000076656C20696D706C61757369626C6520A6
:102C100028302D34292E0A00446576696174696F65
:102C20006E0025533A202573005374616E646172FF
:102C30006420446576696174696F6E3A20002052A1
:102C4000616E67653A20004D65616E3A2000466905
:102C50006E6973686564210A002072616E67653A67
:102C60002000207369676D613A2000206D65616EF8
:102C70003A20003A207A3A2000206F662000476F01
:102C8000696E6720746F3A20580043570A00206429
:102C900069723A0020616E676C653A005374617224
:102CA00074207261646975733A004D343820506F36
:102CB000696E740025533A2025642F256400506FF7
:102CC000736974696F6E696E6720746865207072CD
:102CD0006F62652E2E2E0A003F4E756D6265722062
:102CE0006F66206C65677320696E206D6F76656D09
:102CF000656E74206E6F7420706C61757369626CA0
:102D0000652028302D3135292E0A003F2028582CE7
:102D10005929206F7574206F6620626F756E647319
:102D20002E0A003F53616D706C652073697A6520CF
:102D30006E6F7420706C61757369626C65202834E5
:102D40002D3530292E0A004D3438205A2D50726FFF
:102D50006265205265706561746162696C6974793D
:102D600020546573740A00204D3932205800496E92
:102D700076616C69642050696E204D6F64650A004D
:102D800020496E76616C696420657874727564653B
:102D9000722000446966663A200046726F6D537473
:102DA000703A00537465707065723A00556E4C65E8
:102DB00076656C3A004C6576656C65643A005261E4
:102DC000773A20202020000A4C6F676963616C3AD3
:102DD00000436F756E7420453A0020436F756E7422
:102DE00020583A00453100626564002C20737973E5
:102DF00074656D2073746F7070656421204865611F
:102E00007465725F49443A200048656174696E6771
:102E1000204661696C65640048656174696E67206D
:102E20006661696C6564004D313132205368757498
:102E3000646F776E00205A3A200020593A200042F1
:102E4000656420583A20005072696E742050617594
:102E50007365640050726F62696E67204661696CC9
:102E600065640A0050726F62696E67204661696C22
:102E7000656400486F6D65202573257325732046B2
:102E80006972737400220A00556E6B6E6F776E2044
:102E9000636F6D6D616E643A2022004C756379201A
:102EA00052656164792E005072696E74696E672E86
:102EB0002E2E0000A4E511241FBECFEFD0E4DEBF0C
:102EC000CDBF12E0A0E0B1E0ECEFFAEE01E00BBF05
:102ED00002C007900D92A633B107D9F72FE0A6E301
:102EE000B2E001C01D92AA3EB207E1F717E1CBE5BF
:102EF000D7E104C02197FE010E9498F2CA35D1079C
:102F0000C9F70E9482E00C947CF50C9400002F928B
:102F10003F924F925F926F927F928F929F92AF9269
:102F2000BF92CF92DF92EF92FF920F931F93CF93B6
:102F3000DF93CDB7DEB7EF970FB6F894DEBF0FBEC5
:102F4000CDBF20912C032DAB21E020932C03809149
:102F50002B038D3409F443C4843511F40C94642795
:102F6000873411F00C947F278091290390912A03D4
:102F70008C31910509F4A1C18CF48430910509F4D8
:102F8000D2C01CF4029738F126C48531910511F4A2
:102F90000C9481274B9709F404C11DC48A32910512
:102FA00009F4F2C244F48D31910509F496C14E97AB
:102FB00009F4A7C110C48B35910509F462C28C35A0
:102FC000910509F463C28A35910509F004C4109291
:102FD00028030C94812780912703813011F00C94F1
:102FE0008127E7E1CE2EE3E0DE2EFCE8EF2EF3E0D2
:102FF000FF2EA3EBAA2EAFE0BA2E10E088E5810FDA
:103000000E94E44A882319F10E9497482B013C0151
:10301000812F0E94A2D2882351F0D7012D913D919A
:103020004D915C91C301B2010E94A2F209C0F50169
:103030002081318142815381C301B2010E94A1F2FA
:10304000D6016D937D938D939C9313970AC0F701DE
:1030500080819181A281B381F60180839183A283D3
:10306000B3831F5FF4E0CF0ED11C24E0E20EF11C0D
:1030700034E0A30EB11C133009F685E40E94E44A43
:10308000882301F10E9497486B017C0183E00E9434
:10309000A2D2882371F02091980330919903409136
:1030A0009A0350919B03C701B6010E94A2F26B01E3
:1030B0007C01C0922303D0922403E0922503F09276
:1030C000260310C08091980390919903A0919A03D0
:1030D000B0919B038093230390932403A093250333
:1030E000B093260340E050E0BA0186E40E941CAE93
:1030F00020E030E0A9010E9469F4181684F40E94CF
:10310000974820E030E040E752E40E942AF36093C1
:103110006B0170936C0180936D0190936E010E941E
:10312000759D0C94812780E50E94E44A882329F04C
:103130000E94C4D36B017C0103C0C12CD12C760149
:1031400083E50E94E44A882361F00E94974820E0CA
:1031500030E04AE754E40E9411EC0E94A3F36B01B3
:103160007C010E94A76E8091C202811105C060E0BF
:1031700085E697E00E9474AD0E94E26AC60ED71EF3
:10318000E81EF91E0E94E26ADC01CB018C199D0940
:10319000AE09BF09B7FD02C00C9481270E94BC662E
:1031A000F1CF0E947DDA81110C9481278CE0E5E754
:1031B000F1E0DE01119601900D928A95E1F780E52C
:1031C0000E94E44A882319F00E945F4801C060E031
:1031D00080E090E0A8ECB2E48AA39BA3ACA3BDA3DB
:1031E00080E090E0A0EAB0E48E8F9F8FA8A3B9A3FF
:1031F000613019F0623039F029C0BE01625E7F4F44
:10320000CE01099644C029853A854B855C8560913D
:1032100094037091950380919603909197030E9477
:10322000A2F26B017C0120E030E04AE753E40E9407
:10323000ABEB87FD06C0C12CD12C7AE7E72E73E4F7
:10324000F72ECE8ADF8AE88EF98E1CC0E0909403B8
:10325000F09095030091960310919703A984BA8486
:10326000CB84DC849501A601B701C8010E94ABEBB9
:1032700087FF02C075018601C701D8018E8B9F8B25
:10328000A88FB98FBE01625E7F4FCE0146960E9425
:1032900029A288E0FE013196DE01569601900D923A
:1032A0008A95E1F7BE016E5D7F4FCE0146960E9482
:1032B00008A20E9480A40C9481278091CC0F877073
:1032C000873011F00C94942760E08FE40E940C4B3F
:1032D00081110C9481270C9494270E947DDA81112E
:1032E0000C9481278091C102882311F40C94DE286C
:1032F00060E08FE40E940C4B81110C9481270C94A8
:10330000DE282091BF0F3091C00F4091C10F509126
:10331000C20F60918C0370918D0380918E03909108
:103320008F030E94A2F2AB01BC0188E50E941CAE93
:1033300069837A838B839C832091C30F3091C40F60
:103340004091C50F5091C60F609190037091910309
:1033500080919203909193030E94A2F2AB01BC0171
:1033600089E50E941CAE6D837E838F839887BE01A2
:103370006B5F7F4FCE0101960E94B046882311F407
:103380000C94812780E00E943C620E940DA161E0C4
:1033900085E40E940C4B21E0482FBE016B5F7F4FFC
:1033A000CE0101960E9435DB6B017C019B01AC01D3
:1033B0000E94EFF481115FC089809A80AB80BC804D
:1033C00020E030E0A901C501B4010E94ABEB87FF0A
:1033D00005C027E137EB41E558EB04C027E137EBA7
:1033E00041E558E3C501B4010E94A2F2AB01BC0162
:1033F0008FE39EE20E940B668D809E80AF80B88432
:1034000020E030E0A901C501B4010E94ABEB87FFC9
:1034100005C027E137EB41E558EB04C027E137EB66
:1034200041E558E3C501B4010E94A2F2AB01BC0121
:103430008AE39EE20E940B6620E030E0A901C7010A
:10344000B6010E94ABEB87FF05C067E177EB81E532
:1034500098EB04C067E177EB81E598E3A70196015B
:103460000E94A2F2AB01BC0185E39EE20E940B66C2
:103470008AE00E94B2C20E94F4A00E9480A40C9430
:1034800081278FE0809328030C94812734E1232E39
:1034900032E0332E43EBE42E42E0F42EACE8B3E00E
:1034A000BFA3AEA353EBC52E5FE0D52E00E010E026
:1034B000F10181911F010E94E44A882309F44AC066
:1034C0000E9497482B013C01133049F0D6012D9101
:1034D0003D914D915C910E94A1F22B013C01EEA126
:1034E000FFA12081318142815381C301B2010E9439
:1034F000A1F24B015C012DEB37E346E855EB0E944E
:1035000069F487FD0AC02DEB37E346E855E3C501B2
:10351000B4010E94ABEB1816ECF4133051F4409256
:1035200098035092990360929A0370929B0301E072
:1035300011C0A5019401D7016D917D918D919C9150
:103540000E94A2F2F7016083718382839383812FAB
:103550000E94559D1F5FF4E0EF0EF11C2EA13FA1CC
:103560002C5F3F4F3FA32EA334E0C30ED11C143079
:1035700009F09ECF002321F088E993E00E94877232
:103580000E9480A40C94812780912703813011F040
:103590000C94812789E40E94E44AE82E882321F0D4
:1035A0000E949348082F01C000E08AE40E94E44A88
:1035B000F82E882321F00E949348182F01C010E0B4
:1035C000EE2011F0033020F4FF2041F0133030F0F2
:1035D00086E097E00E9464650C94812780E1ECE826
:1035E000F3E0A7E1B3E001900D928A95E1F7EE20B8
:1035F00019F1602F000F770B880B990B0E94B2EB2B
:103600002091A3023091A4024091A5025091A602FC
:103610000E9411EC2091AB023091AC024091AD02BE
:103620005091AE020E94A2F26093170370931803A8
:103630008093190390931A03FF2019F1612F110F42
:10364000770B880B990B0E94B2EB2091A702309167
:10365000A8024091A9025091AA020E9411EC209167
:10366000AF023091B0024091B1025091B2020E947B
:10367000A2F260931B0370931C0380931D0390932D
:103680001E0360E080E50E940C4B8823C1F1EE2010
:10369000D1F02091BF0F3091C00F4091C10F5091D8
:1036A000C20F6091170370911803809119039091D4
:1036B0001A030E94A1F2609317037093180380937A
:1036C000190390931A03FF20D1F02091C30F30917A
:1036D000C40F4091C50F5091C60F60911B037091AC
:1036E0001C0380911D0390911E030E94A1F2609320
:1036F0001B0370931C0380931D0390931E0340E0F3
:1037000050E0BA0186E40E941CAE6B017C0120E00F
:1037100030E0A9010E9469F418165CF420E030E062
:1037200040E752E4C701B6010E942AF36B017C0115
:1037300003C0C12CD12C760180906B0190906C015C
:10374000A0906D01B0906E0120E030E0A901C701AA
:10375000B6010E94ABEB882341F0C0926B01D0927E
:103760006C01E0926D01F0926E01009121011091C7
:10377000220184E690E09093220180932101C09081
:103780002C01D0902D01E0902E01F0902F0180E0CF
:1037900090E0A0E8BFE380932C0190932D01A093CB
:1037A0002E01B0932F010E94759D80926B01909223
:1037B0006C01A0926D01B0926E01109322010093F2
:1037C0002101C0922C01D0922D01E0922E01F092A5
:1037D0002F010C9481270E946FDA0C94812780912D
:1037E000290390912A038837910509F4DBC50CF071
:1037F000FEC08535910509F4C3C40CF048C0893476
:10380000910509F4E7C2FCF48231910509F48BC4F7
:103810006CF497FF02C00C946127823091050CF480
:10382000A6C1419709F403C20C9461278A3291051D
:1038300009F4C8C28033910509F4C8C24F9711F04A
:103840000C94612711C28135910509F451C48CF49F
:103850008C34910509F4F0C28D34910509F401C34B
:103860008B34910511F00C9461270E94666A0C94C8
:1038700081278335910509F44FC40CF054C480911D
:1038800028038F7D8061809328030C9481278E36D6
:10389000910509F451C3E4F48A36910509F41DC376
:1038A00064F48836910509F4E0C20CF002C38C354B
:1038B000910509F488C40C9461278C36910511F4A4
:1038C0000C9481270CF42DC30E9430B20C948127F4
:1038D0008237910509F415C544F48037910511F438
:1038E0000C9481270CF43AC383C38537910509F4FE
:1038F0000BC50CF06FC08337910511F00C94612754
:103900008DEC95E00E94646560E08DEB95E00E948F
:103910000DB660E088EA95E00E940DB661E081EAAC
:1039200095E00E940DB660E086E995E00E940DB634
:1039300061E086E895E00E940DB660E08DE795E0D5
:103940000E940DB661E083E795E00E940DB661E04C
:1039500089E695E00E940DB661E081E695E00E945F
:103960000DB661E083E595E00E940DB661E085E467
:1039700095E00E940DB660E086E395E00E940DB6EA
:1039800060E088E295E00E940DB660E082E195E09B
:103990000E940DB661E081E095E00E940DB660E006
:1039A00082EF94E00E940DB660E08DED94E00E94FD
:1039B0000DB661E08AEC94E00E940DB660E08DEBFC
:1039C00094E00E940DB660E089EA94E00E940DB692
:1039D0000C9481278637910509F4AAC4873791058D
:1039E00011F00C9461270E94F1A40C9481278D3270
:1039F00041E0940711F40C9468250CF054C08C3C01
:103A0000910509F476C544F58B39910509F44AC34B
:103A1000ACF48C38910509F412C38139910509F48D
:103A2000C8C48937910511F00C9461271092C00227
:103A30001092BF020E9440A50C948127893C9105F9
:103A400009F412C58B3C910509F434C58E3B9105F0
:103A500011F00C94612714C38C3D910509F474C6D0
:103A600064F48E3C910509F48BC50CF476C5833D56
:103A7000910509F4A3C50C946127823E910509F4D0
:103A8000D4C634F48D3D910509F485C60C946127A4
:103A90008831A1E09A0709F413C78232914009F4F2
:103AA000A6C70C946127853AE1E09E0711F40C94B7
:103AB0003C2684F5813921E0920711F40C942F26DD
:103AC00094F48F3241E0940711F40C942C2614F4F2
:103AD0000C94E8258039914011F00C9461270E94E4
:103AE000A76E0C9481278A39B1E09B0711F40C94DE
:103AF0008127843AE1E09E0711F40C94392682393B
:103B0000914011F00C9461270E94A7460E9480A466
:103B10000C948127863F21E0920711F40C9405272D
:103B200084F4843F41E0940711F40C94FF2614F0D0
:103B30000C9402278C3A914011F40C94A1260C9419
:103B40006127883FB1E09B0711F40C94112714F40E
:103B50000C9408278335F3E09F0711F40C94222777
:103B6000873E934011F40C9453270C94612780E511
:103B70000E94E44A882329F00E94C4D36B017C018F
:103B800003C0C12CD12C760183E50E94E44A88232E
:103B900061F00E94974820E030E04AE754E40E9438
:103BA00011EC0E94A3F36B017C010E94A76E80912F
:103BB000A1029091A202009739F02091CB0F211120
:103BC00008C00E9453AD05C060E083EF96E00E94FC
:103BD00074AD10912C0383E080932C0381E08093DB
:103BE000A002C114D104E104F10431F00E94E26AA0
:103BF000C60ED71EE81EF91E8091A002882311F47C
:103C00000C94E528C114D104E104F10411F40C94DE
:103C1000E1280E94E26ADC01CB018C199D09AE0902
:103C2000BF09B7FF02C00C94E1280C94E5288091ED
:103C30009C0284FF02C00C94EC2880919E0287FFB6
:103C400002C00C94EC2880919F02837011F00C94B8
:103C5000EC2860E08AEE96E00E9474AD5E985E9873
:103C600015985E980C9481270E9431AA7B018C01E3
:103C700020E831E541E050E00E9401F2C9016DE623
:103C800071E00E9470F24B015C01C801B70120E1B4
:103C90003EE040E050E00E9401F2CA01B90128E193
:103CA00030E040E050E00E9401F2762E672EC62EF2
:103CB000D72E2CE3222E312C412C512CC801B701D8
:103CC000A20191010E9401F2F62EE72ECA01B9016C
:103CD000A20191010E9401F2CB018E010F5F1F4FE3
:103CE0008114910499F0EF92FF927F936F936F92FA
:103CF0007F92BF92AF929F928F9289EC96E09F93B2
:103D00008F931F930F930E9443EB13C0A114B10430
:103D1000B1F0EF92FF927F936F936F927F92BF9279
:103D2000AF928DEC96E09F938F931F930F930E9419
:103D300043EB0FB6F894DEBF0FBECDBF30C0CD2829
:103D400079F0EF92FF927F936F936F927F9281ED64
:103D500096E09F938F931F930F930E9443EBE9CFBD
:103D6000892B69F0EF92FF927F936F9385ED96E038
:103D70009F938F931F930F930E9443EBDACFEF92A1
:103D8000FF9289ED96E09F938F931F930F930E946C
:103D900043EB0F900F900F900F900F900F9080912A
:103DA000CB0F811103C0C8010E9453AD0E94406631
:103DB000B8018DED96E00E9429668AE00E94B2C2A9
:103DC0000C9481270E94BED20C9481270E949EC928
:103DD0000C94812780E50E94CE488823A1F00E94A0
:103DE000974820E030E048EC52E40E9411EC0E9439
:103DF000A3F36031F7E27F0710F060E177E27093A0
:103E000097026093960282E50E94CE48882311F4BF
:103E10000C9481270E94C4D39B01AC01ACE3B0E0B9
:103E20000E9442F2609398027093990280939A02E2
:103E300090939B020C9481278091D00F813011F0D8
:103E40000C94812782E08093D00F0E94E26A6093F5
:103E500092027093930280939402909395020C9433
:103E600081270E9480AA0C9481278091880983FF72
:103E700002C00C9481270E9479D287FF02C00C9463
:103E8000812783E50E94E44A882379F00E949748BD
:103E90000E949CF3CB010E9477820E94A68481112C
:103EA00004C00E9480AA0E945EDA0E940C6E0C94EC
:103EB00081270E9479D2182F87FD0AC08AEC92E0F0
:103EC0000E946465812F0E9487828AE00E94B2C2AC
:103ED0002DA920932C030C94AA2C60E080E50E946D
:103EE000004B81110C94812781E40E94CE488823E5
:103EF00021F06091C403062F02C00FEF10E083E5AC
:103F00000E94E44A882349F00E945F488B016F3F7A
:103F1000710519F010F00FEF10E00093C4030C943A
:103F2000812760E080E50E94004B81110C9481277D
:103F30001092C4030C9481278EE40E94E44A8823E3
:103F400011F40C9481270E945F4860938E02709355
:103F50008F028093900290939102D3C783E50E94D1
:103F6000CE48882331F060E083E50E94004B8093C7
:103F700088090E94406682EC96E00E946465809108
:103F80008809882369F196E9E92E92E0F92E00E08C
:103F900010E020E08091880990E0A0E0B0E0002EE1
:103FA00004C0B695A795979587950A94D2F780FF98
:103FB0000EC0DD24D394D20E222319F08CE20E948D
:103FC000B2C2F701859194910E9464652D2D0F5F17
:103FD0001F4F32E0E30EF11C05301105D9F604C085
:103FE0008EEB96E00E9464658AE00E94B2C289C7A7
:103FF00083E50E94E44A882371F00E946F48282FCD
:1040000030E02D3331051CF4809320017AC78CE316
:104010008093200176C70E944066C0902001D12C79
:10402000E12CF12C87EB96E00E9464654AE0C70121
:10403000B6010E94B9C28AE00E94B2C262C78091F2
:10404000880983FD5EC783E50E94E44A882379F0EE
:104050000E9497480E949CF36337710514F063E750
:1040600070E070938C0260938B020E944F800E94DC
:10407000A684811146C70E9480AA0E945EDA41C7C9
:104080008091880983FD3DC783E50E94E44A8EAB99
:1040900081110C94FE2882E50E94E44A81110C945F
:1040A000FE282FC783E50E94E44A882309F429C724
:1040B0000E946F48182F90E0CD970CF01CE31093EE
:1040C0007E020E94E26A6B017C01212F30E0A8EEA3
:1040D000B3E00E9455F2C60ED71EE81EF91EC0922C
:1040E0007A02D0927B02E0927C02F0927D0209C7B4
:1040F0000E94B9840E9480AA0E94B76E0E94BBD21F
:1041000068EE73E080E090E00E94406560E08FE838
:1041100096E00E9474ADF5C6809128038F7E806280
:1041200080932803EEC683E50E94E44A882399F031
:104130000E94974820E030E04AE754E40E9411ECE6
:104140000E94A3F360931B0170931C0180931D01D7
:1041500090931E01D6C680919C0284FF02C00C94ED
:104160007D2A80919E0287FF02C00C947D2A809157
:104170009F02837011F00C947D2A0E94B76EC1C615
:1041800083E50E94CE48882309F4BBC60E94E26AF8
:1041900060937F02709380028093810290938202E9
:1041A0000E94974820E030E04AE754E40E9411EC76
:1041B0000E94A3F360937602709377028093780253
:1041C000909379029EC60E9479D287FD9AC69091FB
:1041D0009C0294FD04C090919E0297FF0AC0B4E136
:1041E000CB2EB2E0DB2E19E8E12E19E0F12E10E023
:1041F00009C090919F02937091F7682F81E00E940F
:1042000089D37FC6D6018D916D010E94E44A88232F
:1042100009F46DC0133009F063C00E9497484B0148
:104220005C0120E030E040EA51E40E94ABEB87FF04
:104230004EC0A50194016091A9097091AA098091CD
:10424000AB099091AC090E942AF32B013C019B0120
:10425000AC016091A8037091A9038091AA03909189
:10426000AB030E9411EC6093A8037093A9038093A1
:10427000AA039093AB03A30192016091B9097091D5
:10428000BA098091BB099091BC090E9411EC60931E
:10429000B9097093BA098093BB099093BC096091E6
:1042A000B8037091B9038091BA039091BB030E9447
:1042B000B0EBA30192010E9411EC0E94A3F3609362
:1042C000B8037093B9038093BA039093BB038092B1
:1042D000A9099092AA09A092AB09B092AC0907C0B3
:1042E0000E949748F701648B758B868B978B1F5FB5
:1042F000F4E0EF0EF11C143009F084CF0E94836EBD
:1043000000C60E94A1D0FDC58091A1029091A20299
:10431000009759F0DC012C91222339F02091CB0F2A
:104320002111EFC50E9453ADECC50E945EDAE9C5CC
:104330000091A1021091A20294E0F12C40E0915072
:1043400021F1F8018081282F2B7F213421F4218154
:104350002133D9F407C08035C1F4818180538A307C
:1043600048F013C0813421F0853421F441E002C0CB
:10437000FF24F39498012E5F3F4F89012F5F3F4F39
:10438000F80180818032C9F3DACF41110E94406682
:10439000FF2021F085EA94E00E946465C8010E9434
:1043A000BDC3AFC52093C0022093BF020E9440A5A9
:1043B000A8C560E070E083E50E94F14A8C011127F6
:1043C000023011053CF00E943C6683E894E00E94B4
:1043D000646597C588E40E94E44A8823A9F00E9496
:1043E00093488A3A91053CF08530F1E09F072CF024
:1043F00084E091E002C08AEA90E0F801EE0FFF1F2E
:10440000EE58FD4F9183808386E40E94E44A88231E
:1044100081F00E94934897FD07C08F3F910529F0D6
:1044200024F08FEF90E001C080E0F801E059FD4FEB
:10443000808382E40E94E44A882309F462C50E94D2
:1044400093488530910534F0843791052CF083E74B
:1044500090E002C085E090E0000F111FF801E459E0
:10446000FD4F918380834DC50E9479D287FD49C558
:1044700064E1E62E62E0F62E09E819E079E9C72E3C
:1044800079E0D72ED7018D917D010E94CE488823F7
:1044900059F00E9497480E94A3F3F801608371834A
:1044A000828393830E943C6E0C5F1F4FC016D1061F
:1044B00049F727C50E9479D287FD23C554E1E52E2F
:1044C00052E0F52E09E819E0D7018D917D010E9497
:1044D000CE48882339F00E949748F80164A375A359
:1044E00086A397A30C5F1F4FF9E009391F0761F7F7
:1044F00008C580919D0287FF02C00C94A22A80917A
:104500009E028E7011F00C94A22A4091BD09509128
:10451000BE096091BF097091C00983E794E00E94D1
:104520000B664091C1095091C2096091C309709115
:10453000C40980E794E00E940B664091C509509140
:10454000C6096091C7097091C8098DE694E00E9480
:104550000B668AE00E94B2C2D4C480919C02827130
:1045600011F00C94E82A80919E028C7811F00C9442
:10457000E82A80919F02837011F00C94E82AC1C44C
:1045800040E6E42E42E0F42E10E088E5810F0E9420
:10459000CE48882359F00E949748D7016D937D93A8
:1045A0008D939C931397812F0E94559D1F5FB4E0BC
:1045B000EB0EF11C133049F70C94C01A4090B30F66
:1045C0005090B40F6090B50F7090B60F209103011A
:1045D000309104014091050150910601C301B201DF
:1045E0000E94A2F26EA37FA388A799A78090B70F1D
:1045F0009090B80FA090B90FB090BA0F209107011A
:10460000309108014091090150910A01C501B4019E
:104610000E94A2F26AA77BA78CA79DA7C090BB0FA0
:10462000D090BC0FE090BD0FF090BE0F20910B0119
:1046300030910C0140910D0150910E01C701B6015E
:104640000E94A2F26EA77FA788AB99AB20910F01C1
:10465000309110014091110150911201C301B2013A
:104660000E94A2F22B013C01209113013091140110
:104670004091150150911601C501B4010E94A2F2AA
:104680004B015C01209117013091180140911901F3
:1046900050911A01C701B6010E94A2F26B017C0180
:1046A0000E9440668BE294E00E94646583E50E946C
:1046B000CE48882321F00E94834880930201809194
:1046C0000201882319F085E99BE202C089EC95E09C
:1046D0000E94646583E294E00E9464654EA15FA13C
:1046E00068A579A588E792E10E940B664AA55BA5BB
:1046F0006CA57DA582EB9AE20E940B664EA55FA594
:1047000068A979A98BEA9AE20E940B6684EC91E28F
:104710000E9464658BE194E00E946465B301A2018C
:1047200088E792E10E940B66B501A40182EB9AE250
:104730000E940B66B701A6018BEA9AE20E940B6603
:104740008AE00E94B2C2DDC383E50E94E44A882366
:1047500031F00E949348909322018093210180912F
:104760009C0290919D02A0919E02B0919F02892B84
:104770008A2B8B2B09F0C5C3609121017091220116
:1047800087E194E00E941C6685E20E94B2C28AE042
:104790000E94B2C2B6C30E9479D2F82E87FDB1C37F
:1047A00083E50E94E44A0F2D0F2C000C110B882387
:1047B00009F10E949348F801EE0FFF1FE050FF4FF0
:1047C00091838083000F111F000F111F045D1E4F86
:1047D000BC01990F880B990B0E94B2EB2AE037EDD0
:1047E00043E25CE30E9411ECF801608371838283F1
:1047F000938387C30E94406685E40E94B2C280E32F
:104800008F0D0E94B2C2000F111FF801E050FF4F40
:10481000608171818FE094E00E941C6685E20E94B5
:10482000B2C28AE00E94B2C26CC380E50E94CE4848
:10483000882309F466C360E070E080E50E94F14AD5
:10484000F82E6FEF7FEF83E50E94F14A8C0101960D
:10485000039708F056C3F7FC54C38F2D0E942AC05B
:10486000882339F00E943C6680E094E00E946465F1
:1048700048C30E94A76E60E08F2D0E9453BD0F3F7A
:10488000FFEF1F0731F00130110571F000E010E07B
:104890000DC08F2D0E94FBBC31E020E0892B09F078
:1048A00030E0032F122F02C001E010E08F2D0E9494
:1048B000FBBC8017910709F424C30E94BC66F6CFA5
:1048C00080E50E94CE48882309F41BC30E949348C8
:1048D0008C01892B09F07FC083E50E94CE48882394
:1048E00089F00E9493488F3F2FEF920729F48CEFB5
:1048F0009DE00E944FC005C3BC018CEF9DE00E946B
:10490000FEC0FFC20E94406660E070E088EF93E066
:104910000E941C668091FE0D28E532E06901C81AEC
:10492000D10887FDD394CC0CDD1CCC0CDD1C0D2CE8
:10493000000CEE08FF088091FD0D28E830E04901E9
:10494000881A910887FD9394880C991C880C991CEF
:10495000092C000CAA08BB088091FC0D8F3FC1F008
:1049600090E0FC01EE0FFF1F8E0F9F1FFC01E9522C
:10497000F24F2181328173E0220F331F7A95E1F7E4
:10498000E4E036952795EA95E1F72E5F3F4F02C0A8
:1049900020E030E02F5F3F4FC901330FAA0BBB0B64
:1049A0009C01AD01281939094A095B09A4EBB0E063
:1049B0000E9442F2A7019601281939094A095B09A8
:1049C0000E9423F2B90186E09EE20E941C668AE002
:1049D0000E94B2C296C20E943C66B80189EF93E081
:1049E0000E941C6689EE93E00E9464658AC28AE593
:1049F0000E94E44A811106C083E50E94E44A8823AC
:104A000009F44BC00E94974820E030E040E050ECB1
:104A10000E94ABEB87FD59C60E94974820E030E02A
:104A200040E050E40E9469F418160CF448C60E9455
:104A300097486B017C018091B10F8695869580FF28
:104A400022C02091A5093091A6094091A709509153
:104A5000A809C701B6010E9411EC0E949CF32091A5
:104A60005E0230915F02260F371F30935F02209362
:104A70005E0220915C0230915D02620F731F7093A1
:104A80005D0260935C0280E50E94CE48882309F4B1
:104A900022C60E94834881111EC680919E0287FD16
:104AA00040C680919F02837009F03BC60E94406619
:104AB0004091C70F5091C80F6091C90F7091CA0FF4
:104AC0008AEC93E00E940B668AE00E94B2C219C28F
:104AD00060E085E40E94004B811173C080E50E9474
:104AE000CE48882351F00E9497486093CB0D709375
:104AF000CC0D8093CD0D9093CE0D89E40E94CE48CD
:104B0000882381F00E9497482CEA35EC47E25EE367
:104B10000E9411EC6093CF0D7093D00D8093D10D56
:104B20009093D20D84E40E94CE48882381F00E94A5
:104B300097482CEA35EC47E25EE30E942AF3609343
:104B4000D30D7093D40D8093D50D9093D60D0E9404
:104B500040664091CB0D5091CC0D6091CD0D709180
:104B6000CE0D86EC93E00E940B662CEA35EC47E212
:104B70005EE36091CF0D7091D00D8091D10D909139
:104B8000D20D0E942AF3AB01BC0182EC93E00E949B
:104B90000B662CEA35EC47E25EE36091D30D709131
:104BA000D40D8091D50D9091D60D0E9411ECAB01E2
:104BB000BC018EEB93E00E940B668AE00E94B2C2B9
:104BC000A0C10E943C668CEA93E00E94646599C192
:104BD00083E50E94CE48182F882371F00E949748E1
:104BE0000E949CF3709331016093300121E0672BA8
:104BF00009F020E02093D50380E50E94CE48882369
:104C000059F02091300130913101232B11F00E9495
:104C100083488093D50375C1111173C10E9440660A
:104C200089E993E00E9464658091D503882319F097
:104C300084E79EE102C080E893E00E946465609191
:104C400030017091310188E893E00E941C6684E88D
:104C500093E00E94646555C10E9433AE52C18091B9
:104C6000B20F81110C94C01A81E00E94336D0C9434
:104C7000C01A0E94174945C16FEF7FEF89E40E9477
:104C8000F14A182F6FEF7FEF8AE40E94F14A082F54
:104C90008AE50E94CE48F82E811105C081E50E9468
:104CA000CE48D82E01C0D12C17FD06C007FD04C088
:104CB000F11009C0D11007C00E943C6680E693E065
:104CC0000E9464651EC1133010F4033038F00E9456
:104CD0003C6686E097E00E94646513C1E12E110FE7
:104CE000FF08002E000C110B0E949748D701AA0F55
:104CF000BB1FDD2081F0FD01EE0DFF1DE00FF11F58
:104D0000EE0FFF1FEE0FFF1FE85CFD4F208131818A
:104D10004281538103C020E030E0A901EA0EFB1E6E
:104D20000E0D1F1D000F111F000F111F085C1D4FDE
:104D30000E94A2F2D8016D937D938D939C9313975B
:104D4000E0C00E947DDA8111DCC007E812E0ECE8E7
:104D5000F3E0FFA3EEA39E012F5F3F4F190193E9FC
:104D6000C92E92E0D92E7901F8016591759185914E
:104D70009491AEA1BFA18D909D90AD90BD90BFA329
:104D8000AEA3A50194010E94A1F22B013C01F70101
:104D9000608371838283938320E030E040EA51ECAA
:104DA0000E9469F487FD0AC020E030E040EA51E447
:104DB000C301B2010E94ABEB18162CF4F6018491EA
:104DC00018160CF4B4C4D7018D909D90AD90BD9091
:104DD0007D0120E030E040EA51ECC501B4010E94C1
:104DE00069F487FDAFC420E030E040EA51E4C5013A
:104DF000B4010E94ABEB18160CF0B2C4A3C40E941D
:104E00004AA57FC00E946D467CC00E94BE3C79C00E
:104E100061E083E50E940C4B91E089270E94FD3DF3
:104E200070C081E0809337020E949C40109237024C
:104E3000882309F466C00E94406689E193E00E94DD
:104E400064655FC080919E0287FDB4C480919F021B
:104E5000837009F0AFC44091BF0F5091C00F6091B3
:104E6000C10F7091C20F8AE093E00E940B664091DF
:104E7000C30F5091C40F6091C50F7091C60F82EBA4
:104E80009AE20E940B664091C70F5091C80F609143
:104E9000C90F7091CA0F8BEA9AE20E940B668AE0F2
:104EA0000E94B2C22EC081E0809327031092CB0FE4
:104EB00060E083E50E940C4B811123C00E942EB458
:104EC00020C00E946FDA1DC00091290310912A03AF
:104ED0000023B9F00E94406684E50E94B2C2B80186
:104EE0007727072E000C880B990B0E9426C380E2BF
:104EF0000E94B2C28CEA93E00E94646502C00E94E4
:104F00006FDAE0913602F0E0E859F14F80818823B2
:104F100039F08AEC92E00E9464658AE00E94B2C295
:104F2000FDA9F0932C0316C50E94A76E3090C10214
:104F300080E00E943C620E940DA181E08093C0024B
:104F40000E9440A588E50E94CE48182F89E50E945E
:104F5000CE48F82E8AE50E94CE481F1117C11817B7
:104F600011F0F12E13C1FF24F39411E001E080E170
:104F7000ECE8F3E0A7E1B3E001900D928A95E1F748
:104F800082E50E94E44A882369F00E9497484B0119
:104F90005C0120E030E0A9010E94ABEB882309F41A
:104FA0003EC006C0812C912C60EAA62E60E4B62E8D
:104FB000111102C0FF20E9F18091B10F82FD09C0FB
:104FC000609194037091950380919603909197035B
:104FD00003C060E070E0CB01A50194010E94A2F241
:104FE00060931F0370932003809321039093220307
:104FF000209194033091950340919603509197032B
:105000000E9469F418165CF419821A821B821C82B1
:10501000BE016F5F7F4F8FE193E00E9429A21123B1
:1050200019F080E00E94E0A2FF2019F081E00E94C8
:10503000E0A2002309F499C080E00E94E74B809130
:10504000B10F8370833051F060E087E597E00E94F4
:1050500074AD0E94406688E497E085C00E94DEA29D
:105060008091940390919503A0919603B09197033A
:105070008EA39FA3A8A7B9A72091BF0F3091C00FFF
:105080004091C10F5091C20F60E070E08AEE92E44F
:105090000E94A1F24B015C01609317037093180307
:1050A0008093190390931A032091C30F3091C40F7A
:1050B0004091C50F5091C60F60E070E08AEE92E417
:1050C0000E94A1F22B013C0160931B0370931C030F
:1050D00080931D0390931E032091C70F3091C80F3A
:1050E0004091C90F5091CA0F6EA17FA188A599A5C3
:1050F0000E94A1F260931F03709320038093210309
:105100009093220327E137EB41ED58EBC301B20145
:105110000E9469F487FD1EC027E030E04BE653E4AF
:10512000C301B2010E94ABEB1816A4F027E137EBE4
:1051300041ED58EBC501B4010E9469F487FD0AC036
:1051400027E030E04BE653E4C501B4010E94ABEB2D
:105150001816F4F460E087E397E00E9474AD0E94B3
:10516000406685E297E00E9464650E94DEA280911D
:10517000BF028093C002832D0E943C620E94F4A073
:1051800083E0809323010E9480A4BBCE082FEFCE42
:1051900019821A821B821C829E012F5F3F4F690178
:1051A000EEA0FFA008A519A5A3019201C501B401B5
:1051B0000E9447A182E00E94E0A2D7CF0E949F4CAC
:1051C000A0CE0E94BC660C94FC1D1092A00210930D
:1051D0002C030E945EDA95CE88E50E94CE488111AC
:1051E0005E9889E50E94CE4881115E988AE50E940A
:1051F000CE48882309F485CE159883CE0E9497481F
:105200000E949CF3633771050CF074C170938C029B
:1052100060938B020E944F800E94A68481110E949D
:10522000666A60918B0270918C02072E000C880BCD
:10523000990B0E94B2EB2091870230918802409135
:10524000890250918A020E9469F418161CF488EAB7
:1052500096E002C089E996E060E00E9474AD81E0CA
:1052600080931F011AA61BA61CA61DA61FAA18AE76
:1052700019AE1AAE1EA21CAE4CE34DAF5CE15EAFA0
:1052800086E48FAFC12CD12C00E8E02E8FEBF82EF6
:1052900091E09BAF812C912C540160918B02709115
:1052A0008C02072E000C880B990B0E94B2EB162F74
:1052B000072F782E692E9601A7010E94ABEB882359
:1052C00011F120918702309188024091890250911A
:1052D0008A02AEA9612F702F872D962DA11107C0CC
:1052E0000E94ABEB881F8827881F8EA312C00E94E4
:1052F000ABEB87FF0DC080911F01882309F401CE1D
:105300000E945EDAFECD1C2D0D2D7E2C6F2C01C06F
:105310001EA20E94E26A6B017C01DC01CB012FA975
:1053200038AD49AD5AAD821B930BA40BB50BB7FD3D
:1053300033C0D701C60188519C4FAF4FBF4F8FABD1
:1053400098AFA9AFBAAF80E00E94878280EA92E06E
:105350000E94646581149104A104B104B9F0D501DF
:10536000C401805F984DAF4FBF4FBC01CD016C1998
:105370007D098E099F0928EE33E040E050E00E944D
:1053800001F2CA01B9010E9426C303C08FE30E9443
:10539000B2C28AE00E94B2C20E94BC660E94E26A67
:1053A00060937F02709380028093810290938202C7
:1053B000909187029EA7A0918802AAABB091890222
:1053C000BBABE0918A02ECAB292F3A2F4B2F5E2F1B
:1053D000612F702F872D962D0E94A1F21B012C01A9
:1053E00020E030E0A9010E9469F487FF04C057FA69
:1053F000509457F8509481149104A104B104B1F46D
:1054000020E030E040E85FE3C201B1010E94ABEB75
:1054100087FF18C0FBAD46015701FF2399F020E13B
:10542000820E27E2921EA11CB11C0CC020E030E0CD
:1054300040E450E4C201B1010E9469F4181614F46A
:10544000460157013EA13323C1F18AA59BA5ACA516
:10545000BDA5892B8A2B8B2B61F0D701C6012AA50C
:105460003BA54CA55DA5821B930BA40BB50BB7FD0B
:1054700024C02EA53AA94BA95CA96CAD7DAD8EAD1B
:105480009FAD0E94A1F220E030E040EC5FE30E947B
:10549000ABEB87FD30CFD701C601805A9541AF4FA6
:1054A000BF4F8AA79BA7ACA7BDA79EA59CAFAAA9E3
:1054B000ADAFBBA9BEAFECA9EFAF80911F018823B0
:1054C00009F419CF81149104A104B10431F41BAE85
:1054D000C12ED02EE72CF62CE0CEF0E1CF1AF7E269
:1054E000DF0AE108F108C818D908EA08FB08F7FC48
:1054F000EECF01CF63E770E089CE0E94A76E88E50A
:105500000E94CE48882331F05E9A8091B10F8E7F41
:105510008093B10F89E50E94CE48882331F05E9ACE
:105520008091B10F8D7F8093B10F8AE50E94CE48A4
:10553000882309F4E6CC159A8091B10F8B7F809374
:10554000B10FDFCC83E50E94E44A882391F00E94EA
:1055500097486093BD097093BE098093BF099093EB
:10556000C0096093C5097093C6098093C7099093D9
:10557000C80980E50E94E44A882351F00E949748B8
:105580006093BD097093BE098093BF099093C009D1
:1055900082E50E94E44A882351F00E949748609374
:1055A000C1097093C2098093C3099093C40984E52B
:1055B0000E94E44A882309F4A4CC0E94974860938F
:1055C000C5097093C6098093C7099093C80999CCFF
:1055D00082E40E94CE48882351F00E94C4D3609395
:1055E000990970939A0980939B0990939C0983E58C
:1055F0000E94CE48882351F00E9497486093C909C1
:105600007093CA098093CB099093CC0984E50E94DA
:10561000CE48882351F00E9497486093CD0970933B
:10562000CE098093CF099093D00988E50E94CE4897
:10563000882351F00E94974860939C0370939D03C8
:1056400080939E0390939F0389E50E94CE48882310
:1056500051F00E9497486093A0037093A103809338
:10566000A2039093A3038AE50E94CE488823B1F059
:105670000E9497486093A4037093A5038093A603A8
:105680009093A7032DEC3CEC4CEC5DE30E94ABEB5C
:10569000181624F08BE394E00E94646585E40E9470
:1056A000CE48882309F42DCC0E9497486093A80324
:1056B0007093A9038093AA039093AB0322CCC12CCF
:1056C000D12CE12C50E4F52EB6C9C12CD12CE12C03
:1056D00040ECF42EB0C9A70196016091C70F7091FC
:1056E000C80F8091C90F9091CA0F0E94A2F26093D7
:1056F000C70F7093C80F8093C90F9093CA0F0E9471
:1057000040664091C70F5091C80F6091C90F7091CA
:10571000CA0F89ED93E00E940B668AE00E94B2C234
:10572000BCC982E50E94CE488111C0C9EACBB7FA54
:10573000B094B7F8B094D7018D929D92AD92BC927F
:10574000139741CB0E943C6682E493E00E9464651B
:1057500061E084E393E00E9474AD0E94D895D1CBC0
:105760000C5F1F4FBFEFCB1ADB0AE3E9F2E0E01753
:10577000F10709F0F9CA80E6E82E82E0F82E10E081
:10578000F10181919191A191B1911F01F701819353
:105790009193A193B1937F01812F0E94559D1F5F2B
:1057A000133071F70E9480A460E084E293E00E94CD
:1057B00074ADA7CBF091BF0FFEA38090C00F709087
:1057C000C10F6090C20F5090C30F4090C40F309033
:1057D000C50F2090C60FC090C70FD090C80FE090A3
:1057E000C90FF090CA0F88E50E94E44A882361F14E
:1057F0000E9497485B018C0120E030E04BE653ECBF
:105800000E9469F487FD0AC020E030E04BE653E4D3
:10581000B501C8010E94ABEB181694F46BEE70E072
:1058200087EF92E00E941C666BEE70E082EF92E0E0
:105830000E941C6682EA94E00E94646510E005C044
:10584000AEA28B2C702E612E11E089E50E94E44AF5
:10585000882381F10E949748962EA72EB82E092FF3
:1058600020E030E04BE653EC0E9469F487FD0CC069
:1058700020E030E04BE653E4692D7A2D8B2D902FFC
:105880000E94ABEB181694F46BEE70E08FED92E093
:105890000E941C666BEE70E082EF92E00E941C6634
:1058A00082EA94E00E94646510E004C0592C4A2CFE
:1058B0003B2C202E8AE50E94E44A882339F10E947D
:1058C00097486B017C0120E030E040EA51EC0E94F7
:1058D00069F487FD0AC020E030E040EA51E4C701E6
:1058E000B6010E94ABEB18168CF46CEE7FEF8DECDA
:1058F00092E00E941C6664E170E082EF92E00E94F8
:105900001C6682EA94E00E946465FBCA112309F4D4
:10591000F8CA8EA1982DA72DB62D8093BF0F909316
:10592000C00FA093C10FB093C20F852D942DA32D4E
:10593000B22D8093C30F9093C40FA093C50FB09363
:10594000C60FC092C70FD092C80FE092C90FF09255
:10595000CA0FD7CAEF960FB6F894DEBF0FBECDBF01
:10596000DF91CF911F910F91FF90EF90DF90CF903B
:10597000BF90AF909F908F907F906F905F904F906F
:105980003F902F9008952F923F924F925F926F9287
:105990007F928F929F92AF92BF92CF92DF92EF92BF
:1059A000FF920F931F93CF93DF93CDB7DEB764972A
:1059B0000FB6F894DEBF0FBECDBF8FEF9FEF909371
:1059C0008900809388002AE02983212C312C789447
:1059D0008091750390917603A0917703B09178033D
:1059E000892B8A2B8B2B79F080917503909176030C
:1059F000A0917703B0917803892B8A2B8B2B11F020
:105A00000C94D734BAC180916F0F8823D1F01092D3
:105A10006F0F80916D0F90916E0F892B91F0109206
:105A2000350310926E0F10926D0F9091020E8091BF
:105A3000030E981731F08091030E8F5F8F70809363
:105A4000030E80916D0F90916E0F892B69F240913A
:105A5000710350917203609173037091740380918C
:105A60006D0390916E03A0916F03B091700300914C
:105A7000630310E020E030E0841B950BA60BB70B0E
:105A8000081719072A073B0710F4D901C8018A8BA8
:105A9000840F951FA61FB71F809371039093720305
:105AA000A0937303B0937403E1E080903A03909065
:105AB0003B03A0903C03B0903D0380914A0390913A
:105AC0004B03A0914C03B0914D03880E991EAA1E62
:105AD000BB1E80924A0390924B03A0924C03B0925B
