:100000000C946F160C9499160C9499160C949916DE
:100010000C94B6CB0C94B6CB0C94B6CB0C94B6CB5C
:100020000C9499160C9499160C9499160C94991694
:100030000C9499160C9448710C9499160C9499167A
:100040000C9499160C9498A50C94836F0C949916A3
:100050000C94D4B60C94CAB60C9499160C949916B8
:100060000C9499160C9499160C9499160C94991654
:100070000C9499160C9499160C9499160C94991644
:100080000C94F6B40C9499160C9499169AA89FA8FF
:10009000A4A8AEA8DCA8DCA8B8A8C0A8C8A8D2A804
:1000A000C6ADC9ADBCADC0ADE0ADE0ADCDADD1AD7F
:1000B000D7ADDBAD06B716B727B732B73AB751B7EA
:1000C0003EB751B742B746B751B74CB7EEC8ACC709
:1000D000DFC72AC9DFC7DFC7DFC7DFC7DFC7DFC7A3
:1000E000DFC7DFC7DFC7DFC7DFC7DFC7DFC7DFC7E0
:1000F000DFC7DFC7DFC7DFC7DFC7DFC7DFC7DFC7D0
:10010000DFC7DFC7DFC7DFC724C9DFC7DFC7DFC778
:10011000DFC7DFC7DFC7DFC7DFC7FDC8DFC7DFC790
:10012000DFC7DFC7DFC7DFC7DFC7DFC7DFC7DFC79F
:1001300041C9DCC705A84CCDB2D44EB93836A902A6
:100140000C50B9918688083CA6AAAA2ABE000000D5
:10015000803F4E414E494E495459494E46CDCCCC34
:100160003D0AD7233C17B7D13877CC2B329595E68B
:10017000241FB14F0A000020410000C84200401C6B
:100180004620BCBE4CCA1B0E5AAEC59D7400407AB8
:1001900010F35A00A0724E18090010A5D4E8000010
:1001A000E87648170000E40B54020000CA9A3B00AE
:1001B0000000E1F505000080969800000040420F25
:1001C000000000A08601000000102700000000E8E9
:1001D00003000000006400000000000A00000000AE
:1001E000000100000000002C76D888DC674F08234F
:1001F000DFC1DFAE59E1B1B796E5E3E453C63AE6B5
:1002000051997696E8E6C28426EB898C9B62ED4094
:100210007C6FFCEFBC9C9F40F2BAA56FA5F49005E3
:100220005A2AF75C936B6CF9676DC11BFCE0E40D17
:1002300047FEF520E6B500D0ED902E03009435770B
:10024000050080841E080000204E0A000000C80C33
:10025000333333330F986E12831141EF8D2114899C
:100260003BE65516CFFEE6DB18D1844B381BF77CF6
:100270001D901DA4BBE424203284725E228100C93B
:10028000F124ECA1E53D2720573A00434F4D4D5551
:100290004E49434154494F4E0044525952554E0025
:1002A0004552524F525300494E464F004543484F26
:1002B000006F6B003F5A206F7574206F662072616B
:1002C0006E67652028003F59206F7574206F662087
:1002D00072616E676520282D0020746F20003F58E2
:1002E000206F7574206F662072616E676520282DFF
:1002F0000050726F6265204F666673657420580007
:10030000454550524F4D204F4B0A004F666673656E
:100310007473204170706C696564004572723A2094
:10032000546F6F206661722100546F6F2066617296
:100330002066726F6D207265666572656E636520FA
:10034000706F696E740A004D34323120696E636FCC
:10035000727265637420706172616D65746572207C
:1003600075736167650A006469730043290A006157
:10037000626C656420286D696E2074656D70200064
:10038000436F6C6420657874727564657320617264
:10039000652000496E76616C6964206578747275B9
:1003A0006465720A0020643A0020693A0020703ABD
:1003B0000050726F6265204F6666736574205A0044
:1003C00020536572766F200050726F746563746598
:1003D000642050696E0A0020466C6F773A20004610
:1003E000523A0020204D61783A200020204D696E5D
:1003F0003A2000536F667420656E6473746F707377
:100400003A20005741524E494E4721204C6F7720E9
:100410005A204A65726B206D6179206C6561642099
:10042000746F20756E77616E74656420706175738A
:1004300065732E0A00205400205200416363656CEE
:1004400065726174696F6E3A2050004D3134352009
:10045000533C696E6465783E206F7574206F66202A
:1004600072616E67652028302D31290A002F2F20F8
:10047000004348414D4245525F54454D504552411D
:100480005455524500424142595354455050494EEB
:1004900047004D4F54494F4E5F4D4F444553005414
:1004A0004845524D414C5F50524F54454354494F7B
:1004B0004E004C4F4E475F46494C454E414D45001E
:1004C0004155544F5245504F52545F53445F53541B
:1004D00041545553005344434152440050524F4DF0
:1004E00050545F535550504F525400454D4552475C
:1004F000454E43595F504152534552004341534585
:100500005F4C494748545F4252494748544E45530F
:100510005300544F47474C455F4C4947485453009C
:10052000534F4654574152455F504F574552004232
:1005300055494C445F50455243454E54004C455636
:10054000454C494E475F44415441005A5F50524F19
:100550004245004155544F4C4556454C0050524978
:100560004E545F4A4F420050524F4752455353003A
:100570004155544F5245504F52545F54454D5000D1
:10058000564F4C554D45545249430042494E4152F5
:10059000595F46494C455F5452414E5346455200BF
:1005A00053455249414C5F584F4E5F584F464600A5
:1005B0004649524D574152455F4E414D453A4D6176
:1005C000726C696E206275676669782D322E302EE6
:1005D0007820284175672020342032303230203195
:1005E000383A30313A31312920534F555243455F23
:1005F000434F44455F55524C3A68747470733A2FB8
:100600002F6769746875622E636F6D2F4D61726C10
:10061000696E4669726D776172652F4D61726C69A2
:100620006E2050524F544F434F4C5F5645525349E2
:100630004F4E3A312E30204D414348494E455F548C
:100640005950453A4C756379202832303230303871
:1006500030342E64292045585452554445525F4346
:100660004F554E543A3120555549443A63656465B7
:10067000326132662D343161322D343734382D39C0
:100680006231322D6335356336326633363766660E
:100690000A004C75637920283230323030383034DB
:1006A0002E6429204F46462E0042656420436F6F1A
:1006B0006C696E672E2E2E00426564204865617459
:1006C000696E672E2E2E004D3131332053006F6638
:1006D000660044454255473A0025697920256964FA
:1006E000202569682025696D20256973005072698D
:1006F0006E742074696D653A20004E6F204D6F76E0
:10070000652E00436C69636B20746F2052657375AE
:100710006D652E2E2E004D65736820706F696E74A6
:10072000206F7574206F662072616E67650A005ACB
:100730002050726F62652050617374204265640AB4
:10074000005A2050726F62652050617374204265B8
:100750006400486F6D652058592066697273740A89
:1007600000486F6D652058592046697273740053B4
:100770006C6565702E2E2E00000000000000000049
:1007800000000000AC02A702A00299028B02000048
:100790004842000048420000A04100006B430000B6
:1007A0006B4300007A43FFFFFF24F4D43050C38E24
:1007B00020C2A24017828B7011127A910D816CD9E0
:1007C0000AA861E108C7586607615143061E4B5DE0
:1007D00005C145A7041A411104093D980371393137
:1007E000034036DB0265339102D4305402802E1D63
:1007F00002632CEE01752AC501B028A001102781E3
:10080000018F2564012B244B01E0223401AC211F10
:10081000018D200D01801FFC00841EED00971DDF5F
:1008200000B81CD200E61BC600201BBC00641AB234
:1008300000B219A8000A19A0006A189900D11791EE
:100840000040178B00B516840031167E00B3157971
:10085000003A157300C7146F0058146A00EE13664F
:10086000008813630025135E00C7125B006C1257EB
:100870000015125400C111510070114F0021114B8D
:1008800000D61049008D1047004610440002104267
:1008900000C00F4000800F3E00420F3C00060F3B9F
:1008A00000CB0E3800930E37005C0E3500270E3457
:1008B00000F30D3200C10D3100900D3000600D2E9F
:1008C00000320D2D00050D2C00D90C2B00AE0C298B
:1008D00000850C29005C0C2700350C27000E0C2627
:1008E00000E80B2400C40B2400A00B23007D0B2385
:1008F000005A0B2100390B2100180B2000F80A1FA9
:1009000000D90A1E00BB0A1E009D0A1D00800A1D98
:1009100000630A1C00470A1B002C0A1B00110A1A5C
:1009200000F7091A00DD091900C4091900AB0919FB
:1009300000920917007B091800630917004C09167B
:100940000036091600200916000A091500F50815D9
:1009500000E0081400CC081400B8081400A408141F
:1009600000900813007D0812006B0813005808124D
:100970000046081200340811002308110012081163
:100980000001081100F0071000E0071000D0071068
:1009900000C0071000B0070F00A107100091070E5C
:1009A0000083070F0074070F0065070E0057070E3E
:1009B0000049070E003B070D002E070E0020070D13
:1009C0000013070D0006070D00F9060C00ED060DDB
:1009D00000E0060C00D4060C00C8060C00BC060C97
:1009E00000B0060C00A4060B0099060C008D060B47
:1009F0000082060B0077060B006C060B0061060AEE
:100A00000057060B004C060A0042060A0038060A88
:100A1000002E060A0024060A001A060A001006091B
:100A20000007060A00FD050900F4050900EB0509A9
:100A300000E2050900D9050900D0050900C705092C
:100A400000BE050900B5050800AD050800A50509AB
:100A5000009C050800940508008C05080084050822
:100A6000007C050800740508006C05070065050892
:100A7000005D050700560508004E050700470507FD
:100A8000004005080038050700310507002A050762
:100A900000230507001C050600160507000F0507C3
:100AA000000805060002050700FB040600F5040720
:100AB00000EE040600E8040600E2040700DB04067A
:100AC00000D5040600CF040600C9040600C30406CE
:100AD00000BD040600B7040600B1040500AC04061E
:100AE00000A6040600A00405009B0406009504056A
:100AF00000900406008A04050085040500800406B1
:100B0000007A04050075040500700405006B0405F7
:100B10000066040500610405005C04050057040537
:100B200000520405004D0405004804050043040577
:100B3000003E0404003A04050035040500300404B6
:100B4000002C04050027040400230405001E0404EF
:100B5000001A04040016040500110404000D040426
:100B600000090405000404040000040400FC03045C
:100B700000F8030400F4030400F0030400EC030491
:100B800000E8030400E4030400E0030400DC0304C1
:100B900000D8030400D4030400D0030400CC0304F1
:100BA00000C8030300C503030024F404D9201BC4B8
:100BB0000C5C0E9804C4095F0265077101F405F925
:100BC00000FB04B30048048700C1036900580355C3
:100BD0000003034500BE023A008402310053022A9A
:100BE000002902250004022000E4011C00C80119AC
:100BF00000AF011700980114008401130071011067
:100C0000006101100051010E0043010D0036010B7F
:100C1000002B010B0020010B00150109000C01093C
:100C20000003010800FB000800F3000800EB0007C8
:100C300000E4000600DE000600D8000600D2000630
:100C400000CC000500C7000500C2000500BD00047F
:100C500000B9000400B5000400B1000400AD0004B8
:100C600000A9000400A5000300A20003009F0004E7
:100C7000009B00030098000300950002009300030E
:100C800000900003008D0002008B0003008800022A
:100C9000008600020084000300810002007F000241
:100CA000007D0002007B0002007900020077000155
:100CB0000076000200740002007200010071000260
:100CC000006F0002006D0001006C0002006A00016C
:100CD0000069000200670001006600010065000174
:100CE0000064000200620001006100010060000178
:100CF000005F0002005D0001005C0001005B00017C
:100D0000005A00010059000100580001005700017D
:100D1000005600010055000100540001005300007E
:100D20000053000100520001005100010050000179
:100D3000004F0001004E0000004E0001004D000178
:100D4000004C0001004B0000004B0001004A000174
:100D50000049000100480000004800010047000170
:100D6000004600000046000100450000004500016B
:100D70000044000100430000004300010042000065
:100D8000004200010041000000410001004000015C
:100D9000003F0000003F0001003E0000003E000157
:100DA000003D0000003D0001003C0000003C000050
:100DB000003C0001003B0000003B0001003A000045
:100DC000003A00010039000000390001003800003D
:100DD0000038000000380001003700000037000133
:100DE000003600000036000000360001003500002B
:100DF0000035000000350001003400000034000020
:100E00000034000100330000003300000033000113
:100E1000003200000032000000320001003100000A
:100E200000310000003100010030000000300000FF
:100E300000300001002F0000002F0000002F0000F4
:100E4000002F0001002E0000002E0000002E0001E7
:100E5000002D0000002D0000002D0000002D0001DD
:100E6000002C0000002C0000002C0000002C0001D1
:100E7000002B0000002B0000002B0000002B0001C5
:100E8000002A0000002A0000002A0000002A0001B9
:100E900000290000002900000029000000290000AE
:100EA00000290001002800000028000000280000A0
:100EB0000028000000280001002700000027000093
:100EC0000027000000270000002700010026000086
:100ED0000026000000260000002600000026000179
:100EE000002500000025000000250000002500006E
:100EF000002500000025000100240000002400005F
:100F00000024000000240000002400010023000051
:100F10000023000000230000002300000023000045
:100F20000023000000230001002200000022000036
:100F30000022000000220000002200000022000128
:100F4000002100000021000000210000002100001D
:100F5000002100000021000000210001002000000D
:100F60000020000000200000002000000020000001
:100F7000002000000020000000200001001F0000F1
:100F8000001F0000001F0000001F0000001F0000E5
:100F9000001F0000001F0001001E0000001E0000D6
:100FA000001E0000001E0000003930000033250044
:100FB0000087190000B00F0000DB080000BD04002E
:100FC00000740200003F01000053544F505045444C
:100FD0002E20005072696E7465722073746F707089
:100FE00065642064756520746F206572726F72731A
:100FF0002E2046697820746865206572726F7220B1
:10100000616E6420757365204D39393920746F2005
:10101000726573746172742E202854656D706572E8
:1010200061747572652069732072657365742E2012
:1010300053657420697420616674657220726573EB
:1010400074617274696E67290A0021212053544F1C
:10105000502063616C6C65642062656361757365C3
:10106000206F6620424C546F756368206572726F02
:1010700072202D20726573746172742077697468B0
:10108000204D3939390A004F46460A0046616465E9
:10109000204865696768742000426564204C657665
:1010A000656C696E6720004661696C656420746FC9
:1010B00020656E61626C6520426564204C657665D2
:1010C0006C696E670A00496E76616C6964206D65B3
:1010D00073682E0A0050726F62696E6720506F69E4
:1010E0006E740025532025692F25690050726F62A8
:1010F000696E67206D65736820706F696E7420007B
:10110000202844525952554E290047323920417502
:10111000746F20426564204C6576656C696E67006B
:101120003F20284C2C522C462C4229206F757420CD
:101130006F6620626F756E64732E0A0042616420D0
:101140005A2076616C75650A004E6F2062696C6981
:101150006E65617220677269640A00687474703A1F
:101160002F2F6D61726C696E66772E6F72670062E9
:1011700075676669782D322E302E7800436F6E6663
:10118000696775726174696F6E004F6666004F6EB5
:10119000004D6F74696F6E004175746F20486F6DFC
:1011A00065005053550047656E6572696300507263
:1011B0006F746F636F6C00312E3000426175640094
:1011C000313135323030004D656C7A6920284372F8
:1011D00065616C697479290045787472756465720B
:1011E00073004C7563792028323032303038303417
:1011F0002E642900323032302D30362D31390054F2
:101200006865726D6973746F727300426F617264A6
:1012100020496E666F005072696E74657220496E67
:10122000666F0041626F7574205072696E746572EA
:101230000054756E6500496E666F20536372656574
:101240006E00536F667420456E6473746F70730024
:101250004D38340044697361626C65205374657065
:1012600070657273004732380A4D3438205031307F
:10127000004D34382050726F6265205465737400DD
:1012800047323800206D61783A2000206D696E3A4F
:101290002000446966663A2020200046726F6D5334
:1012A00074703A00537465707065723A00556E4CF4
:1012B0006576656C3A004C6576656C65643A0052FB
:1012C00061773A20202020000A4C6F676963616CC7
:1012D0003A00436F756E7420453A004361703A00DE
:1012E000526573656E643A200045202553002364DF
:1012F0006566696E652044454641554C545F004B18
:101300006420004B6920004B70200050494420416C
:1013100075746F74756E652066696E69736865644F
:10132000212050757420746865206C617374204BA3
:10133000702C204B6920616E64204B6420636F6EBB
:101340007374616E74732066726F6D2062656C6F6A
:101350007720696E746F20436F6E6669677572617E
:1013600074696F6E2E680A00504944204175746F8D
:1013700074756E65206661696C6564212074696DA1
:10138000656F75740A000A20436C6173736963208A
:10139000504944200A00204B643A2000204B693A0F
:1013A0002000204B703A20002054753A2000204B3A
:1013B000753A200020643A200020626961733A2067
:1013C00000504944204175746F74756E65207374C4
:1013D0006172740A00504944204175746F74756ECF
:1013E00065206661696C6564212054656D70657265
:1013F000617475726520746F6F20686967680A0090
:10140000504944204175746F74756E65206661693A
:101410006C6564212042616420657874727564652E
:1014200072206E756D6265720A005072696E74206A
:101430005061757365640020746F6F206C6F6E6708
:1014400020657874727573696F6E20707265766549
:101450006E7465640A0020636F6C64206578747232
:101460007573696F6E2070726576656E7465640A57
:1014700000486F6D652025732573257320466972BA
:10148000737400220A00556E6B6E6F776E20636F67
:101490006D6D616E643A2022004C756379202832AC
:1014A000303230303830342E64292052656164790E
:1014B0002E005072696E74696E672E2E2E0000FE2B
:1014C0000003FF8007C7C00701E00000E00000F054
:1014D0000000700400700E00701F00703F80F00E5E
:1014E00000E00F01E007C7C003FF8000FE0000FE20
:1014F0000003FF8007C7C00F01E00E00E03F80F04F
:101500001F00700E00700400700000700000F000FA
:1015100000E00701E007C7C003FF8000FE000E00E7
:101520000E000E000E000E000E000E000E007FC01A
:101530003F801F000E00040004000E001F003F80CB
:101540007FC00E000E000E000E000E000E000E00FA
:101550000E00FFFFFF7F80FFC0FFC0FFC07F807FC6
:1015600080FFC0FFC0FFC03F001E000C004D3330A5
:1015700033205531204525692053256900504944C1
:10158000204175746F74756E65202A005049442D92
:1015900044202A005049442D49202A005049442D16
:1015A00050202A0020082046616374002008204D46
:1015B0006178002008204D696E004175746F746574
:1015C0006D70002121204B494C4C2063617573657F
:1015D0006420627920746F6F206D75636820696E76
:1015E0006163746976652074696D65202D2063756B
:1015F0007272656E7420636F6D6D616E643A200067
:101600004E6F20436865636B73756D2077697468EE
:10161000206C696E65206E756D6265722C204C6160
:101620007374204C696E653A2000636865636B7360
:10163000756D206D69736D617463682C204C6173E6
:1016400074204C696E653A20004C696E65204E75B9
:101650006D626572206973206E6F74204C617374C3
:10166000204C696E65204E756D6265722B312C20A1
:101670004C617374204C696E653A20004D313130F5
:1016800000627573793A2070617573656420666FC6
:101690007220696E7075740A00627573793A2070F1
:1016A000617573656420666F7220757365720A00D8
:1016B000627573793A2070726F63657373696E67D0
:1016C0000A00506C65617365205265736574005043
:1016D00052494E5445522048414C544544002553EC
:1016E0003A202553004B494C4C45442E2000507263
:1016F000696E7465722068616C7465642E206B6914
:101700006C6C28292063616C6C6564210A00656338
:10171000686F3A004572726F723A0042696C696E86
:10172000656172204C6576656C696E6720477269E9
:10173000643A0A00205A3A0020593A002020506C9E
:10174000616E6E6572427566666572427974657324
:101750003A20002046726565204D656D6F72793ABA
:101760002000436F6D70696C65643A204175672095
:10177000203420323032300A00204C6173742055FE
:101780007064617465643A20323032302D30362D09
:101790003139207C20417574686F723A202870615D
:1017A0006469632C204C756379290A006275676649
:1017B00069782D322E302E780A004D61726C696E78
:1017C0000020536F6674776172652052657365748B
:1017D0000A00205761746368646F672052657365FF
:1017E000740A002042726F776E206F757420526504
:1017F0007365740A002045787465726E616C2052BE
:10180000657365740A00506F77657255700A00251C
:101810005320256320256320256320256300656E02
:101820006473746F7073206869743A20000000005C
:1018300001000000010000800055555500000040E7
:101840000033333300AAAA2A004992240000002062
:1018500000C7711C0099991900D1451700555515FD
:10186000003BB113002449120011111100000010B7
:10187000000F0F0F00E3380E0043790D00CCCC0CA5
:1018800000C3300C00E8A20B0064210B00AAAA0AD6
:1018900000703D0A009DD80900427B09009224098E
:1018A00000DCD30800888808001042080000000807
:1018B00000F0C107008787070075500700711C07FB
:1018C000003EEB0600A1BC060069900600666606B5
:1018D00000703E06006118060017F4050074D1057B
:1018E000005BB00500B29005006272050055550519
:1018F0000078390500B81E0500050505004EEC040A
:101900000087D40400A1BD040090A70400499204FC
:1019100000C17D0400EE690400C75604004444047D
:10192000005C32040008210400411004000000049F
:10193000003FF00300F8E0030026D20300C3C30316
:1019400000CCB503003AA803000A9B0300388E03BD
:1019500000C08103009F750300D0690300505E033F
:10196000001D53030034480300913D03003333034B
:101970000016290300381F030097150300300C03DD
:1019800000030303000BFA020049F10200BAE80267
:10199000005CE002002DD802002DD0020059C802E0
:1019A00000B0C0020031B90200DAB10200AAAA02F6
:1019B00000A0A30200BC9C0200FA9502005C8F020A
:1019C00000DF88020082820200457C020027760246
:1019D0000027700200436A02007C640200D05E02AD
:1019E000003F590200C8530200FFFDFCFAF8F6F46C
:1019F000F2F0EEECEAE9E7E5E3E1E0DEDCDAD9D7A4
:101A0000D5D4D2D0CFCDCBCAC8C7C5C3C2C0BFBD45
:101A1000BCBAB9B7B6B4B3B2B0AFADACAAA9A8A6B8
:101A2000A5A4A2A1A09E9D9C9A9998979594939203
:101A3000908F8E8D8B8A8988878684838281807F30
:101A40007E7D7B7A797877767574737271706F6E3C
:101A50006D6C6B6A696867666564636261605F5E2E
:101A60005D5C5B5A59585857565554535251505013
:101A70004F4E4D4C4B4A4A494847464645444342DF
:101A80004241403F3E3E3D3C3B3B3A393838373699
:101A90003535343332323130302F2E2E2D2C2B2B46
:101AA0002A292928272726252524232322212120E6
:101AB000201F1E1E1D1C1C1B1B1A19191818171677
:101AC00016151514131312121111100F0F0E0E0DFF
:101AD0000D0C0C0B0A0A090908080707060605057C
:101AE0000404030302020100001FE0201020102064
:101AF00010102010202010201030300840048003E7
:101B0000001FE03FF03FF03FF01FE01FE03FF03FDD
:101B1000F03FF00FC0078003003FFFF03800703047
:101B2000FC3020FC102078102030102C00D02E31FA
:101B3000D02F7BD02F7BD02E31D02C00D020301056
:101B400020781020FC1030FC303800703FFFF03F50
:101B5000FFF03800703186302387102787902F8759
:101B6000D02F03D020301020781020781020301093
:101B70002F03D02F87D027879023871031863038C6
:101B800000703FFFF01FFFF81FFFF804104002082D
:101B9000200208200410400820801041001041005D
:101BA0000820800410400000001FFFF81FFFF8000D
:101BB000000000006060C3F60C6060C7131860602E
:101BC000CE03186060CC01B06060CC01B06060DC16
:101BD00000E06060CC00C060608C00C060618E007E
:101BE000C07F3B87B0C07F1F03F0C0000000000033
:101BF0002020202020202000416476616E636564EF
:101C00002053657474696E67730053746F72652036
:101C100053657474696E6773004C6F61642053651B
:101C20007474696E6773004C6576656C20436F72DF
:101C30006E65727300466164652048656967687403
:101C40000045646974204D657368004732380A475F
:101C50003239004C6576656C2042656400436D64E2
:101C60003A2053746F7700436D643A2053572D4DDB
:101C70006F646500436D643A204465706C6F790051
:101C8000436D643A2053656C662D5465737400434C
:101C90006D643A20526573657400526573746F7297
:101CA000652044656661756C747300424C546F75B1
:101CB000636800313235004245443A4550434F5342
:101CC000203130304B0052756E6177617920576159
:101CD0007463683A204F4E004D61782054656D70F2
:101CE00000323735004D696E2054656D7000453106
:101CF0003A204550434F53203130304B0054656DEE
:101D000070657261747572650050726F6265205AF9
:101D1000204F6666736574004D61696E0050726590
:101D20006865617420504C412042656400507265C2
:101D30006865617420504C4120456E6400507265A6
:101D400068656174204142532042656400507265A9
:101D5000686561742041425320456E6400436F6F93
:101D60006C646F776E0050726568656174204142E3
:101D700053005072656865617420504C41004661A3
:101D80006E205370656564004E6F7A7A6C6500460C
:101D90006C6F77003F00454550524F4D205665729D
:101DA00073696F6E204572726F7200454550524FD5
:101DB0004D20496E646578204572726F720045450A
:101DC00050524F4D20435243204572726F7200496A
:101DD000676E6F726500496E697469616C697A65D6
:101DE00020454550524F4D0053657474696E6773BA
:101DF0002053746F7265640053657474696E677301
:101E00002053746F7265642028004572723A207501
:101E100074663820666F6E74206E6F7420696E6908
:101E20007469616C697A65642E002568753A25309D
:101E300032687500256875642025303268753A254A
:101E40003032687500000C0F00FE07022603BC014B
:101E50007FFE08FE08FE05080806000040F0C8885E
:101E600088987810050808060000C0F888888888D7
:101E700088F80505050600012030F830200508081F
:101E80000600002070F820202020E0050909060047
:101E9000FF2070A8A8B888887020050606060001F3
:101EA000E08CEA8C8A0A0509090600FFF8A88888F0
:101EB000888888A8F8050A0A0600FE20505050506D
:101EC00088A8A8887003030306000340A040FFFF12
:101ED000FFFFFFFFFFFFFFFFFFFFFFFFFFFFFFFF12
:101EE000FFFFFFFF0000000605FF010707060200D5
:101EF00080808080800080030303060105A0A0A0ED
:101F000005060606000050F85050F850050909066D
:101F100000FF2070A8A07028A87020050707060001
:101F200000C8C8102040989805070706000040A088
:101F3000A040A89068010303060205808080030981
:101F4000090601FF204040808080404020030909AD
:101F50000601FF8040402020204040800507070602
:101F6000000020A8702070A82005050506000120AB
:101F700020F820200203030601FFC0408005010174
:101F8000060003F8020202060100C0C005070706AA
:101F90000000081010204040800507070600007070
:101FA0008898A8C8887003070706010040C0404011
:101FB0004040E0050707060000708808102040F840
:101FC000050707060000F8081030088870050707A5
:101FD00006000010305090F81010050707060000AA
:101FE000F880F00808887005070706000030408078
:101FF000F0888870050707060000F80810102020F8
:10200000200507070600007088887088887005071B
:102010000706000070888878081060020505060130
:1020200000C0C000C0C00206060601FFC0C000C05C
:102030004080030505060101204080402005030380
:10204000060002F800F80305050601018040204063
:102050008005070706000070881020200020050773
:10206000070600007088B8A8B8807005070706004A
:1020700000708888F8888888050707060000F048FF
:1020800048704848F0050707060000708880808087
:102090008870050707060000F04848484848F005E2
:1020A0000707060000F88080F08080F80507070623
:1020B0000000F88080F0808080050707060000702F
:1020C000888080988870050707060000888888F84F
:1020D000888888030707060100E04040404040E050
:1020E000050707060000381010101090600507075C
:1020F0000600008890A0C0A0908805070706000091
:10210000808080808080F805070706000088D8A8B6
:10211000888888880507070600008888C8A89888E6
:10212000880507070600007088888888887005077A
:1021300007060000F08888F0808080050707060009
:102140000070888888A89068050707060000F08856
:1021500088F0A09088050707060000708880700846
:102160008870050707060000F820202020202005A1
:102170000707060000888888888888700507070692
:1021800000008888888850502005070706000088CE
:10219000888888A8A850050707060000888850206E
:1021A00050888805070706000088885020202020D6
:1021B000050707060000F80810204080F803090909
:1021C0000601FFE080808080808080E005070706B0
:1021D0000000804040201010080309090601FFE0BC
:1021E00020202020202020E00503030600052050A9
:1021F000880501010600FEF803030306010580407F
:102200002005050506000070087888780507070690
:1022100000008080F0888888F005050506000070C1
:10222000808088700507070600000808788888887D
:10223000780505050600007088F080700507070620
:102240000000304840E04040400507070600FE70AF
:102250008888887808700507070600008080F08865
:102260008888880307070601004000C0404040E01E
:102270000409090601FE10003010101010906005CE
:10228000070706000080808890E090880307070613
:102290000100C04040404040E0050505060000D078
:1022A000A8A8A8A8050505060000B0C88888880564
:1022B000050506000070888888700507070600FE7F
:1022C000F0888888F080800507070600FE788888F7
:1022D00088780808050505060000B0C880808005DC
:1022E000050506000078807008F005070706000065
:1022F0002020F82020201805050506000088888881
:1023000098680505050600008888885020050505A1
:102310000600008888A8A85005050506000088501A
:102320002050880507070600FE88888850204080D6
:10233000050505060000F8102040F803090906010C
:10234000FF2040404080404040200109090602FF34
:102350008080808080808080800309090601FF8062
:10236000404040204040408005030306000248A84A
:1023700090FF1FFFFFFFFFFFFF600000000001FF55
:10238000400000000000FF8000000000007F83CFBD
:1023900000000C303F87FF80000C301F86798000E2
:1023A0000C000F8C30C7838C30E78C30CFC7CC311A
:1023B000F38C30DCECEC33B98C30D86C6C33198C8A
:1023C00030D06C0C33198C30D86C0C33198C30DC59
:1023D0006C0E3B198C30CF7C079F198C30C77C0367
:1023E0008F1940000000000002600000000000069D
:1023F0001FFFFFFFFFFFF86F70656E0054524947E3
:102400004745524544007A5F6D696E00795F6D699A
:102410006E00785F6D696E005265706F7274696EE0
:102420006720656E6473746F702073746174757364
:102430000A005761726E696E673A20486F6D696E67
:10244000672042756D702044697669736F72203C15
:1024500020310A000202040000A0400000A0400059
:10246000000040202D20496E76616C6964206578FB
:10247000747275646572206E756D62657220210AD2
:1024800000544845524D414C2052554E41574159F8
:1024900000546865726D616C2052756E6177617968
:1024A000004572723A204D415854454D50004D41FF
:1024B0005854454D502074726967676572656400B1
:1024C0004572723A204D494E54454D50004D494E8B
:1024D00054454D50207472696767657265640020C9
:1024E0002F002042403A0020403A0070012C019019
:1024F000012701B0012201C0011D01F001180110E6
:1025000002130130020E016002090190020401C0B1
:1025100002FF000003FA004003F5008003F000D042
:1025200003EB002004E6007004E100E004DC00405E
:1025300005D700C005D2004006CD00D006C80080F7
:1025400007C3003008BE00F008B900C009B400B0ED
:102550000AAF00B00BAA00D00CA500000EA00050DE
:102560000F9B00C01096005012910000148C00C008
:10257000158700B0178200B0197D00D01B780000CD
:102580001E730040206E0090226900F02464004019
:10259000275F0090295A00E02B5500102E50002094
:1025A000304B0010324600E033410090353C0010C3
:1025B00037370070383200A0392D00B03A2800A01B
:1025C0003B2300603C1E00103D1900903D1400109C
:1025D0003E0F00703E0A00C03E0500003F00004074
:1025E0003FFBFF803FF6FFC03FF1FF3F28562965C4
:1025F00072626F7365206C6576656C20696D706CB6
:1026000061757369626C652028302D34292E0A00AB
:10261000446576696174696F6E0025533A202573AD
:10262000005374616E6461726420446576696174FC
:10263000696F6E3A20002052616E67653A20004D46
:1026400065616E3A200046696E6973686564210AA7
:10265000002072616E67653A2000207369676D61C2
:102660003A2000206D65616E3A20003A207A3A20C7
:1026700000206F662000476F696E6720746F3A20F4
:10268000580043570A00206469723A0020616E675F
:102690006C653A0053746172742072616469757379
:1026A0003A004D343820506F696E740025533A203B
:1026B00025642F256400506F736974696F6E696EAD
:1026C00067207468652070726F62652E2E2E0A0076
:1026D0003F4E756D626572206F66206C6567732072
:1026E000696E206D6F76656D656E74206E6F7420F7
:1026F000706C61757369626C652028302D313529E5
:102700002E0A003F2028582C5929206F7574206FFD
:102710006620626F756E64732E0A003F53616D70A0
:102720006C652073697A65206E6F7420706C6175BA
:102730007369626C652028342D3530292E0A004DCE
:102740003438205A2D50726F626520526570656171
:10275000746162696C69747920546573740A00202D
:102760004D3932205800496E76616C696420506999
:102770006E204D6F64650A0020496E76616C696455
:102780002065787472756465722000000021002451
:102790000027002A0000002200250028002B00004E
:1027A0000020002300260029000202020202020289
:1027B00002040404040404040403030303030303E2
:1027C000030101010101010101010204081020407F
:1027D00080010204081020408001020408102040FB
:1027E000808040201008040201000000010200095E
:1027F0000A000000000403080700000000000000B9
:102800000000000000000000004D6F766520257379
:102810006D6D004D6F766520302E316D6D004D6F02
:10282000766520316D6D004D6F76652031306D6DB0
:10283000004D6F7665204178697300486F74656E4E
:102840006420746F6F20636F6C64004578747275D8
:10285000646572004D6F7665205A004D6F76652075
:1028600059004D6F76652058004572726F7220775F
:10287000726974696E6720746F20454550524F4DE0
:10288000210A000F150E1216170E1303021A140157
:10289000000E0DFF180C040C1900014573746570CF
:1028A000732F6D6D005A73746570732F6D6D0059C1
:1028B00073746570732F6D6D005873746570732F2A
:1028C0006D6D0053746570732F6D6D004E65787477
:1028D00020436F726E657200446F6E65004E6578BE
:1028E0007400486F6D696E672058595A005A205617
:1028F000616C756500496E646578205900496E64A5
:1029000065782058002062797465733B2063726398
:1029100020004E6F20454550524F4D2E0A00454530
:1029200050524F4D206461746173697A65206572FD
:10293000726F722E0A002073746F72656420736563
:102940007474696E67732072657472696576656404
:10295000202800202863616C63756C6174656429AC
:10296000210A0020213D2000454550524F4D204373
:102970005243206D69736D61746368202D20287344
:10298000746F7265642920002053697A653A2000CB
:10299000496E6465783A2000204D61726C696E3D25
:1029A000563830290A00454550524F4D2076657201
:1029B00073696F6E206D69736D617463682028455B
:1029C0004550524F4D3D00456E636C6F7375726597
:1029D0000048617264636F64656420446566617574
:1029E0006C742053657474696E6773204C6F6164F6
:1029F00065640A003B200020204D38353120580006
:102A00005A2D50726F6265204F66667365740020A0
:102A1000440020204D333031205000504944207371
:102A2000657474696E67733A002046002048002080
:102A3000204D3134352053004D6174657269616CED
:102A40002068656174757020706172616D65746570
:102A500072733A00204A002020473239205720491B
:102A60000020204D3432302053004175746F2042D5
:102A70006564204C6576656C696E673A0020204D70
:102A8000323036205800486F6D65206F666673657A
:102A9000743A0020204D3230352042004164766186
:102AA0006E6365643A20423C6D696E5F7365676D65
:102AB000656E745F74696D655F75733E20533C6D20
:102AC000696E5F66656564726174653E20543C6D35
:102AD000696E5F74726176656C5F6665656472616C
:102AE00074653E20583C6D61785F785F6A65726BF3
:102AF0003E20593C6D61785F795F6A65726B3E205C
:102B00005A3C6D61785F7A5F6A65726B3E20453C26
:102B10006D61785F655F6A65726B3E0020204D32A3
:102B20003034205000416363656C65726174696F75
:102B30006E2028756E6974732F7332293A20503CC9
:102B40007072696E745F616363656C3E20523C72A3
:102B50006574726163745F616363656C3E20543CAD
:102B600074726176656C5F616363656C3E00202002
:102B70004D3230312058004D6178696D756D2041BE
:102B80006363656C65726174696F6E2028756E6928
:102B900074732F7332293A0020450020204D3230C3
:102BA000332058004D6178696D756D2066656564E8
:102BB00072617465732028756E6974732F73293A76
:102BC0000053746570732070657220756E69743A75
:102BD0000020204D3134392043203B20556E69744C
:102BE0007320696E2043656C736975730A00202831
:102BF0006D6D29002020473231202020203B2055B8
:102C00006E69747320696E206D6D00486F6D696E1A
:102C100067204661696C6564000000FA430000FAB1
:102C2000430000A0400000C8410000A0420000A0F6
:102C3000420000C8430000D342F4010000F4010048
:102C400000640000008813000020436F756E74203C
:102C5000583A004D313036205000453100626564ED
:102C6000002C2073797374656D2073746F707065B8
:102C70006421204865617465725F49443A200048C8
:102C8000656174696E67204661696C6564004865BA
:102C90006174696E67206661696C6564004D3131ED
:102CA000322053687574646F776E00205A3A2000A2
:102CB00020593A200042656420583A200050726F33
:102CC00062696E67204661696C65640A0050726FC4
:102CD00062696E67204661696C656400C5DD112418
:102CE0001FBECFEFD0E4DEBFCDBF11E0A0E0B1E06A
:102CF000E2EEFAED01E00BBF02C007900D92AE3F8D
:102D0000B107D9F720E1AEEFB1E001C01D92AD32BD
:102D1000B207E1F716E1CFE6D6E104C02197FE0144
:102D20000E9488EACE36D107C9F70E9401D90C94D7
:102D30006FED0C940000A2E3B0E0E1EAF6E10C9440
:102D400091EA209135032AA721E020933503809151
:102D500034038D3409F4D7C3843511F40C9414264C
:102D6000873411F00C942F26809132039091330315
:102D70008C31910509F435C18CF48430910509F446
:102D8000D2C01CF4029738F1BAC38531910511F411
:102D90000C9431264B9709F404C1B1C38A329105D2
:102DA00009F486C244F48D31910509F42AC14E9785
:102DB00009F43BC1A4C38B35910509F4F6C18C35E8
:102DC000910509F4F7C18A35910509F098C310926D
:102DD00031030C94312680913003813011F00C9432
:102DE000312610E2C12E13E0D12E81E3E82E84E0DB
:102DF000F82E9DEFA92E9FE0B92E10E088E5810FF7
:102E00000E94C639882319F10E94CA372B013C0160
:102E1000812F0E9410A8882351F0D7012D913D9158
:102E20004D915C91C301B2010E94C9EA09C0F5014C
:102E30002081318142815381C301B2010E94C8EADD
:102E4000D6016D937D938D939C9313970AC0F701E0
:102E500080819181A281B381F60180839183A283D5
:102E6000B3831F5FF4E0CF0ED11C24E0E20EF11C0F
:102E700034E0A30EB11C133009F685E40E94C63974
:102E8000882301F10E94CA376B017C0183E00E9414
:102E900010A8882371F020913D0430913E044091A8
:102EA0003F0450914004C701B6010E94C9EA6B017A
:102EB0007C01C0922C03D0922D03E0922E03F0925D
:102EC0002F0310C080913D0490913E04A0913F04D7
:102ED000B091400480932C0390932D03A0932E0374
:102EE000B0932F0340E050E0BA0186E40E94CA4646
:102EF00020E030E0A9010E9468EC181684F40E94DA
:102F0000CA3720E030E040E752E40E9443EB609390
:102F10006B0170936C0180936D0190936E010E9420
:102F2000849A0C94312680E50E94C639882329F0C2
:102F30000E9424A96B017C0103C0C12CD12C760115
:102F400083E50E94C639882361F00E94CA3720E0D9
:102F500030E04AE754E40E9421E40E94B0EB6B01A8
:102F60007C010E9479738091CB02811105C060E0E1
:102F70008FE697E00E94D28F0E94776FC60ED71E11
:102F8000E81EF91E0E94776FDC01CB018C199D09A8
:102F9000AE09BF09B7FD02C00C9431260E947B6BBD
:102FA000F1CF0E94CC5D81110C9431268CE0E5E7D5
:102FB000F1E0DE01119601900D928A95E1F780E52E
:102FC0000E94C639882321F00E949737CB0102C0A6
:102FD00080E090E0BE016F5F7F4F0E94148F0C94E1
:102FE00031268091CA028770873011F00C944426F4
:102FF00060E08FE40E94E83981110C9431260C9432
:1030000044260E94CC5D81110C9431268091C90226
:10301000882311F40C94682860E08FE40E94E8395A
:1030200081110C9431260C9468282091091030915C
:103030000A1040910B1050910C1060913104709166
:10304000320480913304909134040E94C9EAAB01A8
:10305000BC0188E50E94CA4669837A838B839C837E
:1030600020910D1030910E1040910F1050911010C2
:103070006091350470913604809137049091380442
:103080000E94C9EAAB01BC0189E50E94CA466D8372
:103090007E838F839887BE016B5F7F4FCE01019641
:1030A0000E94E835882311F40C94312680E00E94B8
:1030B00086670E94EC9D61E085E40E94E83921E08A
:1030C000482FBE016B5F7F4FCE0101960E94FDD35A
:1030D0006B017C019B01AC010E94E5EC81115FC09A
:1030E00089809A80AB80BC8020E030E0A901C501D6
:1030F000B4010E94BCE387FF05C027E137EB41E53F
:1031000058EB04C027E137EB41E558E3C501B401B2
:103110000E94C9EAAB01BC0185EB9CE20E94D46A23
:103120008D809E80AF80B88420E030E0A901C50189
:10313000B4010E94BCE387FF05C027E137EB41E5FE
:1031400058EB04C027E137EB41E558E3C501B40172
:103150000E94C9EAAB01BC0180EB9CE20E94D46AE8
:1031600020E030E0A901C701B6010E94BCE387FF5F
:1031700005C067E177EB81E598EB04C067E177EB89
:1031800081E598E3A70196010E94C9EAAB01BC0161
:103190008BEA9CE20E94D46A8AE00E94B9B50E9440
:1031A000D39D0E9417A10C9431268FE080933103A8
:1031B0000C943126ECED2E2EE1E03E2EFBEBEF2EB3
:1031C000F2E0FF2EA1E3B4E0BF8FAE8FADEFCA2EC9
:1031D000AFE0DA2E00E010E0F10181911F010E94C2
:1031E000C639882309F44AC00E94CA372B013C0122
:1031F000133049F0D6012D913D914D915C910E9483
:10320000C8EA2B013C01EE8DFF8D20813181428186
:103210005381C301B2010E94C8EA4B015C012DEB4E
:1032200037E346E855EB0E9468EC87FD0AC02DEBBA
:1032300037E346E855E3C501B4010E94BCE3181624
:10324000ECF4133051F440923D0450923E046092ED
:103250003F047092400401E011C0A5019401D70120
:103260006D917D918D919C910E94C9EAF7016083D7
:10327000718382839383812F0E94519A1F5FF4E0B0
:10328000EF0EF11C2E8D3F8D2C5F3F4F3F8F2E8F09
:1032900034E0C30ED11C143009F09ECF002321F07E
:1032A0008DE394E00E9434770E9417A10C9431269C
:1032B00080913003813011F00C94312689E40E9412
:1032C000C639E82E882321F00E94C737082F01C095
:1032D00000E08AE40E94C639F82E882321F00E947B
:1032E000C737182F01C010E0EE2011F0053020F490
:1032F000FF2041F0153030F086E197E00E943B6AF4
:103300000C94312680E1E1E3F4E0A0E2B3E0019027
:103310000D928A95E1F7EE2019F1602F000F770BDF
:10332000880B990B0E94C2E32091AB023091AC0252
:103330004091AD025091AE020E9421E42091B3026F
:103340003091B4024091B5025091B6020E94C9EA90
:1033500060932003709321038093220390932303AF
:10336000FF2019F1612F110F770B880B990B0E9429
:10337000C2E32091AF023091B0024091B10250916E
:10338000B2020E9421E42091B7023091B80240912C
:10339000B9025091BA020E94C9EA60932403709363
:1033A0002503809326039093270360E080E50E9425
:1033B000E8398823C1F1EE20D1F020910910309135
:1033C0000A1040910B1050910C10609120037091E5
:1033D000210380912203909123030E94C8EA609305
:1033E0002003709321038093220390932303FF20F3
:1033F000D1F020910D1030910E1040910F1050918E
:103400001010609124037091250380912603909100
:1034100027030E94C8EA60932403709325038093D6
:1034200026039093270340E050E0BA0186E40E940F
:10343000CA466B017C0120E030E0A9010E9468ECE3
:1034400018165CF420E030E040E752E4C701B60112
:103450000E9443EB6B017C0103C0C12CD12C76018F
:1034600080906B0190906C01A0906D01B0906E0106
:1034700020E030E0A901C701B6010E94BCE3882327
:1034800041F0C0926B01D0926C01E0926D01F0921C
:103490006E01009121011091220184E690E0909349
:1034A000220180932101C0902C01D0902D01E09049
:1034B0002E01F0902F0180E090E0A0E8BFE3809320
:1034C0002C0190932D01A0932E01B0932F010E9407
:1034D000849A80926B0190926C01A0926D01B092DF
:1034E0006E011093220100932101C0922C01D09211
:1034F0002D01E0922E01F0922F010C9431260E94B2
:10350000BE5D0C943126809132039091330388374D
:10351000910509F4E9C50CF00DC18535910509F453
:10352000D1C40CF048C08934910509F4F5C2FCF40B
:103530008231910509F499C46CF497FF02C00C9490
:103540001126823091050CF4B5C1419709F412C2DD
:103550000C9411268A32910509F4D6C28033910564
:1035600009F4D6C24F9711F00C94112620C2813570
:10357000910509F45FC48CF48C34910509F4FEC202
:103580008D34910509F40FC38B34910511F00C941F
:1035900011260E942EB30C9431268335910509F42F
:1035A0005DC40CF062C4809131038F7D8061809393
:1035B00031030C9431268E36910509F45FC3E4F48F
:1035C0008A36910509F42BC364F48836910509F411
:1035D000EEC20CF010C38C35910509F496C40C941E
:1035E00011268C36910511F40C9431260CF43DC350
:1035F0000E94854A0C9431268237910509F423C52F
:1036000044F48037910511F40C9431260CF447C32F
:1036100090C38537910509F419C50CF07EC0833736
:10362000910511F00C94112680EB95E00E943B6A05
:1036300060E080EA95E00E940A4E60E08BE895E049
:103640000E940A4E61E081EE9DE10E940A4E60E018
:1036500080E895E00E940A4E61E080E795E00E94D4
:103660000A4E60E087E695E00E940A4E61E08DE533
:1036700095E00E940A4E61E083E595E00E940A4EC3
:1036800061E08BE495E00E940A4E61E08DE395E0F5
:103690000E940A4E61E08FE295E00E940A4E60E0CF
:1036A00080E295E00E940A4E60E082E195E00E948F
:1036B0000A4E60E08CEF94E00E940A4E61E08BEECF
:1036C00094E00E940A4E60E08CED94E00E940A4E65
:1036D00060E085ED94E00E940A4E60E080EC94E0AA
:1036E0000E940A4E60E082EB94E00E940A4E61E084
:1036F0008FE994E00E940A4E60E082E994E00E9423
:103700000A4E61E085E894E00E940A4E60E081E79D
:1037100094E00E940A4E0C9431268637910509F4F4
:10372000A9C48737910511F00C9411260E9488A135
:103730000C9431268D3241E0940711F40C94092445
:103740000CF054C08C3C910509F475C544F58B39D7
:10375000910509F449C3ACF48C38910509F410C300
:103760008139910509F4C7C48937910511F00C948A
:1037700011261092C8021092C7020E94D7A10C9481
:103780003126893C910509F411C58B3C910509F45A
:1037900033C58E3B910511F00C94112613C38C3D5B
:1037A000910509F473C664F48E3C910509F48AC549
:1037B0000CF475C5833D910509F4A2C50C9411263E
:1037C000823E910509F4D3C634F48D3D910509F488
:1037D00084C60C9411268831A1E09A0709F411C718
:1037E0008232914009F4A4C70C941126853AE1E095
:1037F0009E0711F40C94DD2484F5813921E09207B1
:1038000011F40C94D02494F48F3241E0940711F415
:103810000C94CD2414F40C9489248039914011F037
:103820000C9411260E9479730C9431268A39B1E0E8
:103830009B0711F40C943126843AE1E09E0711F4C1
:103840000C94DA248239914011F00C9411260E94D4
:10385000DF350E9417A10C943126863F21E09207A4
:1038600011F40C94B52584F4843F41E0940711F4DD
:103870000C94AF2514F00C94B2258C3A914011F4BD
:103880000C9453250C941126883FB1E09B0711F44A
:103890000C94C12514F40C94B8258335F3E09F07EC
:1038A00011F40C94D225873E934011F40C94032616
:1038B0000C94112680E50E94C639882329F00E94C5
:1038C00024A96B017C0103C0C12CD12C760183E5B6
:1038D0000E94C639882361F00E94CA3720E030E098
:1038E0004AE754E40E9421E40E94B0EB6B017C01A2
:1038F0000E9479738091A9029091AA02009739F0F1
:1039000020912C04211108C00E94A38F05C060E003
:1039100083E097E00E94D28F1091350383E080937B
:10392000350381E08093A802C114D104E104F104BD
:1039300031F00E94776FC60ED71EE81EF91E8091E7
:10394000A802882311F40C946F28C114D104E10457
:10395000F10411F40C946B280E94776FDC01CB0109
:103960008C199D09AE09BF09B7FF02C00C946B28E2
:103970000C946F288091A40284FF02C00C947628D6
:103980008091A60287FF02C00C9476288091A7023E
:10399000837011F00C94762860E08AEF96E00E9424
:1039A000D28F5E985E9815985E980C9431260E948E
:1039B000E88B6B017C0120E831E541E050E00E949A
:1039C000F8E9C9016DE671E00E9461EA4B015C0112
:1039D000C701B60120E13EE040E050E00E94F8E976
:1039E000CA01B90128E130E040E050E00E94F8E966
:1039F0002B013C011B01C701B6012CE330E040E084
:103A000050E00E94F8E96B017C01CA01B9012CE386
:103A100030E040E050E00E94F8E98E010F5F1F4F58
:103A20008114910499F0DF92CF927F936F935F920C
:103A30004F92BF92AF929F928F9289ED96E09F93A3
:103A40008F931F930F930E9456E313C0A114B104E8
:103A5000B1F0DF92CF927F936F935F924F92BF92BC
:103A6000AF928DED96E09F938F931F930F930E94DB
:103A700056E30FB6F894DEBF0FBECDBF32C041147F
:103A8000510479F0DF92CF927F936F935F924F92C0
:103A900081EE96E09F938F931F930F930E9456E3BE
:103AA000E8CF6115710569F0DF92CF927F936F9334
:103AB00085EE96E09F938F931F930F930E9456E39A
:103AC000D8CFDF92CF9289EE96E09F938F931F938A
:103AD0000F930E9456E30F900F900F900F900F904E
:103AE0000F9080912C04811103C0C8010E94A38F04
:103AF0000E94026BB8018DEE96E00E94F26A8AE0A5
:103B00000E94B9B50C9431260E942EA80C9431263F
:103B10000E9434A90C94312680E50E94F637882350
:103B2000A1F00E94CA3720E030E048EC52E40E9445
:103B300021E40E94B0EB6031F7E27F0710F060E112
:103B400077E270939F0260939E0282E50E94F637AF
:103B5000882311F40C9431260E9424A99B01AC0106
:103B6000ACE3B0E00E9436EA6093A0027093A10239
:103B70008093A2029093A3020C943126809130048A
:103B8000813011F00C94312682E0809330040E9441
:103B9000776F60939A0270939B0280939C0290933C
:103BA0009D020C9431260E94378C0C943126809112
:103BB0002D0A83FF02C00C9431260E94E7A787FFDD
:103BC00002C00C94312683E50E94C639882379F01F
:103BD0000E94CA370E94ABEBCB010E94B3A30E94A4
:103BE000CFA5811104C00E94378C0E94AD5D0E9458
:103BF000D5720C9431260E94E7A7182F87FD0AC0C2
:103C000081EB92E00E943B6A812F0E94C3A38AE06D
:103C10000E94B9B52AA5209335030C94312C60E09D
:103C200080E50E94DE3981110C94312681E40E94E6
:103C3000F637882329F060916904062F10E002C04E
:103C40000FEF10E083E50E94C639882349F00E94F7
:103C500097378B016F3F710519F010F00FEF10E0EF
:103C6000B80180E00E9413D3FCC760E080E50E94A9
:103C7000DE3960E070E00E9413D3F3C78EE40E9447
:103C8000C639882309F4EDC70E94973760939602DE
:103C9000709397028093980290939902E2C783E50C
:103CA0000E94F637882331F060E083E50E94DE3918
:103CB00080932D0A0E94026B82ED96E00E943B6A7F
:103CC00080912D0A882369F174E8E72E77E0F72EBA
:103CD00000E010E020E080912D0A90E0A0E0B0E04C
:103CE000002E04C0B695A795979587950A94D2F7AC
:103CF00080FF0EC0DD24D394D20E222319F08CE273
:103D00000E94B9B5F701859194910E943B6A2D2DCF
:103D10000F5F1F4F32E0E30EF11C05301105D9F69D
:103D200004C08EEC96E00E943B6A8AE00E94B9B51E
:103D300098C783E50E94C639882371F00E94A7378F
:103D4000282F30E02D3331051CF48093200189C7E2
:103D50008CE38093200185C70E94026BC0902001F4
:103D6000D12CE12CF12C87EC96E00E943B6A4AE0D2
:103D7000C701B6010E94C0B58AE00E94B9B571C7FB
:103D800080912D0A83FD6DC783E50E94C639882383
:103D900009F467C70E94CA370E94ABEB633771050D
:103DA00014F063E770E070939402609393020E94B2
:103DB0003AA20E94CFA5811154C70E94378C0E945D
:103DC000AD5D4FC780912D0A83FD4BC783E50E94EF
:103DD000C639082F81110C94882882E50E94C639C3
:103DE00081110C9488283DC783E50E94C639882339
:103DF00009F437C70E94A737182F90E0CD970CF031
:103E00001CE3109386020E94776F6B017C01212FC7
:103E100030E0A8EEB3E00E9446EAC60ED71EE81EC8
:103E2000F91EC0928202D0928302E0928402F09244
:103E3000850217C70E94E2A50E94378C0E948973F1
:103E40000E9429A868EE73E080E090E00E94166A64
:103E500060E082E996E00E94D28F03C7809131032F
:103E60008F7E806280933103FCC683E50E94C63951
:103E7000882399F00E94CA3720E030E04AE754E4F2
:103E80000E9421E40E94B0EB60931B0170931C011F
:103E900080931D0190931E01E4C68091A40284FFCB
:103EA00002C00C94FF298091A60287FF02C00C94E7
:103EB000FF298091A702837011F00C94FF290E94C2
:103EC0008973CFC683E50E94F637882309F4C9C6F3
:103ED0000E94776F609387027093880280938902B3
:103EE00090938A020E94CA3720E030E04AE754E407
:103EF0000E9421E40E94B0EB60937E0270937F02E7
:103F00008093800290938102ACC60E94E7A787FD50
:103F1000A8C69091A40294FD04C09091A60297FFB8
:103F20000AC04CEDC42E41E0D42E5EE2E52E5AE0EC
:103F3000F52E10E009C09091A702937091F7682FB9
:103F400081E00E94E9A88DC6D6018D916D010E9485
:103F5000C639882309F46DC0133009F063C00E948C
:103F6000CA374B015C0120E030E040EA51E40E9496
:103F7000BCE387FF4EC0A501940160914E0A709189
:103F80004F0A8091500A9091510A0E9443EB2B01F5
:103F90003C019B01AC0160914D0470914E048091F5
:103FA0004F04909150040E9421E460934D0470935B
:103FB0004E0480934F0490935004A30192016091AA
:103FC0005E0A70915F0A8091600A9091610A0E9476
:103FD00021E460935E0A70935F0A8093600A909375
:103FE000610A60915D0470915E0480915F0490911C
:103FF00060040E94C0E3A30192010E9421E40E9498
:10400000B0EB60935D0470935E0480935F049093C3
:10401000600480924E0A90924F0AA092500AB09289
:10402000510A07C00E94CA37F701648B758B868BD3
:10403000978B1F5FF4E0EF0EF11C143009F084CF72
:104040000E9455730EC60E94254E0BC68091A90290
:104050009091AA02009759F0DC012C91222339F0AB
:1040600020912C042111FDC50E94A38FFAC50E9446
:10407000AD5DF7C50091A9021091AA0294E0F12C60
:1040800040E0915021F1F8018081282F2B7F2134CD
:1040900021F421812133D9F407C08035C1F4818115
:1040A00080538A3048F013C0813421F0853421F4E4
:1040B00041E002C0FF24F39498012E5F3F4F890135
:1040C0002F5F3F4FF80180818032C9F3DACF411171
:1040D0000E94026BFF2021F08DE694E00E943B6A73
:1040E000C8010E94AAB6BDC52093C8022093C7028A
:1040F0000E94D7A1B6C560E070E083E50E94D23986
:104100008C011127023011053CF00E94FF6A8BE4FC
:1041100094E00E943B6AA5C588E40E94C6398823C2
:10412000A9F00E94C7378A3A91053CF08530F1E04A
:104130009F072CF084E091E002C08AEA90E0F80149
:10414000EE0FFF1FE658FD4F9183808386E40E94A7
:10415000C639882381F00E94C73797FD07C08F3F7B
:10416000910529F024F08FEF90E001C080E0F80184
:10417000E858FD4F808382E40E94C639882309F401
:1041800070C50E94C7378530910534F0843791059A
:104190002CF083E790E002C085E090E0000F111F53
:1041A000F801EC58FD4F918380835BC50E94E7A71F
:1041B00087FD57C58CEDE82E81E0F82E0EE21AE05F
:1041C0009EE3C92E9AE0D92ED7018D917D010E94E0
:1041D000F637882359F00E94CA370E94B0EBF801E5
:1041E00060837183828393830E9414730C5F1F4FDB
:1041F000C016D10649F735C50E94E7A787FD31C52E
:104200000CEDE02E01E0F02E0EE21AE0D7018D91C8
:104210007D010E94F637882339F00E94CA37F801E1
:1042200064A375A386A397A30C5F1F4FFAE00E3318
:104230001F0761F716C58091A50287FF02C00C9485
:10424000242A8091A6028E7011F00C94242A4091A9
:10425000620A5091630A6091640A7091650A8BE367
:1042600094E00E94D46A4091660A5091670A609176
:10427000680A7091690A88E394E00E94D46A4091C8
:104280006A0A50916B0A60916C0A70916D0A85E31D
:1042900094E00E94D46A8AE00E94B9B5E2C4809199
:1042A000A402827111F00C946A2A8091A6028C7883
:1042B00011F00C946A2A8091A702837011F00C947B
:1042C0006A2ACFC418E6E12E12E0F12E10E088E54C
:1042D000810F0E94F637882359F00E94CA37D70110
:1042E0006D937D938D939C931397812F0E94519A88
:1042F0001F5FB4E0EB0EF11C133049F70C94541916
:104300004090FD0F5090FE0F6090FF0F70900010D6
:104310002091030130910401409105015091060163
:10432000C301B2010E94C9EA6E8F7F8F88A399A34F
:104330008090011090900210A0900310B090041093
:1043400020910701309108014091090150910A0123
:10435000C501B4010E94C9EA6AA37BA38CA39DA3F3
:10436000C0900510D0900610E0900710F090081053
:1043700020910B0130910C0140910D0150910E01E3
:10438000C701B6010E94C9EA6EA37FA388A799A7B7
:1043900020910F01309110014091110150911201B3
:1043A000C301B2010E94C9EA2B013C012091130113
:1043B000309114014091150150911601C501B401CD
:1043C0000E94C9EA4B015C0120911701309118014C
:1043D0004091190150911A01C701B6010E94C9EA22
:1043E0006B017C010E94026B83EF93E00E943B6AA9
:1043F00083E50E94F637882321F00E94B837809326
:10440000020180910201882319F085ED9CE102C030
:104410008CEA95E00E943B6A8BEE93E00E943B6A37
:104420004E8D5F8D68A179A184E79BE20E94D46ADA
:104430004AA15BA16CA17DA18FE598E20E94D46A9C
:104440004EA15FA168A579A588E598E20E94D46A8B
:1044500086EF9BE10E943B6A83EE93E00E943B6AF9
:10446000B301A20184E79BE20E94D46AB501A401D2
:104470008FE598E20E94D46AB701A60188E598E228
:104480000E94D46A8AE00E94B9B5EBC383E50E941A
:10449000C639882331F00E94C73790932201809358
:1044A00021018091A4029091A502A091A602B09151
:1044B000A702892B8A2B8B2B09F0D3C36091210192
:1044C000709122018FED93E00E94E56A85E20E94DF
:1044D000B9B58AE00E94B9B5C4C30E94E7A7F82E17
:1044E00087FDBFC383E50E94C6390F2D0F2C000C3A
:1044F000110B882309F10E94C737F801EE0FFF1F47
:10450000E050FF4F91838083000F111F000F111F98
:10451000045D1E4FBC01990F880B990B0E94C2E3EA
:104520002AE037ED43E25CE30E9421E4F801608376
:1045300071838283938395C30E94026B85E40E94FA
:10454000B9B580E38F0D0E94B9B5000F111FF801B6
:10455000E050FF4F6081718187ED93E00E94E56A32
:1045600085E20E94B9B58AE00E94B9B57AC380E5B8
:104570000E94F637882309F474C360E070E080E598
:104580000E94D2398C016FEF7FEF83E50E94D23910
:104590007C010196039708F064C307FD62C3802F76
:1045A0000E946CB3882339F00E94FF6A88EC93E084
:1045B0000E943B6A56C30E947973D02E60E0802F20
:1045C0000E948BB0FFEFEF16FF0629F021E0E21604
:1045D000F10459F007C0802F0E9437B001E010E0CD
:1045E000892B29F000E010E002C001E010E08D2DE1
:1045F0000E9437B08017910709F433C30E947B6B88
:10460000F6CF80E50E94F637882309F42AC30E947A
:10461000C7378C01892B09F07FC083E50E94F637EC
:10462000882389F00E94C7378F3F3FEF930729F413
:1046300082E49EE00E948CB314C3BC0182E49EE03D
:104640000E9426B40EC30E94026B60E070E080EC12
:1046500093E00E94E56A8091440E28E532E069010A
:10466000C81AD10887FDD394CC0CDD1CCC0CDD1C02
:104670000D2C000CEE08FF088091430E28E830E076
:104680004901881A910887FD9394880C991C880C1D
:10469000991C092C000CAA08BB088091420E8F3F80
:1046A000C1F090E0FC01EE0FFF1F8E0F9F1FFC0179
:1046B000E35EF14F2181328143E0220F331F4A959F
:1046C000E1F754E0369527955A95E1F72E5F3F4F75
:1046D00002C020E030E02F5F3F4FC901330FAA0B2B
:1046E000BB0B9C01AD01281939094A095B09A4EBF0
:1046F000B0E00E9436EAA7019601281939094A0953
:104700005B090E941AEAB9018CE79CE20E94E56A03
:104710008AE00E94B9B5A5C20E94FF6AB80181EC87
:1047200093E00E94E56A80E297E00E943B6A99C2AA
:104730008AE50E94C639811106C083E50E94C63908
:10474000882309F44BC00E94CA3720E030E040E0E3
:1047500050EC0E94BCE387FD3AC70E94CA3720E0B4
:1047600030E040E050E40E9468EC18160CF429C7D1
:104770000E94CA376B017C018091FB0F869586955C
:1047800080FF22C020914A0A30914B0A40914C0A86
:1047900050914D0AC701B6010E9421E40E94ABEB83
:1047A0002091660230916702260F371F309367020F
:1047B000209366022091640230916502620F731F9C
:1047C000709365026093640280E50E94F637882347
:1047D00009F403C70E94B8378111FFC68091A60271
:1047E00087FD21C78091A702837009F01CC70E9432
:1047F000026B409111105091121060911310709142
:10480000141081EB93E00E94D46A8AE00E94B9B54B
:1048100028C260E085E40E94DE39811173C080E522
:104820000E94F637882351F00E94CA376093110E18
:104830007093120E8093130E9093140E89E40E94CD
:10484000F637882381F00E94CA372CEA35EC47E21C
:104850005EE30E9421E46093150E7093160E809320
:10486000170E9093180E84E40E94F637882381F087
:104870000E94CA372CEA35EC47E25EE30E9443EB24
:104880006093190E70931A0E80931B0E90931C0E5A
:104890000E94026B4091110E5091120E6091130E06
:1048A0007091140E8DEA93E00E94D46A2CEA35ECE4
:1048B00047E25EE36091150E7091160E8091170E1F
:1048C0009091180E0E9443EBAB01BC0189EA93E082
:1048D0000E94D46A2CEA35EC47E25EE36091190E3F
:1048E00070911A0E80911B0E90911C0E0E9421E473
:1048F000AB01BC0185EA93E00E94D46A8AE00E9481
:10490000B9B5AFC10E94FF6A83E993E00E943B6A98
:10491000A8C183E50E94F637182F882371F00E9402
:10492000CA370E94ABEB709331016093300121E0F4
:10493000672B09F020E020937A0480E50E94F63787
:10494000882359F02091300130913101232B11F04F
:104950000E94B83780937A0484C1111182C10E94E9
:10496000026B80E893E00E943B6A80917A0488237E
:1049700019F08FE392E102C087E693E00E943B6A60
:1049800060913001709131018FE693E00E94E56AF9
:104990008BE693E00E943B6A64C10E94DE4661C1DF
:1049A0008091FC0F81110C94541981E00E941372C4
:1049B0000C9454190E943F3854C16FEF7FEF89E483
:1049C0000E94D2398C016FEF7FEF8AE40E94D239C6
:1049D0007C018AE50E94C639811108C081E50E94E8
:1049E000C639D82E882309F424C601C0D12CC02E84
:1049F00081E0800F863008F04FC0BE2C81E08E0D24
:104A0000863008F049C0102F0E94CA372B013C01A4
:104A1000A02E07FDA12C17FF02C0A4E0CA2E8E2DE8
:104A2000E7FCE12C87FF02C0F4E0BF2EE5E03E2E5C
:104A3000CA1408F416C1FE2C3A9C40011124BF147C
:104A400048F10F2D10E0DD2071F0F401E00FF11FAF
:104A5000EE0FFF1FEE0FFF1FE050FE4F2081318150
:104A60004281538103C020E030E0A901080D191DE7
:104A7000000F111F000F111F00501E4FC301B20184
:104A80000E94C9EAD8016D937D938D939C931397EF
:104A9000F394D5CFA394CCCF0E94FF6A86E197E030
:104AA0000E943B6ADEC00E94CC5D8111DAC008E73B
:104AB00017E0E1E3F4E0FF8FEE8F9E012F5F3F4FA1
:104AC000190196EAC92E97E0D92E7901C8010E94F2
:104AD000ACADAE8DBF8D8D909D90AD90BD90BF8FD4
:104AE000AE8FA50194010E94C8EA2B013C01F70199
:104AF000608371838283938320E030E040EA51EC4D
:104B00000E9468EC87FD0AC020E030E040EA51E4F2
:104B1000C301B2010E94BCE318162CF4F601849183
:104B200018160CF48DC5D7018D909D90AD90BD9059
:104B30007D0120E030E040EA51ECC501B4010E9463
:104B400068EC87FD88C520E030E040EA51E4C5010B
:104B5000B4010E94BCE318160CF08BC57CC50E9402
:104B60000B907FC00E9415CD7CC00E94DECB79C027
:104B700061E083E50E94E83991E089270E9423CD16
:104B800070C081E08093FF010E94B2BB1092FF01D0
:104B9000882309F466C00E94026B80E093E00E94C3
:104BA0003B6A5FC08091A60287FD8DC58091A702F8
:104BB000837009F088C54091091050910A106091E6
:104BC0000B1070910C1081EF92E00E94D46A40911A
:104BD0000D1050910E1060910F10709110108FE514
:104BE00098E20E94D46A4091111050911210609185
:104BF00013107091141088E598E20E94D46A8AE03C
:104C00000E94B9B52EC081E08093300310922C042D
:104C100060E083E50E94E839811123C00E94494C7D
:104C200020C00E94BE5D1DC000913203109133036D
:104C30000023B9F00E94026B84E50E94B9B5B80167
:104C40007727072E000C880B990B0E941AB680E27A
:104C50000E94B9B583E993E00E943B6A02C00E94BA
:104C6000BE5DE091FE01F0E0E255F14F80818823C6
:104C700039F081EB92E00E943B6A8AE00E94B9B56C
:104C80003AA530933503EDC50E9479733090C9027F
:104C900080E00E9486670E94EC9D81E08093C802BC
:104CA0000E94D7A18AE50E94F637082F8823A1F039
:104CB00081E00E94719AF82E82E00E94719A11E0C0
:104CC000811101C010E0F110C7C588E50E94F637D8
:104CD000F82E811103C0EBC110E0F7CF111107C00E
:104CE00089E50E94F637182F8F1107C01F2D011379
:104CF000E1C111E0FF24F39401E080E1E1E3F4E09D
:104D0000A0E2B3E001900D928A95E1F782E50E945E
:104D1000C639882361F00E94CA374B015C0120E04C
:104D200030E0A9010E94BCE38823D1F106C0812CA8
:104D3000912CB0EAAB2EB0E4BB2E8091FB0F82FD2C
:104D400009C02091390430913A0440913B045091BC
:104D50003C0403C020E030E0A901C501B4010E9479
:104D6000C9EA609328037093290380932A039093E0
:104D70002B032091390430913A0440913B04509127
:104D80003C040E9468EC18165CF419821A821B829B
:104D90001C82BE016F5F7F4F88E293E00E94D49E29
:104DA000FF2009F4C8C0112309F4C2C010923104D5
:104DB000109232041092330410923404109235048D
:104DC0001092360410923704109238040E94879F84
:104DD000E6EAF7E024908AE997E00E94ACAD4B0147
:104DE0005C018EE997E00E94ACAD2B013C019B0178
:104DF000AC01C501B4010E9468EC18162CF4A501A1
:104E00009401C301B20104C0A3019201C501B40120
:104E10000E9443EB6E8F7F8F88A399A3E2E9F7E0AE
:104E200085919591A591B4918AA39BA3ACA3BDA3B1
:104E3000EEE8F7E0C590D590E590F490A7019601D3
:104E4000BC01CD010E9468EC181624F0CAA0DBA0BA
:104E5000ECA0FDA02E8D3F8D48A159A1CA01B9013A
:104E60000E9421E420E030E040E85FE30E94C9EACC
:104E70000E94A7ECA70196010E9421E46A8F7B8F14
:104E80008C8F9D8FE7EAF7E0F49020E030E040EC73
:104E90005FE3C301B2010E9421E42B013C016F2DAD
:104EA000FF0C770B880B990B0E94C2E39B01AC01AE
:104EB000C301B2010E9421E469837A838B839C83BE
:104EC00020E030E040EC5FE3C501B4010E9421E442
:104ED0006B017C01622D022C000C770B880B990B67
:104EE0000E94C2E39B01AC01C701B6010E9421E40C
:104EF0006E8B7F8B888F998FAE01465E5F4FBE01B0
:104F00006F5F7F4FCE0146960E94B39E0E94A8CB52
:104F1000109231041092320410923304109234042F
:104F2000109235041092360410923704109238040F
:104F300080E00E94899F112319F081E00E94899FDF
:104F4000002309F4A3C080E00E94B43A8091FB0FD3
:104F50008370833051F060E081E697E00E94D28F49
:104F60000E94026B82E597E0B0C00E94879F40904C
:104F7000390450903A0460903B0470903C042091B6
:104F8000091030910A1040910B1050910C1060E004
:104F900070E08AEE92E40E94C8EA6B017C016093A3
:104FA0002003709321038093220390932303209185
:104FB0000D1030910E1040910F105091101060E0C4
:104FC00070E08AEE92E40E94C8EA4B015C016093B3
:104FD0002403709325038093260390932703209145
:104FE0001110309112104091131050911410C30100
:104FF000B2010E94C8EA609328037093290380934A
:105000002A0390932B0327E137EB41ED58EBC501C1
:10501000B4010E9468EC87FD4FC027E030E04BE60A
:1050200053E4C501B4010E94BCE318160CF444C05B
:1050300027E137EB41ED58EBC701B6010E9468EC60
:1050400087FD3AC027E030E04BE653E4C701B601E4
:105050000E94BCE3181684F11E8A1F8A188E198ECE
:1050600088E0E0E2F3E0DE01119601900D928A956E
:10507000E1F7AE014A5E5F4FBE016B5F7F4FCE012D
:1050800001960E94B39E82E00E94899F0E94879FA2
:105090008091C7028093C802832D0E9486670E9478
:1050A000D39D83E0809323010E9417A1DACD1111D3
:1050B00024CE16CEF12E21CE60E081E497E00E944E
:1050C000D28F0E94026B8FE297E00E943B6ADECF94
:1050D0000E94703BC6CD0E947B6B0C949F1C10926B
:1050E000A802109335030E94AD5DBBCD88E50E94F8
:1050F000F63781115E9889E50E94F63781115E9836
:105100008AE50E94F637882309F4ABCD1598A9CD1E
:105110000E94CA370E94ABEB633771050CF06CC17B
:1051200070939402609393020E943AA20E94CFA5CA
:1051300081110E942EB36091930270919402072E08
:10514000000C880B990B0E94C2E320918F023091D2
:10515000900240919102509192020E9468EC1816C0
:105160001CF488EB96E002C089EA96E060E00E94B9
:10517000D28F81E080931F011EA21FA218A619A63C
:105180001BA61CA61DA61EA610E080E09CE3ACE1B9
:10519000B6E48FA798ABA9ABBAABC12CD12C60E811
:1051A000E62E6FEBF62E33243394412C512C320132
:1051B0006091930270919402072E000C880B990B5A
:1051C0000E94C2E34B015C01A70196010E94BCE36F
:1051D0008823F9F020918F02309190024091910242
:1051E00050919202C501B401011107C00E94BCE3B5
:1051F000182F111F1127111F10C00E94BCE387FF39
:105200000BC080911F01882309F42BCD0E94AD5D56
:1052100028CD4601570101C010E00E94776F6B0155
:105220007C01DC01CB012BA53CA54DA55EA5821B15
:10523000930BA40BB50BB7FD33C0D701C601885142
:105240009C4FAF4FBF4F8BA79CA7ADA7BEA780E0D9
:105250000E94C3A387E892E00E943B6A4114510474
:1052600061047104B9F0D301C201805F984DAF4F62
:10527000BF4FBC01CD016C197D098E099F0928EE35
:1052800033E040E050E00E94F8E9CA01B9010E9411
:105290001AB603C08FE30E94B9B58AE00E94B9B57F
:1052A0000E947B6B0E94776F6093870270938802E5
:1052B0008093890290938A0220918F02309190020C
:1052C00040919102509192022AA33BA34CA35DA36B
:1052D000C501B4010E94C8EA6E8F7F8F88A399A38D
:1052E00020E030E0A9010E9468EC87FF09C08E8DA4
:1052F0009F8DA8A1B9A1B0588E8F9F8FA8A3B9A3E5
:105300004114510461047104B9F420E030E040E834
:105310005FE36E8D7F8D88A199A10E94BCE387FF1A
:1053200019C0260137013320A9F090E1490E97E218
:10533000591E611C711C0EC020E030E040E450E4B6
:105340006E8D7F8D88A199A10E9468EC181614F4C7
:10535000260137011123A9F12EA13FA148A559A586
:10536000211531054105510541F0D701C601821BC8
:10537000930BA40BB50BB7FD24C02AA13BA14CA1F4
:105380005DA16FA578A989A99AA90E94C8EA20E021
:1053900030E040E85FE30E94BCE387FD32CFD701F5
:1053A000C601805A9541AF4FBF4F8EA39FA3A8A7B8
:1053B000B9A72AA13BA14CA15DA12FA738AB49AB4E
:1053C0005AAB80911F01882309F41BCF411451046B
:1053D0006104710421F4312C75016401E9CE30E1DE
:1053E000C31A37E2D30AE108F108C418D508E60861
:1053F000F708F7FCF0CF05CF63E770E091CE0E948D
:10540000797388E50E94F637882331F05E9A80919F
:10541000FB0F8E7F8093FB0F89E50E94F637882370
:1054200031F05E9A8091FB0F8D7F8093FB0F8AE5B0
:105430000E94F637882309F414CC159A8091FB0F4B
:105440008B7F8093FB0F0DCC83E50E94C6398823A8
:1054500091F00E94CA376093620A7093630A809346
:10546000640A9093650A60936A0A70936B0A80934A
:105470006C0A90936D0A80E50E94C639882351F02A
:105480000E94CA376093620A7093630A8093640A29
:105490009093650A82E50E94C639882351F00E94E4
:1054A000CA376093660A7093670A8093680A90937C
:1054B000690A84E50E94C639882309F4D2CB0E9488
:1054C000CA3760936A0A70936B0A80936C0A909350
:1054D0006D0AC7CB82E40E94F637882351F00E9400
:1054E00024A960933E0A70933F0A8093400A9093E8
:1054F000410A83E50E94F637882351F00E94CA379B
:1055000060936E0A70936F0A8093700A9093710A89
:1055100084E50E94F637882351F00E94CA376093D1
:10552000720A7093730A8093740A9093750A88E5DF
:105530000E94F637882351F00E94CA3760934104D5
:1055400070934204809343049093440489E50E943D
:10555000F637882351F00E94CA3760934504709350
:10556000460480934704909348048AE50E94F637E6
:105570008823B1F00E94CA376093490470934A04AB
:1055800080934B0490934C042DEC3CEC4CEC5DE38D
:105590000E94BCE3181624F083E094E00E943B6A6A
:1055A00085E40E94F637882309F45BCB0E94CA3752
:1055B00060934D0470934E0480934F049093500475
:1055C00050CBC12CD12CE12C80E4F82ED5C8C12CB5
:1055D000D12CE12CB0ECFB2ECFC8A7019601609135
:1055E00011107091121080911310909114100E945C
:1055F000C9EA609311107093121080931310909366
:1056000014100E94026B4091111050911210609181
:1056100013107091141081EB93E00E94D46A8AE019
:105620000E94B9B5DBC882E50E94F6378111DFC858
:1056300018CB0E94FF6A87E493E00E943B6A11CB7B
:10564000B7FAB094B7F8B094D7018D929D92AD920D
:10565000BC92139768CA0E94FF6A89E293E00E9495
:105660003B6A61E08BE193E00E94D28F0E9492C27C
:10567000F8CA0C5F1F4FBFEFCB1ADB0AE4E8F7E074
:10568000E017F10709F022CA88E6E82E82E0F82E3A
:1056900010E0F10181919191A191B1911F01F70168
:1056A00081939193A193B1937F01812F0E94519A8D
:1056B0001F5F133071F70E9417A160E08BE093E049
:1056C0000E94D28FCECA2091091030910A104091C9
:1056D0000B1050910C102E8F3F8F48A359A3409070
:1056E0000D1050900E1060900F1070901010C09020
:1056F0001110D0901210E0901310F090141088E563
:105700000E94C639882361F10E94CA374B015C01AF
:1057100020E030E04BE653EC0E9468EC87FD0AC0C5
:1057200020E030E04BE653E4C501B4010E94BCE345
:10573000181694F46BEE70E08EED92E00E94E56A2C
:105740006BEE70E089ED92E00E94E56A83EA99E2EF
:105750000E943B6A10E005C08E8E9F8EA8A2B9A25F
:1057600011E089E50E94C639882351F10E94CA37A9
:105770004B015C0120E030E04BE653EC0E9468EC0A
:1057800087FD0AC020E030E04BE653E4C501B401D8
:105790000E94BCE3181694F46BEE70E086EC92E085
:1057A0000E94E56A6BEE70E089ED92E00E94E56A86
:1057B00083EA99E20E943B6A10E002C024013501AD
:1057C0008AE50E94C639882339F10E94CA376B01E5
:1057D0007C0120E030E040EA51EC0E9468EC87FD5B
:1057E0000AC020E030E040EA51E4C701B6010E945F
:1057F000BCE318168CF46CEE7FEF84EB92E00E9411
:10580000E56A64E170E089ED92E00E94E56A83EA6E
:1058100099E20E943B6A25CA112309F422CA2E8DFF
:105820003F8D48A159A12093091030930A1040934D
:105830000B1050930C1040920D1050920E1060926D
:105840000F1070921010C0921110D0921210E092AE
:105850001310F092141005CA81114BCAFF24F3945F
:105860003FCAE296E2E10C94ADEAA4E1B0E0EBE3DA
:10587000FCE20C9491EA8FEF9FEF90938900809364
:1058800088002AE02983212C312C789480917E0392
:1058900090917F03A0918003B0918103892B8A2B83
:1058A0008B2B71F080917E0390917F03A0918003F8
:1058B000B0918103892B8A2B8B2B09F0D7C7BCC1F0
:1058C0008091B90F8823D1F01092B90F8091B70F52
:1058D0009091B80F892B91F01092B80F1092B70FDA
:1058E00010923E039091480E8091490E981731F026
:1058F0008091490E8F5F8F708093490E8091B70F12
:105900009091B80F892B71F240917A0350917B03EB
:1059100060917C0370917D03809176039091770371
:10592000A0917803B091790300916C0310E020E01E
:1059300030E0841B950BA60BB70B081719072A0735
:105940003B0710F4D901C8018A8B840F951FA61F4D
:10595000B71F80937A0390937B03A0937C03B0934B
:105960007D03E1E08090430390904403A0904503C1
:10597000B09046038091530390915403A091550336
:10598000B0915603880E991EAA1EBB1E8092530327
:1059900090925403A0925503B0925603B7FC31C0C5
:1059A00080913603082E000C990BAA0BBB0B40917B
:1059B000C60F5091C70F6091C80F7091C90F840F27
:1059C000951FA61FB71F8093C60F9093C70FA09374
:1059D000C80FB093C90F80913F0390914003A091ED
:1059E0004103B0914203B501A401481B590B6A0B56
:1059F0007B0B409353035093540360935503709370
:105A000056030091470310914803209149033091B8
:105A10004A038091570390915803A0915903B09184
:105A20005A03080F191F2A1F3B1F00935703109397
:105A300058032093590330935A0337FD31C08091A6
:105A40003703082E000C990BAA0BBB0B4091CA0F11
:105A50005091CB0F6091CC0F7091CD0F840F951F9B
:105A6000A61FB71F8093CA0F9093CB0FA093CC0FA4
:105A7000B093CD0F80913F0390914003A0914103DB
:105A8000B091420368017901C81AD90AEA0AFB0AEF
:105A9000C0925703D0925803E0925903F0925A03F0
:105AA00040914B0350914C0360914D0370914E0314
:105AB00080915B0390915C03A0915D03B0915E03C4
:105AC000480F591F6A1F7B1F40935B0350935C0371
:105AD00060935D0370935E0377FD31C0809138035E
