:100000000C9492170C94BC170C94BC170C94BC174E
:100010000C94B8D40C94B8D40C94B8D40C94B8D430
:100020000C94BC170C94BC170C94BC170C94BC1704
:100030000C94BC170C945F680C94BC170C94BC1700
:100040000C94BC170C9410960C941A700C94BC175A
:100050000C942AB90C9420B90C94BC170C94BC17BE
:100060000C94BC170C94BC170C94BC170C94BC17C4
:100070000C94BC170C94BC170C94BC170C94BC17B4
:100080000C944AB70C94BC170C94BC1791A994A972
:1000900087A98BA9ABA9ABA998A99CA9A2A9A6A934
:1000A0005CB96CB97DB988B990B9A7B994B9A7B949
:1000B00098B99CB9A7B9A2B918CAD6C809C954CA6F
:1000C00009C909C909C909C909C909C909C909C9A0
:1000D00009C909C909C909C909C909C909C909C990
:1000E00009C909C909C909C909C909C909C909C980
:1000F00009C909C94ECA09C909C909C909C909C92A
:1001000009C909C909C927CA09C909C909C909C940
:1001100009C909C909C909C909C909C96BCA06C9EF
:1001200025CD2ACD2FCD39CD67CD67CD43CD4BCD54
:1001300053CD5DCD05A84CCDB2D44EB93836A90209
:100140000C50B9918688083CA6AAAA2ABE000000D5
:10015000803F4E414E494E495459494E46CDCCCC34
:100160003D0AD7233C17B7D13877CC2B329595E68B
:10017000241FB14F0A000020410000C84200401C6B
:100180004620BCBE4CCA1B0E5AAEC59D7400407AB8
:1001900010F35A00A0724E18090010A5D4E8000010
:1001A000E87648170000E40B54020000CA9A3B00AE
:1001B0000000E1F505000080969800000040420F25
:1001C000000000A08601000000102700000000E8E9
:1001D00003000000006400000000000A00000000AE
:1001E000000100000000002C76D888DC674F08234F
:1001F000DFC1DFAE59E1B1B796E5E3E453C63AE6B5
:1002000051997696E8E6C28426EB898C9B62ED4094
:100210007C6FFCEFBC9C9F40F2BAA56FA5F49005E3
:100220005A2AF75C936B6CF9676DC11BFCE0E40D17
:1002300047FEF520E6B500D0ED902E03009435770B
:10024000050080841E080000204E0A000000C80C33
:10025000333333330F986E12831141EF8D2114899C
:100260003BE65516CFFEE6DB18D1844B381BF77CF6
:100270001D901DA4BBE424203284725E228100C93B
:10028000F124ECA1E53D2720573A00434F4D4D5551
:100290004E49434154494F4E0044525952554E0025
:1002A0004552524F525300494E464F004543484F26
:1002B000006F6B003F5A206F7574206F662072616B
:1002C0006E67652028003F59206F7574206F662087
:1002D00072616E676520282D0020746F20003F58E2
:1002E000206F7574206F662072616E676520282DFF
:1002F0000050726F6265204F666673657420580007
:10030000454550524F4D204F4B0A004F666673656E
:100310007473204170706C696564004572723A2094
:10032000546F6F206661722100546F6F2066617296
:100330002066726F6D207265666572656E636520FA
:10034000706F696E740A004D34323120696E636FCC
:10035000727265637420706172616D65746572207C
:1003600075736167650A006469730043290A006157
:10037000626C656420286D696E2074656D70200064
:10038000436F6C6420657874727564657320617264
:10039000652000496E76616C6964206578747275B9
:1003A0006465720A0020643A0020693A0020703ABD
:1003B0000050726F6265204F6666736574205A0044
:1003C00020536572766F200050726F746563746598
:1003D000642050696E0A0020466C6F773A20004610
:1003E000523A0020204D61783A200020204D696E5D
:1003F0003A2000536F667420656E6473746F707377
:100400003A20005741524E494E4721204C6F7720E9
:100410005A204A65726B206D6179206C6561642099
:10042000746F20756E77616E74656420706175738A
:1004300065732E0A00205400205200416363656CEE
:1004400065726174696F6E3A2050004D3134352009
:10045000533C696E6465783E206F7574206F66202A
:1004600072616E67652028302D31290A002F2F20F8
:10047000004348414D4245525F54454D504552411D
:100480005455524500424142595354455050494EEB
:1004900047004D4F54494F4E5F4D4F444553005414
:1004A0004845524D414C5F50524F54454354494F7B
:1004B0004E004C4F4E475F46494C454E414D45001E
:1004C0004155544F5245504F52545F53445F53541B
:1004D00041545553005344434152440050524F4DF0
:1004E00050545F535550504F525400454D4552475C
:1004F000454E43595F504152534552004341534585
:100500005F4C494748545F4252494748544E45530F
:100510005300544F47474C455F4C4947485453009C
:10052000534F4654574152455F504F574552004232
:1005300055494C445F50455243454E54004C455636
:10054000454C494E475F44415441005A5F50524F19
:100550004245004155544F4C4556454C0050524978
:100560004E545F4A4F420050524F4752455353003A
:100570004155544F5245504F52545F54454D5000D1
:10058000564F4C554D45545249430042494E4152F5
:10059000595F46494C455F5452414E5346455200BF
:1005A00053455249414C5F584F4E5F584F464600A5
:1005B0004649524D574152455F4E414D453A4D6176
:1005C000726C696E206275676669782D322E302EE6
:1005D0007820284175672020342032303230203195
:1005E000353A35323A32352920534F555243455F1B
:1005F000434F44455F55524C3A68747470733A2FB8
:100600002F6769746875622E636F6D2F4D61726C10
:10061000696E4669726D776172652F4D61726C69A2
:100620006E2050524F544F434F4C5F5645525349E2
:100630004F4E3A312E30204D414348494E455F548C
:100640005950453A4C7563792045585452554445A4
:10065000525F434F554E543A3120555549443A6301
:10066000656465326132662D343161322D34373440
:10067000382D396231322D63353563363266333683
:100680003766660A004C756379204F46462E004255
:10069000656420436F6F6C696E672E2E2E00426575
:1006A000642048656174696E672E2E2E004D3131CD
:1006B000332053006F66660044454255473A002593
:1006C000697920256964202569682025696D2025C0
:1006D0006973005072696E742074696D653A200008
:1006E0004E6F204D6F76652E00436C69636B2074EE
:1006F0006F20526573756D652E2E2E004D657368E3
:1007000020706F696E74206F7574206F662072613F
:100710006E67650A005A2050726F626520506173DF
:1007200074204265640A005A2050726F626520503E
:100730006173742042656400486F6D6520585920CC
:1007400066697273740A00486F6D652058592046B7
:100750006972737400536C6565702E2E2E00000054
:1007600000000000000000000000AC02A702A00290
:1007700099028B0200004842000048420000A0415C
:1007800000006B4300006B4300007A43FFFFFF242F
:10079000F4D43050C38E20C2A24017828B70111245
:1007A0007A910D816CD90AA861E108C75866076182
:1007B0005143061E4B5D05C145A7041A41110409AA
:1007C0003D9803713931034036DB0265339102D421
:1007D000305402802E1D02632CEE01752AC501B033
:1007E00028A001102781018F2564012B244B01E0F3
:1007F000223401AC211F018D200D01801FFC0084DB
:100800001EED00971DDF00B81CD200E61BC60020BD
:100810001BBC00641AB200B219A8000A19A0006A31
:10082000189900D117910040178B00B5168400313C
:10083000167E00B31579003A157300C7146F00587F
:10084000146A00EE1366008813630025135E00C768
:10085000125B006C12570015125400C11151007048
:10086000114F0021114B00D61049008D1047004652
:1008700010440002104200C00F4000800F3E0042B2
:100880000F3C00060F3B00CB0E3800930E37005C88
:100890000E3500270E3400F30D3200C10D310090EB
:1008A0000D3000600D2E00320D2D00050D2C00D9ED
:1008B0000C2B00AE0C2900850C29005C0C270035A0
:1008C0000C27000E0C2600E80B2400C40B2400A00B
:1008D0000B23007D0B23005A0B2100390B2100183C
:1008E0000B2000F80A1F00D90A1E00BB0A1E009D3B
:1008F0000A1D00800A1D00630A1C00470A1B002C09
:100900000A1B00110A1A00F7091A00DD091900C4B0
:10091000091900AB091900920917007B0918006337
:100920000917004C09160036091600200916000A9E
:10093000091500F5081500E0081400CC081400B8EB
:10094000081400A4081400900813007D0812006B1E
:10095000081300580812004608120034081100233A
:100960000811001208110001081100F0071000E042
:10097000071000D0071000C0071000B0070F00A13B
:1009800007100091070E0083070F0074070F006522
:10099000070E0057070E0049070E003B070D002EFB
:1009A000070E0020070D0013070D0006070D00F9C4
:1009B000060C00ED060D00E0060C00D4060C00C885
:1009C000060C00BC060C00B0060C00A4060B009937
:1009D000060C008D060B0082060B0077060B006CE0
:1009E000060B0061060A0057060B004C060A00427F
:1009F000060A0038060A002E060A0024060A001A13
:100A0000060A001006090007060A00FD050900F4A1
:100A1000050900EB050900E2050900D9050900D028
:100A2000050900C7050900BE050900B5050800ADA8
:100A3000050800A50509009C050800940508008C20
:100A4000050800840508007C050800740508006C92
:100A5000050700650508005D050700560508004EFE
:100A60000507004705070040050800380507003165
:100A70000507002A050700230507001C05060016C8
:100A80000507000F0507000805060002050700FB23
:100A9000040600F5040700EE040600E8040600E280
:100AA000040700DB040600D5040600CF040600C9D5
:100AB000040600C3040600BD040600B7040600B126
:100AC000040500AC040600A6040600A00405009B73
:100AD00004060095040500900406008A04050085BC
:100AE000040500800406007A040500750405007002
:100AF0000405006B04050066040500610405005C44
:100B000004050057040500520405004D0405004883
:100B1000040500430405003E0404003A04050035C2
:100B2000040500300404002C0405002704040023FD
:100B30000405001E0404001A040400160405001134
:100B40000404000D0404000904050004040400006A
:100B5000040400FC030400F8030400F4030400F0A0
:100B6000030400EC030400E8030400E4030400E0D1
:100B7000030400DC030400D8030400D4030400D001
:100B8000030400CC030400C8030300C503030024CE
:100B9000F404D9201BC40C5C0E9804C4095F0265E0
:100BA000077101F405F900FB04B30048048700C194
:100BB0000369005803550003034500BE023A008450
:100BC00002310053022A002902250004022000E419
:100BD000011C00C8011900AF01170098011400841E
:100BE000011300710110006101100051010E00435A
:100BF000010D0036010B002B010B0020010B00152D
:100C00000109000C01090003010800FB000800F3C2
:100C1000000800EB000700E4000600DE000600D834
:100C2000000600D2000600CC000500C7000500C287
:100C3000000500BD000400B9000400B5000400B1C7
:100C4000000400AD000400A9000400A5000300A2F8
:100C50000003009F0004009B000300980003009520
:100C600000020093000300900003008D0002008B3F
:100C70000003008800020086000200840003008157
:100C80000002007F0002007D0002007B000200796C
:100C9000000200770001007600020074000200727A
:100CA000000100710002006F0002006D0001006C85
:100CB0000002006A0001006900020067000100668E
:100CC0000001006500010064000200620001006193
:100CD000000100600001005F0002005D0001005C97
:100CE0000001005B0001005A00010059000100589A
:100CF000000100570001005600010055000100549A
:100D00000001005300000053000100520001005197
:100D1000000100500001004F0001004E0000004E95
:100D20000001004D0001004C0001004B0000004B91
:100D30000001004A0001004900010048000000488D
:100D40000001004700010046000000460001004588
:100D50000000004500010044000100430000004382
:100D6000000100420000004200010041000000417B
:100D7000000100400001003F0000003F0001003E74
:100D80000000003E0001003D0000003D0001003C6D
:100D90000000003C0000003C0001003B0000003B64
:100DA0000001003A0000003A00010039000000395B
:100DB0000001003800000038000000380001003752
:100DC0000000003700010036000000360000003649
:100DD000000100350000003500000035000100343E
:100DE0000000003400000034000100330000003334
:100DF0000000003300010032000000320000003229
:100E0000000100310000003100000031000100301D
:100E100000000030000000300001002F0000002F13
:100E20000000002F0000002F0001002E0000002E07
:100E30000000002E0001002D0000002D0000002DFC
:100E40000000002D0001002C0000002C0000002CF0
:100E50000000002C0001002B0000002B0000002BE4
:100E60000000002B0001002A0000002A0000002AD8
:100E70000000002A000100290000002900000029CC
:100E800000000029000000290001002800000028BF
:100E900000000028000000280000002800010027B2
:100EA00000000027000000270000002700000027A6
:100EB0000001002600000026000000260000002699
:100EC000000000260001002500000025000000258C
:100ED000000000250000002500000025000100247E
:100EE0000000002400000024000000240000002472
:100EF0000001002300000023000000230000002365
:100F00000000002300000023000000230001002255
:100F10000000002200000022000000220000002249
:100F2000000000220001002100000021000000213B
:100F3000000000210000002100000021000000212D
:100F40000001002000000020000000200000002020
:100F50000000002000000020000000200000002011
:100F60000001001F0000001F0000001F0000001F04
:100F70000000001F0000001F0000001F0001001EF5
:100F80000000001E0000001E0000001E00000039CE
:100F90003000003325000087190000B00F0000DB8F
:100FA000080000BD040000740200003F010000536F
:100FB000544F505045442E20005072696E74657233
:100FC0002073746F707065642064756520746F2081
:100FD0006572726F72732E2046697820746865207E
:100FE0006572726F7220616E6420757365204D3971
:100FF000393920746F20726573746172742E2028E1
:1010000054656D70657261747572652069732072C4
:10101000657365742E20536574206974206166744D
:1010200065722072657374617274696E67290A0053
:1010300021212053544F502063616C6C6564206201
:10104000656361757365206F6620424C546F7563EC
:1010500068206572726F72202D20726573746172E0
:10106000742077697468204D3939390A004F464633
:101070000A0046616465204865696768742000421B
:101080006564204C6576656C696E67200046616911
:101090006C656420746F20656E61626C65204265CA
:1010A00064204C6576656C696E670A00496E7661EE
:1010B0006C6964206D6573682E0A0050726F6269F6
:1010C0006E6720506F696E740025532025692F25A7
:1010D000690050726F62696E67206D657368207079
:1010E0006F696E742000202844525952554E2900D1
:1010F000473239204175746F20426564204C657613
:10110000656C696E67003F20284C2C522C462C429F
:1011100029206F7574206F6620626F756E64732E60
:101120000A00426164205A2076616C75650A004E9F
:101130006F2062696C696E65617220677269640A0A
:1011400000687474703A2F2F6D61726C696E6677E7
:101150002E6F7267006275676669782D322E302EA9
:101160007800436F6E66696775726174696F6E00AF
:101170004F6666004F6E004D6F74696F6E0041756B
:10118000746F20486F6D65005053550047656E655C
:101190007269630050726F746F636F6C00312E3030
:1011A000004261756400313135323030004D656C7C
:1011B0007A692028437265616C69747929004578E1
:1011C00074727564657273004C75637900323032E5
:1011D000302D30362D313900546865726D69737465
:1011E0006F727300426F61726420496E666F0050C7
:1011F00072696E74657220496E666F0041626F7528
:1012000074205072696E7465720054756E65004981
:101210006E666F2053637265656E00536F6674204F
:10122000456E6473746F7073004D38340044697395
:1012300061626C652053746570706572730047322B
:10124000380A4D343820503130004D343820507237
:101250006F62652054657374004732380021212085
:101260004B494C4C2063617573656420627920742E
:101270006F6F206D75636820696E61637469766550
:101280002074696D65202D2063757272656E7420FF
:10129000636F6D6D616E643A20004E6F2043686528
:1012A000636B73756D2077697468206C696E652057
:1012B0006E756D6265722C204C617374204C696E82
:1012C000653A2000636865636B73756D206D6973A3
:1012D0006D617463682C204C617374204C696E6579
:1012E0003A20004C696E65204E756D62657220690A
:1012F00073206E6F74204C617374204C696E65208E
:101300004E756D6265722B312C204C617374204CCC
:10131000696E653A20004D31313000627573793A5B
:101320002070617573656420666F7220696E7075D8
:10133000740A00627573793A207061757365642070
:10134000666F7220757365720A00627573793A2050
:1013500070726F63657373696E670A00506C6561C4
:101360007365205265736574005052494E5445525E
:101370002048414C5445440025533A202553004B06
:10138000494C4C45442E20005072696E74657220A1
:1013900068616C7465642E206B696C6C282920630D
:1013A000616C6C6564210A006563686F3A00457280
:1013B000726F723A0042696C696E656172204C65A9
:1013C00076656C696E6720477269643A0A0000FEB0
:1013D0000003FF8007C7C00701E00000E00000F045
:1013E0000000700400700E00701F00703F80F00E4F
:1013F00000E00F01E007C7C003FF8000FE0000FE11
:101400000003FF8007C7C00F01E00E00E03F80F03F
:101410001F00700E00700400700000700000F000EB
:1014200000E00701E007C7C003FF8000FE000E00D8
:101430000E000E000E000E000E000E000E007FC00B
:101440003F801F000E00040004000E001F003F80BC
:101450007FC00E000E000E000E000E000E000E00EB
:101460000E00FFFFFF7F80FFC0FFC0FFC07F807FB7
:1014700080FFC0FFC0FFC03F001E000C004D333096
:1014800033205531204525692053256900504944B2
:10149000204175746F74756E65202A005049442D83
:1014A00044202A005049442D49202A005049442D07
:1014B00050202A0020082046616374002008204D37
:1014C0006178002008204D696E004175746F746565
:1014D0006D700020746F6F206C6F6E67206578747C
:1014E000727573696F6E2070726576656E7465646F
:1014F0000A0020636F6C6420657874727573696F7D
:101500006E2070726576656E7465640A0000000076
:10151000010000000100008000555555000000400A
:101520000033333300AAAA2A004992240000002085
:1015300000C7711C0099991900D145170055551520
:10154000003BB113002449120011111100000010DA
:10155000000F0F0F00E3380E0043790D00CCCC0CC8
:1015600000C3300C00E8A20B0064210B00AAAA0AF9
:1015700000703D0A009DD80900427B0900922409B1
:1015800000DCD3080088880800104208000000082A
:1015900000F0C107008787070075500700711C071E
:1015A000003EEB0600A1BC060069900600666606D8
:1015B00000703E06006118060017F4050074D1059E
:1015C000005BB00500B2900500627205005555053C
:1015D0000078390500B81E0500050505004EEC042D
:1015E0000087D40400A1BD040090A7040049920420
:1015F00000C17D0400EE690400C7560400444404A1
:10160000005C3204000821040041100400000004C2
:10161000003FF00300F8E0030026D20300C3C30339
:1016200000CCB503003AA803000A9B0300388E03E0
:1016300000C08103009F750300D0690300505E0362
:10164000001D53030034480300913D03003333036E
:101650000016290300381F030097150300300C0300
:1016600000030303000BFA020049F10200BAE8028A
:10167000005CE002002DD802002DD0020059C80203
:1016800000B0C0020031B90200DAB10200AAAA0219
:1016900000A0A30200BC9C0200FA9502005C8F022D
:1016A00000DF88020082820200457C020027760269
:1016B0000027700200436A02007C640200D05E02D0
:1016C000003F590200C8530200FFFDFCFAF8F6F48F
:1016D000F2F0EEECEAE9E7E5E3E1E0DEDCDAD9D7C7
:1016E000D5D4D2D0CFCDCBCAC8C7C5C3C2C0BFBD69
:1016F000BCBAB9B7B6B4B3B2B0AFADACAAA9A8A6DC
:10170000A5A4A2A1A09E9D9C9A9998979594939226
:10171000908F8E8D8B8A8988878684838281807F53
:101720007E7D7B7A797877767574737271706F6E5F
:101730006D6C6B6A696867666564636261605F5E51
:101740005D5C5B5A59585857565554535251505036
:101750004F4E4D4C4B4A4A49484746464544434202
:101760004241403F3E3E3D3C3B3B3A3938383736BC
:101770003535343332323130302F2E2E2D2C2B2B69
:101780002A29292827272625252423232221212009
:10179000201F1E1E1D1C1C1B1B1A1919181817169A
:1017A00016151514131312121111100F0F0E0E0D22
:1017B0000D0C0C0B0A0A090908080707060605059F
:1017C000040403030202010000205A3A0020593A9F
:1017D000002020506C616E6E65724275666665729F
:1017E00042797465733A20002046726565204D6524
:1017F0006D6F72793A2000436F6D70696C65643A61
:101800002041756720203420323032300A00204CCD
:1018100061737420557064617465643A20323032AB
:10182000302D30362D3139207C20417574686F722F
:101830003A202870616469632C204C756379290A09
:10184000006275676669782D322E302E780A004D59
:1018500061726C696E0020536F66747761726520E7
:1018600052657365740A00205761746368646F671A
:101870002052657365740A002042726F776E206F84
:1018800075742052657365740A002045787465721A
:101890006E616C2052657365740A00506F776572D3
:1018A00055700A00255320256320256320256320D9
:1018B000256300656E6473746F7073206869743A91
:1018C00020001FE0201020102010102010202010D9
:1018D000201030300840048003001FE03FF03FF04C
:1018E0003FF01FE01FE03FF03FF03FF00FC00780E8
:1018F00003003FFFF038007030FC3020FC102078EF
:10190000102030102C00D02E31D02F7BD02F7BD048
:101910002E31D02C00D020301020781020FC103038
:10192000FC303800703FFFF03FFFF0380070318628
:10193000302387102787902F87D02F03D020301097
:101940002078102078102030102F03D02F87D02738
:1019500087902387103186303800703FFFF01FFFDB
:10196000F81FFFF80410400208200208200410406D
:101970000820801041001041000820800410400021
:1019800000001FFFF81FFFF8F80180000C480080DE
:10199000001243C38CD00271249267CC41249E4034
:1019A000024924904012FBB3CEE00C2020202020DE
:1019B000202000416476616E636564205365747411
:1019C000696E67730053746F726520536574746930
:1019D0006E6773004C6F61642053657474696E6741
:1019E00073004C6576656C20436F726E6572730090
:1019F0004661646520486569676874004564697478
:101A0000204D657368004732380A473239004C650B
:101A100076656C2042656400436D643A2053746FB0
:101A20007700436D643A2053572D4D6F6465004332
:101A30006D643A204465706C6F7900436D643A20A0
:101A400053656C662D5465737400436D643A20527F
:101A50006573657400526573746F726520446566C2
:101A600061756C747300424C546F75636800313259
:101A700035004245443A4550434F53203130304BB6
:101A80000052756E617761792057617463683A20FE
:101A90004F4E004D61782054656D7000323735002F
:101AA0004D696E2054656D700045313A20455043B4
:101AB0004F53203130304B0054656D706572617446
:101AC0007572650050726F6265205A204F666673AA
:101AD0006574004D61696E005072656865617420BF
:101AE000504C4120456E64005072656865617420F9
:101AF000504C4120426564005072656865617420F5
:101B000041425320456E64005072656865617420DF
:101B10004142532042656400436F6F6C646F776E7F
:101B200000507265686561742041425300507265CF
:101B30006865617420504C410046616E20537065A9
:101B40006564004E6F7A7A6C6500466C6F7700456D
:101B500072723A207574663820666F6E74206E6FEC
:101B60007420696E697469616C697A65642E0025F8
:101B700068753A253032687500256875642025300F
:101B80003268753A253032687500000C0F00FE0788
:101B9000022603BC017FFE08FE08FE0508080600B9
:101BA0000040F0C88888987810050808060000C032
:101BB000F88888888888F80505050600012030F82F
:101BC00030200508080600002070F820202020E0C2
:101BD0000509090600FF2070A8A8B88888702005AC
:101BE0000606060001E08CEA8C8A0A05090906004F
:101BF000FFF8A88888888888A8F8050A0A0600FEE1
:101C0000205050505088A8A8887003030306000392
:101C100040A040FFFFFFFFFFFFFFFFFFFFFFFFFFB1
:101C2000FFFFFFFFFFFFFFFFFF0000000605FF01B2
:101C3000070706020080808080800080030303067F
:101C40000105A0A0A005060606000050F85050F8B7
:101C5000500509090600FF2070A8A07028A8702070
:101C6000050707060000C8C8102040989805070718
:101C700006000040A0A040A89068010303060205EA
:101C80008080800309090601FF2040408080804059
:101C900040200309090601FF8040402020204040E9
:101CA0008005070706000020A8702070A820050501
:101CB000050600012020F820200203030601FFC0D2
:101CC0004080050101060003F8020202060100C07F
:101CD000C0050707060000081010204040800507D7
:101CE00007060000708898A8C888700307070601D7
:101CF0000040C040404040E00507070600007088F3
:101D000008102040F8050707060000F80810300802
:101D1000887005070706000010305090F810100575
:101D20000707060000F880F0080888700507070616
:101D30000000304080F0888870050707060000F832
:101D40000810102020200507070600007088887002
:101D5000888870050707060000708888780810607A
:101D6000020505060100C0C000C0C002060606014B
:101D7000FFC0C000C040800305050601012040806F
:101D80004020050303060002F800F80305050601DC
:101D90000180402040800507070600007088102061
:101DA0002000200507070600007088B8A8B88070DA
:101DB000050707060000708888F8888888050707E7
:101DC000060000F04848704848F005070706000084
:101DD00070888080808870050707060000F04848FA
:101DE000484848F0050707060000F88080F080802A
:101DF000F8050707060000F88080F080808005075E
:101E00000706000070888080988870050707060024
:101E100000888888F8888888030707060100E04062
:101E200040404040E0050707060000381010101041
:101E300090600507070600008890A0C0A090880564
:101E40000707060000808080808080F8050707066D
:101E5000000088D8A88888888805070706000088B9
:101E600088C8A898888805070706000070888888B1
:101E7000888870050707060000F08888F080808059
:101E800005070706000070888888A890680507077E
:101E9000060000F08888F0A090880507070600007B
:101EA00070888070088870050707060000F82020F9
:101EB0002020202005070706000088888888888859
:101EC000700507070600008888888850502005079D
:101ED0000706000088888888A8A85005070706001C
:101EE00000888850205088880507070600008888E9
:101EF0005020202020050707060000F80810204089
:101F000080F80309090601FFE080808080808080DE
:101F1000E005070706000080404020101008030974
:101F2000090601FFE020202020202020E0050303F7
:101F30000600052050880501010600FEF803030392
:101F40000601058040200505050600007008788818
:101F5000780507070600008080F0888888F005056E
:101F600005060000708080887005070706000008DD
:101F70000878888888780505050600007088F08054
:101F800070050707060000304840E0404040050764
:101F9000070600FE70888888780870050707060025
:101FA000008080F0888888880307070601004000C9
:101FB000C0404040E00409090601FE100030101046
:101FC0001010906005070706000080808890E09060
:101FD00088030707060100C04040404040E0050577
:101FE00005060000D0A8A8A8A8050505060000B0B1
:101FF000C8888888050505060000708888887005EF
:1020000007070600FEF0888888F08080050707062D
:1020100000FE78888888780808050505060000B065
:10202000C880808005050506000078807008F005EE
:1020300007070600002020F82020201805050506C7
:10204000000088888898680505050600008888884B
:1020500050200505050600008888A8A8500505053C
:1020600006000088502050880507070600FE888873
:102070008850204080050505060000F8102040F833
:102080000309090601FF20404040804040402001F4
:1020900009090602FF80808080808080808003099B
:1020A000090601FF80404040204040408005030376
:1020B00006000248A890FFFFFFFFFFEFFFFFFFFFB2
:1020C000FFFFFFFFFFFFEFEFFFFFFFFFFFFFFFFF40
:1020D000FFE7DFFFFFFFFFFFFFFFFFFFE7DFFFFF80
:1020E000FFFFFFFFFFFFFFE3DFFFFFFFFFFFFFFF3C
:1020F000FFFFF3CFFFFFFFFFFFFFFFFFE1E1CFFF98
:10210000FFFFFFFFFFFE78000003DDFFFFFFFFFE84
:10211000FF807E0001EEFFFFFFFFFE7DCFFC000091
:10212000F77FFFFFFFFF8E060000007BBFFFFFFF72
:10213000FFC0000000007DDFFFFFFFFFFC01FE008D
:10214000003EE7FFFFFFFFFFFFFC00031F73FFFFE1
:10215000FFFFFFFFF800018F81FFFFFFFFFFFFE0A0
:10216000000083F9FFFFFFFFFFFF00FC0000F0FF0E
:10217000FFFFFFFFE00FFFC00000FFFFFFFFFE03B8
:10218000FFFFC00000FFFFFFFFFFFFFFF90000009F
:10219000FFFFFFFFFFFFFFFC0007C0FFFFFFFFFF88
:1021A000FFFFFF0007E0FFFFFFFFFFFFFFFFE0076C
:1021B000F1FFFFFFFFFFFFFFFFFC07F9FFFFFFFF3E
:1021C000FFFFFFFFFF03F9FFFFFFFFFFFFFFFFFF21
:1021D00083F9FFFFFFFFFFFFFFFFFFC3FFFFFFFFCD
:1021E000FFFFFFFFFFFFE1FFFFFFFFFFFFFFFFFF1D
:1021F000FFF0BFFFFFFFFFFFFFFFFFFBF83FFFFF09
:10220000FFFFFFFFFFFFF9F83FFFFFFFFFFFFFFFAB
:10221000FF7EF0FFFFFFFFFFFFFFFFFF8E03FFFFCB
:10222000FFFFFFFFFFFFFFE01FFFFFFFFFFFFFFFBD
:10223000FFFFFFFFFFFFFFFFFFFFFFFFFFFFFFFFAE
:10224000FFFFFFFFFFFFFFFFFFFF7FFFFFFFFF001D
:10225000007FFFFFF87FFFFFFFFF80007FFFFFE0B1
:102260007FFFFFFFFFC3FCFFFFFFF8FFFFFFFFFF44
:10227000C3FCFFFFFFF8FFFFFFFFFF87FDFFFFFF2E
:10228000F1FFFFFFFFFF87FFFFFFFFF1FFFFFFFFF2
:10229000FF0FE7F30FFC23FC3FFFFFFF0FEF80076B
:1022A000F003F01E007FFE1FCF8187C787C70C0099
:1022B0007FFE001FC7C78FC79F0F0CFFFE001F8741
:1022C0008F1F8F1F0F1FFFFC3F9F8F8F1F8E001EC2
:1022D0003FFFFC7F3F0F1E3F1E3FFE3FFFF87FFF8B
:1022E0001F1C3F1C7FFC7FFFF8FFFF1E1C7E1C7F16
:1022F000FC7FFFF0FFCE3E3C7E3C7FB8FFFFF0FF4F
:102300009E3C387C387E78FFFFE1FF3C7C787C780F
:102310003CF1FFFFE1F8387878101801F1FFFF0079
:102320000060203C007C07807FFFFFFFFFFFFE1F57
:10233000FE1FFFFFFF1FFFFFFFFFFFFF600000000A
:102340000001FF400000000000FF800000000000CE
:102350007F83CF00000C303F87FF80000C301F864A
:102360007980000C000F8C30C7838C30E78C30CF25
:10237000C7CC31F38C30DCECEC33B98C30D86C6CDE
:1023800033198C30D06C0C33198C30D86C0C331959
:102390008C30DC6C0E3B198C30CF7C079F198C3055
:1023A000C77C038F1940000000000002600000009D
:1023B0000000061FFFFFFFFFFFF83F00454550529A
:1023C0004F4D2056657273696F6E204572726F7241
:1023D00000454550524F4D20496E64657820457246
:1023E000726F7200454550524F4D20435243204575
:1023F00072726F720049676E6F726500496E697420
:1024000069616C697A6520454550524F4D005365AE
:102410007474696E67732053746F726564005365DA
:102420007474696E67732053746F7265642028003A
:10243000202D20496E76616C696420657874727510
:10244000646572206E756D62657220210A005448C1
:1024500045524D414C2052554E4157415900546808
:1024600065726D616C2052756E617761790045729D
:10247000723A204D415854454D50004D41585445F5
:102480004D502074726967676572656400457272A9
:102490003A204D494E54454D50004D494E54454DFE
:1024A000502074726967676572656400202F002090
:1024B00042403A0020403A0070012C01900127016F
:1024C000B0012201C0011D01F00118011002130129
:1024D00030020E016002090190020401C002FF00F7
:1024E0000003FA004003F5008003F000D003EB0086
:1024F0002004E6007004E100E004DC004005D700A1
:10250000C005D2004006CD00D006C8008007C30039
:102510003008BE00F008B900C009B400B00AAF002E
:10252000B00BAA00D00CA500000EA000500F9B001D
:10253000C01096005012910000148C00C015870046
:10254000B0178200B0197D00D01B7800001E730008
:1025500040206E0090226900F024640040275F0054
:1025600090295A00E02B5500102E500020304B00CF
:1025700010324600E033410090353C001037370000
:1025800070383200A0392D00B03A2800A03B23005B
:10259000603C1E00103D1900903D1400103E0F00DD
:1025A000703E0A00C03E0500003F0000403FFBFFB8
:1025B000803FF6FFC03FF1FF6F70656E00545249D7
:1025C000474745524544007A5F6D696E00795F6DFB
:1025D000696E00785F6D696E005265706F72746924
:1025E0006E6720656E6473746F70207374617475A8
:1025F000730A005761726E696E673A20486F6D69A1
:102600006E672042756D702044697669736F722021
:102610003C20310A000202040000A0400000A0405B
:1026200000000040206D61783A2000206D696E3A0C
:1026300020004361703A00526573656E643A200071
:10264000452025530023646566696E652044454630
:1026500041554C545F004B6420004B6920004B7087
:102660002000504944204175746F74756E65206672
:10267000696E69736865642120507574207468659B
:10268000206C617374204B702C204B6920616E6448
:10269000204B6420636F6E7374616E747320667276
:1026A0006F6D2062656C6F7720696E746F20436F69
:1026B0006E66696775726174696F6E2E680A005084
:1026C0004944204175746F74756E65206661696C4C
:1026D0006564212074696D656F75740A000A204372
:1026E0006C617373696320504944200A00204B6475
:1026F0003A2000204B693A2000204B703A20000A13
:10270000204E6F206F76657273686F6F740A0020B9
:1027100054753A2000204B753A200020643A20007E
:1027200020626961733A2000504944204175746FFA
:1027300074756E652073746172740A005049442088
:102740004175746F74756E65206661696C6564218E
:102750002054656D706572617475726520746F6F59
:1027600020686967680A00504944204175746F7495
:10277000756E65206661696C656421204261642024
:102780006578747275646572206E756D6265720A23
:102790000000002100240027002A0000002200255C
:1027A0000028002B00000020002300260029000242
:1027B00002020202020202040404040404040403E8
:1027C00003030303030303010101010101010101EB
:1027D00002040810204080010204081020408001FB
:1027E00002040810204080804020100804020100EC
:1027F0000000010200090A000000000403080700AD
:102800000000000000000000000000000000004D7B
:102810006F76652025736D6D004D6F766520302EC7
:10282000316D6D004D6F766520316D6D004D6F76A9
:10283000652031306D6D004D6F766520417869738C
:1028400000486F74656E6420746F6F20636F6C64F2
:10285000004578747275646572004D6F7665205A14
:10286000004D6F76652059004D6F76652058004504
:102870006E636C6F73757265004572726F7220774C
:10288000726974696E6720746F20454550524F4DD0
:10289000210A000F150E1216170E1303021A140147
:1028A000000E0DFF180C040C1900014573746570BF
:1028B000732F6D6D005A73746570732F6D6D0059B1
:1028C00073746570732F6D6D005873746570732F1A
:1028D0006D6D0053746570732F6D6D004E65787467
:1028E00020436F726E657200446F6E65004E6578AE
:1028F0007400486F6D696E672058595A005A205607
:10290000616C756500496E646578205900496E6494
:1029100065782058002062797465733B2063726388
:1029200020004E6F20454550524F4D2E0A00454520
:1029300050524F4D206461746173697A65206572ED
:10294000726F722E0A002073746F72656420736553
:102950007474696E677320726574726965766564F4
:10296000202800202863616C63756C61746564299C
:10297000210A0020213D2000454550524F4D204363
:102980005243206D69736D61746368202D20287334
:10299000746F7265642920002053697A653A2000BB
:1029A000496E6465783A2000204D61726C696E3D15
:1029B000563830290A00454550524F4D20766572F1
:1029C00073696F6E206D69736D617463682028454B
:1029D0004550524F4D3D003F2856296572626F7336
:1029E00065206C6576656C20696D706C61757369C6
:1029F000626C652028302D34292E0A0044657669E2
:102A00006174696F6E0025533A2025730053746119
:102A10006E6461726420446576696174696F6E3AB0
:102A200020002052616E67653A20004D65616E3A64
:102A3000200046696E6973686564210A002072612E
:102A40006E67653A2000207369676D613A20002047
:102A50006D65616E3A20003A207A3A2000206F6658
:102A60002000476F696E6720746F3A205800435703
:102A70000A00206469723A0020616E676C653A0052
:102A80005374617274207261646975733A004D34D5
:102A90003820506F696E740025533A2025642F2525
:102AA0006400506F736974696F6E696E6720746833
:102AB000652070726F62652E2E2E0A003F4E756D76
:102AC000626572206F66206C65677320696E206D89
:102AD0006F76656D656E74206E6F7420706C6175B5
:102AE0007369626C652028302D3135292E0A003F2C
:102AF0002028582C5929206F7574206F6620626F2A
:102B0000756E64732E0A003F53616D706C6520739F
:102B1000697A65206E6F7420706C61757369626C80
:102B2000652028342D3530292E0A004D3438205A9E
:102B30002D50726F626520526570656174616269C3
:102B40006C69747920546573740A00204D39322001
:102B50005800496E76616C69642050696E204D6F33
:102B600064650A0020496E76616C6964206578743A
:102B700072756465722000446966663A2020200000
:102B800046726F6D5374703A00537465707065725D
:102B90003A00556E4C6576656C3A004C6576656C0E
:102BA00065643A005261773A20202020000A4C6F79
:102BB000676963616C3A00436F756E7420453A0033
:102BC00020436F756E7420583A004D3130362050D6
:102BD00000453100626564002C2073797374656D63
:102BE0002073746F7070656421204865617465722C
:102BF0005F49443A200048656174696E6720466108
:102C0000696C65640048656174696E672066616916
:102C10006C6564004D3131322053687574646F7790
:102C20006E0048617264636F646564204465666128
:102C3000756C742053657474696E6773204C6F6192
:102C40006465640A003B200020204D38353120584F
:102C5000005A2D50726F6265204F6666736574006E
:102C600020204D33303420500020440020204D33AC
:102C700030312050005049442073657474696E6788
:102C8000733A0020460020480020204D3134352082
:102C900053004D6174657269616C2068656174757B
:102CA0007020706172616D65746572733A00204ABC
:102CB000002020473239205720490020204D34324F
:102CC000302053004175746F20426564204C657656
:102CD000656C696E673A0020204D3230362058000E
:102CE000486F6D65206F66667365743A0020204DED
:102CF000323035204200416476616E6365643A206B
:102D0000423C6D696E5F7365676D656E745F746973
:102D10006D655F75733E20533C6D696E5F666565DA
:102D200064726174653E20543C6D696E5F747261BB
:102D300076656C5F66656564726174653E20583CBB
:102D40006D61785F785F6A65726B3E20593C6D619A
:102D5000785F795F6A65726B3E205A3C6D61785F7F
:102D60007A5F6A65726B3E20453C6D61785F655F96
:102D70006A65726B3E0020204D3230342050004195
:102D80006363656C65726174696F6E2028756E6926
:102D900074732F7332293A20503C7072696E745FDD
:102DA000616363656C3E20523C726574726163744A
:102DB0005F616363656C3E20543C74726176656C40
:102DC0005F616363656C3E0020204D3230312058D6
:102DD000004D6178696D756D20416363656C657246
:102DE0006174696F6E2028756E6974732F73322950
:102DF0003A0020450020204D3230332058004D61EC
:102E000078696D756D20666565647261746573209F
:102E100028756E6974732F73293A00537465707343
:102E20002070657220756E69743A0020204D31342F
:102E3000392043203B20556E69747320696E20430E
:102E4000656C736975730A0020286D6D2900202058
:102E5000473231202020203B20556E697473206951
:102E60006E206D6D00486F6D696E67204661696CFC
:102E70006564000000FA430000FA430000A040002F
:102E800000C8410000A0420000A0420000C843006A
:102E900000D342F4010000F4010000640000008847
:102EA000130000205A3A200020593A20004265645D
:102EB00020583A20005072696E7420506175736515
:102EC000640050726F62696E67204661696C656468
:102ED0000A0050726F62696E67204661696C6564B2
:102EE00000486F6D65202573257325732046697230
:102EF000737400220A00556E6B6E6F776E20636FDD
:102F00006D6D616E643A2022004C756379205265C4
:102F10006164792E005072696E74696E672E2E2E70
:102F200000003DE411241FBECFEFD0E4DEBFCDBFD3
:102F300011E0A0E0B1E0E2EDF7EE01E00BBF02C06E
:102F400007900D92A63FB107D9F720E1A6EFB1E0B7
:102F500001C01D92A134B207E1F717E1C2E9D7E140
:102F600004C02197FE010E9400F1C139D107C9F7C1
:102F70000E941BDF0C94E7F30C940000A2E3B0E086
:102F8000E4ECF7E10C9409F1209139032AA781E0E0
:102F900080933903809138038D3409F4D7C3843585
:102FA00011F40C94CA27873411F00C94E527809112
:102FB0003603909137038C31910509F435C18CF4B7
:102FC0008430910509F4D2C01CF4029738F1BAC3D9
:102FD0008531910511F40C94E7274B9709F404C14E
:102FE000B1C38A32910509F486C244F48D3191054A
:102FF00009F42AC14E9709F43BC1A4C38B3591054E
:1030000009F4F6C18C35910509F4F7C18A359105AB
:1030100009F098C3109235030C94E727809134038C
:10302000813011F00C94E72714E2C12E13E0D12E69
:103030008AE3E82E84E0F82E9CE0A92E90E1B92ED8
:1030400010E088E5810F0E947C3B882319F10E94E3
:1030500080392B013C01812F0E949BCC882351F0A9
:10306000D7012D913D914D915C91C301B2010E9418
:1030700041F109C0F5012081318142815381C301B1
:10308000B2010E9440F1D6016D937D938D939C9384
:1030900013970AC0F70180819181A281B381F60163
:1030A00080839183A283B3831F5FF4E0CF0ED11C92
:1030B00024E0E20EF11C34E0A30EB11C133009F63B
:1030C00085E40E947C3B882301F10E9480396B01DA
:1030D0007C0183E00E949BCC882371F02091460400
:1030E000309147044091480450914904C701B6010A
:1030F0000E9441F16B017C01C0923003D0923103F8
:10310000E0923203F092330310C080914604909114
:103110004704A0914804B0914904809330039093F0
:103120003103A0933203B093330340E050E0BA017F
:1031300086E40E94C2A020E030E0A9010E94E0F2F3
:10314000181684F40E94803920E030E040E752E411
:103150000E94BBF160936E0170936F0180937001C8
:10316000909371010E9466990C94E72780E50E9474
:103170007C3B882329F00E94B0CD6B017C0103C009
:10318000C12CD12C760183E50E947C3B882361F021
:103190000E94803920E030E04AE754E40E9499EA36
:1031A0000E9428F26B017C010E948F6A8091CF02FD
:1031B000811105C060E085E597E00E941E8D0E94A8
:1031C0000E70C60ED71EE81EF91E0E940E70DC019E
:1031D000CB018C199D09AE09BF09B7FD02C00C9443
:1031E000E7270E944D4EF1CF0E9479D981110C94AE
:1031F000E7278CE0E8E7F1E0DE01119601900D92FF
:103200008A95E1F780E50E947C3B882321F00E94AB
:103210004D39CB0102C080E090E0BE016F5F7F4F6F
:103220000E94608C0C94E7278091CE0287708730D3
:1032300011F00C94FA2760E08FE40E949E3B81110C
:103240000C94E7270C94FA270E9479D981110C94E9
:10325000E7278091CD02882311F40C941E2A60E0A8
:103260008FE40E949E3B81110C94E7270C941E2A48
:10327000209118103091191040911A1050911B1084
:1032800060913A0470913B0480913C0490913D041C
:103290000E9441F1AB01BC0188E50E94C2A0698394
:1032A0007A838B839C8320911C1030911D10409158
:1032B0001E1050911F1060913E0470913F04809148
:1032C0004004909141040E9441F1AB01BC0189E5A9
:1032D0000E94C2A06D837E838F839887BE016B5F3F
:1032E0007F4FCE0101960E949E37882311F40C94E3
:1032F000E72780E00E94584A0E94CE9C61E085E466
:103300000E949E3B21E0482FBE016B5F7F4FCE01A4
:1033100001960E9417DA6B017C019B01AC010E94AF
:103320005DF381115FC089809A80AB80BC8020E012
:1033300030E0A901C501B4010E9434EA87FF05C04D
:1033400027E137EB41E558EB04C027E137EB41E5D6
:1033500058E3C501B4010E9441F1AB01BC018DEA03
:103360009EE20E94A64D8D809E80AF80B88420E0B2
:1033700030E0A901C501B4010E9434EA87FF05C00D
:1033800027E137EB41E558EB04C027E137EB41E596
:1033900058E3C501B4010E9441F1AB01BC0188EAC8
:1033A0009EE20E94A64D20E030E0A901C701B601CF
:1033B0000E9434EA87FF05C067E177EB81E598EB6F
:1033C00004C067E177EB81E598E3A70196010E94CD
:1033D00041F1AB01BC0183EA9EE20E94A64D8AE066
:1033E0000E940FB80E94B59C0E94F99F0C94E72799
:1033F0008FE0809335030C94E727E3ED2E2EE1E078
:103400003E2EFFEBEF2EF2E0FF2EAAE3B4E0BF8FDB
:10341000AE8FACE0CA2EA0E1DA2E00E010E0F101A0
:1034200081911F010E947C3B882309F44AC00E94BD
:1034300080392B013C01133049F0D6012D913D918B
:103440004D915C910E9440F12B013C01EE8DFF8D6E
:103450002081318142815381C301B2010E9440F138
:103460004B015C012DEB37E346E855EB0E94E0F29F
:1034700087FD0AC02DEB37E346E855E3C501B401EB
:103480000E9434EA1816ECF4133051F440924604CA
:1034900050924704609248047092490401E011C0C0
:1034A000A5019401D7016D917D918D919C910E9410
:1034B00041F1F7016083718382839383812F0E949E
:1034C00033991F5FF4E0EF0EF11C2E8D3F8D2C5FC2
:1034D0003F4F3F8F2E8F34E0C30ED11C143009F0C4
:1034E0009ECF002321F086E494E00E944A6E0E9461
:1034F000F99F0C94E72780913403813011F00C94EC
:10350000E72789E40E947C3BE82E882321F00E9473
:103510007D39082F01C000E08AE40E947C3BF82E30
:10352000882321F00E947D39182F01C010E0EE2081
:1035300011F0053020F4FF2041F0153030F08CEF11
:1035400096E00E940D4D0C94E72780E1EAE3F4E059
:10355000A4E2B3E001900D928A95E1F7EE2019F113
:10356000602F000F770B880B990B0E943AEA20918D
:10357000AF023091B0024091B1025091B2020E946C
:1035800099EA2091B7023091B8024091B902509166
:10359000BA020E9441F16093240370932503809343
:1035A000260390932703FF2019F1612F110F770B4A
:1035B000880B990B0E943AEA2091B3023091B40231
:1035C0004091B5025091B6020E9499EA2091BB0247
:1035D0003091BC024091BD025091BE020E9441F167
:1035E000609328037093290380932A0390932B03FD
:1035F00060E080E50E949E3B8823C1F1EE20D1F07F
:10360000209118103091191040911A1050911B10F0
:1036100060912403709125038091260390912703E4
:103620000E9440F160932403709325038093260346
:1036300090932703FF20D1F020911C1030911D1092
:1036400040911E1050911F10609128037091290322
:1036500080912A0390912B030E9440F160932803EC
:103660007093290380932A0390932B0340E050E04A
:10367000BA0186E40E94C2A06B017C0120E030E028
:10368000A9010E94E0F218165CF420E030E040E767
:1036900052E4C701B6010E94BBF16B017C0103C07B
:1036A000C12CD12C760180906E0190906F01A0907A
:1036B0007001B090710120E030E0A901C701B601AE
:1036C0000E9434EA882341F0C0926E01D0926F01CB
:1036D000E0927001F092710100912101109122019C
:1036E00084E690E09093220180932101C0903A01FA
:1036F000D0903B01E0903C01F0903D0180E090E0F3
:10370000A0E8BFE380933A0190933B01A0933C0172
:10371000B0933D010E94669980926E0190926F0174
:10372000A0927001B09271011093220100932101C7
:10373000C0923A01D0923B01E0923C01F0923D01EF
:103740000C94E7270E946BD90C94E72780913603ED
:10375000909137038937910509F40DC60CF09BC091
:103760008C35910509F4A0C40CF04AC08934910548
:1037700009F484C2FCF48231910509F445C46CF467
:1037800097FF02C00C94C727823091050CF444C106
:10379000419709F4A1C10C94C7278A32910509F415
:1037A00065C28033910509F465C24F9711F00C94FE
:1037B000C727AFC18135910509F404C48CF48C345A
:1037C000910509F48DC28D34910509F49EC28B34A4
:1037D000910511F00C94C7270E9481B50C94E7273E
:1037E0008335910509F409C40CF400C484359105AE
:1037F00009F40AC48535910509F433C40C94C7272C
:103800008F36910509F405C3CCF48B36910509F484
:10381000E3C264F48936910509F4A3C20CF0B5C281
:103820008836910509F475C20C94C7278D36910529
:1038300009F493C20CF0DAC20C94E72783379105A0
:1038400009F4D0C45CF48137910509F42DC314F454
:103850000C94E7270E94BECA0C94E727863791058F
:1038600009F44CC534F48537910509F433C50C943B
:10387000C7278737910509F47BC58837910511F073
:103880000C94C72781E08093CC028093CB020E94E6
:10389000B9A00C94E7278E3241E0940711F40C9400
:1038A0003F260CF055C08D3C910509F43FC6FCF451
:1038B0008E3B910509F449C374F48139910509F4EB
:1038C00061C58B39910509F455C38C38910511F008
:1038D0000C94C72713C38B3C910509F4D4C50CF095
:1038E000F1C5893C910509F4A8C50C94C7278D3D05
:1038F000910509F435C79CF4833D910509F443C64D
:103900008C3D910509F405C78E3C910511F00C948E
:10391000C72710E6E12E12E0F12E10E022C6883112
:10392000A1E09A0709F4B0C734F4823E910509F486
:1039300061C70C94C7278232E1E09E0711F40C9412
:10394000DB248D32914011F40C944C250C94C72744
:10395000853A21E0920711F40C94932684F581397D
:1039600041E0940711F40C94862694F48033A1E08E
:103970009A0711F40C94CC2514F40C948326803906
:10398000914011F00C94C7270E948F6A0C94E7278E
:103990008A39F1E09F0711F40C94E727843A21E07B
:1039A000920711F40C9490268239914011F00C94F6
:1039B000C7270E9495370E94F99F0C94E727863FFE
:1039C00041E0940711F40C946B2784F4843FA1E048
:1039D0009A0711F40C94652714F00C9468278C3A1C
:1039E000914011F40C9409270C94C727883FF1E00B
:1039F0009F0711F40C94772714F40C946E278335E9
:103A000033E0930711F40C948827873E934011F418
:103A10000C94B9270C94C72780E50E947C3B88232F
:103A200029F00E94B0CD6B017C0103C0C12CD12CC8
:103A3000760183E50E947C3B882361F00E948039F7
:103A400020E030E04AE754E40E9499EA0E9428F21C
:103A50006B017C010E948F6A8091AD029091AE0251
:103A6000009739F020912410211108C00E94EF8C9A
:103A700005C060E089EE96E00E941E8D109139032A
:103A800083E08093390381E08093AC02C114D104B8
:103A9000E104F10431F00E940E70C60ED71EE81E3C
:103AA000F91E8091AC02882311F40C94252AC114CC
:103AB000D104E104F10411F40C94212A0E940E7047
:103AC000DC01CB018C199D09AE09BF09B7FF02C00B
:103AD0000C94212A0C94252A8091A80284FF02C00C
:103AE0000C942C2A8091AA0287FF02C00C942C2AE5
:103AF0008091AB02837011F00C942C2A60E080EE70
:103B000096E00E941E8D5E985E9815985E980C94C3
:103B1000E7270E9434896B017C0120E831E541E010
:103B200050E00E9470F0C9016DE671E00E94D9F08A
:103B30004B015C01C701B60120E13EE040E050E0EE
:103B40000E9470F0CA01B90128E130E040E050E085
:103B50000E9470F02B013C011B01C701B6012CE350
:103B600030E040E050E00E9470F06B017C01CA013F
:103B7000B9012CE330E040E050E00E9470F08E018B
:103B80000F5F1F4F8114910499F0DF92CF927F93C2
:103B90006F935F924F92BF92AF929F928F928FEBF3
:103BA00096E09F938F931F930F930E94CEE913C0CB
:103BB000A114B104B1F0DF92CF927F936F935F9223
:103BC0004F92BF92AF9283EC96E09F938F931F9397
:103BD0000F930E94CEE90FB6F894DEBF0FBECDBFA3
:103BE00032C04114510479F0DF92CF927F936F93EA
:103BF0005F924F9287EC96E09F938F931F930F9362
:103C00000E94CEE9E8CF6115710569F0DF92CF928D
:103C10007F936F938BEC96E09F938F931F930F93FB
:103C20000E94CEE9D8CFDF92CF928FEC96E09F939F
:103C30008F931F930F930E94CEE90F900F900F90D8
:103C40000F900F900F9080912410811103C0C80134
:103C50000E94EF8C0E94D44DB80183ED96E00E9443
:103C6000C44D8AE00E940FB80C94E7270E94B8CC9C
:103C70000C94E7270E94F2C30C94E72780E50E948A
:103C8000AC398823A1F00E94803920E030E048EC74
:103C900052E40E9499EA0E9428F2603137E27307E9
:103CA00010F060E177E27093A3026093A20282E5D4
:103CB0000E94AC39882311F40C94E7270E94B0CD00
:103CC0009B01AC01ACE3B0E00E94AEF06093A402B3
:103CD0007093A5028093A6029093A7020C94E72705
:103CE00080912810813011F00C94E72782E08093B6
:103CF00028100E940E7060939E0270939F02809322
:103D0000A0029093A1020C94E7270E9483890C944F
:103D1000E7278091360A83FF02C00C94E7270E94B0
:103D200072CC87FF02C00C94E72783E50E947C3B9E
:103D3000882379F00E9480390E9423F2CB010E94EF
:103D400024940E944796811104C00E9483890E9496
:103D50005AD90E94EC690C94E7270E94DDA50C94C7
:103D6000E7270E9472CC182F87FD0AC081EB92E0F2
:103D70000E940D4D812F0E9434948AE00E940FB85A
:103D80004AA5409339030C94E72D60E080E50E943A
:103D9000943B81110C94E72781E40E94AC3988237D
:103DA00029F060917204062F10E002C00FEF10E0BE
:103DB00083E50E947C3B882349F00E944D398B01AA
:103DC0006F3F710519F010F00FEF10E0B80180E0BF
:103DD0000E94F4D30C94E72760E080E50E94943BB6
:103DE00060E070E00E94F4D30C94E7278EE40E9418
:103DF0007C3B882311F40C94E7270E944D39609393
:103E00009A0270939B0280939C0290939D020C9463
:103E1000E72783E50E94AC39882331F060E083E531
:103E20000E94943B8093360A0E94D44D88EB96E022
:103E30000E940D4D8091360A882369F17AE6E72EBB
:103E400077E0F72E00E010E020E08091360A90E065
:103E5000A0E0B0E0002E04C0B695A7959795879591
:103E60000A94D2F780FF0EC0DD24D394D20E222311
:103E700019F08CE20E940FB8F701859194910E948D
:103E80000D4D2D2D0F5F1F4F52E0E50EF11C05303B
:103E90001105D9F604C084EB96E00E940D4D8AE02E
:103EA0000E940FB80C94E72783E50E947C3B88238F
:103EB00081F00E945D39282F30E02D33310524F444
:103EC000809320010C94E7278CE3809320010C94CD
:103ED000E7270E94D44DC0902001D12CE12CF12C79
:103EE0008DEA96E00E940D4D4AE0C701B6010E949E
:103EF00016B88AE00E940FB80C94E7278091360A22
:103F000083FF02C00C94E72783E50E947C3B882353
:103F100011F40C94E7270E9480390E9423F2633742
:103F2000710514F063E770E070938C0260938B026C
:103F30000E94AB920E94479681110C94E7270E9441
:103F400083890E945AD90C94E7278091360A83FF0F
:103F500002C00C94E72783E50E947C3B082F811167
:103F60000C943E2A82E50E947C3B81110C943E2AEF
:103F70000C94E72783E50E947C3B882311F40C9482
:103F8000E7270E945D39182F90E0CD970CF01CE3D5
:103F900010937E020E940E706B017C01212F30E095
:103FA000A8EEB3E00E94BEF0C60ED71EE81EF91EB2
:103FB000C0927A02D0927B02E0927C02F0927D0263
:103FC0000C94E7270E945A960E9483890E949F6A58
:103FD0000E94B4CC68EE73E080E090E00E94E84C70
:103FE00060E085E896E00E941E8DF1C78091350360
:103FF0008F7D806180933503EAC7809135038F7E82
:10400000806280933503E3C783E50E947C3B88236D
:1040100099F00E94803920E030E04AE754E40E94A1
:1040200099EA0E9428F260931B0170931C0180930F
:104030001D0190931E01CBC78091A80284FF02C08E
:104040000C94B52B8091AA0287FF02C00C94B52B6B
:104050008091AB02837011F00C94B52B0E949F6A83
:10406000B6C783E50E94AC39882309F4B0C70E9423
:104070000E7060937F027093800280938102909310
:1040800082020E94803920E030E04AE754E40E9436
:1040900099EA0E9428F260937602709377028093E7
:1040A00078029093790293C70E9472CC87FD8FC7E4
:1040B0009091A80294FD04C09091AA0297FF0AC0B3
:1040C00043EDC42E41E0D42E57E3E52E5AE0F52E01
:1040D00010E009C09091AB02937091F7682F81E0D6
:1040E0000E9475CD74C7D6018D916D010E947C3BF5
:1040F000882309F46DC0133009F063C00E94803931
:104100004B015C0120E030E040EA51E40E9434EAD7
:1041100087FF4EC0A50194016091570A7091580A1B
:104120008091590A90915A0A0E94BBF12B013C01DF
:104130009B01AC0160915604709157048091580422
:10414000909159040E9499EA609356047093570421
:104150008093580490935904A30192016091670AD7
:104160007091680A8091690A90916A0A0E9499EA9E
:104170006093670A7093680A8093690A90936A0A49
:10418000609166047091670480916804909169045D
:104190000E9438EAA30192010E9499EA0E9428F243
:1041A0006093660470936704809368049093690435
:1041B0008092570A9092580AA092590AB0925A0ACD
:1041C00007C00E948039F701648B758B868B978BB3
:1041D0001F5FF4E0EF0EF11C143009F084CF0E9451
:1041E0006C6AF5C680EB95E00E940D4D60E080EAB8
:1041F00095E00E9462A960E08BE895E00E9462A9C8
:1042000061E087E094E20E9462A960E080E895E0C6
:104210000E9462A961E080E795E00E9462A960E0E7
:1042200087E695E00E9462A961E08DE595E00E9435
:1042300062A961E083E595E00E9462A961E08BE4F8
:1042400095E00E9462A961E08DE395E00E9462A979
:1042500061E08FE295E00E9462A960E080E295E073
:104260000E9462A960E082E195E00E9462A960E09C
:104270008CEF94E00E9462A961E08BEE94E00E94D2
:1042800062A960E08CED94E00E9462A960E085ED97
:1042900094E00E9462A960E080EC94E00E9462A930
:1042A00060E082EB94E00E9462A961E08FE994E013
:1042B0000E9462A960E082E994E00E9462A961E044
:1042C00085E894E00E9462A960E081E794E00E94A2
:1042D00062A97DC68091AD029091AE02009759F01F
:1042E000DC012C91222339F02091241021116FC67A
:1042F0000E94EF8C6CC60E945AD969C60091AD022B
:104300001091AE0294E0F12C40E0915021F1F801BF
:104310008081282F2B7F213421F421812133D9F46E
:1043200007C08035C1F4818180538A3048F013C0C2
:10433000813421F0853421F441E002C0FF24F3945C
:1043400098012E5F3F4F89012F5F3F4FF801808119
:104350008032C9F3DACF41110E94D44DFF2021F001
:104360008DE694E00E940D4DC8010E9400B92FC651
:104370000E946AA02CC61092CC021092CB020E941E
:10438000B9A025C660E070E083E50E94883B8C01FF
:104390001127023011053CF00E94D14D8BE494E0CE
:1043A0000E940D4D14C688E40E947C3B8823A9F02E
:1043B0000E947D398A3A91053CF08530F1E09F07F3
:1043C0002CF084E091E002C08AEA90E0F801EE0F60
:1043D000FF1FEE58FD4F9183808386E40E947C3B53
:1043E000882381F00E947D3997FD07C08F3F91059A
:1043F00029F024F08FEF90E001C080E0F801E0594F
:10440000FD4F808382E40E947C3B882309F4DFC552
:104410000E947D398530910534F0843791052CF068
:1044200083E790E002C085E090E0000F111FF801E3
:10443000E459FD4F91838083CAC50E9472CC87FDE9
:10444000C6C583EDE82E81E0F82E07E31AE097E475
:10445000C92E9AE0D92ED7018D917D010E94AC39E9
:10446000882359F00E9480390E9428F2F801608365
:104470007183828393830E942B6A0C5F1F4FC01647
:10448000D10649F7A4C50E9472CC87FDA0C503EDF3
:10449000E02E01E0F02E07E31AE0D7018D917D01B7
:1044A0000E94AC39882339F00E948039F80164A356
:1044B00075A386A397A30C5F1F4FFAE007341F076D
:1044C00061F785C58091A90287FF02C00C94DA2BA1
:1044D0008091AA028E7011F00C94DA2B40916B0A35
:1044E00050916C0A60916D0A70916E0A8BE394E0B2
:1044F0000E94A64D40916F0A5091700A6091710A16
:104500007091720A88E394E00E94A64D4091730A6C
:104510005091740A6091750A7091760A85E394E06F
:104520000E94A64D8AE00E940FB851C58091A80252
:10453000827111F00C94202C8091AA028C7811F0D9
:104540000C94202C8091AB02837011F00C94202CE1
:104550003EC51F5FB4E0EB0EF11C133011F40C9458
:10456000771A88E5810F0E94AC39882391F30E9465
:104570008039D7016D937D938D939C931397812FF1
:104580000E943399E6CF40900C1050900D1060902F
:104590000E1070900F102091030130910401409192
:1045A000050150910601C301B2010E9441F16E8FD5
:1045B0007F8F88A399A38090101090901110A090E5
:1045C0001210B09013102091070130910801409112
:1045D000090150910A01C501B4010E9441F16AA389
:1045E0007BA38CA39DA3C0901410D0901510E090D5
:1045F0001610F090171020910B0130910C01409192
:104600000D0150910E01C701B6010E9441F16EA348
:104610007FA388A799A720910F01309110014091A5
:10462000110150911201C301B2010E9441F12B010D
:104630003C012091130130911401409115015091DA
:104640001601C501B4010E9441F14B015C012091AA
:104650001701309118014091190150911A01C701B9
:10466000B6010E9441F16B017C010E94D44D83EFA1
:1046700093E00E940D4D83E50E94AC39882321F020
:104680000E946E398093020180910201882319F003
:1046900080E99AE102C08CEA95E00E940D4D8BEE14
:1046A00093E00E940D4D4E8D5F8D68A179A18EEC37
:1046B0009DE20E94A64D4AA15BA16CA17DA185E669
:1046C00098E20E94A64D4EA15FA168A579A58EE54E
:1046D00098E20E94A64D81EB99E10E940D4D83EE78
:1046E00093E00E940D4DB301A2018EEC9DE20E9469
:1046F000A64DB501A40185E698E20E94A64DB7013A
:10470000A6018EE598E20E94A64D8AE00E940FB8AD
:104710005EC483E50E947C3B882331F00E947D3992
:1047200090932201809321018091A8029091A90287
:10473000A091AA02B091AB02892B8A2B8B2B09F096
:1047400046C460912101709122018FED93E00E9497
:10475000B74D85E20E940FB88AE00E940FB837C4B7
:104760000E9472CCF82E87FD32C483E50E947C3B08
:104770000F2D0F2C000C110B882309F10E947D399D
:10478000F801EE0FFF1FE050FF4F91838083000F71
:10479000111F000F111F065C1E4FBC01990F880BE3
:1047A000990B0E943AEA2AE037ED43E25CE30E946B
:1047B00099EAF801608371838283938308C40E941D
:1047C000D44D85E40E940FB880E38F0D0E940FB88E
:1047D000000F111FF801E050FF4F6081718187EDDC
:1047E00093E00E94B74D85E20E940FB88AE00E94D4
:1047F0000FB8EDC380E50E94AC39882309F4E7C304
:1048000060E070E080E50E94883B8C016FEF7FEFF5
:1048100083E50E94883B7C010196039708F0D7C38B
:1048200007FDD5C3802F0E94BFB5882339F00E94B1
:10483000D14D88EC93E00E940D4DC9C30E948F6A50
:10484000D02E60E0802F0E94E8ABFFEFEF16FF064E
:1048500029F021E0E216F10459F007C0802F0E94F0
:1048600094AB01E010E0892B29F000E010E002C0D9
:1048700001E010E08D2D0E9494AB8017910709F4A0
:10488000A6C30E944D4EF6CF80E50E94AC39882326
:1048900009F49DC30E947D398C01892B09F07FC0EA
:1048A00083E50E94AC39882389F00E947D398F3FCF
:1048B0003FEF930729F481E49EE00E94DFB587C3B0
:1048C000BC0181E49EE00E9479B681C30E94D44D70
:1048D00060E070E080EC93E00E94B74D8091430E61
:1048E00028E532E06901C81AD10887FDD394CC0CC1
:1048F000DD1CCC0CDD1C0D2C000CEE08FF0880919B
:10490000420E28E830E04901881A910887FD939407
:10491000880C991C880C991C092C000CAA08BB084F
:104920008091410E8F3FC1F090E0FC01EE0FFF1F20
:104930008E0F9F1FFC01E45EF14F2181328143E025
:10494000220F331F4A95E1F754E0369527955A9583
:10495000E1F72E5F3F4F02C020E030E02F5F3F4F76
:10496000C901330FAA0BBB0B9C01AD0128193909F2
:104970004A095B09A4EBB0E00E94AEF0A7019601E2
:10498000281939094A095B090E9492F0B90183EF9D
:104990009BE20E94B74D8AE00E940FB818C30E94A4
:1049A000D14DB80181EC93E00E94B74D86E097E0CD
:1049B0000E940D4D0CC38AE50E947C3B811106C00C
:1049C00083E50E947C3B882309F44BC00E94803918
:1049D00020E030E040E050EC0E9434EA87FDADC7B3
:1049E0000E94803920E030E040E050E40E94E0F294
:1049F00018160CF49CC70E9480396B017C018091D1
:104A00000A108695869580FF22C02091530A309126
:104A1000540A4091550A5091560AC701B6010E94A6
:104A200099EA0E9423F220915E0230915F02260FE4
:104A3000371F30935F0220935E0220915C02309119
:104A40005D02620F731F70935D0260935C0280E5EC
:104A50000E94AC39882309F476C70E946E3981110F
:104A600072C78091AA0287FD94C78091AB028370C0
:104A700009F08FC70E94D44D409120105091211011
:104A8000609122107091231081EB93E00E94A64D5B
:104A90008AE00E940FB89BC260E085E40E94943BCC
:104AA000811173C080E50E94AC39882351F00E94C7
:104AB00080396093100E7093110E8093120E9093B4
:104AC000130E89E40E94AC39882381F00E9480395A
:104AD0002CEA35EC47E25EE30E9499EA6093140EFB
:104AE0007093150E8093160E9093170E84E40E9417
:104AF000AC39882381F00E9480392CEA35EC47E2FA
:104B00005EE30E94BBF16093180E7093190E8093C0
:104B10001A0E90931B0E0E94D44D4091100E50918E
:104B2000110E6091120E7091130E8DEA93E00E94A7
:104B3000A64D2CEA35EC47E25EE36091140E7091CD
:104B4000150E8091160E9091170E0E94BBF1AB01CD
:104B5000BC0189EA93E00E94A64D2CEA35EC47E2BD
:104B60005EE36091180E7091190E80911A0E90916B
:104B70001B0E0E9499EAAB01BC0185EA93E00E94FA
:104B8000A64D8AE00E940FB822C20E94D14D83E94F
:104B900093E00E940D4D1BC280E50E94AC39882332
:104BA00051F00E94803960938E0270938F0280933F
:104BB00090029093910289E40E94AC39882381F09D
:104BC0000E9480392CEA35EC47E25EE30E9499EAC4
:104BD0006093920270939302809394029093950253
:104BE00084E40E94AC39882381F00E9480392CEA49
:104BF00035EC47E25EE30E94BBF16093960270934E
:104C0000970280939802909399020E94D44D40910C
:104C10008E0250918F0260919002709191028DEA04
:104C200093E00E94A64D2CEA35EC47E25EE36091EA
:104C300092027091930280919402909195020E9449
:104C4000BBF1AB01BC0189EA93E00E94A64D2CEABE
:104C500035EC47E25EE36091960270919702809195
:104C60009802909199020E9499EAAB01BC0185EAF1
:104C700093E00E94A64D8AE00E940FB8A8C183E588
:104C80000E94AC39182F882371F00E9480390E944D
:104C900023F270933F0160933E0121E0672B09F0FE
:104CA00020E02093830480E50E94AC39882359F0EA
:104CB00020913E0130913F01232B11F00E946E396B
:104CC0008093830484C1111182C10E94D44D80E875
:104CD00093E00E940D4D80918304882319F088E1B0
:104CE00092E102C087E693E00E940D4D60913E0183
:104CF00070913F018FE693E00E94B74D8BE693E001
:104D00000E940D4D64C10E94D6A061C180910B101C
:104D100081110C94771A81E00E942A690C94771A09
:104D20000E94F53954C16FEF7FEF89E40E94883B00
:104D30008C016FEF7FEF8AE40E94883B7C018AE55B
:104D40000E947C3B811108C081E50E947C3BD82EEB
:104D5000882309F424C601C0D12CC02E81E0800F25
:104D6000863008F04FC0BE2C81E08E0D863008F0F2
:104D700049C0102F0E9480392B013C01A02E07FD55
:104D8000A12C17FF02C0A4E0CA2E8E2DE7FCE12C57
:104D900087FF02C0F4E0BF2EE5E03E2ECA1408F4FF
:104DA00016C1FE2C3A9C40011124BF1448F10F2D6E
:104DB00010E0DD2071F0F401E00FF11FEE0FFF1F96
:104DC000EE0FFF1FE850FE4F208131814281538159
:104DD00003C020E030E0A901080D191D000F111FCC
:104DE000000F111F08501E4FC301B2010E9441F174
:104DF000D8016D937D938D939C931397F394D5CFA6
:104E0000A394CCCF0E94D14D8CEF96E00E940D4D23
:104E1000DEC00E9479D98111DAC00EE517E0EAE31D
:104E2000F4E0FF8FEE8F9E012F5F3F4F19019CE84A
:104E3000C92E97E0D92E7901C8010E946AC8AE8DAB
:104E4000BF8D8D909D90AD90BD90BF8FAE8FA50111
:104E500094010E9440F12B013C01F70160837183B2
:104E60008283938320E030E040EA51EC0E94E0F23C
:104E700087FD0AC020E030E040EA51E4C301B201FE
:104E80000E9434EA18162CF4F601849118160CF4DA
:104E90008DC5D7018D909D90AD90BD907D0120E096
:104EA00030E040EA51ECC501B4010E94E0F287FD18
:104EB00088C520E030E040EA51E4C501B4010E9419
:104EC00034EA18160CF08BC57CC50E94578D7FC044
:104ED0000E943BD67CC00E94E0D479C061E083E5AB
:104EE0000E949E3B91E089270E9449D670C081E0D4
:104EF0008093F7010E9409BE1092F701882309F4FC
:104F000066C00E94D44D80E093E00E940D4D5FC0CA
:104F10008091AA0287FD8DC58091AB02837009F054
:104F200088C5409118105091191060911A10709115
:104F30001B1081EF92E00E94A64D40911C105091F1
:104F40001D1060911E1070911F1085E698E20E945E
:104F5000A64D409120105091211060912210709127
:104F600023108EE598E20E94A64D8AE00E940FB8B9
:104F70002EC081E0809334031092241060E083E51A
:104F80000E949E3B811123C00E94A1A720C00E94C5
:104F90006BD91DC000913603109137030023B9F07F
:104FA0000E94D44D84E50E940FB8B8017727072EE0
:104FB000000C880B990B0E9470B880E20E940FB819
:104FC00083E993E00E940D4D02C00E946BD9E091ED
:104FD000F601F0E0E355F14F8081882339F081EB51
:104FE00092E00E940D4D8AE00E940FB83AA53093DE
:104FF0003903EDC50E948F6A3090CD0280E00E9497
:10500000584A0E94CE9C81E08093CC020E94B9A0B5
:105010008AE50E94AC39082F8823A1F081E00E9424
:105020005399F82E82E00E94539911E0811101C03A
:1050300010E0F110C7C588E50E94AC39F82E811147
:1050400003C0EBC110E0F7CF111107C089E50E9442
:10505000AC39182F8F1107C01F2D0113E1C111E0CA
:10506000FF24F39401E080E1EAE3F4E0A4E2B3E09A
:1050700001900D928A95E1F782E50E947C3B88239E
:1050800061F00E9480394B015C0120E030E0A90111
:105090000E9434EA8823D1F106C0812C912CB0EA19
:1050A000AB2EB0E4BB2E80910A1082FD09C0209186
:1050B000420430914304409144045091450403C09C
:1050C00020E030E0A901C501B4010E9441F16093E4
:1050D0002C0370932D0380932E0390932F03209124
:1050E00042043091430440914404509145040E948D
:1050F000E0F218165CF419821A821B821C82BE012F
:105100006F5F7F4F8CE293E00E94B69DFF2009F411
:10511000C8C0112309F4C2C010923A0410923B0493
:1051200010923C0410923D0410923E0410923F04F1
:1051300010924004109241040E94699EECE8F7E04E
:10514000249080E897E00E946AC84B015C0184E8E3
:1051500097E00E946AC82B013C019B01AC01C5018C
:10516000B4010E94E0F218162CF4A5019401C301C9
:10517000B20104C0A3019201C501B4010E94BBF1B8
:105180006E8F7F8F88A399A3E8E7F7E085919591CB
:10519000A591B4918AA39BA3ACA3BDA3E4E7F7E0D8
:1051A000C590D590E590F490A7019601BC01CD0182
:1051B0000E94E0F2181624F0CAA0DBA0ECA0FDA02B
:1051C0002E8D3F8D48A159A1CA01B9010E9499EACB
:1051D00020E030E040E85FE30E9441F10E941FF3CD
:1051E000A70196010E9499EA6A8F7B8F8C8F9D8F11
:1051F000EDE8F7E0F49020E030E040EC5FE3C3013D
:10520000B2010E9499EA2B013C016F2DFF0C770B34
:10521000880B990B0E943AEA9B01AC01C301B201D1
:105220000E9499EA69837A838B839C8320E030E033
:1052300040EC5FE3C501B4010E9499EA6B017C0177
:10524000622D022C000C770B880B990B0E943AEA16
:105250009B01AC01C701B6010E9499EA6E8B7F8B5E
:10526000888F998FAE01465E5F4FBE016F5F7F4FA3
:10527000CE0146960E94959D0E94AAD410923A04AF
:1052800010923B0410923C0410923D0410923E0494
:1052900010923F04109240041092410480E00E945A
:1052A0006B9E112319F081E00E946B9E002309F48C
:1052B000A3C080E00E946A3C80910A108370833012
:1052C00051F060E087E497E00E941E8D0E94D44D6B
:1052D00088E397E0B0C00E94699E409042045090DD
:1052E000430460904404709045042091181030915C
:1052F000191040911A1050911B1060E070E08AEE76
:1053000092E40E9440F16B017C016093240370934E
:105310002503809326039093270320911C1030913E
:105320001D1040911E1050911F1060E070E08AEE39
:1053300092E40E9440F14B015C016093280370935A
:10534000290380932A0390932B03209120103091FE
:1053500021104091221050912310C301B2010E94EC
:1053600040F160932C0370932D0380932E03909350
:105370002F0327E137EB41ED58EBC501B4010E9443
:10538000E0F287FD4FC027E030E04BE653E4C50173
:10539000B4010E9434EA18160CF444C027E137EB3C
:1053A00041ED58EBC701B6010E94E0F287FD3AC01B
:1053B00027E030E04BE653E4C701B6010E9434EA2F
:1053C000181684F11E8A1F8A188E198E88E0E4E26E
:1053D000F3E0DE01119601900D928A95E1F7AE019E
:1053E0004A5E5F4FBE016B5F7F4FCE0101960E9408
:1053F000959D82E00E946B9E0E94699E8091CB02E7
:105400008093CC02832D0E94584A0E94B59C83E071
:10541000809323010E94F99FDACD111124CE16CE7C
:10542000F12E21CE60E087E297E00E941E8D0E945F
:10543000D44D85E197E00E940D4DDECF0E94263DC0
:10544000C6CD0E944D4E0C94511D1092AC0210938B
:1054500039030E945AD9BBCD88E50E94AC3981112D
:105460005E9889E50E94AC3981115E988AE50E94B8
:10547000AC39882309F4ABCD1598A9CD0E948039A9
:105480000E9423F2633771050CF06CC170938C029B
:1054900060938B020E94AB920E94479681110E94FA
:1054A00081B560918B0270918C02072E000C880BE5
:1054B000990B0E943AEA209187023091880240912C
:1054C000890250918A020E94E0F218161CF48EE9BB
:1054D00096E002C08FE896E060E00E941E8D81E0B9
:1054E00080931F011EA21FA218A619A61BA61CA608
:1054F0001DA61EA610E080E09CE3ACE1B6E48FA7F9
:1055000098ABA9ABBAABC12CD12C60E8E62E6FEBFF
:10551000F62E33243394412C512C320160918B02AE
:1055200070918C02072E000C880B990B0E943AEAAE
:105530004B015C01A70196010E9434EA8823F9F02F
:1055400020918702309188024091890250918A020D
:10555000C501B401011107C00E9434EA182F111FC0
:105560001127111F10C00E9434EA87FF0BC08091E1
:105570001F01882309F42BCD0E945AD928CD46015A
:10558000570101C010E00E940E706B017C01DC012C
:10559000CB012BA53CA54DA55EA5821B930BA40BAF
:1055A000B50BB7FD33C0D701C60188519C4FAF4F33
:1055B000BF4F8BA79CA7ADA7BEA780E00E943494E5
:1055C00087E892E00E940D4D41145104610471047A
:1055D000B9F0D301C201805F984DAF4FBF4FBC01FE
:1055E000CD016C197D098E099F0928EE33E040E05A
:1055F00050E00E9470F0CA01B9010E9470B803C067
:105600008FE30E940FB88AE00E940FB80E944D4EAF
:105610000E940E7060937F027093800280938102DB
:1056200090938202209187023091880240918902F2
:1056300050918A022AA33BA34CA35DA3C501B401E8
:105640000E9440F16E8F7F8F88A399A320E030E005
:10565000A9010E94E0F287FF09C08E8D9F8DA8A14D
:10566000B9A1B0588E8F9F8FA8A3B9A3411451043C
:1056700061047104B9F420E030E040E85FE36E8D2E
:105680007F8D88A199A10E9434EA87FF19C0260165
:1056900037013320A9F090E1490E97E2591E611CB1
:1056A000711C0EC020E030E040E450E46E8D7F8D30
:1056B00088A199A10E94E0F2181614F4260137017E
:1056C0001123A9F12EA13FA148A559A52115310506
:1056D0004105510541F0D701C601821B930BA40B74
:1056E000B50BB7FD24C02AA13BA14CA15DA16FA5BC
:1056F00078A989A99AA90E9440F120E030E040E809
:105700005FE30E9434EA87FD32CFD701C601805A99
:105710009541AF4FBF4F8EA39FA3A8A7B9A72AA1BA
:105720003BA14CA15DA12FA738AB49AB5AAB8091EF
:105730001F01882309F41BCF411451046104710433
:1057400021F4312C75016401E9CE30E1C31A37E24E
:10575000D30AE108F108C418D508E608F708F7FCF1
:10576000F0CF05CF63E770E091CE0E948F6A88E5A5
:105770000E94AC39882331F05E9A80910A108E7FA6
:1057800080930A1089E50E94AC39882331F05E9A33
:1057900080910A108D7F80930A108AE50E94AC39AF
:1057A000882309F414CC159A80910A108B7F80937A
:1057B0000A100DCC83E50E947C3B882391F00E9467
:1057C000803960936B0A70936C0A80936D0A909392
:1057D0006E0A6093730A7093740A8093750A9093AB
:1057E000760A80E50E947C3B882351F00E94803934
:1057F00060936B0A70936C0A80936D0A90936E0AA3
:1058000082E50E947C3B882351F00E94803960939E
:105810006F0A7093700A8093710A9093720A84E5FC
:105820000E947C3B882309F4D2CB0E94803960938C
:10583000730A7093740A8093750A9093760AC7CBA3
:1058400082E40E94AC39882351F00E94B0CD60936D
:10585000470A7093480A8093490A90934A0A83E55D
:105860000E94AC39882351F00E9480396093770AF6
:105870007093780A8093790A90937A0A84E50E945B
:10588000AC39882351F00E94803960937B0A709371
:105890007C0A80937D0A90937E0A88E50E94AC3949
:1058A000882351F00E94803960934A0470934B041E
:1058B00080934C0490934D0489E50E94AC39882371
:1058C00051F00E94803960934E0470934F0480938E
:1058D0005004909351048AE50E94AC398823B1F0BA
:1058E0000E9480396093520470935304809354044F
:1058F000909355042DEC3CEC4CEC5DE30E9434EAB3
:10590000181624F083E094E00E940D4D85E40E9477
:10591000AC39882309F45BCB0E948039609356042C
:1059200070935704809358049093590450CBC12C22
:10593000D12CE12C80E4F82E62C8C12CD12CE12CB2
:10594000B0ECFB2E5CC8A70196016091201070910D
:10595000211080912210909123100E9441F16093B8
:1059600020107093211080932210909323100E9496
:10597000D44D4091201050912110609122107091CF
:10598000231081EB93E00E94A64D8AE00E940FB89D
:1059900068C882E50E94AC3981116CC818CB0E949E
:1059A000D14D87E493E00E940D4D11CBB7FAB0942E
:1059B000B7F8B094D7018D929D92AD92BC92139797
:1059C00068CA0E94D14D89E293E00E940D4D61E0CA
:1059D0008BE193E00E941E8D0E94A4B0F8CA0C5F78
:1059E0001F4FBFEFCB1ADB0AEAE6F7E0E017F1073B
:1059F00009F022CA80E6E82E82E0F82E10E0F101DC
:105A000081919191A191B1911F01F701819391939E
:105A1000A193B1937F01812F0E9433991F5F1330AF
:105A200071F70E94F99F60E08BE093E00E941E8D69
:105A3000CECA209118103091191040911A1050912F
:105A40001B102E8F3F8F48A359A340901C105090DD
:105A50001D1060901E1070901F10C0902010D090EC
:105A60002110E0902210F090231088E50E947C3BEA
:105A7000882361F10E9480394B015C0120E030E015
:105A80004BE653EC0E94E0F287FD0AC020E030E0D4
:105A90004BE653E4C501B4010E9434EA181694F4AD
:105AA0006BEE70E08EED92E00E94B74D6BEE70E011
:105AB00089ED92E00E94B74D83EB99E20E940D4D73
:105AC00010E005C08E8E9F8EA8A2B9A211E089E5D4
:105AD0000E947C3B882351F10E9480394B015C017C
