:100000000C9485170C94AF170C94AF170C94AF1782
:100010000C9472CC0C9472CC0C9472CC0C9472CC68
:100020000C94AF170C94AF170C94AF170C94AF1738
:100030000C94AF170C94DC700C94AF170C94AF17A2
:100040000C94AF170C94C4A60C9497780C94AF172B
:100050000C948DB70C9483B70C94AF170C94AF1716
:100060000C94AF170C94AF170C94AF170C94AF17F8
:100070000C94AF170C94AF170C94AF170C94AF17E8
:100080000C94AFB50C94AF170C94AF17C3A9C8A9C3
:10009000CDA9D7A905AA05AAE1A9E9A9F1A9FBA9B2
:1000A000ECAEEFAEE2AEE6AE06AF06AFF3AEF7AE45
:1000B000FDAE01AFBFB7CFB7E0B7EBB7F3B70AB844
:1000C000F7B70AB8FBB7FFB70AB805B8AAC968C836
:1000D0009BC8E6C99BC89BC89BC89BC89BC89BC8BC
:1000E0009BC89BC89BC89BC89BC89BC89BC89BC8F8
:1000F0009BC89BC89BC89BC89BC89BC89BC89BC8E8
:100100009BC89BC89BC89BC8E0C99BC89BC89BC891
:100110009BC89BC89BC89BC89BC8B9C99BC89BC8A8
:100120009BC89BC89BC89BC89BC89BC89BC89BC8B7
:10013000FDC998C805A84CCDB2D44EB93836A9022D
:100140000C50B9918688083CA6AAAA2ABE000000D5
:10015000803F4E414E494E495459494E46CDCCCC34
:100160003D0AD7233C17B7D13877CC2B329595E68B
:10017000241FB14F0A000020410000C84200401C6B
:100180004620BCBE4CCA1B0E5AAEC59D7400407AB8
:1001900010F35A00A0724E18090010A5D4E8000010
:1001A000E87648170000E40B54020000CA9A3B00AE
:1001B0000000E1F505000080969800000040420F25
:1001C000000000A08601000000102700000000E8E9
:1001D00003000000006400000000000A00000000AE
:1001E000000100000000002C76D888DC674F08234F
:1001F000DFC1DFAE59E1B1B796E5E3E453C63AE6B5
:1002000051997696E8E6C28426EB898C9B62ED4094
:100210007C6FFCEFBC9C9F40F2BAA56FA5F49005E3
:100220005A2AF75C936B6CF9676DC11BFCE0E40D17
:1002300047FEF520E6B500D0ED902E03009435770B
:10024000050080841E080000204E0A000000C80C33
:10025000333333330F986E12831141EF8D2114899C
:100260003BE65516CFFEE6DB18D1844B381BF77CF6
:100270001D901DA4BBE424203284725E228100C93B
:10028000F124ECA1E53D2720573A00434F4D4D5551
:100290004E49434154494F4E0044525952554E0025
:1002A0004552524F525300494E464F004543484F26
:1002B000006F6B003F5A206F7574206F662072616B
:1002C0006E67652028003F59206F7574206F662087
:1002D00072616E676520282D0020746F20003F58E2
:1002E000206F7574206F662072616E676520282DFF
:1002F0000050726F6265204F666673657420580007
:10030000454550524F4D204F4B0A004F666673656E
:100310007473204170706C696564004572723A2094
:10032000546F6F206661722100546F6F2066617296
:100330002066726F6D207265666572656E636520FA
:10034000706F696E740A004D34323120696E636FCC
:10035000727265637420706172616D65746572207C
:1003600075736167650A006469730043290A006157
:10037000626C656420286D696E2074656D70200064
:10038000436F6C6420657874727564657320617264
:10039000652000496E76616C6964206578747275B9
:1003A0006465720A0020643A0020693A0020703ABD
:1003B0000050726F6265204F6666736574205A0044
:1003C00020536572766F200050726F746563746598
:1003D000642050696E0A0020466C6F773A20004610
:1003E000523A0020204D61783A200020204D696E5D
:1003F0003A2000536F667420656E6473746F707377
:100400003A20005741524E494E4721204C6F7720E9
:100410005A204A65726B206D6179206C6561642099
:10042000746F20756E77616E74656420706175738A
:1004300065732E0A00205400205200416363656CEE
:1004400065726174696F6E3A2050004D3134352009
:10045000533C696E6465783E206F7574206F66202A
:1004600072616E67652028302D31290A002F2F20F8
:10047000004348414D4245525F54454D504552411D
:100480005455524500424142595354455050494EEB
:1004900047004D4F54494F4E5F4D4F444553005414
:1004A0004845524D414C5F50524F54454354494F7B
:1004B0004E004C4F4E475F46494C454E414D45001E
:1004C0004155544F5245504F52545F53445F53541B
:1004D00041545553005344434152440050524F4DF0
:1004E00050545F535550504F525400454D4552475C
:1004F000454E43595F504152534552004341534585
:100500005F4C494748545F4252494748544E45530F
:100510005300544F47474C455F4C4947485453009C
:10052000534F4654574152455F504F574552004232
:1005300055494C445F50455243454E54004C455636
:10054000454C494E475F44415441005A5F50524F19
:100550004245004155544F4C4556454C0050524978
:100560004E545F4A4F420050524F4752455353003A
:100570004155544F5245504F52545F54454D5000D1
:10058000564F4C554D45545249430042494E4152F5
:10059000595F46494C455F5452414E5346455200BF
:1005A00053455249414C5F584F4E5F584F464600A5
:1005B0004649524D574152455F4E414D453A4D6176
:1005C000726C696E206275676669782D322E302EE6
:1005D0007820284A756C2032372032303230203271
:1005E000303A35343A35382920534F555243455F18
:1005F000434F44455F55524C3A68747470733A2FB8
:100600002F6769746875622E636F6D2F4D61726C10
:10061000696E4669726D776172652F4D61726C69A2
:100620006E2050524F544F434F4C5F5645525349E2
:100630004F4E3A312E30204D414348494E455F548C
:100640005950453A4C7563792045585452554445A4
:10065000525F434F554E543A3120555549443A6301
:10066000656465326132662D343161322D34373440
:10067000382D396231322D63353563363266333683
:100680003766660A004C756379204F46462E004255
:10069000656420436F6F6C696E672E2E2E00426575
:1006A000642048656174696E672E2E2E004D3131CD
:1006B000332053006F66660044454255473A002593
:1006C000697920256964202569682025696D2025C0
:1006D0006973005072696E742074696D653A200008
:1006E0004E6F204D6F76652E00436C69636B2074EE
:1006F0006F20526573756D652E2E2E004D657368E3
:1007000020706F696E74206F7574206F662072613F
:100710006E67650A005A2050726F626520506173DF
:1007200074204265640A005A2050726F626520503E
:100730006173742042656400486F6D6520585920CC
:1007400066697273740A00486F6D652058592046B7
:100750006972737400536C6565702E2E2E00000054
:1007600000000000000000000000AC02A702A00290
:1007700099028B0200004842000048420000A0415C
:1007800000006B4300006B4300007A43FFFFFF242F
:10079000F4D43050C38E20C2A24017828B70111245
:1007A0007A910D816CD90AA861E108C75866076182
:1007B0005143061E4B5D05C145A7041A41110409AA
:1007C0003D9803713931034036DB0265339102D421
:1007D000305402802E1D02632CEE01752AC501B033
:1007E00028A001102781018F2564012B244B01E0F3
:1007F000223401AC211F018D200D01801FFC0084DB
:100800001EED00971DDF00B81CD200E61BC60020BD
:100810001BBC00641AB200B219A8000A19A0006A31
:10082000189900D117910040178B00B5168400313C
:10083000167E00B31579003A157300C7146F00587F
:10084000146A00EE1366008813630025135E00C768
:10085000125B006C12570015125400C11151007048
:10086000114F0021114B00D61049008D1047004652
:1008700010440002104200C00F4000800F3E0042B2
:100880000F3C00060F3B00CB0E3800930E37005C88
:100890000E3500270E3400F30D3200C10D310090EB
:1008A0000D3000600D2E00320D2D00050D2C00D9ED
:1008B0000C2B00AE0C2900850C29005C0C270035A0
:1008C0000C27000E0C2600E80B2400C40B2400A00B
:1008D0000B23007D0B23005A0B2100390B2100183C
:1008E0000B2000F80A1F00D90A1E00BB0A1E009D3B
:1008F0000A1D00800A1D00630A1C00470A1B002C09
:100900000A1B00110A1A00F7091A00DD091900C4B0
:10091000091900AB091900920917007B0918006337
:100920000917004C09160036091600200916000A9E
:10093000091500F5081500E0081400CC081400B8EB
:10094000081400A4081400900813007D0812006B1E
:10095000081300580812004608120034081100233A
:100960000811001208110001081100F0071000E042
:10097000071000D0071000C0071000B0070F00A13B
:1009800007100091070E0083070F0074070F006522
:10099000070E0057070E0049070E003B070D002EFB
:1009A000070E0020070D0013070D0006070D00F9C4
:1009B000060C00ED060D00E0060C00D4060C00C885
:1009C000060C00BC060C00B0060C00A4060B009937
:1009D000060C008D060B0082060B0077060B006CE0
:1009E000060B0061060A0057060B004C060A00427F
:1009F000060A0038060A002E060A0024060A001A13
:100A0000060A001006090007060A00FD050900F4A1
:100A1000050900EB050900E2050900D9050900D028
:100A2000050900C7050900BE050900B5050800ADA8
:100A3000050800A50509009C050800940508008C20
:100A4000050800840508007C050800740508006C92
:100A5000050700650508005D050700560508004EFE
:100A60000507004705070040050800380507003165
:100A70000507002A050700230507001C05060016C8
:100A80000507000F0507000805060002050700FB23
:100A9000040600F5040700EE040600E8040600E280
:100AA000040700DB040600D5040600CF040600C9D5
:100AB000040600C3040600BD040600B7040600B126
:100AC000040500AC040600A6040600A00405009B73
:100AD00004060095040500900406008A04050085BC
:100AE000040500800406007A040500750405007002
:100AF0000405006B04050066040500610405005C44
:100B000004050057040500520405004D0405004883
:100B1000040500430405003E0404003A04050035C2
:100B2000040500300404002C0405002704040023FD
:100B30000405001E0404001A040400160405001134
:100B40000404000D0404000904050004040400006A
:100B5000040400FC030400F8030400F4030400F0A0
:100B6000030400EC030400E8030400E4030400E0D1
:100B7000030400DC030400D8030400D4030400D001
:100B8000030400CC030400C8030300C503030024CE
:100B9000F404D9201BC40C5C0E9804C4095F0265E0
:100BA000077101F405F900FB04B30048048700C194
:100BB0000369005803550003034500BE023A008450
:100BC00002310053022A002902250004022000E419
:100BD000011C00C8011900AF01170098011400841E
:100BE000011300710110006101100051010E00435A
:100BF000010D0036010B002B010B0020010B00152D
:100C00000109000C01090003010800FB000800F3C2
:100C1000000800EB000700E4000600DE000600D834
:100C2000000600D2000600CC000500C7000500C287
:100C3000000500BD000400B9000400B5000400B1C7
:100C4000000400AD000400A9000400A5000300A2F8
:100C50000003009F0004009B000300980003009520
:100C600000020093000300900003008D0002008B3F
:100C70000003008800020086000200840003008157
:100C80000002007F0002007D0002007B000200796C
:100C9000000200770001007600020074000200727A
:100CA000000100710002006F0002006D0001006C85
:100CB0000002006A0001006900020067000100668E
:100CC0000001006500010064000200620001006193
:100CD000000100600001005F0002005D0001005C97
:100CE0000001005B0001005A00010059000100589A
:100CF000000100570001005600010055000100549A
:100D00000001005300000053000100520001005197
:100D1000000100500001004F0001004E0000004E95
:100D20000001004D0001004C0001004B0000004B91
:100D30000001004A0001004900010048000000488D
:100D40000001004700010046000000460001004588
:100D50000000004500010044000100430000004382
:100D6000000100420000004200010041000000417B
:100D7000000100400001003F0000003F0001003E74
:100D80000000003E0001003D0000003D0001003C6D
:100D90000000003C0000003C0001003B0000003B64
:100DA0000001003A0000003A00010039000000395B
:100DB0000001003800000038000000380001003752
:100DC0000000003700010036000000360000003649
:100DD000000100350000003500000035000100343E
:100DE0000000003400000034000100330000003334
:100DF0000000003300010032000000320000003229
:100E0000000100310000003100000031000100301D
:100E100000000030000000300001002F0000002F13
:100E20000000002F0000002F0001002E0000002E07
:100E30000000002E0001002D0000002D0000002DFC
:100E40000000002D0001002C0000002C0000002CF0
:100E50000000002C0001002B0000002B0000002BE4
:100E60000000002B0001002A0000002A0000002AD8
:100E70000000002A000100290000002900000029CC
:100E800000000029000000290001002800000028BF
:100E900000000028000000280000002800010027B2
:100EA00000000027000000270000002700000027A6
:100EB0000001002600000026000000260000002699
:100EC000000000260001002500000025000000258C
:100ED000000000250000002500000025000100247E
:100EE0000000002400000024000000240000002472
:100EF0000001002300000023000000230000002365
:100F00000000002300000023000000230001002255
:100F10000000002200000022000000220000002249
:100F2000000000220001002100000021000000213B
:100F3000000000210000002100000021000000212D
:100F40000001002000000020000000200000002020
:100F50000000002000000020000000200000002011
:100F60000001001F0000001F0000001F0000001F04
:100F70000000001F0000001F0000001F0001001EF5
:100F80000000001E0000001E0000001E00000039CE
:100F90003000003325000087190000B00F0000DB8F
:100FA000080000BD040000740200003F010000536F
:100FB000544F505045442E20005072696E74657233
:100FC0002073746F707065642064756520746F2081
:100FD0006572726F72732E2046697820746865207E
:100FE0006572726F7220616E6420757365204D3971
:100FF000393920746F20726573746172742E2028E1
:1010000054656D70657261747572652069732072C4
:10101000657365742E20536574206974206166744D
:1010200065722072657374617274696E67290A0053
:1010300021212053544F502063616C6C6564206201
:10104000656361757365206F6620424C546F7563EC
:1010500068206572726F72202D20726573746172E0
:10106000742077697468204D3939390A004F464633
:101070000A0046616465204865696768742000421B
:101080006564204C6576656C696E67200046616911
:101090006C656420746F20656E61626C65204265CA
:1010A00064204C6576656C696E670A00496E7661EE
:1010B0006C6964206D6573682E0A0050726F6269F6
:1010C0006E6720506F696E740025532025692F25A7
:1010D000690050726F62696E67206D657368207079
:1010E0006F696E742000202844525952554E2900D1
:1010F000473239204175746F20426564204C657613
:10110000656C696E67003F20284C2C522C462C429F
:1011100029206F7574206F6620626F756E64732E60
:101120000A00426164205A2076616C75650A004E9F
:101130006F2062696C696E65617220677269640A0A
:1011400000687474703A2F2F6D61726C696E6677E7
:101150002E6F7267006275676669782D322E302EA9
:101160007800436F6E66696775726174696F6E00AF
:101170004F6666004F6E004D6F74696F6E0041756B
:10118000746F20486F6D65005053550047656E655C
:101190007269630050726F746F636F6C00312E3030
:1011A000004261756400313135323030004D656C7C
:1011B0007A692028437265616C69747929004578E1
:1011C00074727564657273004C75637900323032E5
:1011D000302D30362D313900546865726D69737465
:1011E0006F727300426F61726420496E666F0050C7
:1011F00072696E74657220496E666F0041626F7528
:1012000074205072696E7465720054756E65004981
:101210006E666F2053637265656E00536F6674204F
:10122000456E6473746F7073004D38340044697395
:1012300061626C652053746570706572730047322B
:10124000380A4D343820503130004D343820507237
:101250006F626520546573740047323800206D61F9
:10126000783A2000206D696E3A2000446966663A3B
:101270002020200046726F6D5374703A00537465DD
:10128000707065723A00556E4C6576656C3A004C2C
:101290006576656C65643A005261773A20202020BB
:1012A000000A4C6F676963616C3A00436F756E7436
:1012B00020453A004361703A00526573656E643AA6
:1012C0002000452025530023646566696E6520442F
:1012D000454641554C545F004B6420004B6920004B
:1012E0004B702000504944204175746F74756E65D1
:1012F0002066696E69736865642120507574207476
:101300006865206C617374204B702C204B692061E0
:101310006E64204B6420636F6E7374616E7473200F
:1013200066726F6D2062656C6F7720696E746F20D6
:10133000436F6E66696775726174696F6E2E680AB5
:1013400000504944204175746F74756E6520666164
:10135000696C6564212074696D656F75740A000A93
:1013600020436C617373696320504944200A002054
:101370004B643A2000204B693A2000204B703A2001
:10138000002054753A2000204B753A200020643A22
:10139000200020626961733A200050494420417561
:1013A000746F74756E652073746172740A005049AD
:1013B00044204175746F74756E65206661696C6553
:1013C00064212054656D7065726174757265207456
:1013D0006F6F20686967680A00504944204175743E
:1013E0006F74756E65206661696C65642120426169
:1013F00064206578747275646572206E756D6265BF
:10140000720A0000FE0003FF8007C7C00701E0006A
:1014100000E00000F00000700400700E00701F007B
:10142000703F80F00E00E00F01E007C7C003FF80AF
:1014300000FE0000FE0003FF8007C7C00F01E00EA2
:1014400000E03F80F01F00700E007004007000008C
:10145000700000F00000E00701E007C7C003FF8054
:1014600000FE000E000E000E000E000E000E000E1C
:10147000000E007FC03F801F000E00040004000E1D
:10148000001F003F807FC00E000E000E000E000EF9
:10149000000E000E000E00FFFFFF7F80FFC0FFC0A8
:1014A000FFC07F807F80FFC0FFC0FFC03F001E00E5
:1014B0000C004D333033205531204525692053250C
:1014C0006900504944204175746F74756E65202A17
:1014D000005049442D44202A005049442D49202AD7
:1014E000005049442D50202A002008204661637492
:1014F000002008204D6178002008204D696E0041D1
:1015000075746F74656D70002121204B494C4C201F
:1015100063617573656420627920746F6F206D75E7
:10152000636820696E6163746976652074696D65AE
:10153000202D2063757272656E7420636F6D6D610E
:101540006E643A20004E6F20436865636B73756D5F
:101550002077697468206C696E65206E756D6265B0
:10156000722C204C617374204C696E653A200063C4
:101570006865636B73756D206D69736D6174636805
:101580002C204C617374204C696E653A20004C69C4
:101590006E65204E756D626572206973206E6F7482
:1015A000204C617374204C696E65204E756D6265C8
:1015B000722B312C204C617374204C696E653A207B
:1015C000004D31313000627573793A207061757366
:1015D000656420666F7220696E7075740A006275AA
:1015E00073793A2070617573656420666F72207537
:1015F0007365720A00627573793A2070726F636561
:101600007373696E670A00506C656173652052657B
:10161000736574005052494E5445522048414C5411
:1016200045440025533A202553004B494C4C454432
:101630002E20005072696E7465722068616C74654A
:10164000642E206B696C6C28292063616C6C656466
:10165000210A006563686F3A004572726F723A0042
:1016600042696C696E656172204C6576656C696E65
:101670006720477269643A0A0020746F6F206C6FAC
:101680006E6720657874727573696F6E207072650D
:1016900076656E7465640A0020636F6C64206578FB
:1016A00074727573696F6E2070726576656E74659D
:1016B000640A0000000001000000010000800055E5
:1016C0005555000000400033333300AAAA2A0049D0
:1016D00092240000002000C7711C0099991900D1C4
:1016E000451700555515003BB11300244912001150
:1016F000111100000010000F0F0F00E3380E00431F
:10170000790D00CCCC0C00C3300C00E8A20B0064B7
:10171000210B00AAAA0A00703D0A009DD8090042C8
:101720007B090092240900DCD30800888808001097
:1017300042080000000800F0C10700878707007515
:10174000500700711C07003EEB0600A1BC060069B3
:1017500090060066660600703E06006118060017D7
:10176000F4050074D105005BB00500B2900500627D
:101770007205005555050078390500B81E050005AD
:101780000505004EEC040087D40400A1BD040090C0
:10179000A7040049920400C17D0400EE690400C75B
:1017A000560400444404005C320400082104004153
:1017B000100400000004003FF00300F8E0030026DE
:1017C000D20300C3C30300CCB503003AA803000A48
:1017D0009B0300388E0300C08103009F750300D077
:1017E000690300505E03001D530300344803009159
:1017F0003D03003333030016290300381F0300970D
:10180000150300300C0300030303000BFA02004928
:10181000F10200BAE802005CE002002DD802002DBF
:10182000D0020059C80200B0C0020031B90200DA8B
:10183000B10200AAAA0200A0A30200BC9C0200FA06
:101840009502005C8F0200DF880200828202004560
:101850007C02002776020027700200436A02007CA7
:10186000640200D05E02003F590200C8530200FF2C
:10187000FDFCFAF8F6F4F2F0EEECEAE9E7E5E3E174
:10188000E0DEDCDAD9D7D5D4D2D0CFCDCBCAC8C729
:10189000C5C3C2C0BFBDBCBAB9B7B6B4B3B2B0AFAE
:1018A000ADACAAA9A8A6A5A4A2A1A09E9D9C9A9908
:1018B000989795949392908F8E8D8B8A898887863E
:1018C00084838281807F7E7D7B7A79787776757458
:1018D000737271706F6E6D6C6B6A69686766656450
:1018E000636261605F5E5D5C5B5A5958585756553C
:1018F0005453525150504F4E4D4C4B4A4A49484711
:101900004646454443424241403F3E3E3D3C3B3BD0
:101910003A39383837363535343332323130302F82
:101920002E2E2D2C2B2B2A29292827272625252426
:10193000232322212120201F1E1E1D1C1C1B1B1ABD
:101940001919181817161615151413131212111148
:10195000100F0F0E0E0D0D0C0C0B0A0A09090808CA
:101960000707060605050404030302020100002020
:101970005A3A0020593A002020506C616E6E657210
:1019800042756666657242797465733A2000204636
:10199000726565204D656D6F72793A2000436F6DF9
:1019A00070696C65643A204A756C20323720323099
:1019B00032300A00204C6173742055706461746584
:1019C000643A20323032302D30362D3139207C20AF
:1019D000417574686F723A202870616469632C20C5
:1019E0004C756379290A006275676669782D322E15
:1019F000302E780A004D61726C696E0020536F665C
:101A000074776172652052657365740A00205761AE
:101A1000746368646F672052657365740A002042BE
:101A2000726F776E206F75742052657365740A004B
:101A30002045787465726E616C2052657365740A16
:101A400000506F77657255700A002553202563207A
:101A5000256320256320256300656E6473746F70B1
:101A600073206869743A20001FE0201020102010B5
:101A70001020102020102010303008400480030077
:101A80001FE03FF03FF03FF01FE01FE03FF03FF06E
:101A90003FF00FC0078003003FFFF038007030FCBC
:101AA0003020FC102078102030102C00D02E31D0A7
:101AB0002F7BD02F7BD02E31D02C00D02030102087
:101AC000781020FC1030FC303800703FFFF03FFFF2
:101AD000F03800703186302387102787902F87D009
:101AE0002F03D02030102078102078102030102FB5
:101AF00003D02F87D0278790238710318630380076
:101B0000703FFFF01FFFF81FFFF80410400208208D
:101B100002082004104008208010410010410008F5
:101B200020800410400000001FFFF81FFFF8F8019C
:101B300080000C480080001243C38CD002712492B4
:101B400067CC41249E40024924904012FBB3CEE072
:101B50000C2020202020202000416476616E6365E7
:101B6000642053657474696E67730053746F726593
:101B70002053657474696E6773004C6F6164205301
:101B8000657474696E6773004C6576656C20436F8D
:101B9000726E6572730046616465204865696768A6
:101BA000740045646974204D657368004732380AD3
:101BB000473239004C6576656C2042656400436DA0
:101BC000643A2053746F7700436D643A2044657023
:101BD0006C6F7900436D643A2053572D4D6F6465E7
:101BE00000436D643A2053656C662D546573740030
:101BF000436D643A20526573657400526573746F67
:101C000072652044656661756C747300424C546F54
:101C100075636800313235004245443A4550434FC0
:101C200053203130304B0052756E61776179205707
:101C3000617463683A204F4E004D61782054656DA1
:101C40007000323735004D696E2054656D70004567
:101C5000313A204550434F53203130304B005465CA
:101C60006D70657261747572650050726F62652087
:101C70005A204F6666736574004D61696E0050723C
:101C8000656865617420504C412042656400507263
:101C9000656865617420504C4120456E6400507247
:101CA000656865617420414253204265640050724A
:101CB00065686561742041425320456E6400436F3E
:101CC0006F6C646F776E0050726568656174204157
:101CD0004253005072656865617420504C41004663
:101CE000616E205370656564004E6F7A7A6C650092
:101CF000466C6F77004572723A20757466382066BC
:101D00006F6E74206E6F7420696E697469616C699E
:101D10007A65642E002568753A253032687500258D
:101D20006875642025303268753A25303268750050
:101D3000000C0F00FE07022603BC017FFE08FE0810
:101D4000FE05080806000040F0C88888987810054D
:101D50000808060000C0F88888888888F805050506
:101D60000600012030F83020050808060000207029
:101D7000F820202020E00509090600FF2070A8A80F
:101D8000B888887020050606060001E08CEA8C8A77
:101D90000A0509090600FFF8A88888888888A8F835
:101DA000050A0A0600FE205050505088A8A88870E6
:101DB00003030306000340A040FFFFFFFFFFFFFFF8
:101DC000FFFFFFFFFFFFFFFFFFFFFFFFFFFFFF0022
:101DD00000000605FF010707060200808080808062
:101DE0000080030303060105A0A0A0050606060067
:101DF0000050F85050F8500509090600FF2070A85F
:101E0000A07028A87020050707060000C8C8102089
:101E100040989805070706000040A0A040A89068D9
:101E20000103030602058080800309090601FF20E3
:101E300040408080804040200309090601FF804027
:101E40004020202040408005070706000020A870A1
:101E50002070A8200505050600012020F82020029A
:101E600003030601FFC04080050101060003F802DC
:101E70000202060100C0C005070706000008101096
:101E800020404080050707060000708898A8C88891
:101E90007003070706010040C040404040E00507CE
:101EA00007060000708808102040F80507070600A4
:101EB00000F8081030088870050707060000103089
:101EC0005090F81010050707060000F880F0080889
:101ED0008870050707060000304080F0888870058C
:101EE0000707060000F80810102020200507070645
:101EF00000007088887088887005070706000070E9
:101F0000888878081060020505060100C0C000C07E
:101F1000C00206060601FFC0C000C04080030505E0
:101F20000601012040804020050303060002F8005E
:101F3000F8030505060101804020408005070706DB
:101F400000007088102020002005070706000070A0
:101F500088B8A8B88070050707060000708888F860
:101F6000888888050707060000F04848704848F050
:101F700005070706000070888080808870050707C5
:101F8000060000F04848484848F0050707060000EA
:101F9000F88080F08080F8050707060000F8808050
:101FA000F080808005070706000070888080988890
:101FB00070050707060000888888F8888888030766
:101FC00007060100E04040404040E00507070600EA
:101FD0000038101010109060050707060000889068
:101FE000A0C0A09088050707060000808080808040
:101FF00080F805070706000088D8A8888888880523
:1020000007070600008888C8A8988888050707067B
:10201000000070888888888870050707060000F02F
:102020008888F0808080050707060000708888880F
:10203000A89068050707060000F08888F0A090883F
:10204000050707060000708880700888700507077C
:10205000060000F8202020202020050707060000A9
:10206000888888888888700507070600008888881F
:102070008850502005070706000088888888A8A88F
:1020800050050707060000888850205088880507FB
:10209000070600008888502020202005070706003A
:1020A00000F80810204080F80309090601FFE080CD
:1020B000808080808080E005070706000080404027
:1020C000201010080309090601FFE020202020202D
:1020D0002020E005030306000520508805010106C5
:1020E00000FEF803030306010580402005050506F0
:1020F000000070087888780507070600008080F0E7
:10210000888888F0050505060000708080887005C5
:1021100007070600000808788888887805050506FE
:1021200000007088F0807005070706000030484006
:10213000E04040400507070600FE70888888780860
:10214000700507070600008080F0888888880307EC
:10215000070601004000C0404040E00409090601B4
:10216000FE100030101010109060050707060000E8
:1021700080808890E09088030707060100C04040F7
:10218000404040E0050505060000D0A8A8A8A80525
:102190000505060000B0C88888880505050600000A
:1021A00070888888700507070600FEF0888888F028
:1021B00080800507070600FE78888888780808056B
:1021C0000505060000B0C8808080050505060000F2
:1021D00078807008F00507070600002020F820200E
:1021E00020180505050600008888889868050505FB
:1021F00006000088888850200505050600008888AC
:10220000A8A850050505060000885020508805073D
:10221000070600FE888888502040800505050600D6
:1022200000F8102040F80309090601FF2040404053
:1022300080404040200109090602FF8080808080A4
:10224000808080800309090601FF804040402040D3
:1022500040408005030306000248A890FFFFFFFFEF
:10226000FFEFFFFFFFFFFFFFFFFFFFFFEFEFFFFFAE
:10227000FFFFFFFFFFFFFFE7DFFFFFFFFFFFFFFFA6
:10228000FFFFE7DFFFFFFFFFFFFFFFFFFFE3DFFFD2
:10229000FFFFFFFFFFFFFFFFF3CFFFFFFFFFFFFF8A
:1022A000FFFFE1E1CFFFFFFFFFFFFFFE780000032C
:1022B000DDFFFFFFFFFEFF807E0001EEFFFFFFFF5F
:1022C000FE7DCFFC0000F77FFFFFFFFF8E060000C2
:1022D000007BBFFFFFFFFFC0000000007DDFFFFFAE
:1022E000FFFFFC01FE00003EE7FFFFFFFFFFFFFCDA
:1022F00000031F73FFFFFFFFFFFFF800018F81FF47
:10230000FFFFFFFFFFE0000083F9FFFFFFFFFFFF7C
:1023100000FC0000F0FFFFFFFFFFE00FFFC0000028
:10232000FFFFFFFFFE03FFFFC00000FFFFFFFFFFF7
:10233000FFFFF9000000FFFFFFFFFFFFFFFC0007AA
:10234000C0FFFFFFFFFFFFFFFF0007E0FFFFFFFFF2
:10235000FFFFFFFFE007F1FFFFFFFFFFFFFFFFFCB5
:1023600007F9FFFFFFFFFFFFFFFFFF03F9FFFFFF7D
:10237000FFFFFFFFFFFF83F9FFFFFFFFFFFFFFFFEF
:10238000FFC3FFFFFFFFFFFFFFFFFFFFE1FFFFFFB7
:10239000FFFFFFFFFFFFFFF0BFFFFFFFFFFFFFFF9C
:1023A000FFFBF83FFFFFFFFFFFFFFFFFF9F83FFFD5
:1023B000FFFFFFFFFFFFFF7EF0FFFFFFFFFFFFFFBD
:1023C000FFFF8E03FFFFFFFFFFFFFFFFFFE01FFF89
:1023D000FFFFFFFFFFFFFFFFFFFFFFFFFFFFFFFF0D
:1023E000FFFFFFFFFFFFFFFFFFFFFFFFFFFFFFFFFD
:1023F0007FFFFFFFFF00007FFFFFF87FFFFFFFFF72
:1024000080007FFFFFE07FFFFFFFFFC3FCFFFFFFB8
:10241000F8FFFFFFFFFFC3FCFFFFFFF8FFFFFFFF19
:10242000FF87FDFFFFFFF1FFFFFFFFFF87FFFFFFBC
:10243000FFF1FFFFFFFFFF0FE7F30FFC23FC3FFF60
:10244000FFFF0FEF8007F003F01E007FFE1FCF811C
:1024500087C787C70C007FFE001FC7C78FC79F0FA6
:102460000CFFFE001F878F1F8F1F0F1FFFFC3F9F5A
:102470008F8F1F8E001E3FFFFC7F3F0F1E3F1E3FB2
:10248000FE3FFFF87FFF1F1C3F1C7FFC7FFFF8FF14
:10249000FF1E1C7E1C7FFC7FFFF0FFCE3E3C7E3C7F
:1024A0007FB8FFFFF0FF9E3C387C387E78FFFFE16D
:1024B000FF3C7C787C783CF1FFFFE1F838787810BD
:1024C0001801F1FFFF000060203C007C07807FFFC7
:1024D000FFFFFFFFFE1FFE1FFFFFFF1FFFFFFFFFAE
:1024E000FFFF600000000001FF400000000000FF4F
:1024F0008000000000007F83CF00000C303F87FF8A
:1025000080000C301F867980000C000F8C30C78350
:102510008C30E78C30CFC7CC31F38C30DCECEC3333
:10252000B98C30D86C6C33198C30D06C0C33198C5E
:1025300030D86C0C33198C30DC6C0E3B198C30CFDE
:102540007C079F198C30C77C038F19400000000066
:102550000002600000000000061FFFFFFFFFFFF801
:102560003F00454550524F4D2056657273696F6E5E
:10257000204572726F7200454550524F4D20496E92
:10258000646578204572726F7200454550524F4D18
:1025900020435243204572726F720049676E6F721A
:1025A0006500496E697469616C697A6520454550BA
:1025B000524F4D0053657474696E67732053746F86
:1025C0007265640053657474696E67732053746F29
:1025D0007265642028006F70656E00545249474749
:1025E00045524544007A5F6D696E00795F6D696E92
:1025F00000785F6D696E005265706F7274696E6706
:1026000020656E6473746F70207374617475730ADF
:10261000005761726E696E673A20486F6D696E6728
:102620002042756D702044697669736F72203C207A
:10263000310A000202040000A0400000A040000097
:102640000040202D20496E76616C696420657874A5
:102650007275646572206E756D62657220210A0064
:10266000544845524D414C2052554E415741590016
:10267000546865726D616C2052756E617761790086
:102680004572723A204D415854454D50004D4158C5
:1026900054454D50207472696767657265640045E2
:1026A00072723A204D494E54454D50004D494E549A
:1026B000454D502074726967676572656400202F0C
:1026C000002042403A0020403A0070012C01900165
:1026D0002701B0012201C0011D01F0011801100203
:1026E000130130020E016002090190020401C002D0
:1026F000FF000003FA004003F5008003F000D00360
:10270000EB002004E6007004E100E004DC0040057A
:10271000D700C005D2004006CD00D006C800800713
:10272000C3003008BE00F008B900C009B400B00A08
:10273000AF00B00BAA00D00CA500000EA000500FF7
:102740009B00C01096005012910000148C00C01520
:102750008700B0178200B0197D00D01B7800001EE2
:10276000730040206E0090226900F024640040272E
:102770005F0090295A00E02B5500102E50002030A9
:102780004B0010324600E033410090353C001037DA
:10279000370070383200A0392D00B03A2800A03B35
:1027A0002300603C1E00103D1900903D1400103EB7
:1027B0000F00703E0A00C03E0500003F0000403F91
:1027C000FBFF803FF6FFC03FF1FF3F2856296572AF
:1027D000626F7365206C6576656C20696D706C61E5
:1027E000757369626C652028302D34292E0A0044E7
:1027F0006576696174696F6E0025533A2025730010
:102800005374616E646172642044657669617469B1
:102810006F6E3A20002052616E67653A20004D6568
:10282000616E3A200046696E6973686564210A002A
:102830002072616E67653A2000207369676D613AA6
:102840002000206D65616E3A20003A207A3A20001F
:10285000206F662000476F696E6720746F3A2058BA
:102860000043570A00206469723A0020616E676C69
:10287000653A005374617274207261646975733AC9
:10288000004D343820506F696E740025533A20256E
:10289000642F256400506F736974696F6E696E6789
:1028A000207468652070726F62652E2E2E0A003FBC
:1028B0004E756D626572206F66206C656773206966
:1028C0006E206D6F76656D656E74206E6F7420700E
:1028D0006C61757369626C652028302D3135292E45
:1028E0000A003F2028582C5929206F7574206F66E4
:1028F00020626F756E64732E0A003F53616D706CB9
:10290000652073697A65206E6F7420706C617573D1
:1029100069626C652028342D3530292E0A004D342B
:1029200038205A2D50726F6265205265706561744F
:102930006162696C69747920546573740A00204D72
:102940003932205800496E76616C69642050696E96
:10295000204D6F64650A0020496E76616C696420C1
:10296000657874727564657220000000210024008F
:1029700027002A0000002200250028002B0000006C
:1029800020002300260029000202020202020202A5
:1029900004040404040404040303030303030303FF
:1029A0000101010101010101010204081020408020
:1029B0000102040810204080010204081020408019
:1029C0008040201008040201000000010200090AF2
:1029D00000000000040308070000000000000000E1
:1029E00000000000000000004D6F76652025736D2B
:1029F0006D004D6F766520302E316D6D004D6F7618
:102A00006520316D6D004D6F76652031306D6D0044
:102A10004D6F7665204178697300486F74656E6408
:102A200020746F6F20636F6C6400457874727564F6
:102A30006572004D6F7665205A004D6F766520599E
:102A4000004D6F76652058004572726F7220777264
:102A50006974696E6720746F20454550524F4D214F
:102A60000A000F150E1216170E1303021A14010096
:102A70000E0DFF180C040C1900014573746570737A
:102A80002F6D6D005A73746570732F6D6D005973DF
:102A9000746570732F6D6D005873746570732F6D4E
:102AA0006D0053746570732F6D6D004E65787420E2
:102AB000436F726E657200446F6E65004E65787488
:102AC00000486F6D696E672058595A005A20566148
:102AD0006C756500496E646578205900496E6465BF
:102AE000782058002062797465733B2063726320FC
:102AF000004E6F20454550524F4D2E0A004545501F
:102B0000524F4D206461746173697A6520657272F9
:102B10006F722E0A002073746F726564207365747F
:102B200074696E6773207265747269657665642076
:102B30002800202863616C63756C617465642921C9
:102B40000A0020213D2000454550524F4D20435260
:102B500043206D69736D61746368202D2028737440
:102B60006F7265642920002053697A653A20004914
:102B70006E6465783A2000204D61726C696E3D5636
:102B80003830290A00454550524F4D207665727302
:102B9000696F6E206D69736D6174636820284545A7
:102BA00050524F4D3D00456E636C6F7375726500FA
:102BB00048617264636F6465642044656661756C26
:102BC000742053657474696E6773204C6F6164651B
:102BD000640A003B200020204D3835312058005A2F
:102BE0002D50726F6265204F6666736574002044D5
:102BF0000020204D3330312050005049442073656F
:102C00007474696E67733A002046002048002020E3
:102C10004D3134352053004D6174657269616C200B
:102C200068656174757020706172616D657465723C
:102C3000733A00204A0020204732392057204900AB
:102C400020204D3432302053004175746F2042658E
:102C500064204C6576656C696E673A0020204D32C1
:102C60003036205800486F6D65206F666673657456
:102C70003A0020204D323035204200416476616EAA
:102C80006365643A20423C6D696E5F7365676D658C
:102C90006E745F74696D655F75733E20533C6D693A
:102CA0006E5F66656564726174653E20543C6D6953
:102CB0006E5F74726176656C5F666565647261747F
:102CC000653E20583C6D61785F785F6A65726B3E47
:102CD00020593C6D61785F795F6A65726B3E205A5E
:102CE0003C6D61785F7A5F6A65726B3E20453C6D32
:102CF00061785F655F6A65726B3E0020204D3230FF
:102D000034205000416363656C65726174696F6E55
:102D10002028756E6974732F7332293A20503C70E5
:102D200072696E745F616363656C3E20523C7265CC
:102D300074726163745F616363656C3E20543C74BC
:102D4000726176656C5F616363656C3E0020204D47
:102D50003230312058004D6178696D756D204163C6
:102D600063656C65726174696F6E2028756E697435
:102D7000732F7332293A0020450020204D32303322
:102D80002058004D6178696D756D206665656472C7
:102D9000617465732028756E6974732F73293A0006
:102DA00053746570732070657220756E69743A0093
:102DB00020204D3134392043203B20556E697473F7
:102DC00020696E2043656C736975730A0020286D55
:102DD0006D29002020473231202020203B20556ED5
:102DE00069747320696E206D6D00486F6D696E6740
:102DF000204661696C6564000000FA430000FA43F4
:102E00000000A0400000C8410000A0420000A04215
:102E10000000C8430000D342F4010000F4010000A8
:102E2000640000008813000020436F756E74205802
:102E30003A004D3130362050004531006265640063
:102E40002C2073797374656D2073746F7070656472
:102E500021204865617465725F49443A20004865E5
:102E60006174696E67204661696C656400486561DC
:102E700074696E67206661696C6564004D3131323A
:102E80002053687574646F776E00205A3A200020D2
:102E9000593A200042656420583A20005072696E09
:102EA00074205061757365640050726F62696E675B
:102EB000204661696C65640A0050726F62696E67D2
:102EC000204661696C656400486F6D652025732537
:102ED00073257320466972737400220A00556E6B65
:102EE0006E6F776E20636F6D6D616E643A202200A5
:102EF0004C7563792052656164792E005072696E59
:102F000074696E672E2E2E001FDF11241FBECFEFB7
:102F1000D0E4DEBFCDBF11E0A0E0B1E0E6E9FDED19
:102F200001E00BBF02C007900D92AE3FB107D9F789
:102F30002FE0AEEFB1E001C01D92AD3EB207E1F768
:102F400017E1C5E8D7E104C02197FE010E94E2EB3A
:102F5000C438D107C9F70E945CDA0C94C9EE0C940E
:102F60000000A2E3B0E0E7EBF7E10C94EBEB20917B
:102F7000F5022AA721E02093F5028091F4028D3416
:102F800009F4D7C3843511F40C942C27873411F03D
:102F90000C9447278091F2029091F3028C319105B5
:102FA00009F435C18CF48430910509F4D2C01CF4C5
:102FB000029738F1BAC38531910511F40C94492771
:102FC0004B9709F404C1B1C38A32910509F486C252
:102FD00044F48D31910509F42AC14E9709F43BC19F
:102FE000A4C38B35910509F4F6C18C35910509F41C
:102FF000F7C18A35910509F098C31092F1020C943B
:1030000049278091F002813011F00C94492710EE8D
:10301000C12E12E0D12E89E9E82E84E0F82E98EB3B
:10302000A92E9FE0B92E10E088E5810F0E94DE3ABC
:10303000882319F10E94E2382B013C01812F0E9464
:103040003CA9882351F0D7012D913D914D915C9180
:10305000C301B2010E9423EC09C0F5012081318136
:1030600042815381C301B2010E9422ECD6016D93CB
:103070007D938D939C9313970AC0F7018081918172
:10308000A281B381F60180839183A283B3831F5F02
:10309000F4E0CF0ED11C24E0E20EF11C34E0A30ECC
:1030A000B11C133009F685E40E94DE3A882301F151
:1030B0000E94E2386B017C0183E00E943CA98823D6
:1030C00071F02091A5043091A6044091A70450917D
:1030D000A804C701B6010E9423EC6B017C01C092D9
:1030E000EC02D092ED02E092EE02F092EF0210C0FC
:1030F0008091A5049091A604A091A704B091A80482
:103100008093EC029093ED02A093EE02B093EF0255
:1031100040E050E0BA0186E40E94E04720E030E061
:10312000A9010E94C2ED181684F40E94E23820E042
:1031300030E040E752E40E949DEC60936B01709395
:103140006C0180936D0190936E010E94B09B0C9472
:10315000492780E50E94DE3A882329F00E944DAA83
:103160006B017C0103C0C12CD12C760183E50E9448
:10317000DE3A882361F00E94E23820E030E04AE73E
:1031800054E40E947BE50E940AED6B017C010E94E1
:103190000C7380918B02811105C060E085E597E09A
:1031A0000E949B950E948B78C60ED71EE81EF91EC2
:1031B0000E948B78DC01CB018C199D09AE09BF09F7
:1031C000B7FD02C00C9449270E94675EF1CF0E94B0
:1031D000BAD481110C9449278CE0E5E7F1E0DE01D7
:1031E000119601900D928A95E1F780E50E94DE3AF2
:1031F000882321F00E94AF38CB0102C080E090E02C
:10320000BE016F5F7F4F0E94DD940C94492780912F
:103210008A028770873011F00C945C2760E08FE49D
:103220000E94003B81110C9449270C945C270E945A
:10323000BAD481110C94492780918902882311F412
:103240000C94802960E08FE40E94003B81110C9473
:1032500049270C9480292091C40F3091C50F4091CB
:10326000C60F5091C70F6091990470919A04809194
:103270009B0490919C040E9423ECAB01BC0188E567
:103280000E94E04769837A838B839C832091C80FD7
:103290003091C90F4091CA0F5091CB0F60919D049E
:1032A00070919E0480919F049091A0040E9423EC51
:1032B000AB01BC0189E50E94E0476D837E838F836B
:1032C0009887BE016B5F7F4FCE0101960E94003749
:1032D000882311F40C94492780E00E946C5A0E94C4
:1032E000189F61E085E40E94003B21E0482FBE0169
:1032F0006B5F7F4FCE0101960E9458D56B017C0118
:103300009B01AC010E943FEE81115FC089809A80D1
:10331000AB80BC8020E030E0A901C501B4010E946F
:1033200016E587FF05C027E137EB41E558EB04C000
:1033300027E137EB41E558E3C501B4010E9423ECD6
:10334000AB01BC0184E99EE20E94C05D8D809E803D
:10335000AF80B88420E030E0A901C501B4010E942B
:1033600016E587FF05C027E137EB41E558EB04C0C0
:1033700027E137EB41E558E3C501B4010E9423EC96
:10338000AB01BC018FE89EE20E94C05D20E030E00E
:10339000A901C701B6010E9416E587FF05C067E1D4
:1033A00077EB81E598EB04C067E177EB81E598E383
:1033B000A70196010E9423ECAB01BC018AE89EE2C2
:1033C0000E94C05D8AE00E9472B60E94FF9E0E9429
:1033D00043A20C9449278FE08093F1020C94492773
:1033E000ECED2E2EE1E03E2EFBE7EF2EF2E0FF2E7D
:1033F000A9E9B4E0BF8FAE8FA8EBCA2EAFE0DA2EFA
:1034000000E010E0F10181911F010E94DE3A882363
:1034100009F44AC00E94E2382B013C01133049F004
:10342000D6012D913D914D915C910E9422EC2B0192
:103430003C01EE8DFF8D2081318142815381C3019A
:10344000B2010E9422EC4B015C012DEB37E346E810
:1034500055EB0E94C2ED87FD0AC02DEB37E346E82D
:1034600055E3C501B4010E9416E51816ECF41330BB
:1034700051F44092A5045092A6046092A704709261
:10348000A80401E011C0A5019401D7016D917D91BF
:103490008D919C910E9423ECF7016083718382835C
:1034A0009383812F0E947D9B1F5FF4E0EF0EF11C40
:1034B0002E8D3F8D2C5F3F4F3F8F2E8F34E0C30EFC
:1034C000D11C143009F09ECF002321F085EA94E04E
:1034D0000E94C7760E9443A20C9449278091F00273
:1034E000813011F00C94492789E40E94DE3AE82EDD
:1034F000882321F00E94DF38082F01C000E08AE411
:103500000E94DE3AF82E882321F00E94DF38182F1F
:1035100001C010E0EE2011F0033020F4FF2041F054
:10352000133030F08CEF96E00E94275D0C94492711
:1035300080E1E9E9F4E0A0EEB2E001900D928A9515
:10354000E1F7EE2019F1602F000F770B880B990B34
:103550000E941CE520916B0230916C0240916D023B
:1035600050916E020E947BE52091730230917402AB
:1035700040917502509176020E9423EC6093E00224
:103580007093E1028093E2029093E302FF2019F12D
:10359000612F110F770B880B990B0E941CE520916E
:1035A0006F023091700240917102509172020E943C
:1035B0007BE5209177023091780240917902509119
:1035C0007A020E9423EC6093E4027093E5028093F8
:1035D000E6029093E70260E080E50E94003B8823CA
:1035E000C1F1EE20D1F02091C40F3091C50F409170
:1035F000C60F5091C70F6091E0027091E102809177
:10360000E2029091E3020E9422EC6093E002709348
:10361000E1028093E2029093E302FF20D1F0209137
:10362000C80F3091C90F4091CA0F5091CB0F6091D4
:10363000E4027091E5028091E6029091E7020E9417
:1036400022EC6093E4027093E5028093E60290938B
:10365000E70240E050E0BA0186E40E94E0476B01D7
:103660007C0120E030E0A9010E94C2ED18165CF454
:1036700020E030E040E752E4C701B6010E949DEC33
:103680006B017C0103C0C12CD12C760180906B01B1
:1036900090906C01A0906D01B0906E0120E030E040
:1036A000A901C701B6010E9416E5882341F0C09226
:1036B0006B01D0926C01E0926D01F0926E0100916D
:1036C00021011091220184E690E0909322018093E1
:1036D0002101C0903801D0903901E0903A01F0907A
:1036E0003B0180E090E0A0E8BFE380933801909335
:1036F0003901A0933A01B0933B010E94B09B8092A4
:103700006B0190926C01A0926D01B0926E011093CA
:10371000220100932101C0923801D0923901E09238
:103720003A01F0923B010C9449270E94ACD40C94CE
:1037300049278091F2029091F3028837910509F4AC
:10374000E9C50CF00DC18535910509F4D1C40CF023
:1037500048C08934910509F4F5C2FCF48231910521
:1037600009F499C46CF497FF02C00C9429278230A5
:1037700091050CF4B5C1419709F412C20C942927A4
:103780008A32910509F4D6C28033910509F4D6C274
:103790004F9711F00C94292720C28135910509F427
:1037A0005FC48CF48C34910509F4FEC28D3491050C
:1037B00009F40FC38B34910511F00C9429270E9452
:1037C000E7B30C9449278335910509F45DC40CF0E7
:1037D00062C48091F1028F7D80618093F1020C942C
:1037E00049278E36910509F45FC3E4F48A369105C2
:1037F00009F42BC364F48836910509F4EEC20CF089
:1038000010C38C35910509F496C40C9429278C3685
:10381000910511F40C9449270CF43DC30E949B4B75
:103820000C9449278237910509F423C544F4803765
:10383000910511F40C9449270CF447C390C38537C4
:10384000910509F419C50CF07EC08337910511F07C
:103850000C94292780EB95E00E94275D60E080EAC8
:1038600095E00E94204F60E08BE895E00E94204F99
:1038700061E08DEA95E20E94204F60E080E895E0EB
:103880000E94204F61E080E795E00E94204F60E0B9
:1038900087E695E00E94204F61E08DE595E00E946B
:1038A000204F61E083E595E00E94204F61E08BE4CA
:1038B00095E00E94204F61E08DE395E00E94204F4B
:1038C00061E08FE295E00E94204F60E080E295E0A9
:1038D0000E94204F60E082E195E00E94204F60E06E
:1038E0008CEF94E00E94204F61E08BEE94E00E9408
:1038F000204F60E08CED94E00E94204F60E085ED69
:1039000094E00E94204F60E080EC94E00E94204F01
:1039100060E082EB94E00E94204F61E08FE994E048
:103920000E94204F60E082E994E00E94204F61E015
:1039300085E894E00E94204F60E081E794E00E94D7
:10394000204F0C9449278637910509F4A9C487377D
:10395000910511F00C9429270E94B4A20C944927D8
:103960008D3241E0940711F40C941F250CF054C0E3
:103970008C3C910509F475C544F58B39910509F422
:1039800049C3ACF48C38910509F410C38139910511
:1039900009F4C7C48937910511F00C9429271092B6
:1039A0008802109287020E9403A30C944927893C45
:1039B000910509F411C58B3C910509F433C58E3B83
:1039C000910511F00C94292713C38C3D910509F43E
:1039D00073C664F48E3C910509F48AC50CF475C570
:1039E000833D910509F4A2C50C942927823E9105D7
:1039F00009F4D3C634F48D3D910509F484C60C94C2
:103A000029278831A1E09A0709F411C78232914031
:103A100009F4A4C70C942927853AE1E09E0711F424
:103A20000C94F32584F5813921E0920711F40C946C
:103A3000E62594F48F3241E0940711F40C94E325C9
:103A400014F40C949F258039914011F00C9429278F
:103A50000E940C730C9449278A39B1E09B0711F43A
:103A60000C944927843AE1E09E0711F40C94F02568
:103A70008239914011F00C9429270E94F7360E9458
:103A800043A20C944927863F21E0920711F40C943D
:103A9000CD2684F4843F41E0940711F40C94C726AA
:103AA00014F00C94CA268C3A914011F40C946B26B5
:103AB0000C942927883FB1E09B0711F40C94D92678
:103AC00014F40C94D0268335F3E09F0711F40C9482
:103AD000EA26873E934011F40C941B270C94292767
:103AE00080E50E94DE3A882329F00E944DAA6B01EE
:103AF0007C0103C0C12CD12C760183E50E94DE3A03
:103B0000882361F00E94E23820E030E04AE754E484
:103B10000E947BE50E940AED6B017C010E940C7300
:103B20008091690290916A02009739F02091D00F3C
:103B3000211108C00E946C9505C060E089EE96E0F6
:103B40000E949B951091F50283E08093F50281E03D
:103B500080936802C114D104E104F10431F00E94A1
:103B60008B78C60ED71EE81EF91E80916802882346
:103B700011F40C948729C114D104E104F10411F467
:103B80000C9483290E948B78DC01CB018C199D0950
:103B9000AE09BF09B7FF02C00C9483290C94872992
:103BA0008091640284FF02C00C948E298091660289
:103BB00087FF02C00C948E2980916702837011F0F8
:103BC0000C948E2960E080EE96E00E949B955E98B2
:103BD0005E9815985E980C9449270E94B1916B01EC
:103BE0007C0120E831E541E050E00E9452EBC90140
:103BF0006DE671E00E94BBEB4B015C01C701B601B1
:103C000020E13EE040E050E00E9452EBCA01B901E1
:103C100028E130E040E050E00E9452EB2B013C01F3
:103C20001B01C701B6012CE330E040E050E00E94E8
:103C300052EB6B017C01CA01B9012CE330E040E09A
:103C400050E00E9452EB8E010F5F1F4F81149104D0
:103C500099F0DF92CF927F936F935F924F92BF92D2
:103C6000AF929F928F928FEB96E09F938F931F93CB
:103C70000F930E94B0E413C0A114B104B1F0DF921D
:103C8000CF927F936F935F924F92BF92AF9283ECEC
:103C900096E09F938F931F930F930E94B0E40FB60B
:103CA000F894DEBF0FBECDBF32C04114510479F08D
:103CB000DF92CF927F936F935F924F9287EC96E063
:103CC0009F938F931F930F930E94B0E4E8CF6115E9
:103CD000710569F0DF92CF927F936F938BEC96E042
:103CE0009F938F931F930F930E94B0E4D8CFDF92DE
:103CF000CF928FEC96E09F938F931F930F930E9428
:103D0000B0E40F900F900F900F900F900F90809154
:103D1000D00F811103C0C8010E946C950E94EE5D16
:103D2000B80183ED96E00E94DE5D8AE00E9472B6E3
:103D30000C9449270E945AA90C9449270E945DAA15
:103D40000C94492780E50E940E398823A1F00E9437
:103D5000E23820E030E048EC52E40E947BE50E942B
:103D60000AED6031F7E27F0710F060E177E27093CF
:103D70005F0260935E0282E50E940E39882311F48F
:103D80000C9449270E944DAA9B01AC01ACE3B0E022
:103D90000E9490EB609360027093610280936202D4
:103DA000909363020C9449278091D40F813011F0D5
:103DB0000C94492782E08093D40F0E948B78609303
:103DC0005A0270935B0280935C0290935D020C94A4
:103DD00049270E9400920C9449278091950A83FFFD
:103DE00002C00C9449270E9413A987FF02C00C94BB
:103DF000492783E50E94DE3A882379F00E94E23861
:103E00000E9405EDCB010E94DFA40E94FBA6811158
:103E100004C00E9400920E949BD40E9469720C947C
:103E200049270E9413A9182F87FD0AC081EB92E051
:103E30000E94275D812F0E94EFA48AE00E9472B643
:103E40002AA52093F5020C94492D60E080E50E949C
:103E5000F63A81110C94492781E40E940E39882397
:103E600029F06091D104062F10E002C00FEF10E09E
:103E700083E50E94DE3A882349F00E94AF388B0127
:103E80006F3F710519F010F00FEF10E0B80180E0FE
:103E90000E94CCD3FEC760E080E50E94F63A60E065
:103EA00070E00E94CCD3F5C78EE40E94DE3A8823EE
:103EB00009F4EFC70E94AF3860935602709357021F
:103EC0008093580290935902E4C783E50E940E390B
:103ED000882331F060E083E50E94F63A8093950AEA
:103EE0000E94EE5D88EB96E00E94275D8091950A26
:103EF000882369F17AE6E72E77E0F72E00E010E0FC
:103F000020E08091950A90E0A0E0B0E0002E04C08F
:103F1000B695A795979587950A94D2F780FF0EC01E
:103F2000DD24D394D20E222319F08CE20E9472B6C3
:103F3000F701859194910E94275D2D2D0F5F1F4FF2
:103F400032E0E30EF11C05301105D9F604C084EB14
:103F500096E00E94275D8AE00E9472B69AC783E5C8
:103F60000E94DE3A882371F00E94BF38282F30E08B
:103F70002D3331051CF4809320018BC78CE3809393
:103F8000200187C70E94EE5DC0902001D12CE12C5A
:103F9000F12C8DEA96E00E94275D4AE0C701B60148
:103FA0000E9479B68AE00E9472B673C78091950A22
:103FB00083FD6FC783E50E94DE3A882309F469C751
:103FC0000E94E2380E9405ED6337710514F063E743
:103FD00070E070935402609353020E9466A30E94A3
:103FE000FBA6811156C70E9400920E949BD451C724
:103FF0008091950A83FD4DC783E50E94DE3A082F24
:1040000081110C94A02982E50E94DE3A81110C9462
:10401000A0293FC783E50E94DE3A882309F439C707
:104020000E94BF38182F90E0CD970CF01CE310933E
:1040300046020E948B786B017C01212F30E0A8EEB4
:10404000B3E00E94A0EBC60ED71EE81EF91EC09278
:104050004202D0924302E0924402F092450219C714
:104060000E940EA70E9400920E941C730E9455A9F4
:1040700068EE73E080E090E00E94025D60E085E819
:1040800096E00E949B9505C78091F1028F7E806229
:104090008093F102FEC683E50E94DE3A882399F000
:1040A0000E94E23820E030E04AE754E40E947BE5D9
:1040B0000E940AED60931B0170931C0180931D0107
:1040C00090931E01E6C68091640284FF02C00C94A6
:1040D000172B8091660287FF02C00C94172B8091EA
:1040E0006702837011F00C94172B0E941C73D1C6C9
:1040F00083E50E940E39882309F4CBC60E948B7891
:1041000060934702709348028093490290934A0259
:104110000E94E23820E030E04AE754E40E947BE568
:104120000E940AED60933E0270933F02809340022A
:1041300090934102AEC60E9413A987FDAAC6909132
:10414000640294FD04C09091660297FF0AC04CED92
:10415000C42E41E0D42E56E9E52E5AE0F52E10E0AB
:1041600009C090916702937091F7682F81E00E94D7
:1041700012AA8FC6D6018D916D010E94DE3A882366
:1041800009F46DC0133009F063C00E94E2384B019E
:104190005C0120E030E040EA51E40E9416E587FF30
:1041A0004EC0A50194016091B60A7091B70A809142
:1041B000B80A9091B90A0E949DEC2B013C019B0129
:1041C000AC016091B5047091B6048091B7049091F0
:1041D000B8040E947BE56093B5047093B6048093A5
:1041E000B7049093B804A30192016091C60A70913C
:1041F000C70A8091C80A9091C90A0E947BE5609322
:10420000C60A7093C70A8093C80A9093C90A60913E
:10421000C5047091C6048091C7049091C8040E949F
:104220001AE5A30192010E947BE50E940AED6093CA
:10423000C5047093C6048093C7049093C804809209
:10424000B60A9092B70AA092B80AB092B90A07C00B
:104250000E94E238F701648B758B868B978B1F5F0A
:10426000F4E0EF0EF11C143009F084CF0E94E972E3
:1042700010C60E943B4F0DC68091690290916A0260
:10428000009759F0DC012C91222339F02091D00FB6
:104290002111FFC50E946C95FCC50E949BD4F9C5F5
:1042A0000091690210916A0294E0F12C40E0915073
:1042B00021F1F8018081282F2B7F213421F42181E5
:1042C0002133D9F407C08035C1F4818180538A300D
:1042D00048F013C0813421F0853421F441E002C05C
:1042E000FF24F39498012E5F3F4F89012F5F3F4FCA
:1042F000F80180818032C9F3DACF41110E94EE5D6E
:10430000FF2021F08DE694E00E94275DC8010E9405
:1043100063B7BFC520938802209387020E9403A33E
:10432000B8C560E070E083E50E94EA3A8C0111278D
:10433000023011053CF00E94EB5D8BE494E00E949A
:10434000275DA7C588E40E94DE3A8823A9F00E9471
:10435000DF388A3A91053CF08530F1E09F072CF078
:1043600084E091E002C08AEA90E0F801EE0FFF1FBE
:10437000E65CFD4F9183808386E40E94DE3A8823C9
:1043800081F00E94DF3897FD07C08F3F910529F02B
:1043900024F08FEF90E001C080E0F801E85CFD4F71
:1043A000808382E40E94DE3A882309F472C50E9469
:1043B000DF388530910534F0843791052CF083E7A0
:1043C00090E002C085E090E0000F111FF801EC5C66
:1043D000FD4F918380835DC50E9413A987FD59C558
:1043E0008CEDE82E81E0F82E06E91AE096EAC92E57
:1043F0009AE0D92ED7018D917D010E940E39882334
:1044000059F00E94E2380E940AEDF801608371833E
:10441000828393830E94A8720C5F1F4FC016D1063F
:1044200049F737C50E9413A987FD33C50CEDE02E6F
:1044300001E0F02E06E91AE0D7018D917D010E947E
:104440000E39882339F00E94E238F80164A375A37D
:1044500086A397A30C5F1F4FFAE0063A1F0761F788
:1044600018C58091650287FF02C00C943C2B809197
:1044700066028E7011F00C943C2B4091CA0A509148
:10448000CB0A6091CC0A7091CD0A8BE394E00E9434
:10449000C05D4091CE0A5091CF0A6091D00A7091D0
:1044A000D10A88E394E00E94C05D4091D20A509105
:1044B000D30A6091D40A7091D50A85E394E00E94F2
:1044C000C05D8AE00E9472B6E4C480916402827189
:1044D00011F00C94822B809166028C7811F00C9470
:1044E000822B80916702837011F00C94822BD1C4CF
:1044F00018E2E12E12E0F12E10E088E5810F0E9413
:104500000E39882359F00E94E238D7016D937D93CC
:104510008D939C931397812F0E947D9B1F5FB4E026
:10452000EB0EF11C133049F70C946A1A4090B80F47
:104530005090B90F6090BA0F7090BB0F209103019B
:10454000309104014091050150910601C301B2016F
:104550000E9423EC6E8F7F8F88A399A38090BC0F5D
:104560009090BD0FA090BE0FB090BF0F209107019B
:10457000309108014091090150910A01C501B4012F
:104580000E9423EC6AA37BA38CA39DA3C090C00FC1
:10459000D090C10FE090C20FF090C30F20910B019B
:1045A00030910C0140910D0150910E01C701B601EF
:1045B0000E9423EC6EA37FA388A799A720910F01E7
:1045C000309110014091110150911201C301B201CB
:1045D0000E9423EC2B013C01209113013091140126
:1045E0004091150150911601C501B4010E9423ECC0
:1045F0004B015C0120911701309118014091190184
:1046000050911A01C701B6010E9423EC6B017C0195
:104610000E94EE5D83EF93E00E94275D83E50E9498
:104620000E39882321F00E94D038809302018091B6
:104630000201882319F086E39CE102C08CEA95E030
:104640000E94275D8BEE93E00E94275D4E8D5F8D6B
:1046500068A179A183E59DE20E94C05D4AA15BA1AA
:104660006CA17DA18EE39AE20E94C05D4EA15FA184
:1046700068A579A587E39AE20E94C05D87E59BE182
:104680000E94275D83EE93E00E94275DB301A201A3
:1046900083E59DE20E94C05DB501A4018EE39AE22C
:1046A0000E94C05DB701A60187E39AE20E94C05D47
:1046B0008AE00E9472B6EDC383E50E94DE3A882349
:1046C00031F00E94DF389093220180932101809184
:1046D000640290916502A0916602B0916702892BF5
:1046E0008A2B8B2B09F0D5C3609121017091220197
:1046F0008FED93E00E94D15D85E20E9472B68AE060
:104700000E9472B6C6C30E9413A9F82E87FDC1C3CA
:1047100083E50E94DE3A0F2D0F2C000C110B88232D
:1047200009F10E94DF38F801EE0FFF1FE050FF4F44
:1047300091838083000F111F000F111F085C1E4F13
:10474000BC01990F880B990B0E941CE52AE037EDFC
:1047500043E25CE30E947BE5F8016083718382831E
:10476000938397C30E94EE5D85E40E9472B680E356
:104770008F0D0E9472B6000F111FF801E050FF4F1D
:104780006081718187ED93E00E94D15D85E20E9496
:1047900072B68AE00E9472B67CC380E50E940E3930
:1047A000882309F476C360E070E080E50E94EA3A6D
:1047B0008C016FEF7FEF83E50E94EA3A7C0101965E
:1047C000039708F066C307FD64C3802F0E9425B4D9
:1047D000882339F00E94EB5D88EC93E00E94275D0E
:1047E00058C30E940C73D02E60E0802F0E9444B109
:1047F000FFEFEF16FF0629F021E0E216F10459F071
:1048000007C0802F0E94F0B001E010E0892B29F052
:1048100000E010E002C001E010E08D2D0E94F0B039
:104820008017910709F435C30E94675EF6CF80E5D3
:104830000E940E39882309F42CC30E94DF388C01B2
:10484000892B09F07FC083E50E940E39882389F007
:104850000E94DF388F3F3FEF930729F48DEF9DE0F3
:104860000E9445B416C3BC018DEF9DE00E94DFB4E9
:1048700010C30E94EE5D60E070E080EC93E00E9467
:10488000D15D8091FF0D28E532E06901C81AD10899
:1048900087FDD394CC0CDD1CCC0CDD1C0D2C000C46
:1048A000EE08FF088091FE0D28E830E04901881AE3
:1048B000910887FD9394880C991C880C991C092CED
:1048C000000CAA08BB088091FD0D8F3FC1F090E05D
:1048D000FC01EE0FFF1F8E0F9F1FFC01E852F24FED
:1048E0002181328143E0220F331F4A95E1F754E0E2
:1048F000369527955A95E1F72E5F3F4F02C020E08D
:1049000030E02F5F3F4FC901330FAA0BBB0B9C0157
:10491000AD01281939094A095B09A4EBB0E00E94EE
:1049200090EBA7019601281939094A095B090E94F1
:1049300074EBB9018BE59EE20E94D15D8AE00E9492
:1049400072B6A7C20E94EB5DB80181EC93E00E94B1
:10495000D15D86E097E00E94275D9BC28AE50E94B8
:10496000DE3A811106C083E50E94DE3A882309F40D
:104970004BC00E94E23820E030E040E050EC0E9462
:1049800016E587FD3CC70E94E23820E030E040E0B9
:1049900050E40E94C2ED18160CF42BC70E94E238B6
:1049A0006B017C018091B60F8695869580FF22C0B1
:1049B0002091B20A3091B30A4091B40A5091B50ADD
:1049C000C701B6010E947BE50E9405ED20912602F9
:1049D00030912702260F371F30932702209326029B
:1049E0002091240230912502620F731F70932502DB
:1049F0006093240280E50E940E39882309F405C7DC
:104A00000E94D038811101C78091660287FD23C7BB
:104A100080916702837009F01EC70E94EE5D40918D
:104A2000CC0F5091CD0F6091CE0F7091CF0F81EBD5
:104A300093E00E94C05D8AE00E9472B62AC260E0E4
:104A400085E40E94F63A811173C080E50E940E3918
:104A5000882351F00E94E2386093CC0D7093CD0D05
:104A60008093CE0D9093CF0D89E40E940E39882358
:104A700081F00E94E2382CEA35EC47E25EE30E94C6
:104A80007BE56093D00D7093D10D8093D20D909300
:104A9000D30D84E40E940E39882381F00E94E2380D
:104AA0002CEA35EC47E25EE30E949DEC6093D40D66
:104AB0007093D50D8093D60D9093D70D0E94EE5D27
:104AC0004091CC0D5091CD0D6091CE0D7091CF0DD8
:104AD0008DEA93E00E94C05D2CEA35EC47E25EE38C
:104AE0006091D00D7091D10D8091D20D9091D30D28
:104AF0000E949DECAB01BC0189EA93E00E94C05D7D
:104B00002CEA35EC47E25EE36091D40D7091D50D4F
:104B10008091D60D9091D70D0E947BE5AB01BC0131
:104B200085EA93E00E94C05D8AE00E9472B6B1C13E
:104B30000E94EB5D83E993E00E94275DAAC183E5B3
:104B40000E940E39182F882371F00E94E2380E94CB
:104B500005ED70933D0160933C0121E0672B09F066
:104B600020E02093E20480E50E940E39882359F06A
:104B700020913C0130913D01232B11F00E94D0384F
:104B80008093E20486C1111184C10E94EE5D80E829
:104B900093E00E94275D8091E204882319F088E168
:104BA00092E102C087E693E00E94275D60913C019C
:104BB00070913D018FE693E00E94D15D8BE693E01A
:104BC0000E94275D66C10E94F44763C18091B70FC0
:104BD00081110C946A1A81E00E94A7710C946A1AE0
:104BE0000E94573956C16FEF7FEF89E40E94EA3A7D
:104BF0008C016FEF7FEF8AE40E94EA3A7C018AE53C
:104C00000E94DE3A811108C081E50E94DE3AB82E8A
:104C1000882309F426C601C0B12CA02E81E0800FA4
:104C2000843008F051C09E2C81E08E0D843008F055
:104C30004BC0102F0E94E2382B013C01802E07FD53
:104C4000812C17FF02C0A2E0AA2E8E2DE7FCE12CDA
:104C500087FF02C0F2E09F2EA81408F41AC1FE2CB0
:104C6000882D90E06C01CC0CDD1CC80ED91E9F1461
:104C700048F10F2D10E0BB2071F0F601E00FF11F9D
:104C8000EE0FFF1FEE0FFF1FE050FE4F208131811E
:104C90004281538103C020E030E0A9010C0D1D1DAD
:104CA000000F111F000F111F00501E4FC301B20152
:104CB0000E9423ECD8016D937D938D939C93139761
:104CC000F394D5CF8394C8CF0E94EB5D8CEF96E030
:104CD0000E94275DDEC00E94BAD48111DAC00EE5C1
:104CE00017E0E9E9F4E0FF8FEE8F9E012F5F3F4F61
:104CF00019019CE8C92E97E0D92E7901C8010E94BC
:104D0000D2AEAE8DBF8D8D909D90AD90BD90BF8F7A
:104D1000AE8FA50194010E9422EC2B013C01F7010A
:104D2000608371838283938320E030E040EA51EC1A
:104D30000E94C2ED87FD0AC020E030E040EA51E465
:104D4000C301B2010E9416E518162CF4F6018491F5
:104D500018160CF48DC5D7018D909D90AD90BD9027
:104D60007D0120E030E040EA51ECC501B4010E9431
:104D7000C2ED87FD88C520E030E040EA51E4C5017E
:104D8000B4010E9416E518160CF08BC57CC50E9474
:104D9000D4957FC00E94D1CD7CC00E949ACC79C0AE
:104DA00061E083E50E94003B91E089270E94DFCD0E
:104DB00070C081E08093FF010E946EBC1092FF01E1
:104DC000882309F466C00E94EE5D80E093E00E94B3
:104DD000275D5FC08091660287FD8DC58091670267
:104DE000837009F088C54091C40F5091C50F609140
:104DF000C60F7091C70F81EF92E00E94C05D409195
:104E0000C80F5091C90F6091CA0F7091CB0F8EE3FC
:104E10009AE20E94C05D4091CC0F5091CD0F6091FD
:104E2000CE0F7091CF0F87E39AE20E94C05D8AE0B7
:104E30000E9472B62EC081E08093F0021092D00FD3
:104E400060E083E50E94003B811123C00E945F4D1A
:104E500020C00E94ACD41DC00091F2021091F30258
:104E60000023B9F00E94EE5D84E50E9472B6B8019D
:104E70007727072E000C880B990B0E94D3B680E28F
:104E80000E9472B683E993E00E94275D02C00E94EF
:104E9000ACD4E091FE01F0E0E759F14F8081882326
:104EA00039F081EB92E00E94275D8AE00E9472B6A1
:104EB0003AA53093F502EDC50E940C73309089023B
:104EC00080E00E946C5A0E94189F81E080938802C3
:104ED0000E9403A38AE50E940E39082F8823A1F0BF
:104EE00081E00E949D9BF82E82E00E949D9B11E034
:104EF000811101C010E0F110C7C588E50E940E398C
:104F0000F82E811103C0EBC110E0F7CF111107C0DB
:104F100089E50E940E39182F8F1107C01F2D01132C
:104F2000E1C111E0FF24F39401E080E1E9E9F4E05C
:104F3000A0EEB2E001900D928A95E1F782E50E9421
:104F4000DE3A882361F00E94E2384B015C0120E0E8
:104F500030E0A9010E9416E58823D1F106C0812C1A
:104F6000912CB0EAAB2EB0E4BB2E8091B60F82FD3F
:104F700009C02091A1043091A2044091A304509152
:104F8000A40403C020E030E0A901C501B4010E94DF
:104F900023EC6093E8027093E9028093EA02909315
:104FA000EB022091A1043091A2044091A3045091FE
:104FB000A4040E94C2ED18165CF419821A821B82A6
:104FC0001C82BE016F5F7F4F88EE92E00E9400A0BE
:104FD000FF2009F4C8C0112309F4C2C0109299043B
:104FE00010929A0410929B0410929C0410929D04BB
:104FF00010929E0410929F041092A0040E94B3A0ED
:10500000ECE8F7E0249080E897E00E94D2AE4B01F4
:105010005C0184E897E00E94D2AE2B013C019B0129
:10502000AC01C501B4010E94C2ED18162CF4A50113
:105030009401C301B20104C0A3019201C501B401EE
:105040000E949DEC6E8F7F8F88A399A3E8E7F7E01D
:1050500085919591A591B4918AA39BA3ACA3BDA37F
:10506000E4E7F7E0C590D590E590F490A7019601AC
:10507000BC01CD010E94C2ED181624F0CAA0DBA02D
:10508000ECA0FDA02E8D3F8D48A159A1CA01B90108
:105090000E947BE520E030E040E85FE30E9423ECE3
:1050A0000E9401EEA70196010E947BE56A8F7B8F2B
:1050B0008C8F9D8FEDE8F7E0F49020E030E040EC3D
:1050C0005FE3C301B2010E947BE52B013C016F2D20
:1050D000FF0C770B880B990B0E941CE59B01AC0120
:1050E000C301B2010E947BE569837A838B839C8331
:1050F00020E030E040EC5FE3C501B4010E947BE5B5
:105100006B017C01622D022C000C770B880B990B34
:105110000E941CE59B01AC01C701B6010E947BE522
:105120006E8B7F8B888F998FAE01465E5F4FBE017D
:105130006F5F7F4FCE0146960E94DF9F0E9464CC36
:105140001092990410929A0410929B0410929C045D
:1051500010929D0410929E0410929F041092A0043D
:1051600080E00E94B5A0112319F081E00E94B5A053
:10517000002309F4A3C080E00E94CC3B8091B60FCD
:105180008370833051F060E087E497E00E949B9544
:105190000E94EE5D88E397E0B0C00E94B3A040900B
:1051A000A1045090A2046090A3047090A4042091E4
:1051B000C40F3091C50F4091C60F5091C70F60E0EA
:1051C00070E08AEE92E40E9422EC6B017C01609315
:1051D000E0027093E1028093E2029093E302209157
:1051E000C80F3091C90F4091CA0F5091CB0F60E0AA
:1051F00070E08AEE92E40E9422EC4B015C01609325
:10520000E4027093E5028093E6029093E702209116
:10521000CC0F3091CD0F4091CE0F5091CF0FC301E5
:10522000B2010E9422EC6093E8027093E90280933D
:10523000EA029093EB0227E137EB41ED58EBC50111
:10524000B4010E94C2ED87FD4FC027E030E04BE67D
:1052500053E4C501B4010E9416E518160CF444C0CD
:1052600027E137EB41ED58EBC701B6010E94C2EDD3
:1052700087FD3AC027E030E04BE653E4C701B601B2
:105280000E9416E5181684F11E8A1F8A188E198E40
:1052900088E0E0EEF2E0DE01119601900D928A9531
:1052A000E1F7AE014A5E5F4FBE016B5F7F4FCE01FB
:1052B00001960E94DF9F82E00E94B5A00E94B3A0E9
:1052C0008091870280938802832D0E946C5A0E94ED
:1052D000FF9E83E0809323010E9443A2DACD111147
:1052E00024CE16CEF12E21CE60E087E297E00E9418
:1052F0009B950E94EE5D85E197E00E94275DDECFE1
:105300000E947D3CC6CD0E94675E0C94B51D109234
:1053100068021093F5020E949BD4BBCD88E50E94E1
:105320000E3981115E9889E50E940E3981115E98CF
:105330008AE50E940E39882309F4ABCD1598A9CDD2
:105340000E94E2380E9405ED633771050CF06CC1D4
:1053500070935402609353020E9466A30E94FBA6BE
:1053600081110E94E7B36091530270915402072E9D
:10537000000C880B990B0E941CE520914F02309184
:10538000500240915102509152020E94C2ED1816F3
:105390001CF48EE996E002C08FE896E060E00E947F
:1053A0009B9581E080931F011EA21FA218A619A63B
:1053B0001BA61CA61DA61EA610E080E09CE3ACE187
:1053C000B6E48FA798ABA9ABBAABC12CD12C60E8DF
:1053D000E62E6FEBF62E33243394412C512C320100
:1053E0006091530270915402072E000C880B990BA8
:1053F0000E941CE54B015C01A70196010E9416E585
:105400008823F9F020914F023091500240915102CF
:1054100050915202C501B401011107C00E9416E566
:10542000182F111F1127111F10C00E9416E587FFAA
:105430000BC080911F01882309F42BCD0E949BD4BF
:1054400028CD4601570101C010E00E948B786B0106
:105450007C01DC01CB012BA53CA54DA55EA5821BE3
:10546000930BA40BB50BB7FD33C0D701C601885110
:105470009C4FAF4FBF4F8BA79CA7ADA7BEA780E0A7
:105480000E94EFA487E892E00E94275D4114510436
:1054900061047104B9F0D301C201805F984DAF4F30
:1054A000BF4FBC01CD016C197D098E099F0928EE03
:1054B00033E040E050E00E9452EBCA01B9010E9483
:1054C000D3B603C08FE30E9472B68AE00E9472B620
:1054D0000E94675E0E948B78609347027093480237
:1054E0008093490290934A0220914F0230915002DA
:1054F00040915102509152022AA33BA34CA35DA3B9
:10550000C501B4010E9422EC6E8F7F8F88A399A3FE
:1055100020E030E0A9010E94C2ED87FF09C08E8D16
:105520009F8DA8A1B9A1B0588E8F9F8FA8A3B9A3B2
:105530004114510461047104B9F420E030E040E802
:105540005FE36E8D7F8D88A199A10E9416E587FF8C
:1055500019C0260137013320A9F090E1490E97E2E6
:10556000591E611C711C0EC020E030E040E450E484
:105570006E8D7F8D88A199A10E94C2ED181614F43A
:10558000260137011123A9F12EA13FA148A559A554
:10559000211531054105510541F0D701C601821B96
:1055A000930BA40BB50BB7FD24C02AA13BA14CA1C2
:1055B0005DA16FA578A989A99AA90E9422EC20E093
:1055C00030E040E85FE30E9416E587FD32CFD70167
:1055D000C601805A9541AF4FBF4F8EA39FA3A8A786
:1055E000B9A72AA13BA14CA15DA12FA738AB49AB1C
:1055F0005AAB80911F01882309F41BCF4114510439
:105600006104710421F4312C75016401E9CE30E1AB
:10561000C31A37E2D30AE108F108C418D508E6082E
:10562000F708F7FCF0CF05CF63E770E091CE0E945A
:105630000C7388E50E940E39882331F05E9A8091C0
:10564000B60F8E7F8093B60F89E50E940E398823AE
:1056500031F05E9A8091B60F8D7F8093B60F8AE508
:105660000E940E39882309F414CC159A8091B60F44
:105670008B7F8093B60F0DCC83E50E94DE3A8823A2
:1056800091F00E94E2386093CA0A7093CB0A80932B
:10569000CC0A9093CD0A6093D20A7093D30A809378
:1056A000D40A9093D50A80E50E94DE3A882351F00F
:1056B0000E94E2386093CA0A7093CB0A8093CC0AA6
:1056C0009093CD0A82E50E94DE3A882351F00E9431
:1056D000E2386093CE0A7093CF0A8093D00A9093F9
:1056E000D10A84E50E94DE3A882309F4D2CB0E94D5
:1056F000E2386093D20A7093D30A8093D40A9093CD
:10570000D50AC7CB82E40E940E39882351F00E944B
:105710004DAA6093A60A7093A70A8093A80A909353
:10572000A90A83E50E940E39882351F00E94E238CD
:105730006093D60A7093D70A8093D80A9093D90AB7
:1057400084E50E940E39882351F00E94E23860936C
:10575000DA0A7093DB0A8093DC0A9093DD0A88E50D
:105760000E940E39882351F00E94E2386093A90408
:105770007093AA048093AB049093AC0489E50E94D3
:105780000E39882351F00E94E2386093AD04709383
:10579000AE048093AF049093B0048AE50E940E3962
:1057A0008823B1F00E94E2386093B1047093B20490
:1057B0008093B3049093B4042DEC3CEC4CEC5DE38B
:1057C0000E9416E5181624F083E094E00E94275DFD
:1057D00085E40E940E39882309F45BCB0E94E238ED
:1057E0006093B5047093B6048093B7049093B804A3
:1057F00050CBC12CD12CE12C80E4F82ED3C8C12C85
:10580000D12CE12CB0ECFB2ECDC8A7019601609104
:10581000CC0F7091CD0F8091CE0F9091CF0F0E9441
:1058200023EC6093CC0F7093CD0F8093CE0F9093A9
:10583000CF0F0E94EE5D4091CC0F5091CD0F609143
:10584000CE0F7091CF0F81EB93E00E94C05D8AE094
:105850000E9472B6D9C882E50E940E398111DDC856
:1058600018CB0E94EB5D87E493E00E94275D11CB8B
:10587000B7FAB094B7F8B094D7018D929D92AD92DB
:10588000BC92139768CA0E94EB5D89E293E00E9484
:10589000275D61E08BE193E00E949B950E944EC3DF
:1058A000F8CA0C5F1F4FBFEFCB1ADB0AEAE6F7E03E
:1058B000E017F10709F022CA88E2E82E82E0F82E0C
:1058C00010E0F10181919191A191B1911F01F70136
:1058D00081939193A193B1937F01812F0E947D9B2E
:1058E0001F5F133071F70E9443A260E08BE093E0EA
:1058F0000E949B95CECA2091C40F3091C50F409154
:10590000C60F5091C70F2E8F3F8F48A359A34090C9
:10591000C80F5090C90F6090CA0F7090CB0FC09005
:10592000CC0FD090CD0FE090CE0FF090CF0F88E548
:105930000E94DE3A882361F10E94E2384B015C014B
:1059400020E030E04BE653EC0E94C2ED87FD0AC038
:1059500020E030E04BE653E4C501B4010E9416E5B7
:10596000181694F46BEE70E08EED92E00E94D15D1B
:105970006BEE70E089ED92E00E94D15D82E89BE2DF
:105980000E94275D10E005C08E8E9F8EA8A2B9A24E
:1059900011E089E50E94DE3A882351F10E94E23845
:1059A0004B015C0120E030E04BE653EC0E94C2ED7D
:1059B00087FD0AC020E030E04BE653E4C501B401A6
:1059C0000E9416E5181694F46BEE70E086EC92E0F7
:1059D0000E94D15D6BEE70E089ED92E00E94D15D96
:1059E00082E89BE20E94275D10E002C0240135019D
:1059F0008AE50E94DE3A882339F10E94E2386B0181
:105A00007C0120E030E040EA51EC0E94C2ED87FDCD
:105A10000AC020E030E040EA51E4C701B6010E942C
:105A200016E518168CF46CEE7FEF84EB92E00E9482
:105A3000D15D64E170E089ED92E00E94D15D82E881
:105A40009BE20E94275D25CA112309F422CA2E8DEC
:105A50003F8D48A159A12093C40F3093C50F4093A7
:105A6000C60F5093C70F4092C80F5092C90F609253
:105A7000CA0F7092CB0FC092CC0FD092CD0FE09294
:105A8000CE0FF092CF0F05CA81114BCAFF24F394B9
:105A90003FCAE296E2E10C9407ECA4E1B0E0E3E552
:105AA000FDE20C94EBEB8FEF9FEF909389008093D6
:105AB00088002AE02983212C312C789480913E03A0
:105AC00090913F03A0914003B0914103892B8A2B11
:105AD0008B2B71F080913E0390913F03A091400386
