:100000000C94F7140C9421150C9421150C942115C3
:100010000C9441BE0C9441BE0C9441BE0C9441BE64
:100020000C9421150C9421150C9421150C94211578
:100030000C9421150C94916B0C9421150C942115A2
:100040000C9421150C949C9A0C94B8800C94211556
:100050000C94BF310C94B5310C9421150C942115DE
:100060000C9421150C9421150C9421150C94211538
:100070000C9421150C9421150C9421150C94211528
:100080000C94552C0C9421150C942115F13101324E
:1000900012321D3225323C3229323C322D3231327D
:1000A0003C323732A0A2A5A2AAA2B4A2E2A2E2A246
:1000B000BEA2C6A2CEA2D8A2CCA7CFA7C2A7C6A7CF
:1000C000E6A7E6A7D3A7D7A7DDA7E1A75CC91AC80B
:1000D0004DC898C94DC84DC84DC84DC84DC84DC82C
:1000E0004DC84DC84DC84DC84DC84DC84DC84DC868
:1000F0004DC84DC84DC84DC84DC84DC84DC84DC858
:100100004DC84DC84DC84DC892C94DC84DC84DC801
:100110004DC84DC84DC84DC84DC86BC94DC84DC818
:100120004DC84DC84DC84DC84DC84DC84DC84DC827
:10013000AFC94AC805A84CCDB2D44EB93836A902C9
:100140000C50B9918688083CA6AAAA2ABE000000D5
:10015000803F4E414E494E495459494E46CDCCCC34
:100160003D0AD7233C17B7D13877CC2B329595E68B
:10017000241FB14F0A000020410000C84200401C6B
:100180004620BCBE4CCA1B0E5AAEC59D7400407AB8
:1001900010F35A00A0724E18090010A5D4E8000010
:1001A000E87648170000E40B54020000CA9A3B00AE
:1001B0000000E1F505000080969800000040420F25
:1001C000000000A08601000000102700000000E8E9
:1001D00003000000006400000000000A00000000AE
:1001E000000100000000002C76D888DC674F08234F
:1001F000DFC1DFAE59E1B1B796E5E3E453C63AE6B5
:1002000051997696E8E6C28426EB898C9B62ED4094
:100210007C6FFCEFBC9C9F40F2BAA56FA5F49005E3
:100220005A2AF75C936B6CF9676DC11BFCE0E40D17
:1002300047FEF520E6B500D0ED902E03009435770B
:10024000050080841E080000204E0A000000C80C33
:10025000333333330F986E12831141EF8D2114899C
:100260003BE65516CFFEE6DB18D1844B381BF77CF6
:100270001D901DA4BBE424203284725E228100C93B
:10028000F124ECA1E53D2720573A00434F4D4D5551
:100290004E49434154494F4E0044525952554E0025
:1002A0004552524F525300494E464F004543484F26
:1002B000006F6B003F5A206F7574206F662072616B
:1002C0006E67652028003F59206F7574206F662087
:1002D00072616E676520282D0020746F20003F58E2
:1002E000206F7574206F662072616E676520282DFF
:1002F0000050726F6265204F666673657420580007
:10030000454550524F4D204F4B0A004F666673656E
:100310007473204170706C696564004572723A2094
:10032000546F6F206661722100546F6F2066617296
:100330002066726F6D207265666572656E636520FA
:10034000706F696E740A004D34323120696E636FCC
:10035000727265637420706172616D65746572207C
:1003600075736167650A006469730043290A006157
:10037000626C656420286D696E2074656D70200064
:10038000436F6C6420657874727564657320617264
:10039000652000496E76616C6964206578747275B9
:1003A0006465720A0020643A0020693A0020703ABD
:1003B0000050726F6265204F6666736574205A0044
:1003C00020536572766F200050726F746563746598
:1003D000642050696E0A0020466C6F773A20004610
:1003E000523A0020204D61783A200020204D696E5D
:1003F0003A2000536F667420656E6473746F707377
:100400003A20003F4A206F7574206F662072616E3B
:1004100067652028302E303120746F20302E33292C
:100420000A00205400205200416363656C657261CC
:1004300074696F6E3A2050004D31343520533C6959
:100440006E6465783E206F7574206F662072616EF1
:1004500067652028302D31290A002F2F20004348BE
:10046000414D4245525F54454D50455241545552BD
:100470004500424142595354455050494E47004D62
:100480004F54494F4E5F4D4F4445530054484552D9
:100490004D414C5F50524F54454354494F4E004CD0
:1004A0004F4E475F46494C454E414D4500415554DE
:1004B0004F5245504F52545F53445F53544154552B
:1004C00053005344434152440050524F4D50545FE7
:1004D000535550504F525400454D455247454E4399
:1004E000595F50415253455200434153455F4C4977
:1004F0004748545F4252494748544E45535300546D
:100500004F47474C455F4C494748545300534F466B
:1005100054574152455F504F574552004255494C40
:10052000445F50455243454E54004C4556454C4956
:100530004E475F44415441005A5F50524F4245007C
:100540004155544F4C4556454C005052494E545F0E
:100550004A4F420050524F47524553530041555461
:100560004F5245504F52545F54454D5000564F4CDA
:10057000554D45545249430042494E4152595F46F8
:10058000494C455F5452414E5346455200534552E3
:1005900049414C5F584F4E5F584F464600464952BE
:1005A0004D574152455F4E414D453A4D61726C6920
:1005B0006E206275676669782D322E302E7820287D
:1005C0004A756C20323620323032302030303A32A8
:1005D000323A32312920534F555243455F434F44FD
:1005E000455F55524C3A68747470733A2F2F67699F
:1005F000746875622E636F6D2F4D61726C696E4603
:1006000069726D776172652F4D61726C696E2050F1
:10061000524F544F434F4C5F56455253494F4E3AF9
:10062000312E30204D414348494E455F5459504585
:100630003A4C7563792045585452554445525F43AE
:100640004F554E543A3120555549443A63656465D7
:10065000326132662D343161322D343734382D39E0
:100660006231322D6335356336326633363766662E
:100670000A004C756379204F46462E00426564207F
:10068000436F6F6C696E672E2E2E004265642048A2
:10069000656174696E672E2E2E004D313133205303
:1006A000006F66660044454255473A002569792047
:1006B000256964202569682025696D2025697300F6
:1006C0005072696E742074696D653A20004E6F2017
:1006D0004D6F76652E00436C69636B20746F2052FA
:1006E0006573756D652E2E2E004D65736820706FD5
:1006F000696E74206F7574206F662072616E676515
:100700000A005A2050726F62652050617374204253
:1007100065640A005A2050726F62652050617374DC
:100720002042656400486F6D6520585920666972E3
:1007300073740A00486F6D652058592046697273BA
:100740007400536C6565702E2E2E000000000000B2
:1007500000000000000000AC02A702A00299028B7A
:100760000200004842000048420000A04100006B27
:100770004300006B4300007A43FFFFFF4572726F36
:10078000722077726974696E6720746F20454550D6
:10079000524F4D210A002121204B494C4C206361CE
:1007A0007573656420627920746F6F206D7563685E
:1007B00020696E6163746976652074696D65202DAA
:1007C0002063757272656E7420636F6D6D616E6407
:1007D0003A20004E6F20436865636B73756D207718
:1007E000697468206C696E65206E756D6265722C27
:1007F000204C617374204C696E653A200063686513
:10080000636B73756D206D69736D617463682C2003
:100810004C617374204C696E653A20004C696E65BA
:10082000204E756D626572206973206E6F74204C66
:10083000617374204C696E65204E756D6265722B14
:10084000312C204C617374204C696E653A20004D48
:1008500031313000627573793A2070617573656467
:1008600020666F7220696E7075740A006275737904
:100870003A2070617573656420666F7220757365C8
:10088000720A00627573793A2070726F63657373D0
:10089000696E670A000F150E1216170E1303021A5F
:1008A0001401000E0DFF180C040C1900016874747B
:1008B000703A2F2F6D61726C696E66772E6F72675A
:1008C000006275676669782D322E302E7800436F8E
:1008D0006E66696775726174696F6E004F66660057
:1008E0004F6E004D6F74696F6E004175746F2048D4
:1008F0006F6D65005053550047656E657269630002
:1009000050726F746F636F6C00312E3000426175EE
:100910006400313135323030004D656C7A69202801
:10092000437265616C6974792900457874727564E5
:10093000657273004C75637900323032302D303679
:100940002D313900546865726D6973746F7273006C
:10095000426F61726420496E666F005072696E74F6
:10096000657220496E666F0041626F757420507227
:10097000696E7465720054756E6500496E666F200D
:1009800053637265656E00536F667420456E6473C1
:10099000746F7073004D38340044697361626C6524
:1009A000205374657070657273004732380A4D3495
:1009B0003820503130004D34382050726F6265203D
:1009C000546573740047323800206D61783A200016
:1009D000206D696E3A2000446966663A2020200046
:1009E00046726F6D5374703A00537465707065721F
:1009F0003A00556E4C6576656C3A004C6576656CD0
:100A000065643A005261773A20202020000A4C6F3A
:100A1000676963616C3A00436F756E7420453A00F4
:100A20004361703A00526573656E643A2000452058
:100A300025530023646566696E652044454641552B
:100A40004C545F004B6420004B6920004B70200029
:100A5000504944204175746F74756E652066696EE7
:100A60006973686564212050757420746865206C12
:100A7000617374204B702C204B6920616E64204B95
:100A80006420636F6E7374616E74732066726F6D31
:100A90002062656C6F7720696E746F20436F6E669D
:100AA000696775726174696F6E2E680A00504944F7
:100AB000204175746F74756E65206661696C65643C
:100AC000212074696D656F75740A000A20436C619A
:100AD0007373696320504944200A00204B643A2014
:100AE00000204B693A2000204B703A2000205475BA
:100AF0003A2000204B753A200020643A2000206202
:100B00006961733A2000504944204175746F7475CF
:100B10006E652073746172740A00504944204175F7
:100B2000746F74756E65206661696C65642120540C
:100B3000656D706572617475726520746F6F206881
:100B40006967680A00504944204175746F74756E76
:100B500065206661696C6564212042616420657866
:100B6000747275646572206E756D6265720A00201C
:100B7000746F6F206C6F6E6720657874727573691F
:100B80006F6E2070726576656E7465640A0020630E
:100B90006F6C6420657874727573696F6E20707203
:100BA0006576656E7465640A00DB0FC93F45BCDA83
:100BB0003F8FB30240FCF0274056946140FE4B9BB0
:100BC0004084A5D840E0231841346A5641E859973B
:100BD0004164DBD5416E271742B4B75542CE1A9710
:100BE00042C8AED542B5885A43D40684BFA65FA793
:100BF000BF7443E0BF10B11AC01C2C58C0E8F69770
:100C0000C0B849D6C04E4E17C124D355C1802497D1
:100C1000C1A0B5D5C1121A17C244AE55C2781797F4
:100C2000C26CACD5C267885AC300FE0003FF8007C0
:100C3000C7C00701E00000E00000F0000070040001
:100C4000700E00701F00703F80F00E00E00F01E09A
:100C500007C7C003FF8000FE0000FE0003FF8007FF
:100C6000C7C00F01E00E00E03F80F01F00700E00D3
:100C7000700400700000700000F00000E00701E068
:100C800007C7C003FF8000FE000E000E000E000E1E
:100C9000000E000E000E000E007FC03F801F000EF1
:100CA00000040004000E001F003F807FC00E000EF5
:100CB000000E000E000E000E000E000E00FFFFFFE3
:100CC0007F80FFC0FFC0FFC07F807F80FFC0FFC06C
:100CD000FFC03F001E000C004D3330332055312043
:100CE0004525692053256900504944204175746F9A
:100CF00074756E65202A005049442D44202A005006
:100D000049442D49202A005049442D50202A0020D2
:100D1000082046616374002008204D617800200897
:100D2000204D696E004175746F74656D7000535489
:100D30004F505045442E20005072696E74657220E9
:100D400073746F707065642064756520746F2065BE
:100D500072726F72732E2046697820746865206500
:100D600072726F7220616E6420757365204D39391F
:100D70003920746F20726573746172742E20285448
:100D8000656D706572617475726520697320726536
:100D90007365742E205365742069742061667465D0
:100DA000722072657374617274696E67290A00211A
:100DB000212053544F502063616C6C656420626540
:100DC0006361757365206F6620424C546F7563686C
:100DD000206572726F72202D207265737461727457
:100DE0002077697468204D3939390A004F46460A20
:100DF0000046616465204865696768742000426543
:100E000064204C6576656C696E6720004661696C8C
:100E1000656420746F20656E61626C652042656454
:100E2000204C6576656C696E670A00496E76616C68
:100E30006964206D6573682E0A0050726F62696E76
:100E40006720506F696E740025532025692F25692E
:100E50000050726F62696E67206D65736820706FF5
:100E6000696E742000202844525952554E2900477B
:100E70003239204175746F20426564204C65766577
:100E80006C696E67003F20284C2C522C462C42295E
:100E9000206F7574206F6620626F756E64732E0A02
:100EA00000426164205A2076616C75650A004E6FBD
:100EB0002062696C696E65617220677269640A00FC
:100EC0001FE03FF03FF03FF01FE01FE03FF03FF03A
:100ED0003FF00FC0078003001FE0201020102010FB
:100EE0001020102020102010303008400480030013
:100EF0003FFFF038007030FC3020FC1020781020CC
:100F000030102C00D02E31D02F7BD02F7BD02E3123
:100F1000D02C00D020301020781020FC1030FC3075
:100F20003800703FFFF03FFFF0380070318630230B
:100F300087102787902F87D02F03D020301020785C
:100F4000102078102030102F03D02F87D0278790C3
:100F50002387103186303800703FFFF01FFFF81FE5
:100F6000FFF8041040020820020820041040082066
:100F70008010410010410008208004104000000053
:100F80001FFFF81FFFF8202020202020200024F43D
:100F9000D43050C38E20C2A24017828B7011127AB7
:100FA000910D816CD90AA861E108C75866076151A3
:100FB00043061E4B5D05C145A7041A411104093DB6
:100FC0009803713931034036DB0265339102D43026
:100FD0005402802E1D02632CEE01752AC501B02833
:100FE000A001102781018F2564012B244B01E022F1
:100FF0003401AC211F018D200D01801FFC00841ED7
:10100000ED00971DDF00B81CD200E61BC600201BB8
:10101000BC00641AB200B219A8000A19A0006A182C
:101020009900D117910040178B00B5168400311636
:101030007E00B31579003A157300C7146F00581479
:101040006A00EE1366008813630025135E00C71262
:101050005B006C12570015125400C1115100701141
:101060004F0021114B00D61049008D10470046104B
:10107000440002104200C00F4000800F3E00420FAB
:101080003C00060F3B00CB0E3800930E37005C0E81
:101090003500270E3400F30D3200C10D3100900DE4
:1010A0003000600D2E00320D2D00050D2C00D90CE6
:1010B0002B00AE0C2900850C29005C0C2700350C98
:1010C00027000E0C2600E80B2400C40B2400A00B04
:1010D00023007D0B23005A0B2100390B2100180B34
:1010E0002000F80A1F00D90A1E00BB0A1E009D0A34
:1010F0001D00800A1D00630A1C00470A1B002C0A01
:101100001B00110A1A00F7091A00DD091900C409A9
:101110001900AB091900920917007B09180063092F
:1011200017004C09160036091600200916000A0996
:101130001500F5081500E0081400CC081400B808E4
:101140001400A4081400900813007D0812006B0816
:101150001300580812004608120034081100230832
:1011600011001208110001081100F0071000E0073B
:101170001000D0071000C0071000B0070F00A10733
:10118000100091070E0083070F0074070F0065071A
:101190000E0057070E0049070E003B070D002E07F3
:1011A0000E0020070D0013070D0006070D00F906BD
:1011B0000C00ED060D00E0060C00D4060C00C8067D
:1011C0000C00BC060C00B0060C00A4060B0099062F
:1011D0000C008D060B0082060B0077060B006C06D8
:1011E0000B0061060A0057060B004C060A00420677
:1011F0000A0038060A002E060A0024060A001A060B
:101200000A001006090007060A00FD050900F4059A
:101210000900EB050900E2050900D9050900D00520
:101220000900C7050900BE050900B5050800AD05A0
:101230000800A50509009C050800940508008C0518
:101240000800840508007C050800740508006C058A
:101250000700650508005D050700560508004E05F6
:10126000070047050700400508003805070031055D
:1012700007002A050700230507001C0506001605C0
:1012800007000F0507000805060002050700FB041C
:101290000600F5040700EE040600E8040600E20478
:1012A0000700DB040600D5040600CF040600C904CD
:1012B0000600C3040600BD040600B7040600B1041E
:1012C0000500AC040600A6040600A00405009B046B
:1012D000060095040500900406008A0405008504B4
:1012E0000500800406007A040500750405007004FA
:1012F00005006B04050066040500610405005C043C
:10130000050057040500520405004D04050048047B
:101310000500430405003E0404003A0405003504BA
:101320000500300404002C040500270404002304F5
:1013300005001E0404001A0404001604050011042C
:1013400004000D0404000904050004040400000462
:101350000400FC030400F8030400F4030400F00399
:101360000400EC030400E8030400E4030400E003C9
:101370000400DC030400D8030400D4030400D003F9
:101380000400CC030400C8030300C503030024F4D5
:1013900004D9201BC40C5C0E9804C4095F026507C5
:1013A0007101F405F900FB04B30048048700C10390
:1013B00069005803550003034500BE023A00840249
:1013C000310053022A002902250004022000E40112
:1013D0001C00C8011900AF01170098011400840116
:1013E0001300710110006101100051010E00430152
:1013F0000D0036010B002B010B0020010B00150125
:1014000009000C01090003010800FB000800F300BB
:101410000800EB000700E4000600DE000600D8002C
:101420000600D2000600CC000500C7000500C2007F
:101430000500BD000400B9000400B5000400B100BF
:101440000400AD000400A9000400A5000300A200F0
:1014500003009F0004009B00030098000300950018
:10146000020093000300900003008D0002008B0037
:10147000030088000200860002008400030081004F
:1014800002007F0002007D0002007B000200790064
:101490000200770001007600020074000200720072
:1014A0000100710002006F0002006D0001006C007D
:1014B00002006A0001006900020067000100660086
:1014C000010065000100640002006200010061008B
:1014D0000100600001005F0002005D0001005C008F
:1014E00001005B0001005A00010059000100580092
:1014F0000100570001005600010055000100540092
:10150000010053000000530001005200010051008F
:101510000100500001004F0001004E0000004E008D
:1015200001004D0001004C0001004B0000004B0089
:1015300001004A0001004900010048000000480085
:101540000100470001004600000046000100450080
:10155000000045000100440001004300000043007A
:101560000100420000004200010041000000410073
:101570000100400001003F0000003F0001003E006C
:1015800000003E0001003D0000003D0001003C0065
:1015900000003C0000003C0001003B0000003B005C
:1015A00001003A0000003A00010039000000390053
:1015B000010038000000380000003800010037004A
:1015C0000000370001003600000036000000360041
:1015D0000100350000003500000035000100340036
:1015E000000034000000340001003300000033002C
:1015F0000000330001003200000032000000320021
:101600000100310000003100000031000100300015
:10161000000030000000300001002F0000002F000B
:1016200000002F0000002F0001002E0000002E00FF
:1016300000002E0001002D0000002D0000002D00F4
:1016400000002D0001002C0000002C0000002C00E8
:1016500000002C0001002B0000002B0000002B00DC
:1016600000002B0001002A0000002A0000002A00D0
:1016700000002A00010029000000290000002900C4
:1016800000002900000029000100280000002800B7
:1016900000002800000028000000280001002700AA
:1016A000000027000000270000002700000027009E
:1016B0000100260000002600000026000000260091
:1016C0000000260001002500000025000000250084
:1016D0000000250000002500000025000100240076
:1016E000000024000000240000002400000024006A
:1016F000010023000000230000002300000023005D
:10170000000023000000230000002300010022004D
:101710000000220000002200000022000000220041
:101720000000220001002100000021000000210033
:101730000000210000002100000021000000210025
:101740000100200000002000000020000000200018
:101750000000200000002000000020000000200009
:1017600001001F0000001F0000001F0000001F00FC
:1017700000001F0000001F0000001F0001001E00ED
:1017800000001E0000001E0000001E0000000437C4
:1017900000001E290000511B000058100000100915
:1017A0000000CC04000078020000410100005761F5
:1017B000726E696E673A20486F6D696E6720427578
:1017C0006D702044697669736F72203C20310A0085
:1017D0000202040000A0400000A0400000004020E1
:1017E0005A3A0020593A002020506C616E6E6572A2
:1017F00042756666657242797465733A20002046C8
:10180000726565204D656D6F72793A2000436F6D8A
:1018100070696C65643A204A756C2032362032302B
:1018200032300A00204C6173742055706461746515
:10183000643A20323032302D30362D3139207C2040
:10184000417574686F723A202870616469632C2056
:101850004C756379290A006275676669782D322EA6
:10186000302E780A004D61726C696E0020536F66ED
:1018700074776172652052657365740A0020576140
:10188000746368646F672052657365740A00204250
:10189000726F776E206F75742052657365740A00DD
:1018A0002045787465726E616C2052657365740AA8
:1018B00000506F77657255700A002553202563200C
:1018C000256320256320256300656E6473746F7043
:1018D00073206869743A200054656D706572617494
:1018E0007572650050726F6265205A204F6666738C
:1018F0006574004D61696E005072656865617420A1
:10190000504C4120426564005072656865617420E6
:10191000504C4120456E64005072656865617420CA
:1019200041425320456E64005072656865617420C1
:101930004142532042656400436F6F6C646F776E61
:1019400000507265686561742041425300507265B1
:101950006865617420504C410046616E205370658B
:101960006564004E6F7A7A6C6500466C6F77004153
:101970006476616E6365642053657474696E677321
:101980000053746F72652053657474696E677300D9
:101990004C6F61642053657474696E6773004C65A5
:1019A00076656C20436F726E657273004661646584
:1019B000204865696768740045646974204D6573E3
:1019C00068004732380A473239004C6576656C202A
:1019D00042656400436D643A2053746F7700436D31
:1019E000643A204465706C6F7900436D643A20530B
:1019F000656C662D5465737400436D643A205357CB
:101A00002D4D6F646500436D643A205265736574B3
:101A100000526573746F72652044656661756C74FD
:101A20007300424C546F7563680031323500424593
:101A3000443A4550434F53203130304B0052756E7D
:101A4000617761792057617463683A204F4E004D89
:101A500061782054656D7000323735004D696E2015
:101A600054656D700045313A204550434F53203145
:101A700030304B003F00454550524F4D2056657267
:101A800073696F6E204572726F7200454550524FF8
:101A90004D20496E646578204572726F720045452D
:101AA00050524F4D20435243204572726F7200498D
:101AB000676E6F726500496E697469616C697A65F9
:101AC00020454550524F4D0053657474696E6773DD
:101AD0002053746F7265640053657474696E677324
:101AE0002053746F726564202800202D20496E7683
:101AF000616C6964206578747275646572206E75B6
:101B00006D62657220210A00544845524D414C20B7
:101B100052554E4157415900546865726D616C20B1
:101B200052756E61776179004572723A204D415865
:101B300054454D50004D415854454D5020747269E4
:101B4000676765726564004572723A204D494E546C
:101B5000454D50004D494E54454D502074726967B3
:101B6000676572656400202F002042403A002040E3
:101B70003A0070012C0190012701B0012201C0013F
:101B80001D01F00118011002130130020E01600264
:101B9000090190020401C002FF000003FA004003A3
:101BA000F5008003F000D003EB002004E600700491
:101BB000E100E004DC004005D700C005D20040068B
:101BC000CD00D006C8008007C3003008BE00F00872
:101BD000B900C009B400B00AAF00B00BAA00D00C25
:101BE000A500000EA000500F9B00C01096005012E0
:101BF000910000148C00C0158700B0178200B01946
:101C00007D00D01B7800001E730040206E009022E3
:101C10006900F024640040275F0090295A00E02BFF
:101C20005500102E500020304B0010324600E0339B
:101C3000410090353C001037370070383200A03931
:101C40002D00B03A2800A03B2300603C1E00103D50
:101C50001900903D1400103E0F00703E0A00C03E77
:101C60000500003F0000403FFBFF803FF6FFC03F04
:101C7000F1FF4572723A207574663820666F6E7493
:101C8000206E6F7420696E697469616C697A65642D
:101C90002E002568753A2530326875002568756410
:101CA0002025303268753A253032687500000C0FF7
:101CB00000FE07022603BC017FFE08FE08FE0508A1
:101CC0000806000040F0C8888898781005080806C3
:101CD0000000C0F88888888888F805050506000196
:101CE0002030F830200508080600002070F8202079
:101CF0002020E00509090600FF2070A8A8B8888800
:101D00007020050606060001E08CEA8C8A0A0509A7
:101D1000090600FFF8A88888888888A8F8050A0AB4
:101D20000600FE205050505088A8A8887003030376
:101D300006000340A040FFFFFFFFFFFFFFFFFFFF84
:101D4000FFFFFFFFFFFFFFFFFFFFFFFF0000000699
:101D500005FF010707060200808080808000800365
:101D60000303060105A0A0A005060606000050F822
:101D70005050F8500509090600FF2070A8A07028EF
:101D8000A87020050707060000C8C81020409898D2
:101D900005070706000040A0A040A89068010303C3
:101DA0000602058080800309090601FF204040806B
:101DB00080804040200309090601FF804040202028
:101DC0002040408005070706000020A8702070A86A
:101DD000200505050600012020F820200203030647
:101DE00001FFC04080050101060003F8020202065F
:101DF0000100C0C005070706000008101020404081
:101E000080050707060000708898A8C88870030737
:101E10000706010040C040404040E00507070600BB
:101E200000708808102040F8050707060000F80831
:101E3000103008887005070706000010305090F831
:101E40001010050707060000F880F00808887005E4
:101E50000707060000304080F088887005070706F5
:101E60000000F80810102020200507070600007069
:101E70008888708888700507070600007088887851
:101E8000081060020505060100C0C000C0C00206BF
:101E9000060601FFC0C000C0408003050506010121
:101EA0002040804020050303060002F800F80305E7
:101EB00005060101804020408005070706000070EC
:101EC0008810202000200507070600007088B8A8A9
:101ED000B88070050707060000708888F888888831
:101EE000050707060000F04848704848F005070756
:101EF0000600007088808080887005070706000053
:101F0000F04848484848F0050707060000F8808078
:101F1000F08080F8050707060000F88080F08080D8
:101F20008005070706000070888080988870050784
:101F300007060000888888F8888888030707060154
:101F400000E04040404040E0050707060000381030
:101F500010101090600507070600008890A0C0A030
:101F60009088050707060000808080808080F80543
:101F7000070706000088D8A888888888050707060C
:101F800000008888C8A898888805070706000070A0
:101F9000888888888870050707060000F08888F020
:101FA00080808005070706000070888888A89068F0
:101FB000050707060000F08888F0A090880507074D
:101FC000060000708880700888700507070600000A
:101FD000F820202020202005070706000088888898
:101FE0008888887005070706000088888888505010
:101FF0002005070706000088888888A8A8500507DC
:1020000007060000888850205088880507070600CA
:102010000088885020202020050707060000F808C7
:1020200010204080F80309090601FFE080808080CD
:10203000808080E0050707060000804040201010E7
:10204000080309090601FFE020202020202020E0CD
:102050000503030600052050880501010600FEF86F
:1020600003030306010580402005050506000070F6
:10207000087888780507070600008080F08888883F
:10208000F0050505060000708080887005070706CA
:102090000000080878888888780505050600007023
:1020A00088F08070050707060000304840E0404097
:1020B000400507070600FE708888887808700507C5
:1020C000070600008080F0888888880307070601DB
:1020D000004000C0404040E00409090601FE100035
:1020E00030101010109060050707060000808088EF
:1020F00090E09088030707060100C0404040404040
:10210000E0050505060000D0A8A8A8A80505050655
:102110000000B0C88888880505050600007088881A
:1021200088700507070600FEF0888888F080800523
:1021300007070600FE7888888878080805050506E0
:102140000000B0C88080800505050600007880701A
:1021500008F00507070600002020F82020201805B9
:1021600005050600008888889868050505060000B2
:1021700088888850200505050600008888A8A85092
:102180000505050600008850205088050707060051
:10219000FE88888850204080050505060000F8105C
:1021A0002040F80309090601FF20404040804040DC
:1021B00040200109090602FF8080808080808080A5
:1021C000800309090601FF804040402040404080D4
:1021D00005030306000248A890FF1FFFFFFFFFFF53
:1021E000FF600000000001FF400000000000FF80D1
:1021F00000000000007F83CF00000C303F87FF808D
:10220000000C301F867980000C000F8C30C7838C47
:1022100030E78C30CFC7CC31F38C30DCECEC33B909
:102220008C30D86C6C33198C30D06C0C33198C30EA
:10223000D86C0C33198C30DC6C0E3B198C30CF7C95
:10224000079F198C30C77C038F19400000000000E5
:1022500002600000000000061FFFFFFFFFFFF83FC5
:102260002856296572626F7365206C6576656C20EF
:10227000696D706C61757369626C652028302D34EE
:10228000292E0A00446576696174696F6E002553D2
:102290003A202573005374616E6461726420446552
:1022A00076696174696F6E3A20002052616E6765CD
:1022B0003A20004D65616E3A200046696E69736888
:1022C0006564210A002072616E67653A2000207300
:1022D00069676D613A2000206D65616E3A20003AB1
:1022E000207A3A2000206F662000476F696E6720D1
:1022F000746F3A20580043570A00206469723A000C
:1023000020616E676C653A0053746172742072616B
:10231000646975733A004D343820506F696E7400EB
:1023200025533A2025642F256400506F7369746922
:102330006F6E696E67207468652070726F62652EBB
:102340002E2E0A003F4E756D626572206F66206CFE
:1023500065677320696E206D6F76656D656E74209C
:102360006E6F7420706C61757369626C65202830C3
:102370002D3135292E0A003F2028582C5929206F4D
:102380007574206F6620626F756E64732E0A003F4D
:1023900053616D706C652073697A65206E6F74206F
:1023A000706C61757369626C652028342D35302935
:1023B0002E0A004D3438205A2D50726F626520521B
:1023C00065706561746162696C69747920546573C4
:1023D000740A00204D3932205800496E76616C69CC
:1023E000642050696E204D6F64650A0020496E7646
:1023F000616C696420657874727564657220000090
:10240000002100240027002A0000002200250028C7
:10241000002B0000002000230026002900020202F9
:102420000202020202040404040404040403030379
:10243000030303030301010101010101010102047E
:10244000081020408001020408102040800102048E
:102450000810204080804020100804020100000085
:10246000010200090A000000000403080700000040
:10247000000000000000000000000000004D6F762A
:10248000652025736D6D004D6F766520302E316DA2
:102490006D004D6F766520316D6D004D6F76652056
:1024A00031306D6D004D6F7665204178697300485D
:1024B0006F74656E6420746F6F20636F6C64004589
:1024C00078747275646572004D6F7665205A004DA0
:1024D0006F76652059004D6F7665205800457374FE
:1024E0006570732F6D6D005A73746570732F6D6D09
:1024F000005973746570732F6D6D00587374657037
:10250000732F6D6D0053746570732F6D6D004E6584
:10251000787420436F726E657200446F6E65004E72
:1025200065787400486F6D696E672058595A005A73
:102530002056616C756500496E64657820590049C4
:102540006E6465782058002062797465733B20635F
:10255000726320004E6F20454550524F4D2E0A00A9
:10256000454550524F4D206461746173697A65200E
:102570006572726F722E0A002073746F7265642028
:1025800073657474696E67732072657472696576B9
:102590006564202800202863616C63756C61746534
:1025A0006429210A0020213D2000454550524F4D0D
:1025B00020435243206D69736D61746368202D2040
:1025C0002873746F7265642920002053697A653A14
:1025D0002000496E6465783A2000204D61726C6974
:1025E0006E3D563830290A00454550524F4D2076F1
:1025F000657273696F6E206D69736D6174636820B5
:1026000028454550524F4D3D00506C656173652023
:102610005265736574005052494E544552204841EA
:102620004C5445440025533A202553004B494C4C0B
:1026300045442E20005072696E7465722068616C8A
:102640007465642E206B696C6C28292063616C6C46
:102650006564210A006563686F3A004572726F72A3
:102660003A0042696C696E656172204C6576656CF2
:10267000696E6720477269643A0A00486172646350
:102680006F6465642044656661756C74205365747D
:1026900074696E6773204C6F616465640A003B2047
:1026A0000020204D3835312058005A2D50726F626D
:1026B00065204F66667365740020440020204D330A
:1026C00030312050005049442073657474696E673E
:1026D000733A0020460020480020204D3134352038
:1026E00053004D6174657269616C20686561747531
:1026F0007020706172616D65746572733A0020209C
:10270000473239205720490020204D3432302053A1
:10271000004175746F20426564204C6576656C6974
:102720006E673A0020204D323036205800486F6DD9
:1027300065206F66667365743A00204A0020204D5C
:10274000323035204200416476616E6365643A2020
:10275000423C6D696E5F7365676D656E745F746929
:102760006D655F75733E20533C6D696E5F66656590
:1027700064726174653E20543C6D696E5F74726171
:1027800076656C5F66656564726174653E204A3C7F
:102790006A756E635F6465763E0020204D3230348A
:1027A000205000416363656C65726174696F6E20CF
:1027B00028756E6974732F7332293A20503C7072F9
:1027C000696E745F616363656C3E20523C72657430
:1027D000726163745F616363656C3E20543C747224
:1027E0006176656C5F616363656C3E0020204D32ED
:1027F00030312058004D6178696D756D20416363FB
:10280000656C65726174696F6E2028756E6974738A
:102810002F7332293A0020450020204D32303320DA
:1028200058004D6178696D756D20666565647261EB
:102830007465732028756E6974732F73293A005379
:10284000746570732070657220756E69743A00202B
:10285000204D3134392043203B20556E697473205C
:10286000696E2043656C736975730A0020286D6D6D
:1028700029002020473231202020203B20556E693E
:10288000747320696E206D6D00486F6D696E6720EE
:102890004661696C6564006F70656E00545249470B
:1028A0004745524544007A5F6D696E00795F6D69F6
:1028B0006E00785F6D696E005265706F7274696E3C
:1028C0006720656E6473746F7020737461747573C0
:1028D0000A000000FA430000FA430000A040000094
:1028E000C8410000A0420000A0420000C843000010
:1028F000D342F4010000F4010000640000008813DA
:102900000000456E636C6F737572650020436F75D0
:102910006E7420583A004D31303620500045310059
:10292000626564002C2073797374656D2073746F15
:102930007070656421204865617465725F49443A2E
:10294000200048656174696E67204661696C656442
:102950000048656174696E67206661696C65640032
:102960004D3131322053687574646F776E00205A90
:102970003A200020593A200042656420583A20004D
:102980005072696E74205061757365640050726F87
:1029900062696E67204661696C65640A0050726FF7
:1029A00062696E67204661696C656400486F6D6599
:1029B0002025732573257320466972737400220ADB
:1029C00000556E6B6E6F776E20636F6D6D616E6418
:1029D0003A2022004C7563792052656164792E009B
:1029E0005072696E74696E672E2E2E00F8DA11240B
:1029F0001FBECFEFD0E4DEBFCDBF12E0A0E0B1E05C
:102A0000ECE2F5ED01E00BBF02C007900D92AE3095
:102A1000B107D9F72EE0AEE0B2E001C01D92A93FA8
:102A2000B207E1F714E1C7EFD4E104C02197FE013A
:102A30000E949BE7C63FD107C9F70E9433D60C948A
:102A400094EA0C940000A2E3B0E0E9E2F5E10C9412
:102A5000B6E7209107032AA721E02093070380917E
:102A600006038D3409F4D7C3843511F40C948E24F5
:102A7000873411F00C94A9248091040390910503EC
:102A80008C31910509F435C18CF48430910509F439
:102A9000D2C01CF4029738F1BAC38531910511F404
:102AA0000C94AB244B9709F404C1B1C38A3291054D
:102AB00009F486C244F48D31910509F42AC14E9778
:102AC00009F43BC1A4C38B35910509F4F6C18C35DB
:102AD000910509F4F7C18A35910509F098C3109260
:102AE00003030C94AB2480910203813011F00C9409
:102AF000AB2412EFC12E12E0D12E8EE1E82E84E03D
:102B0000F82E94ECA92E9EE0B92E10E088E5810FF6
:102B10000E94BD5D882319F10E94C15B2B013C011D
:102B2000812F0E9416A2882351F0D7012D913D914B
:102B30004D915C91C301B2010E94EEE709C0F5011D
:102B40002081318142815381C301B2010E94EDE7AE
:102B5000D6016D937D938D939C9313970AC0F701D3
:102B600080819181A281B381F60180839183A283C8
:102B7000B3831F5FF4E0CF0ED11C24E0E20EF11C02
:102B800034E0A30EB11C133009F685E40E94BD5D4C
:102B9000882301F10E94C15B6B017C0183E00E94EC
:102BA00016A2882371F020912A0430912B044091C1
:102BB0002C0450912D04C701B6010E94EEE76B0171
:102BC0007C01C092FE02D092FF02E0920003F092DC
:102BD000010310C080912A0490912B04A0912C0431
:102BE000B0912D048093FE029093FF02A093000306
:102BF000B093010340E050E0BA0186E40E945539E9
:102C000020E030E0A9010E948DE9181684F40E94AA
:102C1000C15B20E030E040E752E40E9468E8609346
:102C20006B0170936C0180936D0190936E010E9413
:102C30009F790C94AB2480E50E94BD5D882329F028
:102C40000E942AA36B017C0103C0C12CD12C760108
:102C500083E50E94BD5D882361F00E94C15B20E096
:102C600030E04AE754E40E9434E10E94D5E86B0169
:102C70007C010E94757580919D02811105C060E004
:102C800082E497E00E94DF910E94AC80C60ED71EBE
:102C9000E81EF91E0E94AC80DC01CB018C199D0955
:102CA000AE09BF09B7FD02C00C94AB240E942B2EC5
:102CB000F1CF0E9493D081110C94AB248CE0E5E716
:102CC000F1E0DE01119601900D928A95E1F780E521
:102CD0000E94BD5D882321F00E948E5BCB0102C063
:102CE00080E090E0BE016F5F7F4F0E9421910C94C5
:102CF000AB2480919C028770873011F00C94BE2425
:102D000060E08FE40E94DF5D81110C94AB240C9491
:102D1000BE240E9493D081110C94AB2480919B021D
:102D2000882311F40C94E32660E08FE40E94DF5DB9
:102D300081110C94AB240C94E3262091D00E309199
:102D4000D10E4091D20E5091D30E60911E0470911D
:102D50001F0480912004909121040E94EEE7AB01B2
:102D6000BC0188E50E94553969837A838B839C83F3
:102D70002091D40E3091D50E4091D60E5091D70EA1
:102D80006091220470912304809124049091250481
:102D90000E94EEE7AB01BC0189E50E9455396D83C5
:102DA0007E838F839887BE016B5F7F4FCE01019634
:102DB0000E94DF59882311F40C94AB2480E00E9418
:102DC000F5B80E94047D61E085E40E94DF5D21E0AA
:102DD000482FBE016B5F7F4FCE0101960E9431D11B
:102DE0006B017C019B01AC010E940AEA81115FC06A
:102DF00089809A80AB80BC8020E030E0A901C501C9
:102E0000B4010E94CFE087FF05C027E137EB41E521
:102E100058EB04C027E137EB41E558E3C501B401A5
:102E20000E94EEE7AB01BC0188E799E20E94A1BCD9
:102E30008D809E80AF80B88420E030E0A901C5017C
:102E4000B4010E94CFE087FF05C027E137EB41E5E1
:102E500058EB04C027E137EB41E558E3C501B40165
:102E60000E94EEE7AB01BC0183E799E20E94A1BC9E
:102E700020E030E0A901C701B6010E94CFE087FF42
:102E800005C067E177EB81E598EB04C067E177EB7C
:102E900081E598E3A70196010E94EEE7AB01BC0132
:102EA0008EE699E20E94A1BC8AE00E941A2D0E943F
:102EB000EB7C0E942B800C94AB248FE08093030367
:102EC0000C94AB24ECEE2E2EE1E03E2EFDE8EF2E2E
:102ED000F2E0FF2EAEE1B4E0BF8FAE8FA4ECCA2EBD
:102EE000AEE0DA2E00E010E0F10181911F010E94B6
:102EF000BD5D882309F44AC00E94C15B2B013C01DF
:102F0000133049F0D6012D913D914D915C910E9475
:102F1000EDE72B013C01EE8DFF8D20813181428157
:102F20005381C301B2010E94EDE74B015C012DEB1F
:102F300037E346E855EB0E948DE987FD0AC02DEB8B
:102F400037E346E855E3C501B4010E94CFE0181607
:102F5000ECF4133051F440922A0450922B04609206
:102F60002C0470922D0401E011C0A5019401D70139
:102F70006D917D918D919C910E94EEE7F7016083A8
:102F8000718382839383812F0E946C791F5FF4E0A9
:102F9000EF0EF11C2E8D3F8D2C5F3F4F3F8F2E8FFC
:102FA00034E0C30ED11C143009F09ECF002321F071
:102FB0008AE294E00E947D740E942B800C94AB24E2
:102FC00080910203813011F00C94AB2489E40E94BB
:102FD000BD5DE82E882321F00E94BE5B082F01C052
:102FE00000E08AE40E94BD5DF82E882321F00E9453
:102FF000BE5B182F01C010E0EE2011F0033020F46A
:10300000FF2041F0133030F089EE96E00E9408BCBA
:103010000C94AB2480E1EEE1F4E0A2EFB2E0019089
:103020000D928A95E1F7EE2019F1602F000F770BD2
:10303000880B990B0E94D5E020917D0230917E0291
:1030400040917F02509180020E9434E120918502DC
:103050003091860240918702509188020E94EEE7EB
:103060006093F2027093F3028093F4029093F5025E
:10307000FF2019F1612F110F770B880B990B0E941C
:10308000D5E02091810230918202409183025091DB
:1030900084020E9434E12091890230918A02409199
:1030A0008B0250918C020E94EEE76093F6027093BF
:1030B000F7028093F8029093F90260E080E50E94A5
:1030C000DF5D8823C1F1EE20D1F02091D00E309148
:1030D000D10E4091D20E5091D30E6091F2027091B8
:1030E000F3028091F4029091F5020E94EDE7609363
:1030F000F2027093F3028093F4029093F502FF20A2
:10310000D1F02091D40E3091D50E4091D60E509131
:10311000D70E6091F6027091F7028091F8029091BB
:10312000F9020E94EDE76093F6027093F702809334
:10313000F8029093F90240E050E0BA0186E40E9460
:1031400055396B017C0120E030E0A9010E948DE936
:1031500018165CF420E030E040E752E4C701B60105
:103160000E9468E86B017C0103C0C12CD12C760160
:1031700080906B0190906C01A0906D01B0906E01F9
:1031800020E030E0A901C701B6010E94CFE088230A
:1031900041F0C0926B01D0926C01E0926D01F0920F
:1031A0006E01009121011091220184E690E090933C
:1031B000220180932101C0902401D0902501E0904C
:1031C0002601F090270180E090E0A0E8BFE3809323
:1031D000240190932501A0932601B09327010E941A
:1031E0009F7980926B0190926C01A0926D01B092D8
:1031F0006E011093220100932101C0922401D0920C
:103200002501E0922601F09227010C94AB240E9444
:1032100085D00C94AB2480910403909105038837EA
:10322000910509F4D9C50CF00DC18535910509F456
:10323000D5C40CF048C08934910509F4F5C2FCF4FA
:103240008231910509F49DC46CF497FF02C00C947F
:103250008B24823091050CF4B5C1419709F412C258
:103260000C948B248A32910509F4D6C280339105DF
:1032700009F4D6C24F9711F00C948B2420C28135EB
:10328000910509F45FC48CF48C34910509F4FEC2F5
:103290008D34910509F40FC38B34910511F00C9412
:1032A0008B240E948B2A0C94AB248335910509F45E
:1032B00061C40CF066C4809103038F7D80618093AC
:1032C00003030C94AB248E36910509F45FC3E4F438
:1032D0008A36910509F42BC364F48836910509F404
:1032E000EEC20CF010C38C35910509F49AC40C940D
:1032F0008B248C36910511F40C94AB240CF43DC353
:103300000E94103D0C94AB248237910509F413C53B
:1033100044F48037910511F40C94AB240CF447C3AA
:1033200090C38537910509F409C50CF07EC0833739
:10333000910511F00C948B248DE995E00E9408BC56
:1033400060E08DE895E00E94954060E088E795E0B8
:103350000E94954061E081EC9AE10E94954060E016
:103360008DE695E00E94954061E08DE595E00E9434
:10337000954060E084E595E00E94954061E08AE434
:1033800095E00E94954061E080E495E00E949540C0
:1033900061E088E395E00E94954061E08AE295E073
:1033A0000E94954061E08CE195E00E94954060E0CC
:1033B0008DE095E00E94954060E08FEF94E00E94E0
:1033C000954060E089EE94E00E94954061E088EDD0
:1033D00094E00E94954060E089EC94E00E94954062
:1033E00060E082EC94E00E94954060E08DEA94E019
:1033F0000E94954060E08FE994E00E94954061E072
:103400008CE894E00E94954060E08FE794E00E9491
:10341000954061E082E794E00E94954060E08EE58F
:1034200094E00E9495400C94AB248637910509F4F2
:1034300099C48737910511F00C948B240E94E0BD4C
:103440000C94AB248D3241E0940711F40C9481224A
:103450000CF054C08C3C910509F465C544F58B39DA
:10346000910509F449C3ACF48C38910509F410C3F3
:103470008139910509F4B7C48937910511F00C948D
:103480008B2410929A02109299020E942BBE0C94E7
:10349000AB24893C910509F401C58B3C910509F4E5
:1034A00023C58E3B910511F00C948B2413C38C3DE6
:1034B000910509F463C664F48E3C910509F47AC55C
:1034C0000CF465C5833D910509F492C50C948B24D9
:1034D000823E910509F4C3C634F48D3D910509F48B
:1034E00074C60C948B248831A1E09A0709F401C7B3
:1034F0008232914009F494C70C948B24853AE1E020
:103500009E0711F40C94552384F5813921E092072C
:1035100011F40C94482394F48F3241E0940711F491
:103520000C94452314F40C9401238039914011F03C
:103530000C948B240E9475750C94AB248A39B1E0ED
:103540009B0711F40C94AB24843AE1E09E0711F43C
:103550000C9452238239914011F00C948B240E94D8
:10356000D6590E942B800C94AB24863F21E0920711
:1035700011F40C942F2484F4843F41E0940711F457
:103580000C94292414F00C942C248C3A914011F4BE
:103590000C94CD230C948B24883FB1E09B0711F44D
:1035A0000C943B2414F40C9432248335F3E09F07ED
:1035B00011F40C944C24873E934011F40C947D2418
:1035C0000C948B2480E50E94BD5D882329F00E9425
:1035D0002AA36B017C0103C0C12CD12C760183E5A9
:1035E0000E94BD5D882361F00E94C15B20E030E055
:1035F0004AE754E40E9434E10E94D5E86B017C0163
:103600000E94757580917B0290917C02009739F041
:103610002091DC0E211108C00E94B09105C060E02D
:1036200086ED96E00E94DF911091070383E080937E
:10363000070381E080937A02C114D104E104F1040C
:1036400031F00E94AC80C60ED71EE81EF91E809194
:103650007A02882311F40C94E926C114D104E10400
:10366000F10411F40C94E6260E94AC80DC01CB013D
:103670008C199D09AE09BF09B7FF02C00C94E6265C
:103680000C94E9268091760284FF02C00C94F02607
:103690008091780287FF02C00C94F0268091790215
:1036A000837011F00C94F02660E08DEC96E00E949F
:1036B000DF915E985E9815985E980C94AB240E94FA
:1036C000F58D6B017C0120E831E541E050E00E947E
:1036D0000BE7C9016DE671E00E9474E74B015C01E4
:1036E000C701B60120E13EE040E050E00E940BE758
:1036F000CA01B90128E130E040E050E00E940BE748
:103700002B013C011B01C701B6012CE330E040E076
:1037100050E00E940BE76B017C01CA01B9012CE368
:1037200030E040E050E00E940BE78E010F5F1F4F3A
:103730008114910499F0DF92CF927F936F935F92FF
:103740004F92BF92AF929F928F928CEA96E09F9396
:103750008F931F930F930E9469E013C0A114B104CB
:10376000B1F0DF92CF927F936F935F924F92BF92AF
:10377000AF9280EB96E09F938F931F930F930E94DD
:1037800069E00FB6F894DEBF0FBECDBF32C0411462
:10379000510479F0DF92CF927F936F935F924F92B3
:1037A00084EB96E09F938F931F930F930E9469E0A1
:1037B000E8CF6115710569F0DF92CF927F936F9327
:1037C00088EB96E09F938F931F930F930E9469E07D
:1037D000D8CFDF92CF928CEB96E09F938F931F937D
:1037E0000F930E9469E00F900F900F900F900F9031
:1037F0000F908091DC0E811103C0C8010E94B0912E
:103800000E94CFBCB80180EC96E00E94BFBC8AE069
:103810000E941A2D0C94AB240E9434A20C94AB2469
:103820000E943AA30C94AB2480E50E94ED5B8823B0
:10383000A1F00E94C15B20E030E048EC52E40E941D
:1038400034E10E94D5E86031F7E27F0710F060E1D3
:1038500077E2709371026093700282E50E94ED5BE3
:10386000882311F40C94AB240E942AA39B01AC0181
:10387000ACE3B0E00E9449E7609372027093730278
:1038800080937402909375020C94AB248091E00EA7
:10389000813011F00C94AB2482E08093E00E0E9402
:1038A000AC8060936C0270936D0280936E02909373
:1038B0006F020C94AB240E94448E0C94AB24809134
:1038C0000E0983FF02C00C94AB240E94EDA187FF78
:1038D00002C00C94AB2483E50E94BD5D882379F07F
:1038E0000E94C15B0E94D0E8CB010E94B8980E9460
:1038F000FB9A811104C00E94448E0E9474D00E94E1
:10390000CD730C94AB240E94EDA1182F87FD0AC043
:1039100081EB92E00E9408BC812F0E94C8988AE047
:103920000E941A2D2AA5209307030C94872A60E091
:1039300080E50E94D55D81110C94AB2481E40E9446
:10394000ED5B882329F060914A04062F10E002C045
:103950000FEF10E083E50E94BD5D882349F00E94CF
:103960008E5B8B016F3F710519F010F00FEF10E0C7
:10397000B80180E00E948ECDEEC760E080E50E9435
:10398000D55D60E070E00E948ECDE5C78EE40E94B8
:10399000BD5D882309F4DFC70E948E5B60936802D7
:1039A0007093690280936A0290936B02D4C783E597
:1039B0000E94ED5B882331F060E083E50E94D55DD5
:1039C00080930E090E94CFBC85EA96E00E9408BC55
:1039D00080910E09882369F177E5E72E77E0F72ECD
:1039E00000E010E020E080910E0990E0A0E0B0E05F
:1039F000002E04C0B695A795979587950A94D2F79F
:103A000080FF0EC0DD24D394D20E222319F08CE265
:103A10000E941A2DF701859194910E9408BC2D2DCA
:103A20000F5F1F4F32E0E30EF11C05301105D9F690
:103A300004C081EA96E00E9408BC8AE00E941A2D28
:103A40008AC783E50E94BD5D882371F00E949E5B5A
:103A5000282F30E02D3331051CF4809320017BC7E3
:103A60008CE38093200177C70E94CFBCC0902001D7
:103A7000D12CE12CF12C8AE996E00E9408BC4AE0A6
:103A8000C701B6010E94212D8AE00E941A2D63C74A
:103A900080910E0983FD5FC783E50E94BD5D882389
:103AA00009F459C70E94C15B0E94D0E863377105D1
:103AB00014F063E770E070936602609365020E9401
:103AC0003F970E94FB9A811146C70E94448E0E9434
:103AD00074D041C780910E0983FD3DC783E50E94E4
:103AE000BD5D082F81110C94022782E50E94BD5D07
:103AF00081110C9402272FC783E50E94BD5D8823A6
:103B000009F429C70E949E5B182F90E0CD970CF016
:103B10001CE3109358020E94AC806B017C01212FA2
:103B200030E0A8EEB3E00E9459E7C60ED71EE81EAB
:103B3000F91EC0925402D0925502E0925602F092C1
:103B4000570209C70E940E9B0E94448E0E948575F1
:103B50000E942FA2109253021092520268EE73E05C
:103B600080E090E00E94C6BB60E082E796E00E94A1
:103B7000DF91F1C6809103038F7E806280930303FF
:103B8000EAC683E50E94BD5D882399F00E94C15B6F
:103B900020E030E04AE754E40E9434E10E94D5E896
:103BA00060931B0170931C0180931D0190931E0173
:103BB000D2C68091760284FF02C00C947428809152
:103BC000780287FF02C00C94742880917902837078
:103BD00011F00C9474280E948575BDC683E50E947F
:103BE000ED5B882309F4B7C60E94AC80609359024C
:103BF00070935A0280935B0290935C020E94C15BB7
:103C000020E030E04AE754E40E9434E10E94D5E825
:103C100060934E0270934F02809350029093510232
:103C20009AC60E94EDA187FD96C69091760294FDFA
:103C300004C09091780297FF0AC04CEEC42E41E078
:103C4000D42E5FE0E52E59E0F52E10E009C09091EA
:103C50007902937091F7682F81E00E94EFA27BC6F2
:103C6000D6018D916D010E94BD5D882309F459C074
:103C7000133009F04FC00E94C15B4B015C0120E092
:103C800030E040EA51E40E94CFE087FF3AC0A5014E
:103C9000940160912F0970913009809131099091C0
:103CA00032090E9468E82B013C019B01AC01609144
:103CB0003F097091400980914109909142090E9409
:103CC00034E160933F0970934009809341099093D8
:103CD000420960913E0470913F04809140049091AC
:103CE00041040E94D3E0A30192010E9434E10E94AA
:103CF000D5E860933E0470933F0480934004909312
:103D0000410480922F0990923009A0923109B0921B
:103D1000320907C00E94C15BF701648B758B868BEB
:103D2000978B1F5FF4E0EF0EF11C143009F098CF71
:103D30000E94597410C60E94B0400DC680917B024B
:103D400090917C02009759F0DC012C91222339F0EC
:103D50002091DC0E2111FFC50E94B091FCC50E948C
:103D600074D0F9C500917B0210917C0294E0F12C93
:103D700040E0915021F1F8018081282F2B7F2134E0
:103D800021F421812133D9F407C08035C1F4818128
:103D900080538A3048F013C0813421F0853421F4F7
:103DA00041E002C0FF24F39498012E5F3F4F890148
:103DB0002F5F3F4FF80180818032C9F3DACF411184
:103DC0000E94CFBCFF2021F08AE594E00E9408BC4D
:103DD000C8010E940B2EBFC520939A02209399021E
:103DE0000E942BBEB8C560E070E083E50E94C95D0B
:103DF0008C011127023011053CF00E94CCBC88E3F5
:103E000094E00E9408BCA7C588E40E94BD5D882399
:103E1000A9F00E94BE5B8A3A91053CF08530F1E042
:103E20009F072CF084E091E002C08AEA90E0F8015C
:103E3000EE0FFF1FE65BFD4F9183808386E40E94B7
:103E4000BD5D882381F00E94BE5B97FD07C08F3F58
:103E5000910529F024F08FEF90E001C080E0F80197
:103E6000E85BFD4F808382E40E94BD5D882309F4F6
:103E700072C50E94BE5B8530910534F08437910590
:103E80002CF083E790E002C085E090E0000F111F66
:103E9000F801EC5BFD4F918380835DC50E94EDA12D
:103EA00087FD59C58CEEE82E81E0F82E0FE019E071
:103EB0009FE1C92E99E0D92ED7018D917D010E94F5
:103EC000ED5B882359F00E94C15B0E94D5E8F801A0
:103ED00060837183828393830E9418740C5F1F4FE9
:103EE000C016D10649F737C50E94EDA187FD33C53D
:103EF0000CEEE02E01E0F02E0FE019E0D7018D91DD
:103F00007D010E94ED5B882339F00E94C15BF801BE
:103F100064A375A386A397A30C5F1F4FF9E00F312D
:103F20001F0761F718C58091770287FF02C00C94C4
:103F30009928809178028E7011F00C949928409104
:103F4000430950914409609145097091460988E2FE
:103F500094E00E94A1BC40914709509148096091AA
:103F6000490970914A0985E294E00E94A1BC409100
:103F70004B0950914C0960914D0970914E0982E2B4
:103F800094E00E94A1BC8AE00E941A2DE4C48091B2
:103F9000760281FF02C00C94DF288091770281FFB6
:103FA00002C00C94DF28809178028C7011F00C9480
:103FB000DF28D1C418E3E12E12E0F12E10E088E5ED
:103FC000810F0E94ED5B882359F00E94C15BD701ED
:103FD0006D937D938D939C931397812F0E946C79A1
:103FE0001F5FB4E0EB0EF11C133049F70C94DC17A3
:103FF0004090C40E5090C50E6090C60E7090C70ED3
:104000002091030130910401409105015091060176
:10401000C301B2010E94EEE76E8F7F8F88A399A340
:104020008090C80E9090C90EA090CA0EB090CB0E92
:1040300020910701309108014091090150910A0136
:10404000C501B4010E94EEE76AA37BA38CA39DA3E4
:10405000C090CC0ED090CD0EE090CE0EF090CF0E52
:1040600020910B0130910C0140910D0150910E01F6
:10407000C701B6010E94EEE76EA37FA388A799A7A8
:1040800020910F01309110014091110150911201C6
:10409000C301B2010E94EEE72B013C012091130104
:1040A000309114014091150150911601C501B401E0
:1040B0000E94EEE74B015C0120911701309118013D
:1040C0004091190150911A01C701B6010E94EEE713
:1040D0006B017C010E94CFBC83EF93E00E9408BC7F
:1040E00083E50E94ED5B882321F00E94AF5B809303
:1040F000020180910201882319F08CE49AE102C048
:1041000089E995E00E9408BC8BEE93E00E9408BC10
:104110004E8D5F8D68A179A182EF97E20E94A1BCCC
:104120004AA15BA16CA17DA183ED94E20E94A1BC98
:104130004EA15FA168A579A58CEC94E20E94A1BC78
:104140008CE89FE00E9408BC83EE93E00E9408BCCC
:10415000B301A20182EF97E20E94A1BCB501A401C4
:1041600083ED94E20E94A1BCB701A6018CEC94E21D
:104170000E94A1BC8AE00E941A2DEDC383E50E9433
:10418000BD5D882331F00E94BE5B90932201809335
:1041900021018091760290917702A0917802B091EE
:1041A0007902892B8A2B8B2B09F0D5C360912101D1
:1041B000709122018FED93E00E94B2BC85E20E94D3
:1041C0001A2D8AE00E941A2DC6C30E94EDA1F82E76
:1041D00087FDC1C383E50E94BD5D0F2D0F2C000C30
:1041E000110B882309F10E94BE5BF801EE0FFF1F3F
:1041F000E050FF4F91838083000F111F000F111FAC
:104200000C5D1E4FBC01990F880B990B0E94D5E0E5
:104210002AE037ED43E25CE30E9434E1F801608379
:1042200071838283938397C30E94CFBC85E40E94ED
:104230001A2D80E38F0D0E941A2D000F111FF80117
:10424000E050FF4F6081718187ED93E00E94B2BC26
:1042500085E20E941A2D8AE00E941A2D7CC380E517
:104260000E94ED5B882309F476C360E070E080E58E
:104270000E94C95D8C016FEF7FEF83E50E94C95DED
:104280007C010196039708F066C307FD64C3802F85
:104290000E94CA2A882339F00E94CCBC88EC93E0A3
:1042A0000E9408BC58C30E947575D02E60E0802F14
:1042B0000E94A8AAFFEFEF16FF0629F021E0E21600
:1042C000F10459F007C0802F0E9454AA01E010E0C9
:1042D000892B29F000E010E002C001E010E08D2DF4
:1042E0000E9454AA8017910709F435C30E942B2E0F
:1042F000F6CF80E50E94ED5B882309F42CC30E9471
:10430000BE5B8C01892B09F07FC083E50E94ED5BC9
:10431000882389F00E94BE5B8F3F3FEF930729F40B
:1043200081E59DE00E94EA2A16C3BC0181E59DE07B
:104330000E94842B10C30E94CFBC60E070E080EC30
:1043400093E00E94B2BC8091530D28E532E06901F0
:10435000C81AD10887FDD394CC0CDD1CCC0CDD1C15
:104360000D2C000CEE08FF088091520D28E830E07B
:104370004901881A910887FD9394880C991C880C30
:10438000991C092C000CAA08BB088091510D8F3F85
:10439000C1F090E0FC01EE0FFF1F8E0F9F1FFC018C
:1043A000E45DF24F2181328143E0220F331F4A95B1
:1043B000E1F754E0369527955A95E1F72E5F3F4F88
:1043C00002C020E030E02F5F3F4FC901330FAA0B3E
:1043D000BB0B9C01AD01281939094A095B09A4EB03
:1043E000B0E00E9449E7A7019601281939094A0956
:1043F0005B090E942DE7B9018FE399E20E94B2BCEC
:104400008AE00E941A2DA7C20E94CCBCB80181ECA0
:1044100093E00E94B2BC83EF96E00E9408BC9BC26E
:104420008AE50E94BD5D811106C083E50E94BD5DE5
:10443000882309F44BC00E94C15B20E030E040E0DB
:1044400050EC0E94CFE087FD19C70E94C15B20E0BD
:1044500030E040E050E40E948DE918160CF408C7E3
:104460000E94C15B6B017C018091C20E869586958E
:1044700080FF22C020912B0930912C0940912D09F9
:1044800050912E09C701B6010E9434E10E94D0E884
:104490002091360230913702260F371F30933702B2
:1044A000209336022091340230913502620F731F3F
:1044B000709335026093340280E50E94ED5B88239F
:1044C00009F4E2C60E94AF5B8111DEC680917802DA
:1044D00087FDFFC680917902837009F0FAC60E94B9
:1044E000CFBC4091D80E5091D90E6091DA0E7091E8
:1044F000DB0E81EB93E00E94A1BC8AE00E941A2DA2
:104500002AC260E085E40E94D55D811173C080E518
:104510000E94ED5B882351F00E94C15B6093200DE7
:104520007093210D8093220D9093230D89E40E94B6
:10453000ED5B882381F00E94C15B2CEA35EC47E2F9
:104540005EE30E9434E16093240D7093250D809307
:10455000260D9093270D84E40E94ED5B882381F063
:104560000E94C15B2CEA35EC47E25EE30E9468E8FA
:104570006093280D7093290D80932A0D90932B0D35
:104580000E94CFBC4091200D5091210D6091220DD1
:104590007091230D8DEA93E00E94A1BC2CEA35ECCA
:1045A00047E25EE36091240D7091250D8091260D08
:1045B0009091270D0E9468E8AB01BC0189EA93E065
:1045C0000E94A1BC2CEA35EC47E25EE36091280D25
:1045D0007091290D80912A0D90912B0D0E9434E14C
:1045E000AB01BC0185EA93E00E94A1BC8AE00E9475
:1045F0001A2DB1C10E94CCBC83E993E00E9408BC93
:10460000AAC183E50E94ED5B182F882371F00E94F8
:10461000C15B0E94D0E8709329016093280121E0DA
:10462000672B09F020E020935B0480E50E94ED5B9E
:10463000882359F02091280130912901232B11F072
:104640000E94AF5B80935B0486C1111184C10E94FC
:10465000CFBC80E893E00E9408BC80915B04882373
:1046600019F084E899E002C087E693E00E9408BC54
:1046700060912801709129018FE693E00E94B2BCFD
:104680008BE693E00E9408BC66C10E94693963C151
:104690008091C30E81110C94DC1781E00E94D972C5
:1046A0000C94DC170E94365C56C16FEF7FEF89E4F3
:1046B0000E94C95D8C016FEF7FEF8AE40E94C95DA3
:1046C0007C018AE50E94BD5D811108C081E50E94E0
:1046D000BD5DB82E882309F402C601C0B12CA02EFE
:1046E00081E0800F843008F051C09E2C81E08E0D57
:1046F000843008F04BC0102F0E94C15B2B013C019D
:10470000802E07FD812C17FF02C0A2E0AA2E8E2D5D
:10471000E7FCE12C87FF02C0F2E09F2EA81408F40A
:104720001AC1FE2C882D90E06C01CC0CDD1CC80E4B
:10473000D91E9F1448F10F2D10E0BB2071F0F60137
:10474000E00FF11FEE0FFF1FEE0FFF1FE05FFD4FA9
:10475000208131814281538103C020E030E0A901F2
:104760000C0D1D1D000F111F000F111F005F1D4FAD
:10477000C301B2010E94EEE7D8016D937D938D9342
:104780009C931397F394D5CF8394C8CF0E94CCBC4D
:1047900089EE96E00E9408BCDEC00E9493D0811191
:1047A000DAC00BE417E0EEE1F4E0FF8FEE8F9E013C
:1047B0002F5F3F4F190199E7C92E97E0D92E790154
:1047C000C8010E94B2A7AE8DBF8D8D909D90AD9017
:1047D000BD90BF8FAE8FA50194010E94EDE72B0124
:1047E0003C01F701608371838283938320E030E092
:1047F00040EA51EC0E948DE987FD0AC020E030E0DC
:1048000040EA51E4C301B2010E94CFE018162CF433
:10481000F601849118160CF469C5D7018D909D900E
:10482000AD90BD907D0120E030E040EA51ECC50143
:10483000B4010E948DE987FD64C520E030E040EAC4
:1048400051E4C501B4010E94CFE018160CF067C511
:1048500058C50E9418927FC00E9473BF7CC00E94FE
:1048600068BE79C061E083E50E94DF5D91E0892741
:104870000E9481BF70C081E080930F020E9449B105
:1048800010920F02882309F466C00E94CFBC80E01A
:1048900093E00E9408BC5FC08091780287FD69C5E3
:1048A00080917902837009F064C54091D00E5091D7
:1048B000D10E6091D20E7091D30E81EF92E00E94E2
:1048C000A1BC4091D40E5091D50E6091D60E70913E
:1048D000D70E83ED94E20E94A1BC4091D80E509176
:1048E000D90E6091DA0E7091DB0E8CEC94E20E948E
:1048F000A1BC8AE00E941A2D2EC081E080930203A1
:104900001092DC0E60E083E50E94DF5D811123C020
:104910000E94D43E20C00E9485D01DC00091040397
:10492000109105030023B9F00E94CFBC84E50E94DA
:104930001A2DB8017727072E000C880B990B0E94BF
:104940007B2D80E20E941A2D83E993E00E9408BC2F
:1049500002C00E9485D0E0910E02F0E0E354F24FD5
:104960008081882339F081EB92E00E9408BC8AE0C4
:104970000E941A2D3AA530930703C9C50E94757588
:1049800030909B0280E00E94F5B80E94047D81E097
:1049900080939A020E942BBE8AE50E94ED5B082F4D
:1049A0008823A1F081E00E948C79F82E82E00E9499
:1049B0008C7911E0811101C010E0F110A3C588E5E8
:1049C0000E94ED5BF82E8111ECC102C010E0F7CF20
:1049D00011110DC089E50E94ED5B182F8F1107C0E2
:1049E0001F2D0113E2C111E0FF24F39401E080E1E7
:1049F000EEE1F4E0A2EFB2E001900D928A95E1F7CA
:104A000082E50E94BD5D882361F00E94C15B4B017D
:104A10005C0120E030E0A9010E94CFE08823D1F1C1
:104A200006C0812C912CB0EAAB2EB0E4BB2E809155
:104A3000C20E82FD09C06091260470912704809106
:104A400028049091290403C060E070E0CB01A50127
:104A500094010E94EEE76093FA027093FB02809348
:104A6000FC029093FD02209126043091270440918E
:104A70002804509129040E948DE918165CF41982CB
:104A80001A821B821C82BE016F5F7F4F8AEF92E009
:104A90000E94EC7DFF2009F4C8C0112309F4C2C0B4
:104AA00010921E0410921F041092200410922104F0
:104AB00010922204109223041092240410922504D0
:104AC0000E949B7EE9E7F7E024908DE697E00E9444
:104AD000B2A74B015C0181E797E00E94B2A72B01CE
:104AE0003C019B01AC01C501B4010E948DE918167F
:104AF0002CF4A5019401C301B20104C0A3019201E9
:104B0000C501B4010E9468E86E8F7F8F88A399A3C6
:104B1000E5E6F7E085919591A591B4918AA39BA3D1
:104B2000ACA3BDA3E1E6F7E0C590D590E590F49085
:104B3000A7019601BC01CD010E948DE9181624F051
:104B4000CAA0DBA0ECA0FDA02E8D3F8D48A159A1ED
:104B5000CA01B9010E9434E120E030E040E85FE39F
:104B60000E94EEE70E94CCE9A70196010E9434E181
:104B70006A8F7B8F8C8F9D8FEAE7F7E0F49020E0BF
:104B800030E040EC5FE3C301B2010E9434E12B014D
:104B90003C016F2DFF0C770B880B990B0E94D5E021
:104BA0009B01AC01C301B2010E9434E169837A83A5
:104BB0008B839C8320E030E040EC5FE3C501B401CF
:104BC0000E9434E16B017C01622D022C000C770BFA
:104BD000880B990B0E94D5E09B01AC01C701B6017F
:104BE0000E9434E16E8B7F8B888F998FAE01465E79
:104BF0005F4FBE016F5F7F4FCE0146960E94CB7D17
:104C00000E9434BE10921E0410921F0410922004C1
:104C10001092210410922204109223041092240472
:104C20001092250480E00E949D7E112319F081E0FE
:104C30000E949D7E002309F4A3C080E00E943F6390
:104C40008091C20E8370833051F060E084E397E07E
:104C50000E94DF910E94CFBC85E297E0B1C00E9424
:104C60009B7E40902604509027046090280470900A
:104C700029042091D00E3091D10E4091D20E509146
:104C8000D30E60E070E08AEE92E40E94EDE76B01E3
:104C90007C016093F2027093F3028093F40290938C
:104CA000F5022091D40E3091D50E4091D60E509140
:104CB000D70E60E070E08AEE92E40E94EDE74B01CF
:104CC0005C016093F6027093F7028093F802909370
:104CD000F9022091D80E3091D90E4091DA0E509100
:104CE000DB0EC301B2010E94EDE76093FA027093FC
:104CF000FB028093FC029093FD0227E137EB41ED2C
:104D000058EBC501B4010E948DE987FD50C027E032
:104D100030E04BE653E4C501B4010E94CFE0181621
:104D20000CF445C027E137EB41ED58EBC701B60164
:104D30000E948DE987FD3BC027E030E04BE653E45D
:104D4000C701B6010E94CFE018168CF11E8A1F8A97
:104D5000188E198E88E0E2EFF2E0DE0111960190E4
:104D60000D928A95E1F7AE014A5E5F4FBE016B5F1F
:104D70007F4FCE0101960E94CB7D82E00E949D7EF6
:104D80000E949B7E8091990280939A02832D0E94BB
:104D9000F5B80E94EB7C83E0809323010E942B8076
:104DA000DACD112309F416CE1CCEF12E20CE60E010
:104DB00084E197E00E94DF910E94CFBC82E097E0FF
:104DC0000E9408BCDDCF0E94F05DC5CD44D70C9495
:104DD000271B10927A02109307030E9474D0BBCD58
:104DE00088E50E94ED5B81115E9889E50E94ED5B8C
:104DF00081115E988AE50E94ED5B882309F4ABCDB2
:104E00001598A9CD0E94C15B0E94D0E86337710557
:104E10000CF067C170936602609365020E943F9731
:104E20000E94FB9A811177D36091650270916602AE
:104E3000072E000C880B990B0E94D5E0209161028F
:104E40003091620240916302509164020E948DE9A8
:104E500018161CF48BE896E002C08CE796E060E040
:104E60000E94DF9181E080931F011EA21FA218A65D
:104E700019A61BA61CA61DA61EA610E080E09CE39A
:104E8000ACE1B6E48FA798ABA9ABBAABC12CD12CDF
:104E900060E8E62E6FEBF62E33243394412C512C30
:104EA00032016091650270916602072E000C880B3A
:104EB000990B0E94D5E04B015C01A70196010E946D
:104EC000CFE08823F9F02091610230916202409195
:104ED000630250916402C501B401011107C00E9430
:104EE000CFE0182F111F1127111F10C00E94CFE013
:104EF00087FF0BC080911F01882309F42CCD0E94ED
:104F000074D029CD4601570101C010E00E94AC8049
:104F10006B017C01DC01CB012BA53CA54DA55EA559
:104F2000821B930BA40BB50BB7FD30C0D701C60194
:104F300088519C4FAF4FBF4F8BA79CA7ADA7BEA773
:104F400080E00E94C89887E892E00E9408BC411463
:104F5000510461047104B1F0D301C201805F984D26
:104F6000AF4FBF4FBC01CD016C197D098E099F0960
:104F700028EE33E040E050E00E940BE7CA01B9019F
:104F8000BAD502C08FE356D58AE054D564D60E94C4
:104F9000AC806093590270935A0280935B029093A5
:104FA0005C02209161023091620240916302509153
:104FB00064022AA33BA34CA35DA3C501B4010E94D4
:104FC000EDE76E8F7F8F88A399A320E030E0A901E1
:104FD0000E948DE987FF09C08E8D9F8DA8A1B9A180
:104FE000B0588E8F9F8FA8A3B9A3411451046104B8
:104FF0007104B9F420E030E040E85FE36E8D7F8D0E
:1050000088A199A10E94CFE087FF19C0260137012E
:105010003320A9F090E1490E97E2591E611C711CE2
:105020000EC020E030E040E450E46E8D7F8D88A11A
:1050300099A10E948DE9181614F426013701112355
:10504000A9F12EA13FA148A559A52115310541057A
:10505000510541F0D701C601821B930BA40BB50B80
:10506000B7FD24C02AA13BA14CA15DA16FA578A9E1
:1050700089A99AA90E94EDE720E030E040E85FE3CB
:105080000E94CFE087FD36CFD701C601805A9541F7
:10509000AF4FBF4F8EA39FA3A8A7B9A72AA13BA13B
:1050A0004CA15DA12FA738AB49AB5AAB80911F0132
:1050B000882309F41FCF411451046104710421F4C1
:1050C000312C75016401EDCE30E1C31A37E2D30A09
:1050D000E108F108C418D508E608F708F7FCF0CF96
:1050E00009CF63E770E096CE0E94757588E50E944F
:1050F000ED5B882331F05E9A8091C20E8E7F8093A3
:10510000C20E89E50E94ED5B882331F05E9A8091A2
:10511000C20E8D7F8093C20E8AE50E94ED5B8823CC
:1051200009F419CC159A8091C20E8B7F8093C20E20
:1051300012CC83E50E94BD5D882391F00E94C15B83
:1051400060934309709344098093450990934609FD
:1051500060934B0970934C0980934D0990934E09CD
:1051600080E50E94BD5D882351F00E94C15B609381
:10517000430970934409809345099093460982E559
:105180000E94BD5D882351F00E94C15B6093470976
:10519000709348098093490990934A0984E50E94D5
:1051A000BD5D882309F4D7CB0E94C15B60934B0996
:1051B00070934C0980934D0990934E09CCCB82E4B7
:1051C0000E94ED5B882351F00E942AA360931F097F
:1051D00070932009809321099093220983E50E940E
:1051E000ED5B882351F00E94C15B60934F0970937F
:1051F0005009809351099093520984E50E94ED5B18
:10520000882351F00E94C15B609353097093540945
:1052100080935509909356098AE40E94ED5B882398
:1052200009F499CB0E94C15B6B017C012AE037ED48
:1052300043E25CE30E948DE987FD13C02AE939E966
:1052400049E95EE3C701B6010E94CFE018164CF0B1
:10525000C0922E04D0922F04E0923004F0923104D8
:105260007ACB0E94CCBC83E094E00E9408BC73CB54
:10527000C12CD12CE12C80E4F82EF6C8C12CD12C05
:10528000E12CB0ECFB2EF0C8A70196016091D80E7E
:105290007091D90E8091DA0E9091DB0E0E94EEE7AC
:1052A0006093D80E7093D90E8093DA0E9093DB0E34
:1052B0000E94CFBC4091D80E5091D90E6091DA0E69
:1052C0007091DB0E81EB93E00E94A1BC8AE0B2D327
:1052D000FDC882E50E94ED5B811101C93CCB0E94B3
:1052E000CCBC87E493E00E9408BC35CBB7FAB094FD
:1052F000B7F8B094D7018D929D92AD92BC9213975E
:105300008CCA0E94CCBC89E293E00E9408BC61E098
:105310008BE193E00E94DF910E9400C31CCB0C5FE5
:105320001F4FBFEFCB1ADB0AE7E5F7E0E017F10705
:1053300009F046CA88E3E82E82E0F82E10E0F10179
:1053400081919191A191B1911F01F7018193919365
:10535000A193B1937F01812F0E946C791F5F13305D
:1053600071F70E942B8060E08BE093E00E94DF9158
:10537000F2CA2091D00E3091D10E4091D20E5091B0
:10538000D30E2E8F3F8F48A359A34090D40E509038
:10539000D50E6090D60E7090D70EC090D80ED090DB
:1053A000D90EE090DA0EF090DB0E88E50E94BD5D2C
:1053B000882361F10E94C15B4B015C0120E030E079
:1053C0004BE653EC0E948DE987FD0AC020E030E0F7
:1053D0004BE653E4C501B4010E94CFE0181694F4E3
:1053E0006BEE70E08EED92E00E94B2BC6BEE70E06E
:1053F00089ED92E00E94B2BC85EE95E20E9408BC65
:1054000010E005C08E8E9F8EA8A2B9A211E089E59A
:105410000E94BD5D882351F10E94C15B4B015C017C
:1054200020E030E04BE653EC0E948DE987FD0AC096
:1054300020E030E04BE653E4C501B4010E94CFE028
:10544000181694F46BEE70E086EC92E00E94B2BC09
:105450006BEE70E089ED92E00E94B2BC85EE95E2C1
:105460000E9408BC10E002C0240135018AE50E94B8
:10547000BD5D882339F10E94C15B6B017C0120E096
:1054800030E040EA51EC0E948DE987FD0AC020E03F
:1054900030E040EA51E4C701B6010E94CFE018169F
:1054A0008CF46CEE7FEF84EB92E00E94B2BC64E17E
:1054B00070E089ED92E00E94B2BC85EE95E20E9418
:1054C00008BC49CA112309F446CA2E8D3F8D48A154
:1054D00059A12093D00E3093D10E4093D20E509309
:1054E000D30E4092D40E5092D50E6092D60E70928A
:1054F000D70EC092D80ED092D90EE092DA0EF0926A
:10550000DB0E29CA81116FCAFF24F39463CAE296A5
:10551000E2E10C94D2E78091E00E823059F01092D3
:10552000720210927302109274021092750281300E
:10553000C9F408950E94F58D6093FA0B7093FB0BEC
:105540008093FC0B9093FD0B81E08093E00E0E9412
:10555000AC806093FE0B7093FF0B8093000C9093D4
:10556000010C08950E94298EEFCF5E9A08955E9AED
:105570008091C20E8E7F8093C20E5E9A8091C20E81
:105580008D7F8093C20E159A8091C20E8B7F80937F
:10559000C20EEBCFA1E0B0E0E0EDFAE20C94C3E77D
:1055A000F82E05E918E041E050E0B801CE0101967F
:1055B0000E940FE089818F1102C081E007C00F5F58
:1055C0001F4F88E00D3A180771F780E02196E5E05B
:1055D0000C94DFE7DC01EC91F0E0CF01880F991F1C
:1055E000E80FF91FE45DF24F80818F778083089583
:1055F0008F929F92AF92BF92CF92DF92EF92FF92E3
:105600000F93CF93DF931F92CDB7DEB75C016B0191
:105610007A014901F501808191810E94E6E6898342
:10562000002311F0F6018083BE016F5F7F4FC4013C
:105630000E94FA51F50180819181019691838083C6
:10564000FFEFCF1ADF0A81E0E81AF10819F780E0CE
:105650000F90DF91CF910F91FF90EF90DF90CF905F
:10566000BF90AF909F908F900895A1E0B0E0EBE3E2
:10567000FBE20C94BBE77C0159018B016B01C40E6A
:10568000D51E0C151D0559F1F70180809180F80198
:1056900071908F017982C4010E94E6E6781691F03C
:1056A000672DC4010E94EEE6C4010E94E6E69981DE
:1056B000891741F00E94CFBC8CE797E00E9408BC9C
:1056C00081E00EC0BE016F5F7F4FC5010E94FA519D
:1056D000F70180819181019691838083D2CF80E010
:1056E0002196EDE00C94D7E71092900082E0809331
:1056F00091001092950010929400C19AE1E7F0E0B9
:105700008081826080830895A0E0B0E0EAE8FBE257
:105710000C94BBE7FC0190819C3008F0C1C06B0188
:105720007F01892F90E0FC01EE0FFF1F8E0F9F1F5E
:10573000FC01E45DF24F808161E08F770E94A8AAAE
:10574000F7011182128280816CE00E9468E7FCE020
:105750008F9FB001112440E050E09B01240F351FC2
:10576000F901EE0FFF1F2E0F3F1FF901E45DF24F0D
:10577000908197FD08C04F5F5F4F4C30510569F72E
:10578000811101C0B1DFF7017080C72DD0E08E011B
:10579000000F111FF801EC0FFD1FE45DF24F808137
:1057A0008068808377FC7CC0F0E2CF16F2E0DF06F1
:1057B0000CF041C0F701828128E532E0281B310955
:1057C00087FD3395220F331F220F331F032E000C4A
:1057D000440B550B818168E870E04B01881A9108F1
:1057E00087FD9394880C991C880C991C092C000C3B
:1057F000AA08BB08D7FC0BC0B601653B710514F0C5
:1058000064EB70E0072E000C880B990B03C060E07E
:1058100070E0CB01281939094A095B090E94FCE6AE
:1058200024EB30E040E050E00E942DE7820E931E12
:10583000A41EB51E01C04601FBE0F71558F1F701A3
:10584000218188E890E0821B910927FD9395880FBC
:10585000991F880F991F8816990684F0F7012281F5
:1058600088E592E0821B910927FD9395880F991F87
:10587000880F991F881699060CF4C40102972FB758
:10588000F894C00FD11FC45DD24F880F991F9A831F
:1058900089832FBF62E370E080E090E00E94C6BB86
:1058A000CDB7DEB7EDE00C94D7E71F920F920FB69D
:1058B0000F9211240BB60F922F933F934F935F9348
:1058C0006F937F938F939F93AF93BF93EF93FF93C8
:1058D00080910C0387FF05C01092950010929400F0
:1058E0001BC020910C03022E000C330B8091500D35
:1058F00090E02817390784F480910C03082E000CDF
:10590000990BFC01EE0FFF1F8E0F9F1FFC01E45D42
:10591000F24F808187FD15C080910C038F5F8093CB
:105920000C0320910C03022E000C330B8091500DC0
:1059300090E028173907C4F480910C038C3064F18F
:1059400013C080910C03082E000C990BFC01EE0F84
:10595000FF1F8E0F9F1FFC01E45DF24F808160E00E
:105960008F770E947AAAD8CF809194009091950069
:10597000049680349C4918F480E49CE905C0809129
:1059800094009091950004969093990080939800CC
:105990008FEF80930C033BC02091940030919500D1
:1059A00080910C03082E000C990BFC01EE0FFF1FD9
:1059B0008E0F9F1FFC01E45DF24F81819281820F67
:1059C000931F909399008093980080910C03082E68
:1059D000000C990BFC01EE0FFF1F8E0F9F1FFC01A7
:1059E000E45DF24F808187FF12C080910C03082E86
:1059F000000C990BFC01EE0FFF1F8E0F9F1FFC0187
:105A0000E45DF24F808161E08F770E947AAAFF9176
:105A1000EF91BF91AF919F918F917F916F915F9126
:105A20004F913F912F910F900BBE0F900FBE0F9093
:105A30001F9018959091C00095FFFCCF8093C600F1
:105A400008958F929F92AF92BF92EF92FF920F9321
:105A50001F93CF93DF93CDB7DEB7A0970FB6F8941F
:105A6000DEBF0FBECDBF611571058105910581F1C6
:105A7000E12C842E912CA12CB12CFE2C01E010E005
:105A80000C0F1D1F0E0D111DE7FC1A95A5019401A9
:105A90000E940BE7F8016083CA01B901E394232B4C
:105AA000242B252B51F7FFEFFF16A1F0E1E0F0E0EA
:105AB000EC0FFD1FEF0DF11DF7FCFA9580818A3088
:105AC00010F097E301C090E3890FB4DFFA94EBCFB5
:105AD00080E3B0DFA0960FB6F894DEBF0FBECDBF57
