:100000000C9480170C94AA170C94AA170C94AA1796
:100010000C948FD40C948FD40C948FD40C948FD4D4
:100020000C94AA170C94AA170C94AA170C94AA174C
:100030000C94AA170C944D680C94AA170C94AA1748
:100040000C94AA170C94E7950C9408700C94AA17BA
:100050000C9401B90C94F7B80C94AA170C94AA1735
:100060000C94AA170C94AA170C94AA170C94AA170C
:100070000C94AA170C94AA170C94AA170C94AA17FC
:100080000C9421B70C94AA170C94AA1768A96BA911
:100090005EA962A982A982A96FA973A979A97DA97C
:1000A00033B943B954B95FB967B97EB96BB97EB991
:1000B0006FB973B97EB979B9EFC9ADC8E0C82BCAB9
:1000C000E0C8E0C8E0C8E0C8E0C8E0C8E0C8E0C8F0
:1000D000E0C8E0C8E0C8E0C8E0C8E0C8E0C8E0C8E0
:1000E000E0C8E0C8E0C8E0C8E0C8E0C8E0C8E0C8D0
:1000F000E0C8E0C825CAE0C8E0C8E0C8E0C8E0C879
:10010000E0C8E0C8E0C8FEC9E0C8E0C8E0C8E0C890
:10011000E0C8E0C8E0C8E0C8E0C8E0C842CADDC83E
:10012000FCCC01CD06CD10CD3ECD3ECD1ACD22CD9D
:100130002ACD34CD05A84CCDB2D44EB93836A9025B
:100140000C50B9918688083CA6AAAA2ABE000000D5
:10015000803F4E414E494E495459494E46CDCCCC34
:100160003D0AD7233C17B7D13877CC2B329595E68B
:10017000241FB14F0A000020410000C84200401C6B
:100180004620BCBE4CCA1B0E5AAEC59D7400407AB8
:1001900010F35A00A0724E18090010A5D4E8000010
:1001A000E87648170000E40B54020000CA9A3B00AE
:1001B0000000E1F505000080969800000040420F25
:1001C000000000A08601000000102700000000E8E9
:1001D00003000000006400000000000A00000000AE
:1001E000000100000000002C76D888DC674F08234F
:1001F000DFC1DFAE59E1B1B796E5E3E453C63AE6B5
:1002000051997696E8E6C28426EB898C9B62ED4094
:100210007C6FFCEFBC9C9F40F2BAA56FA5F49005E3
:100220005A2AF75C936B6CF9676DC11BFCE0E40D17
:1002300047FEF520E6B500D0ED902E03009435770B
:10024000050080841E080000204E0A000000C80C33
:10025000333333330F986E12831141EF8D2114899C
:100260003BE65516CFFEE6DB18D1844B381BF77CF6
:100270001D901DA4BBE424203284725E228100C93B
:10028000F124ECA1E53D2720573A00434F4D4D5551
:100290004E49434154494F4E0044525952554E0025
:1002A0004552524F525300494E464F004543484F26
:1002B000006F6B003F5A206F7574206F662072616B
:1002C0006E67652028003F59206F7574206F662087
:1002D00072616E676520282D0020746F20003F58E2
:1002E000206F7574206F662072616E676520282DFF
:1002F0000050726F6265204F666673657420580007
:10030000454550524F4D204F4B0A004F666673656E
:100310007473204170706C696564004572723A2094
:10032000546F6F206661722100546F6F2066617296
:100330002066726F6D207265666572656E636520FA
:10034000706F696E740A004D34323120696E636FCC
:10035000727265637420706172616D65746572207C
:1003600075736167650A006469730043290A006157
:10037000626C656420286D696E2074656D70200064
:10038000436F6C6420657874727564657320617264
:10039000652000496E76616C6964206578747275B9
:1003A0006465720A0020643A0020693A0020703ABD
:1003B0000050726F6265204F6666736574205A0044
:1003C00020536572766F200050726F746563746598
:1003D000642050696E0A0020466C6F773A20004610
:1003E000523A0020204D61783A200020204D696E5D
:1003F0003A2000536F667420656E6473746F707377
:100400003A20005741524E494E4721204C6F7720E9
:100410005A204A65726B206D6179206C6561642099
:10042000746F20756E77616E74656420706175738A
:1004300065732E0A00205400205200416363656CEE
:1004400065726174696F6E3A2050004D3134352009
:10045000533C696E6465783E206F7574206F66202A
:1004600072616E67652028302D31290A002F2F20F8
:10047000004348414D4245525F54454D504552411D
:100480005455524500424142595354455050494EEB
:1004900047004D4F54494F4E5F4D4F444553005414
:1004A0004845524D414C5F50524F54454354494F7B
:1004B0004E004C4F4E475F46494C454E414D45001E
:1004C0004155544F5245504F52545F53445F53541B
:1004D00041545553005344434152440050524F4DF0
:1004E00050545F535550504F525400454D4552475C
:1004F000454E43595F504152534552004341534585
:100500005F4C494748545F4252494748544E45530F
:100510005300544F47474C455F4C4947485453009C
:10052000534F4654574152455F504F574552004232
:1005300055494C445F50455243454E54004C455636
:10054000454C494E475F44415441005A5F50524F19
:100550004245004155544F4C4556454C0050524978
:100560004E545F4A4F420050524F4752455353003A
:100570004155544F5245504F52545F54454D5000D1
:10058000564F4C554D45545249430042494E4152F5
:10059000595F46494C455F5452414E5346455200BF
:1005A00053455249414C5F584F4E5F584F464600A5
:1005B0004649524D574152455F4E414D453A4D6176
:1005C000726C696E206275676669782D322E302EE6
:1005D0007820284175672020342032303230203195
:1005E000363A35333A33312920534F555243455F1C
:1005F000434F44455F55524C3A68747470733A2FB8
:100600002F6769746875622E636F6D2F4D61726C10
:10061000696E4669726D776172652F4D61726C69A2
:100620006E2050524F544F434F4C5F5645525349E2
:100630004F4E3A312E30204D414348494E455F548C
:100640005950453A4C7563792045585452554445A4
:10065000525F434F554E543A3120555549443A6301
:10066000656465326132662D343161322D34373440
:10067000382D396231322D63353563363266333683
:100680003766660A004C756379204F46462E004255
:10069000656420436F6F6C696E672E2E2E00426575
:1006A000642048656174696E672E2E2E004D3131CD
:1006B000332053006F66660044454255473A002593
:1006C000697920256964202569682025696D2025C0
:1006D0006973005072696E742074696D653A200008
:1006E0004E6F204D6F76652E00436C69636B2074EE
:1006F0006F20526573756D652E2E2E004D657368E3
:1007000020706F696E74206F7574206F662072613F
:100710006E67650A005A2050726F626520506173DF
:1007200074204265640A005A2050726F626520503E
:100730006173742042656400486F6D6520585920CC
:1007400066697273740A00486F6D652058592046B7
:100750006972737400536C6565702E2E2E00000054
:1007600000000000000000000000AC02A702A00290
:1007700099028B0200004842000048420000A0415C
:1007800000006B4300006B4300007A43FFFFFF242F
:10079000F4D43050C38E20C2A24017828B70111245
:1007A0007A910D816CD90AA861E108C75866076182
:1007B0005143061E4B5D05C145A7041A41110409AA
:1007C0003D9803713931034036DB0265339102D421
:1007D000305402802E1D02632CEE01752AC501B033
:1007E00028A001102781018F2564012B244B01E0F3
:1007F000223401AC211F018D200D01801FFC0084DB
:100800001EED00971DDF00B81CD200E61BC60020BD
:100810001BBC00641AB200B219A8000A19A0006A31
:10082000189900D117910040178B00B5168400313C
:10083000167E00B31579003A157300C7146F00587F
:10084000146A00EE1366008813630025135E00C768
:10085000125B006C12570015125400C11151007048
:10086000114F0021114B00D61049008D1047004652
:1008700010440002104200C00F4000800F3E0042B2
:100880000F3C00060F3B00CB0E3800930E37005C88
:100890000E3500270E3400F30D3200C10D310090EB
:1008A0000D3000600D2E00320D2D00050D2C00D9ED
:1008B0000C2B00AE0C2900850C29005C0C270035A0
:1008C0000C27000E0C2600E80B2400C40B2400A00B
:1008D0000B23007D0B23005A0B2100390B2100183C
:1008E0000B2000F80A1F00D90A1E00BB0A1E009D3B
:1008F0000A1D00800A1D00630A1C00470A1B002C09
:100900000A1B00110A1A00F7091A00DD091900C4B0
:10091000091900AB091900920917007B0918006337
:100920000917004C09160036091600200916000A9E
:10093000091500F5081500E0081400CC081400B8EB
:10094000081400A4081400900813007D0812006B1E
:10095000081300580812004608120034081100233A
:100960000811001208110001081100F0071000E042
:10097000071000D0071000C0071000B0070F00A13B
:1009800007100091070E0083070F0074070F006522
:10099000070E0057070E0049070E003B070D002EFB
:1009A000070E0020070D0013070D0006070D00F9C4
:1009B000060C00ED060D00E0060C00D4060C00C885
:1009C000060C00BC060C00B0060C00A4060B009937
:1009D000060C008D060B0082060B0077060B006CE0
:1009E000060B0061060A0057060B004C060A00427F
:1009F000060A0038060A002E060A0024060A001A13
:100A0000060A001006090007060A00FD050900F4A1
:100A1000050900EB050900E2050900D9050900D028
:100A2000050900C7050900BE050900B5050800ADA8
:100A3000050800A50509009C050800940508008C20
:100A4000050800840508007C050800740508006C92
:100A5000050700650508005D050700560508004EFE
:100A60000507004705070040050800380507003165
:100A70000507002A050700230507001C05060016C8
:100A80000507000F0507000805060002050700FB23
:100A9000040600F5040700EE040600E8040600E280
:100AA000040700DB040600D5040600CF040600C9D5
:100AB000040600C3040600BD040600B7040600B126
:100AC000040500AC040600A6040600A00405009B73
:100AD00004060095040500900406008A04050085BC
:100AE000040500800406007A040500750405007002
:100AF0000405006B04050066040500610405005C44
:100B000004050057040500520405004D0405004883
:100B1000040500430405003E0404003A04050035C2
:100B2000040500300404002C0405002704040023FD
:100B30000405001E0404001A040400160405001134
:100B40000404000D0404000904050004040400006A
:100B5000040400FC030400F8030400F4030400F0A0
:100B6000030400EC030400E8030400E4030400E0D1
:100B7000030400DC030400D8030400D4030400D001
:100B8000030400CC030400C8030300C503030024CE
:100B9000F404D9201BC40C5C0E9804C4095F0265E0
:100BA000077101F405F900FB04B30048048700C194
:100BB0000369005803550003034500BE023A008450
:100BC00002310053022A002902250004022000E419
:100BD000011C00C8011900AF01170098011400841E
:100BE000011300710110006101100051010E00435A
:100BF000010D0036010B002B010B0020010B00152D
:100C00000109000C01090003010800FB000800F3C2
:100C1000000800EB000700E4000600DE000600D834
:100C2000000600D2000600CC000500C7000500C287
:100C3000000500BD000400B9000400B5000400B1C7
:100C4000000400AD000400A9000400A5000300A2F8
:100C50000003009F0004009B000300980003009520
:100C600000020093000300900003008D0002008B3F
:100C70000003008800020086000200840003008157
:100C80000002007F0002007D0002007B000200796C
:100C9000000200770001007600020074000200727A
:100CA000000100710002006F0002006D0001006C85
:100CB0000002006A0001006900020067000100668E
:100CC0000001006500010064000200620001006193
:100CD000000100600001005F0002005D0001005C97
:100CE0000001005B0001005A00010059000100589A
:100CF000000100570001005600010055000100549A
:100D00000001005300000053000100520001005197
:100D1000000100500001004F0001004E0000004E95
:100D20000001004D0001004C0001004B0000004B91
:100D30000001004A0001004900010048000000488D
:100D40000001004700010046000000460001004588
:100D50000000004500010044000100430000004382
:100D6000000100420000004200010041000000417B
:100D7000000100400001003F0000003F0001003E74
:100D80000000003E0001003D0000003D0001003C6D
:100D90000000003C0000003C0001003B0000003B64
:100DA0000001003A0000003A00010039000000395B
:100DB0000001003800000038000000380001003752
:100DC0000000003700010036000000360000003649
:100DD000000100350000003500000035000100343E
:100DE0000000003400000034000100330000003334
:100DF0000000003300010032000000320000003229
:100E0000000100310000003100000031000100301D
:100E100000000030000000300001002F0000002F13
:100E20000000002F0000002F0001002E0000002E07
:100E30000000002E0001002D0000002D0000002DFC
:100E40000000002D0001002C0000002C0000002CF0
:100E50000000002C0001002B0000002B0000002BE4
:100E60000000002B0001002A0000002A0000002AD8
:100E70000000002A000100290000002900000029CC
:100E800000000029000000290001002800000028BF
:100E900000000028000000280000002800010027B2
:100EA00000000027000000270000002700000027A6
:100EB0000001002600000026000000260000002699
:100EC000000000260001002500000025000000258C
:100ED000000000250000002500000025000100247E
:100EE0000000002400000024000000240000002472
:100EF0000001002300000023000000230000002365
:100F00000000002300000023000000230001002255
:100F10000000002200000022000000220000002249
:100F2000000000220001002100000021000000213B
:100F3000000000210000002100000021000000212D
:100F40000001002000000020000000200000002020
:100F50000000002000000020000000200000002011
:100F60000001001F0000001F0000001F0000001F04
:100F70000000001F0000001F0000001F0001001EF5
:100F80000000001E0000001E0000001E00000039CE
:100F90003000003325000087190000B00F0000DB8F
:100FA000080000BD040000740200003F010000536F
:100FB000544F505045442E20005072696E74657233
:100FC0002073746F707065642064756520746F2081
:100FD0006572726F72732E2046697820746865207E
:100FE0006572726F7220616E6420757365204D3971
:100FF000393920746F20726573746172742E2028E1
:1010000054656D70657261747572652069732072C4
:10101000657365742E20536574206974206166744D
:1010200065722072657374617274696E67290A0053
:1010300021212053544F502063616C6C6564206201
:10104000656361757365206F6620424C546F7563EC
:1010500068206572726F72202D20726573746172E0
:10106000742077697468204D3939390A004F464633
:101070000A0046616465204865696768742000421B
:101080006564204C6576656C696E67200046616911
:101090006C656420746F20656E61626C65204265CA
:1010A00064204C6576656C696E670A00496E7661EE
:1010B0006C6964206D6573682E0A0050726F6269F6
:1010C0006E6720506F696E740025532025692F25A7
:1010D000690050726F62696E67206D657368207079
:1010E0006F696E742000202844525952554E2900D1
:1010F000473239204175746F20426564204C657613
:10110000656C696E67003F20284C2C522C462C429F
:1011100029206F7574206F6620626F756E64732E60
:101120000A00426164205A2076616C75650A004E9F
:101130006F2062696C696E65617220677269640A0A
:1011400000687474703A2F2F6D61726C696E6677E7
:101150002E6F7267006275676669782D322E302EA9
:101160007800436F6E66696775726174696F6E00AF
:101170004F6666004F6E004D6F74696F6E0041756B
:10118000746F20486F6D65005053550047656E655C
:101190007269630050726F746F636F6C00312E3030
:1011A000004261756400313135323030004D656C7C
:1011B0007A692028437265616C69747929004578E1
:1011C00074727564657273004C75637900323032E5
:1011D000302D30362D313900546865726D69737465
:1011E0006F727300426F61726420496E666F0050C7
:1011F00072696E74657220496E666F0041626F7528
:1012000074205072696E7465720054756E65004981
:101210006E666F2053637265656E00536F6674204F
:10122000456E6473746F7073004D38340044697395
:1012300061626C652053746570706572730047322B
:10124000380A4D343820503130004D343820507237
:101250006F62652054657374004732380021212085
:101260004B494C4C2063617573656420627920742E
:101270006F6F206D75636820696E61637469766550
:101280002074696D65202D2063757272656E7420FF
:10129000636F6D6D616E643A20004E6F2043686528
:1012A000636B73756D2077697468206C696E652057
:1012B0006E756D6265722C204C617374204C696E82
:1012C000653A2000636865636B73756D206D6973A3
:1012D0006D617463682C204C617374204C696E6579
:1012E0003A20004C696E65204E756D62657220690A
:1012F00073206E6F74204C617374204C696E65208E
:101300004E756D6265722B312C204C617374204CCC
:10131000696E653A20004D31313000627573793A5B
:101320002070617573656420666F7220696E7075D8
:10133000740A00627573793A207061757365642070
:10134000666F7220757365720A00627573793A2050
:1013500070726F63657373696E670A00506C6561C4
:101360007365205265736574005052494E5445525E
:101370002048414C5445440025533A202553004B06
:10138000494C4C45442E20005072696E74657220A1
:1013900068616C7465642E206B696C6C282920630D
:1013A000616C6C6564210A006563686F3A00457280
:1013B000726F723A0042696C696E656172204C65A9
:1013C00076656C696E6720477269643A0A0000FEB0
:1013D0000003FF8007C7C00701E00000E00000F045
:1013E0000000700400700E00701F00703F80F00E4F
:1013F00000E00F01E007C7C003FF8000FE0000FE11
:101400000003FF8007C7C00F01E00E00E03F80F03F
:101410001F00700E00700400700000700000F000EB
:1014200000E00701E007C7C003FF8000FE000E00D8
:101430000E000E000E000E000E000E000E007FC00B
:101440003F801F000E00040004000E001F003F80BC
:101450007FC00E000E000E000E000E000E000E00EB
:101460000E00FFFFFF7F80FFC0FFC0FFC07F807FB7
:1014700080FFC0FFC0FFC03F001E000C004D333096
:1014800033205531204525692053256900504944B2
:10149000204175746F74756E65202A005049442D83
:1014A00044202A005049442D49202A005049442D07
:1014B00050202A0020082046616374002008204D37
:1014C0006178002008204D696E004175746F746565
:1014D0006D700020746F6F206C6F6E67206578747C
:1014E000727573696F6E2070726576656E7465646F
:1014F0000A0020636F6C6420657874727573696F7D
:101500006E2070726576656E7465640A0000000076
:10151000010000000100008000555555000000400A
:101520000033333300AAAA2A004992240000002085
:1015300000C7711C0099991900D145170055551520
:10154000003BB113002449120011111100000010DA
:10155000000F0F0F00E3380E0043790D00CCCC0CC8
:1015600000C3300C00E8A20B0064210B00AAAA0AF9
:1015700000703D0A009DD80900427B0900922409B1
:1015800000DCD3080088880800104208000000082A
:1015900000F0C107008787070075500700711C071E
:1015A000003EEB0600A1BC060069900600666606D8
:1015B00000703E06006118060017F4050074D1059E
:1015C000005BB00500B2900500627205005555053C
:1015D0000078390500B81E0500050505004EEC042D
:1015E0000087D40400A1BD040090A7040049920420
:1015F00000C17D0400EE690400C7560400444404A1
:10160000005C3204000821040041100400000004C2
:10161000003FF00300F8E0030026D20300C3C30339
:1016200000CCB503003AA803000A9B0300388E03E0
:1016300000C08103009F750300D0690300505E0362
:10164000001D53030034480300913D03003333036E
:101650000016290300381F030097150300300C0300
:1016600000030303000BFA020049F10200BAE8028A
:10167000005CE002002DD802002DD0020059C80203
:1016800000B0C0020031B90200DAB10200AAAA0219
:1016900000A0A30200BC9C0200FA9502005C8F022D
:1016A00000DF88020082820200457C020027760269
:1016B0000027700200436A02007C640200D05E02D0
:1016C000003F590200C8530200FFFDFCFAF8F6F48F
:1016D000F2F0EEECEAE9E7E5E3E1E0DEDCDAD9D7C7
:1016E000D5D4D2D0CFCDCBCAC8C7C5C3C2C0BFBD69
:1016F000BCBAB9B7B6B4B3B2B0AFADACAAA9A8A6DC
:10170000A5A4A2A1A09E9D9C9A9998979594939226
:10171000908F8E8D8B8A8988878684838281807F53
:101720007E7D7B7A797877767574737271706F6E5F
:101730006D6C6B6A696867666564636261605F5E51
:101740005D5C5B5A59585857565554535251505036
:101750004F4E4D4C4B4A4A49484746464544434202
:101760004241403F3E3E3D3C3B3B3A3938383736BC
:101770003535343332323130302F2E2E2D2C2B2B69
:101780002A29292827272625252423232221212009
:10179000201F1E1E1D1C1C1B1B1A1919181817169A
:1017A00016151514131312121111100F0F0E0E0D22
:1017B0000D0C0C0B0A0A090908080707060605059F
:1017C000040403030202010000205A3A0020593A9F
:1017D000002020506C616E6E65724275666665729F
:1017E00042797465733A20002046726565204D6524
:1017F0006D6F72793A2000436F6D70696C65643A61
:101800002041756720203420323032300A00204CCD
:1018100061737420557064617465643A20323032AB
:10182000302D30362D3139207C20417574686F722F
:101830003A202870616469632C204C756379290A09
:10184000006275676669782D322E302E780A004D59
:1018500061726C696E0020536F66747761726520E7
:1018600052657365740A00205761746368646F671A
:101870002052657365740A002042726F776E206F84
:1018800075742052657365740A002045787465721A
:101890006E616C2052657365740A00506F776572D3
:1018A00055700A00255320256320256320256320D9
:1018B000256300656E6473746F7073206869743A91
:1018C0002000416476616E636564205365747469B9
:1018D0006E67730053746F72652053657474696E1C
:1018E0006773004C6F61642053657474696E67732D
:1018F000004C6576656C20436F726E6572730046AE
:10190000616465204865696768740045646974208E
:101910004D657368004732380A473239004C6576A6
:10192000656C2042656400436D643A2053746F77A0
:1019300000436D643A2053572D4D6F646500436D2D
:10194000643A204465706C6F7900436D643A2053AB
:10195000656C662D5465737400436D643A2052655E
:1019600073657400526573746F72652044656661B7
:10197000756C747300424C546F7563680031323576
:10198000004245443A4550434F53203130304B00DC
:1019900052756E617761792057617463683A204FA0
:1019A0004E004D61782054656D7000323735004D22
:1019B000696E2054656D700045313A204550434FA3
:1019C00053203130304B001FE02010201020101029
:1019D0002010202010201030300840048003001F09
:1019E000E03FF03FF03FF01FE01FE03FF03FF03FEF
:1019F000F00FC0078003003FFFF038007030FC306C
:101A000020FC102078102030102C00D02E31D02F48
:101A10007BD02F7BD02E31D02C00D02030102078DE
:101A20001020FC1030FC303800703FFFF03FFFF01A
:101A30003800703186302387102787902F87D02F6A
:101A400003D02030102078102078102030102F0381
:101A5000D02F87D0278790238710318630380070A9
:101A60003FFFF01FFFF81FFFF8041040020820029C
:101A70000820041040082080104100104100082078
:101A8000800410400000001FFFF81FFFF8202020F6
:101A9000202020200054656D706572617475726538
:101AA0000050726F6265205A204F6666736574003D
:101AB0004D61696E005072656865617420504C41DB
:101AC00020456E64005072656865617420504C4119
:101AD000204265640050726568656174204142531C
:101AE00020456E6400507265686561742041425300
:101AF0002042656400436F6F6C646F776E005072B4
:101B00006568656174204142530050726568656183
:101B10007420504C410046616E205370656564002E
:101B20004E6F7A7A6C6500466C6F77004572723A38
:101B3000207574663820666F6E74206E6F7420692D
:101B40006E697469616C697A65642E002568753AFE
:101B50002530326875002568756420253032687537
:101B60003A253032687500000C0F00FE070226038C
:101B7000BC017FFE08FE08FE05080806000040F0D4
:101B8000C88888987810050808060000C0F888887A
:101B9000888888F80505050600012030F830200502
:101BA00008080600002070F820202020E005090920
:101BB0000600FF2070A8A8B88888702005060606D1
:101BC0000001E08CEA8C8A0A0509090600FFF8A8E2
:101BD0008888888888A8F8050A0A0600FE205050E0
:101BE000505088A8A8887003030306000340A04053
:101BF000FFFFFFFFFFFFFFFFFFFFFFFFFFFFFFFFF5
:101C0000FFFFFFFFFFFF0000000605FF01070706BB
:101C1000020080808080800080030303060105A00D
:101C2000A0A005060606000050F85050F85005091F
:101C3000090600FF2070A8A07028A87020050707DB
:101C4000060000C8C8102040989805070706000045
:101C500040A0A040A8906801030306020580808090
:101C60000309090601FF2040408080804040200396
:101C700009090601FF8040402020204040800507E0
:101C80000706000020A8702070A8200505050600A2
:101C9000012020F820200203030601FFC040800538
:101CA0000101060003F8020202060100C0C0050798
:101CB00007060000081010204040800507070600B6
:101CC00000708898A8C8887003070706010040C004
:101CD00040404040E00507070600007088081020DB
:101CE00040F8050707060000F8081030088870055E
:101CF000070706000010305090F81010050707067F
:101D00000000F880F008088870050707060000301A
:101D10004080F0888870050707060000F80810105A
:101D200020202005070706000070888870888870CA
:101D3000050707060000708888780810600205050E
:101D4000060100C0C000C0C00206060601FFC0C0F8
:101D500000C04080030505060101204080402005A9
:101D60000303060002F800F80305050601018040A0
:101D70002040800507070600007088102020002002
:101D80000507070600007088B8A8B8807005070727
:101D9000060000708888F888888805070706000014
:101DA000F04848704848F005070706000070888032
:101DB00080808870050707060000F04848484848BA
:101DC000F0050707060000F88080F08080F805071E
:101DD00007060000F88080F0808080050707060075
:101DE0000070888080988870050707060000888842
:101DF00088F8888888030707060100E040404040D3
:101E000040E005070706000038101010109060052C
:101E100007070600008890A0C0A090880507070665
:101E20000000808080808080F80507070600008819
:101E3000D8A8888888880507070600008888C8A869
:101E40009888880507070600007088888888887049
:101E5000050707060000F08888F0808080050707E6
:101E600006000070888888A89068050707060000AB
:101E7000F08888F0A0908805070706000070888029
:101E800070088870050707060000F8202020202031
:101E9000200507070600008888888888887005075D
:101EA000070600008888888850502005070706002C
:101EB0000088888888A8A850050707060000888839
:101EC0005020508888050707060000888850202089
:101ED0002020050707060000F80810204080F803BE
:101EE00009090601FFE080808080808080E005078E
:101EF0000706000080404020101008030909060171
:101F0000FFE020202020202020E00503030600051C
:101F10002050880501010600FEF8030303060105B1
:101F200080402005050506000070087888780507C0
:101F3000070600008080F0888888F0050505060007
:101F40000070808088700507070600000808788800
:101F50008888780505050600007088F08070050700
:101F600007060000304840E04040400507070600F3
:101F7000FE70888888780870050707060000808052
:101F8000F0888888880307070601004000C04040A9
:101F900040E00409090601FE1000301010101090F6
:101FA0006005070706000080808890E0908803079E
:101FB00007060100C04040404040E005050506001E
:101FC00000D0A8A8A8A8050505060000B0C8888804
:101FD00088050505060000708888887005070706D3
:101FE00000FEF0888888F080800507070600FE78EC
:101FF000888888780808050505060000B0C8808034
:102000008005050506000078807008F005070706C2
:1020100000002020F8202020180505050600008873
:10202000888898680505050600008888885020057E
:1020300005050600008888A8A850050505060000CB
:1020400088502050880507070600FE8888885020A1
:102050004080050505060000F8102040F803090936
:102060000601FF2040404080404040200109090611
:1020700002FF8080808080808080800309090601C3
:10208000FF8040404020404040800503030600029E
:1020900048A890FFFFFFFFFFEFFFFFFFFFFFFFFFDD
:1020A000FFFFFFEFEFFFFFFFFFFFFFFFFFFFE7DF98
:1020B000FFFFFFFFFFFFFFFFFFE7DFFFFFFFFFFF68
:1020C000FFFFFFFFE3DFFFFFFFFFFFFFFFFFFFF368
:1020D000CFFFFFFFFFFFFFFFFFE1E1CFFFFFFFFFAC
:1020E000FFFFFE78000003DDFFFFFFFFFEFF807EA5
:1020F0000001EEFFFFFFFFFE7DCFFC0000F77FFF3A
:10210000FFFFFF8E060000007BBFFFFFFFFFC00048
:102110000000007DDFFFFFFFFFFC01FE00003EE747
:10212000FFFFFFFFFFFFFC00031F73FFFFFFFFFF29
:10213000FFF800018F81FFFFFFFFFFFFE00000833A
:10214000F9FFFFFFFFFFFF00FC0000F0FFFFFFFFB4
:10215000FFE00FFFC00000FFFFFFFFFE03FFFFC017
:102160000000FFFFFFFFFFFFFFF9000000FFFFFF80
:10217000FFFFFFFFFC0007C0FFFFFFFFFFFFFFFFA8
:102180000007E0FFFFFFFFFFFFFFFFE007F1FFFF9A
:10219000FFFFFFFFFFFFFC07F9FFFFFFFFFFFFFF50
:1021A000FFFF03F9FFFFFFFFFFFFFFFFFF83F9FFC3
:1021B000FFFFFFFFFFFFFFFFC3FFFFFFFFFFFFFF6B
:1021C000FFFFFFE1FFFFFFFFFFFFFFFFFFFFF0BF8C
:1021D000FFFFFFFFFFFFFFFFFBF83FFFFFFFFFFFDA
:1021E000FFFFFFF9F83FFFFFFFFFFFFFFFFF7EF05C
:1021F000FFFFFFFFFFFFFFFFFF8E03FFFFFFFFFF5C
:10220000FFFFFFFFE01FFFFFFFFFFFFFFFFFFFFFDD
:10221000FFFFFFFFFFFFFFFFFFFFFFFFFFFFFFFFCE
:10222000FFFFFFFFFFFFFF7FFFFFFFFF00007FFFBC
:10223000FFF87FFFFFFFFF80007FFFFFE07FFFFFD2
:10224000FFFFC3FCFFFFFFF8FFFFFFFFFFC3FCFF23
:10225000FFFFF8FFFFFFFFFF87FDFFFFFFF1FFFF1D
:10226000FFFFFF87FFFFFFFFF1FFFFFFFFFF0FE70C
:10227000F30FFC23FC3FFFFFFF0FEF8007F003F09D
:102280001E007FFE1FCF8187C787C70C007FFE001F
:102290001FC7C78FC79F0F0CFFFE001F878F1F8FA1
:1022A0001F0F1FFFFC3F9F8F8F1F8E001E3FFFFCE5
:1022B0007F3F0F1E3F1E3FFE3FFFF87FFF1F1C3F6B
:1022C0001C7FFC7FFFF8FFFF1E1C7E1C7FFC7FFF36
:1022D000F0FFCE3E3C7E3C7FB8FFFFF0FF9E3C38D7
:1022E0007C387E78FFFFE1FF3C7C787C783CF1FF16
:1022F000FFE1F8387878101801F1FFFF0000602046
:102300003C007C07807FFFFFFFFFFFFE1FFE1FFFDB
:10231000FFFF1FFFFFFFFFFFFF600000000001FF46
:10232000400000000000FF8000000000007F83CF1D
:1023300000000C303F87FF80000C301F8679800042
:102340000C000F8C30C7838C30E78C30CFC7CC317A
:10235000F38C30DCECEC33B98C30D86C6C33198CEA
:1023600030D06C0C33198C30D86C0C33198C30DCB9
:102370006C0E3B198C30CF7C079F198C30C77C03C7
:102380008F194000000000000260000000000006FD
:102390001FFFFFFFFFFFF83F00454550524F4D2004
:1023A00056657273696F6E204572726F7200454593
:1023B00050524F4D20496E646578204572726F729D
:1023C00000454550524F4D20435243204572726F95
:1023D000720049676E6F726500496E697469616C5D
:1023E000697A6520454550524F4D005365747469B4
:1023F0006E67732053746F726564005365747469FB
:102400006E67732053746F726564202800202D203E
:10241000496E76616C696420657874727564657262
:10242000206E756D62657220210A00544845524D38
:10243000414C2052554E4157415900546865726DC8
:10244000616C2052756E61776179004572723A2035
:102450004D415854454D50004D415854454D502024
:10246000747269676765726564004572723A204DDF
:10247000494E54454D50004D494E54454D502074E1
:10248000726967676572656400202F002042403AD8
:102490000020403A0070012C0190012701B0012278
:1024A00001C0011D01F00118011002130130020EDC
:1024B000016002090190020401C002FF000003FA5A
:1024C000004003F5008003F000D003EB002004E699
:1024D000007004E100E004DC004005D700C005D234
:1024E000004006CD00D006C8008007C3003008BEFB
:1024F00000F008B900C009B400B00AAF00B00BAAE0
:1025000000D00CA500000EA000500F9B00C010963C
:10251000005012910000148C00C0158700B0178283
:1025200000B0197D00D01B7800001E730040206EA3
:102530000090226900F024640040275F0090295A2F
:1025400000E02B5500102E500020304B001032467A
:1025500000E033410090353C0010373700703832CE
:1025600000A0392D00B03A2800A03B2300603C1E9B
:1025700000103D1900903D1400103E0F00703E0AFF
:1025800000C03E0500003F0000403FFBFF803FF6DB
:10259000FFC03FF1FF6F70656E00545249474745D9
:1025A000524544007A5F6D696E00795F6D696E0017
:1025B000785F6D696E005265706F7274696E672026
:1025C000656E6473746F70207374617475730A0040
:1025D0005761726E696E673A20486F6D696E672049
:1025E00042756D702044697669736F72203C2031AA
:1025F0000A000202040000A0400000A04000000009
:1026000040206D61783A2000206D696E3A200043C9
:1026100061703A00526573656E643A20004520256A
:10262000530023646566696E652044454641554CF8
:10263000545F004B6420004B6920004B7020005019
:102640004944204175746F74756E652066696E69C2
:1026500073686564212050757420746865206C610E
:102660007374204B702C204B6920616E64204B6486
:1026700020636F6E7374616E74732066726F6D2069
:1026800062656C6F7720696E746F20436F6E666948
:102690006775726174696F6E2E680A005049442034
:1026A0004175746F74756E65206661696C6564212F
:1026B0002074696D656F75740A000A20436C61733C
:1026C00073696320504944200A00204B643A20007B
:1026D000204B693A2000204B703A20000A204E6FB0
:1026E000206F76657273686F6F740A002054753AB4
:1026F0002000204B753A200020643A2000206269B7
:1027000061733A2000504944204175746F74756EAE
:10271000652073746172740A0050494420417574D5
:102720006F74756E65206661696C656421205465FF
:102730006D706572617475726520746F6F20686961
:1027400067680A00504944204175746F74756E655E
:10275000206661696C65642120426164206578743B
:102760007275646572206E756D6265720A00000094
:102770002100240027002A00000022002500280054
:102780002B00000020002300260029000202020284
:102790000202020204040404040404040303030305
:1027A0000303030301010101010101010102040806
:1027B000102040800102040810204080010204081B
:1027C0001020408080402010080402010000000119
:1027D0000200090A000000000403080700000000CE
:1027E0000000000000000000000000004D6F766552
:1027F0002025736D6D004D6F766520302E316D6D27
:10280000004D6F766520316D6D004D6F766520311E
:10281000306D6D004D6F7665204178697300486FAB
:1028200074656E6420746F6F20636F6C640045780C
:10283000747275646572004D6F7665205A004D6F35
:1028400076652059004D6F7665205800456E636CA3
:102850006F73757265004572726F7220777269745A
:10286000696E6720746F20454550524F4D210A0014
:102870000F150E1216170E1303021A1401000E0D77
:10288000FF180C040C1900014573746570732F6DEB
:102890006D005A73746570732F6D6D005973746594
:1028A00070732F6D6D005873746570732F6D6D00AC
:1028B00053746570732F6D6D004E65787420436F8F
:1028C000726E657200446F6E65004E6578740048E4
:1028D0006F6D696E672058595A005A2056616C75A1
:1028E0006500496E646578205900496E64657820FA
:1028F00058002062797465733B2063726320004E38
:102900006F20454550524F4D2E0A00454550524FBD
:102910004D206461746173697A65206572726F72AB
:102920002E0A002073746F72656420736574746975
:102930006E6773207265747269657665642028001D
:10294000202863616C63756C6174656429210A00D9
:1029500020213D2000454550524F4D2043524320F9
:102960006D69736D61746368202D202873746F72B4
:1029700065642920002053697A653A2000496E6415
:1029800065783A2000204D61726C696E3D56383092
:10299000290A00454550524F4D2076657273696F84
:1029A0006E206D69736D61746368202845455052CF
:1029B0004F4D3D003F2856296572626F7365206C4C
:1029C0006576656C20696D706C61757369626C65A4
:1029D0002028302D34292E0A0044657669617469F7
:1029E0006F6E0025533A202573005374616E646145
:1029F000726420446576696174696F6E3A200020C4
:102A000052616E67653A20004D65616E3A2000465E
:102A1000696E6973686564210A002072616E67657A
:102A20003A2000207369676D613A2000206D65616E
:102A30006E3A20003A207A3A2000206F6620004744
:102A40006F696E6720746F3A20580043570A002060
:102A50006469723A0020616E676C653A0053746174
:102A60007274207261646975733A004D3438205075
:102A70006F696E740025533A2025642F2564005039
:102A80006F736974696F6E696E6720746865207012
:102A9000726F62652E2E2E0A003F4E756D62657252
:102AA000206F66206C65677320696E206D6F766598
:102AB0006D656E74206E6F7420706C6175736962E1
:102AC0006C652028302D3135292E0A003F202858EA
:102AD0002C5929206F7574206F6620626F756E64A3
:102AE000732E0A003F53616D706C652073697A65BF
:102AF000206E6F7420706C61757369626C6520283C
:102B0000342D3530292E0A004D3438205A2D50727C
:102B10006F6265205265706561746162696C697489
:102B20007920546573740A00204D393220580049C9
:102B30006E76616C69642050696E204D6F64650A21
:102B40000020496E76616C696420657874727564E2
:102B500065722000446966663A2020200046726F44
:102B60006D5374703A00537465707065723A005515
:102B70006E4C6576656C3A004C6576656C65643ABA
:102B8000005261773A20202020000A4C6F67696369
:102B9000616C3A00436F756E7420453A0020436FB4
:102BA000756E7420583A004D313036205000453152
:102BB00000626564002C2073797374656D207374F2
:102BC0006F7070656421204865617465725F494467
:102BD0003A200048656174696E67204661696C65DA
:102BE000640048656174696E67206661696C65643C
:102BF000004D3131322053687574646F776E004830
:102C0000617264636F6465642044656661756C74A9
:102C10002053657474696E6773204C6F61646564DA
:102C20000A003B200020204D3835312058005A2D15
:102C300050726F6265204F66667365740020204D88
:102C400033303420500020440020204D33303120D8
:102C500050005049442073657474696E67733A007C
:102C600020460020480020204D3134352053004DAF
:102C70006174657269616C2068656174757020703B
:102C80006172616D65746572733A00204A0020209C
:102C9000473239205720490020204D34323020530C
:102CA000004175746F20426564204C6576656C69DF
:102CB0006E673A0020204D323036205800486F6D44
:102CC00065206F66667365743A0020204D3230359A
:102CD000204200416476616E6365643A20423C6D37
:102CE000696E5F7365676D656E745F74696D655F4E
:102CF00075733E20533C6D696E5F666565647261F5
:102D000074653E20543C6D696E5F74726176656CCB
:102D10005F66656564726174653E20583C6D6178DC
:102D20005F785F6A65726B3E20593C6D61785F79B0
:102D30005F6A65726B3E205A3C6D61785F7A5F6AAC
:102D400065726B3E20453C6D61785F655F6A6572B8
:102D50006B3E0020204D32303420500041636365CB
:102D60006C65726174696F6E2028756E6974732F5B
:102D70007332293A20503C7072696E745F616363EC
:102D8000656C3E20523C726574726163745F61636E
:102D900063656C3E20543C74726176656C5F616360
:102DA00063656C3E0020204D3230312058004D616B
:102DB00078696D756D20416363656C6572617469D6
:102DC0006F6E2028756E6974732F7332293A002054
:102DD000450020204D3230332058004D6178696D18
:102DE000756D206665656472617465732028756E03
:102DF0006974732F73293A0053746570732070657A
:102E00007220756E69743A0020204D3134392043A8
:102E1000203B20556E69747320696E2043656C7386
:102E20006975730A0020286D6D2900202047323112
:102E3000202020203B20556E69747320696E206D20
:102E40006D00486F6D696E67204661696C6564004E
:102E50000000FA430000FA430000A0400000C8410F
:102E60000000A0420000A0420000C8430000D3427E
:102E7000F4010000F4010000640000008813000069
:102E8000205A3A200020593A200042656420583ADE
:102E900020005072696E7420506175736564005033
:102EA000726F62696E67204661696C65640A0050E2
:102EB000726F62696E67204661696C656400486F75
:102EC0006D65202573257325732046697273740020
:102ED000220A00556E6B6E6F776E20636F6D6D61A9
:102EE0006E643A2022004C756379205265616479E2
:102EF0002E005072696E74696E672E2E2E0014E4D7
:102F000011241FBECFEFD0E4DEBFCDBF11E0A0E0A3
:102F1000B1E0E0E8F7EE01E00BBF02C007900D92D0
:102F2000A63FB107D9F720E1A6EFB1E001C01D929D
:102F3000A134B207E1F717E1C0E8D7E104C0219757
:102F4000FE010E94D7F0CF37D107C9F70E94F2DE09
:102F50000C94BEF30C940000A2E3B0E0E2EBF7E1C6
:102F60000C94E0F0209139032AA781E08093390383
:102F7000809138038D3409F4D7C3843511F40C944F
:102F8000B827873411F00C94D327809136039091A1
:102F900037038C31910509F435C18CF484309105E7
:102FA00009F4D2C01CF4029738F1BAC385319105F7
:102FB00011F40C94D5274B9709F404C1B1C38A329C
:102FC000910509F486C244F48D31910509F42AC1B2
:102FD0004E9709F43BC1A4C38B35910509F4F6C1A2
:102FE0008C35910509F4F7C18A35910509F098C32C
:102FF000109235030C94D52780913403813011F061
:103000000C94D52714E2C12E13E0D12E8AE3E82ECA
:1030100084E0F82E9CE0A92E90E1B92E10E088E51E
:10302000810F0E946A3B882319F10E946E392B019F
:103030003C01812F0E9472CC882351F0D7012D9141
:103040003D914D915C91C301B2010E9418F109C0FC
:10305000F5012081318142815381C301B2010E9477
:1030600017F1D6016D937D938D939C9313970AC0AE
:10307000F70180819181A281B381F60180839183E0
:10308000A283B3831F5FF4E0CF0ED11C24E0E20ED5
:10309000F11C34E0A30EB11C133009F685E40E9444
:1030A0006A3B882301F10E946E396B017C0183E049
:1030B0000E9472CC882371F020914604309147041D
:1030C0004091480450914904C701B6010E9418F18B
:1030D0006B017C01C0923003D0923103E092320345
:1030E000F092330310C08091460490914704A09160
:1030F0004804B09149048093300390933103A09326
:103100003203B093330340E050E0BA0186E40E94FA
:1031100099A020E030E0A9010E94B7F2181684F4CB
:103120000E946E3920E030E040E752E40E9492F1C4
:1031300060936E0170936F018093700190937101A1
:103140000E943D990C94D52780E50E946A3B882314
:1031500029F00E9487CD6B017C0103C0C12CD12CCA
:10316000760183E50E946A3B882361F00E946E39F4
:1031700020E030E04AE754E40E9470EA0E94FFF148
:103180006B017C010E947D6A8091CF02811105C094
:1031900060E085E597E00E94F58C0E94FC6FC60E0A
:1031A000D71EE81EF91E0E94FC6FDC01CB018C19B2
:1031B0009D09AE09BF09B7FD02C00C94D5270E9436
:1031C0003B4EF1CF0E9450D981110C94D5278CE051
:1031D000E8E7F1E0DE01119601900D928A95E1F7A2
:1031E00080E50E946A3B882321F00E943B39CB0195
:1031F00002C080E090E0BE016F5F7F4F0E94378C7D
:103200000C94D5278091CE028770873011F00C94F2
:10321000E82760E08FE40E948C3B81110C94D52755
:103220000C94E8270E9450D981110C94D5278091E5
:10323000CD02882311F40C940C2A60E08FE40E94E4
:103240008C3B81110C94D5270C940C2A20911810DA
:103250003091191040911A1050911B1060913A044E
:1032600070913B0480913C0490913D040E9418F1C0
:10327000AB01BC0188E50E9499A069837A838B83A6
:103280009C8320911C1030911D1040911E10509174
:103290001F1060913E0470913F0480914004909112
:1032A00041040E9418F1AB01BC0189E50E9499A07C
:1032B0006D837E838F839887BE016B5F7F4FCE01C6
:1032C00001960E948C37882311F40C94D52780E056
:1032D0000E94464A0E94A59C61E085E40E948C3BC6
:1032E00021E0482FBE016B5F7F4FCE0101960E9407
:1032F000EED96B017C019B01AC010E9434F381117A
:103300005FC089809A80AB80BC8020E030E0A9015A
:10331000C501B4010E940BEA87FF05C027E137EB26
:1033200041E558EB04C027E137EB41E558E3C5011F
:10333000B4010E9418F1AB01BC018AE89EE20E9430
:10334000944D8D809E80AF80B88420E030E0A9014C
:10335000C501B4010E940BEA87FF05C027E137EBE6
:1033600041E558EB04C027E137EB41E558E3C501DF
:10337000B4010E9418F1AB01BC0185E89EE20E94F5
:10338000944D20E030E0A901C701B6010E940BEA8C
:1033900087FF05C067E177EB81E598EB04C067E143
:1033A00077EB81E598E3A70196010E9418F1AB0144
:1033B000BC0180E89EE20E94944D8AE00E94E6B73C
:1033C0000E948C9C0E94D09F0C94D5278FE0809304
:1033D00035030C94D527E3ED2E2EE1E03E2EFFEBD6
:1033E000EF2EF2E0FF2EAAE3B4E0BF8FAE8FACE089
:1033F000CA2EA0E1DA2E00E010E0F10181911F0158
:103400000E946A3B882309F44AC00E946E392B014E
:103410003C01133049F0D6012D913D914D915C91C5
:103420000E9417F12B013C01EE8DFF8D208131812F
:1034300042815381C301B2010E9417F14B015C012B
:103440002DEB37E346E855EB0E94B7F287FD0AC043
:103450002DEB37E346E855E3C501B4010E940BEAC2
:103460001816ECF4133051F440924604509247047D
:10347000609248047092490401E011C0A5019401D2
:10348000D7016D917D918D919C910E9418F1F7016A
:103490006083718382839383812F0E940A991F5FC7
:1034A000F4E0EF0EF11C2E8D3F8D2C5F3F4F3F8FD0
:1034B0002E8F34E0C30ED11C143009F09ECF0023B0
:1034C00021F086E494E00E94386E0E94D09F0C9414
:1034D000D52780913403813011F00C94D52789E4ED
:1034E0000E946A3BE82E882321F00E946B39082F46
:1034F00001C000E08AE40E946A3BF82E882321F094
:103500000E946B39182F01C010E0EE2011F0053039
:1035100020F4FF2041F0153030F08CEF96E00E944F
:10352000FB4C0C94D52780E1EAE3F4E0A4E2B3E09D
:1035300001900D928A95E1F7EE2019F1602F000FAE
:10354000770B880B990B0E9411EA2091AF02309102
:10355000B0024091B1025091B2020E9470EA2091F3
:10356000B7023091B8024091B9025091BA020E945C
:1035700018F160932403709325038093260390939E
:103580002703FF2019F1612F110F770B880B990B7F
:103590000E9411EA2091B3023091B4024091B50229
:1035A0005091B6020E9470EA2091BB023091BC0299
:1035B0004091BD025091BE020E9418F16093280311
:1035C0007093290380932A0390932B0360E080E596
:1035D0000E948C3B8823C1F1EE20D1F0209118107D
:1035E0003091191040911A1050911B1060912403D2
:1035F0007091250380912603909127030E9417F173
:1036000060932403709325038093260390932703EC
:10361000FF20D1F020911C1030911D1040911E1000
:1036200050911F10609128037091290380912A0303
:1036300090912B030E9417F1609328037093290344
:1036400080932A0390932B0340E050E0BA0186E474
:103650000E9499A06B017C0120E030E0A9010E944A
:10366000B7F218165CF420E030E040E752E4C701FE
:10367000B6010E9492F16B017C0103C0C12CD12CD8
:10368000760180906E0190906F01A0907001B090D3
:10369000710120E030E0A901C701B6010E940BEAE8
:1036A000882341F0C0926E01D0926F01E0927001C8
:1036B000F0927101009121011091220184E690E0C5
:1036C0009093220180932101C0903A01D0903B0158
:1036D000E0903C01F0903D0180E090E0A0E8BFE385
:1036E00080933A0190933B01A0933C01B0933D013C
:1036F0000E943D9980926E0190926F01A09270019C
:10370000B09271011093220100932101C0923A01FD
:10371000D0923B01E0923C01F0923D010C94D52700
:103720000E9442D90C94D52780913603909137039B
:103730008937910509F40DC60CF09BC08C359105B5
:1037400009F4A0C40CF04AC08934910509F484C27C
:10375000FCF48231910509F445C46CF497FF02C072
:103760000C94B527823091050CF444C1419709F4BB
:10377000A1C10C94B5278A32910509F465C2803342
:10378000910509F465C24F9711F00C94B527AFC1AC
:103790008135910509F404C48CF48C34910509F445
:1037A0008DC28D34910509F49EC28B34910511F0C0
:1037B0000C94B5270E9458B50C94D52783359105F4
:1037C00009F409C40CF400C48435910509F40AC451
:1037D0008535910509F433C40C94B5278F369105CE
:1037E00009F405C3CCF48B36910509F4E3C264F403
:1037F0008936910509F4A3C20CF0B5C2883691054B
:1038000009F475C20C94B5278D36910509F493C25D
:103810000CF0DAC20C94D5278337910509F4D0C493
:103820005CF48137910509F42DC314F40C94D52769
:103830000E9495CA0C94D5278637910509F44CC58A
:1038400034F48537910509F433C50C94B5278737CF
:10385000910509F47BC58837910511F00C94B527C3
:1038600081E08093CC028093CB020E9490A00C94C4
:10387000D5278E3241E0940711F40C942D260CF0DC
:1038800055C08D3C910509F43FC6FCF48E3B910573
:1038900009F449C374F48139910509F461C58B3980
:1038A000910509F455C38C38910511F00C94B52796
:1038B00013C38B3C910509F4D4C50CF0F1C5893CC8
:1038C000910509F4A8C50C94B5278D3D910509F41F
:1038D00035C79CF4833D910509F443C68C3D9105A1
:1038E00009F405C78E3C910511F00C94B52710E63C
:1038F000E12E12E0F12E10E022C68831A1E09A07F5
:1039000009F4B0C734F4823E910509F461C70C9400
:10391000B5278232E1E09E0711F40C94C9248D3260
:10392000914011F40C943A250C94B527853A21E086
:10393000920711F40C94812684F5813941E09407B3
:1039400011F40C94742694F48033A1E09A0711F4D6
:103950000C94BA2514F40C9471268039914011F01E
:103960000C94B5270E947D6A0C94D5278A39F1E022
:103970009F0711F40C94D527843A21E0920711F4A3
:103980000C947E268239914011F00C94B5270E9448
:1039900083370E94D09F0C94D527863F41E094073F
:1039A00011F40C94592784F4843FA1E09A0711F490
:1039B0000C94532714F00C9456278C3A914011F430
:1039C0000C94F7260C94B527883FF1E09F0711F47B
:1039D0000C94652714F40C945C27833533E093072B
:1039E00011F40C947627873E934011F40C94A7278A
:1039F0000C94B52780E50E946A3B882329F00E9439
:103A000087CD6B017C0103C0C12CD12C760183E5ED
:103A10000E946A3B882361F00E946E3920E030E00A
:103A20004AE754E40E9470EA0E94FFF16B017C01B6
:103A30000E947D6A8091AD029091AE02009739F0AC
:103A400020912410211108C00E94C68C05C060E09E
:103A500089EE96E00E94F58C1091390383E0809303
:103A6000390381E08093AC02C114D104E104F10474
:103A700031F00E94FC6FC60ED71EE81EF91E809121
:103A8000AC02882311F40C94132AC114D104E1046C
:103A9000F10411F40C940F2A0E94FC6FDC01CB019D
:103AA0008C199D09AE09BF09B7FF02C00C940F2AFB
:103AB0000C94132A8091A80284FF02C00C941A2A45
:103AC0008091AA0287FF02C00C941A2A8091AB024F
:103AD000837011F00C941A2A60E080EE96E00E9448
:103AE000F58C5E985E9815985E980C94D5270E9488
:103AF0000B896B017C0120E831E541E050E00E9438
:103B000047F0C9016DE671E00E94B0F04B015C0125
:103B1000C701B60120E13EE040E050E00E9447F0DE
:103B2000CA01B90128E130E040E050E00E9447F0CE
:103B30002B013C011B01C701B6012CE330E040E042
:103B400050E00E9447F06B017C01CA01B9012CE3EF
:103B500030E040E050E00E9447F08E010F5F1F4FC1
:103B60008114910499F0DF92CF927F936F935F92CB
:103B70004F92BF92AF929F928F928FEB96E09F935E
:103B80008F931F930F930E94A5E913C0A114B10452
:103B9000B1F0DF92CF927F936F935F924F92BF927B
:103BA000AF9283EC96E09F938F931F930F930E94A5
:103BB000A5E90FB6F894DEBF0FBECDBF32C04114E9
:103BC000510479F0DF92CF927F936F935F924F927F
:103BD00087EC96E09F938F931F930F930E94A5E924
:103BE000E8CF6115710569F0DF92CF927F936F93F3
:103BF0008BEC96E09F938F931F930F930E94A5E900
:103C0000D8CFDF92CF928FEC96E09F938F931F9344
:103C10000F930E94A5E90F900F900F900F900F90B7
:103C20000F9080912410811103C0C8010E94C68C9E
:103C30000E94C24DB80183ED96E00E94B24D8AE029
:103C40000E94E6B70C94D5270E948FCC0C94D52700
:103C50000E94C9C30C94D52780E50E949A39882315
:103C6000A1F00E946E3920E030E048EC52E40E945E
:103C700070EA0E94FFF1603137E2730710F060E1F3
:103C800077E27093A3026093A20282E50E949A39C0
:103C9000882311F40C94D5270E9487CD9B01AC0199
:103CA000ACE3B0E00E9485F06093A4027093A5029B
:103CB0008093A6029093A7020C94D5278091281098
:103CC000813011F00C94D52782E0809328100E9457
:103CD000FC6F60939E0270939F028093A00290936A
:103CE000A1020C94D5270E945A890C94D527809163
:103CF000360A83FF02C00C94D5270E9449CC87FF67
:103D000002C00C94D52783E50E946A3B882379F092
:103D10000E946E390E94FAF1CB010E94FB930E942F
:103D20001E96811104C00E945A890E9431D90E94B6
:103D3000DA690C94D5270E94B4A50C94D5270E946B
:103D400049CC182F87FD0AC081EB92E00E94FB4C02
:103D5000812F0E940B948AE00E94E6B74AA5409307
:103D600039030C94D52D60E080E50E94823B8111DF
:103D70000C94D52781E40E949A39882329F0609118
:103D80007204062F10E002C00FEF10E083E50E94DE
:103D90006A3B882349F00E943B398B016F3F7105D4
:103DA00019F010F00FEF10E0B80180E00E94CBD3C3
:103DB0000C94D52760E080E50E94823B60E070E0D3
:103DC0000E94CBD30C94D5278EE40E946A3B8823B3
:103DD00011F40C94D5270E943B3960939A0270939A
:103DE0009B0280939C0290939D020C94D52783E5BF
:103DF0000E949A39882331F060E083E50E94823B7B
:103E00008093360A0E94C24D88EB96E00E94FB4CDC
:103E10008091360A882369F17AE6E72E77E0F72E5B
:103E200000E010E020E08091360A90E0A0E0B0E0F1
:103E3000002E04C0B695A795979587950A94D2F75A
:103E400080FF0EC0DD24D394D20E222319F08CE221
:103E50000E94E6B7F701859194910E94FB4C2D2DAD
:103E60000F5F1F4F52E0E50EF11C05301105D9F62A
:103E700004C084EB96E00E94FB4C8AE00E94E6B707
:103E80000C94D52783E50E946A3B882381F00E9429
:103E90004B39282F30E02D33310524F48093200155
:103EA0000C94D5278CE3809320010C94D5270E9495
:103EB000C24DC0902001D12CE12CF12C8DEA96E06E
:103EC0000E94FB4C4AE0C701B6010E94EDB78AE0B0
:103ED0000E94E6B70C94D5278091360A83FF02C072
:103EE0000C94D52783E50E946A3B882311F40C9437
:103EF000D5270E946E390E94FAF16337710514F0DC
:103F000063E770E070938C0260938B020E94829250
:103F10000E941E9681110C94D5270E945A890E94F6
:103F200031D90C94D5278091360A83FF02C00C94B6
:103F3000D52783E50E946A3B082F81110C942C2A17
:103F400082E50E946A3B81110C942C2A0C94D5279F
:103F500083E50E946A3B882311F40C94D5270E94C4
:103F60004B39182F90E0CD970CF01CE310937E0294
:103F70000E94FC6F6B017C01212F30E0A8EEB3E0C2
:103F80000E9495F0C60ED71EE81EF91EC0927A0256
:103F9000D0927B02E0927C02F0927D020C94D527B5
:103FA0000E9431960E945A890E948D6A0E948BCC91
:103FB00068EE73E080E090E00E94D64C60E085E817
:103FC00096E00E94F58CF1C7809135038F7D80616A
:103FD00080933503EAC7809135038F7E806280939A
:103FE0003503E3C783E50E946A3B882399F00E946A
:103FF0006E3920E030E04AE754E40E9470EA0E9403
:10400000FFF160931B0170931C0180931D0190933D
:104010001E01CBC78091A80284FF02C00C94A32B81
:104020008091AA0287FF02C00C94A32B8091AB025F
:10403000837011F00C94A32B0E948D6AB6C783E5A0
:104040000E949A39882309F4B0C70E94FC6F6093DC
:104050007F027093800280938102909382020E947B
:104060006E3920E030E04AE754E40E9470EA0E9492
:10407000FFF16093760270937702809378029093B9
:10408000790293C70E9449CC87FD8FC79091A802FF
:1040900094FD04C09091AA0297FF0AC043EDC42E7C
:1040A00041E0D42E57E3E52E5AE0F52E10E009C08A
:1040B0009091AB02937091F7682F81E00E944CCDF4
:1040C00074C7D6018D916D010E946A3B882309F463
:1040D0006DC0133009F063C00E946E394B015C0162
:1040E00020E030E040EA51E40E940BEA87FF4EC036
:1040F000A50194016091570A7091580A8091590A5C
:1041000090915A0A0E9492F12B013C019B01AC0153
:10411000609156047091570480915804909159040D
:104120000E9470EA60935604709357048093580479
:1041300090935904A30192016091670A7091680AF3
:104140008091690A90916A0A0E9470EA6093670AF6
:104150007093680A8093690A90936A0A6091660472
:104160007091670480916804909169040E940FEA3D
:10417000A30192010E9470EA0E94FFF1609366041D
:104180007093670480936804909369048092570A3F
:104190009092580AA092590AB0925A0A07C00E94F7
:1041A0006E39F701648B758B868B978B1F5FF4E0FC
:1041B000EF0EF11C143009F084CF0E945A6AF5C644
:1041C00080EB95E00E94FB4C60E080EA95E00E9465
:1041D00039A960E08BE895E00E9439A961E084EE9E
:1041E00093E20E9439A960E080E895E00E9439A935
:1041F00061E080E795E00E9439A960E087E695E0FC
:104200000E9439A961E08DE595E00E9439A961E03D
:1042100083E595E00E9439A961E08BE495E00E9476
:1042200039A961E08DE395E00E9439A961E08FE250
:1042300095E00E9439A960E080E295E00E9439A9EA
:1042400060E082E195E00E9439A960E08CEF94E0A3
:104250000E9439A961E08BEE94E00E9439A960E0E8
:104260008CED94E00E9439A960E085ED94E00E9415
:1042700039A960E080EC94E00E9439A960E082EB0B
:1042800094E00E9439A961E08FE994E00E9439A985
:1042900060E082E994E00E9439A961E085E894E059
:1042A0000E9439A960E081E794E00E9439A97DC6A7
:1042B0008091AD029091AE02009759F0DC012C91F3
:1042C000222339F02091241021116FC60E94C68C40
:1042D0006CC60E9431D969C60091AD021091AE0240
:1042E00094E0F12C40E0915021F1F8018081282FD9
:1042F0002B7F213421F421812133D9F407C080356B
:10430000C1F4818180538A3048F013C0813421F098
:10431000853421F441E002C0FF24F39498012E5F1C
:104320003F4F89012F5F3F4FF80180818032C9F3F1
:10433000DACF41110E94C24DFF2021F08DE694E0BA
:104340000E94FB4CC8010E94D7B82FC60E9441A012
:104350002CC61092CC021092CB020E9490A025C6CF
:1043600060E070E083E50E94763B8C01112702300B
:1043700011053CF00E94BF4D8BE494E00E94FB4C81
:1043800014C688E40E946A3B8823A9F00E946B3916
:104390008A3A91053CF08530F1E09F072CF084E0EB
:1043A00091E002C08AEA90E0F801EE0FFF1FEE589C
:1043B000FD4F9183808386E40E946A3B882381F0CD
:1043C0000E946B3997FD07C08F3F910529F024F0BB
:1043D0008FEF90E001C080E0F801E059FD4F80834D
:1043E00082E40E946A3B882309F4DFC50E946B398E
:1043F0008530910534F0843791052CF083E790E007
:1044000002C085E090E0000F111FF801E459FD4F54
:1044100091838083CAC50E9449CC87FDC6C583EDC0
:10442000E82E81E0F82E07E31AE097E4C92E9AE01F
:10443000D92ED7018D917D010E949A39882359F098
:104440000E946E390E94FFF1F801608371838283BC
:1044500093830E94196A0C5F1F4FC016D10649F75B
:10446000A4C50E9449CC87FDA0C503EDE02E01E064
:10447000F02E07E31AE0D7018D917D010E949A3951
:10448000882339F00E946E39F80164A375A386A3CE
:1044900097A30C5F1F4FFAE007341F0761F785C52C
:1044A0008091A90287FF02C00C94C82B8091AA02B8
:1044B0008E7011F00C94C82B40916B0A50916C0ACD
:1044C00060916D0A70916E0A8BE394E00E94944DA6
:1044D00040916F0A5091700A6091710A7091720A4E
:1044E00088E394E00E94944D4091730A5091740ABD
:1044F0006091750A7091760A85E394E00E94944D6C
:104500008AE00E94E6B751C58091A802827111F03D
:104510000C940E2C8091AA028C7811F00C940E2C25
:104520008091AB02837011F00C940E2C3EC51F5F7E
:10453000B4E0EB0EF11C133011F40C94651A88E50D
:10454000810F0E949A39882391F30E946E39D70116
:104550006D937D938D939C931397812F0E940A995D
:10456000E6CF40900C1050900D1060900E1070909F
:104570000F102091030130910401409105015091E9
:104580000601C301B2010E9418F16E8F7F8F88A3CC
:1045900099A38090101090901110A0901210B090DC
:1045A00013102091070130910801409109015091A9
:1045B0000A01C501B4010E9418F16AA37BA38CA370
:1045C0009DA3C0901410D0901510E0901610F0909C
:1045D000171020910B0130910C0140910D01509169
:1045E0000E01C701B6010E9418F16EA37FA388A730
:1045F00099A720910F013091100140911101509124
:104600001201C301B2010E9418F12B013C0120915B
:104610001301309114014091150150911601C5010B
:10462000B4010E9418F14B015C01209117013091F7
:1046300018014091190150911A01C701B6010E9459
:1046400018F16B017C010E94C24D83EF93E00E9440
:10465000FB4C83E50E949A39882321F00E945C3943
:104660008093020180910201882319F08FE999E17A
:1046700002C08CEA95E00E94FB4C8BEE93E00E9416
:10468000FB4C4E8D5F8D68A179A18BEA9DE20E9463
:10469000944D4AA15BA16CA17DA182E498E20E94A5
:1046A000944D4EA15FA168A579A58BE398E20E9485
:1046B000944D83E99AE10E94FB4C83EE93E00E94C3
:1046C000FB4CB301A2018BEA9DE20E94944DB5011F
:1046D000A40182E498E20E94944DB701A6018BE305
:1046E00098E20E94944D8AE00E94E6B75EC483E59A
:1046F0000E946A3B882331F00E946B39909322011B
:10470000809321018091A8029091A902A091AA0210
:10471000B091AB02892B8A2B8B2B09F046C4609198
:104720002101709122018FED93E00E94A54D85E259
:104730000E94E6B78AE00E94E6B737C40E9449CCDF
:10474000F82E87FD32C483E50E946A3B0F2D0F2CA3
:10475000000C110B882309F10E946B39F801EE0F50
:10476000FF1FE050FF4F91838083000F111F000F48
:10477000111F065C1E4FBC01990F880B990B0E94FC
:1047800011EA2AE037ED43E25CE30E9470EAF801A7
:10479000608371838283938308C40E94C24D85E441
:1047A0000E94E6B780E38F0D0E94E6B7000F111F4D
:1047B000F801E050FF4F6081718187ED93E00E9426
:1047C000A54D85E20E94E6B78AE00E94E6B7EDC3F8
:1047D00080E50E949A39882309F4E7C360E070E01D
:1047E00080E50E94763B8C016FEF7FEF83E50E94AE
:1047F000763B7C010196039708F0D7C307FDD5C32C
:10480000802F0E9496B5882339F00E94BF4D88EC16
:1048100093E00E94FB4CC9C30E947D6AD02E60E0E9
:10482000802F0E94BFABFFEFEF16FF0629F021E0BB
:10483000E216F10459F007C0802F0E946BAB01E033
:1048400010E0892B29F000E010E002C001E010E048
:104850008D2D0E946BAB8017910709F4A6C30E94AF
:104860003B4EF6CF80E50E949A39882309F49DC318
:104870000E946B398C01892B09F07FC083E50E946F
:104880009A39882389F00E946B398F3F3FEF930755
:1048900029F481E49EE00E94B6B587C3BC0181E49F
:1048A0009EE00E9450B681C30E94C24D60E070E05D
:1048B00080EC93E00E94A54D8091430E28E532E004
:1048C0006901C81AD10887FDD394CC0CDD1CCC0C2F
:1048D000DD1C0D2C000CEE08FF088091420E28E82C
:1048E00030E04901881A910887FD9394880C991C3F
:1048F000880C991C092C000CAA08BB088091410E59
:104900008F3FC1F090E0FC01EE0FFF1F8E0F9F1F45
:10491000FC01E45EF14F2181328143E0220F331F1D
:104920004A95E1F754E0369527955A95E1F72E5FC1
:104930003F4F02C020E030E02F5F3F4FC901330FEF
:10494000AA0BBB0B9C01AD01281939094A095B0967
:10495000A4EBB0E00E9485F0A7019601281939095F
:104960004A095B090E9469F0B90180ED9BE20E944F
:10497000A54D8AE00E94E6B718C30E94BF4DB8015A
:1049800081EC93E00E94A54D86E097E00E94FB4CED
:104990000CC38AE50E946A3B811106C083E50E9430
:1049A0006A3B882309F44BC00E946E3920E030E056
:1049B00040E050EC0E940BEA87FDADC70E946E39C3
:1049C00020E030E040E050E40E94B7F218160CF40A
:1049D0009CC70E946E396B017C0180910A108695FC
:1049E000869580FF22C02091530A3091540A40914D
:1049F000550A5091560AC701B6010E9470EA0E94FA
:104A0000FAF120915E0230915F02260F371F30933A
:104A10005F0220935E0220915C0230915D02620F82
:104A2000731F70935D0260935C0280E50E949A3967
:104A3000882309F476C70E945C39811172C780917E
:104A4000AA0287FD94C78091AB02837009F08FC7DB
:104A50000E94C24D4091201050912110609122106F
:104A60007091231081EB93E00E94944D8AE00E94A4
:104A7000E6B79BC260E085E40E94823B811173C06F
:104A800080E50E949A39882351F00E946E39609324
:104A9000100E7093110E8093120E9093130E89E4F2
:104AA0000E949A39882381F00E946E392CEA35ECF5
:104AB00047E25EE30E9470EA6093140E7093150E55
:104AC0008093160E9093170E84E40E949A398823DF
:104AD00081F00E946E392CEA35EC47E25EE30E94D9
:104AE00092F16093180E7093190E80931A0E9093A2
:104AF0001B0E0E94C24D4091100E5091110E6091FC
:104B0000120E7091130E8DEA93E00E94944D2CEAE0
:104B100035EC47E25EE36091140E7091150E8091C2
:104B2000160E9091170E0E9492F1AB01BC0189EA1A
:104B300093E00E94944D2CEA35EC47E25EE36091ED
:104B4000180E7091190E80911A0E90911B0E0E94F2
:104B500070EAAB01BC0185EA93E00E94944D8AE0C3
:104B60000E94E6B722C20E94BF4D83E993E00E94F3
:104B7000FB4C1BC280E50E949A39882351F00E94A9
:104B80006E3960938E0270938F028093900290939F
:104B9000910289E40E949A39882381F00E946E393B
:104BA0002CEA35EC47E25EE30E9470EA60939202E1
:104BB00070939302809394029093950284E40E94F0
:104BC0009A39882381F00E946E392CEA35EC47E24D
:104BD0005EE30E9492F16093960270939702809335
:104BE0009802909399020E94C24D40918E0250917A
:104BF0008F0260919002709191028DEA93E00E9481
:104C0000944D2CEA35EC47E25EE36091920270919C
:104C1000930280919402909195020E9492F1AB01CF
:104C2000BC0189EA93E00E94944D2CEA35EC47E2FE
:104C30005EE3609196027091970280919802909144
:104C400099020E9470EAAB01BC0185EA93E00E94E0
:104C5000944D8AE00E94E6B7A8C183E50E949A3984
:104C6000182F882371F00E946E390E94FAF1709318
:104C70003F0160933E0121E0672B09F020E0209383
:104C8000830480E50E949A39882359F020913E01DF
:104C900030913F01232B11F00E945C3980938304F3
:104CA00084C1111182C10E94C24D80E893E00E942C
:104CB000FB4C80918304882319F088E192E102C0C3
:104CC00087E693E00E94FB4C60913E0170913F01AA
:104CD0008FE693E00E94A54D8BE693E00E94FB4C8B
:104CE00064C10E94ADA061C180910B1081110C9430
:104CF000651A81E00E9418690C94651A0E94E339D4
:104D000054C16FEF7FEF89E40E94763B8C016FEF17
:104D10007FEF8AE40E94763B7C018AE50E946A3B31
:104D2000811108C081E50E946A3BD82E882309F4CE
:104D300024C601C0D12CC02E81E0800F863008F03F
:104D40004FC0BE2C81E08E0D863008F049C0102F78
:104D50000E946E392B013C01A02E07FDA12C17FFEC
:104D600002C0A4E0CA2E8E2DE7FCE12C87FF02C012
:104D7000F4E0BF2EE5E03E2ECA1408F416C1FE2C66
:104D80003A9C40011124BF1448F10F2D10E0DD20A2
:104D900071F0F401E00FF11FEE0FFF1FEE0FFF1F88
:104DA000E850FE4F208131814281538103C020E0D1
:104DB00030E0A901080D191D000F111F000F111F70
:104DC00008501E4FC301B2010E9418F1D8016D9323
:104DD0007D938D939C931397F394D5CFA394CCCFCD
:104DE0000E94BF4D8CEF96E00E94FB4CDEC00E94FB
:104DF00050D98111DAC00EE517E0EAE3F4E0FF8F45
:104E0000EE8F9E012F5F3F4F19019CE8C92E97E05E
:104E1000D92E7901C8010E9441C8AE8DBF8D8D90F9
:104E20009D90AD90BD90BF8FAE8FA50194010E9463
:104E300017F12B013C01F701608371838283938317
:104E400020E030E040EA51EC0E94B7F287FD0AC052
:104E500020E030E040EA51E4C301B2010E940BEAD5
:104E600018162CF4F601849118160CF48DC5D70190
:104E70008D909D90AD90BD907D0120E030E040EAA6
:104E800051ECC501B4010E94B7F287FD88C520E04E
:104E900030E040EA51E4C501B4010E940BEA181663
:104EA0000CF08BC57CC50E942E8D7FC00E9412D64F
:104EB0007CC00E94B7D479C061E083E50E948C3B3E
:104EC00091E089270E9420D670C081E08093F7018D
:104ED0000E94E0BD1092F701882309F466C00E9489
:104EE000C24D80E093E00E94FB4C5FC08091AA021B
:104EF00087FD8DC58091AB02837009F088C5409114
:104F000018105091191060911A1070911B1081EFB8
:104F100092E00E94944D40911C1050911D106091A0
:104F20001E1070911F1082E498E20E94944D4091EF
:104F300020105091211060912210709123108BE36A
:104F400098E20E94944D8AE00E94E6B72EC081E06C
:104F5000809334031092241060E083E50E948C3B20
:104F6000811123C00E9478A720C00E9442D91DC091
:104F700000913603109137030023B9F00E94C24D0F
:104F800084E50E94E6B7B8017727072E000C880B4E
:104F9000990B0E9447B880E20E94E6B783E993E04C
:104FA0000E94FB4C02C00E9442D9E091F601F0E061
:104FB000E355F14F8081882339F081EB92E00E9424
:104FC000FB4C8AE00E94E6B73AA530933903EDC561
:104FD0000E947D6A3090CD0280E00E94464A0E9485
:104FE000A59C81E08093CC020E9490A08AE50E945B
:104FF0009A39082F8823A1F081E00E942A99F82E7F
:1050000082E00E942A9911E0811101C010E0F110A4
:10501000C7C588E50E949A39F82E811103C0EBC1FB
:1050200010E0F7CF111107C089E50E949A39182FB7
:105030008F1107C01F2D0113E1C111E0FF24F3946C
:1050400001E080E1EAE3F4E0A4E2B3E001900D9234
:105050008A95E1F782E50E946A3B882361F00E940D
:105060006E394B015C0120E030E0A9010E940BEA9F
:105070008823D1F106C0812C912CB0EAAB2EB0E48C
:10508000BB2E80910A1082FD09C02091420430910C
:105090004304409144045091450403C020E030E0B3
:1050A000A901C501B4010E9418F160932C0370930B
:1050B0002D0380932E0390932F032091420430916F
:1050C000430440914404509145040E94B7F21816DD
:1050D0005CF419821A821B821C82BE016F5F7F4FB3
:1050E0008CE293E00E948D9DFF2009F4C8C011233B
:1050F00009F4C2C010923A0410923B0410923C048E
:1051000010923D0410923E0410923F04109240040D
:10511000109241040E94409EECE8F7E0249080E861
:1051200097E00E9441C84B015C0184E897E00E942F
:1051300041C82B013C019B01AC01C501B4010E9497
:10514000B7F218162CF4A5019401C301B20104C0F2
:10515000A3019201C501B4010E9492F16E8F7F8F6D
:1051600088A399A3E8E7F7E085919591A591B4917B
:105170008AA39BA3ACA3BDA3E4E7F7E0C590D590B9
:10518000E590F490A7019601BC01CD010E94B7F211
:10519000181624F0CAA0DBA0ECA0FDA02E8D3F8D38
:1051A00048A159A1CA01B9010E9470EA20E030E08B
:1051B00040E85FE30E9418F10E94F6F2A701960111
:1051C0000E9470EA6A8F7B8F8C8F9D8FEDE8F7E0ED
:1051D000F49020E030E040EC5FE3C301B2010E94B4
:1051E00070EA2B013C016F2DFF0C770B880B990B9C
:1051F0000E9411EA9B01AC01C301B2010E9470EA56
:1052000069837A838B839C8320E030E040EC5FE30A
:10521000C501B4010E9470EA6B017C01622D022C71
:10522000000C770B880B990B0E9411EA9B01AC01D3
:10523000C701B6010E9470EA6E8B7F8B888F998FB1
:10524000AE01465E5F4FBE016F5F7F4FCE01469657
:105250000E946C9D0E9481D410923A0410923B04EB
:1052600010923C0410923D0410923E0410923F04B0
:10527000109240041092410480E00E94429E11234B
:1052800019F081E00E94429E002309F4A3C080E04F
:105290000E94583C80910A108370833051F060E086
:1052A00087E497E00E94F58C0E94C24D88E397E066
:1052B000B0C00E94409E40904204509043046090D1
:1052C00044047090450420911810309119104091B9
:1052D0001A1050911B1060E070E08AEE92E40E9478
:1052E00017F16B017C016093240370932503809375
:1052F00026039093270320911C1030911D1040919C
:105300001E1050911F1060E070E08AEE92E40E943F
:1053100017F14B015C01609328037093290380937C
:105320002A0390932B03209120103091211040915B
:10533000221050912310C301B2010E9417F1609313
:105340002C0370932D0380932E0390932F0327E15A
:1053500037EB41ED58EBC501B4010E94B7F287FD70
:105360004FC027E030E04BE653E4C501B4010E9492
:105370000BEA18160CF444C027E137EB41ED58EB6B
:10538000C701B6010E94B7F287FD3AC027E030E0BE
:105390004BE653E4C701B6010E940BEA181684F1EC
:1053A0001E8A1F8A188E198E88E0E4E2F3E0DE017F
:1053B000119601900D928A95E1F7AE014A5E5F4F1A
:1053C000BE016B5F7F4FCE0101960E946C9D82E013
:1053D0000E94429E0E94409E8091CB028093CC020C
:1053E000832D0E94464A0E948C9C83E08093230177
:1053F0000E94D09FDACD111124CE16CEF12E21CEEF
:1054000060E087E297E00E94F58C0E94C24D85E142
:1054100097E00E94FB4CDECF0E94143DC6CD0E9457
:105420003B4E0C943F1D1092AC02109339030E9426
:1054300031D9BBCD88E50E949A3981115E9889E502
:105440000E949A3981115E988AE50E949A398823D0
:1054500009F4ABCD1598A9CD0E946E390E94FAF1DE
:10546000633771050CF06CC170938C0260938B02F2
:105470000E9482920E941E9681110E9458B56091EE
:105480008B0270918C02072E000C880B990B0E94E6
:1054900011EA20918702309188024091890250914F
:1054A0008A020E94B7F218161CF48EE996E002C038
:1054B0008FE896E060E00E94F58C81E080931F0108
:1054C0001EA21FA218A619A61BA61CA61DA61EA6D4
:1054D00010E080E09CE3ACE1B6E48FA798ABA9AB09
:1054E000BAABC12CD12C60E8E62E6FEBF62E33243C
:1054F0003394412C512C320160918B0270918C02BB
:10550000072E000C880B990B0E9411EA4B015C01DD
:10551000A70196010E940BEA8823F9F020918702E7
:10552000309188024091890250918A02C501B401EC
:10553000011107C00E940BEA182F111F1127111F1C
:1055400010C00E940BEA87FF0BC080911F018823C7
:1055500009F42BCD0E9431D928CD4601570101C055
:1055600010E00E94FC6F6B017C01DC01CB012BA5DC
:105570003CA54DA55EA5821B930BA40BB50BB7FDF7
:1055800033C0D701C60188519C4FAF4FBF4F8BA787
:105590009CA7ADA7BEA780E00E940B9487E892E08D
:1055A0000E94FB4C4114510461047104B9F0D30111
:1055B000C201805F984DAF4FBF4FBC01CD016C1948
:1055C0007D098E099F0928EE33E040E050E00E94FB
:1055D00047F0CA01B9010E9447B803C08FE30E9497
:1055E000E6B78AE00E94E6B70E943B4E0E94FC6F3D
:1055F00060937F0270938002809381029093820275
:1056000020918702309188024091890250918A024C
:105610002AA33BA34CA35DA3C501B4010E9417F1CB
:105620006E8F7F8F88A399A320E030E0A9010E94AC
:10563000B7F287FF09C08E8D9F8DA8A1B9A1B05880
:105640008E8F9F8FA8A3B9A34114510461047104E4
:10565000B9F420E030E040E85FE36E8D7F8D88A1F3
:1056600099A10E940BEA87FF19C026013701332058
:10567000A9F090E1490E97E2591E611C711C0EC001
:1056800020E030E040E450E46E8D7F8D88A199A148
:105690000E94B7F2181614F4260137011123A9F15C
:1056A0002EA13FA148A559A5211531054105510558
:1056B00041F0D701C601821B930BA40BB50BB7FDBC
:1056C00024C02AA13BA14CA15DA16FA578A989A9FD
:1056D0009AA90E9417F120E030E040E85FE30E94C1
:1056E0000BEA87FD32CFD701C601805A9541AF4FF3
:1056F000BF4F8EA39FA3A8A7B9A72AA13BA14CA1E6
:105700005DA12FA738AB49AB5AAB80911F0188230D
:1057100009F41BCF411451046104710421F4312CAC
:1057200075016401E9CE30E1C31A37E2D30AE1081A
:10573000F108C418D508E608F708F7FCF0CF05CF44
:1057400063E770E091CE0E947D6A88E50E949A39F5
:10575000882331F05E9A80910A108E7F80930A1020
:1057600089E50E949A39882331F05E9A80910A1067
:105770008D7F80930A108AE50E949A39882309F464
:1057800014CC159A80910A108B7F80930A100DCC4F
:1057900083E50E946A3B882391F00E946E396093F2
:1057A0006B0A70936C0A80936D0A90936E0A6093F3
:1057B000730A7093740A8093750A9093760A80E551
:1057C0000E946A3B882351F00E946E3960936B0AF5
:1057D00070936C0A80936D0A90936E0A82E50E9422
:1057E0006A3B882351F00E946E3960936F0A709370
:1057F000700A8093710A9093720A84E50E946A3B52
:10580000882309F4D2CB0E946E396093730A709397
:10581000740A8093750A9093760AC7CB82E40E943B
:105820009A39882351F00E9487CD6093470A70937C
:10583000480A8093490A90934A0A83E50E949A395C
:10584000882351F00E946E396093770A7093780A2A
:105850008093790A90937A0A84E50E949A39882382
:1058600051F00E946E3960937B0A70937C0A80939A
:105870007D0A90937E0A88E50E949A39882351F028
:105880000E946E3960934A0470934B0480934C04D9
:1058900090934D0489E50E949A39882351F00E9423
:1058A0006E3960934E0470934F048093500490932C
:1058B00051048AE50E949A398823B1F00E946E391A
:1058C000609352047093530480935404909355044E
:1058D0002DEC3CEC4CEC5DE30E940BEA181624F036
:1058E00083E094E00E94FB4C85E40E949A3988236F
:1058F00009F45BCB0E946E39609356047093570491
:10590000809358049093590450CBC12CD12CE12C96
:1059100080E4F82E62C8C12CD12CE12CB0ECFB2E17
:105920005CC8A701960160912010709121108091B0
:105930002210909123100E9418F160932010709310
:10594000211080932210909323100E94C24D409109
:10595000201050912110609122107091231081EB42
:1059600093E00E94944D8AE00E94E6B768C882E501
:105970000E949A3981116CC818CB0E94BF4D87E4F0
:1059800093E00E94FB4C11CBB7FAB094B7F8B094F7
:10599000D7018D929D92AD92BC92139768CA0E94D6
:1059A000BF4D89E293E00E94FB4C61E08BE193E004
:1059B0000E94F58C0E947BB0F8CA0C5F1F4FBFEFAE
:1059C000CB1ADB0AEAE6F7E0E017F10709F022CA92
:1059D00080E6E82E82E0F82E10E0F10181919191AD
:1059E000A191B1911F01F70181939193A193B1937B
:1059F0007F01812F0E940A991F5F133071F70E9467
:105A0000D09F60E08BE093E00E94F58CCECA20919D
:105A100018103091191040911A1050911B102E8FB0
:105A20003F8F48A359A340901C1050901D106090C8
:105A30001E1070901F10C0902010D0902110E09088
:105A40002210F090231088E50E946A3B882361F1C0
:105A50000E946E394B015C0120E030E04BE653ECD4
:105A60000E94B7F287FD0AC020E030E04BE653E425
:105A7000C501B4010E940BEA181694F46BEE70E0B5
:105A80008EED92E00E94A54D6BEE70E089ED92E004
:105A90000E94A54D80E999E20E94FB4C10E005C0F0
:105AA0008E8E9F8EA8A2B9A211E089E50E946A3B62
:105AB000882351F10E946E394B015C0120E030E0F7
:105AC0004BE653EC0E94B7F287FD0AC020E030E0BD
:105AD0004BE653E4C501B4010E940BEA181694F496
