:100000000C9455160C947F160C947F160C947F1646
:100010000C94CED20C94CED20C94CED20C94CED2E0
:100020000C947F160C947F160C947F160C947F16FC
:100030000C947F160C94683E0C947F160C947F16DB
:100040000C947F160C9423990C943F7F0C947F168C
:100050000C941D330C9413330C947F160C947F1660
:100060000C947F160C947F160C947F160C947F16BC
:100070000C947F160C947F160C947F160C947F16AC
:100080000C94B32D0C947F160C947F164F335F3372
:1000900070337B3383339A3387339A338B338F3385
:1000A0009A33953397A99CA9A1A9ABA9D9A9D9A994
:1000B000B5A9BDA9C5A9CFA9C0AEC3AEB6AEBAAEEB
:1000C000DAAEDAAEC7AECBAED1AED5AECCCB8ACA45
:1000D000BDCA08CCBDCABDCABDCABDCABDCABDCA9B
:1000E000BDCABDCABDCABDCABDCABDCABDCABDCAD8
:1000F000BDCABDCABDCABDCABDCABDCABDCABDCAC8
:10010000BDCABDCABDCABDCA02CCBDCABDCABDCA70
:10011000BDCABDCABDCABDCABDCADBCBBDCABDCA88
:10012000BDCABDCABDCABDCABDCABDCABDCABDCA97
:100130001FCCBACA05A84CCDB2D44EB93836A902E4
:100140000C50B9918688083CA6AAAA2ABE000000D5
:10015000803F4E414E494E495459494E46CDCCCC34
:100160003D0AD7233C17B7D13877CC2B329595E68B
:10017000241FB14F0A000020410000C84200401C6B
:100180004620BCBE4CCA1B0E5AAEC59D7400407AB8
:1001900010F35A00A0724E18090010A5D4E8000010
:1001A000E87648170000E40B54020000CA9A3B00AE
:1001B0000000E1F505000080969800000040420F25
:1001C000000000A08601000000102700000000E8E9
:1001D00003000000006400000000000A00000000AE
:1001E000000100000000002C76D888DC674F08234F
:1001F000DFC1DFAE59E1B1B796E5E3E453C63AE6B5
:1002000051997696E8E6C28426EB898C9B62ED4094
:100210007C6FFCEFBC9C9F40F2BAA56FA5F49005E3
:100220005A2AF75C936B6CF9676DC11BFCE0E40D17
:1002300047FEF520E6B500D0ED902E03009435770B
:10024000050080841E080000204E0A000000C80C33
:10025000333333330F986E12831141EF8D2114899C
:100260003BE65516CFFEE6DB18D1844B381BF77CF6
:100270001D901DA4BBE424203284725E228100C93B
:10028000F124ECA1E53D2720573A00434F4D4D5551
:100290004E49434154494F4E0044525952554E0025
:1002A0004552524F525300494E464F004543484F26
:1002B000006F6B003F5A206F7574206F662072616B
:1002C0006E67652028003F59206F7574206F662087
:1002D00072616E676520282D0020746F20003F58E2
:1002E000206F7574206F662072616E676520282DFF
:1002F0000050726F6265204F666673657420580007
:10030000454550524F4D204F4B0A004F666673656E
:100310007473204170706C696564004572723A2094
:10032000546F6F206661722100546F6F2066617296
:100330002066726F6D207265666572656E636520FA
:10034000706F696E740A004D34323120696E636FCC
:10035000727265637420706172616D65746572207C
:1003600075736167650A006469730043290A006157
:10037000626C656420286D696E2074656D70200064
:10038000436F6C6420657874727564657320617264
:10039000652000496E76616C6964206578747275B9
:1003A0006465720A0020643A0020693A0020703ABD
:1003B0000050726F6265204F6666736574205A0044
:1003C00020536572766F200050726F746563746598
:1003D000642050696E0A0020466C6F773A20004610
:1003E000523A0020204D61783A200020204D696E5D
:1003F0003A2000536F667420656E6473746F707377
:100400003A20003F4A206F7574206F662072616E3B
:1004100067652028302E303120746F20302E33292C
:100420000A00205400205200416363656C657261CC
:1004300074696F6E3A2050004D31343520533C6959
:100440006E6465783E206F7574206F662072616EF1
:1004500067652028302D31290A002F2F20004348BE
:10046000414D4245525F54454D50455241545552BD
:100470004500424142595354455050494E47004D62
:100480004F54494F4E5F4D4F4445530054484552D9
:100490004D414C5F50524F54454354494F4E004CD0
:1004A0004F4E475F46494C454E414D4500415554DE
:1004B0004F5245504F52545F53445F53544154552B
:1004C00053005344434152440050524F4D50545FE7
:1004D000535550504F525400454D455247454E4399
:1004E000595F50415253455200434153455F4C4977
:1004F0004748545F4252494748544E45535300546D
:100500004F47474C455F4C494748545300534F466B
:1005100054574152455F504F574552004255494C40
:10052000445F50455243454E54004C4556454C4956
:100530004E475F44415441005A5F50524F4245007C
:100540004155544F4C4556454C005052494E545F0E
:100550004A4F420050524F47524553530041555461
:100560004F5245504F52545F54454D5000564F4CDA
:10057000554D45545249430042494E4152595F46F8
:10058000494C455F5452414E5346455200534552E3
:1005900049414C5F584F4E5F584F464600464952BE
:1005A0004D574152455F4E414D453A4D61726C6920
:1005B0006E206275676669782D322E302E7820287D
:1005C0004A756C20323520323032302032333A35A1
:1005D000393A32362920534F555243455F434F44F1
:1005E000455F55524C3A68747470733A2F2F67699F
:1005F000746875622E636F6D2F4D61726C696E4603
:1006000069726D776172652F4D61726C696E2050F1
:10061000524F544F434F4C5F56455253494F4E3AF9
:10062000312E30204D414348494E455F5459504585
:100630003A4C7563792045585452554445525F43AE
:100640004F554E543A3120555549443A63656465D7
:10065000326132662D343161322D343734382D39E0
:100660006231322D6335356336326633363766662E
:100670000A004C756379204F46462E00426564207F
:10068000436F6F6C696E672E2E2E004265642048A2
:10069000656174696E672E2E2E004D313133205303
:1006A000006F66660044454255473A002569792047
:1006B000256964202569682025696D2025697300F6
:1006C0005072696E742074696D653A20004E6F2017
:1006D0004D6F76652E00436C69636B20746F2052FA
:1006E0006573756D652E2E2E004D65736820706FD5
:1006F000696E74206F7574206F662072616E676515
:100700000A005A2050726F62652050617374204253
:1007100065640A005A2050726F62652050617374DC
:100720002042656400486F6D6520585920666972E3
:1007300073740A00486F6D652058592046697273BA
:100740007400536C6565702E2E2E000000000000B2
:1007500000000000000000AC02A702A00299028B7A
:100760000200004842000048420000A04100006B27
:100770004300006B4300007A43FFFFFF4572726F36
:10078000722077726974696E6720746F20454550D6
:10079000524F4D210A002121204B494C4C206361CE
:1007A0007573656420627920746F6F206D7563685E
:1007B00020696E6163746976652074696D65202DAA
:1007C0002063757272656E7420636F6D6D616E6407
:1007D0003A20004E6F20436865636B73756D207718
:1007E000697468206C696E65206E756D6265722C27
:1007F000204C617374204C696E653A200063686513
:10080000636B73756D206D69736D617463682C2003
:100810004C617374204C696E653A20004C696E65BA
:10082000204E756D626572206973206E6F74204C66
:10083000617374204C696E65204E756D6265722B14
:10084000312C204C617374204C696E653A20004D48
:1008500031313000627573793A2070617573656467
:1008600020666F7220696E7075740A006275737904
:100870003A2070617573656420666F7220757365C8
:10088000720A00627573793A2070726F63657373D0
:10089000696E670A000F150E1216170E1303021A5F
:1008A0001401000E0DFF180C040C19000124F4D4DF
:1008B0003050C38E20C2A24017828B7011127A91E1
:1008C0000D816CD90AA861E108C7586607615143D8
:1008D000061E4B5D05C145A7041A411104093D9848
:1008E00003713931034036DB0265339102D4305451
:1008F00002802E1D02632CEE01752AC501B028A0CE
:1009000001102781018F2564012B244B01E0223443
:1009100001AC211F018D200D01801FFC00841EED04
:1009200000971DDF00B81CD200E61BC600201BBCD0
:1009300000641AB200B219A8000A19A0006A189936
:1009400000D117910040178B00B516840031167E38
:1009500000B31579003A157300C7146F0058146A74
:1009600000EE1366008813630025135E00C7125B58
:10097000006C12570015125400C111510070114F34
:100980000021114B00D61049008D1047004610443D
:100990000002104200C00F4000800F3E00420F3C9A
:1009A00000060F3B00CB0E3800930E37005C0E356F
:1009B00000270E3400F30D3200C10D3100900D30D0
:1009C00000600D2E00320D2D00050D2C00D90C2BD2
:1009D00000AE0C2900850C29005C0C2700350C2783
:1009E000000E0C2600E80B2400C40B2400A00B23EF
:1009F000007D0B23005A0B2100390B2100180B201E
:100A000000F80A1F00D90A1E00BB0A1E009D0A1D1D
:100A100000800A1D00630A1C00470A1B002C0A1BE9
:100A200000110A1A00F7091A00DD091900C4091992
:100A300000AB091900920917007B09180063091718
:100A4000004C09160036091600200916000A09157F
:100A500000F5081500E0081400CC081400B80814CC
:100A600000A4081400900813007D0812006B0813FE
:100A7000005808120046081200340811002308111B
:100A8000001208110001081100F0071000E0071023
:100A900000D0071000C0071000B0070F00A107101A
:100AA0000091070E0083070F0074070F0065070E03
:100AB0000057070E0049070E003B070D002E070EDA
:100AC0000020070D0013070D0006070D00F9060CA6
:100AD00000ED060D00E0060C00D4060C00C8060C64
:100AE00000BC060C00B0060C00A4060B0099060C16
:100AF000008D060B0082060B0077060B006C060BC0
:100B00000061060A0057060B004C060A0042060A5E
:100B10000038060A002E060A0024060A001A060AF1
:100B2000001006090007060A00FD050900F4050982
:100B300000EB050900E2050900D9050900D0050907
:100B400000C7050900BE050900B5050800AD050888
:100B500000A50509009C050800940508008C0508FF
:100B600000840508007C050800740508006C050772
:100B700000650508005D050700560508004E0507DD
:100B80000047050700400508003805070031050744
:100B9000002A050700230507001C050600160507A7
:100BA000000F0507000805060002050700FB040604
:100BB00000F5040700EE040600E8040600E204075E
:100BC00000DB040600D5040600CF040600C90406B5
:100BD00000C3040600BD040600B7040600B1040506
:100BE00000AC040600A6040600A00405009B040651
:100BF0000095040500900406008A0405008504059C
:100C000000800406007A04050075040500700405E0
:100C1000006B04050066040500610405005C040522
:100C20000057040500520405004D04050048040562
:100C300000430405003E0404003A040500350405A1
:100C400000300404002C04050027040400230405DC
:100C5000001E0404001A0404001604050011040414
:100C6000000D040400090405000404040000040449
:100C700000FC030400F8030400F4030400F0030480
:100C800000EC030400E8030400E4030400E00304B0
:100C900000DC030400D8030400D4030400D00304E0
:100CA00000CC030400C8030300C503030024F404BC
:100CB000D9201BC40C5C0E9804C4095F026507713F
:100CC00001F405F900FB04B30048048700C103697F
:100CD000005803550003034500BE023A0084023168
:100CE0000053022A002902250004022000E4011C0E
:100CF00000C8011900AF0117009801140084011306
:100D000000710110006101100051010E0043010D3E
:100D10000036010B002B010B0020010B001501090F
:100D2000000C01090003010800FB000800F30008A3
:100D300000EB000700E4000600DE000600D8000615
:100D400000D2000600CC000500C7000500C2000567
:100D500000BD000400B9000400B5000400B10004A7
:100D600000AD000400A9000400A5000300A20003D8
:100D7000009F0004009B0003009800030095000200
:100D80000093000300900003008D0002008B00031D
:100D90000088000200860002008400030081000237
:100DA000007F0002007D0002007B0002007900024B
:100DB000007700010076000200740002007200015A
:100DC00000710002006F0002006D0001006C000263
:100DD000006A00010069000200670001006600016E
:100DE0000065000100640002006200010061000172
:100DF00000600001005F0002005D0001005C000176
:100E0000005B0001005A0001005900010058000178
:100E10000057000100560001005500010054000178
:100E20000053000000530001005200010051000176
:100E300000500001004F0001004E0000004E000174
:100E4000004D0001004C0001004B0000004B000170
:100E5000004A00010049000100480000004800016C
:100E60000047000100460000004600010045000068
:100E70000045000100440001004300000043000160
:100E8000004200000042000100410000004100015A
:100E900000400001003F0000003F0001003E000054
:100EA000003E0001003D0000003D0001003C00004C
:100EB000003C0000003C0001003B0000003B000142
:100EC000003A0000003A000100390000003900013A
:100ED0000038000000380000003800010037000032
:100EE0000037000100360000003600000036000127
:100EF000003500000035000000350001003400001E
:100F00000034000000340001003300000033000012
:100F10000033000100320000003200000032000106
:100F200000310000003100000031000100300000FD
:100F30000030000000300001002F0000002F0000F2
:100F4000002F0000002F0001002E0000002E0000E6
:100F5000002E0001002D0000002D0000002D0000DB
:100F6000002D0001002C0000002C0000002C0000CF
:100F7000002C0001002B0000002B0000002B0000C3
:100F8000002B0001002A0000002A0000002A0000B7
:100F9000002A0001002900000029000000290000AB
:100FA000002900000029000100280000002800009E
:100FB0000028000000280000002800010027000091
:100FC0000027000000270000002700000027000184
:100FD0000026000000260000002600000026000079
:100FE000002600010025000000250000002500006B
:100FF000002500000025000000250001002400005D
:10100000002400000024000000240000002400014F
:101010000023000000230000002300000023000044
:101020000023000000230000002300010022000034
:101030000022000000220000002200000022000028
:10104000002200010021000000210000002100001A
:10105000002100000021000000210000002100010B
:101060000020000000200000002000000020000000
:1010700000200000002000000020000000200001EF
:10108000001F0000001F0000001F0000001F0000E4
:10109000001F0000001F0000001F0001001E0000D4
:1010A000001E0000001E0000001E0000003930007D
:1010B000003325000087190000B00F0000DB080096
:1010C00000BD040000740200003F010000000000A9
:1010D000010000000100008000555555000000404F
:1010E0000033333300AAAA2A0049922400000020CA
:1010F00000C7711C0099991900D145170055551565
:10110000003BB1130024491200111111000000101E
:10111000000F0F0F00E3380E0043790D00CCCC0C0C
:1011200000C3300C00E8A20B0064210B00AAAA0A3D
:1011300000703D0A009DD80900427B0900922409F5
:1011400000DCD3080088880800104208000000086E
:1011500000F0C107008787070075500700711C0762
:10116000003EEB0600A1BC0600699006006666061C
:1011700000703E06006118060017F4050074D105E2
:10118000005BB00500B29005006272050055550580
:101190000078390500B81E0500050505004EEC0471
:1011A0000087D40400A1BD040090A7040049920464
:1011B00000C17D0400EE690400C7560400444404E5
:1011C000005C320400082104004110040000000407
:1011D000003FF00300F8E0030026D20300C3C3037E
:1011E00000CCB503003AA803000A9B0300388E0325
:1011F00000C08103009F750300D0690300505E03A7
:10120000001D53030034480300913D0300333303B2
:101210000016290300381F030097150300300C0344
:1012200000030303000BFA020049F10200BAE802CE
:10123000005CE002002DD802002DD0020059C80247
:1012400000B0C0020031B90200DAB10200AAAA025D
:1012500000A0A30200BC9C0200FA9502005C8F0271
:1012600000DF88020082820200457C0200277602AD
:101270000027700200436A02007C640200D05E0214
:10128000003F590200C8530200FFFDFCFAF8F6F4D3
:10129000F2F0EEECEAE9E7E5E3E1E0DEDCDAD9D70B
:1012A000D5D4D2D0CFCDCBCAC8C7C5C3C2C0BFBDAD
:1012B000BCBAB9B7B6B4B3B2B0AFADACAAA9A8A620
:1012C000A5A4A2A1A09E9D9C9A999897959493926B
:1012D000908F8E8D8B8A8988878684838281807F98
:1012E0007E7D7B7A797877767574737271706F6EA4
:1012F0006D6C6B6A696867666564636261605F5E96
:101300005D5C5B5A5958585756555453525150507A
:101310004F4E4D4C4B4A4A49484746464544434246
:101320004241403F3E3E3D3C3B3B3A393838373600
:101330003535343332323130302F2E2E2D2C2B2BAD
:101340002A2929282727262525242323222121204D
:10135000201F1E1E1D1C1C1B1B1A191918181716DE
:1013600016151514131312121111100F0F0E0E0D66
:101370000D0C0C0B0A0A09090808070706060505E3
:10138000040403030202010000687474703A2F2FF2
:101390006D61726C696E66772E6F72670062756739
:1013A0006669782D322E302E7800436F6E6669673D
:1013B00075726174696F6E004F6666004F6E004D06
:1013C0006F74696F6E004175746F20486F6D6500B2
:1013D0005053550047656E657269630050726F74B3
:1013E0006F636F6C00312E300042617564003131E3
:1013F00035323030004D656C7A6920284372656162
:101400006C6974792900457874727564657273002B
:101410004C75637900323032302D30362D31390041
:10142000546865726D6973746F727300426F617294
:101430006420496E666F005072696E74657220494F
:101440006E666F0041626F7574205072696E7465CC
:10145000720054756E6500496E666F205363726545
:10146000656E00536F667420456E6473746F70739D
:10147000004D38340044697361626C6520537465B3
:101480007070657273004732380A4D34382050311D
:1014900030004D34382050726F626520546573748B
:1014A0000047323800206D61783A2000206D696E67
:1014B0003A2000446966663A2020200046726F6D2B
:1014C0005374703A00537465707065723A00556ECB
:1014D0004C6576656C3A004C6576656C65643A00DF
:1014E0005261773A20202020000A4C6F67696361BF
:1014F0006C3A00436F756E7420453A004361703A50
:1015000000526573656E643A200045202553002320
:10151000646566696E652044454641554C545F00DC
:101520004B6420004B6920004B7020005049442040
:101530004175746F74756E652066696E6973686550
:1015400064212050757420746865206C6173742068
:101550004B702C204B6920616E64204B6420636FBC
:101560006E7374616E74732066726F6D2062656C49
:101570006F7720696E746F20436F6E66696775724E
:101580006174696F6E2E680A005049442041757479
:101590006F74756E65206661696C6564212074697D
:1015A0006D656F75740A000A20436C61737369631B
:1015B00020504944200A00204B643A2000204B6907
:1015C0003A2000204B703A20002054753A20002029
:1015D0004B753A200020643A200020626961733A1A
:1015E0002000504944204175746F74756E652073F6
:1015F000746172740A00504944204175746F7475A7
:101600006E65206661696C6564212054656D706546
:1016100072617475726520746F6F20686967680AFB
:1016200000504944204175746F74756E6520666181
:10163000696C656421204261642065787472756408
:101640006572206E756D6265720A0020746F6F207E
:101650006C6F6E6720657874727573696F6E207039
:10166000726576656E7465640A0020636F6C642031
:10167000657874727573696F6E2070726576656EC9
:101680007465640A00DB0FC93F45BCDA3F8FB302C3
:1016900040FCF0274056946140FE4B9B4084A5D807
:1016A00040E0231841346A5641E859974164DBD53C
:1016B000416E271742B4B75542CE1A9742C8AED5ED
:1016C00042B5885A43D40684BFA65FA7BF7443E0DF
:1016D000BF10B11AC01C2C58C0E8F697C0B849D644
:1016E000C04E4E17C124D355C1802497C1A0B5D593
:1016F000C1121A17C244AE55C2781797C26CACD546
:10170000C267885AC353544F505045442E2000504E
:1017100072696E7465722073746F70706564206492
:10172000756520746F206572726F72732E20466922
:101730007820746865206572726F7220616E642013
:10174000757365204D39393920746F207265737453
:101750006172742E202854656D70657261747572A3
:10176000652069732072657365742E20536574203B
:101770006974206166746572207265737461727435
:10178000696E67290A0021212053544F502063615C
:101790006C6C65642062656361757365206F66209B
:1017A000424C546F756368206572726F72202D20F1
:1017B000726573746172742077697468204D393969
:1017C000390A004F46460A0046616465204865694B
:1017D0006768742000426564204C6576656C696EAC
:1017E0006720004661696C656420746F20656E61D6
:1017F000626C6520426564204C6576656C696E6735
:101800000A00496E76616C6964206D6573682E0A02
:101810000050726F62696E6720506F696E740025A8
:10182000532025692F25690050726F62696E672009
:101830006D65736820706F696E74200020284452B3
:101840005952554E2900473239204175746F204254
:101850006564204C6576656C696E67003F20284C96
:101860002C522C462C4229206F7574206F66206202
:101870006F756E64732E0A00426164205A2076618F
:101880006C75650A004E6F2062696C696E656172E5
:1018900020677269640A0000FE0003FF8007C7C06A
:1018A0000701E00000E00000F00000700400700E8E
:1018B00000701F00703F80F00E00E00F01E007C7CE
:1018C000C003FF8000FE0000FE0003FF8007C7C0CA
:1018D0000F01E00E00E03F80F01F00700E0070046A
:1018E00000700000700000F00000E00701E007C792
:1018F000C003FF8000FE000E000E000E000E000E62
:10190000000E000E000E007FC03F801F000E00047E
:101910000004000E001F003F807FC00E000E000E6E
:10192000000E000E000E000E000E00FFFFFF7F8075
:10193000FFC0FFC0FFC07F807F80FFC0FFC0FFC02F
:101940003F001E000C004D3330332055312045251B
:10195000692053256900504944204175746F74759E
:101960006E65202A005049442D44202A00504944E5
:101970002D49202A005049442D50202A00200820BB
:1019800046616374002008204D6178002008204DD6
:10199000696E004175746F74656D70001FE03FF0F3
:1019A0003FF03FF01FE01FE03FF03FF03FF00FC07F
:1019B000078003001FE020102010201010201020AE
:1019C0002010201030300840048003003FFFF03822
:1019D000007030FC3020FC102078102030102C00DB
:1019E000D02E31D02F7BD02F7BD02E31D02C00D0D9
:1019F00020301020781020FC1030FC303800703F70
:101A0000FFF03FFFF03800703186302387102787C2
:101A1000902F87D02F03D0203010207810207810FE
:101A20002030102F03D02F87D027879023871031A5
:101A300086303800703FFFF01FFFF81FFFF80410DA
:101A400040020820020820041040082080104100B5
:101A50001041000820800410400000001FFFF81F04
:101A6000FFF82020202020202000205A3A00205972
:101A70003A002020506C616E6E6572427566666534
:101A80007242797465733A20002046726565204D74
:101A9000656D6F72793A2000436F6D70696C656493
:101AA0003A204A756C20323520323032300A00201C
:101AB0004C61737420557064617465643A203230EF
:101AC00032302D30362D3139207C20417574686FCD
:101AD000723A202870616469632C204C75637929FF
:101AE0000A006275676669782D322E302E780A00FA
:101AF0004D61726C696E0020536F66747761726518
:101B00002052657365740A00205761746368646FBE
:101B1000672052657365740A002042726F776E20E9
:101B20006F75742052657365740A0020457874657A
:101B3000726E616C2052657365740A00506F776530
:101B40007255700A002553202563202563202563E4
:101B500020256300656E6473746F70732068697408
:101B60003A200054656D706572617475726500503D
:101B7000726F6265205A204F6666736574004D610E
:101B8000696E005072656865617420504C41204553
:101B90006E64005072656865617420504C4120424B
:101BA000656400507265686561742041425320424B
:101BB0006564005072656865617420414253204538
:101BC0006E6400436F6F6C646F776E00507265686F
:101BD00065617420414253005072656865617420EC
:101BE000504C410046616E205370656564004E6F35
:101BF0007A7A6C6500466C6F7700416476616E633B
:101C000065642053657474696E67730053746F72F2
:101C1000652053657474696E6773004C6F6164204E
:101C200053657474696E6773004C6576656C204308
:101C30006F726E65727300466164652048656967FE
:101C400068740045646974204D65736800473238D4
:101C50000A473239004C6576656C20426564004362
:101C60006D643A2053746F7700436D643A20446585
:101C7000706C6F7900436D643A2053656C662D5427
:101C800065737400436D643A205265736574004354
:101C90006D643A2053572D4D6F646500526573741F
:101CA0006F72652044656661756C747300424C54B4
:101CB0006F75636800313235004245443A45504300
:101CC0004F53203130304B0052756E61776179206F
:101CD00057617463683A204F4E004D617820546517
:101CE0006D7000323735004D696E2054656D70009F
:101CF00045313A204550434F53203130304B003F5F
:101D000000454550524F4D2056657273696F6E20E5
:101D10004572726F7200454550524F4D20496E64B6
:101D20006578204572726F7200454550524F4D20C4
:101D3000435243204572726F720049676E6F72653D
:101D400000496E697469616C697A65204545505235
:101D50004F4D0053657474696E67732053746F72CE
:101D600065640053657474696E67732053746F7291
:101D70006564202800202D20496E76616C696420FE
:101D80006578747275646572206E756D6265722017
:101D9000210A00544845524D414C2052554E41575E
:101DA000415900546865726D616C2052756E61779F
:101DB0006179004572723A204D415854454D5000AA
:101DC0004D415854454D502074726967676572657E
:101DD00064004572723A204D494E54454D50004DB5
:101DE000494E54454D502074726967676572656449
:101DF00000202F002042403A0020403A0070012C81
:101E00000190012701B0012201C0011D01F001185C
:101E1000011002130130020E016002090190020458
:101E200001C002FF000003FA004003F5008003F048
:101E300000D003EB002004E6007004E100E004DCC5
:101E4000004005D700C005D2004006CD00D006C82E
:101E5000008007C3003008BE00F008B900C009B414
:101E600000B00AAF00B00BAA00D00CA500000EA075
:101E700000500F9B00C01096005012910000148C6F
:101E800000C0158700B0178200B0197D00D01B7804
:101E900000001E730040206E0090226900F0246450
:101EA0000040275F0090295A00E02B5500102E506B
:101EB0000020304B0010324600E033410090353CAA
:101EC000001037370070383200A0392D00B03A28A2
:101ED00000A03B2300603C1E00103D1900903D1403
:101EE00000103E0F00703E0A00C03E0500003F009B
:101EF00000403FFBFF803FF6FFC03FF1FF4572729D
:101F00003A207574663820666F6E74206E6F742088
:101F1000696E697469616C697A65642E00256875FB
:101F20003A2530326875002568756420253032689E
:101F3000753A253032687500000C0F00FE07022646
:101F400003BC017FFE08FE08FE05080806000040ED
:101F5000F0C88888987810050808060000C0F8883E
:101F600088888888F80505050600012030F83020AB
:101F70000508080600002070F820202020E0050950
:101F8000090600FF2070A8A8B888887020050606FA
:101F9000060001E08CEA8C8A0A0509090600FFF8B0
:101FA000A88888888888A8F8050A0A0600FE2050B4
:101FB00050505088A8A8887003030306000340A06F
:101FC00040FFFFFFFFFFFFFFFFFFFFFFFFFFFFFFE0
:101FD000FFFFFFFFFFFFFF0000000605FF010707EF
:101FE00006020080808080800080030303060105D4
:101FF000A0A0A005060606000050F85050F85005B5
:1020000009090600FF2070A8A07028A87020050705
:1020100007060000C8C8102040989805070706006A
:102020000040A0A040A8906801030306020580803C
:10203000800309090601FF20404080808040402045
:102040000309090601FF8040402020204040800510
:10205000070706000020A8702070A82005050506C7
:1020600000012020F820200203030601FFC0408069
:10207000050101060003F8020202060100C0C005C6
:1020800007070600000810102040408005070706DB
:102090000000708898A8C8887003070706010040F0
:1020A000C040404040E00507070600007088081067
:1020B0002040F8050707060000F80810300888706F
:1020C00005070706000010305090F81010050707AC
:1020D000060000F880F00808887005070706000071
:1020E000304080F0888870050707060000F8081067
:1020F0001020202005070706000070888870888857
:1021000070050707060000708888780810600205CF
:1021100005060100C0C000C0C00206060601FFC0DF
:10212000C000C0408003050506010120408040201A
:10213000050303060002F800F80305050601018007
:10214000402040800507070600007088102020000E
:10215000200507070600007088B8A8B8807005073A
:1021600007060000708888F8888888050707060039
:1021700000F04848704848F00507070600007088DE
:102180008080808870050707060000F048484848AE
:1021900048F0050707060000F88080F08080F80509
:1021A0000707060000F88080F0808080050707069A
:1021B00000007088808098887005070706000088F6
:1021C0008888F8888888030707060100E0404040B7
:1021D0004040E0050707060000381010101090601E
:1021E0000507070600008890A0C0A0908805070793
:1021F000060000808080808080F8050707060000C8
:1022000088D8A8888888880507070600008888C8B5
:10221000A89888880507070600007088888888883D
:1022200070050707060000F08888F08080800507A9
:102230000706000070888888A890680507070600D0
:1022400000F08888F0A090880507070600007088D5
:102250008070088870050707060000F820202020FD
:102260002020050707060000888888888888700570
:102270000707060000888888885050200507070651
:10228000000088888888A8A85005070706000088ED
:10229000885020508888050707060000888850204D
:1022A000202020050707060000F80810204080F8CD
:1022B0000309090601FFE080808080808080E005BE
:1022C0000707060000804040201010080309090697
:1022D00001FFE020202020202020E005030306004D
:1022E000052050880501010600FEF80303030601DE
:1022F00005804020050505060000700878887805EF
:1023000007070600008080F0888888F0050505062C
:1023100000007080808870050707060000080878B4
:10232000888888780505050600007088F0807005AB
:102330000707060000304840E04040400507070618
:1023400000FE7088888878087005070706000080FE
:1023500080F0888888880307070601004000C04095
:102360004040E00409090601FE1000301010101072
:10237000906005070706000080808890E090880341
:102380000707060100C04040404040E00505050643
:102390000000D0A8A8A8A8050505060000B0C888B8
:1023A000888805050506000070888888700507077D
:1023B0000600FEF0888888F080800507070600FE8A
:1023C00078888888780808050505060000B0C88068
:1023D000808005050506000078807008F005070775
:1023E0000600002020F82020201805050506000022
:1023F0008888889868050505060000888888502028
:102400000505050600008888A8A8500505050600F2
:102410000088502050880507070600FE88888850ED
:10242000204080050505060000F8102040F803094B
:10243000090601FF2040404080404040200109093A
:102440000602FF80808080808080808003090906EA
:1024500001FF8040404020404040800503030600CB
:102460000248A890FF1FFFFFFFFFFFFF6000000072
:102470000001FF400000000000FF8000000000009D
:102480007F83CF00000C303F87FF80000C301F8619
:102490007980000C000F8C30C7838C30E78C30CFF4
:1024A000C7CC31F38C30DCECEC33B98C30D86C6CAD
:1024B00033198C30D06C0C33198C30D86C0C331928
:1024C0008C30DC6C0E3B198C30CF7C079F198C3024
:1024D000C77C038F1940000000000002600000006C
:1024E0000000061FFFFFFFFFFFF86F70656E0054CE
:1024F0005249474745524544007A5F6D696E0079FD
:102500005F6D696E00785F6D696E005265706F7205
:1025100074696E6720656E6473746F702073746184
:102520007475730A005761726E696E673A20486F5E
:102530006D696E672042756D702044697669736FAE
:1025400072203C20310A000202040000A04000007A
:10255000A040000000403F2856296572626F7365F5
:10256000206C6576656C20696D706C61757369624D
:102570006C652028302D34292E0A00446576696167
:1025800074696F6E0025533A202573005374616E91
:102590006461726420446576696174696F6E3A2083
:1025A000002052616E67653A20004D65616E3A20E9
:1025B0000046696E6973686564210A002072616E65
:1025C00067653A2000207369676D613A2000206DCD
:1025D00065616E3A20003A207A3A2000206F66202A
:1025E00000476F696E6720746F3A20580043570A9E
:1025F00000206469723A0020616E676C653A00538E
:1026000074617274207261646975733A004D343874
:1026100020506F696E740025533A2025642F25647D
:1026200000506F736974696F6E696E6720746865B6
:102630002070726F62652E2E2E0A003F4E756D62FD
:102640006572206F66206C65677320696E206D6F00
:1026500076656D656E74206E6F7420706C61757335
:1026600069626C652028302D3135292E0A003F2003
:1026700028582C5929206F7574206F6620626F7559
:102680006E64732E0A003F53616D706C6520736930
:102690007A65206E6F7420706C61757369626C6509
:1026A0002028342D3530292E0A004D3438205A2D5B
:1026B00050726F6265205265706561746162696C09
:1026C00069747920546573740A00204D393220589A
:1026D00000496E76616C69642050696E204D6F64AC
:1026E000650A0020496E76616C69642065787472B1
:1026F00075646572200000002100240027002A0074
:1027000000002200250028002B00000020002300EC
:10271000260029000202020202020202040404044A
:10272000040404040303030303030303010101017D
:102730000101010101020408102040800102040887
:1027400010204080010204081020408080402010AA
:1027500008040201000000010200090A0000000054
:102760000403080700000000000000000000000053
:10277000000000004D6F76652025736D6D004D6F74
:10278000766520302E316D6D004D6F766520316D90
:102790006D004D6F76652031306D6D004D6F766543
:1027A000204178697300486F74656E6420746F6FA0
:1027B00020636F6C64004578747275646572004DB7
:1027C0006F7665205A004D6F76652059004D6F7603
:1027D000652058004573746570732F6D6D005A73D2
:1027E000746570732F6D6D005973746570732F6D00
:1027F0006D005873746570732F6D6D005374657040
:10280000732F6D6D004E65787420436F726E657224
:1028100000446F6E65004E65787400486F6D696E98
:10282000672058595A005A2056616C756500496EE8
:10283000646578205900496E6465782058002062EC
:10284000797465733B2063726320004E6F204545A9
:1028500050524F4D2E0A00454550524F4D20646155
:10286000746173697A65206572726F722E0A002036
:1028700073746F7265642073657474696E67732016
:10288000726574726965766564202800202863612A
:102890006C63756C6174656429210A0020213D20F8
:1028A00000454550524F4D20435243206D69736D92
:1028B00061746368202D202873746F726564292009
:1028C000002053697A653A2000496E6465783A20A1
:1028D00000204D61726C696E3D563830290A004502
:1028E0004550524F4D2076657273696F6E206D6949
:1028F000736D617463682028454550524F4D3D000B
:10290000506C65617365205265736574005052495F
:102910004E5445522048414C5445440025533A20DA
:102920002553004B494C4C45442E20005072696E93
:102930007465722068616C7465642E206B696C6CC0
:1029400028292063616C6C6564210A006563686FE7
:102950003A004572726F723A0042696C696E656145
:1029600072204C6576656C696E6720477269643ABF
:102970000A00456E636C6F737572650020436F7556
:102980006E7420583A004D313036205000453100E9
:10299000626564002C2073797374656D2073746FA5
:1029A0007070656421204865617465725F49443ABE
:1029B000200048656174696E67204661696C6564D2
:1029C0000048656174696E67206661696C656400C2
:1029D0004D3131322053687574646F776E004861F1
:1029E0007264636F6465642044656661756C74200D
:1029F00053657474696E6773204C6F616465640A13
:102A0000003B200020204D3835312058005A2D50F1
:102A1000726F6265204F6666736574002044002003
:102A2000204D333031205000504944207365747478
:102A3000696E67733A0020460020480020204D311F
:102A400034352053004D6174657269616C2068658E
:102A50006174757020706172616D65746572733A2E
:102A6000002020473239205720490020204D3432A1
:102A7000302053004175746F20426564204C6576A8
:102A8000656C696E673A0020204D32303620580060
:102A9000486F6D65206F66667365743A00204A0062
:102AA00020204D323035204200416476616E6365EE
:102AB000643A20423C6D696E5F7365676D656E7444
:102AC0005F74696D655F75733E20533C6D696E5F21
:102AD00066656564726174653E20543C6D696E5F25
:102AE00074726176656C5F66656564726174653E7B
:102AF000204A3C6A756E635F6465763E0020204D17
:102B0000323034205000416363656C6572617469D2
:102B10006F6E2028756E6974732F7332293A2050B6
:102B20003C7072696E745F616363656C3E20523CF9
:102B3000726574726163745F616363656C3E205497
:102B40003C74726176656C5F616363656C3E002006
:102B5000204D3230312058004D6178696D756D20FF
:102B6000416363656C65726174696F6E2028756E70
:102B70006974732F7332293A0020450020204D32AA
:102B800030332058004D6178696D756D206665653C
:102B90006472617465732028756E6974732F73296C
:102BA0003A0053746570732070657220756E697495
:102BB0003A0020204D3134392043203B20556E69A6
:102BC000747320696E2043656C736975730A002005
:102BD000286D6D29002020473231202020203B2005
:102BE000556E69747320696E206D6D00486F6D6954
:102BF0006E67204661696C6564000000FA4300005E
:102C0000FA430000A0400000C8410000A0420000BC
:102C1000A0420000C8430000D342F4010000F401C8
:102C200000006400000088130000205A3A200020B1
:102C3000593A200042656420583A20005072696E6B
:102C400074205061757365640050726F62696E67BD
:102C5000204661696C65640A0050726F62696E6734
:102C6000204661696C656400486F6D652025732599
:102C700073257320466972737400220A00556E6BC7
:102C80006E6F776E20636F6D6D616E643A20220007
:102C90004C7563792052656164792E005072696EBB
:102CA00074696E672E2E2E0053E111241FBECFEFE4
:102CB000D0E4DEBFCDBF12E0A0E0B1E0E2EEF1EE85
:102CC00001E00BBF02C007900D92AE30B107D9F7FB
:102CD00020E1AEE0B2E001C01D92AB30B207E1F7F7
:102CE00016E1C5E5D6E104C02197FE010E94F6ED8C
:102CF000C435D107C9F70E948EDC0C94EFF00C9418
:102D00000000A2E3B0E0E7E8F6E10C9411EE2091B8
:102D100007032AA721E020930703809106038D343F
:102D200009F4D7C3843511F40C94EC25873411F0E1
:102D30000C94072680910403909105038C31910532
:102D400009F435C18CF48430910509F4D2C01CF427
:102D5000029738F1BAC38531910511F40C94092614
:102D60004B9709F404C1B1C38A32910509F486C2B4
:102D700044F48D31910509F42AC14E9709F43BC101
:102D8000A4C38B35910509F4F6C18C35910509F47E
:102D9000F7C18A35910509F098C3109203030C948A
:102DA000092680910203813011F00C94092612EF5C
:102DB000C12E12E0D12E8BE7E82E84E0F82E96ED9E
:102DC000A92E9FE0B92E10E088E5810F0E94566978
:102DD000882319F10E945A672B013C01812F0E9420
:102DE0000DA9882351F0D7012D913D914D915C9112
:102DF000C301B2010E9449EE09C0F5012081318171
:102E000042815381C301B2010E9448EED6016D9305
:102E10007D938D939C9313970AC0F70180819181D4
:102E2000A281B381F60180839183A283B3831F5F64
:102E3000F4E0CF0ED11C24E0E20EF11C34E0A30E2E
:102E4000B11C133009F685E40E945669882301F10C
:102E50000E945A676B017C0183E00E940DA98823C0
:102E600071F0209187043091880440918904509139
:102E70008A04C701B6010E9449EE6B017C01C09231
:102E8000FE02D092FF02E0920003F092010310C014
:102E90008091870490918804A0918904B0918A045C
:102EA0008093FE029093FF02A0930003B09301036E
:102EB00040E050E0BA0186E40E94894C20E030E016
:102EC000A9010E94E8EF181684F40E945A6720E0D6
:102ED00030E040E752E40E94C3EE60936B017093D0
:102EE0006C0180936D0190936E010E948AA10C94F5
:102EF000092680E50E945669882329F00E9421AAAC
:102F00006B017C0103C0C12CD12C760183E50E94AA
:102F10005669882361F00E945A6720E030E04AE752
:102F200054E40E948FE70E9430EF6B017C010E9405
:102F3000CB4080919D02811105C060E082E497E062
:102F40000E9466900E94337FC60ED71EE81EF91EAF
:102F50000E94337FDC01CB018C199D09AE09BF09AA
:102F6000B7FD02C00C9409260E94892FF1CF0E9460
:102F7000ECD681110C9409268CE0E5E7F1E0DE0146
:102F8000119601900D928A95E1F780E50E945669AD
:102F9000882321F00E942767CB0102C080E090E0E7
:102FA000BE016F5F7F4F0E94A88F0C94092680910D
:102FB0009C028770873011F00C941C2660E08FE42F
:102FC0000E94786981110C9409260C941C260E9499
:102FD000ECD681110C94092680919B02882311F470
:102FE0000C94412860E08FE40E94786981110C9470
:102FF00009260C9441282091E20F3091E30F409173
:10300000E40F5091E50F60917B0470917C048091F6
:103010007D0490917E040E9449EEAB01BC0188E5DD
:103020000E94894C69837A838B839C832091E60F6D
:103030003091E70F4091E80F5091E90F60917F04C4
:103040007091800480918104909182040E9449EEE5
:10305000AB01BC0189E50E94894C6D837E838F831F
:103060009887BE016B5F7F4FCE0101960E94786505
:10307000882311F40C94092680E00E94E9BF0E9485
:10308000F2A461E085E40E94786921E0482FBE0146
:103090006B5F7F4FCE0101960E948AD76B017C0146
:1030A0009B01AC010E9465F081115FC089809A800C
:1030B000AB80BC8020E030E0A901C501B4010E94D2
:1030C0002AE787FF05C027E137EB41E558EB04C04D
:1030D00027E137EB41E558E3C501B4010E9449EE11
:1030E000AB01BC0184E39CE20E9495C38D809E806D
:1030F000AF80B88420E030E0A901C501B4010E948E
:103100002AE787FF05C027E137EB41E558EB04C00C
:1031100027E137EB41E558E3C501B4010E9449EED0
:10312000AB01BC018FE29CE20E9495C320E030E03D
:10313000A901C701B6010E942AE787FF05C067E120
:1031400077EB81E598EB04C067E177EB81E598E3E5
:10315000A70196010E9449EEAB01BC018AE29CE204
:103160000E9495C38AE00E94782E0E94D9A40E94F2
:1031700018A80C9409268FE0809303030C94092669
:10318000ECEE2E2EE1E03E2EFDE8EF2EF2E0FF2EDB
:10319000ABE7B4E0BF8FAE8FA6EDCA2EAFE0DA2E5C
:1031A00000E010E0F10181911F010E94566988231F
:1031B00009F44AC00E945A672B013C01133049F0C0
:1031C000D6012D913D914D915C910E9448EE2B01CD
:1031D0003C01EE8DFF8D2081318142815381C301FD
:1031E000B2010E9448EE4B015C012DEB37E346E84B
:1031F00055EB0E94E8EF87FD0AC02DEB37E346E868
:1032000055E3C501B4010E942AE71816ECF4133007
:1032100051F440928704509288046092890470921D
:103220008A0401E011C0A5019401D7016D917D913F
:103230008D919C910E9449EEF70160837183828396
:103240009383812F0E9457A11F5FF4E0EF0EF11CC2
:103250002E8D3F8D2C5F3F4F3F8F2E8F34E0C30E5E
:10326000D11C143009F09ECF002321F087E894E0B0
:103270000E9486440E9418A80C940926809102039B
:10328000813011F00C94092689E40E945669E82ED9
:10329000882321F00E945767082F01C000E08AE4CC
:1032A0000E945669F82E882321F00E945767182F34
:1032B00001C010E0EE2011F0033020F4FF2041F0B7
:1032C000133030F089EE96E00E94FCC20C9409267F
:1032D00080E1EBE7F4E0A2EFB2E001900D928A9575
:1032E000E1F7EE2019F1602F000F770B880B990B97
:1032F0000E9430E720917D0230917E0240917F0252
:10330000509180020E948FE72091850230918602C1
:1033100040918702509188020E9449EE6093F20228
:103320007093F3028093F4029093F502FF2019F159
:10333000612F110F770B880B990B0E9430E72091BA
:1033400081023091820240918302509184020E9456
:103350008FE72091890230918A0240918B0250912F
:103360008C020E9449EE6093F6027093F7028093FC
:10337000F8029093F90260E080E50E947869882362
:10338000C1F1EE20D1F02091E20F3091E30F409196
:10339000E40F5091E50F6091F2027091F302809179
:1033A000F4029091F5020E9448EE6093F20270934D
:1033B000F3028093F4029093F502FF20D1F0209164
:1033C000E60F3091E70F4091E80F5091E90F6091BF
:1033D000F6027091F7028091F8029091F9020E9432
:1033E00048EE6093F6027093F7028093F802909390
:1033F000F90240E050E0BA0186E40E94894C6B017A
:103400007C0120E030E0A9010E94E8EF18165CF48E
:1034100020E030E040E752E4C701B6010E94C3EE6D
:103420006B017C0103C0C12CD12C760180906B0113
:1034300090906C01A0906D01B0906E0120E030E0A2
:10344000A901C701B6010E942AE7882341F0C09272
:103450006B01D0926C01E0926D01F0926E010091CF
:1034600021011091220184E690E090932201809343
:103470002101C0903401D0903501E0903601F090E8
:10348000370180E090E0A0E8BFE38093340190939F
:103490003501A0933601B09337010E948AA1809232
:1034A0006B0190926C01A0926D01B0926E0110932D
:1034B000220100932101C0923401D0923501E092A3
:1034C0003601F09237010C9409260E94DED60C9446
:1034D000092680910403909105038837910509F42A
:1034E000D9C50CF00DC18535910509F4D5C40CF092
:1034F00048C08934910509F4F5C2FCF48231910584
:1035000009F49DC46CF497FF02C00C94E925823045
:1035100091050CF4B5C1419709F412C20C94E92548
:103520008A32910509F4D6C28033910509F4D6C2D6
:103530004F9711F00C94E92520C28135910509F4CB
:103540005FC48CF48C34910509F4FEC28D3491056E
:1035500009F40FC38B34910511F00C94E9250E94F6
:10356000E92B0C9409268335910509F461C40CF00C
:1035700066C4809103038F7D8061809303030C9464
:1035800009268E36910509F45FC3E4F48A36910565
:1035900009F42BC364F48836910509F4EEC20CF0EB
:1035A00010C38C35910509F49AC40C94E9258C3626
:1035B000910511F40C9409260CF43DC30E9444506B
:1035C0000C9409268237910509F413C544F4803719
:1035D000910511F40C9409260CF447C390C3853768
:1035E000910509F409C50CF07EC08337910511F0EF
:1035F0000C94E9258DE995E00E94FCC260E08DE81D
:1036000095E00E94C95360E088E795E00E94C953A5
:1036100061E08CE49DE10E94C95360E08DE695E095
:103620000E94C95361E08DE595E00E94C95360E0B6
:1036300084E595E00E94C95361E08AE495E00E9428
:10364000C95361E080E495E00E94C95361E088E3DA
:1036500095E00E94C95361E08AE295E00E94C95357
:1036600061E08CE195E00E94C95360E08DE095E057
:103670000E94C95360E08FEF94E00E94C95360E05C
:1036800089EE94E00E94C95361E088ED94E00E94C5
:10369000C95360E089EC94E00E94C95360E082EC79
:1036A00094E00E94C95360E08DEA94E00E94C953FF
:1036B00060E08FE994E00E94C95361E08CE894E0F7
:1036C0000E94C95360E08FE794E00E94C95361E013
:1036D00082E794E00E94C95360E08EE594E00E9486
:1036E000C9530C9409268637910509F499C4873784
:1036F000910511F00C94E9250E9489A80C940926E3
:103700008D3241E0940711F40C94DF230CF054C087
:103710008C3C910509F465C544F58B39910509F494
:1037200049C3ACF48C38910509F410C38139910573
:1037300009F4B7C48937910511F00C94E92510926A
:103740009A02109299020E94D8A80C940926893CEA
:10375000910509F401C58B3C910509F423C58E3B05
:10376000910511F00C94E92513C38C3D910509F4E2
:1037700063C664F48E3C910509F47AC50CF465C502
:10378000833D910509F492C50C94E925823E91058B
:1037900009F4C3C634F48D3D910509F474C60C9444
:1037A000E9258831A1E09A0709F401C782329140E6
:1037B00009F494C70C94E925853AE1E09E0711F4D9
:1037C0000C94B32484F5813921E0920711F40C9410
:1037D000A62494F48F3241E0940711F40C94A324AE
:1037E00014F40C945F248039914011F00C94E92575
:1037F0000E94CB400C9409268A39B1E09B0711F452
:103800000C940926843AE1E09E0711F40C94B0244C
:103810008239914011F00C94E9250E946F650E9455
:1038200018A80C940926863F21E0920711F40C9405
:103830008D2584F4843F41E0940711F40C9487258E
:1038400014F00C948A258C3A914011F40C942B2599
:103850000C94E925883FB1E09B0711F40C9499255D
:1038600014F40C9490258335F3E09F0711F40C9425
:10387000AA25873E934011F40C94DB250C94E9258E
:1038800080E50E945669882329F00E9421AA6B01D5
:103890007C0103C0C12CD12C760183E50E945669BE
:1038A000882361F00E945A6720E030E04AE754E440
:1038B0000E948FE70E9430EF6B017C010E94CB4099
:1038C00080917B0290917C02009739F02091EE0F5D
:1038D000211108C00E94379005C060E086ED96E097
:1038E0000E9466901091070383E08093070381E0B4
:1038F00080937A02C114D104E104F10431F00E94F2
:10390000337FC60ED71EE81EF91E80917A028823E7
:1039100011F40C944728C114D104E104F10411F40A
:103920000C9444280E94337FDC01CB018C199D0943
:10393000AE09BF09B7FF02C00C9444280C94472875
:103940008091760284FF02C00C944E288091780208
:1039500087FF02C00C944E2880917902837011F089
:103960000C944E2860E08DEC96E00E9466905E9884
:103970005E9815985E980C9409260E947C8C6B01C9
:103980007C0120E831E541E050E00E9466EDC9018C
:103990006DE671E00E94CFED4B015C01C701B601FD
:1039A00020E13EE040E050E00E9466EDCA01B9012E
:1039B00028E130E040E050E00E9466ED2B013C0140
:1039C0001B01C701B6012CE330E040E050E00E944B
:1039D00066ED6B017C01CA01B9012CE330E040E0E7
:1039E00050E00E9466ED8E010F5F1F4F811491041D
:1039F00099F0DF92CF927F936F935F924F92BF9235
:103A0000AF929F928F928CEA96E09F938F931F9331
:103A10000F930E94C4E613C0A114B104B1F0DF9269
:103A2000CF927F936F935F924F92BF92AF9280EB52
:103A300096E09F938F931F930F930E94C4E60FB657
:103A4000F894DEBF0FBECDBF32C04114510479F0EF
:103A5000DF92CF927F936F935F924F9284EB96E0C9
:103A60009F938F931F930F930E94C4E6E8CF611535
:103A7000710569F0DF92CF927F936F9388EB96E0A8
:103A80009F938F931F930F930E94C4E6D8CFDF922A
:103A9000CF928CEB96E09F938F931F930F930E948E
:103AA000C4E60F900F900F900F900F900F908091A1
:103AB000EE0F811103C0C8010E9437900E94C3C35A
:103AC000B80180EC96E00E94B3C38AE00E94782E91
:103AD0000C9409260E942BA90C9409260E9431AA55
:103AE0000C94092680E50E9486678823A1F00E9435
:103AF0005A6720E030E048EC52E40E948FE70E94D1
:103B000030EF6031F7E27F0710F060E177E2709309
:103B100071026093700282E50E948667882311F427
:103B20000C9409260E9421AA9B01AC01ACE3B0E0F1
:103B30000E94A4ED609372027093730280937402EA
:103B4000909375020C9409268091F20F813011F048
:103B50000C94092682E08093F20F0E94337F6093D9
:103B60006C0270936D0280936E0290936F020C94BE
:103B700009260E94CB8C0C94092680916B0A83FF46
:103B800002C00C9409260E94E4A887FF02C00C948E
:103B9000092683E50E945669882379F00E945A67B6
:103BA0000E942BEFCB010E943F970E9482998111C6
:103BB00004C00E94CB8C0E94CDD60E9427400C945A
:103BC00009260E94E4A8182F87FD0AC081EB92E025
:103BD0000E94FCC2812F0E944F978AE00E94782E9B
:103BE0002AA5209307030C94E52B60E080E50E9452
:103BF0006E6981110C94092681E40E9486678823EE
:103C000029F06091A704062F10E002C00FEF10E02A
:103C100083E50E945669882349F00E9427678B013B
:103C20006F3F710519F010F00FEF10E0B80180E060
:103C30000E94FECFEEC760E080E50E946E6960E002
:103C400070E00E94FECFE5C78EE40E94566988238B
:103C500009F4DFC70E9427676093680270936902C6
:103C600080936A0290936B02D4C783E50E948667B3
:103C7000882331F060E083E50E946E6980936B0ACF
:103C80000E94C3C385EA96E00E94FCC280916B0A41
:103C9000882369F177E5E72E77E0F72E00E010E062
:103CA00020E080916B0A90E0A0E0B0E0002E04C01C
:103CB000B695A795979587950A94D2F780FF0EC081
:103CC000DD24D394D20E222319F08CE20E94782EA8
:103CD000F701859194910E94FCC22D2D0F5F1F4F1B
:103CE00032E0E30EF11C05301105D9F604C081EA7B
:103CF00096E00E94FCC28AE00E94782E8AC783E583
:103D00000E945669882371F00E943767282F30E09F
:103D10002D3331051CF4809320017BC78CE3809305
:103D2000200177C70E94C3C3C0902001D12CE12C91
:103D3000F12C8AE996E00E94FCC24AE0C701B60174
:103D40000E947F2E8AE00E94782E63C780916B0AC2
:103D500083FD5FC783E50E945669882309F459C72C
:103D60000E945A670E942BEF6337710514F063E7D6
:103D700070E070936602609365020E94C6950E948F
:103D80008299811146C70E94CB8C0E94CDD641C733
:103D900080916B0A83FD3DC783E50E945669082F19
:103DA00081110C94602882E50E94566981110C945F
:103DB00060282FC783E50E945669882309F429C724
:103DC0000E943767182F90E0CD970CF01CE31093FA
:103DD00058020E94337F6B017C01212F30E0A8EE56
:103DE000B3E00E94B4EDC60ED71EE81EF91EC092C5
:103DF0005402D0925502E0925602F092570209C73F
:103E00000E9495990E94CB8C0E94DB400E9426A9BB
:103E1000109253021092520268EE73E080E090E03C
:103E20000E94BAC260E082E796E00E946690F1C606
:103E3000809103038F7E806280930303EAC683E54B
:103E40000E945669882399F00E945A6720E030E06A
:103E50004AE754E40E948FE70E9430EF60931B0111
:103E600070931C0180931D0190931E01D2C6809116
:103E7000760284FF02C00C94D2298091780287FFD9
:103E800002C00C94D22980917902837011F00C94B5
:103E9000D2290E94DB40BDC683E50E948667882345
:103EA00009F4B7C60E94337F6093590270935A0297
:103EB00080935B0290935C020E945A6720E030E09E
:103EC0004AE754E40E948FE70E9430EF60934E026D
:103ED00070934F0280935002909351029AC60E94B1
:103EE000E4A887FD96C69091760294FD04C0909157
:103EF000780297FF0AC04CEEC42E41E0D42E5CE657
:103F0000E52E5AE0F52E10E009C0909179029370E9
:103F100091F7682F81E00E94E6A97BC6D6018D91BA
:103F20006D010E945669882309F459C0133009F0C5
:103F30004FC00E945A674B015C0120E030E040EA2C
:103F400051E40E942AE787FF3AC0A50194016091DD
:103F50008C0A70918D0A80918E0A90918F0A0E942E
:103F6000C3EE2B013C019B01AC0160919C0A709156
:103F70009D0A80919E0A90919F0A0E948FE760930C
:103F80009C0A70939D0A80939E0A90939F0A609169
:103F90009B0470919C0480919D0490919E040E94CA
:103FA0002EE7A30192010E948FE70E9430EF6093F9
:103FB0009B0470939C0480939D0490939E04809234
:103FC0008C0A90928D0AA0928E0AB0928F0A07C036
:103FD0000E945A67F701648B758B868B978B1F5FE6
:103FE000F4E0EF0EF11C143009F098CF0E94A740C6
:103FF00010C60E94E4530DC680917B0290917C0212
:10400000009759F0DC012C91222339F02091EE0F1A
:104010002111FFC50E943790FCC50E94CDD6F9C57D
:1040200000917B0210917C0294E0F12C40E09150D1
:1040300021F1F8018081282F2B7F213421F4218167
:104040002133D9F407C08035C1F4818180538A308F
:1040500048F013C0813421F0853421F441E002C0DE
:10406000FF24F39498012E5F3F4F89012F5F3F4F4C
:10407000F80180818032C9F3DACF41110E94C3C3B5
:10408000FF2021F08AE594E00E94FCC2C8010E9452
:10409000692FBFC520939A02209399020E94D8A845
:1040A000B8C560E070E083E50E9462698C01112769
:1040B000023011053CF00E94C0C388E394E00E94E6
:1040C000FCC2A7C588E40E9456698823A9F00E9413
:1040D00057678A3A91053CF08530F1E09F072CF054
:1040E00084E091E002C08AEA90E0F801EE0FFF1F41
:1040F000E65BFD4F9183808386E40E9456698823A6
:1041000081F00E94576797FD07C08F3F910529F006
:1041100024F08FEF90E001C080E0F801E85BFD4FF4
:10412000808382E40E945669882309F472C50E9444
:1041300057678530910534F0843791052CF083E77B
:1041400090E002C085E090E0000F111FF801EC5BE9
:10415000FD4F918380835DC50E94E4A887FD59C50A
:104160008CEEE82E81E0F82E0CE61AE09CE7C92ED2
:104170009AE0D92ED7018D917D010E948667882310
:1041800059F00E945A670E9430EFF80160837183F2
:10419000828393830E9466400C5F1F4FC016D10636
:1041A00049F737C50E94E4A887FD33C50CEEE02E21
:1041B00001E0F02E0CE61AE0D7018D917D010E94FE
:1041C0008667882339F00E945A67F80164A375A3B3
:1041D00086A397A30C5F1F4FFAE00C371F0761F708
:1041E00018C58091770287FF02C00C94F72980914F
:1041F00078028E7011F00C94F7294091A00A50912A
:10420000A10A6091A20A7091A30A88E294E00E9438
:1042100095C34091A40A5091A50A6091A60A709195
:10422000A70A85E294E00E9495C34091A80A5091A4
:10423000A90A6091AA0A7091AB0A82E294E00E94F6
:1042400095C38AE00E94782EE4C48091760281FFB3
:1042500002C00C943D2A8091770281FF02C00C9429
:104260003D2A809178028C7011F00C943D2AD1C4C3
:1042700018E3E12E12E0F12E10E088E5810F0E9494
:104280008667882359F00E945A67D7016D937D9302
:104290008D939C931397812F0E9457A11F5FB4E0C9
:1042A000EB0EF11C133049F70C943A194090D60FDD
:1042B0005090D70F6090D80F7090D90F20910301C4
:1042C000309104014091050150910601C301B201F2
:1042D0000E9449EE6E8F7F8F88A399A38090DA0F9A
:1042E0009090DB0FA090DC0FB090DD0F20910701C4
:1042F000309108014091090150910A01C501B401B2
:104300000E9449EE6AA37BA38CA39DA3C090DE0FFD
:10431000D090DF0FE090E00FF090E10F20910B01C3
:1043200030910C0140910D0150910E01C701B60171
:104330000E9449EE6EA37FA388A799A720910F0141
:10434000309110014091110150911201C301B2014D
:104350000E9449EE2B013C01209113013091140180
:104360004091150150911601C501B4010E9449EE1A
:104370004B015C0120911701309118014091190106
:1043800050911A01C701B6010E9449EE6B017C01F0
:104390000E94C3C383EF93E00E94FCC283E50E94A6
:1043A0008667882321F00E944867809302018091EC
:1043B0000201882319F087ED9CE102C089E995E0AC
:1043C0000E94FCC28BEE93E00E94FCC24E8D5F8D7A
:1043D00068A179A185E59BE20E9495C34AA15BA1F2
:1043E0006CA17DA18AEC97E20E9495C34EA15FA1CA
:1043F00068A579A583EC97E20E9495C388E69AE1C7
:104400000E94FCC283EE93E00E94FCC2B301A201B1
:1044100085E59BE20E9495C3B501A4018AEC97E271
:104420000E9495C3B701A60183EC97E20E9495C351
:104430008AE00E94782EEDC383E50E9456698823A6
:1044400031F00E945767909322018093210180915F
:10445000760290917702A0917802B0917902892B2F
:104460008A2B8B2B09F0D5C3609121017091220119
:104470008FED93E00E94A6C385E20E94782E8AE029
:104480000E94782EC6C30E94E4A8F82E87FDC1C3FF
:1044900083E50E9456690F2D0F2C000C110B882309
:1044A00009F10E945767F801EE0FFF1FE050FF4F20
:1044B00091838083000F111F000F111F0C5C1E4F92
:1044C000BC01990F880B990B0E9430E72AE037ED69
:1044D00043E25CE30E948FE7F8016083718382838B
:1044E000938397C30E94C3C385E40E94782E80E320
:1044F0008F0D0E94782E000F111FF801E050FF4F22
:104500006081718187ED93E00E94A6C385E20E94DD
:10451000782E8AE00E94782E7CC380E50E94866710
:10452000882309F476C360E070E080E50E94626948
:104530008C016FEF7FEF83E50E9462697C01019639
:10454000039708F066C307FD64C3802F0E94282CE0
:10455000882339F00E94C0C388EC93E00E94FCC21B
:1045600058C30E94CB40D02E60E0802F0E949CB1A7
:10457000FFEFEF16FF0629F021E0E216F10459F0F3
:1045800007C0802F0E9448B101E010E0892B29F07C
:1045900000E010E002C001E010E08D2D0E9448B163
:1045A0008017910709F435C30E94892FF6CF80E563
:1045B0000E948667882309F42CC30E9457678C01E8
:1045C000892B09F07FC083E50E948667882389F0E4
:1045D0000E9457678F3F3FEF930729F48FE59EE0D6
:1045E0000E94482C16C3BC018FE59EE00E94E22C7D
:1045F00010C30E94C3C360E070E080EC93E00E94AF
:10460000A6C38091610E28E532E06901C81AD1087D
:1046100087FDD394CC0CDD1CCC0CDD1C0D2C000CC8
:10462000EE08FF088091600E28E830E04901881A02
:10463000910887FD9394880C991C880C991C092C6F
:10464000000CAA08BB0880915F0E8F3FC1F090E07C
:10465000FC01EE0FFF1F8E0F9F1FFC01E65CF14F68
:104660002181328143E0220F331F4A95E1F754E064
:10467000369527955A95E1F72E5F3F4F02C020E00F
:1046800030E02F5F3F4FC901330FAA0BBB0B9C01DA
:10469000AD01281939094A095B09A4EBB0E00E9471
:1046A000A4EDA7019601281939094A095B090E945E
:1046B00088EDB9018FEA99E20E94A6C38AE00E94C0
:1046C000782EA7C20E94C0C3B80181EC93E00E947B
:1046D000A6C383EF96E00E94FCC29BC28AE50E94BB
:1046E0005669811106C083E50E945669882309F442
:1046F0004BC00E945A6720E030E040E050EC0E943E
:104700002AE787FD19C70E945A6720E030E040E0A1
:1047100050E40E94E8EF18160CF408C70E945A678C
:104720006B017C018091D40F8695869580FF22C015
:104730002091880A3091890A40918A0A50918B0A07
:10474000C701B6010E948FE70E942BEF209136022D
:1047500030913702260F371F3093370220933602ED
:104760002091340230913502620F731F709335022D
:104770006093340280E50E948667882309F4E2C6CC
:104780000E9448678111DEC68091780287FDFFC6CE
:1047900080917902837009F0FAC60E94C3C34091E8
:1047A000EA0F5091EB0F6091EC0F7091ED0F81EBE0
:1047B00093E00E9495C38AE00E94782E2AC260E0AE
:1047C00085E40E946E69811173C080E50E9486674E
:1047D000882351F00E945A6760932E0E70932F0E1B
:1047E0008093300E9093310E89E40E94866788236F
:1047F00081F00E945A672CEA35EC47E25EE30E94A2
:104800008FE76093320E7093330E8093340E909343
:10481000350E84E40E948667882381F00E945A67DF
:104820002CEA35EC47E25EE30E94C3EE6093360E5D
:104830007093370E8093380E9093390E0E94C3C345
:1048400040912E0E50912F0E6091300E7091310ECE
:104850008DEA93E00E9495C32CEA35EC47E25EE3D3
:104860006091320E7091330E8091340E9091350E1E
:104870000E94C3EEAB01BC0189EA93E00E9495C39C
:104880002CEA35EC47E25EE36091360E7091370E0C
:104890008091380E9091390E0E948FE7AB01BC01D8
:1048A00085EA93E00E9495C38AE00E94782EB1C108
:1048B0000E94C0C383E993E00E94FCC2AAC183E5C1
:1048C0000E948667182F882371F00E945A670E9401
:1048D0002BEF709339016093380121E0672B09F0C9
:1048E00020E02093B80480E50E948667882359F071
:1048F0002091380130913901232B11F00E94486733
:104900008093B80486C1111184C10E94C3C380E89A
:1049100093E00E94FCC28091B804882319F080E6DD
:1049200094E102C087E693E00E94FCC260913801E6
:10493000709139018FE693E00E94A6C38BE693E065
:104940000E94FCC266C10E949D4C63C18091D50F3C
:1049500081110C943A1981E00E94333F0C943A196A
:104960000E94CF6756C16FEF7FEF89E40E946269B2
:104970008C016FEF7FEF8AE40E9462697C018AE517
:104980000E945669811108C081E50E945669B82EBF
:10499000882309F402C601C0B12CA02E81E0800F4B
:1049A000843008F051C09E2C81E08E0D843008F0D8
:1049B0004BC0102F0E945A672B013C01802E07FD2F
:1049C000812C17FF02C0A2E0AA2E8E2DE7FCE12C5D
:1049D00087FF02C0F2E09F2EA81408F41AC1FE2C33
:1049E000882D90E06C01CC0CDD1CC80ED91E9F14E4
:1049F00048F10F2D10E0BB2071F0F601E00FF11F20
:104A0000EE0FFF1FEE0FFF1FE05FFD4F2081318192
:104A10004281538103C020E030E0A9010C0D1D1D2F
:104A2000000F111F000F111F005F1D4FC301B201C6
:104A30000E9449EED8016D937D938D939C931397BB
:104A4000F394D5CF8394C8CF0E94C0C389EE96E07B
:104A50000E94FCC2DEC00E94ECD68111DAC00BE4D9
:104A600017E0EBE7F4E0FF8FEE8F9E012F5F3F4FE3
:104A7000190199E7C92E97E0D92E7901C8010E9442
:104A8000A6AEAE8DBF8D8D909D90AD90BD90BF8F29
:104A9000AE8FA50194010E9448EE2B013C01F70165
:104AA000608371838283938320E030E040EA51EC9D
:104AB0000E94E8EF87FD0AC020E030E040EA51E4C0
:104AC000C301B2010E942AE718162CF4F601849162
:104AD00018160CF469C5D7018D909D90AD90BD90CE
:104AE0007D0120E030E040EA51ECC501B4010E94B4
:104AF000E8EF87FD64C520E030E040EA51E4C501FD
:104B0000B4010E942AE718160CF067C558C50E9428
:104B10009F907FC00E9405D47CC00E94F6D279C0CD
:104B200061E083E50E94786991E089270E9413D4AF
:104B300070C081E080930F020E943DB810920F0276
:104B4000882309F466C00E94C3C380E093E00E94FA
:104B5000FCC25FC08091780287FD69C580917902AF
:104B6000837009F064C54091E20F5091E30F6091AA
:104B7000E40F7091E50F81EF92E00E9495C34091A0
:104B8000E60F5091E70F6091E80F7091E90F8AEC02
:104B900097E20E9495C34091EA0F5091EB0F60910C
:104BA000EC0F7091ED0F83EC97E20E9495C38AE0C1
:104BB0000E94782E2EC081E0809302031092EE0FA7
:104BC00060E083E50E947869811123C00E94085249
:104BD00020C00E94DED61DC0009104031091050381
:104BE0000023B9F00E94C3C384E50E94782EB80167
:104BF0007727072E000C880B990B0E94D92E80E294
:104C00000E94782E83E993E00E94FCC202C00E94B9
:104C1000DED6E0910E02F0E0E553F14F808188236B
:104C200039F081EB92E00E94FCC28AE00E94782E6B
:104C30003AA530930703C9C50E94CB4030909B0230
:104C400080E00E94E9BF0E94F2A481E080939A0272
:104C50000E94D8A88AE50E948667082F8823A1F0C1
:104C600081E00E9477A1F82E82E00E9477A111E0F6
:104C7000811101C010E0F110A3C588E50E9486678C
:104C8000F82E8111ECC102C010E0F7CF11110DC058
:104C900089E50E948667182F8F1107C01F2D011309
:104CA000E2C111E0FF24F39401E080E1EBE7F4E0DE
:104CB000A2EFB2E001900D928A95E1F782E50E94A1
:104CC0005669882361F00E945A674B015C0120E01D
:104CD00030E0A9010E942AE78823D1F106C0812C87
:104CE000912CB0EAAB2EB0E4BB2E8091D40F82FDA4
:104CF00009C060918304709184048091850490912F
:104D0000860403C060E070E0CB01A50194010E941D
:104D100049EE6093FA027093FB028093FC02909339
:104D2000FD022091830430918404409185045091C8
:104D300086040E94E8EF18165CF419821A821B821E
:104D40001C82BE016F5F7F4F8AEF92E00E94DAA55E
:104D5000FF2009F4C8C0112309F4C2C010927B04DB
:104D600010927C0410927D0410927E0410927F04B5
:104D70001092800410928104109282040E948DA6E9
:104D8000E9E7F7E024908DE697E00E94A6AE4B019C
:104D90005C0181E797E00E94A6AE2B013C019B01DC
:104DA000AC01C501B4010E94E8EF18162CF4A5016E
:104DB0009401C301B20104C0A3019201C501B40171
:104DC0000E94C3EE6E8F7F8F88A399A3E5E6F7E07C
:104DD00085919591A591B4918AA39BA3ACA3BDA302
:104DE000E1E6F7E0C590D590E590F490A701960133
:104DF000BC01CD010E94E8EF181624F0CAA0DBA088
:104E0000ECA0FDA02E8D3F8D48A159A1CA01B9018A
:104E10000E948FE720E030E040E85FE30E9449EE27
:104E20000E9427F0A70196010E948FE76A8F7B8F6F
:104E30008C8F9D8FEAE7F7E0F49020E030E040ECC3
:104E40005FE3C301B2010E948FE72B013C016F2D8C
:104E5000FF0C770B880B990B0E9430E79B01AC018C
:104E6000C301B2010E948FE769837A838B839C839D
:104E700020E030E040EC5FE3C501B4010E948FE721
:104E80006B017C01622D022C000C770B880B990BB7
:104E90000E9430E79B01AC01C701B6010E948FE779
:104EA0006E8B7F8B888F998FAE01465E5F4FBE0100
:104EB0006F5F7F4FCE0146960E94B9A50E94C0D277
:104EC00010927B0410927C0410927D0410927E0458
:104ED00010927F0410928004109281041092820438
:104EE00080E00E948FA6112319F081E00E948FA616
:104EF000002309F4A3C080E00E94D86E8091D40FF3
:104F00008370833051F060E084E397E00E94669004
:104F10000E94C3C385E297E0B1C00E948DA6409075
:104F200083045090840460908504709086042091DE
:104F3000E20F3091E30F4091E40F5091E50F60E0F4
:104F400070E08AEE92E40E9448EE6B017C0160936F
:104F5000F2027093F3028093F4029093F502209191
:104F6000E60F3091E70F4091E80F5091E90F60E0B4
:104F700070E08AEE92E40E9448EE4B015C0160937F
:104F8000F6027093F7028093F8029093F902209151
:104F9000EA0F3091EB0F4091EC0F5091ED0FC301F0
:104FA000B2010E9448EE6093FA027093FB02809374
:104FB000FC029093FD0227E137EB41ED58EBC50170
:104FC000B4010E94E8EF87FD50C027E030E04BE6D7
:104FD00053E4C501B4010E942AE718160CF445C039
:104FE00027E137EB41ED58EBC701B6010E94E8EF2E
:104FF00087FD3BC027E030E04BE653E4C701B60134
:105000000E942AE718168CF11E8A1F8A188E198EA4
:1050100088E0E2EFF2E0DE01119601900D928A95B0
:10502000E1F7AE014A5E5F4FBE016B5F7F4FCE017D
:1050300001960E94B9A582E00E948FA60E948DA6CB
:105040008091990280939A02832D0E94E9BF0E9469
:10505000D9A483E0809323010E9418A8DACD1123FC
:1050600009F416CE1CCEF12E20CE60E084E197E04C
:105070000E9466900E94C3C382E097E00E94FCC237
:10508000DDCF0E948969C5CD44D70C94851C109250
:105090007A02109307030E94CDD6BBCD88E50E940B
:1050A000866781115E9889E50E94866781115E9806
:1050B0008AE50E948667882309F4ABCD1598A9CDAF
:1050C0000E945A670E942BEF633771050CF067C18D
:1050D00070936602609365020E94C6950E94829951
:1050E000811177D36091650270916602072E000CE2
:1050F000880B990B0E9430E7209161023091620287
:1051000040916302509164020E94E8EF18161CF46B
:105110008BE896E002C08CE796E060E00E94669023
:1051200081E080931F011EA21FA218A619A61BA62C
:105130001CA61DA61EA610E080E09CE3ACE1B6E430
:105140008FA798ABA9ABBAABC12CD12C60E8E62EE7
:105150006FEBF62E33243394412C512C32016091A5
:10516000650270916602072E000C880B990B0E9455
:1051700030E74B015C01A70196010E942AE78823D2
:10518000F9F02091610230916202409163025091E6
:105190006402C501B401011107C00E942AE7182F5B
:1051A000111F1127111F10C00E942AE787FF0BC093
:1051B00080911F01882309F42CCD0E94CDD629CDE2
:1051C0004601570101C010E00E94337F6B017C0152
:1051D000DC01CB012BA53CA54DA55EA5821B930B45
:1051E000A40BB50BB7FD30C0D701C60188519C4F49
:1051F000AF4FBF4F8BA79CA7ADA7BEA780E00E9473
:105200004F9787E892E00E94FCC241145104610468
:105210007104B1F0D301C201805F984DAF4FBF4F11
:10522000BC01CD016C197D098E099F0928EE33E080
:1052300040E050E00E9466EDCA01B901BAD502C053
:105240008FE356D58AE054D564D60E94337F6093AD
:10525000590270935A0280935B0290935C022091F2
:1052600061023091620240916302509164022AA36C
:105270003BA34CA35DA3C501B4010E9448EE6E8F11
:105280007F8F88A399A320E030E0A9010E94E8EF76
:1052900087FF09C08E8D9F8DA8A1B9A1B0588E8FB0
:1052A0009F8FA8A3B9A34114510461047104B9F4F8
:1052B00020E030E040E85FE36E8D7F8D88A199A10A
:1052C0000E942AE787FF19C0260137013320A9F081
:1052D00090E1490E97E2591E611C711C0EC020E03E
:1052E00030E040E450E46E8D7F8D88A199A10E944A
:1052F000E8EF181614F4260137011123A9F12EA1A5
:105300003FA148A559A5211531054105510541F099
:10531000D701C601821B930BA40BB50BB7FD24C0AC
:105320002AA13BA14CA15DA16FA578A989A99AA941
:105330000E9448EE20E030E040E85FE30E942AE768
:1053400087FD36CFD701C601805A9541AF4FBF4F79
:105350008EA39FA3A8A7B9A72AA13BA14CA15DA199
:105360002FA738AB49AB5AAB80911F01882309F4B2
:105370001FCF411451046104710421F4312C7501D3
:105380006401EDCE30E1C31A37E2D30AE108F10837
:10539000C418D508E608F708F7FCF0CF09CF63E793
:1053A00070E096CE0E94CB4088E50E9486678823F5
:1053B00031F05E9A8091D40F8E7F8093D40F89E56F
:1053C0000E948667882331F05E9A8091D40F8D7F8A
:1053D0008093D40F8AE50E948667882309F419CC4C
:1053E000159A8091D40F8B7F8093D40F12CC83E5D4
:1053F0000E945669882391F00E945A676093A00A20
:105400007093A10A8093A20A9093A30A6093A80ABA
:105410007093A90A8093AA0A9093AB0A80E50E9430
:105420005669882351F00E945A676093A00A7093CE
:10543000A10A8093A20A9093A30A82E50E9456696A
:10544000882351F00E945A676093A40A7093A50ABA
:105450008093A60A9093A70A84E50E945669882340
:1054600009F4D7CB0E945A676093A80A7093A90ADF
:105470008093AA0A9093AB0ACCCB82E40E94866701
:10548000882351F00E9421AA60937C0A70937D0AC0
:1054900080937E0A90937F0A83E50E948667882323
:1054A00051F00E945A676093AC0A7093AD0A8093E2
:1054B000AE0A9093AF0A84E50E948667882351F074
:1054C0000E945A676093B00A7093B10A8093B20A3F
:1054D0009093B30A8AE40E948667882309F499CBE3
:1054E0000E945A676B017C012AE037ED43E25CE3DE
:1054F0000E94E8EF87FD13C02AE939E949E95EE334
:10550000C701B6010E942AE718164CF0C0928B041E
:10551000D0928C04E0928D04F0928E047ACB0E949B
:10552000C0C383E094E00E94FCC273CBC12CD12C99
:10553000E12C80E4F82EF6C8C12CD12CE12CB0EC83
:10554000FB2EF0C8A70196016091EA0F7091EB0F56
:105550008091EC0F9091ED0F0E9449EE6093EA0F5D
:105560007093EB0F8093EC0F9093ED0F0E94C3C3E9
:105570004091EA0F5091EB0F6091EC0F7091ED0F9D
:1055800081EB93E00E9495C38AE0B2D3FDC882E527
:105590000E948667811101C93CCB0E94C0C387E489
:1055A00093E00E94FCC235CBB7FAB094B7F8B09440
:1055B000D7018D929D92AD92BC9213978CCA0E9496
:1055C000C0C389E293E00E94FCC261E08BE193E0FA
:1055D0000E9466900E9470C51CCB0C5F1F4FBFEFEE
:1055E000CB1ADB0AE7E5F7E0E017F10709F046CA56
:1055F00088E3E82E82E0F82E10E0F101819191918C
:10560000A191B1911F01F70181939193A193B1935E
:105610007F01812F0E9457A11F5F133071F70E94F5
:1056200018A860E08BE093E00E946690F2CA209197
:10563000E20F3091E30F4091E40F5091E50F2E8F70
:105640003F8F48A359A34090E60F5090E70F60901A
:10565000E80F7090E90FC090EA0FD090EB0FE09048
:10566000EC0FF090ED0F88E50E945669882361F1F8
:105670000E945A674B015C0120E030E04BE653EC9E
:105680000E94E8EF87FD0AC020E030E04BE653E4DB
:10569000C501B4010E942AE7181694F46BEE70E07D
:1056A0008EED92E00E94A6C36BEE70E089ED92E071
:1056B0000E94A6C38CED98E20E94FCC210E005C0D7
:1056C0008E8E9F8EA8A2B9A211E089E50E9456692C
:1056D000882351F10E945A674B015C0120E030E0C1
:1056E0004BE653EC0E94E8EF87FD0AC020E030E073
:1056F0004BE653E4C501B4010E942AE7181694F45E
:105700006BEE70E086EC92E00E94A6C36BEE70E058
:1057100089ED92E00E94A6C38CED98E20E94FCC243
:1057200010E002C0240135018AE50E9456698823F1
:1057300039F10E945A676B017C0120E030E040EAB9
:1057400051EC0E94E8EF87FD0AC020E030E040EA1B
:1057500051E4C701B6010E942AE718168CF46CEEDA
:105760007FEF84EB92E00E94A6C364E170E089EDD4
:1057700092E00E94A6C38CED98E20E94FCC249CA46
:10578000112309F446CA2E8D3F8D48A159A12093BB
:10579000E20F3093E30F4093E40F5093E50F4092F4
:1057A000E60F5092E70F6092E80F7092E90FC092F7
:1057B000EA0FD092EB0FE092EC0FF092ED0F29CAB6
:1057C00081116FCAFF24F39463CAE296E2E10C945C
:1057D0002DEE8091F20F823059F0109272021092E9
:1057E000730210927402109275028130C9F4089508
:1057F0000E947C8C6093F60C7093F70C8093F80CED
:105800009093F90C81E08093F20F0E94337F6093B4
:10581000FA0C7093FB0C8093FC0C9093FD0C089594
:105820000E94B08CEFCF5E9A08955E9A8091D40F5B
:105830008E7F8093D40F5E9A8091D40F8D7F80935A
:10584000D40F159A8091D40F8B7F8093D40FEBCF18
:10585000A1E0B0E0EEE2FCE20C941EEEF82E05E9C9
:1058600018E041E050E0B801CE0101960E946AE6DE
:1058700089818F1102C081E007C00F5F1F4F88E050
:105880000D3A180771F780E02196E5E00C943AEEA6
:10589000DC01EC91F0E0CF01880F991FE80FF91FB0
:1058A000E65CF14F80818F77808308958F929F927D
:1058B000AF92BF92CF92DF92EF92FF920F93CF936E
:1058C000DF931F92CDB7DEB75C016B017A0149010E
:1058D000F501808191810E9441ED8983002311F0BF
:1058E000F6018083BE016F5F7F4FC4010E9429656E
:1058F000F50180819181019691838083FFEFCF1A1A
:10590000DF0A81E0E81AF10819F780E00F90DF91D3
:10591000CF910F91FF90EF90DF90CF90BF90AF901D
:105920009F908F900895A1E0B0E0E9E9FCE20C942B
:1059300016EE7C0159018B016B01C40ED51E0C15AE
:105940001D0559F1F70180809180F80171908F0158
:105950007982C4010E9441ED781691F0672DC4014F
:105960000E9449EDC4010E9441ED9981891741F0DF
:105970000E94C3C38CE797E00E94FCC281E00EC086
:10598000BE016F5F7F4FC5010E942965F7018081CD
:105990009181019691838083D2CF80E02196EDE0C2
:1059A0000C9432EE1092900082E08093910010925D
:1059B000950010929400C19AE1E7F0E08081826046
:1059C00080830895A0E0B0E0E8EEFCE20C9416EECF
:1059D000FC0190819C3008F0C1C06B017F01892FD0
:1059E00090E0FC01EE0FFF1F8E0F9F1FFC01E65C95
:1059F000F14F808161E08F770E949CB1F7011182A5
:105A0000128280816CE00E94C3EDFCE08F9FB001A8
:105A1000112440E050E09B01240F351FF901EE0FE7
:105A2000FF1F2E0F3F1FF901E65CF14F908197FD9C
:105A300008C04F5F5F4F4C30510569F7811101C0BD
:105A4000B1DFF7017080C72DD0E08E01000F111F6C
:105A5000F801EC0FFD1FE65CF14F808180688083C8
:105A600077FC7CC0F0E2CF16F2E0DF060CF041C01C
:105A7000F701828128E532E0281B310987FD339543
:105A8000220F331F220F331F032E000C440B550B24
:105A9000818168E870E04B01881A910887FD939432
:105AA000880C991C880C991C092C000CAA08BB08AE
:105AB000D7FC0BC0B601653B710514F064EB70E0D8
:105AC000072E000C880B990B03C060E070E0CB013F
:105AD000281939094A095B090E9457ED24EB30E087
