:100000000C947C160C94A6160C94A6160C94A616AA
:100010000C9408D40C9408D40C9408D40C9408D4F0
:100020000C94A6160C94A6160C94A6160C94A61660
:100030000C94A6160C94DC680C94A6160C94A616C8
:100040000C94A6160C94F3940C9417670C94A616B3
:100050000C947AB80C9470B80C94A6160C94A6164E
:100060000C94A6160C94A6160C94A6160C94A61620
:100070000C94A6160C94A6160C94A6160C94A61610
:100080000C949AB60C94A6160C94A61674A877A88D
:100090006AA86EA88EA88EA87BA87FA885A889A824
:1000A000ACB8BCB8CDB8D8B8E0B8F7B8E4B8F7B8D1
:1000B000E8B8ECB8F7B8F2B868C926C859C8A4C9F6
:1000C00059C859C859C859C859C859C859C859C828
:1000D00059C859C859C859C859C859C859C859C818
:1000E00059C859C859C859C859C859C859C859C808
:1000F00059C859C89EC959C859C859C859C859C8B2
:1001000059C859C859C877C959C859C859C859C8C8
:1001100059C859C859C859C859C859C8BBC956C877
:1001200075CC7ACC7FCC89CCB7CCB7CC93CC9BCCDC
:10013000A3CCADCC05A84CCDB2D44EB93836A9026B
:100140000C50B9918688083CA6AAAA2ABE000000D5
:10015000803F4E414E494E495459494E46CDCCCC34
:100160003D0AD7233C17B7D13877CC2B329595E68B
:10017000241FB14F0A000020410000C84200401C6B
:100180004620BCBE4CCA1B0E5AAEC59D7400407AB8
:1001900010F35A00A0724E18090010A5D4E8000010
:1001A000E87648170000E40B54020000CA9A3B00AE
:1001B0000000E1F505000080969800000040420F25
:1001C000000000A08601000000102700000000E8E9
:1001D00003000000006400000000000A00000000AE
:1001E000000100000000002C76D888DC674F08234F
:1001F000DFC1DFAE59E1B1B796E5E3E453C63AE6B5
:1002000051997696E8E6C28426EB898C9B62ED4094
:100210007C6FFCEFBC9C9F40F2BAA56FA5F49005E3
:100220005A2AF75C936B6CF9676DC11BFCE0E40D17
:1002300047FEF520E6B500D0ED902E03009435770B
:10024000050080841E080000204E0A000000C80C33
:10025000333333330F986E12831141EF8D2114899C
:100260003BE65516CFFEE6DB18D1844B381BF77CF6
:100270001D901DA4BBE424203284725E228100C93B
:10028000F124ECA1E53D2720573A00434F4D4D5551
:100290004E49434154494F4E0044525952554E0025
:1002A0004552524F525300494E464F004543484F26
:1002B000006F6B003F5A206F7574206F662072616B
:1002C0006E67652028003F59206F7574206F662087
:1002D00072616E676520282D0020746F20003F58E2
:1002E000206F7574206F662072616E676520282DFF
:1002F0000050726F6265204F666673657420580007
:10030000454550524F4D204F4B0A004F666673656E
:100310007473204170706C696564004572723A2094
:10032000546F6F206661722100546F6F2066617296
:100330002066726F6D207265666572656E636520FA
:10034000706F696E740A004D34323120696E636FCC
:10035000727265637420706172616D65746572207C
:1003600075736167650A006469730043290A006157
:10037000626C656420286D696E2074656D70200064
:10038000436F6C6420657874727564657320617264
:10039000652000496E76616C6964206578747275B9
:1003A0006465720A0020643A0020693A0020703ABD
:1003B0000050726F6265204F6666736574205A0044
:1003C00020536572766F200050726F746563746598
:1003D000642050696E0A0020466C6F773A20004610
:1003E000523A0020204D61783A200020204D696E5D
:1003F0003A2000536F667420656E6473746F707377
:100400003A20005741524E494E4721204C6F7720E9
:100410005A204A65726B206D6179206C6561642099
:10042000746F20756E77616E74656420706175738A
:1004300065732E0A00205400205200416363656CEE
:1004400065726174696F6E3A2050004D3134352009
:10045000533C696E6465783E206F7574206F66202A
:1004600072616E67652028302D31290A002F2F20F8
:10047000004348414D4245525F54454D504552411D
:100480005455524500424142595354455050494EEB
:1004900047004D4F54494F4E5F4D4F444553005414
:1004A0004845524D414C5F50524F54454354494F7B
:1004B0004E004C4F4E475F46494C454E414D45001E
:1004C0004155544F5245504F52545F53445F53541B
:1004D00041545553005344434152440050524F4DF0
:1004E00050545F535550504F525400454D4552475C
:1004F000454E43595F504152534552004341534585
:100500005F4C494748545F4252494748544E45530F
:100510005300544F47474C455F4C4947485453009C
:10052000534F4654574152455F504F574552004232
:1005300055494C445F50455243454E54004C455636
:10054000454C494E475F44415441005A5F50524F19
:100550004245004155544F4C4556454C0050524978
:100560004E545F4A4F420050524F4752455353003A
:100570004155544F5245504F52545F54454D5000D1
:10058000564F4C554D45545249430042494E4152F5
:10059000595F46494C455F5452414E5346455200BF
:1005A00053455249414C5F584F4E5F584F464600A5
:1005B0004649524D574152455F4E414D453A4D6176
:1005C000726C696E206275676669782D322E302EE6
:1005D0007820284175672020342032303230203195
:1005E000373A32313A33312920534F555243455F20
:1005F000434F44455F55524C3A68747470733A2FB8
:100600002F6769746875622E636F6D2F4D61726C10
:10061000696E4669726D776172652F4D61726C69A2
:100620006E2050524F544F434F4C5F5645525349E2
:100630004F4E3A312E30204D414348494E455F548C
:100640005950453A4C756379202832303230303871
:1006500030342E63292045585452554445525F4347
:100660004F554E543A3120555549443A63656465B7
:10067000326132662D343161322D343734382D39C0
:100680006231322D6335356336326633363766660E
:100690000A004C75637920283230323030383034DB
:1006A0002E6329204F46462E0042656420436F6F1B
:1006B0006C696E672E2E2E00426564204865617459
:1006C000696E672E2E2E004D3131332053006F6638
:1006D000660044454255473A0025697920256964FA
:1006E000202569682025696D20256973005072698D
:1006F0006E742074696D653A20004E6F204D6F76E0
:10070000652E00436C69636B20746F2052657375AE
:100710006D652E2E2E004D65736820706F696E74A6
:10072000206F7574206F662072616E67650A005ACB
:100730002050726F62652050617374204265640AB4
:10074000005A2050726F62652050617374204265B8
:100750006400486F6D652058592066697273740A89
:1007600000486F6D652058592046697273740053B4
:100770006C6565702E2E2E00000000000000000049
:1007800000000000AC02A702A00299028B02000048
:100790004842000048420000A04100006B430000B6
:1007A0006B4300007A43FFFFFF24F4D43050C38E24
:1007B00020C2A24017828B7011127A910D816CD9E0
:1007C0000AA861E108C7586607615143061E4B5DE0
:1007D00005C145A7041A411104093D980371393137
:1007E000034036DB0265339102D4305402802E1D63
:1007F00002632CEE01752AC501B028A001102781E3
:10080000018F2564012B244B01E0223401AC211F10
:10081000018D200D01801FFC00841EED00971DDF5F
:1008200000B81CD200E61BC600201BBC00641AB234
:1008300000B219A8000A19A0006A189900D11791EE
:100840000040178B00B516840031167E00B3157971
:10085000003A157300C7146F0058146A00EE13664F
:10086000008813630025135E00C7125B006C1257EB
:100870000015125400C111510070114F0021114B8D
:1008800000D61049008D1047004610440002104267
:1008900000C00F4000800F3E00420F3C00060F3B9F
:1008A00000CB0E3800930E37005C0E3500270E3457
:1008B00000F30D3200C10D3100900D3000600D2E9F
:1008C00000320D2D00050D2C00D90C2B00AE0C298B
:1008D00000850C29005C0C2700350C27000E0C2627
:1008E00000E80B2400C40B2400A00B23007D0B2385
:1008F000005A0B2100390B2100180B2000F80A1FA9
:1009000000D90A1E00BB0A1E009D0A1D00800A1D98
:1009100000630A1C00470A1B002C0A1B00110A1A5C
:1009200000F7091A00DD091900C4091900AB0919FB
:1009300000920917007B091800630917004C09167B
:100940000036091600200916000A091500F50815D9
:1009500000E0081400CC081400B8081400A408141F
:1009600000900813007D0812006B0813005808124D
:100970000046081200340811002308110012081163
:100980000001081100F0071000E0071000D0071068
:1009900000C0071000B0070F00A107100091070E5C
:1009A0000083070F0074070F0065070E0057070E3E
:1009B0000049070E003B070D002E070E0020070D13
:1009C0000013070D0006070D00F9060C00ED060DDB
:1009D00000E0060C00D4060C00C8060C00BC060C97
:1009E00000B0060C00A4060B0099060C008D060B47
:1009F0000082060B0077060B006C060B0061060AEE
:100A00000057060B004C060A0042060A0038060A88
:100A1000002E060A0024060A001A060A001006091B
:100A20000007060A00FD050900F4050900EB0509A9
:100A300000E2050900D9050900D0050900C705092C
:100A400000BE050900B5050800AD050800A50509AB
:100A5000009C050800940508008C05080084050822
:100A6000007C050800740508006C05070065050892
:100A7000005D050700560508004E050700470507FD
:100A8000004005080038050700310507002A050762
:100A900000230507001C050600160507000F0507C3
:100AA000000805060002050700FB040600F5040720
:100AB00000EE040600E8040600E2040700DB04067A
:100AC00000D5040600CF040600C9040600C30406CE
:100AD00000BD040600B7040600B1040500AC04061E
:100AE00000A6040600A00405009B0406009504056A
:100AF00000900406008A04050085040500800406B1
:100B0000007A04050075040500700405006B0405F7
:100B10000066040500610405005C04050057040537
:100B200000520405004D0405004804050043040577
:100B3000003E0404003A04050035040500300404B6
:100B4000002C04050027040400230405001E0404EF
:100B5000001A04040016040500110404000D040426
:100B600000090405000404040000040400FC03045C
:100B700000F8030400F4030400F0030400EC030491
:100B800000E8030400E4030400E0030400DC0304C1
:100B900000D8030400D4030400D0030400CC0304F1
:100BA00000C8030300C503030024F404D9201BC4B8
:100BB0000C5C0E9804C4095F0265077101F405F925
:100BC00000FB04B30048048700C1036900580355C3
:100BD0000003034500BE023A008402310053022A9A
:100BE000002902250004022000E4011C00C80119AC
:100BF00000AF011700980114008401130071011067
:100C0000006101100051010E0043010D0036010B7F
:100C1000002B010B0020010B00150109000C01093C
:100C20000003010800FB000800F3000800EB0007C8
:100C300000E4000600DE000600D8000600D2000630
:100C400000CC000500C7000500C2000500BD00047F
:100C500000B9000400B5000400B1000400AD0004B8
:100C600000A9000400A5000300A20003009F0004E7
:100C7000009B00030098000300950002009300030E
:100C800000900003008D0002008B0003008800022A
:100C9000008600020084000300810002007F000241
:100CA000007D0002007B0002007900020077000155
:100CB0000076000200740002007200010071000260
:100CC000006F0002006D0001006C0002006A00016C
:100CD0000069000200670001006600010065000174
:100CE0000064000200620001006100010060000178
:100CF000005F0002005D0001005C0001005B00017C
:100D0000005A00010059000100580001005700017D
:100D1000005600010055000100540001005300007E
:100D20000053000100520001005100010050000179
:100D3000004F0001004E0000004E0001004D000178
:100D4000004C0001004B0000004B0001004A000174
:100D50000049000100480000004800010047000170
:100D6000004600000046000100450000004500016B
:100D70000044000100430000004300010042000065
:100D8000004200010041000000410001004000015C
:100D9000003F0000003F0001003E0000003E000157
:100DA000003D0000003D0001003C0000003C000050
:100DB000003C0001003B0000003B0001003A000045
:100DC000003A00010039000000390001003800003D
:100DD0000038000000380001003700000037000133
:100DE000003600000036000000360001003500002B
:100DF0000035000000350001003400000034000020
:100E00000034000100330000003300000033000113
:100E1000003200000032000000320001003100000A
:100E200000310000003100010030000000300000FF
:100E300000300001002F0000002F0000002F0000F4
:100E4000002F0001002E0000002E0000002E0001E7
:100E5000002D0000002D0000002D0000002D0001DD
:100E6000002C0000002C0000002C0000002C0001D1
:100E7000002B0000002B0000002B0000002B0001C5
:100E8000002A0000002A0000002A0000002A0001B9
:100E900000290000002900000029000000290000AE
:100EA00000290001002800000028000000280000A0
:100EB0000028000000280001002700000027000093
:100EC0000027000000270000002700010026000086
:100ED0000026000000260000002600000026000179
:100EE000002500000025000000250000002500006E
:100EF000002500000025000100240000002400005F
:100F00000024000000240000002400010023000051
:100F10000023000000230000002300000023000045
:100F20000023000000230001002200000022000036
:100F30000022000000220000002200000022000128
:100F4000002100000021000000210000002100001D
:100F5000002100000021000000210001002000000D
:100F60000020000000200000002000000020000001
:100F7000002000000020000000200001001F0000F1
:100F8000001F0000001F0000001F0000001F0000E5
:100F9000001F0000001F0001001E0000001E0000D6
:100FA000001E0000001E0000003930000033250044
:100FB0000087190000B00F0000DB080000BD04002E
:100FC00000740200003F01000053544F505045444C
:100FD0002E20005072696E7465722073746F707089
:100FE00065642064756520746F206572726F72731A
:100FF0002E2046697820746865206572726F7220B1
:10100000616E6420757365204D39393920746F2005
:10101000726573746172742E202854656D706572E8
:1010200061747572652069732072657365742E2012
:1010300053657420697420616674657220726573EB
:1010400074617274696E67290A0021212053544F1C
:10105000502063616C6C65642062656361757365C3
:10106000206F6620424C546F756368206572726F02
:1010700072202D20726573746172742077697468B0
:10108000204D3939390A004F46460A0046616465E9
:10109000204865696768742000426564204C657665
:1010A000656C696E6720004661696C656420746FC9
:1010B00020656E61626C6520426564204C657665D2
:1010C0006C696E670A00496E76616C6964206D65B3
:1010D00073682E0A0050726F62696E6720506F69E4
:1010E0006E740025532025692F25690050726F62A8
:1010F000696E67206D65736820706F696E7420007B
:10110000202844525952554E290047323920417502
:10111000746F20426564204C6576656C696E67006B
:101120003F20284C2C522C462C4229206F757420CD
:101130006F6620626F756E64732E0A0042616420D0
:101140005A2076616C75650A004E6F2062696C6981
:101150006E65617220677269640A00687474703A1F
:101160002F2F6D61726C696E66772E6F72670062E9
:1011700075676669782D322E302E7800436F6E6663
:10118000696775726174696F6E004F6666004F6EB5
:10119000004D6F74696F6E004175746F20486F6DFC
:1011A00065005053550047656E6572696300507263
:1011B0006F746F636F6C00312E3000426175640094
:1011C000313135323030004D656C7A6920284372F8
:1011D00065616C697479290045787472756465720B
:1011E00073004C7563792028323032303038303417
:1011F0002E632900323032302D30362D31390054F3
:101200006865726D6973746F727300426F617264A6
:1012100020496E666F005072696E74657220496E67
:10122000666F0041626F7574205072696E746572EA
:101230000054756E6500496E666F20536372656574
:101240006E00536F667420456E6473746F70730024
:101250004D38340044697361626C65205374657065
:1012600070657273004732380A4D3438205031307F
:10127000004D34382050726F6265205465737400DD
:10128000473238005072696E74205061757365641E
:101290000020746F6F206C6F6E67206578747275B4
:1012A00073696F6E2070726576656E7465640A008E
:1012B00020636F6C6420657874727573696F6E203B
:1012C00070726576656E7465640A00486F6D65209E
:1012D00025732573257320466972737400220A00F2
:1012E000556E6B6E6F776E20636F6D6D616E643AD5
:1012F0002022004C7563792028323032303038306B
:10130000342E63292052656164792E005072696E13
:1013100074696E672E2E2E002121204B494C4C20E3
:1013200063617573656420627920746F6F206D75D9
:10133000636820696E6163746976652074696D65A0
:10134000202D2063757272656E7420636F6D6D6100
:101350006E643A20004E6F20436865636B73756D51
:101360002077697468206C696E65206E756D6265A2
:10137000722C204C617374204C696E653A200063B6
:101380006865636B73756D206D69736D61746368F7
:101390002C204C617374204C696E653A20004C69B6
:1013A0006E65204E756D626572206973206E6F7474
:1013B000204C617374204C696E65204E756D6265BA
:1013C000722B312C204C617374204C696E653A206D
:1013D000004D31313000627573793A207061757358
:1013E000656420666F7220696E7075740A0062759C
:1013F00073793A2070617573656420666F72207529
:101400007365720A00627573793A2070726F636552
:101410007373696E670A00506C656173652052656D
:10142000736574005052494E5445522048414C5403
:1014300045440025533A202553004B494C4C454424
:101440002E20005072696E7465722068616C74653C
:10145000642E206B696C6C28292063616C6C656458
:10146000210A006563686F3A004572726F723A0034
:1014700042696C696E656172204C6576656C696E57
:101480006720477269643A0A0000FE0003FF800784
:10149000C7C00701E00000E00000F0000070040099
:1014A000700E00701F00703F80F00E00E00F01E032
:1014B00007C7C003FF8000FE0000FE0003FF800797
:1014C000C7C00F01E00E00E03F80F01F00700E006B
:1014D000700400700000700000F00000E00701E000
:1014E00007C7C003FF8000FE000E000E000E000EB6
:1014F000000E000E000E000E007FC03F801F000E89
:1015000000040004000E001F003F807FC00E000E8C
:10151000000E000E000E000E000E000E00FFFFFF7A
:101520007F80FFC0FFC0FFC07F807F80FFC0FFC003
:10153000FFC03F001E000C004D33303320553120DA
:101540004525692053256900504944204175746F31
:1015500074756E65202A005049442D44202A00509D
:1015600049442D49202A005049442D50202A00206A
:10157000082046616374002008204D61780020082F
:10158000204D696E004175746F74656D7000205A4E
:101590003A0020593A002020506C616E6E6572420C
:1015A000756666657242797465733A2000204672EA
:1015B0006565204D656D6F72793A2000436F6D70DF
:1015C000696C65643A2041756720203420323032DE
:1015D000300A00204C617374205570646174656436
:1015E0003A20323032302D30362D3139207C2041B6
:1015F0007574686F723A202870616469632C204C9E
:10160000756379290A006275676669782D322E3014
:101610002E780A004D61726C696E0020536F6674FB
:10162000776172652052657365740A002057617492
:101630006368646F672052657365740A00204272A4
:101640006F776E206F75742052657365740A002081
:1016500045787465726E616C2052657365740A001A
:10166000506F77657255700A002553202563202539
:101670006320256320256300656E6473746F707347
:10168000206869743A200000000001000000010099
:10169000008000555555000000400033333300AA48
:1016A000AA2A004992240000002000C7711C00995A
:1016B000991900D1451700555515003BB113002469
:1016C00049120011111100000010000F0F0F00E36C
:1016D000380E0043790D00CCCC0C00C3300C00E870
:1016E000A20B0064210B00AAAA0A00703D0A009D0B
:1016F000D80900427B090092240900DCD308008845
:101700008808001042080000000800F0C1070087A8
:1017100087070075500700711C07003EEB0600A10B
:10172000BC06006990060066660600703E06006111
:1017300018060017F4050074D105005BB00500B26F
:10174000900500627205005555050078390500B80E
:101750001E0500050505004EEC040087D40400A119
:10176000BD040090A7040049920400C17D0400EE6E
:10177000690400C7560400444404005C32040008B5
:1017800021040041100400000004003FF00300F8B1
:10179000E0030026D20300C3C30300CCB503003A24
:1017A000A803000A9B0300388E0300C08103009F3A
:1017B000750300D0690300505E03001D530300341D
:1017C000480300913D03003333030016290300381A
:1017D0001F030097150300300C0300030303000BE5
:1017E000FA020049F10200BAE802005CE002002DB2
:1017F000D802002DD0020059C80200B0C00200314A
:10180000B90200DAB10200AAAA0200A0A30200BC39
:101810009C0200FA9502005C8F0200DF88020082C1
:10182000820200457C0200277602002770020043F6
:101830006A02007C640200D05E02003F590200C8C8
:10184000530200FFFDFCFAF8F6F4F2F0EEECEAE9E0
:10185000E7E5E3E1E0DEDCDAD9D7D5D4D2D0CFCDED
:10186000CBCAC8C7C5C3C2C0BFBDBCBAB9B7B6B47E
:10187000B3B2B0AFADACAAA9A8A6A5A4A2A1A09EE0
:101880009D9C9A99989795949392908F8E8D8B8A20
:101890008988878684838281807F7E7D7B7A797840
:1018A00077767574737271706F6E6D6C6B6A696840
:1018B00067666564636261605F5E5D5C5B5A595830
:1018C000585756555453525150504F4E4D4C4B4A09
:1018D0004A4948474646454443424241403F3E3ECE
:1018E0003D3C3B3B3A393838373635353433323284
:1018F0003130302F2E2E2D2C2B2B2A29292827272B
:1019000026252524232322212120201F1E1E1D1CC5
:101910001C1B1B1A19191818171616151514131352
:1019200012121111100F0F0E0E0D0D0C0C0B0A0AD6
:10193000090908080707060605050404030302024F
:101940000100001FE0201020102010102010202087
:1019500010201030300840048003001FE03FF03FAB
:10196000F03FF01FE01FE03FF03FF03FF00FC007F7
:101970008003003FFFF038007030FC3020FC102066
:1019800078102030102C00D02E31D02F7BD02F7B20
:10199000D02E31D02C00D020301020781020FC1018
:1019A00030FC303800703FFFF03FFFF038007031FE
:1019B00086302387102787902F87D02F03D02030A1
:1019C000102078102078102030102F03D02F87D0CF
:1019D0002787902387103186303800703FFFF01F33
:1019E000FFF81FFFF804104002082002082004102E
:1019F0004008208010410010410008208004104061
:101A00000000001FFFF81FFFF800000000006060EA
:101A1000C3F60C6060C713186060CE03186060CC1A
:101A200001B06060CC01B06060DC00E06060CC00C0
:101A3000C060608C00C060618E00C07F3B87B0C01A
:101A40007F1F03F0C0000000000020202020202085
:101A50002000416476616E63656420536574746927
:101A60006E67730053746F72652053657474696E8A
:101A70006773004C6F61642053657474696E67739B
:101A8000004C6576656C20436F726E65727300461C
:101A900061646520486569676874004564697420FD
:101AA0004D657368004732380A473239004C657615
:101AB000656C2042656400436D643A2053746F770F
:101AC00000436D643A204465706C6F7900436D6427
:101AD0003A2053656C662D5465737400436D643A07
:101AE0002053572D4D6F646500436D643A20526555
:101AF00073657400526573746F7265204465666126
:101B0000756C747300424C546F75636800313235E4
:101B1000004245443A4550434F53203130304B004A
:101B200052756E617761792057617463683A204F0E
:101B30004E004D61782054656D7000323735004D90
:101B4000696E2054656D700045313A204550434F11
:101B500053203130304B0054656D7065726174757F
:101B600072650050726F6265205A204F6666736519
:101B700074004D61696E0050726568656174205033
:101B80004C4120456E640050726568656174205058
:101B90004C41204265640050726568656174204163
:101BA000425320456E64005072656865617420413F
:101BB00042532042656400436F6F6C646F776E0020
:101BC00050726568656174204142530050726568C7
:101BD00065617420504C410046616E20537065650C
:101BE00064004E6F7A7A6C6500466C6F77003F0038
:101BF000454550524F4D2056657273696F6E2045B2
:101C000072726F7200454550524F4D20496E6465A7
:101C100078204572726F7200454550524F4D2043F7
:101C20005243204572726F720049676E6F72650091
:101C3000496E697469616C697A6520454550524FF7
:101C40004D0053657474696E67732053746F7265C9
:101C5000640053657474696E67732053746F7265A2
:101C6000642028004572723A207574663820666FC9
:101C70006E74206E6F7420696E697469616C697A24
:101C800065642E002568753A253032687500256830
:101C900075642025303268753A2530326875000049
:101CA0000C0F00FE07022603BC017FFE08FE08FEA3
:101CB00005080806000040F0C888889878100508D4
:101CC00008060000C0F88888888888F80505050699
:101CD00000012030F830200508080600002070F8C8
:101CE00020202020E00509090600FF2070A8A8B8E0
:101CF00088887020050606060001E08CEA8C8A0AB6
:101D00000509090600FFF8A88888888888A8F805CA
:101D10000A0A0600FE205050505088A8A888700378
:101D2000030306000340A040FFFFFFFFFFFFFFFF8C
:101D3000FFFFFFFFFFFFFFFFFFFFFFFFFFFF0000B1
:101D4000000605FF010707060200808080808000F2
:101D500080030303060105A0A0A0050606060000F7
:101D600050F85050F8500509090600FF2070A8A04F
:101D70007028A87020050707060000C8C81020407A
:101D8000989805070706000040A0A040A8906801A9
:101D900003030602058080800309090601FF204035
:101DA000408080804040200309090601FF804040B8
:101DB00020202040408005070706000020A8702052
:101DC00070A8200505050600012020F82020020348
:101DD000030601FFC04080050101060003F802026E
:101DE00002060100C0C00507070600000810102009
:101DF000404080050707060000708898A8C88870D2
:101E000003070706010040C040404040E0050707C7
:101E1000060000708808102040F80507070600003B
:101E2000F8081030088870050707060000103050C9
:101E300090F81010050707060000F880F0080888E1
:101E400070050707060000304080F088887005079D
:101E500007060000F80810102020200507070600DC
:101E600000708888708888700507070600007088F1
:101E70008878081060020505060100C0C000C0C0D7
:101E80000206060601FFC0C000C04080030505062B
:101E900001012040804020050303060002F800F8FD
:101EA0000305050601018040204080050707060064
:101EB00000708810202000200507070600007088A9
:101EC000B8A8B88070050707060000708888F888F1
:101ED0008888050707060000F04848704848F00564
:101EE0000707060000708880808088700507070655
:101EF0000000F04848484848F0050707060000F889
:101F00008080F08080F8050707060000F88080F0E8
:101F100080808005070706000070888080988870A0
:101F2000050707060000888888F88888880307075F
:101F3000060100E04040404040E005070706000081
:101F4000381010101090600507070600008890A058
:101F5000C0A09088050707060000808080808080F0
:101F6000F805070706000088D8A88888888805072C
:101F7000070600008888C8A8988888050707060013
:101F80000070888888888870050707060000F08838
:101F900088F080808005070706000070888888A880
:101FA0009068050707060000F08888F0A090880573
:101FB000070706000070888070088870050707060C
:101FC0000000F820202020202005070706000088B8
:101FD00088888888887005070706000088888888B0
:101FE00050502005070706000088888888A8A85058
:101FF00005070706000088885020508888050707D5
:1020000006000088885020202020050707060000D1
:10201000F80810204080F80309090601FFE08080DD
:102020008080808080E00507070600008040402017
:102030001010080309090601FFE0202020202020BD
:1020400020E0050303060005205088050101060075
:10205000FEF8030303060105804020050505060080
:102060000070087888780507070600008080F088EF
:102070008888F005050506000070808088700507D7
:102080000706000008087888888878050505060096
:10209000007088F08070050707060000304840E0B7
:1020A0004040400507070600FE7088888878087061
:1020B0000507070600008080F088888888030707E6
:1020C0000601004000C0404040E00409090601FE4E
:1020D00010003010101010906005070706000080F7
:1020E000808890E09088030707060100C0404040C8
:1020F0004040E0050505060000D0A8A8A8A80505F1
:1021000005060000B0C8888888050505060000702F
:10211000888888700507070600FEF0888888F080A8
:10212000800507070600FE78888888780808050576
:1021300005060000B0C8808080050505060000780F
:10214000807008F00507070600002020F8202020F6
:1021500018050505060000888888986805050506A5
:10216000000088888850200505050600008888A89A
:10217000A85005050506000088502050880507076F
:102180000600FE888888502040800505050600006E
:10219000F8102040F80309090601FF204040408064
:1021A000404040200109090602FF80808080808035
:1021B0008080800309090601FF80404040204040A4
:1021C000408005030306000248A890FF1FFFFFFFA1
:1021D000FFFFFF600000000001FF40000000000062
:1021E000FF8000000000007F83CF00000C303F879D
:1021F000FF80000C301F867980000C000F8C30C7E8
:10220000838C30E78C30CFC7CC31F38C30DCECECF6
:1022100033B98C30D86C6C33198C30D06C0C3319CA
:102220008C30D86C0C33198C30DC6C0E3B198C3034
:10223000CF7C079F198C30C77C038F1940000000AA
:10224000000002600000000000061FFFFFFFFFFF0C
:10225000F8202D20496E76616C696420657874726F
:1022600075646572206E756D62657220210A005476
:102270004845524D414C2052554E4157415900540A
:102280006865726D616C2052756E61776179004589
:1022900072723A204D415854454D50004D415854AA
:1022A000454D5020747269676765726564004572B8
:1022B000723A204D494E54454D50004D494E5445BB
:1022C0004D502074726967676572656400202F0045
:1022D0002042403A0020403A0070012C0190012732
:1022E00001B0012201C0011D01F00118011002130B
:1022F0000130020E016002090190020401C002FFD8
:10230000000003FA004003F5008003F000D003EB67
:10231000002004E6007004E100E004DC004005D782
:1023200000C005D2004006CD00D006C8008007C31B
:10233000003008BE00F008B900C009B400B00AAF10
:1023400000B00BAA00D00CA500000EA000500F9BFF
:1023500000C01096005012910000148C00C0158728
:1023600000B0178200B0197D00D01B7800001E73EA
:102370000040206E0090226900F024640040275F36
:102380000090295A00E02B5500102E500020304BB1
:102390000010324600E033410090353C00103737E2
:1023A0000070383200A0392D00B03A2800A03B233D
:1023B00000603C1E00103D1900903D1400103E0FBF
:1023C00000703E0A00C03E0500003F0000403FFB99
:1023D000FF803FF6FFC03FF1FF6F70656E00545203
:1023E00049474745524544007A5F6D696E00795F01
:1023F0006D696E00785F6D696E005265706F727402
:10240000696E6720656E6473746F70207374617495
:1024100075730A005761726E696E673A20486F6D76
:10242000696E672042756D702044697669736F72BA
:10243000203C20310A000202040000A0400000A05D
:102440004000000040206D61783A2000206D696EE8
:102450003A20004361703A00526573656E643A2019
:1024600000452025530023646566696E6520444558
:102470004641554C545F004B6420004B6920004B93
:10248000702000504944204175746F74756E65204A
:1024900066696E697368656421205075742074687C
:1024A00065206C617374204B702C204B6920616E29
:1024B00064204B6420636F6E7374616E7473206666
:1024C000726F6D2062656C6F7720696E746F204348
:1024D0006F6E66696775726174696F6E2E680A0047
:1024E000504944204175746F74756E65206661694A
:1024F0006C6564212074696D656F75740A000A202B
:10250000436C617373696320504944200A00204B77
:10251000643A2000204B693A2000204B703A20009A
:102520000A204E6F206F76657273686F6F740A00B1
:102530002054753A2000204B753A200020643A2040
:102540000020626961733A2000504944204175744B
:102550006F74756E652073746172740A005049441B
:10256000204175746F74756E65206661696C656471
:10257000212054656D706572617475726520746F89
:102580006F20686967680A00504944204175746F7C
:1025900074756E65206661696C65642120426164B2
:1025A000206578747275646572206E756D626572EF
:1025B0000A0000002100240027002A000000220059
:1025C000250028002B000000200023002600290001
:1025D00002020202020202020404040404040404CB
:1025E00003030303030303030101010101010101CB
:1025F00001020408102040800102040810204080DD
:1026000001020408102040808040201008040201CC
:10261000000000010200090A00000000040308078E
:1026200000000000000000000000000000000000AA
:102630004D6F76652025736D6D004D6F766520308A
:102640002E316D6D004D6F766520316D6D004D6FD3
:1026500076652031306D6D004D6F7665204178696B
:102660007300486F74656E6420746F6F20636F6CC5
:1026700064004578747275646572004D6F766520EC
:102680005A004D6F76652059004D6F7665205800D1
:10269000456E636C6F73757265004572726F722060
:1026A00077726974696E6720746F20454550524F88
:1026B0004D210A000F150E1216170E1303021A14DD
:1026C00001000E0DFF180C040C1900014573746510
:1026D00070732F6D6D005A73746570732F6D6D007C
:1026E0005973746570732F6D6D00587374657073D2
:1026F0002F6D6D0053746570732F6D6D004E65788E
:102700007420436F726E657200446F6E65004E6593
:10271000787400486F6D696E672058595A005A20C6
:1027200056616C756500496E646578205900496E84
:102730006465782058002062797465733B20637269
:102740006320004E6F20454550524F4D2E0A0045E4
:102750004550524F4D206461746173697A652065FC
:1027600072726F722E0A002073746F726564207328
:10277000657474696E6773207265747269657665D5
:1027800064202800202863616C63756C6174656443
:1027900029210A0020213D2000454550524F4D205F
:1027A000435243206D69736D61746368202D202846
:1027B00073746F7265642920002053697A653A202A
:1027C00000496E6465783A2000204D61726C696E34
:1027D0003D563830290A00454550524F4D20766508
:1027E0007273696F6E206D69736D61746368202800
:1027F000454550524F4D3D003F2856296572626F46
:102800007365206C6576656C20696D706C6175739D
:1028100069626C652028302D34292E0A00446576C3
:10282000696174696F6E0025533A202573005374F3
:10283000616E6461726420446576696174696F6E6B
:102840003A20002052616E67653A20004D65616E46
:102850003A200046696E6973686564210A00207237
:10286000616E67653A2000207369676D613A2000E8
:10287000206D65616E3A20003A207A3A2000206F80
:10288000662000476F696E6720746F3A20580043D6
:10289000570A00206469723A0020616E676C653ADD
:1028A000005374617274207261646975733A004DEB
:1028B000343820506F696E740025533A2025642FF8
:1028C000256400506F736974696F6E696E67207458
:1028D00068652070726F62652E2E2E0A003F4E755D
:1028E0006D626572206F66206C65677320696E206B
:1028F0006D6F76656D656E74206E6F7420706C619F
:10290000757369626C652028302D3135292E0A00D7
:102910003F2028582C5929206F7574206F6620623B
:102920006F756E64732E0A003F53616D706C652085
:1029300073697A65206E6F7420706C61757369625B
:102940006C652028342D3530292E0A004D3438206E
:102950005A2D50726F6265205265706561746162B4
:10296000696C69747920546573740A00204D39329A
:10297000205800496E76616C69642050696E204D64
:102980006F64650A0020496E76616C696420657821
:102990007472756465722000446966663A2020206E
:1029A0000046726F6D5374703A00537465707065B1
:1029B000723A00556E4C6576656C3A004C657665EA
:1029C0006C65643A005261773A20202020000A4C5E
:1029D0006F676963616C3A00436F756E7420453AA6
:1029E0000020436F756E7420583A004D3130362008
:1029F0005000453100626564002C20737973746562
:102A00006D2073746F707065642120486561746512
:102A1000725F49443A200048656174696E672046D8
:102A200061696C65640048656174696E6720666100
:102A3000696C6564004D3131322053687574646F80
:102A4000776E0048617264636F64656420446566F4
:102A500061756C742053657474696E6773204C6F74
:102A6000616465640A003B200020204D3835312028
:102A700058005A2D50726F6265204F6666736574F8
:102A80000020204D33303420500020440020204DC1
:102A90003330312050005049442073657474696E9E
:102AA00067733A0020460020480020204D3134351D
:102AB0002053004D6174657269616C2068656174B2
:102AC000757020706172616D65746572733A002073
:102AD0004A002020473239205720490020204D3419
:102AE00032302053004175746F20426564204C657C
:102AF00076656C696E673A0020204D32303620587A
:102B000000486F6D65206F66667365743A0020201B
:102B10004D323035204200416476616E6365643A1F
:102B200020423C6D696E5F7365676D656E745F749E
:102B3000696D655F75733E20533C6D696E5F6665B8
:102B40006564726174653E20543C6D696E5F747299
:102B50006176656C5F66656564726174653E205878
:102B60003C6D61785F785F6A65726B3E20593C6DA1
:102B700061785F795F6A65726B3E205A3C6D61785F
:102B80005F7A5F6A65726B3E20453C6D61785F6578
:102B90005F6A65726B3E0020204D32303420500059
:102BA000416363656C65726174696F6E2028756E30
:102BB0006974732F7332293A20503C7072696E74B5
:102BC0005F616363656C3E20523C72657472616341
:102BD000745F616363656C3E20543C74726176651A
:102BE0006C5F616363656C3E0020204D32303120A4
:102BF00058004D6178696D756D20416363656C6542
:102C0000726174696F6E2028756E6974732F7332E8
:102C1000293A0020450020204D3230332058004D05
:102C20006178696D756D2066656564726174657340
:102C30002028756E6974732F73293A005374657078
:102C4000732070657220756E69743A0020204D31D2
:102C500034392043203B20556E69747320696E20FF
:102C600043656C736975730A0020286D6D29002017
:102C700020473231202020203B20556E697473207C
:102C8000696E206D6D00486F6D696E6720466169E1
:102C90006C6564000000FA430000FA430000A040A5
:102CA0000000C8410000A0420000A0420000C8434C
:102CB0000000D342F4010000F401000064000000B1
:102CC00088130000205A3A200020593A200042651B
:102CD0006420583A200050726F62696E6720466126
:102CE000696C65640A0050726F62696E67204661A4
:102CF000696C65640000ECE211241FBECFEFD0E4E4
:102D0000DEBFCDBF11E0A0E0B1E0E0E3F5EE01E011
:102D10000BBF02C007900D92A63FB107D9F720E183
:102D2000A6EFB1E001C01D92A134B207E1F716E1B0
:102D3000CCE7D6E104C02197FE010E94AFEFCB376C
:102D4000D107C9F70E94C9DD0C9496F20C940000DB
:102D5000A2E3B0E0EEEAF6E10C94B8EF209139037B
:102D60002AA781E080933903809138038D3409F4D8
:102D7000D7C3843511F40C94B426873411F00C9425
:102D8000CF2680913603909137038C31910509F459
:102D900035C18CF48430910509F4D2C01CF402973B
:102DA00038F1BAC38531910511F40C94D1264B97B3
:102DB00009F404C1B1C38A32910509F486C244F40E
:102DC0008D31910509F42AC14E9709F43BC1A4C382
:102DD0008B35910509F4F6C18C35910509F4F7C1DD
:102DE0008A35910509F098C3109235030C94D126C9
:102DF00080913403813011F00C94D12614E2C12E5D
:102E000013E0D12E87E9E82E83E0F82E91E1A92E78
:102E100090E1B92E10E088E5810F0E94663A882380
:102E200019F10E946A382B013C01812F0E94EBCBE3
:102E3000882351F0D7012D913D914D915C91C301B3
:102E4000B2010E94F0EF09C0F50120813181428179
:102E50005381C301B2010E94EFEFD6016D937D93C0
:102E60008D939C9313970AC0F70180819181A28171
:102E7000B381F60180839183A283B3831F5FF4E063
:102E8000CF0ED11C24E0E20EF11C34E0A30EB11CE5
:102E9000133009F685E40E94663A882301F10E9406
:102EA0006A386B017C0183E00E94EBCB882371F0D0
:102EB0002091A3033091A4034091A5035091A60350
:102EC000C701B6010E94F0EF6B017C01C092300394
:102ED000D0923103E0923203F092330310C080911C
:102EE000A3039091A403A091A503B091A60380939E
:102EF000300390933103A0933203B093330340E047
:102F000050E0BA0186E40E94A59F20E030E0A901CC
:102F10000E948FF1181684F40E946A3820E030E095
:102F200040E752E40E946AF060936E0170936F0173
:102F300080937001909371010E9449980C94D1265E
:102F400080E50E94663A882329F00E9400CD6B013B
:102F50007C0103C0C12CD12C760183E50E94663A26
:102F6000882361F00E946A3820E030E04AE754E4A8
:102F70000E9448E90E94D7F06B017C010E940D6B12
:102F80008091CF02811105C060E08FE697E00E943A
:102F900066870E940B67C60ED71EE81EF91E0E94A8
:102FA0000B67DC01CB018C199D09AE09BF09B7FD88
:102FB00002C00C94D1260E94725BF1CF0E9454553E
:102FC00081110C94D1268CE0E8E7F1E0DE01119646
:102FD00001900D928A95E1F780E50E94663A882378
:102FE00021F00E943738CB0102C080E090E0BE01A2
:102FF0006F5F7F4F0E94A8860C94D1268091CE02ED
:103000008770873011F00C94E42660E08FE40E9412
:10301000883A81110C94D1260C94E4260E945455D0
:1030200081110C94D1268091CD02882311F40C9447
:10303000082960E08FE40E94883A81110C94D1261F
:103040000C94082920911D1030911E1040911F10E2
:10305000509120106091970370919803809199038B
:1030600090919A030E94F0EFAB01BC0188E50E94A9
:10307000A59F69837A838B839C8320912110309153
:103080002210409123105091241060919B03709165
:103090009C0380919D0390919E030E94F0EFAB01F1
:1030A000BC0189E50E94A59F6D837E838F839887ED
:1030B000BE016B5F7F4FCE0101960E948836882348
:1030C00011F40C94D12680E00E947D570E94B19BA0
:1030D00061E085E40E94883A21E0482FBE016B5FE1
:1030E0007F4FCE0101960E94C5D86B017C019B01E8
:1030F000AC010E940CF281115FC089809A80AB8084
:10310000BC8020E030E0A901C501B4010E94E3E8E1
:1031100087FF05C027E137EB41E558EB04C027E105
:1031200037EB41E558E3C501B4010E94F0EFAB0174
:10313000BC018EEC9CE20E94CB5A8D809E80AF80B9
:10314000B88420E030E0A901C501B4010E94E3E8A1
:1031500087FF05C027E137EB41E558EB04C027E1C5
:1031600037EB41E558E3C501B4010E94F0EFAB0134
:10317000BC0189EC9CE20E94CB5A20E030E0A9011E
:10318000C701B6010E94E3E887FF05C067E177EB5E
:1031900081E598EB04C067E177EB81E598E3A7014F
:1031A00096010E94F0EFAB01BC0184EC9CE20E940E
:1031B000CB5A8AE00E945FB70E94989B0E94DC9ED7
:1031C0000C94D1268FE0809335030C94D126E3ED47
:1031D0002E2EE1E03E2EFFEBEF2EF2E0FF2EA7E9D0
:1031E000B3E0BF8FAE8FA1E1CA2EA0E1DA2E00E0DE
:1031F00010E0F10181911F010E94663A882309F4D1
:103200004AC00E946A382B013C01133049F0D601B4
:103210002D913D914D915C910E94EFEF2B013C016E
:10322000EE8DFF8D2081318142815381C301B20136
:103230000E94EFEF4B015C012DEB37E346E855EBC5
:103240000E948FF187FD0AC02DEB37E346E855E376
:10325000C501B4010E94E3E81816ECF4133051F4F0
:103260004092A3035092A4036092A5037092A60318
:1032700001E011C0A5019401D7016D917D918D915F
:103280009C910E94F0EFF7016083718382839383A6
:10329000812F0E9416981F5FF4E0EF0EF11C2E8D17
:1032A0003F8D2C5F3F4F3F8F2E8F34E0C30ED11CDC
:1032B000143009F09ECF002321F083EA93E00E94AE
:1032C000C86E0E94DC9E0C94D1268091340381301C
:1032D00011F00C94D12689E40E94663AE82E8823E6
:1032E00021F00E946738082F01C000E08AE40E94A4
:1032F000663AF82E882321F00E946738182F01C003
:1033000010E0EE2011F0053020F4FF2041F01530E0
:1033100030F086E197E00E94325A0C94D12680E189
:10332000E7E9F3E0A4E2B3E001900D928A95E1F7BA
:10333000EE2019F1602F000F770B880B990B0E947C
:10334000E9E82091AF023091B0024091B102509172
:10335000B2020E9448E92091B7023091B802409130
:10336000B9025091BA020E94F0EF60932403709367
:1033700025038093260390932703FF2019F1612FE3
:10338000110F770B880B990B0E94E9E82091B3028B
:103390003091B4024091B5025091B6020E9448E9C2
:1033A0002091BB023091BC024091BD025091BE02FF
:1033B0000E94F0EF609328037093290380932A03FF
:1033C00090932B0360E080E50E94883A8823C1F146
:1033D000EE20D1F020911D1030911E1040911F1051
:1033E0005091201060912403709125038091260351
:1033F000909127030E94EFEF6093240370932503BD
:103400008093260390932703FF20D1F02091211071
:103410003091221040912310509124106091280384
:103420007091290380912A0390912B030E94EFEF62
:10343000609328037093290380932A0390932B03AE
:1034400040E050E0BA0186E40E94A59F6B017C0138
:1034500020E030E0A9010E948FF118165CF420E012
:1034600030E040E752E4C701B6010E946AF06B0108
:103470007C0103C0C12CD12C760180906E0190900C
:103480006F01A0907001B090710120E030E0A901BF
:10349000C701B6010E94E3E8882341F0C0926E01A3
:1034A000D0926F01E0927001F092710100912101C0
:1034B0001091220184E690E09093220180932101F3
:1034C000C0902C01D0902D01E0902E01F0902F01A2
:1034D00080E090E0A0E8BFE380932C0190932D0161
:1034E000A0932E01B0932F010E94499880926E0103
:1034F00090926F01A0927001B0927101109322011D
:1035000000932101C0922C01D0922D01E0922E0156
:10351000F0922F010C94D1260E9449550C94D1268B
:1035200080913603909137038937910509F40DC6D0
:103530000CF09BC08C35910509F4A0C40CF04AC076
:103540008934910509F484C2FCF48231910509F4AF
:1035500045C46CF497FF02C00C94B12682309105EB
:103560000CF444C1419709F4A1C10C94B1268A32EC
:10357000910509F465C28033910509F465C24F973E
:1035800011F00C94B126AFC18135910509F404C442
:103590008CF48C34910509F48DC28D34910509F4B5
:1035A0009EC28B34910511F00C94B1260E94D1B4C7
:1035B0000C94D1268335910509F409C40CF400C498
:1035C0008435910509F40AC48535910509F433C49D
:1035D0000C94B1268F36910509F405C3CCF48B36D3
:1035E000910509F4E3C264F48936910509F4A3C294
:1035F0000CF0B5C28836910509F475C20C94B12659
:103600008D36910509F493C20CF0DAC20C94D126E0
:103610008337910509F4D0C45CF48137910509F42E
:103620002DC314F40C94D1260E940ECA0C94D126FA
:103630008637910509F44CC534F48537910509F4B2
:1036400033C50C94B1268737910509F47BC58837BB
:10365000910511F00C94B12681E08093CC02809307
:10366000CB020E949C9F0C94D1268E3241E094079D
:1036700011F40C9429250CF055C08D3C910509F4EA
:103680003FC6FCF48E3B910509F449C374F48139BB
:10369000910509F461C58B39910509F455C38C383E
:1036A000910511F00C94B12613C38B3C910509F4DC
:1036B000D4C50CF0F1C5893C910509F4A8C50C945A
:1036C000B1268D3D910509F435C79CF4833D9105E4
:1036D00009F443C68C3D910509F405C78E3C91055C
:1036E00011F00C94B12610E6E12E12E0F12E10E05C
:1036F00022C68831A1E09A0709F4B0C734F4823EAB
:10370000910509F461C70C94B1268232E1E09E076D
:1037100011F40C94C5238D32914011F40C9436248D
:103720000C94B126853A21E0920711F40C947D2582
:1037300084F5813941E0940711F40C94702594F4D8
:103740008033A1E09A0711F40C94B62414F40C947D
:103750006D258039914011F00C94B1260E940D6BBB
:103760000C94D1268A39F1E09F0711F40C94D126EC
:10377000843A21E0920711F40C947A258239914021
:1037800011F00C94B1260E947F360E94DC9E0C94AE
:10379000D126863F41E0940711F40C94552684F419
:1037A000843FA1E09A0711F40C944F2614F00C9476
:1037B00052268C3A914011F40C94F3250C94B126C6
:1037C000883FF1E09F0711F40C94612614F40C94E7
:1037D0005826833533E0930711F40C947226873E04
:1037E000934011F40C94A3260C94B12680E50E941A
:1037F000663A882329F00E9400CD6B017C0103C04A
:10380000C12CD12C760183E50E94663A882361F0B1
:103810000E946A3820E030E04AE754E40E9448E918
:103820000E94D7F06B017C010E940D6B8091AD026C
:103830009091AE02009739F020919203211108C0B7
:103840000E94378705C060E083E097E00E946687AA
:103850001091390383E08093390381E08093AC02B7
:10386000C114D104E104F10431F00E940B67C60ECB
:10387000D71EE81EF91E8091AC02882311F40C9427
:103880000F29C114D104E104F10411F40C940B29A3
:103890000E940B67DC01CB018C199D09AE09BF09A1
:1038A000B7FF02C00C940B290C940F298091A80239
:1038B00084FF02C00C9416298091AA0287FF02C0DF
:1038C0000C9416298091AB02837011F00C94162988
:1038D00060E08AEF96E00E9466875E985E98159891
:1038E0005E980C94D1260E947C836B017C0120E8B9
:1038F00031E541E050E00E941FEFC9016DE671E043
:103900000E9488EF4B015C01C701B60120E13EE057
:1039100040E050E00E941FEFCA01B90128E130E009
:1039200040E050E00E941FEF2B013C011B01C7014A
:10393000B6012CE330E040E050E00E941FEF6B0145
:103940007C01CA01B9012CE330E040E050E00E9464
:103950001FEF8E010F5F1F4F8114910499F0DF92CA
:10396000CF927F936F935F924F92BF92AF929F924D
:103970008F9289ED96E09F938F931F930F930E94F0
:103980007DE813C0A114B104B1F0DF92CF927F9310
:103990006F935F924F92BF92AF928DED96E09F939F
:1039A0008F931F930F930E947DE80FB6F894DEBFAC
:1039B0000FBECDBF32C04114510479F0DF92CF92D7
:1039C0007F936F935F924F9281EE96E09F938F93D8
:1039D0001F930F930E947DE8E8CF6115710569F090
:1039E000DF92CF927F936F9385EE96E09F938F93B4
:1039F0001F930F930E947DE8D8CFDF92CF9289EE7C
:103A000096E09F938F931F930F930E947DE80F90F2
:103A10000F900F900F900F900F9080919203811153
:103A200003C0C8010E9437870E94F95AB8018DEE81
:103A300096E00E94E95A8AE00E945FB70C94D12672
:103A40000E9408CC0C94D1260E9442C30C94D1262B
:103A500080E50E9496388823A1F00E946A3820E011
:103A600030E048EC52E40E9448E90E94D7F060310F
:103A700037E2730710F060E177E27093A30260937E
:103A8000A20282E50E949638882311F40C94D12674
:103A90000E9400CD9B01AC01ACE3B0E00E945DEF61
:103AA0006093A4027093A5028093A6029093A7024C
:103AB0000C94D12680919603813011F00C94D1267C
:103AC00082E0809396030E940B6760939E0270933E
:103AD0009F028093A0029093A1020C94D1260E9491
:103AE000CB830C94D1268091930983FF02C00C9460
:103AF000D1260E94C2CB87FF02C00C94D12683E559
:103B00000E94663A882379F00E946A380E94D2F0B7
:103B1000CB010E9407930E942A95811104C00E9444
:103B2000CB830E9438550E94696A0C94D1260E946A
:103B3000C0A40C94D1260E94C2CB182F87FD0AC0C6
:103B400081EB92E00E94325A812F0E9417938AE003
:103B50000E945FB74AA5409339030C94D12C60E0D2
:103B600080E50E947E3A81110C94D12681E40E9466
:103B70009638882329F06091CF03062F10E002C009
:103B80000FEF10E083E50E94663A882349F00E9417
:103B900037388B016F3F710519F010F00FEF10E00F
:103BA000B80180E00E9444D30C94D12660E080E507
:103BB0000E947E3A60E070E00E9444D30C94D126CB
:103BC0008EE40E94663A882311F40C94D1260E9458
:103BD000373860939A0270939B0280939C02909373
:103BE0009D020C94D12683E50E949638882331F0FB
:103BF00060E083E50E947E3A809393090E94F95A1F
:103C000082ED96E00E94325A80919309882369F1EF
:103C100074E8E72E77E0F72E00E010E020E08091D6
:103C2000930990E0A0E0B0E0002E04C0B695A795FF
:103C3000979587950A94D2F780FF0EC0DD24D39420
:103C4000D20E222319F08CE20E945FB7F701859112
:103C500094910E94325A2D2D0F5F1F4F52E0E50EB6
:103C6000F11C05301105D9F604C08EEC96E00E94D7
:103C7000325A8AE00E945FB70C94D12683E50E94F5
:103C8000663A882381F00E944738282F30E02D3390
:103C9000310524F4809320010C94D1268CE3809389
:103CA00020010C94D1260E94F95AC0902001D12CF9
:103CB000E12CF12C87EC96E00E94325A4AE0C701D1
:103CC000B6010E9466B78AE00E945FB70C94D126C5
:103CD0008091930983FF02C00C94D12683E50E9452
:103CE000663A882311F40C94D1260E946A380E9407
:103CF000D2F06337710514F063E770E070938C02C3
:103D000060938B020E948E910E942A9581110C94DF
:103D1000D1260E94CB830E9438550C94D1268091E5
:103D2000930983FF02C00C94D12683E50E94663A72
:103D3000082F81110C94282982E50E94663A81118E
:103D40000C9428290C94D12683E50E94663A882396
:103D500011F40C94D1260E944738182F90E0CD978B
:103D60000CF01CE310937E020E940B676B017C0138
:103D7000212F30E0A8EEB3E00E946DEFC60ED71EF3
:103D8000E81EF91EC0927A02D0927B02E0927C0279
:103D9000F0927D020C94D1260E943D950E94CB8327
:103DA0000E941D6B0E9404CC68EE73E080E090E0FE
:103DB0000E940D5A60E082E996E00E946687F1C792
:103DC000809135038F7D806180933503EAC78091B0
:103DD00035038F7E806280933503E3C783E50E94BD
:103DE000663A882399F00E946A3820E030E04AE77A
:103DF00054E40E9448E90E94D7F060931B0170933D
:103E00001C0180931D0190931E01CBC78091A802D5
:103E100084FF02C00C949F2A8091AA0287FF02C0EF
:103E20000C949F2A8091AB02837011F00C949F2A0E
:103E30000E941D6BB6C783E50E949638882309F45B
:103E4000B0C70E940B6760937F02709380028093DB
:103E50008102909382020E946A3820E030E04AE7B3
:103E600054E40E9448E90E94D7F060937602709370
:103E70007702809378029093790293C70E94C2CB15
:103E800087FD8FC79091A80294FD04C09091AA026B
:103E900097FF0AC043EDC42E41E0D42E54E9E52E2D
:103EA00059E0F52E10E009C09091AB02937091F7A4
:103EB000682F81E00E94C5CC74C7D6018D916D0139
:103EC0000E94663A882309F46DC0133009F063C07C
:103ED0000E946A384B015C0120E030E040EA51E486
:103EE0000E94E3E887FF4EC0A50194016091B409E8
:103EF0007091B5098091B6099091B7090E946AF056
:103F00002B013C019B01AC016091B3037091B403A0
:103F10008091B5039091B6030E9448E96093B30382
:103F20007093B4038093B5039093B603A3019201F9
:103F30006091C4097091C5098091C6099091C70923
:103F40000E9448E96093C4097093C5098093C6092B
:103F50009093C7096091C3037091C4038091C50316
:103F60009091C6030E94E7E8A30192010E9448E9EC
:103F70000E94D7F06093C3037093C4038093C5037A
:103F80009093C6038092B4099092B509A092B609A5
:103F9000B092B70907C00E946A38F701648B758B2D
:103FA000868B978B1F5FF4E0EF0EF11C143009F045
:103FB00084CF0E94E96AF5C680EB95E00E94325AF0
:103FC00060E080EA95E00E9445A860E08BE895E01B
:103FD0000E9445A861E08BE39CE10E9445A860E057
:103FE00080E895E00E9445A861E080E795E00E94A6
:103FF00045A860E087E695E00E9445A861E08DE570
:1040000095E00E9445A861E083E595E00E9445A8FF
:1040100061E08BE495E00E9445A861E08DE395E0C6
:104020000E9445A861E08FE295E00E9445A860E00B
:1040300080E295E00E9445A860E082E195E00E9460
:1040400045A860E08CEF94E00E9445A861E08BEE0B
:1040500094E00E9445A860E08CED94E00E9445A8A1
:1040600060E085ED94E00E9445A860E080EC94E07B
:104070000E9445A860E082EB94E00E9445A861E0C0
:104080008FE994E00E9445A860E082E994E00E94F4
:1040900045A861E085E894E00E9445A860E081E7DA
:1040A00094E00E9445A87DC68091AD029091AE0239
:1040B000009759F0DC012C91222339F020919203D2
:1040C00021116FC60E9437876CC60E94385569C699
:1040D0000091AD021091AE0294E0F12C40E09150BD
:1040E00021F1F8018081282F2B7F213421F42181B7
:1040F0002133D9F407C08035C1F4818180538A30DF
:1041000048F013C0813421F0853421F441E002C02D
:10411000FF24F39498012E5F3F4F89012F5F3F4F9B
:10412000F80180818032C9F3DACF41110E94F95A37
:10413000FF2021F08DE694E00E94325AC8010E94CF
:1041400050B82FC60E944D9F2CC61092CC021092E0
:10415000CB020E949C9F25C660E070E083E50E9430
:10416000723A8C011127023011053CF00E94F65A78
:104170008BE494E00E94325A14C688E40E94663AA6
:104180008823A9F00E9467388A3A91053CF085306F
:10419000F1E09F072CF084E091E002C08AEA90E011
:1041A000F801EE0FFF1FEE58FD4F9183808386E4E8
:1041B0000E94663A882381F00E94673897FD07C005
:1041C0008F3F910529F024F08FEF90E001C080E04F
:1041D000F801E059FD4F808382E40E94663A88230B
:1041E00009F4DFC50E9467388530910534F08437C3
:1041F00091052CF083E790E002C085E090E0000F8D
:10420000111FF801E459FD4F91838083CAC50E94B4
:10421000C2CB87FDC6C583EDE82E81E0F82E04E908
:1042200019E094EAC92E99E0D92ED7018D917D012C
:104230000E949638882359F00E946A380E94D7F06D
:10424000F80160837183828393830E94A86A0C5F64
:104250001F4FC016D10649F7A4C50E94C2CB87FDE7
:10426000A0C503EDE02E01E0F02E04E919E0D7012E
:104270008D917D010E949638882339F00E946A381A
:10428000F80164A375A386A397A30C5F1F4FF9E001
:10429000043A1F0761F785C58091A90287FF02C014
:1042A0000C94C42A8091AA028E7011F00C94C42A36
:1042B0004091C8095091C9096091CA097091CB0910
:1042C0008BE394E00E94CB5A4091CC095091CD09E8
:1042D0006091CE097091CF0988E394E00E94CB5A97
:1042E0004091D0095091D1096091D2097091D309C0
:1042F00085E394E00E94CB5A8AE00E945FB751C5E3
:104300008091A802827111F00C940A2B8091AA026C
:104310008C7811F00C940A2B8091AB02837011F011
:104320000C940A2B3EC51F5FB4E0EB0EF11C13305A
:1043300011F40C94611988E5810F0E949638882346
:1043400091F30E946A38D7016D937D938D939C936E
:104350001397812F0E941698E6CF4090111050902D
:10436000121060901310709014102091030130917E
:1043700004014091050150910601C301B2010E9460
:10438000F0EF6E8F7F8F88A399A380901510909087
:104390001610A0901710B0901810209107013091BE
:1043A00008014091090150910A01C501B4010E9420
:1043B000F0EF6AA37BA38CA39DA3C0901910D090AB
:1043C0001A10E0901B10F0901C1020910B013091FE
:1043D0000C0140910D0150910E01C701B6010E94E0
:1043E000F0EF6EA37FA388A799A720910F013091CA
:1043F00010014091110150911201C301B2010E94BC
:10440000F0EF2B013C0120911301309114014091F8
:10441000150150911601C501B4010E94F0EF4B0146
:104420005C012091170130911801409119015091C0
:104430001A01C701B6010E94F0EF6B017C010E94D6
:10444000F95A83EF93E00E94325A83E50E9496382E
:10445000882321F00E945838809302018091020144
:10446000882319F08FE29BE102C08CEA95E00E945C
:10447000325A8BEE93E00E94325A4E8D5F8D68A1C6
:1044800079A18FEE9BE20E94CB5A4AA15BA16CA15D
:104490007DA186E896E20E94CB5A4EA15FA168A555
:1044A00079A58FE796E20E94CB5A80E59AE10E94B7
:1044B000325A83EE93E00E94325AB301A2018FEE8A
:1044C0009BE20E94CB5AB501A40186E896E20E94C5
:1044D000CB5AB701A6018FE796E20E94CB5A8AE039
:1044E0000E945FB75EC483E50E94663A882331F07C
:1044F0000E94673890932201809321018091A80245
:104500009091A902A091AA02B091AB02892B8A2BAB
:104510008B2B09F046C460912101709122018FED2F
:1045200093E00E94DC5A85E20E945FB78AE00E9415
:104530005FB737C40E94C2CBF82E87FD32C483E533
:104540000E94663A0F2D0F2C000C110B882309F1E5
:104550000E946738F801EE0FFF1FE050FF4F918374
:104560008083000F111F000F111F045D1E4FBC013F
:10457000990F880B990B0E94E9E82AE037ED43E296
:104580005CE30E9448E9F80160837183828393832E
:1045900008C40E94F95A85E40E945FB780E38F0D3A
:1045A0000E945FB7000F111FF801E050FF4F6081BC
:1045B000718187ED93E00E94DC5A85E20E945FB72B
:1045C0008AE00E945FB7EDC380E50E949638882399
:1045D00009F4E7C360E070E080E50E94723A8C0164
:1045E0006FEF7FEF83E50E94723A7C01019603979B
:1045F00008F0D7C307FDD5C3802F0E940FB58823CD
:1046000039F00E94F65A88EC93E00E94325AC9C3EE
:104610000E940D6BD02E60E0802F0E9438ABFFEF20
:10462000EF16FF0629F021E0E216F10459F007C069
:10463000802F0E94E4AA01E010E0892B29F000E01D
:1046400010E002C001E010E08D2D0E94E4AA801766
:10465000910709F4A6C30E94725BF6CF80E50E9421
:104660009638882309F49DC30E9467388C01892BF2
:1046700009F07FC083E50E949638882389F00E9464
:1046800067388F3F3FEF930729F486E49EE00E944E
:104690002FB587C3BC0186E49EE00E94C9B581C3E3
:1046A0000E94F95A60E070E080EC93E00E94DC5ACE
:1046B0008091480E28E532E06901C81AD10887FDCB
:1046C000D394CC0CDD1CCC0CDD1C0D2C000CEE08A6
:1046D000FF088091470E28E830E04901881A9108C8
:1046E00087FD9394880C991C880C991C092C000C4C
:1046F000AA08BB088091460E8F3FC1F090E0FC01F4
:10470000EE0FFF1F8E0F9F1FFC01EF5DF14F218108
:10471000328143E0220F331F4A95E1F754E036958A
:1047200027955A95E1F72E5F3F4F02C020E030E019
:104730002F5F3F4FC901330FAA0BBB0B9C01AD018B
:10474000281939094A095B09A4EBB0E00E945DEF22
:10475000A7019601281939094A095B090E9441EF0E
:10476000B90184E19AE20E94DC5A8AE00E945FB7B4
:1047700018C30E94F65AB80181EC93E00E94DC5AFB
:1047800080E297E00E94325A0CC38AE50E94663AA2
:10479000811106C083E50E94663A882309F44BC064
:1047A0000E946A3820E030E040E050EC0E94E3E8EC
:1047B00087FDADC70E946A3820E030E040E050E459
:1047C0000E948FF118160CF49CC70E946A386B0186
:1047D0007C0180910F108695869580FF22C02091E4
:1047E000B0093091B1094091B2095091B309C701A4
:1047F000B6010E9448E90E94D2F020915E023091F9
:104800005F02260F371F30935F0220935E022091D4
:104810005C0230915D02620F731F70935D026093C2
:104820005C0280E50E949638882309F476C70E94CE
:104830005838811172C78091AA0287FD94C7809170
:10484000AB02837009F08FC70E94F95A409125107E
:1048500050912610609127107091281081EB93E001
:104860000E94CB5A8AE00E945FB79BC260E085E459
:104870000E947E3A811173C080E50E949638882399
:1048800051F00E946A386093150E7093160E809353
:10489000170E9093180E89E40E949638882381F0B1
:1048A0000E946A382CEA35EC47E25EE30E9448E950
:1048B0006093190E70931A0E80931B0E90931C0E2A
:1048C00084E40E949638882381F00E946A382CEA9A
:1048D00035EC47E25EE30E946AF060931D0E709330
:1048E0001E0E80931F0E9093200E0E94F95A409145
:1048F000150E5091160E6091170E7091180E8DEADC
:1049000093E00E94CB5A2CEA35EC47E25EE36091DB
:10491000190E70911A0E80911B0E90911C0E0E9420
:104920006AF0AB01BC0189EA93E00E94CB5A2CEA01
:1049300035EC47E25EE360911D0E70911E0E809192
:104940001F0E9091200E0E9448E9AB01BC0185EA40
:1049500093E00E94CB5A8AE00E945FB722C20E9475
:10496000F65A83E993E00E94325A1BC280E50E9406
:104970009638882351F00E946A3860938E027093B3
:104980008F02809390029093910289E40E9496385E
:10499000882381F00E946A382CEA35EC47E25EE316
:1049A0000E9448E96093920270939302809394026C
:1049B0009093950284E40E949638882381F00E94A7
:1049C0006A382CEA35EC47E25EE30E946AF06093B5
:1049D00096027093970280939802909399020E9496
:1049E000F95A40918E0250918F026091900270911D
:1049F00091028DEA93E00E94CB5A2CEA35EC47E213
:104A00005EE3609192027091930280919402909182
:104A100095020E946AF0AB01BC0189EA93E00E9412
:104A2000CB5A2CEA35EC47E25EE360919602709136
:104A3000970280919802909199020E9448E9AB01F7
:104A4000BC0185EA93E00E94CB5A8AE00E945FB7DE
:104A5000A8C183E50E949638182F882371F00E9420
:104A60006A380E94D2F0709331016093300121E0E6
:104A7000672B09F020E02093E00380E50E94963840
:104A8000882359F02091300130913101232B11F00E
:104A90000E9458388093E00384C1111182C10E94A2
:104AA000F95A80E893E00E94325A8091E00388230B
:104AB00019F08FE392E102C087E693E00E94325A38
:104AC00060913001709131018FE693E00E94DC5AD1
:104AD0008BE693E00E94325A64C10E94B99F61C183
:104AE0008091101081110C94611981E00E94A769D6
:104AF0000C9461190E94DF3854C16FEF7FEF89E495
:104B00000E94723A8C016FEF7FEF8AE40E94723A42
:104B10007C018AE50E94663A811108C081E50E9405
:104B2000663AD82E882309F424C601C0D12CC02EA1
:104B300081E0800F863008F04FC0BE2C81E08E0DE2
:104B4000863008F049C0102F0E946A382B013C01C2
:104B5000A02E07FDA12C17FF02C0A4E0CA2E8E2DA7
:104B6000E7FCE12C87FF02C0F4E0BF2EE5E03E2E1B
:104B7000CA1408F416C1FE2C3A9C40011124BF143B
:104B800048F10F2D10E0DD2071F0F401E00FF11F6E
:104B9000EE0FFF1FEE0FFF1FE850FE4F2081318107
:104BA0004281538103C020E030E0A901080D191DA6
:104BB000000F111F000F111F08501E4FC301B2013B
:104BC0000E94F0EFD8016D937D938D939C93139782
:104BD000F394D5CFA394CCCF0E94F65A86E197E008
:104BE0000E94325ADEC00E9454558111DAC008E793
:104BF00017E0E7E9F3E0FF8FEE8F9E012F5F3F4F55
:104C0000190196EAC92E97E0D92E7901C8010E94B0
:104C1000BAC7AE8DBF8D8D909D90AD90BD90BF8F6A
:104C2000AE8FA50194010E94EFEF2B013C01F7012B
:104C3000608371838283938320E030E040EA51EC0B
:104C40000E948FF187FD0AC020E030E040EA51E485
:104C5000C301B2010E94E3E818162CF4F601849116
:104C600018160CF48DC5D7018D909D90AD90BD9018
:104C70007D0120E030E040EA51ECC501B4010E9422
:104C80008FF187FD88C520E030E040EA51E4C5019E
:104C9000B4010E94E3E818160CF08BC57CC50E9495
:104CA0009F877FC00E948BD57CC00E9430D479C082
:104CB00061E083E50E94883A91E089270E9499D5B6
:104CC00070C081E08093F7010E9459BD1092F701F6
:104CD000882309F466C00E94F95A80E093E00E949C
:104CE000325A5FC08091AA0287FD8DC58091AB02C8
:104CF000837009F088C540911D1050911E1060917D
:104D00001F107091201081EF92E00E94CB5A4091C9
:104D1000211050912210609123107091241086E888
:104D200096E20E94CB5A4091251050912610609136
:104D30002710709128108FE796E20E94CB5A8AE0E4
:104D40000E945FB72EC081E08093340310929203DB
:104D500060E083E50E94883A811123C00E9484A606
:104D600020C00E9449551DC00091360310913703A1
:104D70000023B9F00E94F95A84E50E945FB7B80198
:104D80007727072E000C880B990B0E94C0B780E292
:104D90000E945FB783E993E00E94325A02C00E94EA
:104DA0004955E091F601F0E0EE54F14F80818823FF
:104DB00039F081EB92E00E94325A8AE00E945FB79C
:104DC0003AA530933903EDC50E940D6B3090CD02AA
:104DD00080E00E947D570E94B19B81E08093CC02CD
:104DE0000E949C9F8AE50E949638082F8823A1F094
:104DF00081E00E943698F82E82E00E94369811E0F9
:104E0000811101C010E0F110C7C588E50E949638F5
:104E1000F82E811103C0EBC110E0F7CF111107C0CC
:104E200089E50E949638182F8F1107C01F2D011396
:104E3000E1C111E0FF24F39401E080E1E7E9F3E050
:104E4000A4E2B3E001900D928A95E1F782E50E9419
:104E5000663A882361F00E946A384B015C0120E0C9
:104E600030E0A9010E94E3E88823D1F106C0812C3B
:104E7000912CB0EAAB2EB0E4BB2E80910F1082FDD6
:104E800009C020919F033091A0034091A10350914C
:104E9000A20303C020E030E0A901C501B4010E94D3
:104EA000F0EF60932C0370932D0380932E03909367
:104EB0002F0320919F033091A0034091A1035091B3
:104EC000A2030E948FF118165CF419821A821B82C9
:104ED0001C82BE016F5F7F4F8CE293E00E94999C21
:104EE000FF2009F4C8C0112309F4C2C0109297032F
:104EF000109298031092990310929A0310929B03B8
:104F000010929C0310929D0310929E030E944C9D50
:104F1000E6EAF7E024908AE997E00E94BAC74B01DD
:104F20005C018EE997E00E94BAC72B013C019B010E
:104F3000AC01C501B4010E948FF118162CF4A50133
:104F40009401C301B20104C0A3019201C501B401DF
:104F50000E946AF06E8F7F8F88A399A3E2E9F7E041
:104F600085919591A591B4918AA39BA3ACA3BDA370
:104F7000EEE8F7E0C590D590E590F490A701960192
:104F8000BC01CD010E948FF1181624F0CAA0DBA04D
:104F9000ECA0FDA02E8D3F8D48A159A1CA01B901F9
:104FA0000E9448E920E030E040E85FE30E94F0EF33
:104FB0000E94CEF1A70196010E9448E96A8F7B8F7B
:104FC0008C8F9D8FE7EAF7E0F49020E030E040EC32
:104FD0005FE3C301B2010E9448E92B013C016F2D40
:104FE000FF0C770B880B990B0E94E9E89B01AC0141
:104FF000C301B2010E9448E969837A838B839C8351
:1050000020E030E040EC5FE3C501B4010E9448E9D4
:105010006B017C01622D022C000C770B880B990B25
:105020000E94E9E89B01AC01C701B6010E9448E972
:105030006E8B7F8B888F998FAE01465E5F4FBE016E
:105040006F5F7F4FCE0146960E94789C0E94FAD3F4
:1050500010929703109298031092990310929A035A
:1050600010929B0310929C0310929D0310929E033A
:1050700080E00E944E9D112319F081E00E944E9D18
:10508000002309F4A3C080E00E94543B80910F10DC
:105090008370833051F060E081E697E00E9466877C
:1050A0000E94F95A82E597E0B0C00E944C9D409062
:1050B0009F035090A0036090A1037090A2032091E1
:1050C0001D1030911E1040911F105091201060E073
:1050D00070E08AEE92E40E94EFEF6B017C01609336
:1050E0002403709325038093260390932703209134
:1050F000211030912210409123105091241060E033
:1051000070E08AEE92E40E94EFEF4B015C01609345
:1051100028037093290380932A0390932B032091F3
:105120002510309126104091271050912810C3016E
:10513000B2010E94EFEF60932C0370932D038093D4
:105140002E0390932F0327E137EB41ED58EBC50178
:10515000B4010E948FF187FD4FC027E030E04BE69D
:1051600053E4C501B4010E94E3E818160CF444C0EE
:1051700027E137EB41ED58EBC701B6010E948FF1F3
:1051800087FD3AC027E030E04BE653E4C701B601A3
:105190000E94E3E8181684F11E8A1F8A188E198E61
:1051A00088E0E4E2F3E0DE01119601900D928A9529
:1051B000E1F7AE014A5E5F4FBE016B5F7F4FCE01EC
:1051C00001960E94789C82E00E944E9D0E944C9D18
:1051D0008091CB028093CC02832D0E947D570E9448
:1051E000989B83E0809323010E94DC9EDACD11110D
:1051F00024CE16CEF12E21CE60E081E497E00E940D
:1052000066870E94F95A8FE297E00E94325ADECFF9
:105210000E94103CC6CD0E94725B0C943B1C109205
:10522000AC02109339030E943855BBCD88E50E942B
:10523000963881115E9889E50E94963881115E98B2
:105240008AE50E949638882309F4ABCD1598A9CD3C
:105250000E946A380E94D2F0633771050CF06CC16D
:1052600070938C0260938B020E948E910E942A950B
:1052700081110E94D1B460918B0270918C02072E33
:10528000000C880B990B0E94E9E82091870230916D
:1052900088024091890250918A020E948FF118166B
:1052A0001CF488EB96E002C089EA96E060E00E9478
:1052B000668781E080931F011EA21FA218A619A66F
:1052C0001BA61CA61DA61EA610E080E09CE3ACE178
:1052D000B6E48FA798ABA9ABBAABC12CD12C60E8D0
:1052E000E62E6FEBF62E33243394412C512C3201F1
:1052F00060918B0270918C02072E000C880B990B29
:105300000E94E9E84B015C01A70196010E94E3E8D5
:105310008823F9F020918702309188024091890218
:1053200050918A02C501B401011107C00E94E3E84F
:10533000182F111F1127111F10C00E94E3E887FFCB
:105340000BC080911F01882309F42BCD0E94385592
:1053500028CD4601570101C010E00E940B676B0188
:105360007C01DC01CB012BA53CA54DA55EA5821BD4
:10537000930BA40BB50BB7FD33C0D701C601885101
:105380009C4FAF4FBF4F8BA79CA7ADA7BEA780E098
:105390000E94179387E892E00E94325A4114510408
:1053A00061047104B9F0D301C201805F984DAF4F21
:1053B000BF4FBC01CD016C197D098E099F0928EEF4
:1053C00033E040E050E00E941FEFCA01B9010E94A3
:1053D000C0B703C08FE30E945FB78AE00E945FB747
:1053E0000E94725B0E940B6760937F027093800241
:1053F00080938102909382022091870230918802EB
:105400004091890250918A022AA33BA34CA35DA339
:10541000C501B4010E94EFEF6E8F7F8F88A399A31F
:1054200020E030E0A9010E948FF187FF09C08E8D36
:105430009F8DA8A1B9A1B0588E8F9F8FA8A3B9A3A3
:105440004114510461047104B9F420E030E040E8F3
:105450005FE36E8D7F8D88A199A10E94E3E887FFAD
:1054600019C0260137013320A9F090E1490E97E2D7
:10547000591E611C711C0EC020E030E040E450E475
:105480006E8D7F8D88A199A10E948FF1181614F45A
:10549000260137011123A9F12EA13FA148A559A545
:1054A000211531054105510541F0D701C601821B87
:1054B000930BA40BB50BB7FD24C02AA13BA14CA1B3
:1054C0005DA16FA578A989A99AA90E94EFEF20E0B4
:1054D00030E040E85FE30E94E3E887FD32CFD70188
:1054E000C601805A9541AF4FBF4F8EA39FA3A8A777
:1054F000B9A72AA13BA14CA15DA12FA738AB49AB0D
:105500005AAB80911F01882309F41BCF4114510429
:105510006104710421F4312C75016401E9CE30E19C
:10552000C31A37E2D30AE108F108C418D508E6081F
:10553000F708F7FCF0CF05CF63E770E091CE0E944B
:105540000D6B88E50E949638882331F05E9A809131
:105550000F108E7F80930F1089E50E949638882364
:1055600031F05E9A80910F108D7F80930F108AE545
:105570000E949638882309F414CC159A80910F1054
:105580008B7F80930F100DCC83E50E94663A8823B1
:1055900091F00E946A386093C8097093C90980939A
:1055A000CA099093CB096093D0097093D109809375
:1055B000D2099093D30980E50E94663A882351F07E
:1055C0000E946A386093C8097093C9098093CA0918
:1055D0009093CB0982E50E94663A882351F00E949D
:1055E0006A386093CC097093CD098093CE0990936B
:1055F000CF0984E50E94663A882309F4D2CB0E9441
:105600006A386093D0097093D1098093D20990933E
:10561000D309C7CB82E40E949638882351F00E94B8
:1056200000CD6093A4097093A5098093A609909377
:10563000A70983E50E949638882351F00E946A38B2
:105640006093D4097093D5098093D6099093D709B4
:1056500084E50E949638882351F00E946A3860934E
:10566000D8097093D9098093DA099093DB0988E50A
:105670000E949638882351F00E946A386093A703ED
:105680007093A8038093A9039093AA0389E50E94CD
:105690009638882351F00E946A386093AB03709368
:1056A000AC038093AD039093AE038AE50E949638D5
:1056B0008823B1F00E946A386093AF037093B003FF
:1056C0008093B1039093B2032DEC3CEC4CEC5DE382
:1056D0000E94E3E8181624F083E094E00E94325A16
:1056E00085E40E949638882309F45BCB0E946A38CF
:1056F0006093B3037093B4038093B5039093B603A0
:1057000050CBC12CD12CE12C80E4F82E62C8C12CE6
:10571000D12CE12CB0ECFB2E5CC8A7019601609166
:1057200025107091261080912710909128100E94CA
:10573000F0EF6093251070932610809327109093BC
:1057400028100E94F95A409125105091261060911E
:1057500027107091281081EB93E00E94CB5A8AE0C9
:105760000E945FB768C882E50E94963881116CC8B4
:1057700018CB0E94F65A87E493E00E94325A11CB6C
:10578000B7FAB094B7F8B094D7018D929D92AD92CC
:10579000BC92139768CA0E94F65A89E293E00E946D
:1057A000325A61E08BE193E00E9466870E94F4AF79
:1057B000F8CA0C5F1F4FBFEFCB1ADB0AE4E8F7E033
:1057C000E017F10709F022CA80E6E82E82E0F82E01
:1057D00010E0F10181919191A191B1911F01F70127
:1057E00081939193A193B1937F01812F0E94169889
:1057F0001F5F133071F70E94DC9E60E08BE093E046
:105800000E946687CECA20911D1030911E104091D3
:105810001F10509120102E8F3F8F48A359A3409006
:105820002110509022106090231070902410C0908E
:105830002510D0902610E0902710F090281088E5D1
:105840000E94663A882361F10E946A384B015C012C
:1058500020E030E04BE653EC0E948FF187FD0AC058
:1058600020E030E04BE653E4C501B4010E94E3E8D8
:10587000181694F46BEE70E08EED92E00E94DC5A04
:105880006BEE70E089ED92E00E94DC5A84ED97E2C5
:105890000E94325A10E005C08E8E9F8EA8A2B9A237
:1058A00011E089E50E94663A882351F10E946A3826
:1058B0004B015C0120E030E04BE653EC0E948FF19D
:1058C00087FD0AC020E030E04BE653E4C501B40197
:1058D0000E94E3E8181694F46BEE70E086EC92E018
:1058E0000E94DC5A6BEE70E089ED92E00E94DC5A77
:1058F00084ED97E20E94325A10E002C02401350183
:105900008AE50E94663A882339F10E946A386B0161
:105910007C0120E030E040EA51EC0E948FF187FDED
:105920000AC020E030E040EA51E4C701B6010E941D
:10593000E3E818168CF46CEE7FEF84EB92E00E94A3
:10594000DC5A64E170E089ED92E00E94DC5A84ED5B
:1059500097E20E94325A25CA112309F422CA2E8DD9
:105960003F8D48A159A120931D1030931E104093E4
:105970001F105093201040922110509222106092DC
:10598000231070922410C0922510D0922610E0921D
:105990002710F092281005CA81114BCAFF24F394F6
:1059A0003FCAE296E2E10C94D4EFA4E1B0E0EBED63
:1059B000FCE20C94B8EF8FEF9FEF909389008093F7
:1059C00088002AE02983212C312C7894809182034D
:1059D00090918303A0918403B0918503892B8A2B36
:1059E0008B2B71F08091820390918303A0918403AB
:1059F000B0918503892B8A2B8B2B09F0D7C7BCC1AB
:105A00008091B90F8823D1F01092B90F8091B70F10
:105A10009091B80F892B91F01092B80F1092B70F98
:105A20001092420390914C0E80914D0E981731F0D8
:105A300080914D0E8F5F8F7080934D0E8091B70FC8
:105A40009091B80F892B71F240917E0350917F03A2
:105A5000609180037091810380917A0390917B0320
:105A6000A0917C03B0917D030091700310E020E0D1
:105A700030E0841B950BA60BB70B081719072A07F4
:105A80003B0710F4D901C8018A8B840F951FA61F0C
:105A9000B71F80937E0390937F03A0938003B093FE
:105AA0008103E1E08090470390904803A090490370
:105AB000B0904A038091570390915803A0915903E5
:105AC000B0915A03880E991EAA1EBB1E80925703DE
:105AD00090925803A0925903B0925A03B7FC31C078
